{
	"ribbonVaultOld.sol": {
		"vault": {
			"abi": [
				{
					"inputs": [
						{
							"internalType": "address",
							"name": "owner",
							"type": "address"
						},
						{
							"internalType": "string",
							"name": "name",
							"type": "string"
						},
						{
							"internalType": "address",
							"name": "paymentAddress",
							"type": "address"
						},
						{
							"internalType": "address",
							"name": "pointsaddress",
							"type": "address"
						}
					],
					"stateMutability": "nonpayable",
					"type": "constructor"
				},
				{
					"inputs": [
						{
							"internalType": "address",
							"name": "owner",
							"type": "address"
						}
					],
					"name": "OwnableInvalidOwner",
					"type": "error"
				},
				{
					"inputs": [
						{
							"internalType": "address",
							"name": "account",
							"type": "address"
						}
					],
					"name": "OwnableUnauthorizedAccount",
					"type": "error"
				},
				{
					"anonymous": false,
					"inputs": [
						{
							"indexed": true,
							"internalType": "address",
							"name": "previousOwner",
							"type": "address"
						},
						{
							"indexed": true,
							"internalType": "address",
							"name": "newOwner",
							"type": "address"
						}
					],
					"name": "OwnershipTransferred",
					"type": "event"
				},
				{
					"anonymous": false,
					"inputs": [
						{
							"indexed": false,
							"internalType": "address",
							"name": "user",
							"type": "address"
						},
						{
							"indexed": false,
							"internalType": "uint256",
							"name": "amount",
							"type": "uint256"
						}
					],
					"name": "PointsClaimed",
					"type": "event"
				},
				{
					"anonymous": false,
					"inputs": [
						{
							"indexed": false,
							"internalType": "address",
							"name": "user",
							"type": "address"
						},
						{
							"indexed": false,
							"internalType": "uint256",
							"name": "pointToSwap",
							"type": "uint256"
						},
						{
							"indexed": false,
							"internalType": "uint256",
							"name": "paymentTokenRecieved",
							"type": "uint256"
						},
						{
							"indexed": false,
							"internalType": "uint256",
							"name": "_fees",
							"type": "uint256"
						}
					],
					"name": "swap",
					"type": "event"
				},
				{
					"inputs": [],
					"name": "TotalfeescollectedPaymentCoin",
					"outputs": [
						{
							"internalType": "uint256",
							"name": "",
							"type": "uint256"
						}
					],
					"stateMutability": "view",
					"type": "function"
				},
				{
					"inputs": [],
					"name": "chainid",
					"outputs": [
						{
							"internalType": "uint256",
							"name": "",
							"type": "uint256"
						}
					],
					"stateMutability": "view",
					"type": "function"
				},
				{
					"inputs": [
						{
							"internalType": "uint256",
							"name": "pointToSwap",
							"type": "uint256"
						}
					],
					"name": "checkAmountToRecive",
					"outputs": [
						{
							"internalType": "uint256",
							"name": "",
							"type": "uint256"
						}
					],
					"stateMutability": "view",
					"type": "function"
				},
				{
					"inputs": [
						{
							"internalType": "bytes",
							"name": "_signature",
							"type": "bytes"
						},
						{
							"internalType": "address",
							"name": "user",
							"type": "address"
						},
						{
							"internalType": "uint256",
							"name": "amount",
							"type": "uint256"
						},
						{
							"internalType": "uint256",
							"name": "deadline",
							"type": "uint256"
						}
					],
					"name": "claimPoints",
					"outputs": [],
					"stateMutability": "nonpayable",
					"type": "function"
				},
				{
					"inputs": [],
					"name": "claimedPaymentCoin",
					"outputs": [
						{
							"internalType": "uint256",
							"name": "",
							"type": "uint256"
						}
					],
					"stateMutability": "view",
					"type": "function"
				},
				{
					"inputs": [],
					"name": "depositFee",
					"outputs": [
						{
							"internalType": "uint256",
							"name": "",
							"type": "uint256"
						}
					],
					"stateMutability": "view",
					"type": "function"
				},
				{
					"inputs": [
						{
							"internalType": "address",
							"name": "_tokenAddress",
							"type": "address"
						},
						{
							"internalType": "address",
							"name": "_to",
							"type": "address"
						},
						{
							"internalType": "uint256",
							"name": "_amount",
							"type": "uint256"
						}
					],
					"name": "emergencyWithdraw",
					"outputs": [],
					"stateMutability": "nonpayable",
					"type": "function"
				},
				{
					"inputs": [],
					"name": "freeze",
					"outputs": [
						{
							"internalType": "bool",
							"name": "",
							"type": "bool"
						}
					],
					"stateMutability": "view",
					"type": "function"
				},
				{
					"inputs": [
						{
							"internalType": "bool",
							"name": "_freeze",
							"type": "bool"
						}
					],
					"name": "freezeContract",
					"outputs": [],
					"stateMutability": "nonpayable",
					"type": "function"
				},
				{
					"inputs": [],
					"name": "initContractBalancePaymentCoin",
					"outputs": [
						{
							"internalType": "uint256",
							"name": "",
							"type": "uint256"
						}
					],
					"stateMutability": "view",
					"type": "function"
				},
				{
					"inputs": [],
					"name": "owner",
					"outputs": [
						{
							"internalType": "address",
							"name": "",
							"type": "address"
						}
					],
					"stateMutability": "view",
					"type": "function"
				},
				{
					"inputs": [],
					"name": "pointsMin",
					"outputs": [
						{
							"internalType": "uint256",
							"name": "",
							"type": "uint256"
						}
					],
					"stateMutability": "view",
					"type": "function"
				},
				{
					"inputs": [],
					"name": "rate",
					"outputs": [
						{
							"internalType": "uint256",
							"name": "",
							"type": "uint256"
						}
					],
					"stateMutability": "view",
					"type": "function"
				},
				{
					"inputs": [],
					"name": "renounceOwnership",
					"outputs": [],
					"stateMutability": "nonpayable",
					"type": "function"
				},
				{
					"inputs": [
						{
							"internalType": "uint256",
							"name": "_pointsMin",
							"type": "uint256"
						}
					],
					"name": "setMinPointsToSWap",
					"outputs": [],
					"stateMutability": "nonpayable",
					"type": "function"
				},
				{
					"inputs": [
						{
							"internalType": "uint256",
							"name": "_fee",
							"type": "uint256"
						}
					],
					"name": "setPaymentDepositfees",
					"outputs": [],
					"stateMutability": "nonpayable",
					"type": "function"
				},
				{
					"inputs": [
						{
							"internalType": "uint256",
							"name": "_rate",
							"type": "uint256"
						}
					],
					"name": "setRate",
					"outputs": [],
					"stateMutability": "nonpayable",
					"type": "function"
				},
				{
					"inputs": [
						{
							"internalType": "uint256",
							"name": "_fee",
							"type": "uint256"
						}
					],
					"name": "setWithdrawalFee",
					"outputs": [],
					"stateMutability": "nonpayable",
					"type": "function"
				},
				{
					"inputs": [
						{
							"internalType": "address",
							"name": "paymentAddress",
							"type": "address"
						},
						{
							"internalType": "address",
							"name": "pointsaddress",
							"type": "address"
						}
					],
					"name": "setpaymentTokenAndpoints",
					"outputs": [],
					"stateMutability": "nonpayable",
					"type": "function"
				},
				{
					"inputs": [
						{
							"internalType": "bytes",
							"name": "_signature",
							"type": "bytes"
						},
						{
							"internalType": "address",
							"name": "user",
							"type": "address"
						},
						{
							"internalType": "uint256",
							"name": "pointToSwap",
							"type": "uint256"
						},
						{
							"internalType": "uint256",
							"name": "deadline",
							"type": "uint256"
						}
					],
					"name": "swapToPaymentCoin",
					"outputs": [],
					"stateMutability": "nonpayable",
					"type": "function"
				},
				{
					"inputs": [
						{
							"internalType": "address",
							"name": "newOwner",
							"type": "address"
						}
					],
					"name": "transferOwnership",
					"outputs": [],
					"stateMutability": "nonpayable",
					"type": "function"
				},
				{
					"inputs": [],
					"name": "vaultName",
					"outputs": [
						{
							"internalType": "string",
							"name": "",
							"type": "string"
						}
					],
					"stateMutability": "view",
					"type": "function"
				},
				{
					"inputs": [],
					"name": "withdrawalFee",
					"outputs": [
						{
							"internalType": "uint256",
							"name": "",
							"type": "uint256"
						}
					],
					"stateMutability": "view",
					"type": "function"
				},
				{
					"inputs": [
						{
							"internalType": "address",
							"name": "feeTakerAddress",
							"type": "address"
						}
					],
					"name": "withdrawfees",
					"outputs": [],
					"stateMutability": "nonpayable",
					"type": "function"
				}
			],
			"devdoc": {
				"errors": {
					"OwnableInvalidOwner(address)": [
						{
							"details": "The owner is not a valid owner account. (eg. `address(0)`)"
						}
					],
					"OwnableUnauthorizedAccount(address)": [
						{
							"details": "The caller account is not authorized to perform an operation."
						}
					]
				},
				"kind": "dev",
				"methods": {
					"owner()": {
						"details": "Returns the address of the current owner."
					},
					"renounceOwnership()": {
						"details": "Leaves the contract without owner. It will not be possible to call `onlyOwner` functions. Can only be called by the current owner. NOTE: Renouncing ownership will leave the contract without an owner, thereby disabling any functionality that is only available to the owner."
					},
					"transferOwnership(address)": {
						"details": "Transfers ownership of the contract to a new account (`newOwner`). Can only be called by the current owner."
					}
				},
				"version": 1
			},
			"evm": {
				"assembly": "    /* \"ribbonVaultOld.sol\":547:5606  contract vault is Ownable{... */\n  mstore(0x40, 0x80)\n    /* \"ribbonVaultOld.sol\":908:921  block.chainid */\n  chainid\n    /* \"ribbonVaultOld.sol\":888:921  uint public chainid=block.chainid */\n  0x0a\n  sstore\n    /* \"ribbonVaultOld.sol\":1224:1579  constructor(address owner,string memory name,address paymentAddress,address pointsaddress)Ownable(owner){... */\n  callvalue\n  dup1\n  iszero\n  tag_1\n  jumpi\n  0x00\n  dup1\n  revert\ntag_1:\n  pop\n  mload(0x40)\n  sub(codesize, bytecodeSize)\n  dup1\n  bytecodeSize\n  dup4\n  codecopy\n  dup2\n  dup2\n  add\n  0x40\n  mstore\n  dup2\n  add\n  swap1\n  tag_2\n  swap2\n  swap1\n  tag_3\n  jump\t// in\ntag_2:\n    /* \"ribbonVaultOld.sol\":1322:1327  owner */\n  dup4\n    /* \"@openzeppelin/contracts/access/Ownable.sol\":1297:1298  0 */\n  0x00\n    /* \"@openzeppelin/contracts/access/Ownable.sol\":1273:1299  initialOwner == address(0) */\n  0xffffffffffffffffffffffffffffffffffffffff\n  and\n    /* \"@openzeppelin/contracts/access/Ownable.sol\":1273:1285  initialOwner */\n  dup2\n    /* \"@openzeppelin/contracts/access/Ownable.sol\":1273:1299  initialOwner == address(0) */\n  0xffffffffffffffffffffffffffffffffffffffff\n  and\n  sub\n    /* \"@openzeppelin/contracts/access/Ownable.sol\":1269:1364  if (initialOwner == address(0)) {... */\n  tag_7\n  jumpi\n    /* \"@openzeppelin/contracts/access/Ownable.sol\":1350:1351  0 */\n  0x00\n    /* \"@openzeppelin/contracts/access/Ownable.sol\":1322:1353  OwnableInvalidOwner(address(0)) */\n  mload(0x40)\n  0x1e4fbdf700000000000000000000000000000000000000000000000000000000\n  dup2\n  mstore\n  0x04\n  add\n  tag_8\n  swap2\n  swap1\n  tag_9\n  jump\t// in\ntag_8:\n  mload(0x40)\n  dup1\n  swap2\n  sub\n  swap1\n  revert\n    /* \"@openzeppelin/contracts/access/Ownable.sol\":1269:1364  if (initialOwner == address(0)) {... */\ntag_7:\n    /* \"@openzeppelin/contracts/access/Ownable.sol\":1373:1405  _transferOwnership(initialOwner) */\n  tag_10\n    /* \"@openzeppelin/contracts/access/Ownable.sol\":1392:1404  initialOwner */\n  dup2\n    /* \"@openzeppelin/contracts/access/Ownable.sol\":1373:1391  _transferOwnership */\n  shl(0x20, tag_11)\n    /* \"@openzeppelin/contracts/access/Ownable.sol\":1373:1405  _transferOwnership(initialOwner) */\n  0x20\n  shr\n  jump\t// in\ntag_10:\n    /* \"@openzeppelin/contracts/access/Ownable.sol\":1225:1412  constructor(address initialOwner) {... */\n  pop\n    /* \"ribbonVaultOld.sol\":1349:1353  name */\n  dup3\n    /* \"ribbonVaultOld.sol\":1339:1348  vaultName */\n  0x0b\n    /* \"ribbonVaultOld.sol\":1339:1353  vaultName=name */\n  swap1\n  dup2\n  tag_13\n  swap2\n  swap1\n  tag_14\n  jump\t// in\ntag_13:\n  pop\n    /* \"ribbonVaultOld.sol\":1376:1378  10 */\n  0x0a\n    /* \"ribbonVaultOld.sol\":1364:1374  depositFee */\n  0x03\n    /* \"ribbonVaultOld.sol\":1364:1378  depositFee =10 */\n  dup2\n  swap1\n  sstore\n  pop\n    /* \"ribbonVaultOld.sol\":1396:1400  5000 */\n  0x1388\n    /* \"ribbonVaultOld.sol\":1389:1393  rate */\n  0x04\n    /* \"ribbonVaultOld.sol\":1389:1400  rate = 5000 */\n  dup2\n  swap1\n  sstore\n  pop\n    /* \"ribbonVaultOld.sol\":1423:1435  10000*10**18 */\n  0x021e19e0c9bab2400000\n    /* \"ribbonVaultOld.sol\":1411:1420  pointsMin */\n  0x06\n    /* \"ribbonVaultOld.sol\":1411:1435  pointsMin = 10000*10**18 */\n  dup2\n  swap1\n  sstore\n  pop\n    /* \"ribbonVaultOld.sol\":1470:1484  paymentAddress */\n  dup2\n    /* \"ribbonVaultOld.sol\":1446:1459  _Ipaymentcoin */\n  0x01\n  0x00\n    /* \"ribbonVaultOld.sol\":1446:1485  _Ipaymentcoin = IERC20T(paymentAddress) */\n  0x0100\n  exp\n  dup2\n  sload\n  dup2\n  0xffffffffffffffffffffffffffffffffffffffff\n  mul\n  not\n  and\n  swap1\n  dup4\n  0xffffffffffffffffffffffffffffffffffffffff\n  and\n  mul\n  or\n  swap1\n  sstore\n  pop\n    /* \"ribbonVaultOld.sol\":1519:1532  pointsaddress */\n  dup1\n    /* \"ribbonVaultOld.sol\":1496:1508  _Ipointscoin */\n  0x02\n  0x00\n    /* \"ribbonVaultOld.sol\":1496:1533  _Ipointscoin = IERC20T(pointsaddress) */\n  0x0100\n  exp\n  dup2\n  sload\n  dup2\n  0xffffffffffffffffffffffffffffffffffffffff\n  mul\n  not\n  and\n  swap1\n  dup4\n  0xffffffffffffffffffffffffffffffffffffffff\n  and\n  mul\n  or\n  swap1\n  sstore\n  pop\n    /* \"ribbonVaultOld.sol\":1224:1579  constructor(address owner,string memory name,address paymentAddress,address pointsaddress)Ownable(owner){... */\n  pop\n  pop\n  pop\n  pop\n    /* \"ribbonVaultOld.sol\":547:5606  contract vault is Ownable{... */\n  jump(tag_15)\n    /* \"@openzeppelin/contracts/access/Ownable.sol\":2912:3099  function _transferOwnership(address newOwner) internal virtual {... */\ntag_11:\n    /* \"@openzeppelin/contracts/access/Ownable.sol\":2985:3001  address oldOwner */\n  0x00\n    /* \"@openzeppelin/contracts/access/Ownable.sol\":3004:3010  _owner */\n  dup1\n  0x00\n  swap1\n  sload\n  swap1\n  0x0100\n  exp\n  swap1\n  div\n  0xffffffffffffffffffffffffffffffffffffffff\n  and\n    /* \"@openzeppelin/contracts/access/Ownable.sol\":2985:3010  address oldOwner = _owner */\n  swap1\n  pop\n    /* \"@openzeppelin/contracts/access/Ownable.sol\":3029:3037  newOwner */\n  dup2\n    /* \"@openzeppelin/contracts/access/Ownable.sol\":3020:3026  _owner */\n  0x00\n  dup1\n    /* \"@openzeppelin/contracts/access/Ownable.sol\":3020:3037  _owner = newOwner */\n  0x0100\n  exp\n  dup2\n  sload\n  dup2\n  0xffffffffffffffffffffffffffffffffffffffff\n  mul\n  not\n  and\n  swap1\n  dup4\n  0xffffffffffffffffffffffffffffffffffffffff\n  and\n  mul\n  or\n  swap1\n  sstore\n  pop\n    /* \"@openzeppelin/contracts/access/Ownable.sol\":3083:3091  newOwner */\n  dup2\n    /* \"@openzeppelin/contracts/access/Ownable.sol\":3052:3092  OwnershipTransferred(oldOwner, newOwner) */\n  0xffffffffffffffffffffffffffffffffffffffff\n  and\n    /* \"@openzeppelin/contracts/access/Ownable.sol\":3073:3081  oldOwner */\n  dup2\n    /* \"@openzeppelin/contracts/access/Ownable.sol\":3052:3092  OwnershipTransferred(oldOwner, newOwner) */\n  0xffffffffffffffffffffffffffffffffffffffff\n  and\n  0x8be0079c531659141344cd1fd0a4f28419497f9722a3daafe3b4186f6b6457e0\n  mload(0x40)\n  mload(0x40)\n  dup1\n  swap2\n  sub\n  swap1\n  log3\n    /* \"@openzeppelin/contracts/access/Ownable.sol\":2975:3099  {... */\n  pop\n    /* \"@openzeppelin/contracts/access/Ownable.sol\":2912:3099  function _transferOwnership(address newOwner) internal virtual {... */\n  pop\n  jump\t// out\n    /* \"#utility.yul\":7:82   */\ntag_17:\n    /* \"#utility.yul\":40:46   */\n  0x00\n    /* \"#utility.yul\":73:75   */\n  0x40\n    /* \"#utility.yul\":67:76   */\n  mload\n    /* \"#utility.yul\":57:76   */\n  swap1\n  pop\n    /* \"#utility.yul\":7:82   */\n  swap1\n  jump\t// out\n    /* \"#utility.yul\":88:205   */\ntag_18:\n    /* \"#utility.yul\":197:198   */\n  0x00\n    /* \"#utility.yul\":194:195   */\n  dup1\n    /* \"#utility.yul\":187:199   */\n  revert\n    /* \"#utility.yul\":211:328   */\ntag_19:\n    /* \"#utility.yul\":320:321   */\n  0x00\n    /* \"#utility.yul\":317:318   */\n  dup1\n    /* \"#utility.yul\":310:322   */\n  revert\n    /* \"#utility.yul\":334:460   */\ntag_20:\n    /* \"#utility.yul\":371:378   */\n  0x00\n    /* \"#utility.yul\":411:453   */\n  0xffffffffffffffffffffffffffffffffffffffff\n    /* \"#utility.yul\":404:409   */\n  dup3\n    /* \"#utility.yul\":400:454   */\n  and\n    /* \"#utility.yul\":389:454   */\n  swap1\n  pop\n    /* \"#utility.yul\":334:460   */\n  swap2\n  swap1\n  pop\n  jump\t// out\n    /* \"#utility.yul\":466:562   */\ntag_21:\n    /* \"#utility.yul\":503:510   */\n  0x00\n    /* \"#utility.yul\":532:556   */\n  tag_60\n    /* \"#utility.yul\":550:555   */\n  dup3\n    /* \"#utility.yul\":532:556   */\n  tag_20\n  jump\t// in\ntag_60:\n    /* \"#utility.yul\":521:556   */\n  swap1\n  pop\n    /* \"#utility.yul\":466:562   */\n  swap2\n  swap1\n  pop\n  jump\t// out\n    /* \"#utility.yul\":568:690   */\ntag_22:\n    /* \"#utility.yul\":641:665   */\n  tag_62\n    /* \"#utility.yul\":659:664   */\n  dup2\n    /* \"#utility.yul\":641:665   */\n  tag_21\n  jump\t// in\ntag_62:\n    /* \"#utility.yul\":634:639   */\n  dup2\n    /* \"#utility.yul\":631:666   */\n  eq\n    /* \"#utility.yul\":621:684   */\n  tag_63\n  jumpi\n    /* \"#utility.yul\":680:681   */\n  0x00\n    /* \"#utility.yul\":677:678   */\n  dup1\n    /* \"#utility.yul\":670:682   */\n  revert\n    /* \"#utility.yul\":621:684   */\ntag_63:\n    /* \"#utility.yul\":568:690   */\n  pop\n  jump\t// out\n    /* \"#utility.yul\":696:839   */\ntag_23:\n    /* \"#utility.yul\":753:758   */\n  0x00\n    /* \"#utility.yul\":784:790   */\n  dup2\n    /* \"#utility.yul\":778:791   */\n  mload\n    /* \"#utility.yul\":769:791   */\n  swap1\n  pop\n    /* \"#utility.yul\":800:833   */\n  tag_65\n    /* \"#utility.yul\":827:832   */\n  dup2\n    /* \"#utility.yul\":800:833   */\n  tag_22\n  jump\t// in\ntag_65:\n    /* \"#utility.yul\":696:839   */\n  swap3\n  swap2\n  pop\n  pop\n  jump\t// out\n    /* \"#utility.yul\":845:962   */\ntag_24:\n    /* \"#utility.yul\":954:955   */\n  0x00\n    /* \"#utility.yul\":951:952   */\n  dup1\n    /* \"#utility.yul\":944:956   */\n  revert\n    /* \"#utility.yul\":968:1085   */\ntag_25:\n    /* \"#utility.yul\":1077:1078   */\n  0x00\n    /* \"#utility.yul\":1074:1075   */\n  dup1\n    /* \"#utility.yul\":1067:1079   */\n  revert\n    /* \"#utility.yul\":1091:1193   */\ntag_26:\n    /* \"#utility.yul\":1132:1138   */\n  0x00\n    /* \"#utility.yul\":1183:1185   */\n  0x1f\n    /* \"#utility.yul\":1179:1186   */\n  not\n    /* \"#utility.yul\":1174:1176   */\n  0x1f\n    /* \"#utility.yul\":1167:1172   */\n  dup4\n    /* \"#utility.yul\":1163:1177   */\n  add\n    /* \"#utility.yul\":1159:1187   */\n  and\n    /* \"#utility.yul\":1149:1187   */\n  swap1\n  pop\n    /* \"#utility.yul\":1091:1193   */\n  swap2\n  swap1\n  pop\n  jump\t// out\n    /* \"#utility.yul\":1199:1379   */\ntag_27:\n    /* \"#utility.yul\":1247:1324   */\n  0x4e487b7100000000000000000000000000000000000000000000000000000000\n    /* \"#utility.yul\":1244:1245   */\n  0x00\n    /* \"#utility.yul\":1237:1325   */\n  mstore\n    /* \"#utility.yul\":1344:1348   */\n  0x41\n    /* \"#utility.yul\":1341:1342   */\n  0x04\n    /* \"#utility.yul\":1334:1349   */\n  mstore\n    /* \"#utility.yul\":1368:1372   */\n  0x24\n    /* \"#utility.yul\":1365:1366   */\n  0x00\n    /* \"#utility.yul\":1358:1373   */\n  revert\n    /* \"#utility.yul\":1385:1666   */\ntag_28:\n    /* \"#utility.yul\":1468:1495   */\n  tag_71\n    /* \"#utility.yul\":1490:1494   */\n  dup3\n    /* \"#utility.yul\":1468:1495   */\n  tag_26\n  jump\t// in\ntag_71:\n    /* \"#utility.yul\":1460:1466   */\n  dup2\n    /* \"#utility.yul\":1456:1496   */\n  add\n    /* \"#utility.yul\":1598:1604   */\n  dup2\n    /* \"#utility.yul\":1586:1596   */\n  dup2\n    /* \"#utility.yul\":1583:1605   */\n  lt\n    /* \"#utility.yul\":1562:1580   */\n  0xffffffffffffffff\n    /* \"#utility.yul\":1550:1560   */\n  dup3\n    /* \"#utility.yul\":1547:1581   */\n  gt\n    /* \"#utility.yul\":1544:1606   */\n  or\n    /* \"#utility.yul\":1541:1629   */\n  iszero\n  tag_72\n  jumpi\n    /* \"#utility.yul\":1609:1627   */\n  tag_73\n  tag_27\n  jump\t// in\ntag_73:\n    /* \"#utility.yul\":1541:1629   */\ntag_72:\n    /* \"#utility.yul\":1649:1659   */\n  dup1\n    /* \"#utility.yul\":1645:1647   */\n  0x40\n    /* \"#utility.yul\":1638:1660   */\n  mstore\n    /* \"#utility.yul\":1428:1666   */\n  pop\n    /* \"#utility.yul\":1385:1666   */\n  pop\n  pop\n  jump\t// out\n    /* \"#utility.yul\":1672:1801   */\ntag_29:\n    /* \"#utility.yul\":1706:1712   */\n  0x00\n    /* \"#utility.yul\":1733:1753   */\n  tag_75\n  tag_17\n  jump\t// in\ntag_75:\n    /* \"#utility.yul\":1723:1753   */\n  swap1\n  pop\n    /* \"#utility.yul\":1762:1795   */\n  tag_76\n    /* \"#utility.yul\":1790:1794   */\n  dup3\n    /* \"#utility.yul\":1782:1788   */\n  dup3\n    /* \"#utility.yul\":1762:1795   */\n  tag_28\n  jump\t// in\ntag_76:\n    /* \"#utility.yul\":1672:1801   */\n  swap2\n  swap1\n  pop\n  jump\t// out\n    /* \"#utility.yul\":1807:2115   */\ntag_30:\n    /* \"#utility.yul\":1869:1873   */\n  0x00\n    /* \"#utility.yul\":1959:1977   */\n  0xffffffffffffffff\n    /* \"#utility.yul\":1951:1957   */\n  dup3\n    /* \"#utility.yul\":1948:1978   */\n  gt\n    /* \"#utility.yul\":1945:2001   */\n  iszero\n  tag_78\n  jumpi\n    /* \"#utility.yul\":1981:1999   */\n  tag_79\n  tag_27\n  jump\t// in\ntag_79:\n    /* \"#utility.yul\":1945:2001   */\ntag_78:\n    /* \"#utility.yul\":2019:2048   */\n  tag_80\n    /* \"#utility.yul\":2041:2047   */\n  dup3\n    /* \"#utility.yul\":2019:2048   */\n  tag_26\n  jump\t// in\ntag_80:\n    /* \"#utility.yul\":2011:2048   */\n  swap1\n  pop\n    /* \"#utility.yul\":2103:2107   */\n  0x20\n    /* \"#utility.yul\":2097:2101   */\n  dup2\n    /* \"#utility.yul\":2093:2108   */\n  add\n    /* \"#utility.yul\":2085:2108   */\n  swap1\n  pop\n    /* \"#utility.yul\":1807:2115   */\n  swap2\n  swap1\n  pop\n  jump\t// out\n    /* \"#utility.yul\":2121:2367   */\ntag_31:\n    /* \"#utility.yul\":2202:2203   */\n  0x00\n    /* \"#utility.yul\":2212:2325   */\ntag_82:\n    /* \"#utility.yul\":2226:2232   */\n  dup4\n    /* \"#utility.yul\":2223:2224   */\n  dup2\n    /* \"#utility.yul\":2220:2233   */\n  lt\n    /* \"#utility.yul\":2212:2325   */\n  iszero\n  tag_84\n  jumpi\n    /* \"#utility.yul\":2311:2312   */\n  dup1\n    /* \"#utility.yul\":2306:2309   */\n  dup3\n    /* \"#utility.yul\":2302:2313   */\n  add\n    /* \"#utility.yul\":2296:2314   */\n  mload\n    /* \"#utility.yul\":2292:2293   */\n  dup2\n    /* \"#utility.yul\":2287:2290   */\n  dup5\n    /* \"#utility.yul\":2283:2294   */\n  add\n    /* \"#utility.yul\":2276:2315   */\n  mstore\n    /* \"#utility.yul\":2248:2250   */\n  0x20\n    /* \"#utility.yul\":2245:2246   */\n  dup2\n    /* \"#utility.yul\":2241:2251   */\n  add\n    /* \"#utility.yul\":2236:2251   */\n  swap1\n  pop\n    /* \"#utility.yul\":2212:2325   */\n  jump(tag_82)\ntag_84:\n    /* \"#utility.yul\":2359:2360   */\n  0x00\n    /* \"#utility.yul\":2350:2356   */\n  dup5\n    /* \"#utility.yul\":2345:2348   */\n  dup5\n    /* \"#utility.yul\":2341:2357   */\n  add\n    /* \"#utility.yul\":2334:2361   */\n  mstore\n    /* \"#utility.yul\":2183:2367   */\n  pop\n    /* \"#utility.yul\":2121:2367   */\n  pop\n  pop\n  pop\n  jump\t// out\n    /* \"#utility.yul\":2373:2807   */\ntag_32:\n    /* \"#utility.yul\":2462:2467   */\n  0x00\n    /* \"#utility.yul\":2487:2553   */\n  tag_86\n    /* \"#utility.yul\":2503:2552   */\n  tag_87\n    /* \"#utility.yul\":2545:2551   */\n  dup5\n    /* \"#utility.yul\":2503:2552   */\n  tag_30\n  jump\t// in\ntag_87:\n    /* \"#utility.yul\":2487:2553   */\n  tag_29\n  jump\t// in\ntag_86:\n    /* \"#utility.yul\":2478:2553   */\n  swap1\n  pop\n    /* \"#utility.yul\":2576:2582   */\n  dup3\n    /* \"#utility.yul\":2569:2574   */\n  dup2\n    /* \"#utility.yul\":2562:2583   */\n  mstore\n    /* \"#utility.yul\":2614:2618   */\n  0x20\n    /* \"#utility.yul\":2607:2612   */\n  dup2\n    /* \"#utility.yul\":2603:2619   */\n  add\n    /* \"#utility.yul\":2652:2655   */\n  dup5\n    /* \"#utility.yul\":2643:2649   */\n  dup5\n    /* \"#utility.yul\":2638:2641   */\n  dup5\n    /* \"#utility.yul\":2634:2650   */\n  add\n    /* \"#utility.yul\":2631:2656   */\n  gt\n    /* \"#utility.yul\":2628:2740   */\n  iszero\n  tag_88\n  jumpi\n    /* \"#utility.yul\":2659:2738   */\n  tag_89\n  tag_25\n  jump\t// in\ntag_89:\n    /* \"#utility.yul\":2628:2740   */\ntag_88:\n    /* \"#utility.yul\":2749:2801   */\n  tag_90\n    /* \"#utility.yul\":2794:2800   */\n  dup5\n    /* \"#utility.yul\":2789:2792   */\n  dup3\n    /* \"#utility.yul\":2784:2787   */\n  dup6\n    /* \"#utility.yul\":2749:2801   */\n  tag_31\n  jump\t// in\ntag_90:\n    /* \"#utility.yul\":2468:2807   */\n  pop\n    /* \"#utility.yul\":2373:2807   */\n  swap4\n  swap3\n  pop\n  pop\n  pop\n  jump\t// out\n    /* \"#utility.yul\":2827:3182   */\ntag_33:\n    /* \"#utility.yul\":2894:2899   */\n  0x00\n    /* \"#utility.yul\":2943:2946   */\n  dup3\n    /* \"#utility.yul\":2936:2940   */\n  0x1f\n    /* \"#utility.yul\":2928:2934   */\n  dup4\n    /* \"#utility.yul\":2924:2941   */\n  add\n    /* \"#utility.yul\":2920:2947   */\n  slt\n    /* \"#utility.yul\":2910:3032   */\n  tag_92\n  jumpi\n    /* \"#utility.yul\":2951:3030   */\n  tag_93\n  tag_24\n  jump\t// in\ntag_93:\n    /* \"#utility.yul\":2910:3032   */\ntag_92:\n    /* \"#utility.yul\":3061:3067   */\n  dup2\n    /* \"#utility.yul\":3055:3068   */\n  mload\n    /* \"#utility.yul\":3086:3176   */\n  tag_94\n    /* \"#utility.yul\":3172:3175   */\n  dup5\n    /* \"#utility.yul\":3164:3170   */\n  dup3\n    /* \"#utility.yul\":3157:3161   */\n  0x20\n    /* \"#utility.yul\":3149:3155   */\n  dup7\n    /* \"#utility.yul\":3145:3162   */\n  add\n    /* \"#utility.yul\":3086:3176   */\n  tag_32\n  jump\t// in\ntag_94:\n    /* \"#utility.yul\":3077:3176   */\n  swap2\n  pop\n    /* \"#utility.yul\":2900:3182   */\n  pop\n    /* \"#utility.yul\":2827:3182   */\n  swap3\n  swap2\n  pop\n  pop\n  jump\t// out\n    /* \"#utility.yul\":3188:4181   */\ntag_3:\n    /* \"#utility.yul\":3295:3301   */\n  0x00\n    /* \"#utility.yul\":3303:3309   */\n  dup1\n    /* \"#utility.yul\":3311:3317   */\n  0x00\n    /* \"#utility.yul\":3319:3325   */\n  dup1\n    /* \"#utility.yul\":3368:3371   */\n  0x80\n    /* \"#utility.yul\":3356:3365   */\n  dup6\n    /* \"#utility.yul\":3347:3354   */\n  dup8\n    /* \"#utility.yul\":3343:3366   */\n  sub\n    /* \"#utility.yul\":3339:3372   */\n  slt\n    /* \"#utility.yul\":3336:3456   */\n  iszero\n  tag_96\n  jumpi\n    /* \"#utility.yul\":3375:3454   */\n  tag_97\n  tag_18\n  jump\t// in\ntag_97:\n    /* \"#utility.yul\":3336:3456   */\ntag_96:\n    /* \"#utility.yul\":3495:3496   */\n  0x00\n    /* \"#utility.yul\":3520:3584   */\n  tag_98\n    /* \"#utility.yul\":3576:3583   */\n  dup8\n    /* \"#utility.yul\":3567:3573   */\n  dup3\n    /* \"#utility.yul\":3556:3565   */\n  dup9\n    /* \"#utility.yul\":3552:3574   */\n  add\n    /* \"#utility.yul\":3520:3584   */\n  tag_23\n  jump\t// in\ntag_98:\n    /* \"#utility.yul\":3510:3584   */\n  swap5\n  pop\n    /* \"#utility.yul\":3466:3594   */\n  pop\n    /* \"#utility.yul\":3654:3656   */\n  0x20\n    /* \"#utility.yul\":3643:3652   */\n  dup6\n    /* \"#utility.yul\":3639:3657   */\n  add\n    /* \"#utility.yul\":3633:3658   */\n  mload\n    /* \"#utility.yul\":3685:3703   */\n  0xffffffffffffffff\n    /* \"#utility.yul\":3677:3683   */\n  dup2\n    /* \"#utility.yul\":3674:3704   */\n  gt\n    /* \"#utility.yul\":3671:3788   */\n  iszero\n  tag_99\n  jumpi\n    /* \"#utility.yul\":3707:3786   */\n  tag_100\n  tag_19\n  jump\t// in\ntag_100:\n    /* \"#utility.yul\":3671:3788   */\ntag_99:\n    /* \"#utility.yul\":3812:3886   */\n  tag_101\n    /* \"#utility.yul\":3878:3885   */\n  dup8\n    /* \"#utility.yul\":3869:3875   */\n  dup3\n    /* \"#utility.yul\":3858:3867   */\n  dup9\n    /* \"#utility.yul\":3854:3876   */\n  add\n    /* \"#utility.yul\":3812:3886   */\n  tag_33\n  jump\t// in\ntag_101:\n    /* \"#utility.yul\":3802:3886   */\n  swap4\n  pop\n    /* \"#utility.yul\":3604:3896   */\n  pop\n    /* \"#utility.yul\":3935:3937   */\n  0x40\n    /* \"#utility.yul\":3961:4025   */\n  tag_102\n    /* \"#utility.yul\":4017:4024   */\n  dup8\n    /* \"#utility.yul\":4008:4014   */\n  dup3\n    /* \"#utility.yul\":3997:4006   */\n  dup9\n    /* \"#utility.yul\":3993:4015   */\n  add\n    /* \"#utility.yul\":3961:4025   */\n  tag_23\n  jump\t// in\ntag_102:\n    /* \"#utility.yul\":3951:4025   */\n  swap3\n  pop\n    /* \"#utility.yul\":3906:4035   */\n  pop\n    /* \"#utility.yul\":4074:4076   */\n  0x60\n    /* \"#utility.yul\":4100:4164   */\n  tag_103\n    /* \"#utility.yul\":4156:4163   */\n  dup8\n    /* \"#utility.yul\":4147:4153   */\n  dup3\n    /* \"#utility.yul\":4136:4145   */\n  dup9\n    /* \"#utility.yul\":4132:4154   */\n  add\n    /* \"#utility.yul\":4100:4164   */\n  tag_23\n  jump\t// in\ntag_103:\n    /* \"#utility.yul\":4090:4164   */\n  swap2\n  pop\n    /* \"#utility.yul\":4045:4174   */\n  pop\n    /* \"#utility.yul\":3188:4181   */\n  swap3\n  swap6\n  swap2\n  swap5\n  pop\n  swap3\n  pop\n  jump\t// out\n    /* \"#utility.yul\":4187:4305   */\ntag_34:\n    /* \"#utility.yul\":4274:4298   */\n  tag_105\n    /* \"#utility.yul\":4292:4297   */\n  dup2\n    /* \"#utility.yul\":4274:4298   */\n  tag_21\n  jump\t// in\ntag_105:\n    /* \"#utility.yul\":4269:4272   */\n  dup3\n    /* \"#utility.yul\":4262:4299   */\n  mstore\n    /* \"#utility.yul\":4187:4305   */\n  pop\n  pop\n  jump\t// out\n    /* \"#utility.yul\":4311:4533   */\ntag_9:\n    /* \"#utility.yul\":4404:4408   */\n  0x00\n    /* \"#utility.yul\":4442:4444   */\n  0x20\n    /* \"#utility.yul\":4431:4440   */\n  dup3\n    /* \"#utility.yul\":4427:4445   */\n  add\n    /* \"#utility.yul\":4419:4445   */\n  swap1\n  pop\n    /* \"#utility.yul\":4455:4526   */\n  tag_107\n    /* \"#utility.yul\":4523:4524   */\n  0x00\n    /* \"#utility.yul\":4512:4521   */\n  dup4\n    /* \"#utility.yul\":4508:4525   */\n  add\n    /* \"#utility.yul\":4499:4505   */\n  dup5\n    /* \"#utility.yul\":4455:4526   */\n  tag_34\n  jump\t// in\ntag_107:\n    /* \"#utility.yul\":4311:4533   */\n  swap3\n  swap2\n  pop\n  pop\n  jump\t// out\n    /* \"#utility.yul\":4539:4638   */\ntag_35:\n    /* \"#utility.yul\":4591:4597   */\n  0x00\n    /* \"#utility.yul\":4625:4630   */\n  dup2\n    /* \"#utility.yul\":4619:4631   */\n  mload\n    /* \"#utility.yul\":4609:4631   */\n  swap1\n  pop\n    /* \"#utility.yul\":4539:4638   */\n  swap2\n  swap1\n  pop\n  jump\t// out\n    /* \"#utility.yul\":4644:4824   */\ntag_36:\n    /* \"#utility.yul\":4692:4769   */\n  0x4e487b7100000000000000000000000000000000000000000000000000000000\n    /* \"#utility.yul\":4689:4690   */\n  0x00\n    /* \"#utility.yul\":4682:4770   */\n  mstore\n    /* \"#utility.yul\":4789:4793   */\n  0x22\n    /* \"#utility.yul\":4786:4787   */\n  0x04\n    /* \"#utility.yul\":4779:4794   */\n  mstore\n    /* \"#utility.yul\":4813:4817   */\n  0x24\n    /* \"#utility.yul\":4810:4811   */\n  0x00\n    /* \"#utility.yul\":4803:4818   */\n  revert\n    /* \"#utility.yul\":4830:5150   */\ntag_37:\n    /* \"#utility.yul\":4874:4880   */\n  0x00\n    /* \"#utility.yul\":4911:4912   */\n  0x02\n    /* \"#utility.yul\":4905:4909   */\n  dup3\n    /* \"#utility.yul\":4901:4913   */\n  div\n    /* \"#utility.yul\":4891:4913   */\n  swap1\n  pop\n    /* \"#utility.yul\":4958:4959   */\n  0x01\n    /* \"#utility.yul\":4952:4956   */\n  dup3\n    /* \"#utility.yul\":4948:4960   */\n  and\n    /* \"#utility.yul\":4979:4997   */\n  dup1\n    /* \"#utility.yul\":4969:5050   */\n  tag_111\n  jumpi\n    /* \"#utility.yul\":5035:5039   */\n  0x7f\n    /* \"#utility.yul\":5027:5033   */\n  dup3\n    /* \"#utility.yul\":5023:5040   */\n  and\n    /* \"#utility.yul\":5013:5040   */\n  swap2\n  pop\n    /* \"#utility.yul\":4969:5050   */\ntag_111:\n    /* \"#utility.yul\":5097:5099   */\n  0x20\n    /* \"#utility.yul\":5089:5095   */\n  dup3\n    /* \"#utility.yul\":5086:5100   */\n  lt\n    /* \"#utility.yul\":5066:5084   */\n  dup2\n    /* \"#utility.yul\":5063:5101   */\n  sub\n    /* \"#utility.yul\":5060:5144   */\n  tag_112\n  jumpi\n    /* \"#utility.yul\":5116:5134   */\n  tag_113\n  tag_36\n  jump\t// in\ntag_113:\n    /* \"#utility.yul\":5060:5144   */\ntag_112:\n    /* \"#utility.yul\":4881:5150   */\n  pop\n    /* \"#utility.yul\":4830:5150   */\n  swap2\n  swap1\n  pop\n  jump\t// out\n    /* \"#utility.yul\":5156:5297   */\ntag_38:\n    /* \"#utility.yul\":5205:5209   */\n  0x00\n    /* \"#utility.yul\":5228:5231   */\n  dup2\n    /* \"#utility.yul\":5220:5231   */\n  swap1\n  pop\n    /* \"#utility.yul\":5251:5254   */\n  dup2\n    /* \"#utility.yul\":5248:5249   */\n  0x00\n    /* \"#utility.yul\":5241:5255   */\n  mstore\n    /* \"#utility.yul\":5285:5289   */\n  0x20\n    /* \"#utility.yul\":5282:5283   */\n  0x00\n    /* \"#utility.yul\":5272:5290   */\n  keccak256\n    /* \"#utility.yul\":5264:5290   */\n  swap1\n  pop\n    /* \"#utility.yul\":5156:5297   */\n  swap2\n  swap1\n  pop\n  jump\t// out\n    /* \"#utility.yul\":5303:5396   */\ntag_39:\n    /* \"#utility.yul\":5340:5346   */\n  0x00\n    /* \"#utility.yul\":5387:5389   */\n  0x20\n    /* \"#utility.yul\":5382:5384   */\n  0x1f\n    /* \"#utility.yul\":5375:5380   */\n  dup4\n    /* \"#utility.yul\":5371:5385   */\n  add\n    /* \"#utility.yul\":5367:5390   */\n  div\n    /* \"#utility.yul\":5357:5390   */\n  swap1\n  pop\n    /* \"#utility.yul\":5303:5396   */\n  swap2\n  swap1\n  pop\n  jump\t// out\n    /* \"#utility.yul\":5402:5509   */\ntag_40:\n    /* \"#utility.yul\":5446:5454   */\n  0x00\n    /* \"#utility.yul\":5496:5501   */\n  dup3\n    /* \"#utility.yul\":5490:5494   */\n  dup3\n    /* \"#utility.yul\":5486:5502   */\n  shl\n    /* \"#utility.yul\":5465:5502   */\n  swap1\n  pop\n    /* \"#utility.yul\":5402:5509   */\n  swap3\n  swap2\n  pop\n  pop\n  jump\t// out\n    /* \"#utility.yul\":5515:5908   */\ntag_41:\n    /* \"#utility.yul\":5584:5590   */\n  0x00\n    /* \"#utility.yul\":5634:5635   */\n  0x08\n    /* \"#utility.yul\":5622:5632   */\n  dup4\n    /* \"#utility.yul\":5618:5636   */\n  mul\n    /* \"#utility.yul\":5657:5754   */\n  tag_118\n    /* \"#utility.yul\":5687:5753   */\n  0xffffffffffffffffffffffffffffffffffffffffffffffffffffffffffffffff\n    /* \"#utility.yul\":5676:5685   */\n  dup3\n    /* \"#utility.yul\":5657:5754   */\n  tag_40\n  jump\t// in\ntag_118:\n    /* \"#utility.yul\":5775:5814   */\n  tag_119\n    /* \"#utility.yul\":5805:5813   */\n  dup7\n    /* \"#utility.yul\":5794:5803   */\n  dup4\n    /* \"#utility.yul\":5775:5814   */\n  tag_40\n  jump\t// in\ntag_119:\n    /* \"#utility.yul\":5763:5814   */\n  swap6\n  pop\n    /* \"#utility.yul\":5847:5851   */\n  dup1\n    /* \"#utility.yul\":5843:5852   */\n  not\n    /* \"#utility.yul\":5836:5841   */\n  dup5\n    /* \"#utility.yul\":5832:5853   */\n  and\n    /* \"#utility.yul\":5823:5853   */\n  swap4\n  pop\n    /* \"#utility.yul\":5896:5900   */\n  dup1\n    /* \"#utility.yul\":5886:5894   */\n  dup7\n    /* \"#utility.yul\":5882:5901   */\n  and\n    /* \"#utility.yul\":5875:5880   */\n  dup5\n    /* \"#utility.yul\":5872:5902   */\n  or\n    /* \"#utility.yul\":5862:5902   */\n  swap3\n  pop\n    /* \"#utility.yul\":5591:5908   */\n  pop\n  pop\n    /* \"#utility.yul\":5515:5908   */\n  swap4\n  swap3\n  pop\n  pop\n  pop\n  jump\t// out\n    /* \"#utility.yul\":5914:5991   */\ntag_42:\n    /* \"#utility.yul\":5951:5958   */\n  0x00\n    /* \"#utility.yul\":5980:5985   */\n  dup2\n    /* \"#utility.yul\":5969:5985   */\n  swap1\n  pop\n    /* \"#utility.yul\":5914:5991   */\n  swap2\n  swap1\n  pop\n  jump\t// out\n    /* \"#utility.yul\":5997:6057   */\ntag_43:\n    /* \"#utility.yul\":6025:6028   */\n  0x00\n    /* \"#utility.yul\":6046:6051   */\n  dup2\n    /* \"#utility.yul\":6039:6051   */\n  swap1\n  pop\n    /* \"#utility.yul\":5997:6057   */\n  swap2\n  swap1\n  pop\n  jump\t// out\n    /* \"#utility.yul\":6063:6205   */\ntag_44:\n    /* \"#utility.yul\":6113:6122   */\n  0x00\n    /* \"#utility.yul\":6146:6199   */\n  tag_123\n    /* \"#utility.yul\":6164:6198   */\n  tag_124\n    /* \"#utility.yul\":6173:6197   */\n  tag_125\n    /* \"#utility.yul\":6191:6196   */\n  dup5\n    /* \"#utility.yul\":6173:6197   */\n  tag_42\n  jump\t// in\ntag_125:\n    /* \"#utility.yul\":6164:6198   */\n  tag_43\n  jump\t// in\ntag_124:\n    /* \"#utility.yul\":6146:6199   */\n  tag_42\n  jump\t// in\ntag_123:\n    /* \"#utility.yul\":6133:6199   */\n  swap1\n  pop\n    /* \"#utility.yul\":6063:6205   */\n  swap2\n  swap1\n  pop\n  jump\t// out\n    /* \"#utility.yul\":6211:6286   */\ntag_45:\n    /* \"#utility.yul\":6254:6257   */\n  0x00\n    /* \"#utility.yul\":6275:6280   */\n  dup2\n    /* \"#utility.yul\":6268:6280   */\n  swap1\n  pop\n    /* \"#utility.yul\":6211:6286   */\n  swap2\n  swap1\n  pop\n  jump\t// out\n    /* \"#utility.yul\":6292:6561   */\ntag_46:\n    /* \"#utility.yul\":6402:6441   */\n  tag_128\n    /* \"#utility.yul\":6433:6440   */\n  dup4\n    /* \"#utility.yul\":6402:6441   */\n  tag_44\n  jump\t// in\ntag_128:\n    /* \"#utility.yul\":6463:6554   */\n  tag_129\n    /* \"#utility.yul\":6512:6553   */\n  tag_130\n    /* \"#utility.yul\":6536:6552   */\n  dup3\n    /* \"#utility.yul\":6512:6553   */\n  tag_45\n  jump\t// in\ntag_130:\n    /* \"#utility.yul\":6504:6510   */\n  dup5\n    /* \"#utility.yul\":6497:6501   */\n  dup5\n    /* \"#utility.yul\":6491:6502   */\n  sload\n    /* \"#utility.yul\":6463:6554   */\n  tag_41\n  jump\t// in\ntag_129:\n    /* \"#utility.yul\":6457:6461   */\n  dup3\n    /* \"#utility.yul\":6450:6555   */\n  sstore\n    /* \"#utility.yul\":6368:6561   */\n  pop\n    /* \"#utility.yul\":6292:6561   */\n  pop\n  pop\n  pop\n  jump\t// out\n    /* \"#utility.yul\":6567:6640   */\ntag_47:\n    /* \"#utility.yul\":6612:6615   */\n  0x00\n    /* \"#utility.yul\":6567:6640   */\n  swap1\n  jump\t// out\n    /* \"#utility.yul\":6646:6835   */\ntag_48:\n    /* \"#utility.yul\":6723:6755   */\n  tag_133\n  tag_47\n  jump\t// in\ntag_133:\n    /* \"#utility.yul\":6764:6829   */\n  tag_134\n    /* \"#utility.yul\":6822:6828   */\n  dup2\n    /* \"#utility.yul\":6814:6820   */\n  dup5\n    /* \"#utility.yul\":6808:6812   */\n  dup5\n    /* \"#utility.yul\":6764:6829   */\n  tag_46\n  jump\t// in\ntag_134:\n    /* \"#utility.yul\":6699:6835   */\n  pop\n    /* \"#utility.yul\":6646:6835   */\n  pop\n  pop\n  jump\t// out\n    /* \"#utility.yul\":6841:7027   */\ntag_49:\n    /* \"#utility.yul\":6901:7021   */\ntag_136:\n    /* \"#utility.yul\":6918:6921   */\n  dup2\n    /* \"#utility.yul\":6911:6916   */\n  dup2\n    /* \"#utility.yul\":6908:6922   */\n  lt\n    /* \"#utility.yul\":6901:7021   */\n  iszero\n  tag_138\n  jumpi\n    /* \"#utility.yul\":6972:7011   */\n  tag_139\n    /* \"#utility.yul\":7009:7010   */\n  0x00\n    /* \"#utility.yul\":7002:7007   */\n  dup3\n    /* \"#utility.yul\":6972:7011   */\n  tag_48\n  jump\t// in\ntag_139:\n    /* \"#utility.yul\":6945:6946   */\n  0x01\n    /* \"#utility.yul\":6938:6943   */\n  dup2\n    /* \"#utility.yul\":6934:6947   */\n  add\n    /* \"#utility.yul\":6925:6947   */\n  swap1\n  pop\n    /* \"#utility.yul\":6901:7021   */\n  jump(tag_136)\ntag_138:\n    /* \"#utility.yul\":6841:7027   */\n  pop\n  pop\n  jump\t// out\n    /* \"#utility.yul\":7033:7576   */\ntag_50:\n    /* \"#utility.yul\":7134:7136   */\n  0x1f\n    /* \"#utility.yul\":7129:7132   */\n  dup3\n    /* \"#utility.yul\":7126:7137   */\n  gt\n    /* \"#utility.yul\":7123:7569   */\n  iszero\n  tag_141\n  jumpi\n    /* \"#utility.yul\":7168:7206   */\n  tag_142\n    /* \"#utility.yul\":7200:7205   */\n  dup2\n    /* \"#utility.yul\":7168:7206   */\n  tag_38\n  jump\t// in\ntag_142:\n    /* \"#utility.yul\":7252:7281   */\n  tag_143\n    /* \"#utility.yul\":7270:7280   */\n  dup5\n    /* \"#utility.yul\":7252:7281   */\n  tag_39\n  jump\t// in\ntag_143:\n    /* \"#utility.yul\":7242:7250   */\n  dup2\n    /* \"#utility.yul\":7238:7282   */\n  add\n    /* \"#utility.yul\":7435:7437   */\n  0x20\n    /* \"#utility.yul\":7423:7433   */\n  dup6\n    /* \"#utility.yul\":7420:7438   */\n  lt\n    /* \"#utility.yul\":7417:7466   */\n  iszero\n  tag_144\n  jumpi\n    /* \"#utility.yul\":7456:7464   */\n  dup2\n    /* \"#utility.yul\":7441:7464   */\n  swap1\n  pop\n    /* \"#utility.yul\":7417:7466   */\ntag_144:\n    /* \"#utility.yul\":7479:7559   */\n  tag_145\n    /* \"#utility.yul\":7535:7557   */\n  tag_146\n    /* \"#utility.yul\":7553:7556   */\n  dup6\n    /* \"#utility.yul\":7535:7557   */\n  tag_39\n  jump\t// in\ntag_146:\n    /* \"#utility.yul\":7525:7533   */\n  dup4\n    /* \"#utility.yul\":7521:7558   */\n  add\n    /* \"#utility.yul\":7508:7519   */\n  dup3\n    /* \"#utility.yul\":7479:7559   */\n  tag_49\n  jump\t// in\ntag_145:\n    /* \"#utility.yul\":7138:7569   */\n  pop\n  pop\n    /* \"#utility.yul\":7123:7569   */\ntag_141:\n    /* \"#utility.yul\":7033:7576   */\n  pop\n  pop\n  pop\n  jump\t// out\n    /* \"#utility.yul\":7582:7699   */\ntag_51:\n    /* \"#utility.yul\":7636:7644   */\n  0x00\n    /* \"#utility.yul\":7686:7691   */\n  dup3\n    /* \"#utility.yul\":7680:7684   */\n  dup3\n    /* \"#utility.yul\":7676:7692   */\n  shr\n    /* \"#utility.yul\":7655:7692   */\n  swap1\n  pop\n    /* \"#utility.yul\":7582:7699   */\n  swap3\n  swap2\n  pop\n  pop\n  jump\t// out\n    /* \"#utility.yul\":7705:7874   */\ntag_52:\n    /* \"#utility.yul\":7749:7755   */\n  0x00\n    /* \"#utility.yul\":7782:7833   */\n  tag_149\n    /* \"#utility.yul\":7830:7831   */\n  0x00\n    /* \"#utility.yul\":7826:7832   */\n  not\n    /* \"#utility.yul\":7818:7823   */\n  dup5\n    /* \"#utility.yul\":7815:7816   */\n  0x08\n    /* \"#utility.yul\":7811:7824   */\n  mul\n    /* \"#utility.yul\":7782:7833   */\n  tag_51\n  jump\t// in\ntag_149:\n    /* \"#utility.yul\":7778:7834   */\n  not\n    /* \"#utility.yul\":7863:7867   */\n  dup1\n    /* \"#utility.yul\":7857:7861   */\n  dup4\n    /* \"#utility.yul\":7853:7868   */\n  and\n    /* \"#utility.yul\":7843:7868   */\n  swap2\n  pop\n    /* \"#utility.yul\":7756:7874   */\n  pop\n    /* \"#utility.yul\":7705:7874   */\n  swap3\n  swap2\n  pop\n  pop\n  jump\t// out\n    /* \"#utility.yul\":7879:8174   */\ntag_53:\n    /* \"#utility.yul\":7955:7959   */\n  0x00\n    /* \"#utility.yul\":8101:8130   */\n  tag_151\n    /* \"#utility.yul\":8126:8129   */\n  dup4\n    /* \"#utility.yul\":8120:8124   */\n  dup4\n    /* \"#utility.yul\":8101:8130   */\n  tag_52\n  jump\t// in\ntag_151:\n    /* \"#utility.yul\":8093:8130   */\n  swap2\n  pop\n    /* \"#utility.yul\":8163:8166   */\n  dup3\n    /* \"#utility.yul\":8160:8161   */\n  0x02\n    /* \"#utility.yul\":8156:8167   */\n  mul\n    /* \"#utility.yul\":8150:8154   */\n  dup3\n    /* \"#utility.yul\":8147:8168   */\n  or\n    /* \"#utility.yul\":8139:8168   */\n  swap1\n  pop\n    /* \"#utility.yul\":7879:8174   */\n  swap3\n  swap2\n  pop\n  pop\n  jump\t// out\n    /* \"#utility.yul\":8179:9574   */\ntag_14:\n    /* \"#utility.yul\":8296:8333   */\n  tag_153\n    /* \"#utility.yul\":8329:8332   */\n  dup3\n    /* \"#utility.yul\":8296:8333   */\n  tag_35\n  jump\t// in\ntag_153:\n    /* \"#utility.yul\":8398:8416   */\n  0xffffffffffffffff\n    /* \"#utility.yul\":8390:8396   */\n  dup2\n    /* \"#utility.yul\":8387:8417   */\n  gt\n    /* \"#utility.yul\":8384:8440   */\n  iszero\n  tag_154\n  jumpi\n    /* \"#utility.yul\":8420:8438   */\n  tag_155\n  tag_27\n  jump\t// in\ntag_155:\n    /* \"#utility.yul\":8384:8440   */\ntag_154:\n    /* \"#utility.yul\":8464:8502   */\n  tag_156\n    /* \"#utility.yul\":8496:8500   */\n  dup3\n    /* \"#utility.yul\":8490:8501   */\n  sload\n    /* \"#utility.yul\":8464:8502   */\n  tag_37\n  jump\t// in\ntag_156:\n    /* \"#utility.yul\":8549:8616   */\n  tag_157\n    /* \"#utility.yul\":8609:8615   */\n  dup3\n    /* \"#utility.yul\":8601:8607   */\n  dup3\n    /* \"#utility.yul\":8595:8599   */\n  dup6\n    /* \"#utility.yul\":8549:8616   */\n  tag_50\n  jump\t// in\ntag_157:\n    /* \"#utility.yul\":8643:8644   */\n  0x00\n    /* \"#utility.yul\":8667:8671   */\n  0x20\n    /* \"#utility.yul\":8654:8671   */\n  swap1\n  pop\n    /* \"#utility.yul\":8699:8701   */\n  0x1f\n    /* \"#utility.yul\":8691:8697   */\n  dup4\n    /* \"#utility.yul\":8688:8702   */\n  gt\n    /* \"#utility.yul\":8716:8717   */\n  0x01\n    /* \"#utility.yul\":8711:9329   */\n  dup2\n  eq\n  tag_159\n  jumpi\n    /* \"#utility.yul\":9373:9374   */\n  0x00\n    /* \"#utility.yul\":9390:9396   */\n  dup5\n    /* \"#utility.yul\":9387:9464   */\n  iszero\n  tag_160\n  jumpi\n    /* \"#utility.yul\":9439:9448   */\n  dup3\n    /* \"#utility.yul\":9434:9437   */\n  dup8\n    /* \"#utility.yul\":9430:9449   */\n  add\n    /* \"#utility.yul\":9424:9450   */\n  mload\n    /* \"#utility.yul\":9415:9450   */\n  swap1\n  pop\n    /* \"#utility.yul\":9387:9464   */\ntag_160:\n    /* \"#utility.yul\":9490:9557   */\n  tag_161\n    /* \"#utility.yul\":9550:9556   */\n  dup6\n    /* \"#utility.yul\":9543:9548   */\n  dup3\n    /* \"#utility.yul\":9490:9557   */\n  tag_53\n  jump\t// in\ntag_161:\n    /* \"#utility.yul\":9484:9488   */\n  dup7\n    /* \"#utility.yul\":9477:9558   */\n  sstore\n    /* \"#utility.yul\":9346:9568   */\n  pop\n    /* \"#utility.yul\":8681:9568   */\n  jump(tag_158)\n    /* \"#utility.yul\":8711:9329   */\ntag_159:\n    /* \"#utility.yul\":8763:8767   */\n  0x1f\n    /* \"#utility.yul\":8759:8768   */\n  not\n    /* \"#utility.yul\":8751:8757   */\n  dup5\n    /* \"#utility.yul\":8747:8769   */\n  and\n    /* \"#utility.yul\":8797:8834   */\n  tag_162\n    /* \"#utility.yul\":8829:8833   */\n  dup7\n    /* \"#utility.yul\":8797:8834   */\n  tag_38\n  jump\t// in\ntag_162:\n    /* \"#utility.yul\":8856:8857   */\n  0x00\n    /* \"#utility.yul\":8870:9078   */\ntag_163:\n    /* \"#utility.yul\":8884:8891   */\n  dup3\n    /* \"#utility.yul\":8881:8882   */\n  dup2\n    /* \"#utility.yul\":8878:8892   */\n  lt\n    /* \"#utility.yul\":8870:9078   */\n  iszero\n  tag_165\n  jumpi\n    /* \"#utility.yul\":8963:8972   */\n  dup5\n    /* \"#utility.yul\":8958:8961   */\n  dup10\n    /* \"#utility.yul\":8954:8973   */\n  add\n    /* \"#utility.yul\":8948:8974   */\n  mload\n    /* \"#utility.yul\":8940:8946   */\n  dup3\n    /* \"#utility.yul\":8933:8975   */\n  sstore\n    /* \"#utility.yul\":9014:9015   */\n  0x01\n    /* \"#utility.yul\":9006:9012   */\n  dup3\n    /* \"#utility.yul\":9002:9016   */\n  add\n    /* \"#utility.yul\":8992:9016   */\n  swap2\n  pop\n    /* \"#utility.yul\":9061:9063   */\n  0x20\n    /* \"#utility.yul\":9050:9059   */\n  dup6\n    /* \"#utility.yul\":9046:9064   */\n  add\n    /* \"#utility.yul\":9033:9064   */\n  swap5\n  pop\n    /* \"#utility.yul\":8907:8911   */\n  0x20\n    /* \"#utility.yul\":8904:8905   */\n  dup2\n    /* \"#utility.yul\":8900:8912   */\n  add\n    /* \"#utility.yul\":8895:8912   */\n  swap1\n  pop\n    /* \"#utility.yul\":8870:9078   */\n  jump(tag_163)\ntag_165:\n    /* \"#utility.yul\":9106:9112   */\n  dup7\n    /* \"#utility.yul\":9097:9104   */\n  dup4\n    /* \"#utility.yul\":9094:9113   */\n  lt\n    /* \"#utility.yul\":9091:9270   */\n  iszero\n  tag_166\n  jumpi\n    /* \"#utility.yul\":9164:9173   */\n  dup5\n    /* \"#utility.yul\":9159:9162   */\n  dup10\n    /* \"#utility.yul\":9155:9174   */\n  add\n    /* \"#utility.yul\":9149:9175   */\n  mload\n    /* \"#utility.yul\":9207:9255   */\n  tag_167\n    /* \"#utility.yul\":9249:9253   */\n  0x1f\n    /* \"#utility.yul\":9241:9247   */\n  dup10\n    /* \"#utility.yul\":9237:9254   */\n  and\n    /* \"#utility.yul\":9226:9235   */\n  dup3\n    /* \"#utility.yul\":9207:9255   */\n  tag_52\n  jump\t// in\ntag_167:\n    /* \"#utility.yul\":9199:9205   */\n  dup4\n    /* \"#utility.yul\":9192:9256   */\n  sstore\n    /* \"#utility.yul\":9114:9270   */\n  pop\n    /* \"#utility.yul\":9091:9270   */\ntag_166:\n    /* \"#utility.yul\":9316:9317   */\n  0x01\n    /* \"#utility.yul\":9312:9313   */\n  0x02\n    /* \"#utility.yul\":9304:9310   */\n  dup9\n    /* \"#utility.yul\":9300:9314   */\n  mul\n    /* \"#utility.yul\":9296:9318   */\n  add\n    /* \"#utility.yul\":9290:9294   */\n  dup9\n    /* \"#utility.yul\":9283:9319   */\n  sstore\n    /* \"#utility.yul\":8718:9329   */\n  pop\n  pop\n  pop\n    /* \"#utility.yul\":8681:9568   */\ntag_158:\n  pop\n    /* \"#utility.yul\":8271:9574   */\n  pop\n  pop\n  pop\n    /* \"#utility.yul\":8179:9574   */\n  pop\n  pop\n  jump\t// out\n    /* \"ribbonVaultOld.sol\":547:5606  contract vault is Ownable{... */\ntag_15:\n  dataSize(sub_0)\n  dup1\n  dataOffset(sub_0)\n  0x00\n  codecopy\n  0x00\n  return\nstop\n\nsub_0: assembly {\n        /* \"ribbonVaultOld.sol\":547:5606  contract vault is Ownable{... */\n      mstore(0x40, 0x80)\n      callvalue\n      dup1\n      iszero\n      tag_1\n      jumpi\n      0x00\n      dup1\n      revert\n    tag_1:\n      pop\n      jumpi(tag_2, lt(calldatasize, 0x04))\n      shr(0xe0, calldataload(0x00))\n      dup1\n      0x8bc7e8c4\n      gt\n      tag_27\n      jumpi\n      dup1\n      0xc4a9e858\n      gt\n      tag_28\n      jumpi\n      dup1\n      0xc4a9e858\n      eq\n      tag_21\n      jumpi\n      dup1\n      0xcd84980e\n      eq\n      tag_22\n      jumpi\n      dup1\n      0xe1fefd42\n      eq\n      tag_23\n      jumpi\n      dup1\n      0xe63ea408\n      eq\n      tag_24\n      jumpi\n      dup1\n      0xf2fde38b\n      eq\n      tag_25\n      jumpi\n      dup1\n      0xfd918716\n      eq\n      tag_26\n      jumpi\n      jump(tag_2)\n    tag_28:\n      dup1\n      0x8bc7e8c4\n      eq\n      tag_15\n      jumpi\n      dup1\n      0x8da5cb5b\n      eq\n      tag_16\n      jumpi\n      dup1\n      0x9683cdc4\n      eq\n      tag_17\n      jumpi\n      dup1\n      0xac1e5025\n      eq\n      tag_18\n      jumpi\n      dup1\n      0xbbe43843\n      eq\n      tag_19\n      jumpi\n      dup1\n      0xc08e7286\n      eq\n      tag_20\n      jumpi\n      jump(tag_2)\n    tag_27:\n      dup1\n      0x34fcf437\n      gt\n      tag_29\n      jumpi\n      dup1\n      0x34fcf437\n      eq\n      tag_9\n      jumpi\n      dup1\n      0x62a5af3b\n      eq\n      tag_10\n      jumpi\n      dup1\n      0x67a52793\n      eq\n      tag_11\n      jumpi\n      dup1\n      0x6b4c0789\n      eq\n      tag_12\n      jumpi\n      dup1\n      0x715018a6\n      eq\n      tag_13\n      jumpi\n      dup1\n      0x76ee947f\n      eq\n      tag_14\n      jumpi\n      jump(tag_2)\n    tag_29:\n      dup1\n      0x06e0e582\n      eq\n      tag_3\n      jumpi\n      dup1\n      0x072fdf87\n      eq\n      tag_4\n      jumpi\n      dup1\n      0x0ace9ca0\n      eq\n      tag_5\n      jumpi\n      dup1\n      0x0d461e61\n      eq\n      tag_6\n      jumpi\n      dup1\n      0x258ba1ee\n      eq\n      tag_7\n      jumpi\n      dup1\n      0x2c4e722e\n      eq\n      tag_8\n      jumpi\n    tag_2:\n      0x00\n      dup1\n      revert\n        /* \"ribbonVaultOld.sol\":760:802  uint public initContractBalancePaymentCoin */\n    tag_3:\n      tag_30\n      tag_31\n      jump\t// in\n    tag_30:\n      mload(0x40)\n      tag_32\n      swap2\n      swap1\n      tag_33\n      jump\t// in\n    tag_32:\n      mload(0x40)\n      dup1\n      swap2\n      sub\n      swap1\n      return\n        /* \"ribbonVaultOld.sol\":3360:3760  function claimPoints(bytes memory _signature,address user,uint amount,uint deadline)public  {... */\n    tag_4:\n      tag_34\n      0x04\n      dup1\n      calldatasize\n      sub\n      dup2\n      add\n      swap1\n      tag_35\n      swap2\n      swap1\n      tag_36\n      jump\t// in\n    tag_35:\n      tag_37\n      jump\t// in\n    tag_34:\n      stop\n        /* \"ribbonVaultOld.sol\":926:949  string public vaultName */\n    tag_5:\n      tag_38\n      tag_39\n      jump\t// in\n    tag_38:\n      mload(0x40)\n      tag_40\n      swap2\n      swap1\n      tag_41\n      jump\t// in\n    tag_40:\n      mload(0x40)\n      dup1\n      swap2\n      sub\n      swap1\n      return\n        /* \"ribbonVaultOld.sol\":3767:3955  function checkAmountToRecive(uint pointToSwap)public view returns(uint){... */\n    tag_6:\n      tag_42\n      0x04\n      dup1\n      calldatasize\n      sub\n      dup2\n      add\n      swap1\n      tag_43\n      swap2\n      swap1\n      tag_44\n      jump\t// in\n    tag_43:\n      tag_45\n      jump\t// in\n    tag_42:\n      mload(0x40)\n      tag_46\n      swap2\n      swap1\n      tag_33\n      jump\t// in\n    tag_46:\n      mload(0x40)\n      dup1\n      swap2\n      sub\n      swap1\n      return\n        /* \"ribbonVaultOld.sol\":1622:1819  function setpaymentTokenAndpoints(address paymentAddress,address pointsaddress)public onlyOwner{... */\n    tag_7:\n      tag_47\n      0x04\n      dup1\n      calldatasize\n      sub\n      dup2\n      add\n      swap1\n      tag_48\n      swap2\n      swap1\n      tag_49\n      jump\t// in\n    tag_48:\n      tag_50\n      jump\t// in\n    tag_47:\n      stop\n        /* \"ribbonVaultOld.sol\":683:699  uint public rate */\n    tag_8:\n      tag_51\n      tag_52\n      jump\t// in\n    tag_51:\n      mload(0x40)\n      tag_53\n      swap2\n      swap1\n      tag_33\n      jump\t// in\n    tag_53:\n      mload(0x40)\n      dup1\n      swap2\n      sub\n      swap1\n      return\n        /* \"ribbonVaultOld.sol\":2054:2128  function setRate(uint _rate)public onlyOwner{... */\n    tag_9:\n      tag_54\n      0x04\n      dup1\n      calldatasize\n      sub\n      dup2\n      add\n      swap1\n      tag_55\n      swap2\n      swap1\n      tag_44\n      jump\t// in\n    tag_55:\n      tag_56\n      jump\t// in\n    tag_54:\n      stop\n        /* \"ribbonVaultOld.sol\":954:972  bool public freeze */\n    tag_10:\n      tag_57\n      tag_58\n      jump\t// in\n    tag_57:\n      mload(0x40)\n      tag_59\n      swap2\n      swap1\n      tag_60\n      jump\t// in\n    tag_59:\n      mload(0x40)\n      dup1\n      swap2\n      sub\n      swap1\n      return\n        /* \"ribbonVaultOld.sol\":656:678  uint public depositFee */\n    tag_11:\n      tag_61\n      tag_62\n      jump\t// in\n    tag_61:\n      mload(0x40)\n      tag_63\n      swap2\n      swap1\n      tag_33\n      jump\t// in\n    tag_63:\n      mload(0x40)\n      dup1\n      swap2\n      sub\n      swap1\n      return\n        /* \"ribbonVaultOld.sol\":3001:3084  function freezeContract(bool _freeze)public onlyOwner{... */\n    tag_12:\n      tag_64\n      0x04\n      dup1\n      calldatasize\n      sub\n      dup2\n      add\n      swap1\n      tag_65\n      swap2\n      swap1\n      tag_66\n      jump\t// in\n    tag_65:\n      tag_67\n      jump\t// in\n    tag_64:\n      stop\n        /* \"@openzeppelin/contracts/access/Ownable.sol\":2293:2394  function renounceOwnership() public virtual onlyOwner {... */\n    tag_13:\n      tag_68\n      tag_69\n      jump\t// in\n    tag_68:\n      stop\n        /* \"ribbonVaultOld.sol\":1829:1919  function setPaymentDepositfees(uint _fee)public onlyOwner{... */\n    tag_14:\n      tag_70\n      0x04\n      dup1\n      calldatasize\n      sub\n      dup2\n      add\n      swap1\n      tag_71\n      swap2\n      swap1\n      tag_44\n      jump\t// in\n    tag_71:\n      tag_72\n      jump\t// in\n    tag_70:\n      stop\n        /* \"ribbonVaultOld.sol\":704:729  uint public withdrawalFee */\n    tag_15:\n      tag_73\n      tag_74\n      jump\t// in\n    tag_73:\n      mload(0x40)\n      tag_75\n      swap2\n      swap1\n      tag_33\n      jump\t// in\n    tag_75:\n      mload(0x40)\n      dup1\n      swap2\n      sub\n      swap1\n      return\n        /* \"@openzeppelin/contracts/access/Ownable.sol\":1638:1723  function owner() public view virtual returns (address) {... */\n    tag_16:\n      tag_76\n      tag_77\n      jump\t// in\n    tag_76:\n      mload(0x40)\n      tag_78\n      swap2\n      swap1\n      tag_79\n      jump\t// in\n    tag_78:\n      mload(0x40)\n      dup1\n      swap2\n      sub\n      swap1\n      return\n        /* \"ribbonVaultOld.sol\":2503:2995  function withdrawfees(address feeTakerAddress) public onlyOwner{... */\n    tag_17:\n      tag_80\n      0x04\n      dup1\n      calldatasize\n      sub\n      dup2\n      add\n      swap1\n      tag_81\n      swap2\n      swap1\n      tag_82\n      jump\t// in\n    tag_81:\n      tag_83\n      jump\t// in\n    tag_80:\n      stop\n        /* \"ribbonVaultOld.sol\":1923:2011  function setWithdrawalFee(uint _fee)public onlyOwner{... */\n    tag_18:\n      tag_84\n      0x04\n      dup1\n      calldatasize\n      sub\n      dup2\n      add\n      swap1\n      tag_85\n      swap2\n      swap1\n      tag_44\n      jump\t// in\n    tag_85:\n      tag_86\n      jump\t// in\n    tag_84:\n      stop\n        /* \"ribbonVaultOld.sol\":4005:4806  function swapToPaymentCoin(bytes memory _signature,address user,uint pointToSwap,uint deadline)public {... */\n    tag_19:\n      tag_87\n      0x04\n      dup1\n      calldatasize\n      sub\n      dup2\n      add\n      swap1\n      tag_88\n      swap2\n      swap1\n      tag_36\n      jump\t// in\n    tag_88:\n      tag_89\n      jump\t// in\n    tag_87:\n      stop\n        /* \"ribbonVaultOld.sol\":2172:2279  function setMinPointsToSWap(uint _pointsMin)public onlyOwner{... */\n    tag_20:\n      tag_90\n      0x04\n      dup1\n      calldatasize\n      sub\n      dup2\n      add\n      swap1\n      tag_91\n      swap2\n      swap1\n      tag_44\n      jump\t// in\n    tag_91:\n      tag_92\n      jump\t// in\n    tag_90:\n      stop\n        /* \"ribbonVaultOld.sol\":842:883  uint public TotalfeescollectedPaymentCoin */\n    tag_21:\n      tag_93\n      tag_94\n      jump\t// in\n    tag_93:\n      mload(0x40)\n      tag_95\n      swap2\n      swap1\n      tag_33\n      jump\t// in\n    tag_95:\n      mload(0x40)\n      dup1\n      swap2\n      sub\n      swap1\n      return\n        /* \"ribbonVaultOld.sol\":888:921  uint public chainid=block.chainid */\n    tag_22:\n      tag_96\n      tag_97\n      jump\t// in\n    tag_96:\n      mload(0x40)\n      tag_98\n      swap2\n      swap1\n      tag_33\n      jump\t// in\n    tag_98:\n      mload(0x40)\n      dup1\n      swap2\n      sub\n      swap1\n      return\n        /* \"ribbonVaultOld.sol\":734:755  uint public pointsMin */\n    tag_23:\n      tag_99\n      tag_100\n      jump\t// in\n    tag_99:\n      mload(0x40)\n      tag_101\n      swap2\n      swap1\n      tag_33\n      jump\t// in\n    tag_101:\n      mload(0x40)\n      dup1\n      swap2\n      sub\n      swap1\n      return\n        /* \"ribbonVaultOld.sol\":5446:5600  function emergencyWithdraw(address _tokenAddress,address _to,uint _amount )public onlyOwner{... */\n    tag_24:\n      tag_102\n      0x04\n      dup1\n      calldatasize\n      sub\n      dup2\n      add\n      swap1\n      tag_103\n      swap2\n      swap1\n      tag_104\n      jump\t// in\n    tag_103:\n      tag_105\n      jump\t// in\n    tag_102:\n      stop\n        /* \"@openzeppelin/contracts/access/Ownable.sol\":2543:2758  function transferOwnership(address newOwner) public virtual onlyOwner {... */\n    tag_25:\n      tag_106\n      0x04\n      dup1\n      calldatasize\n      sub\n      dup2\n      add\n      swap1\n      tag_107\n      swap2\n      swap1\n      tag_82\n      jump\t// in\n    tag_107:\n      tag_108\n      jump\t// in\n    tag_106:\n      stop\n        /* \"ribbonVaultOld.sol\":807:837  uint public claimedPaymentCoin */\n    tag_26:\n      tag_109\n      tag_110\n      jump\t// in\n    tag_109:\n      mload(0x40)\n      tag_111\n      swap2\n      swap1\n      tag_33\n      jump\t// in\n    tag_111:\n      mload(0x40)\n      dup1\n      swap2\n      sub\n      swap1\n      return\n        /* \"ribbonVaultOld.sol\":760:802  uint public initContractBalancePaymentCoin */\n    tag_31:\n      sload(0x07)\n      dup2\n      jump\t// out\n        /* \"ribbonVaultOld.sol\":3360:3760  function claimPoints(bytes memory _signature,address user,uint amount,uint deadline)public  {... */\n    tag_37:\n        /* \"ribbonVaultOld.sol\":3545:3585  _verify(_signature,user,amount,deadline) */\n      tag_113\n        /* \"ribbonVaultOld.sol\":3553:3563  _signature */\n      dup5\n        /* \"ribbonVaultOld.sol\":3564:3568  user */\n      dup5\n        /* \"ribbonVaultOld.sol\":3569:3575  amount */\n      dup5\n        /* \"ribbonVaultOld.sol\":3576:3584  deadline */\n      dup5\n        /* \"ribbonVaultOld.sol\":3545:3552  _verify */\n      tag_114\n        /* \"ribbonVaultOld.sol\":3545:3585  _verify(_signature,user,amount,deadline) */\n      jump\t// in\n    tag_113:\n        /* \"ribbonVaultOld.sol\":3617:3626  pointsMin */\n      sload(0x06)\n        /* \"ribbonVaultOld.sol\":3607:3613  amount */\n      dup3\n        /* \"ribbonVaultOld.sol\":3607:3626  amount >= pointsMin */\n      lt\n      iszero\n        /* \"ribbonVaultOld.sol\":3599:3664  require(amount >= pointsMin,\"points to swap less than minpoints\") */\n      tag_115\n      jumpi\n      mload(0x40)\n      0x08c379a000000000000000000000000000000000000000000000000000000000\n      dup2\n      mstore\n      0x04\n      add\n      tag_116\n      swap1\n      tag_117\n      jump\t// in\n    tag_116:\n      mload(0x40)\n      dup1\n      swap2\n      sub\n      swap1\n      revert\n    tag_115:\n        /* \"ribbonVaultOld.sol\":3677:3689  _Ipointscoin */\n      0x02\n      0x00\n      swap1\n      sload\n      swap1\n      0x0100\n      exp\n      swap1\n      div\n      0xffffffffffffffffffffffffffffffffffffffff\n      and\n        /* \"ribbonVaultOld.sol\":3677:3698  _Ipointscoin.transfer */\n      0xffffffffffffffffffffffffffffffffffffffff\n      and\n      0xa9059cbb\n        /* \"ribbonVaultOld.sol\":3699:3703  user */\n      dup5\n        /* \"ribbonVaultOld.sol\":3704:3710  amount */\n      dup5\n        /* \"ribbonVaultOld.sol\":3677:3711  _Ipointscoin.transfer(user,amount) */\n      mload(0x40)\n      dup4\n      0xffffffff\n      and\n      0xe0\n      shl\n      dup2\n      mstore\n      0x04\n      add\n      tag_118\n      swap3\n      swap2\n      swap1\n      tag_119\n      jump\t// in\n    tag_118:\n      0x20\n      mload(0x40)\n      dup1\n      dup4\n      sub\n      dup2\n      0x00\n      dup8\n      gas\n      call\n      iszero\n      dup1\n      iszero\n      tag_121\n      jumpi\n      returndatasize\n      0x00\n      dup1\n      returndatacopy\n      revert(0x00, returndatasize)\n    tag_121:\n      pop\n      pop\n      pop\n      pop\n      mload(0x40)\n      returndatasize\n      not(0x1f)\n      0x1f\n      dup3\n      add\n      and\n      dup3\n      add\n      dup1\n      0x40\n      mstore\n      pop\n      dup2\n      add\n      swap1\n      tag_122\n      swap2\n      swap1\n      tag_123\n      jump\t// in\n    tag_122:\n      pop\n        /* \"ribbonVaultOld.sol\":3728:3754  PointsClaimed(user,amount) */\n      0xba953728785de35be3827ee7a7a7867a8472947562602939440e6c0bdbf4725e\n        /* \"ribbonVaultOld.sol\":3742:3746  user */\n      dup4\n        /* \"ribbonVaultOld.sol\":3747:3753  amount */\n      dup4\n        /* \"ribbonVaultOld.sol\":3728:3754  PointsClaimed(user,amount) */\n      mload(0x40)\n      tag_124\n      swap3\n      swap2\n      swap1\n      tag_119\n      jump\t// in\n    tag_124:\n      mload(0x40)\n      dup1\n      swap2\n      sub\n      swap1\n      log1\n        /* \"ribbonVaultOld.sol\":3360:3760  function claimPoints(bytes memory _signature,address user,uint amount,uint deadline)public  {... */\n      pop\n      pop\n      pop\n      pop\n      jump\t// out\n        /* \"ribbonVaultOld.sol\":926:949  string public vaultName */\n    tag_39:\n      0x0b\n      dup1\n      sload\n      tag_125\n      swap1\n      tag_126\n      jump\t// in\n    tag_125:\n      dup1\n      0x1f\n      add\n      0x20\n      dup1\n      swap2\n      div\n      mul\n      0x20\n      add\n      mload(0x40)\n      swap1\n      dup2\n      add\n      0x40\n      mstore\n      dup1\n      swap3\n      swap2\n      swap1\n      dup2\n      dup2\n      mstore\n      0x20\n      add\n      dup3\n      dup1\n      sload\n      tag_127\n      swap1\n      tag_126\n      jump\t// in\n    tag_127:\n      dup1\n      iszero\n      tag_128\n      jumpi\n      dup1\n      0x1f\n      lt\n      tag_129\n      jumpi\n      0x0100\n      dup1\n      dup4\n      sload\n      div\n      mul\n      dup4\n      mstore\n      swap2\n      0x20\n      add\n      swap2\n      jump(tag_128)\n    tag_129:\n      dup3\n      add\n      swap2\n      swap1\n      0x00\n      mstore\n      keccak256(0x00, 0x20)\n      swap1\n    tag_130:\n      dup2\n      sload\n      dup2\n      mstore\n      swap1\n      0x01\n      add\n      swap1\n      0x20\n      add\n      dup1\n      dup4\n      gt\n      tag_130\n      jumpi\n      dup3\n      swap1\n      sub\n      0x1f\n      and\n      dup3\n      add\n      swap2\n    tag_128:\n      pop\n      pop\n      pop\n      pop\n      pop\n      dup2\n      jump\t// out\n        /* \"ribbonVaultOld.sol\":3767:3955  function checkAmountToRecive(uint pointToSwap)public view returns(uint){... */\n    tag_45:\n        /* \"ribbonVaultOld.sol\":3833:3837  uint */\n      0x00\n        /* \"ribbonVaultOld.sol\":3851:3861  uint _rate */\n      dup1\n        /* \"ribbonVaultOld.sol\":3917:3923  10**18 */\n      0x0de0b6b3a7640000\n        /* \"ribbonVaultOld.sol\":3912:3916  rate */\n      sload(0x04)\n        /* \"ribbonVaultOld.sol\":3912:3923  rate*10**18 */\n      tag_132\n      swap2\n      swap1\n      tag_133\n      jump\t// in\n    tag_132:\n        /* \"ribbonVaultOld.sol\":3885:3898  _Ipaymentcoin */\n      0x01\n      0x00\n      swap1\n      sload\n      swap1\n      0x0100\n      exp\n      swap1\n      div\n      0xffffffffffffffffffffffffffffffffffffffff\n      and\n        /* \"ribbonVaultOld.sol\":3885:3907  _Ipaymentcoin.decimals */\n      0xffffffffffffffffffffffffffffffffffffffff\n      and\n      0x313ce567\n        /* \"ribbonVaultOld.sol\":3885:3909  _Ipaymentcoin.decimals() */\n      mload(0x40)\n      dup2\n      0xffffffff\n      and\n      0xe0\n      shl\n      dup2\n      mstore\n      0x04\n      add\n      0x20\n      mload(0x40)\n      dup1\n      dup4\n      sub\n      dup2\n      dup7\n      gas\n      staticcall\n      iszero\n      dup1\n      iszero\n      tag_135\n      jumpi\n      returndatasize\n      0x00\n      dup1\n      returndatacopy\n      revert(0x00, returndatasize)\n    tag_135:\n      pop\n      pop\n      pop\n      pop\n      mload(0x40)\n      returndatasize\n      not(0x1f)\n      0x1f\n      dup3\n      add\n      and\n      dup3\n      add\n      dup1\n      0x40\n      mstore\n      pop\n      dup2\n      add\n      swap1\n      tag_136\n      swap2\n      swap1\n      tag_137\n      jump\t// in\n    tag_136:\n        /* \"ribbonVaultOld.sol\":3881:3883  10 */\n      0x0a\n        /* \"ribbonVaultOld.sol\":3881:3909  10**_Ipaymentcoin.decimals() */\n      tag_138\n      swap2\n      swap1\n      tag_139\n      jump\t// in\n    tag_138:\n        /* \"ribbonVaultOld.sol\":3879:3880  1 */\n      0x01\n        /* \"ribbonVaultOld.sol\":3865:3876  pointToSwap */\n      dup6\n        /* \"ribbonVaultOld.sol\":3865:3880  pointToSwap * 1 */\n      tag_140\n      swap2\n      swap1\n      tag_133\n      jump\t// in\n    tag_140:\n        /* \"ribbonVaultOld.sol\":3865:3909  pointToSwap * 1*10**_Ipaymentcoin.decimals() */\n      tag_141\n      swap2\n      swap1\n      tag_133\n      jump\t// in\n    tag_141:\n        /* \"ribbonVaultOld.sol\":3864:3924  (pointToSwap * 1*10**_Ipaymentcoin.decimals())/(rate*10**18) */\n      tag_142\n      swap2\n      swap1\n      tag_143\n      jump\t// in\n    tag_142:\n        /* \"ribbonVaultOld.sol\":3851:3924  uint _rate = (pointToSwap * 1*10**_Ipaymentcoin.decimals())/(rate*10**18) */\n      swap1\n      pop\n        /* \"ribbonVaultOld.sol\":3944:3949  _rate */\n      dup1\n        /* \"ribbonVaultOld.sol\":3937:3949  return _rate */\n      swap2\n      pop\n      pop\n        /* \"ribbonVaultOld.sol\":3767:3955  function checkAmountToRecive(uint pointToSwap)public view returns(uint){... */\n      swap2\n      swap1\n      pop\n      jump\t// out\n        /* \"ribbonVaultOld.sol\":1622:1819  function setpaymentTokenAndpoints(address paymentAddress,address pointsaddress)public onlyOwner{... */\n    tag_50:\n        /* \"@openzeppelin/contracts/access/Ownable.sol\":1531:1544  _checkOwner() */\n      tag_145\n        /* \"@openzeppelin/contracts/access/Ownable.sol\":1531:1542  _checkOwner */\n      tag_146\n        /* \"@openzeppelin/contracts/access/Ownable.sol\":1531:1544  _checkOwner() */\n      jump\t// in\n    tag_145:\n        /* \"ribbonVaultOld.sol\":1751:1765  paymentAddress */\n      dup2\n        /* \"ribbonVaultOld.sol\":1727:1740  _Ipaymentcoin */\n      0x01\n      0x00\n        /* \"ribbonVaultOld.sol\":1727:1766  _Ipaymentcoin = IERC20T(paymentAddress) */\n      0x0100\n      exp\n      dup2\n      sload\n      dup2\n      0xffffffffffffffffffffffffffffffffffffffff\n      mul\n      not\n      and\n      swap1\n      dup4\n      0xffffffffffffffffffffffffffffffffffffffff\n      and\n      mul\n      or\n      swap1\n      sstore\n      pop\n        /* \"ribbonVaultOld.sol\":1799:1812  pointsaddress */\n      dup1\n        /* \"ribbonVaultOld.sol\":1776:1788  _Ipointscoin */\n      0x02\n      0x00\n        /* \"ribbonVaultOld.sol\":1776:1813  _Ipointscoin = IERC20T(pointsaddress) */\n      0x0100\n      exp\n      dup2\n      sload\n      dup2\n      0xffffffffffffffffffffffffffffffffffffffff\n      mul\n      not\n      and\n      swap1\n      dup4\n      0xffffffffffffffffffffffffffffffffffffffff\n      and\n      mul\n      or\n      swap1\n      sstore\n      pop\n        /* \"ribbonVaultOld.sol\":1622:1819  function setpaymentTokenAndpoints(address paymentAddress,address pointsaddress)public onlyOwner{... */\n      pop\n      pop\n      jump\t// out\n        /* \"ribbonVaultOld.sol\":683:699  uint public rate */\n    tag_52:\n      sload(0x04)\n      dup2\n      jump\t// out\n        /* \"ribbonVaultOld.sol\":2054:2128  function setRate(uint _rate)public onlyOwner{... */\n    tag_56:\n        /* \"@openzeppelin/contracts/access/Ownable.sol\":1531:1544  _checkOwner() */\n      tag_149\n        /* \"@openzeppelin/contracts/access/Ownable.sol\":1531:1542  _checkOwner */\n      tag_146\n        /* \"@openzeppelin/contracts/access/Ownable.sol\":1531:1544  _checkOwner() */\n      jump\t// in\n    tag_149:\n        /* \"ribbonVaultOld.sol\":2117:2122  _rate */\n      dup1\n        /* \"ribbonVaultOld.sol\":2110:2114  rate */\n      0x04\n        /* \"ribbonVaultOld.sol\":2110:2122  rate = _rate */\n      dup2\n      swap1\n      sstore\n      pop\n        /* \"ribbonVaultOld.sol\":2054:2128  function setRate(uint _rate)public onlyOwner{... */\n      pop\n      jump\t// out\n        /* \"ribbonVaultOld.sol\":954:972  bool public freeze */\n    tag_58:\n      0x0c\n      0x00\n      swap1\n      sload\n      swap1\n      0x0100\n      exp\n      swap1\n      div\n      0xff\n      and\n      dup2\n      jump\t// out\n        /* \"ribbonVaultOld.sol\":656:678  uint public depositFee */\n    tag_62:\n      sload(0x03)\n      dup2\n      jump\t// out\n        /* \"ribbonVaultOld.sol\":3001:3084  function freezeContract(bool _freeze)public onlyOwner{... */\n    tag_67:\n        /* \"@openzeppelin/contracts/access/Ownable.sol\":1531:1544  _checkOwner() */\n      tag_152\n        /* \"@openzeppelin/contracts/access/Ownable.sol\":1531:1542  _checkOwner */\n      tag_146\n        /* \"@openzeppelin/contracts/access/Ownable.sol\":1531:1544  _checkOwner() */\n      jump\t// in\n    tag_152:\n        /* \"ribbonVaultOld.sol\":3071:3078  _freeze */\n      dup1\n        /* \"ribbonVaultOld.sol\":3062:3068  freeze */\n      0x0c\n      0x00\n        /* \"ribbonVaultOld.sol\":3062:3078  freeze = _freeze */\n      0x0100\n      exp\n      dup2\n      sload\n      dup2\n      0xff\n      mul\n      not\n      and\n      swap1\n      dup4\n      iszero\n      iszero\n      mul\n      or\n      swap1\n      sstore\n      pop\n        /* \"ribbonVaultOld.sol\":3001:3084  function freezeContract(bool _freeze)public onlyOwner{... */\n      pop\n      jump\t// out\n        /* \"@openzeppelin/contracts/access/Ownable.sol\":2293:2394  function renounceOwnership() public virtual onlyOwner {... */\n    tag_69:\n        /* \"@openzeppelin/contracts/access/Ownable.sol\":1531:1544  _checkOwner() */\n      tag_155\n        /* \"@openzeppelin/contracts/access/Ownable.sol\":1531:1542  _checkOwner */\n      tag_146\n        /* \"@openzeppelin/contracts/access/Ownable.sol\":1531:1544  _checkOwner() */\n      jump\t// in\n    tag_155:\n        /* \"@openzeppelin/contracts/access/Ownable.sol\":2357:2387  _transferOwnership(address(0)) */\n      tag_157\n        /* \"@openzeppelin/contracts/access/Ownable.sol\":2384:2385  0 */\n      0x00\n        /* \"@openzeppelin/contracts/access/Ownable.sol\":2357:2375  _transferOwnership */\n      tag_158\n        /* \"@openzeppelin/contracts/access/Ownable.sol\":2357:2387  _transferOwnership(address(0)) */\n      jump\t// in\n    tag_157:\n        /* \"@openzeppelin/contracts/access/Ownable.sol\":2293:2394  function renounceOwnership() public virtual onlyOwner {... */\n      jump\t// out\n        /* \"ribbonVaultOld.sol\":1829:1919  function setPaymentDepositfees(uint _fee)public onlyOwner{... */\n    tag_72:\n        /* \"@openzeppelin/contracts/access/Ownable.sol\":1531:1544  _checkOwner() */\n      tag_160\n        /* \"@openzeppelin/contracts/access/Ownable.sol\":1531:1542  _checkOwner */\n      tag_146\n        /* \"@openzeppelin/contracts/access/Ownable.sol\":1531:1544  _checkOwner() */\n      jump\t// in\n    tag_160:\n        /* \"ribbonVaultOld.sol\":1909:1913  _fee */\n      dup1\n        /* \"ribbonVaultOld.sol\":1896:1906  depositFee */\n      0x03\n        /* \"ribbonVaultOld.sol\":1896:1913  depositFee = _fee */\n      dup2\n      swap1\n      sstore\n      pop\n        /* \"ribbonVaultOld.sol\":1829:1919  function setPaymentDepositfees(uint _fee)public onlyOwner{... */\n      pop\n      jump\t// out\n        /* \"ribbonVaultOld.sol\":704:729  uint public withdrawalFee */\n    tag_74:\n      sload(0x05)\n      dup2\n      jump\t// out\n        /* \"@openzeppelin/contracts/access/Ownable.sol\":1638:1723  function owner() public view virtual returns (address) {... */\n    tag_77:\n        /* \"@openzeppelin/contracts/access/Ownable.sol\":1684:1691  address */\n      0x00\n        /* \"@openzeppelin/contracts/access/Ownable.sol\":1710:1716  _owner */\n      dup1\n      0x00\n      swap1\n      sload\n      swap1\n      0x0100\n      exp\n      swap1\n      div\n      0xffffffffffffffffffffffffffffffffffffffff\n      and\n        /* \"@openzeppelin/contracts/access/Ownable.sol\":1703:1716  return _owner */\n      swap1\n      pop\n        /* \"@openzeppelin/contracts/access/Ownable.sol\":1638:1723  function owner() public view virtual returns (address) {... */\n      swap1\n      jump\t// out\n        /* \"ribbonVaultOld.sol\":2503:2995  function withdrawfees(address feeTakerAddress) public onlyOwner{... */\n    tag_83:\n        /* \"@openzeppelin/contracts/access/Ownable.sol\":1531:1544  _checkOwner() */\n      tag_164\n        /* \"@openzeppelin/contracts/access/Ownable.sol\":1531:1542  _checkOwner */\n      tag_146\n        /* \"@openzeppelin/contracts/access/Ownable.sol\":1531:1544  _checkOwner() */\n      jump\t// in\n    tag_164:\n        /* \"ribbonVaultOld.sol\":2576:2596  uint contractBalance */\n      0x00\n        /* \"ribbonVaultOld.sol\":2598:2611  _Ipaymentcoin */\n      0x01\n      0x00\n      swap1\n      sload\n      swap1\n      0x0100\n      exp\n      swap1\n      div\n      0xffffffffffffffffffffffffffffffffffffffff\n      and\n        /* \"ribbonVaultOld.sol\":2598:2621  _Ipaymentcoin.balanceOf */\n      0xffffffffffffffffffffffffffffffffffffffff\n      and\n      0x70a08231\n        /* \"ribbonVaultOld.sol\":2630:2634  this */\n      address\n        /* \"ribbonVaultOld.sol\":2598:2636  _Ipaymentcoin.balanceOf(address(this)) */\n      mload(0x40)\n      dup3\n      0xffffffff\n      and\n      0xe0\n      shl\n      dup2\n      mstore\n      0x04\n      add\n      tag_166\n      swap2\n      swap1\n      tag_79\n      jump\t// in\n    tag_166:\n      0x20\n      mload(0x40)\n      dup1\n      dup4\n      sub\n      dup2\n      dup7\n      gas\n      staticcall\n      iszero\n      dup1\n      iszero\n      tag_168\n      jumpi\n      returndatasize\n      0x00\n      dup1\n      returndatacopy\n      revert(0x00, returndatasize)\n    tag_168:\n      pop\n      pop\n      pop\n      pop\n      mload(0x40)\n      returndatasize\n      not(0x1f)\n      0x1f\n      dup3\n      add\n      and\n      dup3\n      add\n      dup1\n      0x40\n      mstore\n      pop\n      dup2\n      add\n      swap1\n      tag_169\n      swap2\n      swap1\n      tag_170\n      jump\t// in\n    tag_169:\n        /* \"ribbonVaultOld.sol\":2576:2636  uint contractBalance =_Ipaymentcoin.balanceOf(address(this)) */\n      swap1\n      pop\n        /* \"ribbonVaultOld.sol\":2646:2667  uint balanceDeposited */\n      0x00\n        /* \"ribbonVaultOld.sol\":2743:2773  initContractBalancePaymentCoin */\n      sload(0x07)\n        /* \"ribbonVaultOld.sol\":2710:2739  TotalfeescollectedPaymentCoin */\n      sload(0x09)\n        /* \"ribbonVaultOld.sol\":2689:2707  claimedPaymentCoin */\n      sload(0x08)\n        /* \"ribbonVaultOld.sol\":2671:2686  contractBalance */\n      dup5\n        /* \"ribbonVaultOld.sol\":2671:2707  contractBalance + claimedPaymentCoin */\n      tag_171\n      swap2\n      swap1\n      tag_172\n      jump\t// in\n    tag_171:\n        /* \"ribbonVaultOld.sol\":2671:2739  contractBalance + claimedPaymentCoin + TotalfeescollectedPaymentCoin */\n      tag_173\n      swap2\n      swap1\n      tag_172\n      jump\t// in\n    tag_173:\n        /* \"ribbonVaultOld.sol\":2670:2773  (contractBalance + claimedPaymentCoin + TotalfeescollectedPaymentCoin) - initContractBalancePaymentCoin */\n      tag_174\n      swap2\n      swap1\n      tag_175\n      jump\t// in\n    tag_174:\n        /* \"ribbonVaultOld.sol\":2646:2773  uint balanceDeposited = (contractBalance + claimedPaymentCoin + TotalfeescollectedPaymentCoin) - initContractBalancePaymentCoin */\n      swap1\n      pop\n        /* \"ribbonVaultOld.sol\":2817:2833  balanceDeposited */\n      dup1\n        /* \"ribbonVaultOld.sol\":2783:2813  initContractBalancePaymentCoin */\n      0x07\n      0x00\n        /* \"ribbonVaultOld.sol\":2783:2833  initContractBalancePaymentCoin += balanceDeposited */\n      dup3\n      dup3\n      sload\n      tag_176\n      swap2\n      swap1\n      tag_172\n      jump\t// in\n    tag_176:\n      swap3\n      pop\n      pop\n      dup2\n      swap1\n      sstore\n      pop\n        /* \"ribbonVaultOld.sol\":2843:2852  uint _fee */\n      0x00\n        /* \"ribbonVaultOld.sol\":2885:2888  100 */\n      0x64\n        /* \"ribbonVaultOld.sol\":2873:2883  depositFee */\n      sload(0x03)\n        /* \"ribbonVaultOld.sol\":2856:2872  balanceDeposited */\n      dup4\n        /* \"ribbonVaultOld.sol\":2856:2883  balanceDeposited*depositFee */\n      tag_177\n      swap2\n      swap1\n      tag_133\n      jump\t// in\n    tag_177:\n        /* \"ribbonVaultOld.sol\":2855:2888  (balanceDeposited*depositFee)/100 */\n      tag_178\n      swap2\n      swap1\n      tag_143\n      jump\t// in\n    tag_178:\n        /* \"ribbonVaultOld.sol\":2843:2888  uint _fee = (balanceDeposited*depositFee)/100 */\n      swap1\n      pop\n        /* \"ribbonVaultOld.sol\":2931:2935  _fee */\n      dup1\n        /* \"ribbonVaultOld.sol\":2898:2927  TotalfeescollectedPaymentCoin */\n      0x09\n      0x00\n        /* \"ribbonVaultOld.sol\":2898:2935  TotalfeescollectedPaymentCoin += _fee */\n      dup3\n      dup3\n      sload\n      tag_179\n      swap2\n      swap1\n      tag_172\n      jump\t// in\n    tag_179:\n      swap3\n      pop\n      pop\n      dup2\n      swap1\n      sstore\n      pop\n        /* \"ribbonVaultOld.sol\":2945:2958  _Ipaymentcoin */\n      0x01\n      0x00\n      swap1\n      sload\n      swap1\n      0x0100\n      exp\n      swap1\n      div\n      0xffffffffffffffffffffffffffffffffffffffff\n      and\n        /* \"ribbonVaultOld.sol\":2945:2967  _Ipaymentcoin.transfer */\n      0xffffffffffffffffffffffffffffffffffffffff\n      and\n      0xa9059cbb\n        /* \"ribbonVaultOld.sol\":2968:2983  feeTakerAddress */\n      dup6\n        /* \"ribbonVaultOld.sol\":2984:2988  _fee */\n      dup4\n        /* \"ribbonVaultOld.sol\":2945:2989  _Ipaymentcoin.transfer(feeTakerAddress,_fee) */\n      mload(0x40)\n      dup4\n      0xffffffff\n      and\n      0xe0\n      shl\n      dup2\n      mstore\n      0x04\n      add\n      tag_180\n      swap3\n      swap2\n      swap1\n      tag_119\n      jump\t// in\n    tag_180:\n      0x20\n      mload(0x40)\n      dup1\n      dup4\n      sub\n      dup2\n      0x00\n      dup8\n      gas\n      call\n      iszero\n      dup1\n      iszero\n      tag_182\n      jumpi\n      returndatasize\n      0x00\n      dup1\n      returndatacopy\n      revert(0x00, returndatasize)\n    tag_182:\n      pop\n      pop\n      pop\n      pop\n      mload(0x40)\n      returndatasize\n      not(0x1f)\n      0x1f\n      dup3\n      add\n      and\n      dup3\n      add\n      dup1\n      0x40\n      mstore\n      pop\n      dup2\n      add\n      swap1\n      tag_183\n      swap2\n      swap1\n      tag_123\n      jump\t// in\n    tag_183:\n      pop\n        /* \"ribbonVaultOld.sol\":2566:2995  {... */\n      pop\n      pop\n      pop\n        /* \"ribbonVaultOld.sol\":2503:2995  function withdrawfees(address feeTakerAddress) public onlyOwner{... */\n      pop\n      jump\t// out\n        /* \"ribbonVaultOld.sol\":1923:2011  function setWithdrawalFee(uint _fee)public onlyOwner{... */\n    tag_86:\n        /* \"@openzeppelin/contracts/access/Ownable.sol\":1531:1544  _checkOwner() */\n      tag_185\n        /* \"@openzeppelin/contracts/access/Ownable.sol\":1531:1542  _checkOwner */\n      tag_146\n        /* \"@openzeppelin/contracts/access/Ownable.sol\":1531:1544  _checkOwner() */\n      jump\t// in\n    tag_185:\n        /* \"ribbonVaultOld.sol\":2001:2005  _fee */\n      dup1\n        /* \"ribbonVaultOld.sol\":1985:1998  withdrawalFee */\n      0x05\n        /* \"ribbonVaultOld.sol\":1985:2005  withdrawalFee = _fee */\n      dup2\n      swap1\n      sstore\n      pop\n        /* \"ribbonVaultOld.sol\":1923:2011  function setWithdrawalFee(uint _fee)public onlyOwner{... */\n      pop\n      jump\t// out\n        /* \"ribbonVaultOld.sol\":4005:4806  function swapToPaymentCoin(bytes memory _signature,address user,uint pointToSwap,uint deadline)public {... */\n    tag_89:\n        /* \"ribbonVaultOld.sol\":4197:4242  _verify(_signature,user,pointToSwap,deadline) */\n      tag_188\n        /* \"ribbonVaultOld.sol\":4205:4215  _signature */\n      dup5\n        /* \"ribbonVaultOld.sol\":4216:4220  user */\n      dup5\n        /* \"ribbonVaultOld.sol\":4221:4232  pointToSwap */\n      dup5\n        /* \"ribbonVaultOld.sol\":4233:4241  deadline */\n      dup5\n        /* \"ribbonVaultOld.sol\":4197:4204  _verify */\n      tag_114\n        /* \"ribbonVaultOld.sol\":4197:4242  _verify(_signature,user,pointToSwap,deadline) */\n      jump\t// in\n    tag_188:\n        /* \"ribbonVaultOld.sol\":4292:4303  pointToSwap */\n      dup2\n        /* \"ribbonVaultOld.sol\":4261:4273  _Ipointscoin */\n      0x02\n      0x00\n      swap1\n      sload\n      swap1\n      0x0100\n      exp\n      swap1\n      div\n      0xffffffffffffffffffffffffffffffffffffffff\n      and\n        /* \"ribbonVaultOld.sol\":4261:4283  _Ipointscoin.balanceOf */\n      0xffffffffffffffffffffffffffffffffffffffff\n      and\n      0x70a08231\n        /* \"ribbonVaultOld.sol\":4284:4288  user */\n      dup6\n        /* \"ribbonVaultOld.sol\":4261:4289  _Ipointscoin.balanceOf(user) */\n      mload(0x40)\n      dup3\n      0xffffffff\n      and\n      0xe0\n      shl\n      dup2\n      mstore\n      0x04\n      add\n      tag_189\n      swap2\n      swap1\n      tag_79\n      jump\t// in\n    tag_189:\n      0x20\n      mload(0x40)\n      dup1\n      dup4\n      sub\n      dup2\n      dup7\n      gas\n      staticcall\n      iszero\n      dup1\n      iszero\n      tag_191\n      jumpi\n      returndatasize\n      0x00\n      dup1\n      returndatacopy\n      revert(0x00, returndatasize)\n    tag_191:\n      pop\n      pop\n      pop\n      pop\n      mload(0x40)\n      returndatasize\n      not(0x1f)\n      0x1f\n      dup3\n      add\n      and\n      dup3\n      add\n      dup1\n      0x40\n      mstore\n      pop\n      dup2\n      add\n      swap1\n      tag_192\n      swap2\n      swap1\n      tag_170\n      jump\t// in\n    tag_192:\n        /* \"ribbonVaultOld.sol\":4261:4303  _Ipointscoin.balanceOf(user)>= pointToSwap */\n      lt\n      iszero\n        /* \"ribbonVaultOld.sol\":4253:4324  require(_Ipointscoin.balanceOf(user)>= pointToSwap,\"not enough points\") */\n      tag_193\n      jumpi\n      mload(0x40)\n      0x08c379a000000000000000000000000000000000000000000000000000000000\n      dup2\n      mstore\n      0x04\n      add\n      tag_194\n      swap1\n      tag_195\n      jump\t// in\n    tag_194:\n      mload(0x40)\n      dup1\n      swap2\n      sub\n      swap1\n      revert\n    tag_193:\n        /* \"ribbonVaultOld.sol\":4358:4367  pointsMin */\n      sload(0x06)\n        /* \"ribbonVaultOld.sol\":4343:4354  pointToSwap */\n      dup3\n        /* \"ribbonVaultOld.sol\":4343:4367  pointToSwap >= pointsMin */\n      lt\n      iszero\n        /* \"ribbonVaultOld.sol\":4335:4405  require(pointToSwap >= pointsMin,\"points to swap less than minpoints\") */\n      tag_196\n      jumpi\n      mload(0x40)\n      0x08c379a000000000000000000000000000000000000000000000000000000000\n      dup2\n      mstore\n      0x04\n      add\n      tag_197\n      swap1\n      tag_117\n      jump\t// in\n    tag_197:\n      mload(0x40)\n      dup1\n      swap2\n      sub\n      swap1\n      revert\n    tag_196:\n        /* \"ribbonVaultOld.sol\":4416:4427  uint amount */\n      0x00\n        /* \"ribbonVaultOld.sol\":4430:4462  checkAmountToRecive(pointToSwap) */\n      tag_198\n        /* \"ribbonVaultOld.sol\":4450:4461  pointToSwap */\n      dup4\n        /* \"ribbonVaultOld.sol\":4430:4449  checkAmountToRecive */\n      tag_45\n        /* \"ribbonVaultOld.sol\":4430:4462  checkAmountToRecive(pointToSwap) */\n      jump\t// in\n    tag_198:\n        /* \"ribbonVaultOld.sol\":4416:4462  uint amount = checkAmountToRecive(pointToSwap) */\n      swap1\n      pop\n        /* \"ribbonVaultOld.sol\":4495:4501  amount */\n      dup1\n        /* \"ribbonVaultOld.sol\":4473:4491  claimedPaymentCoin */\n      0x08\n      0x00\n        /* \"ribbonVaultOld.sol\":4473:4501  claimedPaymentCoin += amount */\n      dup3\n      dup3\n      sload\n      tag_199\n      swap2\n      swap1\n      tag_172\n      jump\t// in\n    tag_199:\n      swap3\n      pop\n      pop\n      dup2\n      swap1\n      sstore\n      pop\n        /* \"ribbonVaultOld.sol\":4512:4521  uint _fee */\n      0x00\n        /* \"ribbonVaultOld.sol\":4547:4550  100 */\n      0x64\n        /* \"ribbonVaultOld.sol\":4532:4545  withdrawalFee */\n      sload(0x05)\n        /* \"ribbonVaultOld.sol\":4525:4531  amount */\n      dup4\n        /* \"ribbonVaultOld.sol\":4525:4545  amount*withdrawalFee */\n      tag_200\n      swap2\n      swap1\n      tag_133\n      jump\t// in\n    tag_200:\n        /* \"ribbonVaultOld.sol\":4524:4550  (amount*withdrawalFee)/100 */\n      tag_201\n      swap2\n      swap1\n      tag_143\n      jump\t// in\n    tag_201:\n        /* \"ribbonVaultOld.sol\":4512:4550  uint _fee = (amount*withdrawalFee)/100 */\n      swap1\n      pop\n        /* \"ribbonVaultOld.sol\":4561:4579  uint amoutAfterFee */\n      0x00\n        /* \"ribbonVaultOld.sol\":4590:4594  _fee */\n      dup2\n        /* \"ribbonVaultOld.sol\":4582:4588  amount */\n      dup4\n        /* \"ribbonVaultOld.sol\":4582:4594  amount -_fee */\n      tag_202\n      swap2\n      swap1\n      tag_175\n      jump\t// in\n    tag_202:\n        /* \"ribbonVaultOld.sol\":4561:4594  uint amoutAfterFee = amount -_fee */\n      swap1\n      pop\n        /* \"ribbonVaultOld.sol\":4605:4617  _Ipointscoin */\n      0x02\n      0x00\n      swap1\n      sload\n      swap1\n      0x0100\n      exp\n      swap1\n      div\n      0xffffffffffffffffffffffffffffffffffffffff\n      and\n        /* \"ribbonVaultOld.sol\":4605:4622  _Ipointscoin.burn */\n      0xffffffffffffffffffffffffffffffffffffffff\n      and\n      0x9dc29fac\n        /* \"ribbonVaultOld.sol\":4623:4627  user */\n      dup8\n        /* \"ribbonVaultOld.sol\":4628:4639  pointToSwap */\n      dup8\n        /* \"ribbonVaultOld.sol\":4605:4640  _Ipointscoin.burn(user,pointToSwap) */\n      mload(0x40)\n      dup4\n      0xffffffff\n      and\n      0xe0\n      shl\n      dup2\n      mstore\n      0x04\n      add\n      tag_203\n      swap3\n      swap2\n      swap1\n      tag_119\n      jump\t// in\n    tag_203:\n      0x00\n      mload(0x40)\n      dup1\n      dup4\n      sub\n      dup2\n      0x00\n      dup8\n      dup1\n      extcodesize\n      iszero\n      dup1\n      iszero\n      tag_204\n      jumpi\n      0x00\n      dup1\n      revert\n    tag_204:\n      pop\n      gas\n      call\n      iszero\n      dup1\n      iszero\n      tag_206\n      jumpi\n      returndatasize\n      0x00\n      dup1\n      returndatacopy\n      revert(0x00, returndatasize)\n    tag_206:\n      pop\n      pop\n      pop\n      pop\n        /* \"ribbonVaultOld.sol\":4651:4664  _Ipaymentcoin */\n      0x01\n      0x00\n      swap1\n      sload\n      swap1\n      0x0100\n      exp\n      swap1\n      div\n      0xffffffffffffffffffffffffffffffffffffffff\n      and\n        /* \"ribbonVaultOld.sol\":4651:4673  _Ipaymentcoin.transfer */\n      0xffffffffffffffffffffffffffffffffffffffff\n      and\n      0xa9059cbb\n        /* \"ribbonVaultOld.sol\":4674:4678  user */\n      dup8\n        /* \"ribbonVaultOld.sol\":4679:4692  amoutAfterFee */\n      dup4\n        /* \"ribbonVaultOld.sol\":4651:4693  _Ipaymentcoin.transfer(user,amoutAfterFee) */\n      mload(0x40)\n      dup4\n      0xffffffff\n      and\n      0xe0\n      shl\n      dup2\n      mstore\n      0x04\n      add\n      tag_207\n      swap3\n      swap2\n      swap1\n      tag_119\n      jump\t// in\n    tag_207:\n      0x20\n      mload(0x40)\n      dup1\n      dup4\n      sub\n      dup2\n      0x00\n      dup8\n      gas\n      call\n      iszero\n      dup1\n      iszero\n      tag_209\n      jumpi\n      returndatasize\n      0x00\n      dup1\n      returndatacopy\n      revert(0x00, returndatasize)\n    tag_209:\n      pop\n      pop\n      pop\n      pop\n      mload(0x40)\n      returndatasize\n      not(0x1f)\n      0x1f\n      dup3\n      add\n      and\n      dup3\n      add\n      dup1\n      0x40\n      mstore\n      pop\n      dup2\n      add\n      swap1\n      tag_210\n      swap2\n      swap1\n      tag_123\n      jump\t// in\n    tag_210:\n      pop\n        /* \"ribbonVaultOld.sol\":4704:4717  _Ipaymentcoin */\n      0x01\n      0x00\n      swap1\n      sload\n      swap1\n      0x0100\n      exp\n      swap1\n      div\n      0xffffffffffffffffffffffffffffffffffffffff\n      and\n        /* \"ribbonVaultOld.sol\":4704:4726  _Ipaymentcoin.transfer */\n      0xffffffffffffffffffffffffffffffffffffffff\n      and\n      0xa9059cbb\n        /* \"ribbonVaultOld.sol\":4727:4737  msg.sender */\n      caller\n        /* \"ribbonVaultOld.sol\":4738:4742  _fee */\n      dup5\n        /* \"ribbonVaultOld.sol\":4704:4743  _Ipaymentcoin.transfer(msg.sender,_fee) */\n      mload(0x40)\n      dup4\n      0xffffffff\n      and\n      0xe0\n      shl\n      dup2\n      mstore\n      0x04\n      add\n      tag_211\n      swap3\n      swap2\n      swap1\n      tag_119\n      jump\t// in\n    tag_211:\n      0x20\n      mload(0x40)\n      dup1\n      dup4\n      sub\n      dup2\n      0x00\n      dup8\n      gas\n      call\n      iszero\n      dup1\n      iszero\n      tag_213\n      jumpi\n      returndatasize\n      0x00\n      dup1\n      returndatacopy\n      revert(0x00, returndatasize)\n    tag_213:\n      pop\n      pop\n      pop\n      pop\n      mload(0x40)\n      returndatasize\n      not(0x1f)\n      0x1f\n      dup3\n      add\n      and\n      dup3\n      add\n      dup1\n      0x40\n      mstore\n      pop\n      dup2\n      add\n      swap1\n      tag_214\n      swap2\n      swap1\n      tag_123\n      jump\t// in\n    tag_214:\n      pop\n        /* \"ribbonVaultOld.sol\":4759:4800  swap(user,pointToSwap,amoutAfterFee,_fee) */\n      0xc9ec92487a51a4894b66e92fa35d58109271421843b717e764249309f96ab9b5\n        /* \"ribbonVaultOld.sol\":4764:4768  user */\n      dup7\n        /* \"ribbonVaultOld.sol\":4769:4780  pointToSwap */\n      dup7\n        /* \"ribbonVaultOld.sol\":4781:4794  amoutAfterFee */\n      dup4\n        /* \"ribbonVaultOld.sol\":4795:4799  _fee */\n      dup6\n        /* \"ribbonVaultOld.sol\":4759:4800  swap(user,pointToSwap,amoutAfterFee,_fee) */\n      mload(0x40)\n      tag_215\n      swap5\n      swap4\n      swap3\n      swap2\n      swap1\n      tag_216\n      jump\t// in\n    tag_215:\n      mload(0x40)\n      dup1\n      swap2\n      sub\n      swap1\n      log1\n        /* \"ribbonVaultOld.sol\":4107:4806  {... */\n      pop\n      pop\n      pop\n        /* \"ribbonVaultOld.sol\":4005:4806  function swapToPaymentCoin(bytes memory _signature,address user,uint pointToSwap,uint deadline)public {... */\n      pop\n      pop\n      pop\n      pop\n      jump\t// out\n        /* \"ribbonVaultOld.sol\":2172:2279  function setMinPointsToSWap(uint _pointsMin)public onlyOwner{... */\n    tag_92:\n        /* \"@openzeppelin/contracts/access/Ownable.sol\":1531:1544  _checkOwner() */\n      tag_218\n        /* \"@openzeppelin/contracts/access/Ownable.sol\":1531:1542  _checkOwner */\n      tag_146\n        /* \"@openzeppelin/contracts/access/Ownable.sol\":1531:1544  _checkOwner() */\n      jump\t// in\n    tag_218:\n        /* \"ribbonVaultOld.sol\":2267:2273  10**18 */\n      0x0de0b6b3a7640000\n        /* \"ribbonVaultOld.sol\":2256:2266  _pointsMin */\n      dup2\n        /* \"ribbonVaultOld.sol\":2256:2273  _pointsMin*10**18 */\n      tag_220\n      swap2\n      swap1\n      tag_133\n      jump\t// in\n    tag_220:\n        /* \"ribbonVaultOld.sol\":2244:2253  pointsMin */\n      0x06\n        /* \"ribbonVaultOld.sol\":2244:2273  pointsMin = _pointsMin*10**18 */\n      dup2\n      swap1\n      sstore\n      pop\n        /* \"ribbonVaultOld.sol\":2172:2279  function setMinPointsToSWap(uint _pointsMin)public onlyOwner{... */\n      pop\n      jump\t// out\n        /* \"ribbonVaultOld.sol\":842:883  uint public TotalfeescollectedPaymentCoin */\n    tag_94:\n      sload(0x09)\n      dup2\n      jump\t// out\n        /* \"ribbonVaultOld.sol\":888:921  uint public chainid=block.chainid */\n    tag_97:\n      sload(0x0a)\n      dup2\n      jump\t// out\n        /* \"ribbonVaultOld.sol\":734:755  uint public pointsMin */\n    tag_100:\n      sload(0x06)\n      dup2\n      jump\t// out\n        /* \"ribbonVaultOld.sol\":5446:5600  function emergencyWithdraw(address _tokenAddress,address _to,uint _amount )public onlyOwner{... */\n    tag_105:\n        /* \"@openzeppelin/contracts/access/Ownable.sol\":1531:1544  _checkOwner() */\n      tag_222\n        /* \"@openzeppelin/contracts/access/Ownable.sol\":1531:1542  _checkOwner */\n      tag_146\n        /* \"@openzeppelin/contracts/access/Ownable.sol\":1531:1544  _checkOwner() */\n      jump\t// in\n    tag_222:\n        /* \"ribbonVaultOld.sol\":5556:5569  _tokenAddress */\n      dup3\n        /* \"ribbonVaultOld.sol\":5548:5579  IERC20T(_tokenAddress).transfer */\n      0xffffffffffffffffffffffffffffffffffffffff\n      and\n      0xa9059cbb\n        /* \"ribbonVaultOld.sol\":5580:5583  _to */\n      dup4\n        /* \"ribbonVaultOld.sol\":5584:5591  _amount */\n      dup4\n        /* \"ribbonVaultOld.sol\":5548:5592  IERC20T(_tokenAddress).transfer(_to,_amount) */\n      mload(0x40)\n      dup4\n      0xffffffff\n      and\n      0xe0\n      shl\n      dup2\n      mstore\n      0x04\n      add\n      tag_224\n      swap3\n      swap2\n      swap1\n      tag_119\n      jump\t// in\n    tag_224:\n      0x20\n      mload(0x40)\n      dup1\n      dup4\n      sub\n      dup2\n      0x00\n      dup8\n      gas\n      call\n      iszero\n      dup1\n      iszero\n      tag_226\n      jumpi\n      returndatasize\n      0x00\n      dup1\n      returndatacopy\n      revert(0x00, returndatasize)\n    tag_226:\n      pop\n      pop\n      pop\n      pop\n      mload(0x40)\n      returndatasize\n      not(0x1f)\n      0x1f\n      dup3\n      add\n      and\n      dup3\n      add\n      dup1\n      0x40\n      mstore\n      pop\n      dup2\n      add\n      swap1\n      tag_227\n      swap2\n      swap1\n      tag_123\n      jump\t// in\n    tag_227:\n      pop\n        /* \"ribbonVaultOld.sol\":5446:5600  function emergencyWithdraw(address _tokenAddress,address _to,uint _amount )public onlyOwner{... */\n      pop\n      pop\n      pop\n      jump\t// out\n        /* \"@openzeppelin/contracts/access/Ownable.sol\":2543:2758  function transferOwnership(address newOwner) public virtual onlyOwner {... */\n    tag_108:\n        /* \"@openzeppelin/contracts/access/Ownable.sol\":1531:1544  _checkOwner() */\n      tag_229\n        /* \"@openzeppelin/contracts/access/Ownable.sol\":1531:1542  _checkOwner */\n      tag_146\n        /* \"@openzeppelin/contracts/access/Ownable.sol\":1531:1544  _checkOwner() */\n      jump\t// in\n    tag_229:\n        /* \"@openzeppelin/contracts/access/Ownable.sol\":2647:2648  0 */\n      0x00\n        /* \"@openzeppelin/contracts/access/Ownable.sol\":2627:2649  newOwner == address(0) */\n      0xffffffffffffffffffffffffffffffffffffffff\n      and\n        /* \"@openzeppelin/contracts/access/Ownable.sol\":2627:2635  newOwner */\n      dup2\n        /* \"@openzeppelin/contracts/access/Ownable.sol\":2627:2649  newOwner == address(0) */\n      0xffffffffffffffffffffffffffffffffffffffff\n      and\n      sub\n        /* \"@openzeppelin/contracts/access/Ownable.sol\":2623:2714  if (newOwner == address(0)) {... */\n      tag_231\n      jumpi\n        /* \"@openzeppelin/contracts/access/Ownable.sol\":2700:2701  0 */\n      0x00\n        /* \"@openzeppelin/contracts/access/Ownable.sol\":2672:2703  OwnableInvalidOwner(address(0)) */\n      mload(0x40)\n      0x1e4fbdf700000000000000000000000000000000000000000000000000000000\n      dup2\n      mstore\n      0x04\n      add\n      tag_232\n      swap2\n      swap1\n      tag_79\n      jump\t// in\n    tag_232:\n      mload(0x40)\n      dup1\n      swap2\n      sub\n      swap1\n      revert\n        /* \"@openzeppelin/contracts/access/Ownable.sol\":2623:2714  if (newOwner == address(0)) {... */\n    tag_231:\n        /* \"@openzeppelin/contracts/access/Ownable.sol\":2723:2751  _transferOwnership(newOwner) */\n      tag_233\n        /* \"@openzeppelin/contracts/access/Ownable.sol\":2742:2750  newOwner */\n      dup2\n        /* \"@openzeppelin/contracts/access/Ownable.sol\":2723:2741  _transferOwnership */\n      tag_158\n        /* \"@openzeppelin/contracts/access/Ownable.sol\":2723:2751  _transferOwnership(newOwner) */\n      jump\t// in\n    tag_233:\n        /* \"@openzeppelin/contracts/access/Ownable.sol\":2543:2758  function transferOwnership(address newOwner) public virtual onlyOwner {... */\n      pop\n      jump\t// out\n        /* \"ribbonVaultOld.sol\":807:837  uint public claimedPaymentCoin */\n    tag_110:\n      sload(0x08)\n      dup2\n      jump\t// out\n        /* \"ribbonVaultOld.sol\":4814:5438  function _verify(bytes memory _signature,address user,uint amount,uint deadline)internal {... */\n    tag_114:\n        /* \"ribbonVaultOld.sol\":4930:4935  false */\n      0x00\n        /* \"ribbonVaultOld.sol\":4922:4935  freeze==false */\n      iszero\n      iszero\n        /* \"ribbonVaultOld.sol\":4922:4928  freeze */\n      0x0c\n      0x00\n      swap1\n      sload\n      swap1\n      0x0100\n      exp\n      swap1\n      div\n      0xff\n      and\n        /* \"ribbonVaultOld.sol\":4922:4935  freeze==false */\n      iszero\n      iszero\n      eq\n        /* \"ribbonVaultOld.sol\":4914:4955  require(freeze==false,\"contract freezed\") */\n      tag_235\n      jumpi\n      mload(0x40)\n      0x08c379a000000000000000000000000000000000000000000000000000000000\n      dup2\n      mstore\n      0x04\n      add\n      tag_236\n      swap1\n      tag_237\n      jump\t// in\n    tag_236:\n      mload(0x40)\n      dup1\n      swap2\n      sub\n      swap1\n      revert\n    tag_235:\n        /* \"ribbonVaultOld.sol\":4984:4999  block.timestamp */\n      timestamp\n        /* \"ribbonVaultOld.sol\":4974:4982  deadline */\n      dup2\n        /* \"ribbonVaultOld.sol\":4974:4999  deadline>=block.timestamp */\n      lt\n      iszero\n        /* \"ribbonVaultOld.sol\":4966:5020  require(deadline>=block.timestamp,\"expired signature\") */\n      tag_238\n      jumpi\n      mload(0x40)\n      0x08c379a000000000000000000000000000000000000000000000000000000000\n      dup2\n      mstore\n      0x04\n      add\n      tag_239\n      swap1\n      tag_240\n      jump\t// in\n    tag_239:\n      mload(0x40)\n      dup1\n      swap2\n      sub\n      swap1\n      revert\n    tag_238:\n        /* \"ribbonVaultOld.sol\":5031:5050  bytes32 messagehash */\n      0x00\n        /* \"ribbonVaultOld.sol\":5094:5098  user */\n      dup4\n        /* \"ribbonVaultOld.sol\":5099:5105  amount */\n      dup4\n        /* \"ribbonVaultOld.sol\":5106:5114  deadline */\n      dup4\n        /* \"ribbonVaultOld.sol\":5115:5122  chainid */\n      sload(0x0a)\n        /* \"ribbonVaultOld.sol\":5077:5123  abi.encodePacked(user,amount,deadline,chainid) */\n      add(0x20, mload(0x40))\n      tag_241\n      swap5\n      swap4\n      swap3\n      swap2\n      swap1\n      tag_242\n      jump\t// in\n    tag_241:\n      mload(0x40)\n      0x20\n      dup2\n      dup4\n      sub\n      sub\n      dup2\n      mstore\n      swap1\n      0x40\n      mstore\n        /* \"ribbonVaultOld.sol\":5053:5134  keccak256(... */\n      dup1\n      mload\n      swap1\n      0x20\n      add\n      keccak256\n        /* \"ribbonVaultOld.sol\":5031:5134  bytes32 messagehash = keccak256(... */\n      swap1\n      pop\n        /* \"ribbonVaultOld.sol\":5145:5159  address signer */\n      0x00\n        /* \"ribbonVaultOld.sol\":5162:5242  messagehash.toEthSignedMessageHash().recover(... */\n      tag_243\n        /* \"ribbonVaultOld.sol\":5221:5231  _signature */\n      dup7\n        /* \"ribbonVaultOld.sol\":5162:5198  messagehash.toEthSignedMessageHash() */\n      tag_244\n        /* \"ribbonVaultOld.sol\":5162:5173  messagehash */\n      dup5\n        /* \"ribbonVaultOld.sol\":5162:5196  messagehash.toEthSignedMessageHash */\n      tag_245\n        /* \"ribbonVaultOld.sol\":5162:5198  messagehash.toEthSignedMessageHash() */\n      jump\t// in\n    tag_244:\n        /* \"ribbonVaultOld.sol\":5162:5206  messagehash.toEthSignedMessageHash().recover */\n      tag_246\n      swap1\n        /* \"ribbonVaultOld.sol\":5162:5242  messagehash.toEthSignedMessageHash().recover(... */\n      swap2\n      swap1\n      0xffffffff\n      and\n      jump\t// in\n    tag_243:\n        /* \"ribbonVaultOld.sol\":5145:5242  address signer = messagehash.toEthSignedMessageHash().recover(... */\n      swap1\n      pop\n        /* \"ribbonVaultOld.sol\":5272:5278  signer */\n      dup1\n        /* \"ribbonVaultOld.sol\":5261:5278  owner() == signer */\n      0xffffffffffffffffffffffffffffffffffffffff\n      and\n        /* \"ribbonVaultOld.sol\":5261:5268  owner() */\n      tag_247\n        /* \"ribbonVaultOld.sol\":5261:5266  owner */\n      tag_77\n        /* \"ribbonVaultOld.sol\":5261:5268  owner() */\n      jump\t// in\n    tag_247:\n        /* \"ribbonVaultOld.sol\":5261:5278  owner() == signer */\n      0xffffffffffffffffffffffffffffffffffffffff\n      and\n      eq\n        /* \"ribbonVaultOld.sol\":5253:5294  require(owner() == signer,\"not permited\") */\n      tag_248\n      jumpi\n      mload(0x40)\n      0x08c379a000000000000000000000000000000000000000000000000000000000\n      dup2\n      mstore\n      0x04\n      add\n      tag_249\n      swap1\n      tag_250\n      jump\t// in\n    tag_249:\n      mload(0x40)\n      dup1\n      swap2\n      sub\n      swap1\n      revert\n    tag_248:\n        /* \"ribbonVaultOld.sol\":5347:5352  false */\n      0x00\n        /* \"ribbonVaultOld.sol\":5313:5352  alreadyclaimedpoints[_signature]==false */\n      iszero\n      iszero\n        /* \"ribbonVaultOld.sol\":5313:5333  alreadyclaimedpoints */\n      0x0d\n        /* \"ribbonVaultOld.sol\":5334:5344  _signature */\n      dup8\n        /* \"ribbonVaultOld.sol\":5313:5345  alreadyclaimedpoints[_signature] */\n      mload(0x40)\n      tag_251\n      swap2\n      swap1\n      tag_252\n      jump\t// in\n    tag_251:\n      swap1\n      dup2\n      mstore\n      0x20\n      add\n      mload(0x40)\n      dup1\n      swap2\n      sub\n      swap1\n      keccak256\n      0x00\n      swap1\n      sload\n      swap1\n      0x0100\n      exp\n      swap1\n      div\n      0xff\n      and\n        /* \"ribbonVaultOld.sol\":5313:5352  alreadyclaimedpoints[_signature]==false */\n      iszero\n      iszero\n      eq\n        /* \"ribbonVaultOld.sol\":5305:5370  require(alreadyclaimedpoints[_signature]==false,\"signature used\") */\n      tag_253\n      jumpi\n      mload(0x40)\n      0x08c379a000000000000000000000000000000000000000000000000000000000\n      dup2\n      mstore\n      0x04\n      add\n      tag_254\n      swap1\n      tag_255\n      jump\t// in\n    tag_254:\n      mload(0x40)\n      dup1\n      swap2\n      sub\n      swap1\n      revert\n    tag_253:\n        /* \"ribbonVaultOld.sol\":5414:5418  true */\n      0x01\n        /* \"ribbonVaultOld.sol\":5381:5401  alreadyclaimedpoints */\n      0x0d\n        /* \"ribbonVaultOld.sol\":5402:5412  _signature */\n      dup8\n        /* \"ribbonVaultOld.sol\":5381:5413  alreadyclaimedpoints[_signature] */\n      mload(0x40)\n      tag_256\n      swap2\n      swap1\n      tag_252\n      jump\t// in\n    tag_256:\n      swap1\n      dup2\n      mstore\n      0x20\n      add\n      mload(0x40)\n      dup1\n      swap2\n      sub\n      swap1\n      keccak256\n      0x00\n        /* \"ribbonVaultOld.sol\":5381:5418  alreadyclaimedpoints[_signature]=true */\n      0x0100\n      exp\n      dup2\n      sload\n      dup2\n      0xff\n      mul\n      not\n      and\n      swap1\n      dup4\n      iszero\n      iszero\n      mul\n      or\n      swap1\n      sstore\n      pop\n        /* \"ribbonVaultOld.sol\":4903:5438  {... */\n      pop\n      pop\n        /* \"ribbonVaultOld.sol\":4814:5438  function _verify(bytes memory _signature,address user,uint amount,uint deadline)internal {... */\n      pop\n      pop\n      pop\n      pop\n      jump\t// out\n        /* \"@openzeppelin/contracts/access/Ownable.sol\":1796:1958  function _checkOwner() internal view virtual {... */\n    tag_146:\n        /* \"@openzeppelin/contracts/access/Ownable.sol\":1866:1878  _msgSender() */\n      tag_258\n        /* \"@openzeppelin/contracts/access/Ownable.sol\":1866:1876  _msgSender */\n      tag_259\n        /* \"@openzeppelin/contracts/access/Ownable.sol\":1866:1878  _msgSender() */\n      jump\t// in\n    tag_258:\n        /* \"@openzeppelin/contracts/access/Ownable.sol\":1855:1878  owner() != _msgSender() */\n      0xffffffffffffffffffffffffffffffffffffffff\n      and\n        /* \"@openzeppelin/contracts/access/Ownable.sol\":1855:1862  owner() */\n      tag_260\n        /* \"@openzeppelin/contracts/access/Ownable.sol\":1855:1860  owner */\n      tag_77\n        /* \"@openzeppelin/contracts/access/Ownable.sol\":1855:1862  owner() */\n      jump\t// in\n    tag_260:\n        /* \"@openzeppelin/contracts/access/Ownable.sol\":1855:1878  owner() != _msgSender() */\n      0xffffffffffffffffffffffffffffffffffffffff\n      and\n      eq\n        /* \"@openzeppelin/contracts/access/Ownable.sol\":1851:1952  if (owner() != _msgSender()) {... */\n      tag_261\n      jumpi\n        /* \"@openzeppelin/contracts/access/Ownable.sol\":1928:1940  _msgSender() */\n      tag_262\n        /* \"@openzeppelin/contracts/access/Ownable.sol\":1928:1938  _msgSender */\n      tag_259\n        /* \"@openzeppelin/contracts/access/Ownable.sol\":1928:1940  _msgSender() */\n      jump\t// in\n    tag_262:\n        /* \"@openzeppelin/contracts/access/Ownable.sol\":1901:1941  OwnableUnauthorizedAccount(_msgSender()) */\n      mload(0x40)\n      0x118cdaa700000000000000000000000000000000000000000000000000000000\n      dup2\n      mstore\n      0x04\n      add\n      tag_263\n      swap2\n      swap1\n      tag_79\n      jump\t// in\n    tag_263:\n      mload(0x40)\n      dup1\n      swap2\n      sub\n      swap1\n      revert\n        /* \"@openzeppelin/contracts/access/Ownable.sol\":1851:1952  if (owner() != _msgSender()) {... */\n    tag_261:\n        /* \"@openzeppelin/contracts/access/Ownable.sol\":1796:1958  function _checkOwner() internal view virtual {... */\n      jump\t// out\n        /* \"@openzeppelin/contracts/access/Ownable.sol\":2912:3099  function _transferOwnership(address newOwner) internal virtual {... */\n    tag_158:\n        /* \"@openzeppelin/contracts/access/Ownable.sol\":2985:3001  address oldOwner */\n      0x00\n        /* \"@openzeppelin/contracts/access/Ownable.sol\":3004:3010  _owner */\n      dup1\n      0x00\n      swap1\n      sload\n      swap1\n      0x0100\n      exp\n      swap1\n      div\n      0xffffffffffffffffffffffffffffffffffffffff\n      and\n        /* \"@openzeppelin/contracts/access/Ownable.sol\":2985:3010  address oldOwner = _owner */\n      swap1\n      pop\n        /* \"@openzeppelin/contracts/access/Ownable.sol\":3029:3037  newOwner */\n      dup2\n        /* \"@openzeppelin/contracts/access/Ownable.sol\":3020:3026  _owner */\n      0x00\n      dup1\n        /* \"@openzeppelin/contracts/access/Ownable.sol\":3020:3037  _owner = newOwner */\n      0x0100\n      exp\n      dup2\n      sload\n      dup2\n      0xffffffffffffffffffffffffffffffffffffffff\n      mul\n      not\n      and\n      swap1\n      dup4\n      0xffffffffffffffffffffffffffffffffffffffff\n      and\n      mul\n      or\n      swap1\n      sstore\n      pop\n        /* \"@openzeppelin/contracts/access/Ownable.sol\":3083:3091  newOwner */\n      dup2\n        /* \"@openzeppelin/contracts/access/Ownable.sol\":3052:3092  OwnershipTransferred(oldOwner, newOwner) */\n      0xffffffffffffffffffffffffffffffffffffffff\n      and\n        /* \"@openzeppelin/contracts/access/Ownable.sol\":3073:3081  oldOwner */\n      dup2\n        /* \"@openzeppelin/contracts/access/Ownable.sol\":3052:3092  OwnershipTransferred(oldOwner, newOwner) */\n      0xffffffffffffffffffffffffffffffffffffffff\n      and\n      0x8be0079c531659141344cd1fd0a4f28419497f9722a3daafe3b4186f6b6457e0\n      mload(0x40)\n      mload(0x40)\n      dup1\n      swap2\n      sub\n      swap1\n      log3\n        /* \"@openzeppelin/contracts/access/Ownable.sol\":2975:3099  {... */\n      pop\n        /* \"@openzeppelin/contracts/access/Ownable.sol\":2912:3099  function _transferOwnership(address newOwner) internal virtual {... */\n      pop\n      jump\t// out\n        /* \"Ecdsa.sol\":3519:3788  function toEthSignedMessageHash(bytes32 hash) internal pure returns (bytes32) {... */\n    tag_245:\n        /* \"Ecdsa.sol\":3588:3595  bytes32 */\n      0x00\n        /* \"Ecdsa.sol\":3774:3778  hash */\n      dup2\n        /* \"Ecdsa.sol\":3721:3779  abi.encodePacked(\"\\x19Ethereum Signed Message:\\n32\", hash) */\n      add(0x20, mload(0x40))\n      tag_266\n      swap2\n      swap1\n      tag_267\n      jump\t// in\n    tag_266:\n      mload(0x40)\n      0x20\n      dup2\n      dup4\n      sub\n      sub\n      dup2\n      mstore\n      swap1\n      0x40\n      mstore\n        /* \"Ecdsa.sol\":3711:3780  keccak256(abi.encodePacked(\"\\x19Ethereum Signed Message:\\n32\", hash)) */\n      dup1\n      mload\n      swap1\n      0x20\n      add\n      keccak256\n        /* \"Ecdsa.sol\":3704:3780  return keccak256(abi.encodePacked(\"\\x19Ethereum Signed Message:\\n32\", hash)) */\n      swap1\n      pop\n        /* \"Ecdsa.sol\":3519:3788  function toEthSignedMessageHash(bytes32 hash) internal pure returns (bytes32) {... */\n      swap2\n      swap1\n      pop\n      jump\t// out\n        /* \"Ecdsa.sol\":887:1648  function recover(bytes32 hash, bytes memory signature) internal pure returns (address) {... */\n    tag_246:\n        /* \"Ecdsa.sol\":965:972  address */\n      0x00\n        /* \"Ecdsa.sol\":1048:1050  65 */\n      0x41\n        /* \"Ecdsa.sol\":1028:1037  signature */\n      dup3\n        /* \"Ecdsa.sol\":1028:1044  signature.length */\n      mload\n        /* \"Ecdsa.sol\":1028:1050  signature.length != 65 */\n      eq\n        /* \"Ecdsa.sol\":1024:1120  if (signature.length != 65) {... */\n      tag_269\n      jumpi\n        /* \"Ecdsa.sol\":1067:1108  revert(\"ECDSA: invalid signature length\") */\n      mload(0x40)\n      0x08c379a000000000000000000000000000000000000000000000000000000000\n      dup2\n      mstore\n      0x04\n      add\n      tag_270\n      swap1\n      tag_271\n      jump\t// in\n    tag_270:\n      mload(0x40)\n      dup1\n      swap2\n      sub\n      swap1\n      revert\n        /* \"Ecdsa.sol\":1024:1120  if (signature.length != 65) {... */\n    tag_269:\n        /* \"Ecdsa.sol\":1189:1198  bytes32 r */\n      0x00\n        /* \"Ecdsa.sol\":1209:1218  bytes32 s */\n      dup1\n        /* \"Ecdsa.sol\":1229:1236  uint8 v */\n      0x00\n        /* \"Ecdsa.sol\":1481:1485  0x20 */\n      0x20\n        /* \"Ecdsa.sol\":1470:1479  signature */\n      dup6\n        /* \"Ecdsa.sol\":1466:1486  add(signature, 0x20) */\n      add\n        /* \"Ecdsa.sol\":1460:1487  mload(add(signature, 0x20)) */\n      mload\n        /* \"Ecdsa.sol\":1455:1487  r := mload(add(signature, 0x20)) */\n      swap3\n      pop\n        /* \"Ecdsa.sol\":1527:1531  0x40 */\n      0x40\n        /* \"Ecdsa.sol\":1516:1525  signature */\n      dup6\n        /* \"Ecdsa.sol\":1512:1532  add(signature, 0x40) */\n      add\n        /* \"Ecdsa.sol\":1506:1533  mload(add(signature, 0x40)) */\n      mload\n        /* \"Ecdsa.sol\":1501:1533  s := mload(add(signature, 0x40)) */\n      swap2\n      pop\n        /* \"Ecdsa.sol\":1581:1585  0x60 */\n      0x60\n        /* \"Ecdsa.sol\":1570:1579  signature */\n      dup6\n        /* \"Ecdsa.sol\":1566:1586  add(signature, 0x60) */\n      add\n        /* \"Ecdsa.sol\":1560:1587  mload(add(signature, 0x60)) */\n      mload\n        /* \"Ecdsa.sol\":1557:1558  0 */\n      0x00\n        /* \"Ecdsa.sol\":1552:1588  byte(0, mload(add(signature, 0x60))) */\n      byte\n        /* \"Ecdsa.sol\":1547:1588  v := byte(0, mload(add(signature, 0x60))) */\n      swap1\n      pop\n        /* \"Ecdsa.sol\":1618:1640  recover(hash, v, r, s) */\n      tag_272\n        /* \"Ecdsa.sol\":1626:1630  hash */\n      dup7\n        /* \"Ecdsa.sol\":1632:1633  v */\n      dup3\n        /* \"Ecdsa.sol\":1635:1636  r */\n      dup6\n        /* \"Ecdsa.sol\":1638:1639  s */\n      dup6\n        /* \"Ecdsa.sol\":1618:1625  recover */\n      tag_273\n        /* \"Ecdsa.sol\":1618:1640  recover(hash, v, r, s) */\n      jump\t// in\n    tag_272:\n        /* \"Ecdsa.sol\":1611:1640  return recover(hash, v, r, s) */\n      swap4\n      pop\n      pop\n      pop\n      pop\n        /* \"Ecdsa.sol\":887:1648  function recover(bytes32 hash, bytes memory signature) internal pure returns (address) {... */\n      swap3\n      swap2\n      pop\n      pop\n      jump\t// out\n        /* \"@openzeppelin/contracts/utils/Context.sol\":656:752  function _msgSender() internal view virtual returns (address) {... */\n    tag_259:\n        /* \"@openzeppelin/contracts/utils/Context.sol\":709:716  address */\n      0x00\n        /* \"@openzeppelin/contracts/utils/Context.sol\":735:745  msg.sender */\n      caller\n        /* \"@openzeppelin/contracts/utils/Context.sol\":728:745  return msg.sender */\n      swap1\n      pop\n        /* \"@openzeppelin/contracts/utils/Context.sol\":656:752  function _msgSender() internal view virtual returns (address) {... */\n      swap1\n      jump\t// out\n        /* \"Ecdsa.sol\":1787:3219  function recover(bytes32 hash, uint8 v, bytes32 r, bytes32 s) internal pure returns (address) {... */\n    tag_273:\n        /* \"Ecdsa.sol\":1872:1879  address */\n      0x00\n        /* \"Ecdsa.sol\":2797:2863  0x7FFFFFFFFFFFFFFFFFFFFFFFFFFFFFFF5D576E7357A4501DDFE92F46681B20A0 */\n      0x7fffffffffffffffffffffffffffffff5d576e7357a4501ddfe92f46681b20a0\n        /* \"Ecdsa.sol\":2791:2792  s */\n      dup3\n        /* \"Ecdsa.sol\":2783:2793  uint256(s) */\n      0x00\n      shr\n        /* \"Ecdsa.sol\":2783:2863  uint256(s) <= 0x7FFFFFFFFFFFFFFFFFFFFFFFFFFFFFFF5D576E7357A4501DDFE92F46681B20A0 */\n      gt\n      iszero\n        /* \"Ecdsa.sol\":2775:2902  require(uint256(s) <= 0x7FFFFFFFFFFFFFFFFFFFFFFFFFFFFFFF5D576E7357A4501DDFE92F46681B20A0, \"ECDSA: invalid signature 's' value\") */\n      tag_276\n      jumpi\n      mload(0x40)\n      0x08c379a000000000000000000000000000000000000000000000000000000000\n      dup2\n      mstore\n      0x04\n      add\n      tag_277\n      swap1\n      tag_278\n      jump\t// in\n    tag_277:\n      mload(0x40)\n      dup1\n      swap2\n      sub\n      swap1\n      revert\n    tag_276:\n        /* \"Ecdsa.sol\":2926:2928  27 */\n      0x1b\n        /* \"Ecdsa.sol\":2921:2922  v */\n      dup5\n        /* \"Ecdsa.sol\":2921:2928  v == 27 */\n      0xff\n      and\n      eq\n        /* \"Ecdsa.sol\":2921:2939  v == 27 || v == 28 */\n      dup1\n      tag_279\n      jumpi\n      pop\n        /* \"Ecdsa.sol\":2937:2939  28 */\n      0x1c\n        /* \"Ecdsa.sol\":2932:2933  v */\n      dup5\n        /* \"Ecdsa.sol\":2932:2939  v == 28 */\n      0xff\n      and\n      eq\n        /* \"Ecdsa.sol\":2921:2939  v == 27 || v == 28 */\n    tag_279:\n        /* \"Ecdsa.sol\":2913:2978  require(v == 27 || v == 28, \"ECDSA: invalid signature 'v' value\") */\n      tag_280\n      jumpi\n      mload(0x40)\n      0x08c379a000000000000000000000000000000000000000000000000000000000\n      dup2\n      mstore\n      0x04\n      add\n      tag_281\n      swap1\n      tag_282\n      jump\t// in\n    tag_281:\n      mload(0x40)\n      dup1\n      swap2\n      sub\n      swap1\n      revert\n    tag_280:\n        /* \"Ecdsa.sol\":3076:3090  address signer */\n      0x00\n        /* \"Ecdsa.sol\":3093:3117  ecrecover(hash, v, r, s) */\n      0x01\n        /* \"Ecdsa.sol\":3103:3107  hash */\n      dup7\n        /* \"Ecdsa.sol\":3109:3110  v */\n      dup7\n        /* \"Ecdsa.sol\":3112:3113  r */\n      dup7\n        /* \"Ecdsa.sol\":3115:3116  s */\n      dup7\n        /* \"Ecdsa.sol\":3093:3117  ecrecover(hash, v, r, s) */\n      mload(0x40)\n      0x00\n      dup2\n      mstore\n      0x20\n      add\n      0x40\n      mstore\n      mload(0x40)\n      tag_283\n      swap5\n      swap4\n      swap3\n      swap2\n      swap1\n      tag_284\n      jump\t// in\n    tag_283:\n      0x20\n      mload(0x40)\n      0x20\n      dup2\n      sub\n      swap1\n      dup1\n      dup5\n      sub\n      swap1\n      dup6\n      gas\n      staticcall\n      iszero\n      dup1\n      iszero\n      tag_286\n      jumpi\n      returndatasize\n      0x00\n      dup1\n      returndatacopy\n      revert(0x00, returndatasize)\n    tag_286:\n      pop\n      pop\n      pop\n      mload(sub(mload(0x40), 0x20))\n        /* \"Ecdsa.sol\":3076:3117  address signer = ecrecover(hash, v, r, s) */\n      swap1\n      pop\n        /* \"Ecdsa.sol\":3154:3155  0 */\n      0x00\n        /* \"Ecdsa.sol\":3136:3156  signer != address(0) */\n      0xffffffffffffffffffffffffffffffffffffffff\n      and\n        /* \"Ecdsa.sol\":3136:3142  signer */\n      dup2\n        /* \"Ecdsa.sol\":3136:3156  signer != address(0) */\n      0xffffffffffffffffffffffffffffffffffffffff\n      and\n      sub\n        /* \"Ecdsa.sol\":3128:3185  require(signer != address(0), \"ECDSA: invalid signature\") */\n      tag_287\n      jumpi\n      mload(0x40)\n      0x08c379a000000000000000000000000000000000000000000000000000000000\n      dup2\n      mstore\n      0x04\n      add\n      tag_288\n      swap1\n      tag_289\n      jump\t// in\n    tag_288:\n      mload(0x40)\n      dup1\n      swap2\n      sub\n      swap1\n      revert\n    tag_287:\n        /* \"Ecdsa.sol\":3205:3211  signer */\n      dup1\n        /* \"Ecdsa.sol\":3198:3211  return signer */\n      swap2\n      pop\n      pop\n        /* \"Ecdsa.sol\":1787:3219  function recover(bytes32 hash, uint8 v, bytes32 r, bytes32 s) internal pure returns (address) {... */\n      swap5\n      swap4\n      pop\n      pop\n      pop\n      pop\n      jump\t// out\n        /* \"#utility.yul\":7:84   */\n    tag_290:\n        /* \"#utility.yul\":44:51   */\n      0x00\n        /* \"#utility.yul\":73:78   */\n      dup2\n        /* \"#utility.yul\":62:78   */\n      swap1\n      pop\n        /* \"#utility.yul\":7:84   */\n      swap2\n      swap1\n      pop\n      jump\t// out\n        /* \"#utility.yul\":90:208   */\n    tag_291:\n        /* \"#utility.yul\":177:201   */\n      tag_371\n        /* \"#utility.yul\":195:200   */\n      dup2\n        /* \"#utility.yul\":177:201   */\n      tag_290\n      jump\t// in\n    tag_371:\n        /* \"#utility.yul\":172:175   */\n      dup3\n        /* \"#utility.yul\":165:202   */\n      mstore\n        /* \"#utility.yul\":90:208   */\n      pop\n      pop\n      jump\t// out\n        /* \"#utility.yul\":214:436   */\n    tag_33:\n        /* \"#utility.yul\":307:311   */\n      0x00\n        /* \"#utility.yul\":345:347   */\n      0x20\n        /* \"#utility.yul\":334:343   */\n      dup3\n        /* \"#utility.yul\":330:348   */\n      add\n        /* \"#utility.yul\":322:348   */\n      swap1\n      pop\n        /* \"#utility.yul\":358:429   */\n      tag_373\n        /* \"#utility.yul\":426:427   */\n      0x00\n        /* \"#utility.yul\":415:424   */\n      dup4\n        /* \"#utility.yul\":411:428   */\n      add\n        /* \"#utility.yul\":402:408   */\n      dup5\n        /* \"#utility.yul\":358:429   */\n      tag_291\n      jump\t// in\n    tag_373:\n        /* \"#utility.yul\":214:436   */\n      swap3\n      swap2\n      pop\n      pop\n      jump\t// out\n        /* \"#utility.yul\":442:517   */\n    tag_292:\n        /* \"#utility.yul\":475:481   */\n      0x00\n        /* \"#utility.yul\":508:510   */\n      0x40\n        /* \"#utility.yul\":502:511   */\n      mload\n        /* \"#utility.yul\":492:511   */\n      swap1\n      pop\n        /* \"#utility.yul\":442:517   */\n      swap1\n      jump\t// out\n        /* \"#utility.yul\":523:640   */\n    tag_293:\n        /* \"#utility.yul\":632:633   */\n      0x00\n        /* \"#utility.yul\":629:630   */\n      dup1\n        /* \"#utility.yul\":622:634   */\n      revert\n        /* \"#utility.yul\":646:763   */\n    tag_294:\n        /* \"#utility.yul\":755:756   */\n      0x00\n        /* \"#utility.yul\":752:753   */\n      dup1\n        /* \"#utility.yul\":745:757   */\n      revert\n        /* \"#utility.yul\":769:886   */\n    tag_295:\n        /* \"#utility.yul\":878:879   */\n      0x00\n        /* \"#utility.yul\":875:876   */\n      dup1\n        /* \"#utility.yul\":868:880   */\n      revert\n        /* \"#utility.yul\":892:1009   */\n    tag_296:\n        /* \"#utility.yul\":1001:1002   */\n      0x00\n        /* \"#utility.yul\":998:999   */\n      dup1\n        /* \"#utility.yul\":991:1003   */\n      revert\n        /* \"#utility.yul\":1015:1117   */\n    tag_297:\n        /* \"#utility.yul\":1056:1062   */\n      0x00\n        /* \"#utility.yul\":1107:1109   */\n      0x1f\n        /* \"#utility.yul\":1103:1110   */\n      not\n        /* \"#utility.yul\":1098:1100   */\n      0x1f\n        /* \"#utility.yul\":1091:1096   */\n      dup4\n        /* \"#utility.yul\":1087:1101   */\n      add\n        /* \"#utility.yul\":1083:1111   */\n      and\n        /* \"#utility.yul\":1073:1111   */\n      swap1\n      pop\n        /* \"#utility.yul\":1015:1117   */\n      swap2\n      swap1\n      pop\n      jump\t// out\n        /* \"#utility.yul\":1123:1303   */\n    tag_298:\n        /* \"#utility.yul\":1171:1248   */\n      0x4e487b7100000000000000000000000000000000000000000000000000000000\n        /* \"#utility.yul\":1168:1169   */\n      0x00\n        /* \"#utility.yul\":1161:1249   */\n      mstore\n        /* \"#utility.yul\":1268:1272   */\n      0x41\n        /* \"#utility.yul\":1265:1266   */\n      0x04\n        /* \"#utility.yul\":1258:1273   */\n      mstore\n        /* \"#utility.yul\":1292:1296   */\n      0x24\n        /* \"#utility.yul\":1289:1290   */\n      0x00\n        /* \"#utility.yul\":1282:1297   */\n      revert\n        /* \"#utility.yul\":1309:1590   */\n    tag_299:\n        /* \"#utility.yul\":1392:1419   */\n      tag_382\n        /* \"#utility.yul\":1414:1418   */\n      dup3\n        /* \"#utility.yul\":1392:1419   */\n      tag_297\n      jump\t// in\n    tag_382:\n        /* \"#utility.yul\":1384:1390   */\n      dup2\n        /* \"#utility.yul\":1380:1420   */\n      add\n        /* \"#utility.yul\":1522:1528   */\n      dup2\n        /* \"#utility.yul\":1510:1520   */\n      dup2\n        /* \"#utility.yul\":1507:1529   */\n      lt\n        /* \"#utility.yul\":1486:1504   */\n      0xffffffffffffffff\n        /* \"#utility.yul\":1474:1484   */\n      dup3\n        /* \"#utility.yul\":1471:1505   */\n      gt\n        /* \"#utility.yul\":1468:1530   */\n      or\n        /* \"#utility.yul\":1465:1553   */\n      iszero\n      tag_383\n      jumpi\n        /* \"#utility.yul\":1533:1551   */\n      tag_384\n      tag_298\n      jump\t// in\n    tag_384:\n        /* \"#utility.yul\":1465:1553   */\n    tag_383:\n        /* \"#utility.yul\":1573:1583   */\n      dup1\n        /* \"#utility.yul\":1569:1571   */\n      0x40\n        /* \"#utility.yul\":1562:1584   */\n      mstore\n        /* \"#utility.yul\":1352:1590   */\n      pop\n        /* \"#utility.yul\":1309:1590   */\n      pop\n      pop\n      jump\t// out\n        /* \"#utility.yul\":1596:1725   */\n    tag_300:\n        /* \"#utility.yul\":1630:1636   */\n      0x00\n        /* \"#utility.yul\":1657:1677   */\n      tag_386\n      tag_292\n      jump\t// in\n    tag_386:\n        /* \"#utility.yul\":1647:1677   */\n      swap1\n      pop\n        /* \"#utility.yul\":1686:1719   */\n      tag_387\n        /* \"#utility.yul\":1714:1718   */\n      dup3\n        /* \"#utility.yul\":1706:1712   */\n      dup3\n        /* \"#utility.yul\":1686:1719   */\n      tag_299\n      jump\t// in\n    tag_387:\n        /* \"#utility.yul\":1596:1725   */\n      swap2\n      swap1\n      pop\n      jump\t// out\n        /* \"#utility.yul\":1731:2038   */\n    tag_301:\n        /* \"#utility.yul\":1792:1796   */\n      0x00\n        /* \"#utility.yul\":1882:1900   */\n      0xffffffffffffffff\n        /* \"#utility.yul\":1874:1880   */\n      dup3\n        /* \"#utility.yul\":1871:1901   */\n      gt\n        /* \"#utility.yul\":1868:1924   */\n      iszero\n      tag_389\n      jumpi\n        /* \"#utility.yul\":1904:1922   */\n      tag_390\n      tag_298\n      jump\t// in\n    tag_390:\n        /* \"#utility.yul\":1868:1924   */\n    tag_389:\n        /* \"#utility.yul\":1942:1971   */\n      tag_391\n        /* \"#utility.yul\":1964:1970   */\n      dup3\n        /* \"#utility.yul\":1942:1971   */\n      tag_297\n      jump\t// in\n    tag_391:\n        /* \"#utility.yul\":1934:1971   */\n      swap1\n      pop\n        /* \"#utility.yul\":2026:2030   */\n      0x20\n        /* \"#utility.yul\":2020:2024   */\n      dup2\n        /* \"#utility.yul\":2016:2031   */\n      add\n        /* \"#utility.yul\":2008:2031   */\n      swap1\n      pop\n        /* \"#utility.yul\":1731:2038   */\n      swap2\n      swap1\n      pop\n      jump\t// out\n        /* \"#utility.yul\":2044:2190   */\n    tag_302:\n        /* \"#utility.yul\":2141:2147   */\n      dup3\n        /* \"#utility.yul\":2136:2139   */\n      dup2\n        /* \"#utility.yul\":2131:2134   */\n      dup4\n        /* \"#utility.yul\":2118:2148   */\n      calldatacopy\n        /* \"#utility.yul\":2182:2183   */\n      0x00\n        /* \"#utility.yul\":2173:2179   */\n      dup4\n        /* \"#utility.yul\":2168:2171   */\n      dup4\n        /* \"#utility.yul\":2164:2180   */\n      add\n        /* \"#utility.yul\":2157:2184   */\n      mstore\n        /* \"#utility.yul\":2044:2190   */\n      pop\n      pop\n      pop\n      jump\t// out\n        /* \"#utility.yul\":2196:2619   */\n    tag_303:\n        /* \"#utility.yul\":2273:2278   */\n      0x00\n        /* \"#utility.yul\":2298:2363   */\n      tag_394\n        /* \"#utility.yul\":2314:2362   */\n      tag_395\n        /* \"#utility.yul\":2355:2361   */\n      dup5\n        /* \"#utility.yul\":2314:2362   */\n      tag_301\n      jump\t// in\n    tag_395:\n        /* \"#utility.yul\":2298:2363   */\n      tag_300\n      jump\t// in\n    tag_394:\n        /* \"#utility.yul\":2289:2363   */\n      swap1\n      pop\n        /* \"#utility.yul\":2386:2392   */\n      dup3\n        /* \"#utility.yul\":2379:2384   */\n      dup2\n        /* \"#utility.yul\":2372:2393   */\n      mstore\n        /* \"#utility.yul\":2424:2428   */\n      0x20\n        /* \"#utility.yul\":2417:2422   */\n      dup2\n        /* \"#utility.yul\":2413:2429   */\n      add\n        /* \"#utility.yul\":2462:2465   */\n      dup5\n        /* \"#utility.yul\":2453:2459   */\n      dup5\n        /* \"#utility.yul\":2448:2451   */\n      dup5\n        /* \"#utility.yul\":2444:2460   */\n      add\n        /* \"#utility.yul\":2441:2466   */\n      gt\n        /* \"#utility.yul\":2438:2550   */\n      iszero\n      tag_396\n      jumpi\n        /* \"#utility.yul\":2469:2548   */\n      tag_397\n      tag_296\n      jump\t// in\n    tag_397:\n        /* \"#utility.yul\":2438:2550   */\n    tag_396:\n        /* \"#utility.yul\":2559:2613   */\n      tag_398\n        /* \"#utility.yul\":2606:2612   */\n      dup5\n        /* \"#utility.yul\":2601:2604   */\n      dup3\n        /* \"#utility.yul\":2596:2599   */\n      dup6\n        /* \"#utility.yul\":2559:2613   */\n      tag_302\n      jump\t// in\n    tag_398:\n        /* \"#utility.yul\":2279:2619   */\n      pop\n        /* \"#utility.yul\":2196:2619   */\n      swap4\n      swap3\n      pop\n      pop\n      pop\n      jump\t// out\n        /* \"#utility.yul\":2638:2976   */\n    tag_304:\n        /* \"#utility.yul\":2693:2698   */\n      0x00\n        /* \"#utility.yul\":2742:2745   */\n      dup3\n        /* \"#utility.yul\":2735:2739   */\n      0x1f\n        /* \"#utility.yul\":2727:2733   */\n      dup4\n        /* \"#utility.yul\":2723:2740   */\n      add\n        /* \"#utility.yul\":2719:2746   */\n      slt\n        /* \"#utility.yul\":2709:2831   */\n      tag_400\n      jumpi\n        /* \"#utility.yul\":2750:2829   */\n      tag_401\n      tag_295\n      jump\t// in\n    tag_401:\n        /* \"#utility.yul\":2709:2831   */\n    tag_400:\n        /* \"#utility.yul\":2867:2873   */\n      dup2\n        /* \"#utility.yul\":2854:2874   */\n      calldataload\n        /* \"#utility.yul\":2892:2970   */\n      tag_402\n        /* \"#utility.yul\":2966:2969   */\n      dup5\n        /* \"#utility.yul\":2958:2964   */\n      dup3\n        /* \"#utility.yul\":2951:2955   */\n      0x20\n        /* \"#utility.yul\":2943:2949   */\n      dup7\n        /* \"#utility.yul\":2939:2956   */\n      add\n        /* \"#utility.yul\":2892:2970   */\n      tag_303\n      jump\t// in\n    tag_402:\n        /* \"#utility.yul\":2883:2970   */\n      swap2\n      pop\n        /* \"#utility.yul\":2699:2976   */\n      pop\n        /* \"#utility.yul\":2638:2976   */\n      swap3\n      swap2\n      pop\n      pop\n      jump\t// out\n        /* \"#utility.yul\":2982:3108   */\n    tag_305:\n        /* \"#utility.yul\":3019:3026   */\n      0x00\n        /* \"#utility.yul\":3059:3101   */\n      0xffffffffffffffffffffffffffffffffffffffff\n        /* \"#utility.yul\":3052:3057   */\n      dup3\n        /* \"#utility.yul\":3048:3102   */\n      and\n        /* \"#utility.yul\":3037:3102   */\n      swap1\n      pop\n        /* \"#utility.yul\":2982:3108   */\n      swap2\n      swap1\n      pop\n      jump\t// out\n        /* \"#utility.yul\":3114:3210   */\n    tag_306:\n        /* \"#utility.yul\":3151:3158   */\n      0x00\n        /* \"#utility.yul\":3180:3204   */\n      tag_405\n        /* \"#utility.yul\":3198:3203   */\n      dup3\n        /* \"#utility.yul\":3180:3204   */\n      tag_305\n      jump\t// in\n    tag_405:\n        /* \"#utility.yul\":3169:3204   */\n      swap1\n      pop\n        /* \"#utility.yul\":3114:3210   */\n      swap2\n      swap1\n      pop\n      jump\t// out\n        /* \"#utility.yul\":3216:3338   */\n    tag_307:\n        /* \"#utility.yul\":3289:3313   */\n      tag_407\n        /* \"#utility.yul\":3307:3312   */\n      dup2\n        /* \"#utility.yul\":3289:3313   */\n      tag_306\n      jump\t// in\n    tag_407:\n        /* \"#utility.yul\":3282:3287   */\n      dup2\n        /* \"#utility.yul\":3279:3314   */\n      eq\n        /* \"#utility.yul\":3269:3332   */\n      tag_408\n      jumpi\n        /* \"#utility.yul\":3328:3329   */\n      0x00\n        /* \"#utility.yul\":3325:3326   */\n      dup1\n        /* \"#utility.yul\":3318:3330   */\n      revert\n        /* \"#utility.yul\":3269:3332   */\n    tag_408:\n        /* \"#utility.yul\":3216:3338   */\n      pop\n      jump\t// out\n        /* \"#utility.yul\":3344:3483   */\n    tag_308:\n        /* \"#utility.yul\":3390:3395   */\n      0x00\n        /* \"#utility.yul\":3428:3434   */\n      dup2\n        /* \"#utility.yul\":3415:3435   */\n      calldataload\n        /* \"#utility.yul\":3406:3435   */\n      swap1\n      pop\n        /* \"#utility.yul\":3444:3477   */\n      tag_410\n        /* \"#utility.yul\":3471:3476   */\n      dup2\n        /* \"#utility.yul\":3444:3477   */\n      tag_307\n      jump\t// in\n    tag_410:\n        /* \"#utility.yul\":3344:3483   */\n      swap3\n      swap2\n      pop\n      pop\n      jump\t// out\n        /* \"#utility.yul\":3489:3611   */\n    tag_309:\n        /* \"#utility.yul\":3562:3586   */\n      tag_412\n        /* \"#utility.yul\":3580:3585   */\n      dup2\n        /* \"#utility.yul\":3562:3586   */\n      tag_290\n      jump\t// in\n    tag_412:\n        /* \"#utility.yul\":3555:3560   */\n      dup2\n        /* \"#utility.yul\":3552:3587   */\n      eq\n        /* \"#utility.yul\":3542:3605   */\n      tag_413\n      jumpi\n        /* \"#utility.yul\":3601:3602   */\n      0x00\n        /* \"#utility.yul\":3598:3599   */\n      dup1\n        /* \"#utility.yul\":3591:3603   */\n      revert\n        /* \"#utility.yul\":3542:3605   */\n    tag_413:\n        /* \"#utility.yul\":3489:3611   */\n      pop\n      jump\t// out\n        /* \"#utility.yul\":3617:3756   */\n    tag_310:\n        /* \"#utility.yul\":3663:3668   */\n      0x00\n        /* \"#utility.yul\":3701:3707   */\n      dup2\n        /* \"#utility.yul\":3688:3708   */\n      calldataload\n        /* \"#utility.yul\":3679:3708   */\n      swap1\n      pop\n        /* \"#utility.yul\":3717:3750   */\n      tag_415\n        /* \"#utility.yul\":3744:3749   */\n      dup2\n        /* \"#utility.yul\":3717:3750   */\n      tag_309\n      jump\t// in\n    tag_415:\n        /* \"#utility.yul\":3617:3756   */\n      swap3\n      swap2\n      pop\n      pop\n      jump\t// out\n        /* \"#utility.yul\":3762:4705   */\n    tag_36:\n        /* \"#utility.yul\":3857:3863   */\n      0x00\n        /* \"#utility.yul\":3865:3871   */\n      dup1\n        /* \"#utility.yul\":3873:3879   */\n      0x00\n        /* \"#utility.yul\":3881:3887   */\n      dup1\n        /* \"#utility.yul\":3930:3933   */\n      0x80\n        /* \"#utility.yul\":3918:3927   */\n      dup6\n        /* \"#utility.yul\":3909:3916   */\n      dup8\n        /* \"#utility.yul\":3905:3928   */\n      sub\n        /* \"#utility.yul\":3901:3934   */\n      slt\n        /* \"#utility.yul\":3898:4018   */\n      iszero\n      tag_417\n      jumpi\n        /* \"#utility.yul\":3937:4016   */\n      tag_418\n      tag_293\n      jump\t// in\n    tag_418:\n        /* \"#utility.yul\":3898:4018   */\n    tag_417:\n        /* \"#utility.yul\":4085:4086   */\n      0x00\n        /* \"#utility.yul\":4074:4083   */\n      dup6\n        /* \"#utility.yul\":4070:4087   */\n      add\n        /* \"#utility.yul\":4057:4088   */\n      calldataload\n        /* \"#utility.yul\":4115:4133   */\n      0xffffffffffffffff\n        /* \"#utility.yul\":4107:4113   */\n      dup2\n        /* \"#utility.yul\":4104:4134   */\n      gt\n        /* \"#utility.yul\":4101:4218   */\n      iszero\n      tag_419\n      jumpi\n        /* \"#utility.yul\":4137:4216   */\n      tag_420\n      tag_294\n      jump\t// in\n    tag_420:\n        /* \"#utility.yul\":4101:4218   */\n    tag_419:\n        /* \"#utility.yul\":4242:4304   */\n      tag_421\n        /* \"#utility.yul\":4296:4303   */\n      dup8\n        /* \"#utility.yul\":4287:4293   */\n      dup3\n        /* \"#utility.yul\":4276:4285   */\n      dup9\n        /* \"#utility.yul\":4272:4294   */\n      add\n        /* \"#utility.yul\":4242:4304   */\n      tag_304\n      jump\t// in\n    tag_421:\n        /* \"#utility.yul\":4232:4304   */\n      swap5\n      pop\n        /* \"#utility.yul\":4028:4314   */\n      pop\n        /* \"#utility.yul\":4353:4355   */\n      0x20\n        /* \"#utility.yul\":4379:4432   */\n      tag_422\n        /* \"#utility.yul\":4424:4431   */\n      dup8\n        /* \"#utility.yul\":4415:4421   */\n      dup3\n        /* \"#utility.yul\":4404:4413   */\n      dup9\n        /* \"#utility.yul\":4400:4422   */\n      add\n        /* \"#utility.yul\":4379:4432   */\n      tag_308\n      jump\t// in\n    tag_422:\n        /* \"#utility.yul\":4369:4432   */\n      swap4\n      pop\n        /* \"#utility.yul\":4324:4442   */\n      pop\n        /* \"#utility.yul\":4481:4483   */\n      0x40\n        /* \"#utility.yul\":4507:4560   */\n      tag_423\n        /* \"#utility.yul\":4552:4559   */\n      dup8\n        /* \"#utility.yul\":4543:4549   */\n      dup3\n        /* \"#utility.yul\":4532:4541   */\n      dup9\n        /* \"#utility.yul\":4528:4550   */\n      add\n        /* \"#utility.yul\":4507:4560   */\n      tag_310\n      jump\t// in\n    tag_423:\n        /* \"#utility.yul\":4497:4560   */\n      swap3\n      pop\n        /* \"#utility.yul\":4452:4570   */\n      pop\n        /* \"#utility.yul\":4609:4611   */\n      0x60\n        /* \"#utility.yul\":4635:4688   */\n      tag_424\n        /* \"#utility.yul\":4680:4687   */\n      dup8\n        /* \"#utility.yul\":4671:4677   */\n      dup3\n        /* \"#utility.yul\":4660:4669   */\n      dup9\n        /* \"#utility.yul\":4656:4678   */\n      add\n        /* \"#utility.yul\":4635:4688   */\n      tag_310\n      jump\t// in\n    tag_424:\n        /* \"#utility.yul\":4625:4688   */\n      swap2\n      pop\n        /* \"#utility.yul\":4580:4698   */\n      pop\n        /* \"#utility.yul\":3762:4705   */\n      swap3\n      swap6\n      swap2\n      swap5\n      pop\n      swap3\n      pop\n      jump\t// out\n        /* \"#utility.yul\":4711:4810   */\n    tag_311:\n        /* \"#utility.yul\":4763:4769   */\n      0x00\n        /* \"#utility.yul\":4797:4802   */\n      dup2\n        /* \"#utility.yul\":4791:4803   */\n      mload\n        /* \"#utility.yul\":4781:4803   */\n      swap1\n      pop\n        /* \"#utility.yul\":4711:4810   */\n      swap2\n      swap1\n      pop\n      jump\t// out\n        /* \"#utility.yul\":4816:4985   */\n    tag_312:\n        /* \"#utility.yul\":4900:4911   */\n      0x00\n        /* \"#utility.yul\":4934:4940   */\n      dup3\n        /* \"#utility.yul\":4929:4932   */\n      dup3\n        /* \"#utility.yul\":4922:4941   */\n      mstore\n        /* \"#utility.yul\":4974:4978   */\n      0x20\n        /* \"#utility.yul\":4969:4972   */\n      dup3\n        /* \"#utility.yul\":4965:4979   */\n      add\n        /* \"#utility.yul\":4950:4979   */\n      swap1\n      pop\n        /* \"#utility.yul\":4816:4985   */\n      swap3\n      swap2\n      pop\n      pop\n      jump\t// out\n        /* \"#utility.yul\":4991:5237   */\n    tag_313:\n        /* \"#utility.yul\":5072:5073   */\n      0x00\n        /* \"#utility.yul\":5082:5195   */\n    tag_428:\n        /* \"#utility.yul\":5096:5102   */\n      dup4\n        /* \"#utility.yul\":5093:5094   */\n      dup2\n        /* \"#utility.yul\":5090:5103   */\n      lt\n        /* \"#utility.yul\":5082:5195   */\n      iszero\n      tag_430\n      jumpi\n        /* \"#utility.yul\":5181:5182   */\n      dup1\n        /* \"#utility.yul\":5176:5179   */\n      dup3\n        /* \"#utility.yul\":5172:5183   */\n      add\n        /* \"#utility.yul\":5166:5184   */\n      mload\n        /* \"#utility.yul\":5162:5163   */\n      dup2\n        /* \"#utility.yul\":5157:5160   */\n      dup5\n        /* \"#utility.yul\":5153:5164   */\n      add\n        /* \"#utility.yul\":5146:5185   */\n      mstore\n        /* \"#utility.yul\":5118:5120   */\n      0x20\n        /* \"#utility.yul\":5115:5116   */\n      dup2\n        /* \"#utility.yul\":5111:5121   */\n      add\n        /* \"#utility.yul\":5106:5121   */\n      swap1\n      pop\n        /* \"#utility.yul\":5082:5195   */\n      jump(tag_428)\n    tag_430:\n        /* \"#utility.yul\":5229:5230   */\n      0x00\n        /* \"#utility.yul\":5220:5226   */\n      dup5\n        /* \"#utility.yul\":5215:5218   */\n      dup5\n        /* \"#utility.yul\":5211:5227   */\n      add\n        /* \"#utility.yul\":5204:5231   */\n      mstore\n        /* \"#utility.yul\":5053:5237   */\n      pop\n        /* \"#utility.yul\":4991:5237   */\n      pop\n      pop\n      pop\n      jump\t// out\n        /* \"#utility.yul\":5243:5620   */\n    tag_314:\n        /* \"#utility.yul\":5331:5334   */\n      0x00\n        /* \"#utility.yul\":5359:5398   */\n      tag_432\n        /* \"#utility.yul\":5392:5397   */\n      dup3\n        /* \"#utility.yul\":5359:5398   */\n      tag_311\n      jump\t// in\n    tag_432:\n        /* \"#utility.yul\":5414:5485   */\n      tag_433\n        /* \"#utility.yul\":5478:5484   */\n      dup2\n        /* \"#utility.yul\":5473:5476   */\n      dup6\n        /* \"#utility.yul\":5414:5485   */\n      tag_312\n      jump\t// in\n    tag_433:\n        /* \"#utility.yul\":5407:5485   */\n      swap4\n      pop\n        /* \"#utility.yul\":5494:5559   */\n      tag_434\n        /* \"#utility.yul\":5552:5558   */\n      dup2\n        /* \"#utility.yul\":5547:5550   */\n      dup6\n        /* \"#utility.yul\":5540:5544   */\n      0x20\n        /* \"#utility.yul\":5533:5538   */\n      dup7\n        /* \"#utility.yul\":5529:5545   */\n      add\n        /* \"#utility.yul\":5494:5559   */\n      tag_313\n      jump\t// in\n    tag_434:\n        /* \"#utility.yul\":5584:5613   */\n      tag_435\n        /* \"#utility.yul\":5606:5612   */\n      dup2\n        /* \"#utility.yul\":5584:5613   */\n      tag_297\n      jump\t// in\n    tag_435:\n        /* \"#utility.yul\":5579:5582   */\n      dup5\n        /* \"#utility.yul\":5575:5614   */\n      add\n        /* \"#utility.yul\":5568:5614   */\n      swap2\n      pop\n        /* \"#utility.yul\":5335:5620   */\n      pop\n        /* \"#utility.yul\":5243:5620   */\n      swap3\n      swap2\n      pop\n      pop\n      jump\t// out\n        /* \"#utility.yul\":5626:5939   */\n    tag_41:\n        /* \"#utility.yul\":5739:5743   */\n      0x00\n        /* \"#utility.yul\":5777:5779   */\n      0x20\n        /* \"#utility.yul\":5766:5775   */\n      dup3\n        /* \"#utility.yul\":5762:5780   */\n      add\n        /* \"#utility.yul\":5754:5780   */\n      swap1\n      pop\n        /* \"#utility.yul\":5826:5835   */\n      dup2\n        /* \"#utility.yul\":5820:5824   */\n      dup2\n        /* \"#utility.yul\":5816:5836   */\n      sub\n        /* \"#utility.yul\":5812:5813   */\n      0x00\n        /* \"#utility.yul\":5801:5810   */\n      dup4\n        /* \"#utility.yul\":5797:5814   */\n      add\n        /* \"#utility.yul\":5790:5837   */\n      mstore\n        /* \"#utility.yul\":5854:5932   */\n      tag_437\n        /* \"#utility.yul\":5927:5931   */\n      dup2\n        /* \"#utility.yul\":5918:5924   */\n      dup5\n        /* \"#utility.yul\":5854:5932   */\n      tag_314\n      jump\t// in\n    tag_437:\n        /* \"#utility.yul\":5846:5932   */\n      swap1\n      pop\n        /* \"#utility.yul\":5626:5939   */\n      swap3\n      swap2\n      pop\n      pop\n      jump\t// out\n        /* \"#utility.yul\":5945:6274   */\n    tag_44:\n        /* \"#utility.yul\":6004:6010   */\n      0x00\n        /* \"#utility.yul\":6053:6055   */\n      0x20\n        /* \"#utility.yul\":6041:6050   */\n      dup3\n        /* \"#utility.yul\":6032:6039   */\n      dup5\n        /* \"#utility.yul\":6028:6051   */\n      sub\n        /* \"#utility.yul\":6024:6056   */\n      slt\n        /* \"#utility.yul\":6021:6140   */\n      iszero\n      tag_439\n      jumpi\n        /* \"#utility.yul\":6059:6138   */\n      tag_440\n      tag_293\n      jump\t// in\n    tag_440:\n        /* \"#utility.yul\":6021:6140   */\n    tag_439:\n        /* \"#utility.yul\":6179:6180   */\n      0x00\n        /* \"#utility.yul\":6204:6257   */\n      tag_441\n        /* \"#utility.yul\":6249:6256   */\n      dup5\n        /* \"#utility.yul\":6240:6246   */\n      dup3\n        /* \"#utility.yul\":6229:6238   */\n      dup6\n        /* \"#utility.yul\":6225:6247   */\n      add\n        /* \"#utility.yul\":6204:6257   */\n      tag_310\n      jump\t// in\n    tag_441:\n        /* \"#utility.yul\":6194:6257   */\n      swap2\n      pop\n        /* \"#utility.yul\":6150:6267   */\n      pop\n        /* \"#utility.yul\":5945:6274   */\n      swap3\n      swap2\n      pop\n      pop\n      jump\t// out\n        /* \"#utility.yul\":6280:6754   */\n    tag_49:\n        /* \"#utility.yul\":6348:6354   */\n      0x00\n        /* \"#utility.yul\":6356:6362   */\n      dup1\n        /* \"#utility.yul\":6405:6407   */\n      0x40\n        /* \"#utility.yul\":6393:6402   */\n      dup4\n        /* \"#utility.yul\":6384:6391   */\n      dup6\n        /* \"#utility.yul\":6380:6403   */\n      sub\n        /* \"#utility.yul\":6376:6408   */\n      slt\n        /* \"#utility.yul\":6373:6492   */\n      iszero\n      tag_443\n      jumpi\n        /* \"#utility.yul\":6411:6490   */\n      tag_444\n      tag_293\n      jump\t// in\n    tag_444:\n        /* \"#utility.yul\":6373:6492   */\n    tag_443:\n        /* \"#utility.yul\":6531:6532   */\n      0x00\n        /* \"#utility.yul\":6556:6609   */\n      tag_445\n        /* \"#utility.yul\":6601:6608   */\n      dup6\n        /* \"#utility.yul\":6592:6598   */\n      dup3\n        /* \"#utility.yul\":6581:6590   */\n      dup7\n        /* \"#utility.yul\":6577:6599   */\n      add\n        /* \"#utility.yul\":6556:6609   */\n      tag_308\n      jump\t// in\n    tag_445:\n        /* \"#utility.yul\":6546:6609   */\n      swap3\n      pop\n        /* \"#utility.yul\":6502:6619   */\n      pop\n        /* \"#utility.yul\":6658:6660   */\n      0x20\n        /* \"#utility.yul\":6684:6737   */\n      tag_446\n        /* \"#utility.yul\":6729:6736   */\n      dup6\n        /* \"#utility.yul\":6720:6726   */\n      dup3\n        /* \"#utility.yul\":6709:6718   */\n      dup7\n        /* \"#utility.yul\":6705:6727   */\n      add\n        /* \"#utility.yul\":6684:6737   */\n      tag_308\n      jump\t// in\n    tag_446:\n        /* \"#utility.yul\":6674:6737   */\n      swap2\n      pop\n        /* \"#utility.yul\":6629:6747   */\n      pop\n        /* \"#utility.yul\":6280:6754   */\n      swap3\n      pop\n      swap3\n      swap1\n      pop\n      jump\t// out\n        /* \"#utility.yul\":6760:6850   */\n    tag_315:\n        /* \"#utility.yul\":6794:6801   */\n      0x00\n        /* \"#utility.yul\":6837:6842   */\n      dup2\n        /* \"#utility.yul\":6830:6843   */\n      iszero\n        /* \"#utility.yul\":6823:6844   */\n      iszero\n        /* \"#utility.yul\":6812:6844   */\n      swap1\n      pop\n        /* \"#utility.yul\":6760:6850   */\n      swap2\n      swap1\n      pop\n      jump\t// out\n        /* \"#utility.yul\":6856:6965   */\n    tag_316:\n        /* \"#utility.yul\":6937:6958   */\n      tag_449\n        /* \"#utility.yul\":6952:6957   */\n      dup2\n        /* \"#utility.yul\":6937:6958   */\n      tag_315\n      jump\t// in\n    tag_449:\n        /* \"#utility.yul\":6932:6935   */\n      dup3\n        /* \"#utility.yul\":6925:6959   */\n      mstore\n        /* \"#utility.yul\":6856:6965   */\n      pop\n      pop\n      jump\t// out\n        /* \"#utility.yul\":6971:7181   */\n    tag_60:\n        /* \"#utility.yul\":7058:7062   */\n      0x00\n        /* \"#utility.yul\":7096:7098   */\n      0x20\n        /* \"#utility.yul\":7085:7094   */\n      dup3\n        /* \"#utility.yul\":7081:7099   */\n      add\n        /* \"#utility.yul\":7073:7099   */\n      swap1\n      pop\n        /* \"#utility.yul\":7109:7174   */\n      tag_451\n        /* \"#utility.yul\":7171:7172   */\n      0x00\n        /* \"#utility.yul\":7160:7169   */\n      dup4\n        /* \"#utility.yul\":7156:7173   */\n      add\n        /* \"#utility.yul\":7147:7153   */\n      dup5\n        /* \"#utility.yul\":7109:7174   */\n      tag_316\n      jump\t// in\n    tag_451:\n        /* \"#utility.yul\":6971:7181   */\n      swap3\n      swap2\n      pop\n      pop\n      jump\t// out\n        /* \"#utility.yul\":7187:7303   */\n    tag_317:\n        /* \"#utility.yul\":7257:7278   */\n      tag_453\n        /* \"#utility.yul\":7272:7277   */\n      dup2\n        /* \"#utility.yul\":7257:7278   */\n      tag_315\n      jump\t// in\n    tag_453:\n        /* \"#utility.yul\":7250:7255   */\n      dup2\n        /* \"#utility.yul\":7247:7279   */\n      eq\n        /* \"#utility.yul\":7237:7297   */\n      tag_454\n      jumpi\n        /* \"#utility.yul\":7293:7294   */\n      0x00\n        /* \"#utility.yul\":7290:7291   */\n      dup1\n        /* \"#utility.yul\":7283:7295   */\n      revert\n        /* \"#utility.yul\":7237:7297   */\n    tag_454:\n        /* \"#utility.yul\":7187:7303   */\n      pop\n      jump\t// out\n        /* \"#utility.yul\":7309:7442   */\n    tag_318:\n        /* \"#utility.yul\":7352:7357   */\n      0x00\n        /* \"#utility.yul\":7390:7396   */\n      dup2\n        /* \"#utility.yul\":7377:7397   */\n      calldataload\n        /* \"#utility.yul\":7368:7397   */\n      swap1\n      pop\n        /* \"#utility.yul\":7406:7436   */\n      tag_456\n        /* \"#utility.yul\":7430:7435   */\n      dup2\n        /* \"#utility.yul\":7406:7436   */\n      tag_317\n      jump\t// in\n    tag_456:\n        /* \"#utility.yul\":7309:7442   */\n      swap3\n      swap2\n      pop\n      pop\n      jump\t// out\n        /* \"#utility.yul\":7448:7771   */\n    tag_66:\n        /* \"#utility.yul\":7504:7510   */\n      0x00\n        /* \"#utility.yul\":7553:7555   */\n      0x20\n        /* \"#utility.yul\":7541:7550   */\n      dup3\n        /* \"#utility.yul\":7532:7539   */\n      dup5\n        /* \"#utility.yul\":7528:7551   */\n      sub\n        /* \"#utility.yul\":7524:7556   */\n      slt\n        /* \"#utility.yul\":7521:7640   */\n      iszero\n      tag_458\n      jumpi\n        /* \"#utility.yul\":7559:7638   */\n      tag_459\n      tag_293\n      jump\t// in\n    tag_459:\n        /* \"#utility.yul\":7521:7640   */\n    tag_458:\n        /* \"#utility.yul\":7679:7680   */\n      0x00\n        /* \"#utility.yul\":7704:7754   */\n      tag_460\n        /* \"#utility.yul\":7746:7753   */\n      dup5\n        /* \"#utility.yul\":7737:7743   */\n      dup3\n        /* \"#utility.yul\":7726:7735   */\n      dup6\n        /* \"#utility.yul\":7722:7744   */\n      add\n        /* \"#utility.yul\":7704:7754   */\n      tag_318\n      jump\t// in\n    tag_460:\n        /* \"#utility.yul\":7694:7754   */\n      swap2\n      pop\n        /* \"#utility.yul\":7650:7764   */\n      pop\n        /* \"#utility.yul\":7448:7771   */\n      swap3\n      swap2\n      pop\n      pop\n      jump\t// out\n        /* \"#utility.yul\":7777:7895   */\n    tag_319:\n        /* \"#utility.yul\":7864:7888   */\n      tag_462\n        /* \"#utility.yul\":7882:7887   */\n      dup2\n        /* \"#utility.yul\":7864:7888   */\n      tag_306\n      jump\t// in\n    tag_462:\n        /* \"#utility.yul\":7859:7862   */\n      dup3\n        /* \"#utility.yul\":7852:7889   */\n      mstore\n        /* \"#utility.yul\":7777:7895   */\n      pop\n      pop\n      jump\t// out\n        /* \"#utility.yul\":7901:8123   */\n    tag_79:\n        /* \"#utility.yul\":7994:7998   */\n      0x00\n        /* \"#utility.yul\":8032:8034   */\n      0x20\n        /* \"#utility.yul\":8021:8030   */\n      dup3\n        /* \"#utility.yul\":8017:8035   */\n      add\n        /* \"#utility.yul\":8009:8035   */\n      swap1\n      pop\n        /* \"#utility.yul\":8045:8116   */\n      tag_464\n        /* \"#utility.yul\":8113:8114   */\n      0x00\n        /* \"#utility.yul\":8102:8111   */\n      dup4\n        /* \"#utility.yul\":8098:8115   */\n      add\n        /* \"#utility.yul\":8089:8095   */\n      dup5\n        /* \"#utility.yul\":8045:8116   */\n      tag_319\n      jump\t// in\n    tag_464:\n        /* \"#utility.yul\":7901:8123   */\n      swap3\n      swap2\n      pop\n      pop\n      jump\t// out\n        /* \"#utility.yul\":8129:8458   */\n    tag_82:\n        /* \"#utility.yul\":8188:8194   */\n      0x00\n        /* \"#utility.yul\":8237:8239   */\n      0x20\n        /* \"#utility.yul\":8225:8234   */\n      dup3\n        /* \"#utility.yul\":8216:8223   */\n      dup5\n        /* \"#utility.yul\":8212:8235   */\n      sub\n        /* \"#utility.yul\":8208:8240   */\n      slt\n        /* \"#utility.yul\":8205:8324   */\n      iszero\n      tag_466\n      jumpi\n        /* \"#utility.yul\":8243:8322   */\n      tag_467\n      tag_293\n      jump\t// in\n    tag_467:\n        /* \"#utility.yul\":8205:8324   */\n    tag_466:\n        /* \"#utility.yul\":8363:8364   */\n      0x00\n        /* \"#utility.yul\":8388:8441   */\n      tag_468\n        /* \"#utility.yul\":8433:8440   */\n      dup5\n        /* \"#utility.yul\":8424:8430   */\n      dup3\n        /* \"#utility.yul\":8413:8422   */\n      dup6\n        /* \"#utility.yul\":8409:8431   */\n      add\n        /* \"#utility.yul\":8388:8441   */\n      tag_308\n      jump\t// in\n    tag_468:\n        /* \"#utility.yul\":8378:8441   */\n      swap2\n      pop\n        /* \"#utility.yul\":8334:8451   */\n      pop\n        /* \"#utility.yul\":8129:8458   */\n      swap3\n      swap2\n      pop\n      pop\n      jump\t// out\n        /* \"#utility.yul\":8464:9083   */\n    tag_104:\n        /* \"#utility.yul\":8541:8547   */\n      0x00\n        /* \"#utility.yul\":8549:8555   */\n      dup1\n        /* \"#utility.yul\":8557:8563   */\n      0x00\n        /* \"#utility.yul\":8606:8608   */\n      0x60\n        /* \"#utility.yul\":8594:8603   */\n      dup5\n        /* \"#utility.yul\":8585:8592   */\n      dup7\n        /* \"#utility.yul\":8581:8604   */\n      sub\n        /* \"#utility.yul\":8577:8609   */\n      slt\n        /* \"#utility.yul\":8574:8693   */\n      iszero\n      tag_470\n      jumpi\n        /* \"#utility.yul\":8612:8691   */\n      tag_471\n      tag_293\n      jump\t// in\n    tag_471:\n        /* \"#utility.yul\":8574:8693   */\n    tag_470:\n        /* \"#utility.yul\":8732:8733   */\n      0x00\n        /* \"#utility.yul\":8757:8810   */\n      tag_472\n        /* \"#utility.yul\":8802:8809   */\n      dup7\n        /* \"#utility.yul\":8793:8799   */\n      dup3\n        /* \"#utility.yul\":8782:8791   */\n      dup8\n        /* \"#utility.yul\":8778:8800   */\n      add\n        /* \"#utility.yul\":8757:8810   */\n      tag_308\n      jump\t// in\n    tag_472:\n        /* \"#utility.yul\":8747:8810   */\n      swap4\n      pop\n        /* \"#utility.yul\":8703:8820   */\n      pop\n        /* \"#utility.yul\":8859:8861   */\n      0x20\n        /* \"#utility.yul\":8885:8938   */\n      tag_473\n        /* \"#utility.yul\":8930:8937   */\n      dup7\n        /* \"#utility.yul\":8921:8927   */\n      dup3\n        /* \"#utility.yul\":8910:8919   */\n      dup8\n        /* \"#utility.yul\":8906:8928   */\n      add\n        /* \"#utility.yul\":8885:8938   */\n      tag_308\n      jump\t// in\n    tag_473:\n        /* \"#utility.yul\":8875:8938   */\n      swap3\n      pop\n        /* \"#utility.yul\":8830:8948   */\n      pop\n        /* \"#utility.yul\":8987:8989   */\n      0x40\n        /* \"#utility.yul\":9013:9066   */\n      tag_474\n        /* \"#utility.yul\":9058:9065   */\n      dup7\n        /* \"#utility.yul\":9049:9055   */\n      dup3\n        /* \"#utility.yul\":9038:9047   */\n      dup8\n        /* \"#utility.yul\":9034:9056   */\n      add\n        /* \"#utility.yul\":9013:9066   */\n      tag_310\n      jump\t// in\n    tag_474:\n        /* \"#utility.yul\":9003:9066   */\n      swap2\n      pop\n        /* \"#utility.yul\":8958:9076   */\n      pop\n        /* \"#utility.yul\":8464:9083   */\n      swap3\n      pop\n      swap3\n      pop\n      swap3\n      jump\t// out\n        /* \"#utility.yul\":9089:9310   */\n    tag_320:\n        /* \"#utility.yul\":9229:9263   */\n      0x706f696e747320746f2073776170206c657373207468616e206d696e706f696e\n        /* \"#utility.yul\":9225:9226   */\n      0x00\n        /* \"#utility.yul\":9217:9223   */\n      dup3\n        /* \"#utility.yul\":9213:9227   */\n      add\n        /* \"#utility.yul\":9206:9264   */\n      mstore\n        /* \"#utility.yul\":9298:9302   */\n      0x7473000000000000000000000000000000000000000000000000000000000000\n        /* \"#utility.yul\":9293:9295   */\n      0x20\n        /* \"#utility.yul\":9285:9291   */\n      dup3\n        /* \"#utility.yul\":9281:9296   */\n      add\n        /* \"#utility.yul\":9274:9303   */\n      mstore\n        /* \"#utility.yul\":9089:9310   */\n      pop\n      jump\t// out\n        /* \"#utility.yul\":9316:9682   */\n    tag_321:\n        /* \"#utility.yul\":9458:9461   */\n      0x00\n        /* \"#utility.yul\":9479:9546   */\n      tag_477\n        /* \"#utility.yul\":9543:9545   */\n      0x22\n        /* \"#utility.yul\":9538:9541   */\n      dup4\n        /* \"#utility.yul\":9479:9546   */\n      tag_312\n      jump\t// in\n    tag_477:\n        /* \"#utility.yul\":9472:9546   */\n      swap2\n      pop\n        /* \"#utility.yul\":9555:9648   */\n      tag_478\n        /* \"#utility.yul\":9644:9647   */\n      dup3\n        /* \"#utility.yul\":9555:9648   */\n      tag_320\n      jump\t// in\n    tag_478:\n        /* \"#utility.yul\":9673:9675   */\n      0x40\n        /* \"#utility.yul\":9668:9671   */\n      dup3\n        /* \"#utility.yul\":9664:9676   */\n      add\n        /* \"#utility.yul\":9657:9676   */\n      swap1\n      pop\n        /* \"#utility.yul\":9316:9682   */\n      swap2\n      swap1\n      pop\n      jump\t// out\n        /* \"#utility.yul\":9688:10107   */\n    tag_117:\n        /* \"#utility.yul\":9854:9858   */\n      0x00\n        /* \"#utility.yul\":9892:9894   */\n      0x20\n        /* \"#utility.yul\":9881:9890   */\n      dup3\n        /* \"#utility.yul\":9877:9895   */\n      add\n        /* \"#utility.yul\":9869:9895   */\n      swap1\n      pop\n        /* \"#utility.yul\":9941:9950   */\n      dup2\n        /* \"#utility.yul\":9935:9939   */\n      dup2\n        /* \"#utility.yul\":9931:9951   */\n      sub\n        /* \"#utility.yul\":9927:9928   */\n      0x00\n        /* \"#utility.yul\":9916:9925   */\n      dup4\n        /* \"#utility.yul\":9912:9929   */\n      add\n        /* \"#utility.yul\":9905:9952   */\n      mstore\n        /* \"#utility.yul\":9969:10100   */\n      tag_480\n        /* \"#utility.yul\":10095:10099   */\n      dup2\n        /* \"#utility.yul\":9969:10100   */\n      tag_321\n      jump\t// in\n    tag_480:\n        /* \"#utility.yul\":9961:10100   */\n      swap1\n      pop\n        /* \"#utility.yul\":9688:10107   */\n      swap2\n      swap1\n      pop\n      jump\t// out\n        /* \"#utility.yul\":10113:10445   */\n    tag_119:\n        /* \"#utility.yul\":10234:10238   */\n      0x00\n        /* \"#utility.yul\":10272:10274   */\n      0x40\n        /* \"#utility.yul\":10261:10270   */\n      dup3\n        /* \"#utility.yul\":10257:10275   */\n      add\n        /* \"#utility.yul\":10249:10275   */\n      swap1\n      pop\n        /* \"#utility.yul\":10285:10356   */\n      tag_482\n        /* \"#utility.yul\":10353:10354   */\n      0x00\n        /* \"#utility.yul\":10342:10351   */\n      dup4\n        /* \"#utility.yul\":10338:10355   */\n      add\n        /* \"#utility.yul\":10329:10335   */\n      dup6\n        /* \"#utility.yul\":10285:10356   */\n      tag_319\n      jump\t// in\n    tag_482:\n        /* \"#utility.yul\":10366:10438   */\n      tag_483\n        /* \"#utility.yul\":10434:10436   */\n      0x20\n        /* \"#utility.yul\":10423:10432   */\n      dup4\n        /* \"#utility.yul\":10419:10437   */\n      add\n        /* \"#utility.yul\":10410:10416   */\n      dup5\n        /* \"#utility.yul\":10366:10438   */\n      tag_291\n      jump\t// in\n    tag_483:\n        /* \"#utility.yul\":10113:10445   */\n      swap4\n      swap3\n      pop\n      pop\n      pop\n      jump\t// out\n        /* \"#utility.yul\":10451:10588   */\n    tag_322:\n        /* \"#utility.yul\":10505:10510   */\n      0x00\n        /* \"#utility.yul\":10536:10542   */\n      dup2\n        /* \"#utility.yul\":10530:10543   */\n      mload\n        /* \"#utility.yul\":10521:10543   */\n      swap1\n      pop\n        /* \"#utility.yul\":10552:10582   */\n      tag_485\n        /* \"#utility.yul\":10576:10581   */\n      dup2\n        /* \"#utility.yul\":10552:10582   */\n      tag_317\n      jump\t// in\n    tag_485:\n        /* \"#utility.yul\":10451:10588   */\n      swap3\n      swap2\n      pop\n      pop\n      jump\t// out\n        /* \"#utility.yul\":10594:10939   */\n    tag_123:\n        /* \"#utility.yul\":10661:10667   */\n      0x00\n        /* \"#utility.yul\":10710:10712   */\n      0x20\n        /* \"#utility.yul\":10698:10707   */\n      dup3\n        /* \"#utility.yul\":10689:10696   */\n      dup5\n        /* \"#utility.yul\":10685:10708   */\n      sub\n        /* \"#utility.yul\":10681:10713   */\n      slt\n        /* \"#utility.yul\":10678:10797   */\n      iszero\n      tag_487\n      jumpi\n        /* \"#utility.yul\":10716:10795   */\n      tag_488\n      tag_293\n      jump\t// in\n    tag_488:\n        /* \"#utility.yul\":10678:10797   */\n    tag_487:\n        /* \"#utility.yul\":10836:10837   */\n      0x00\n        /* \"#utility.yul\":10861:10922   */\n      tag_489\n        /* \"#utility.yul\":10914:10921   */\n      dup5\n        /* \"#utility.yul\":10905:10911   */\n      dup3\n        /* \"#utility.yul\":10894:10903   */\n      dup6\n        /* \"#utility.yul\":10890:10912   */\n      add\n        /* \"#utility.yul\":10861:10922   */\n      tag_322\n      jump\t// in\n    tag_489:\n        /* \"#utility.yul\":10851:10922   */\n      swap2\n      pop\n        /* \"#utility.yul\":10807:10932   */\n      pop\n        /* \"#utility.yul\":10594:10939   */\n      swap3\n      swap2\n      pop\n      pop\n      jump\t// out\n        /* \"#utility.yul\":10945:11125   */\n    tag_323:\n        /* \"#utility.yul\":10993:11070   */\n      0x4e487b7100000000000000000000000000000000000000000000000000000000\n        /* \"#utility.yul\":10990:10991   */\n      0x00\n        /* \"#utility.yul\":10983:11071   */\n      mstore\n        /* \"#utility.yul\":11090:11094   */\n      0x22\n        /* \"#utility.yul\":11087:11088   */\n      0x04\n        /* \"#utility.yul\":11080:11095   */\n      mstore\n        /* \"#utility.yul\":11114:11118   */\n      0x24\n        /* \"#utility.yul\":11111:11112   */\n      0x00\n        /* \"#utility.yul\":11104:11119   */\n      revert\n        /* \"#utility.yul\":11131:11451   */\n    tag_126:\n        /* \"#utility.yul\":11175:11181   */\n      0x00\n        /* \"#utility.yul\":11212:11213   */\n      0x02\n        /* \"#utility.yul\":11206:11210   */\n      dup3\n        /* \"#utility.yul\":11202:11214   */\n      div\n        /* \"#utility.yul\":11192:11214   */\n      swap1\n      pop\n        /* \"#utility.yul\":11259:11260   */\n      0x01\n        /* \"#utility.yul\":11253:11257   */\n      dup3\n        /* \"#utility.yul\":11249:11261   */\n      and\n        /* \"#utility.yul\":11280:11298   */\n      dup1\n        /* \"#utility.yul\":11270:11351   */\n      tag_492\n      jumpi\n        /* \"#utility.yul\":11336:11340   */\n      0x7f\n        /* \"#utility.yul\":11328:11334   */\n      dup3\n        /* \"#utility.yul\":11324:11341   */\n      and\n        /* \"#utility.yul\":11314:11341   */\n      swap2\n      pop\n        /* \"#utility.yul\":11270:11351   */\n    tag_492:\n        /* \"#utility.yul\":11398:11400   */\n      0x20\n        /* \"#utility.yul\":11390:11396   */\n      dup3\n        /* \"#utility.yul\":11387:11401   */\n      lt\n        /* \"#utility.yul\":11367:11385   */\n      dup2\n        /* \"#utility.yul\":11364:11402   */\n      sub\n        /* \"#utility.yul\":11361:11445   */\n      tag_493\n      jumpi\n        /* \"#utility.yul\":11417:11435   */\n      tag_494\n      tag_323\n      jump\t// in\n    tag_494:\n        /* \"#utility.yul\":11361:11445   */\n    tag_493:\n        /* \"#utility.yul\":11182:11451   */\n      pop\n        /* \"#utility.yul\":11131:11451   */\n      swap2\n      swap1\n      pop\n      jump\t// out\n        /* \"#utility.yul\":11457:11637   */\n    tag_324:\n        /* \"#utility.yul\":11505:11582   */\n      0x4e487b7100000000000000000000000000000000000000000000000000000000\n        /* \"#utility.yul\":11502:11503   */\n      0x00\n        /* \"#utility.yul\":11495:11583   */\n      mstore\n        /* \"#utility.yul\":11602:11606   */\n      0x11\n        /* \"#utility.yul\":11599:11600   */\n      0x04\n        /* \"#utility.yul\":11592:11607   */\n      mstore\n        /* \"#utility.yul\":11626:11630   */\n      0x24\n        /* \"#utility.yul\":11623:11624   */\n      0x00\n        /* \"#utility.yul\":11616:11631   */\n      revert\n        /* \"#utility.yul\":11643:12053   */\n    tag_133:\n        /* \"#utility.yul\":11683:11690   */\n      0x00\n        /* \"#utility.yul\":11706:11726   */\n      tag_497\n        /* \"#utility.yul\":11724:11725   */\n      dup3\n        /* \"#utility.yul\":11706:11726   */\n      tag_290\n      jump\t// in\n    tag_497:\n        /* \"#utility.yul\":11701:11726   */\n      swap2\n      pop\n        /* \"#utility.yul\":11740:11760   */\n      tag_498\n        /* \"#utility.yul\":11758:11759   */\n      dup4\n        /* \"#utility.yul\":11740:11760   */\n      tag_290\n      jump\t// in\n    tag_498:\n        /* \"#utility.yul\":11735:11760   */\n      swap3\n      pop\n        /* \"#utility.yul\":11795:11796   */\n      dup3\n        /* \"#utility.yul\":11792:11793   */\n      dup3\n        /* \"#utility.yul\":11788:11797   */\n      mul\n        /* \"#utility.yul\":11817:11847   */\n      tag_499\n        /* \"#utility.yul\":11835:11846   */\n      dup2\n        /* \"#utility.yul\":11817:11847   */\n      tag_290\n      jump\t// in\n    tag_499:\n        /* \"#utility.yul\":11806:11847   */\n      swap2\n      pop\n        /* \"#utility.yul\":11996:11997   */\n      dup3\n        /* \"#utility.yul\":11987:11994   */\n      dup3\n        /* \"#utility.yul\":11983:11998   */\n      div\n        /* \"#utility.yul\":11980:11981   */\n      dup5\n        /* \"#utility.yul\":11977:11999   */\n      eq\n        /* \"#utility.yul\":11957:11958   */\n      dup4\n        /* \"#utility.yul\":11950:11959   */\n      iszero\n        /* \"#utility.yul\":11930:12013   */\n      or\n        /* \"#utility.yul\":11907:12046   */\n      tag_500\n      jumpi\n        /* \"#utility.yul\":12026:12044   */\n      tag_501\n      tag_324\n      jump\t// in\n    tag_501:\n        /* \"#utility.yul\":11907:12046   */\n    tag_500:\n        /* \"#utility.yul\":11691:12053   */\n      pop\n        /* \"#utility.yul\":11643:12053   */\n      swap3\n      swap2\n      pop\n      pop\n      jump\t// out\n        /* \"#utility.yul\":12059:12145   */\n    tag_325:\n        /* \"#utility.yul\":12094:12101   */\n      0x00\n        /* \"#utility.yul\":12134:12138   */\n      0xff\n        /* \"#utility.yul\":12127:12132   */\n      dup3\n        /* \"#utility.yul\":12123:12139   */\n      and\n        /* \"#utility.yul\":12112:12139   */\n      swap1\n      pop\n        /* \"#utility.yul\":12059:12145   */\n      swap2\n      swap1\n      pop\n      jump\t// out\n        /* \"#utility.yul\":12151:12269   */\n    tag_326:\n        /* \"#utility.yul\":12222:12244   */\n      tag_504\n        /* \"#utility.yul\":12238:12243   */\n      dup2\n        /* \"#utility.yul\":12222:12244   */\n      tag_325\n      jump\t// in\n    tag_504:\n        /* \"#utility.yul\":12215:12220   */\n      dup2\n        /* \"#utility.yul\":12212:12245   */\n      eq\n        /* \"#utility.yul\":12202:12263   */\n      tag_505\n      jumpi\n        /* \"#utility.yul\":12259:12260   */\n      0x00\n        /* \"#utility.yul\":12256:12257   */\n      dup1\n        /* \"#utility.yul\":12249:12261   */\n      revert\n        /* \"#utility.yul\":12202:12263   */\n    tag_505:\n        /* \"#utility.yul\":12151:12269   */\n      pop\n      jump\t// out\n        /* \"#utility.yul\":12275:12414   */\n    tag_327:\n        /* \"#utility.yul\":12330:12335   */\n      0x00\n        /* \"#utility.yul\":12361:12367   */\n      dup2\n        /* \"#utility.yul\":12355:12368   */\n      mload\n        /* \"#utility.yul\":12346:12368   */\n      swap1\n      pop\n        /* \"#utility.yul\":12377:12408   */\n      tag_507\n        /* \"#utility.yul\":12402:12407   */\n      dup2\n        /* \"#utility.yul\":12377:12408   */\n      tag_326\n      jump\t// in\n    tag_507:\n        /* \"#utility.yul\":12275:12414   */\n      swap3\n      swap2\n      pop\n      pop\n      jump\t// out\n        /* \"#utility.yul\":12420:12767   */\n    tag_137:\n        /* \"#utility.yul\":12488:12494   */\n      0x00\n        /* \"#utility.yul\":12537:12539   */\n      0x20\n        /* \"#utility.yul\":12525:12534   */\n      dup3\n        /* \"#utility.yul\":12516:12523   */\n      dup5\n        /* \"#utility.yul\":12512:12535   */\n      sub\n        /* \"#utility.yul\":12508:12540   */\n      slt\n        /* \"#utility.yul\":12505:12624   */\n      iszero\n      tag_509\n      jumpi\n        /* \"#utility.yul\":12543:12622   */\n      tag_510\n      tag_293\n      jump\t// in\n    tag_510:\n        /* \"#utility.yul\":12505:12624   */\n    tag_509:\n        /* \"#utility.yul\":12663:12664   */\n      0x00\n        /* \"#utility.yul\":12688:12750   */\n      tag_511\n        /* \"#utility.yul\":12742:12749   */\n      dup5\n        /* \"#utility.yul\":12733:12739   */\n      dup3\n        /* \"#utility.yul\":12722:12731   */\n      dup6\n        /* \"#utility.yul\":12718:12740   */\n      add\n        /* \"#utility.yul\":12688:12750   */\n      tag_327\n      jump\t// in\n    tag_511:\n        /* \"#utility.yul\":12678:12750   */\n      swap2\n      pop\n        /* \"#utility.yul\":12634:12760   */\n      pop\n        /* \"#utility.yul\":12420:12767   */\n      swap3\n      swap2\n      pop\n      pop\n      jump\t// out\n        /* \"#utility.yul\":12773:12875   */\n    tag_328:\n        /* \"#utility.yul\":12815:12823   */\n      0x00\n        /* \"#utility.yul\":12862:12867   */\n      dup2\n        /* \"#utility.yul\":12859:12860   */\n      0x01\n        /* \"#utility.yul\":12855:12868   */\n      shr\n        /* \"#utility.yul\":12834:12868   */\n      swap1\n      pop\n        /* \"#utility.yul\":12773:12875   */\n      swap2\n      swap1\n      pop\n      jump\t// out\n        /* \"#utility.yul\":12881:13729   */\n    tag_329:\n        /* \"#utility.yul\":12942:12947   */\n      0x00\n        /* \"#utility.yul\":12949:12953   */\n      dup1\n        /* \"#utility.yul\":12973:12979   */\n      dup3\n        /* \"#utility.yul\":12964:12979   */\n      swap2\n      pop\n        /* \"#utility.yul\":12997:13002   */\n      dup4\n        /* \"#utility.yul\":12988:13002   */\n      swap1\n      pop\n        /* \"#utility.yul\":13011:13723   */\n    tag_514:\n        /* \"#utility.yul\":13032:13033   */\n      0x01\n        /* \"#utility.yul\":13022:13030   */\n      dup6\n        /* \"#utility.yul\":13019:13034   */\n      gt\n        /* \"#utility.yul\":13011:13723   */\n      iszero\n      tag_516\n      jumpi\n        /* \"#utility.yul\":13127:13131   */\n      dup1\n        /* \"#utility.yul\":13122:13125   */\n      dup7\n        /* \"#utility.yul\":13118:13132   */\n      div\n        /* \"#utility.yul\":13112:13116   */\n      dup2\n        /* \"#utility.yul\":13109:13133   */\n      gt\n        /* \"#utility.yul\":13106:13156   */\n      iszero\n      tag_517\n      jumpi\n        /* \"#utility.yul\":13136:13154   */\n      tag_518\n      tag_324\n      jump\t// in\n    tag_518:\n        /* \"#utility.yul\":13106:13156   */\n    tag_517:\n        /* \"#utility.yul\":13186:13187   */\n      0x01\n        /* \"#utility.yul\":13176:13184   */\n      dup6\n        /* \"#utility.yul\":13172:13188   */\n      and\n        /* \"#utility.yul\":13169:13620   */\n      iszero\n      tag_519\n      jumpi\n        /* \"#utility.yul\":13601:13605   */\n      dup1\n        /* \"#utility.yul\":13594:13599   */\n      dup3\n        /* \"#utility.yul\":13590:13606   */\n      mul\n        /* \"#utility.yul\":13581:13606   */\n      swap2\n      pop\n        /* \"#utility.yul\":13169:13620   */\n    tag_519:\n        /* \"#utility.yul\":13651:13655   */\n      dup1\n        /* \"#utility.yul\":13645:13649   */\n      dup2\n        /* \"#utility.yul\":13641:13656   */\n      mul\n        /* \"#utility.yul\":13633:13656   */\n      swap1\n      pop\n        /* \"#utility.yul\":13681:13713   */\n      tag_520\n        /* \"#utility.yul\":13704:13712   */\n      dup6\n        /* \"#utility.yul\":13681:13713   */\n      tag_328\n      jump\t// in\n    tag_520:\n        /* \"#utility.yul\":13669:13713   */\n      swap5\n      pop\n        /* \"#utility.yul\":13011:13723   */\n      jump(tag_514)\n    tag_516:\n        /* \"#utility.yul\":12881:13729   */\n      swap5\n      pop\n      swap5\n      swap3\n      pop\n      pop\n      pop\n      jump\t// out\n        /* \"#utility.yul\":13735:14808   */\n    tag_330:\n        /* \"#utility.yul\":13789:13794   */\n      0x00\n        /* \"#utility.yul\":13980:13988   */\n      dup3\n        /* \"#utility.yul\":13970:14010   */\n      tag_522\n      jumpi\n        /* \"#utility.yul\":14001:14002   */\n      0x01\n        /* \"#utility.yul\":13992:14002   */\n      swap1\n      pop\n        /* \"#utility.yul\":14003:14008   */\n      jump(tag_521)\n        /* \"#utility.yul\":13970:14010   */\n    tag_522:\n        /* \"#utility.yul\":14029:14033   */\n      dup2\n        /* \"#utility.yul\":14019:14055   */\n      tag_523\n      jumpi\n        /* \"#utility.yul\":14046:14047   */\n      0x00\n        /* \"#utility.yul\":14037:14047   */\n      swap1\n      pop\n        /* \"#utility.yul\":14048:14053   */\n      jump(tag_521)\n        /* \"#utility.yul\":14019:14055   */\n    tag_523:\n        /* \"#utility.yul\":14115:14119   */\n      dup2\n        /* \"#utility.yul\":14163:14164   */\n      0x01\n        /* \"#utility.yul\":14158:14185   */\n      dup2\n      eq\n      tag_525\n      jumpi\n        /* \"#utility.yul\":14199:14200   */\n      0x02\n        /* \"#utility.yul\":14194:14385   */\n      dup2\n      eq\n      tag_526\n      jumpi\n        /* \"#utility.yul\":14108:14385   */\n      jump(tag_524)\n        /* \"#utility.yul\":14158:14185   */\n    tag_525:\n        /* \"#utility.yul\":14176:14177   */\n      0x01\n        /* \"#utility.yul\":14167:14177   */\n      swap2\n      pop\n        /* \"#utility.yul\":14178:14183   */\n      pop\n      jump(tag_521)\n        /* \"#utility.yul\":14194:14385   */\n    tag_526:\n        /* \"#utility.yul\":14239:14242   */\n      0xff\n        /* \"#utility.yul\":14229:14237   */\n      dup5\n        /* \"#utility.yul\":14226:14243   */\n      gt\n        /* \"#utility.yul\":14223:14266   */\n      iszero\n      tag_527\n      jumpi\n        /* \"#utility.yul\":14246:14264   */\n      tag_528\n      tag_324\n      jump\t// in\n    tag_528:\n        /* \"#utility.yul\":14223:14266   */\n    tag_527:\n        /* \"#utility.yul\":14295:14303   */\n      dup4\n        /* \"#utility.yul\":14292:14293   */\n      0x02\n        /* \"#utility.yul\":14288:14304   */\n      exp\n        /* \"#utility.yul\":14279:14304   */\n      swap2\n      pop\n        /* \"#utility.yul\":14330:14333   */\n      dup5\n        /* \"#utility.yul\":14323:14328   */\n      dup3\n        /* \"#utility.yul\":14320:14334   */\n      gt\n        /* \"#utility.yul\":14317:14357   */\n      iszero\n      tag_529\n      jumpi\n        /* \"#utility.yul\":14337:14355   */\n      tag_530\n      tag_324\n      jump\t// in\n    tag_530:\n        /* \"#utility.yul\":14317:14357   */\n    tag_529:\n        /* \"#utility.yul\":14370:14375   */\n      pop\n      jump(tag_521)\n        /* \"#utility.yul\":14108:14385   */\n    tag_524:\n      pop\n        /* \"#utility.yul\":14494:14496   */\n      0x20\n        /* \"#utility.yul\":14484:14492   */\n      dup4\n        /* \"#utility.yul\":14481:14497   */\n      lt\n        /* \"#utility.yul\":14475:14478   */\n      0x0133\n        /* \"#utility.yul\":14469:14473   */\n      dup4\n        /* \"#utility.yul\":14466:14479   */\n      lt\n        /* \"#utility.yul\":14462:14498   */\n      and\n        /* \"#utility.yul\":14444:14446   */\n      0x4e\n        /* \"#utility.yul\":14434:14442   */\n      dup5\n        /* \"#utility.yul\":14431:14447   */\n      lt\n        /* \"#utility.yul\":14426:14428   */\n      0x0b\n        /* \"#utility.yul\":14420:14424   */\n      dup5\n        /* \"#utility.yul\":14417:14429   */\n      lt\n        /* \"#utility.yul\":14413:14448   */\n      and\n        /* \"#utility.yul\":14397:14508   */\n      or\n        /* \"#utility.yul\":14394:14640   */\n      iszero\n      tag_531\n      jumpi\n        /* \"#utility.yul\":14550:14558   */\n      dup3\n        /* \"#utility.yul\":14544:14548   */\n      dup3\n        /* \"#utility.yul\":14540:14559   */\n      exp\n        /* \"#utility.yul\":14531:14559   */\n      swap1\n      pop\n        /* \"#utility.yul\":14585:14588   */\n      dup4\n        /* \"#utility.yul\":14578:14583   */\n      dup2\n        /* \"#utility.yul\":14575:14589   */\n      gt\n        /* \"#utility.yul\":14572:14612   */\n      iszero\n      tag_532\n      jumpi\n        /* \"#utility.yul\":14592:14610   */\n      tag_533\n      tag_324\n      jump\t// in\n    tag_533:\n        /* \"#utility.yul\":14572:14612   */\n    tag_532:\n        /* \"#utility.yul\":14625:14630   */\n      jump(tag_521)\n        /* \"#utility.yul\":14394:14640   */\n    tag_531:\n        /* \"#utility.yul\":14665:14707   */\n      tag_534\n        /* \"#utility.yul\":14703:14706   */\n      dup5\n        /* \"#utility.yul\":14693:14701   */\n      dup5\n        /* \"#utility.yul\":14687:14691   */\n      dup5\n        /* \"#utility.yul\":14684:14685   */\n      0x01\n        /* \"#utility.yul\":14665:14707   */\n      tag_329\n      jump\t// in\n    tag_534:\n        /* \"#utility.yul\":14650:14707   */\n      swap3\n      pop\n      swap1\n      pop\n        /* \"#utility.yul\":14739:14743   */\n      dup2\n        /* \"#utility.yul\":14734:14737   */\n      dup5\n        /* \"#utility.yul\":14730:14744   */\n      div\n        /* \"#utility.yul\":14723:14728   */\n      dup2\n        /* \"#utility.yul\":14720:14745   */\n      gt\n        /* \"#utility.yul\":14717:14768   */\n      iszero\n      tag_535\n      jumpi\n        /* \"#utility.yul\":14748:14766   */\n      tag_536\n      tag_324\n      jump\t// in\n    tag_536:\n        /* \"#utility.yul\":14717:14768   */\n    tag_535:\n        /* \"#utility.yul\":14797:14801   */\n      dup2\n        /* \"#utility.yul\":14790:14795   */\n      dup2\n        /* \"#utility.yul\":14786:14802   */\n      mul\n        /* \"#utility.yul\":14777:14802   */\n      swap1\n      pop\n        /* \"#utility.yul\":13735:14808   */\n    tag_521:\n      swap4\n      swap3\n      pop\n      pop\n      pop\n      jump\t// out\n        /* \"#utility.yul\":14814:15095   */\n    tag_139:\n        /* \"#utility.yul\":14872:14877   */\n      0x00\n        /* \"#utility.yul\":14896:14919   */\n      tag_538\n        /* \"#utility.yul\":14914:14918   */\n      dup3\n        /* \"#utility.yul\":14896:14919   */\n      tag_290\n      jump\t// in\n    tag_538:\n        /* \"#utility.yul\":14888:14919   */\n      swap2\n      pop\n        /* \"#utility.yul\":14940:14965   */\n      tag_539\n        /* \"#utility.yul\":14956:14964   */\n      dup4\n        /* \"#utility.yul\":14940:14965   */\n      tag_325\n      jump\t// in\n    tag_539:\n        /* \"#utility.yul\":14928:14965   */\n      swap3\n      pop\n        /* \"#utility.yul\":14984:15088   */\n      tag_540\n        /* \"#utility.yul\":15021:15087   */\n      0xffffffffffffffffffffffffffffffffffffffffffffffffffffffffffffffff\n        /* \"#utility.yul\":15011:15019   */\n      dup5\n        /* \"#utility.yul\":15005:15009   */\n      dup5\n        /* \"#utility.yul\":14984:15088   */\n      tag_330\n      jump\t// in\n    tag_540:\n        /* \"#utility.yul\":14975:15088   */\n      swap1\n      pop\n        /* \"#utility.yul\":14814:15095   */\n      swap3\n      swap2\n      pop\n      pop\n      jump\t// out\n        /* \"#utility.yul\":15101:15281   */\n    tag_331:\n        /* \"#utility.yul\":15149:15226   */\n      0x4e487b7100000000000000000000000000000000000000000000000000000000\n        /* \"#utility.yul\":15146:15147   */\n      0x00\n        /* \"#utility.yul\":15139:15227   */\n      mstore\n        /* \"#utility.yul\":15246:15250   */\n      0x12\n        /* \"#utility.yul\":15243:15244   */\n      0x04\n        /* \"#utility.yul\":15236:15251   */\n      mstore\n        /* \"#utility.yul\":15270:15274   */\n      0x24\n        /* \"#utility.yul\":15267:15268   */\n      0x00\n        /* \"#utility.yul\":15260:15275   */\n      revert\n        /* \"#utility.yul\":15287:15472   */\n    tag_143:\n        /* \"#utility.yul\":15327:15328   */\n      0x00\n        /* \"#utility.yul\":15344:15364   */\n      tag_543\n        /* \"#utility.yul\":15362:15363   */\n      dup3\n        /* \"#utility.yul\":15344:15364   */\n      tag_290\n      jump\t// in\n    tag_543:\n        /* \"#utility.yul\":15339:15364   */\n      swap2\n      pop\n        /* \"#utility.yul\":15378:15398   */\n      tag_544\n        /* \"#utility.yul\":15396:15397   */\n      dup4\n        /* \"#utility.yul\":15378:15398   */\n      tag_290\n      jump\t// in\n    tag_544:\n        /* \"#utility.yul\":15373:15398   */\n      swap3\n      pop\n        /* \"#utility.yul\":15417:15418   */\n      dup3\n        /* \"#utility.yul\":15407:15442   */\n      tag_545\n      jumpi\n        /* \"#utility.yul\":15422:15440   */\n      tag_546\n      tag_331\n      jump\t// in\n    tag_546:\n        /* \"#utility.yul\":15407:15442   */\n    tag_545:\n        /* \"#utility.yul\":15464:15465   */\n      dup3\n        /* \"#utility.yul\":15461:15462   */\n      dup3\n        /* \"#utility.yul\":15457:15466   */\n      div\n        /* \"#utility.yul\":15452:15466   */\n      swap1\n      pop\n        /* \"#utility.yul\":15287:15472   */\n      swap3\n      swap2\n      pop\n      pop\n      jump\t// out\n        /* \"#utility.yul\":15478:15621   */\n    tag_332:\n        /* \"#utility.yul\":15535:15540   */\n      0x00\n        /* \"#utility.yul\":15566:15572   */\n      dup2\n        /* \"#utility.yul\":15560:15573   */\n      mload\n        /* \"#utility.yul\":15551:15573   */\n      swap1\n      pop\n        /* \"#utility.yul\":15582:15615   */\n      tag_548\n        /* \"#utility.yul\":15609:15614   */\n      dup2\n        /* \"#utility.yul\":15582:15615   */\n      tag_309\n      jump\t// in\n    tag_548:\n        /* \"#utility.yul\":15478:15621   */\n      swap3\n      swap2\n      pop\n      pop\n      jump\t// out\n        /* \"#utility.yul\":15627:15978   */\n    tag_170:\n        /* \"#utility.yul\":15697:15703   */\n      0x00\n        /* \"#utility.yul\":15746:15748   */\n      0x20\n        /* \"#utility.yul\":15734:15743   */\n      dup3\n        /* \"#utility.yul\":15725:15732   */\n      dup5\n        /* \"#utility.yul\":15721:15744   */\n      sub\n        /* \"#utility.yul\":15717:15749   */\n      slt\n        /* \"#utility.yul\":15714:15833   */\n      iszero\n      tag_550\n      jumpi\n        /* \"#utility.yul\":15752:15831   */\n      tag_551\n      tag_293\n      jump\t// in\n    tag_551:\n        /* \"#utility.yul\":15714:15833   */\n    tag_550:\n        /* \"#utility.yul\":15872:15873   */\n      0x00\n        /* \"#utility.yul\":15897:15961   */\n      tag_552\n        /* \"#utility.yul\":15953:15960   */\n      dup5\n        /* \"#utility.yul\":15944:15950   */\n      dup3\n        /* \"#utility.yul\":15933:15942   */\n      dup6\n        /* \"#utility.yul\":15929:15951   */\n      add\n        /* \"#utility.yul\":15897:15961   */\n      tag_332\n      jump\t// in\n    tag_552:\n        /* \"#utility.yul\":15887:15961   */\n      swap2\n      pop\n        /* \"#utility.yul\":15843:15971   */\n      pop\n        /* \"#utility.yul\":15627:15978   */\n      swap3\n      swap2\n      pop\n      pop\n      jump\t// out\n        /* \"#utility.yul\":15984:16175   */\n    tag_172:\n        /* \"#utility.yul\":16024:16027   */\n      0x00\n        /* \"#utility.yul\":16043:16063   */\n      tag_554\n        /* \"#utility.yul\":16061:16062   */\n      dup3\n        /* \"#utility.yul\":16043:16063   */\n      tag_290\n      jump\t// in\n    tag_554:\n        /* \"#utility.yul\":16038:16063   */\n      swap2\n      pop\n        /* \"#utility.yul\":16077:16097   */\n      tag_555\n        /* \"#utility.yul\":16095:16096   */\n      dup4\n        /* \"#utility.yul\":16077:16097   */\n      tag_290\n      jump\t// in\n    tag_555:\n        /* \"#utility.yul\":16072:16097   */\n      swap3\n      pop\n        /* \"#utility.yul\":16120:16121   */\n      dup3\n        /* \"#utility.yul\":16117:16118   */\n      dup3\n        /* \"#utility.yul\":16113:16122   */\n      add\n        /* \"#utility.yul\":16106:16122   */\n      swap1\n      pop\n        /* \"#utility.yul\":16141:16144   */\n      dup1\n        /* \"#utility.yul\":16138:16139   */\n      dup3\n        /* \"#utility.yul\":16135:16145   */\n      gt\n        /* \"#utility.yul\":16132:16168   */\n      iszero\n      tag_556\n      jumpi\n        /* \"#utility.yul\":16148:16166   */\n      tag_557\n      tag_324\n      jump\t// in\n    tag_557:\n        /* \"#utility.yul\":16132:16168   */\n    tag_556:\n        /* \"#utility.yul\":15984:16175   */\n      swap3\n      swap2\n      pop\n      pop\n      jump\t// out\n        /* \"#utility.yul\":16181:16375   */\n    tag_175:\n        /* \"#utility.yul\":16221:16225   */\n      0x00\n        /* \"#utility.yul\":16241:16261   */\n      tag_559\n        /* \"#utility.yul\":16259:16260   */\n      dup3\n        /* \"#utility.yul\":16241:16261   */\n      tag_290\n      jump\t// in\n    tag_559:\n        /* \"#utility.yul\":16236:16261   */\n      swap2\n      pop\n        /* \"#utility.yul\":16275:16295   */\n      tag_560\n        /* \"#utility.yul\":16293:16294   */\n      dup4\n        /* \"#utility.yul\":16275:16295   */\n      tag_290\n      jump\t// in\n    tag_560:\n        /* \"#utility.yul\":16270:16295   */\n      swap3\n      pop\n        /* \"#utility.yul\":16319:16320   */\n      dup3\n        /* \"#utility.yul\":16316:16317   */\n      dup3\n        /* \"#utility.yul\":16312:16321   */\n      sub\n        /* \"#utility.yul\":16304:16321   */\n      swap1\n      pop\n        /* \"#utility.yul\":16343:16344   */\n      dup2\n        /* \"#utility.yul\":16337:16341   */\n      dup2\n        /* \"#utility.yul\":16334:16345   */\n      gt\n        /* \"#utility.yul\":16331:16368   */\n      iszero\n      tag_561\n      jumpi\n        /* \"#utility.yul\":16348:16366   */\n      tag_562\n      tag_324\n      jump\t// in\n    tag_562:\n        /* \"#utility.yul\":16331:16368   */\n    tag_561:\n        /* \"#utility.yul\":16181:16375   */\n      swap3\n      swap2\n      pop\n      pop\n      jump\t// out\n        /* \"#utility.yul\":16381:16548   */\n    tag_333:\n        /* \"#utility.yul\":16521:16540   */\n      0x6e6f7420656e6f75676820706f696e7473000000000000000000000000000000\n        /* \"#utility.yul\":16517:16518   */\n      0x00\n        /* \"#utility.yul\":16509:16515   */\n      dup3\n        /* \"#utility.yul\":16505:16519   */\n      add\n        /* \"#utility.yul\":16498:16541   */\n      mstore\n        /* \"#utility.yul\":16381:16548   */\n      pop\n      jump\t// out\n        /* \"#utility.yul\":16554:16920   */\n    tag_334:\n        /* \"#utility.yul\":16696:16699   */\n      0x00\n        /* \"#utility.yul\":16717:16784   */\n      tag_565\n        /* \"#utility.yul\":16781:16783   */\n      0x11\n        /* \"#utility.yul\":16776:16779   */\n      dup4\n        /* \"#utility.yul\":16717:16784   */\n      tag_312\n      jump\t// in\n    tag_565:\n        /* \"#utility.yul\":16710:16784   */\n      swap2\n      pop\n        /* \"#utility.yul\":16793:16886   */\n      tag_566\n        /* \"#utility.yul\":16882:16885   */\n      dup3\n        /* \"#utility.yul\":16793:16886   */\n      tag_333\n      jump\t// in\n    tag_566:\n        /* \"#utility.yul\":16911:16913   */\n      0x20\n        /* \"#utility.yul\":16906:16909   */\n      dup3\n        /* \"#utility.yul\":16902:16914   */\n      add\n        /* \"#utility.yul\":16895:16914   */\n      swap1\n      pop\n        /* \"#utility.yul\":16554:16920   */\n      swap2\n      swap1\n      pop\n      jump\t// out\n        /* \"#utility.yul\":16926:17345   */\n    tag_195:\n        /* \"#utility.yul\":17092:17096   */\n      0x00\n        /* \"#utility.yul\":17130:17132   */\n      0x20\n        /* \"#utility.yul\":17119:17128   */\n      dup3\n        /* \"#utility.yul\":17115:17133   */\n      add\n        /* \"#utility.yul\":17107:17133   */\n      swap1\n      pop\n        /* \"#utility.yul\":17179:17188   */\n      dup2\n        /* \"#utility.yul\":17173:17177   */\n      dup2\n        /* \"#utility.yul\":17169:17189   */\n      sub\n        /* \"#utility.yul\":17165:17166   */\n      0x00\n        /* \"#utility.yul\":17154:17163   */\n      dup4\n        /* \"#utility.yul\":17150:17167   */\n      add\n        /* \"#utility.yul\":17143:17190   */\n      mstore\n        /* \"#utility.yul\":17207:17338   */\n      tag_568\n        /* \"#utility.yul\":17333:17337   */\n      dup2\n        /* \"#utility.yul\":17207:17338   */\n      tag_334\n      jump\t// in\n    tag_568:\n        /* \"#utility.yul\":17199:17338   */\n      swap1\n      pop\n        /* \"#utility.yul\":16926:17345   */\n      swap2\n      swap1\n      pop\n      jump\t// out\n        /* \"#utility.yul\":17351:17904   */\n    tag_216:\n        /* \"#utility.yul\":17528:17532   */\n      0x00\n        /* \"#utility.yul\":17566:17569   */\n      0x80\n        /* \"#utility.yul\":17555:17564   */\n      dup3\n        /* \"#utility.yul\":17551:17570   */\n      add\n        /* \"#utility.yul\":17543:17570   */\n      swap1\n      pop\n        /* \"#utility.yul\":17580:17651   */\n      tag_570\n        /* \"#utility.yul\":17648:17649   */\n      0x00\n        /* \"#utility.yul\":17637:17646   */\n      dup4\n        /* \"#utility.yul\":17633:17650   */\n      add\n        /* \"#utility.yul\":17624:17630   */\n      dup8\n        /* \"#utility.yul\":17580:17651   */\n      tag_319\n      jump\t// in\n    tag_570:\n        /* \"#utility.yul\":17661:17733   */\n      tag_571\n        /* \"#utility.yul\":17729:17731   */\n      0x20\n        /* \"#utility.yul\":17718:17727   */\n      dup4\n        /* \"#utility.yul\":17714:17732   */\n      add\n        /* \"#utility.yul\":17705:17711   */\n      dup7\n        /* \"#utility.yul\":17661:17733   */\n      tag_291\n      jump\t// in\n    tag_571:\n        /* \"#utility.yul\":17743:17815   */\n      tag_572\n        /* \"#utility.yul\":17811:17813   */\n      0x40\n        /* \"#utility.yul\":17800:17809   */\n      dup4\n        /* \"#utility.yul\":17796:17814   */\n      add\n        /* \"#utility.yul\":17787:17793   */\n      dup6\n        /* \"#utility.yul\":17743:17815   */\n      tag_291\n      jump\t// in\n    tag_572:\n        /* \"#utility.yul\":17825:17897   */\n      tag_573\n        /* \"#utility.yul\":17893:17895   */\n      0x60\n        /* \"#utility.yul\":17882:17891   */\n      dup4\n        /* \"#utility.yul\":17878:17896   */\n      add\n        /* \"#utility.yul\":17869:17875   */\n      dup5\n        /* \"#utility.yul\":17825:17897   */\n      tag_291\n      jump\t// in\n    tag_573:\n        /* \"#utility.yul\":17351:17904   */\n      swap6\n      swap5\n      pop\n      pop\n      pop\n      pop\n      pop\n      jump\t// out\n        /* \"#utility.yul\":17910:18076   */\n    tag_335:\n        /* \"#utility.yul\":18050:18068   */\n      0x636f6e747261637420667265657a656400000000000000000000000000000000\n        /* \"#utility.yul\":18046:18047   */\n      0x00\n        /* \"#utility.yul\":18038:18044   */\n      dup3\n        /* \"#utility.yul\":18034:18048   */\n      add\n        /* \"#utility.yul\":18027:18069   */\n      mstore\n        /* \"#utility.yul\":17910:18076   */\n      pop\n      jump\t// out\n        /* \"#utility.yul\":18082:18448   */\n    tag_336:\n        /* \"#utility.yul\":18224:18227   */\n      0x00\n        /* \"#utility.yul\":18245:18312   */\n      tag_576\n        /* \"#utility.yul\":18309:18311   */\n      0x10\n        /* \"#utility.yul\":18304:18307   */\n      dup4\n        /* \"#utility.yul\":18245:18312   */\n      tag_312\n      jump\t// in\n    tag_576:\n        /* \"#utility.yul\":18238:18312   */\n      swap2\n      pop\n        /* \"#utility.yul\":18321:18414   */\n      tag_577\n        /* \"#utility.yul\":18410:18413   */\n      dup3\n        /* \"#utility.yul\":18321:18414   */\n      tag_335\n      jump\t// in\n    tag_577:\n        /* \"#utility.yul\":18439:18441   */\n      0x20\n        /* \"#utility.yul\":18434:18437   */\n      dup3\n        /* \"#utility.yul\":18430:18442   */\n      add\n        /* \"#utility.yul\":18423:18442   */\n      swap1\n      pop\n        /* \"#utility.yul\":18082:18448   */\n      swap2\n      swap1\n      pop\n      jump\t// out\n        /* \"#utility.yul\":18454:18873   */\n    tag_237:\n        /* \"#utility.yul\":18620:18624   */\n      0x00\n        /* \"#utility.yul\":18658:18660   */\n      0x20\n        /* \"#utility.yul\":18647:18656   */\n      dup3\n        /* \"#utility.yul\":18643:18661   */\n      add\n        /* \"#utility.yul\":18635:18661   */\n      swap1\n      pop\n        /* \"#utility.yul\":18707:18716   */\n      dup2\n        /* \"#utility.yul\":18701:18705   */\n      dup2\n        /* \"#utility.yul\":18697:18717   */\n      sub\n        /* \"#utility.yul\":18693:18694   */\n      0x00\n        /* \"#utility.yul\":18682:18691   */\n      dup4\n        /* \"#utility.yul\":18678:18695   */\n      add\n        /* \"#utility.yul\":18671:18718   */\n      mstore\n        /* \"#utility.yul\":18735:18866   */\n      tag_579\n        /* \"#utility.yul\":18861:18865   */\n      dup2\n        /* \"#utility.yul\":18735:18866   */\n      tag_336\n      jump\t// in\n    tag_579:\n        /* \"#utility.yul\":18727:18866   */\n      swap1\n      pop\n        /* \"#utility.yul\":18454:18873   */\n      swap2\n      swap1\n      pop\n      jump\t// out\n        /* \"#utility.yul\":18879:19046   */\n    tag_337:\n        /* \"#utility.yul\":19019:19038   */\n      0x65787069726564207369676e6174757265000000000000000000000000000000\n        /* \"#utility.yul\":19015:19016   */\n      0x00\n        /* \"#utility.yul\":19007:19013   */\n      dup3\n        /* \"#utility.yul\":19003:19017   */\n      add\n        /* \"#utility.yul\":18996:19039   */\n      mstore\n        /* \"#utility.yul\":18879:19046   */\n      pop\n      jump\t// out\n        /* \"#utility.yul\":19052:19418   */\n    tag_338:\n        /* \"#utility.yul\":19194:19197   */\n      0x00\n        /* \"#utility.yul\":19215:19282   */\n      tag_582\n        /* \"#utility.yul\":19279:19281   */\n      0x11\n        /* \"#utility.yul\":19274:19277   */\n      dup4\n        /* \"#utility.yul\":19215:19282   */\n      tag_312\n      jump\t// in\n    tag_582:\n        /* \"#utility.yul\":19208:19282   */\n      swap2\n      pop\n        /* \"#utility.yul\":19291:19384   */\n      tag_583\n        /* \"#utility.yul\":19380:19383   */\n      dup3\n        /* \"#utility.yul\":19291:19384   */\n      tag_337\n      jump\t// in\n    tag_583:\n        /* \"#utility.yul\":19409:19411   */\n      0x20\n        /* \"#utility.yul\":19404:19407   */\n      dup3\n        /* \"#utility.yul\":19400:19412   */\n      add\n        /* \"#utility.yul\":19393:19412   */\n      swap1\n      pop\n        /* \"#utility.yul\":19052:19418   */\n      swap2\n      swap1\n      pop\n      jump\t// out\n        /* \"#utility.yul\":19424:19843   */\n    tag_240:\n        /* \"#utility.yul\":19590:19594   */\n      0x00\n        /* \"#utility.yul\":19628:19630   */\n      0x20\n        /* \"#utility.yul\":19617:19626   */\n      dup3\n        /* \"#utility.yul\":19613:19631   */\n      add\n        /* \"#utility.yul\":19605:19631   */\n      swap1\n      pop\n        /* \"#utility.yul\":19677:19686   */\n      dup2\n        /* \"#utility.yul\":19671:19675   */\n      dup2\n        /* \"#utility.yul\":19667:19687   */\n      sub\n        /* \"#utility.yul\":19663:19664   */\n      0x00\n        /* \"#utility.yul\":19652:19661   */\n      dup4\n        /* \"#utility.yul\":19648:19665   */\n      add\n        /* \"#utility.yul\":19641:19688   */\n      mstore\n        /* \"#utility.yul\":19705:19836   */\n      tag_585\n        /* \"#utility.yul\":19831:19835   */\n      dup2\n        /* \"#utility.yul\":19705:19836   */\n      tag_338\n      jump\t// in\n    tag_585:\n        /* \"#utility.yul\":19697:19836   */\n      swap1\n      pop\n        /* \"#utility.yul\":19424:19843   */\n      swap2\n      swap1\n      pop\n      jump\t// out\n        /* \"#utility.yul\":19849:19943   */\n    tag_339:\n        /* \"#utility.yul\":19882:19890   */\n      0x00\n        /* \"#utility.yul\":19930:19935   */\n      dup2\n        /* \"#utility.yul\":19926:19928   */\n      0x60\n        /* \"#utility.yul\":19922:19936   */\n      shl\n        /* \"#utility.yul\":19901:19936   */\n      swap1\n      pop\n        /* \"#utility.yul\":19849:19943   */\n      swap2\n      swap1\n      pop\n      jump\t// out\n        /* \"#utility.yul\":19949:20043   */\n    tag_340:\n        /* \"#utility.yul\":19988:19995   */\n      0x00\n        /* \"#utility.yul\":20017:20037   */\n      tag_588\n        /* \"#utility.yul\":20031:20036   */\n      dup3\n        /* \"#utility.yul\":20017:20037   */\n      tag_339\n      jump\t// in\n    tag_588:\n        /* \"#utility.yul\":20006:20037   */\n      swap1\n      pop\n        /* \"#utility.yul\":19949:20043   */\n      swap2\n      swap1\n      pop\n      jump\t// out\n        /* \"#utility.yul\":20049:20149   */\n    tag_341:\n        /* \"#utility.yul\":20088:20095   */\n      0x00\n        /* \"#utility.yul\":20117:20143   */\n      tag_590\n        /* \"#utility.yul\":20137:20142   */\n      dup3\n        /* \"#utility.yul\":20117:20143   */\n      tag_340\n      jump\t// in\n    tag_590:\n        /* \"#utility.yul\":20106:20143   */\n      swap1\n      pop\n        /* \"#utility.yul\":20049:20149   */\n      swap2\n      swap1\n      pop\n      jump\t// out\n        /* \"#utility.yul\":20155:20312   */\n    tag_342:\n        /* \"#utility.yul\":20260:20305   */\n      tag_592\n        /* \"#utility.yul\":20280:20304   */\n      tag_593\n        /* \"#utility.yul\":20298:20303   */\n      dup3\n        /* \"#utility.yul\":20280:20304   */\n      tag_306\n      jump\t// in\n    tag_593:\n        /* \"#utility.yul\":20260:20305   */\n      tag_341\n      jump\t// in\n    tag_592:\n        /* \"#utility.yul\":20255:20258   */\n      dup3\n        /* \"#utility.yul\":20248:20306   */\n      mstore\n        /* \"#utility.yul\":20155:20312   */\n      pop\n      pop\n      jump\t// out\n        /* \"#utility.yul\":20318:20397   */\n    tag_343:\n        /* \"#utility.yul\":20357:20364   */\n      0x00\n        /* \"#utility.yul\":20386:20391   */\n      dup2\n        /* \"#utility.yul\":20375:20391   */\n      swap1\n      pop\n        /* \"#utility.yul\":20318:20397   */\n      swap2\n      swap1\n      pop\n      jump\t// out\n        /* \"#utility.yul\":20403:20560   */\n    tag_344:\n        /* \"#utility.yul\":20508:20553   */\n      tag_596\n        /* \"#utility.yul\":20528:20552   */\n      tag_597\n        /* \"#utility.yul\":20546:20551   */\n      dup3\n        /* \"#utility.yul\":20528:20552   */\n      tag_290\n      jump\t// in\n    tag_597:\n        /* \"#utility.yul\":20508:20553   */\n      tag_343\n      jump\t// in\n    tag_596:\n        /* \"#utility.yul\":20503:20506   */\n      dup3\n        /* \"#utility.yul\":20496:20554   */\n      mstore\n        /* \"#utility.yul\":20403:20560   */\n      pop\n      pop\n      jump\t// out\n        /* \"#utility.yul\":20566:21245   */\n    tag_242:\n        /* \"#utility.yul\":20762:20765   */\n      0x00\n        /* \"#utility.yul\":20777:20852   */\n      tag_599\n        /* \"#utility.yul\":20848:20851   */\n      dup3\n        /* \"#utility.yul\":20839:20845   */\n      dup8\n        /* \"#utility.yul\":20777:20852   */\n      tag_342\n      jump\t// in\n    tag_599:\n        /* \"#utility.yul\":20877:20879   */\n      0x14\n        /* \"#utility.yul\":20872:20875   */\n      dup3\n        /* \"#utility.yul\":20868:20880   */\n      add\n        /* \"#utility.yul\":20861:20880   */\n      swap2\n      pop\n        /* \"#utility.yul\":20890:20965   */\n      tag_600\n        /* \"#utility.yul\":20961:20964   */\n      dup3\n        /* \"#utility.yul\":20952:20958   */\n      dup7\n        /* \"#utility.yul\":20890:20965   */\n      tag_344\n      jump\t// in\n    tag_600:\n        /* \"#utility.yul\":20990:20992   */\n      0x20\n        /* \"#utility.yul\":20985:20988   */\n      dup3\n        /* \"#utility.yul\":20981:20993   */\n      add\n        /* \"#utility.yul\":20974:20993   */\n      swap2\n      pop\n        /* \"#utility.yul\":21003:21078   */\n      tag_601\n        /* \"#utility.yul\":21074:21077   */\n      dup3\n        /* \"#utility.yul\":21065:21071   */\n      dup6\n        /* \"#utility.yul\":21003:21078   */\n      tag_344\n      jump\t// in\n    tag_601:\n        /* \"#utility.yul\":21103:21105   */\n      0x20\n        /* \"#utility.yul\":21098:21101   */\n      dup3\n        /* \"#utility.yul\":21094:21106   */\n      add\n        /* \"#utility.yul\":21087:21106   */\n      swap2\n      pop\n        /* \"#utility.yul\":21116:21191   */\n      tag_602\n        /* \"#utility.yul\":21187:21190   */\n      dup3\n        /* \"#utility.yul\":21178:21184   */\n      dup5\n        /* \"#utility.yul\":21116:21191   */\n      tag_344\n      jump\t// in\n    tag_602:\n        /* \"#utility.yul\":21216:21218   */\n      0x20\n        /* \"#utility.yul\":21211:21214   */\n      dup3\n        /* \"#utility.yul\":21207:21219   */\n      add\n        /* \"#utility.yul\":21200:21219   */\n      swap2\n      pop\n        /* \"#utility.yul\":21236:21239   */\n      dup2\n        /* \"#utility.yul\":21229:21239   */\n      swap1\n      pop\n        /* \"#utility.yul\":20566:21245   */\n      swap6\n      swap5\n      pop\n      pop\n      pop\n      pop\n      pop\n      jump\t// out\n        /* \"#utility.yul\":21251:21413   */\n    tag_345:\n        /* \"#utility.yul\":21391:21405   */\n      0x6e6f74207065726d697465640000000000000000000000000000000000000000\n        /* \"#utility.yul\":21387:21388   */\n      0x00\n        /* \"#utility.yul\":21379:21385   */\n      dup3\n        /* \"#utility.yul\":21375:21389   */\n      add\n        /* \"#utility.yul\":21368:21406   */\n      mstore\n        /* \"#utility.yul\":21251:21413   */\n      pop\n      jump\t// out\n        /* \"#utility.yul\":21419:21785   */\n    tag_346:\n        /* \"#utility.yul\":21561:21564   */\n      0x00\n        /* \"#utility.yul\":21582:21649   */\n      tag_605\n        /* \"#utility.yul\":21646:21648   */\n      0x0c\n        /* \"#utility.yul\":21641:21644   */\n      dup4\n        /* \"#utility.yul\":21582:21649   */\n      tag_312\n      jump\t// in\n    tag_605:\n        /* \"#utility.yul\":21575:21649   */\n      swap2\n      pop\n        /* \"#utility.yul\":21658:21751   */\n      tag_606\n        /* \"#utility.yul\":21747:21750   */\n      dup3\n        /* \"#utility.yul\":21658:21751   */\n      tag_345\n      jump\t// in\n    tag_606:\n        /* \"#utility.yul\":21776:21778   */\n      0x20\n        /* \"#utility.yul\":21771:21774   */\n      dup3\n        /* \"#utility.yul\":21767:21779   */\n      add\n        /* \"#utility.yul\":21760:21779   */\n      swap1\n      pop\n        /* \"#utility.yul\":21419:21785   */\n      swap2\n      swap1\n      pop\n      jump\t// out\n        /* \"#utility.yul\":21791:22210   */\n    tag_250:\n        /* \"#utility.yul\":21957:21961   */\n      0x00\n        /* \"#utility.yul\":21995:21997   */\n      0x20\n        /* \"#utility.yul\":21984:21993   */\n      dup3\n        /* \"#utility.yul\":21980:21998   */\n      add\n        /* \"#utility.yul\":21972:21998   */\n      swap1\n      pop\n        /* \"#utility.yul\":22044:22053   */\n      dup2\n        /* \"#utility.yul\":22038:22042   */\n      dup2\n        /* \"#utility.yul\":22034:22054   */\n      sub\n        /* \"#utility.yul\":22030:22031   */\n      0x00\n        /* \"#utility.yul\":22019:22028   */\n      dup4\n        /* \"#utility.yul\":22015:22032   */\n      add\n        /* \"#utility.yul\":22008:22055   */\n      mstore\n        /* \"#utility.yul\":22072:22203   */\n      tag_608\n        /* \"#utility.yul\":22198:22202   */\n      dup2\n        /* \"#utility.yul\":22072:22203   */\n      tag_346\n      jump\t// in\n    tag_608:\n        /* \"#utility.yul\":22064:22203   */\n      swap1\n      pop\n        /* \"#utility.yul\":21791:22210   */\n      swap2\n      swap1\n      pop\n      jump\t// out\n        /* \"#utility.yul\":22216:22314   */\n    tag_347:\n        /* \"#utility.yul\":22267:22273   */\n      0x00\n        /* \"#utility.yul\":22301:22306   */\n      dup2\n        /* \"#utility.yul\":22295:22307   */\n      mload\n        /* \"#utility.yul\":22285:22307   */\n      swap1\n      pop\n        /* \"#utility.yul\":22216:22314   */\n      swap2\n      swap1\n      pop\n      jump\t// out\n        /* \"#utility.yul\":22320:22467   */\n    tag_348:\n        /* \"#utility.yul\":22421:22432   */\n      0x00\n        /* \"#utility.yul\":22458:22461   */\n      dup2\n        /* \"#utility.yul\":22443:22461   */\n      swap1\n      pop\n        /* \"#utility.yul\":22320:22467   */\n      swap3\n      swap2\n      pop\n      pop\n      jump\t// out\n        /* \"#utility.yul\":22473:22859   */\n    tag_349:\n        /* \"#utility.yul\":22577:22580   */\n      0x00\n        /* \"#utility.yul\":22605:22643   */\n      tag_612\n        /* \"#utility.yul\":22637:22642   */\n      dup3\n        /* \"#utility.yul\":22605:22643   */\n      tag_347\n      jump\t// in\n    tag_612:\n        /* \"#utility.yul\":22659:22747   */\n      tag_613\n        /* \"#utility.yul\":22740:22746   */\n      dup2\n        /* \"#utility.yul\":22735:22738   */\n      dup6\n        /* \"#utility.yul\":22659:22747   */\n      tag_348\n      jump\t// in\n    tag_613:\n        /* \"#utility.yul\":22652:22747   */\n      swap4\n      pop\n        /* \"#utility.yul\":22756:22821   */\n      tag_614\n        /* \"#utility.yul\":22814:22820   */\n      dup2\n        /* \"#utility.yul\":22809:22812   */\n      dup6\n        /* \"#utility.yul\":22802:22806   */\n      0x20\n        /* \"#utility.yul\":22795:22800   */\n      dup7\n        /* \"#utility.yul\":22791:22807   */\n      add\n        /* \"#utility.yul\":22756:22821   */\n      tag_313\n      jump\t// in\n    tag_614:\n        /* \"#utility.yul\":22846:22852   */\n      dup1\n        /* \"#utility.yul\":22841:22844   */\n      dup5\n        /* \"#utility.yul\":22837:22853   */\n      add\n        /* \"#utility.yul\":22830:22853   */\n      swap2\n      pop\n        /* \"#utility.yul\":22581:22859   */\n      pop\n        /* \"#utility.yul\":22473:22859   */\n      swap3\n      swap2\n      pop\n      pop\n      jump\t// out\n        /* \"#utility.yul\":22865:23136   */\n    tag_252:\n        /* \"#utility.yul\":22995:22998   */\n      0x00\n        /* \"#utility.yul\":23017:23110   */\n      tag_616\n        /* \"#utility.yul\":23106:23109   */\n      dup3\n        /* \"#utility.yul\":23097:23103   */\n      dup5\n        /* \"#utility.yul\":23017:23110   */\n      tag_349\n      jump\t// in\n    tag_616:\n        /* \"#utility.yul\":23010:23110   */\n      swap2\n      pop\n        /* \"#utility.yul\":23127:23130   */\n      dup2\n        /* \"#utility.yul\":23120:23130   */\n      swap1\n      pop\n        /* \"#utility.yul\":22865:23136   */\n      swap3\n      swap2\n      pop\n      pop\n      jump\t// out\n        /* \"#utility.yul\":23142:23306   */\n    tag_350:\n        /* \"#utility.yul\":23282:23298   */\n      0x7369676e61747572652075736564000000000000000000000000000000000000\n        /* \"#utility.yul\":23278:23279   */\n      0x00\n        /* \"#utility.yul\":23270:23276   */\n      dup3\n        /* \"#utility.yul\":23266:23280   */\n      add\n        /* \"#utility.yul\":23259:23299   */\n      mstore\n        /* \"#utility.yul\":23142:23306   */\n      pop\n      jump\t// out\n        /* \"#utility.yul\":23312:23678   */\n    tag_351:\n        /* \"#utility.yul\":23454:23457   */\n      0x00\n        /* \"#utility.yul\":23475:23542   */\n      tag_619\n        /* \"#utility.yul\":23539:23541   */\n      0x0e\n        /* \"#utility.yul\":23534:23537   */\n      dup4\n        /* \"#utility.yul\":23475:23542   */\n      tag_312\n      jump\t// in\n    tag_619:\n        /* \"#utility.yul\":23468:23542   */\n      swap2\n      pop\n        /* \"#utility.yul\":23551:23644   */\n      tag_620\n        /* \"#utility.yul\":23640:23643   */\n      dup3\n        /* \"#utility.yul\":23551:23644   */\n      tag_350\n      jump\t// in\n    tag_620:\n        /* \"#utility.yul\":23669:23671   */\n      0x20\n        /* \"#utility.yul\":23664:23667   */\n      dup3\n        /* \"#utility.yul\":23660:23672   */\n      add\n        /* \"#utility.yul\":23653:23672   */\n      swap1\n      pop\n        /* \"#utility.yul\":23312:23678   */\n      swap2\n      swap1\n      pop\n      jump\t// out\n        /* \"#utility.yul\":23684:24103   */\n    tag_255:\n        /* \"#utility.yul\":23850:23854   */\n      0x00\n        /* \"#utility.yul\":23888:23890   */\n      0x20\n        /* \"#utility.yul\":23877:23886   */\n      dup3\n        /* \"#utility.yul\":23873:23891   */\n      add\n        /* \"#utility.yul\":23865:23891   */\n      swap1\n      pop\n        /* \"#utility.yul\":23937:23946   */\n      dup2\n        /* \"#utility.yul\":23931:23935   */\n      dup2\n        /* \"#utility.yul\":23927:23947   */\n      sub\n        /* \"#utility.yul\":23923:23924   */\n      0x00\n        /* \"#utility.yul\":23912:23921   */\n      dup4\n        /* \"#utility.yul\":23908:23925   */\n      add\n        /* \"#utility.yul\":23901:23948   */\n      mstore\n        /* \"#utility.yul\":23965:24096   */\n      tag_622\n        /* \"#utility.yul\":24091:24095   */\n      dup2\n        /* \"#utility.yul\":23965:24096   */\n      tag_351\n      jump\t// in\n    tag_622:\n        /* \"#utility.yul\":23957:24096   */\n      swap1\n      pop\n        /* \"#utility.yul\":23684:24103   */\n      swap2\n      swap1\n      pop\n      jump\t// out\n        /* \"#utility.yul\":24109:24257   */\n    tag_352:\n        /* \"#utility.yul\":24211:24222   */\n      0x00\n        /* \"#utility.yul\":24248:24251   */\n      dup2\n        /* \"#utility.yul\":24233:24251   */\n      swap1\n      pop\n        /* \"#utility.yul\":24109:24257   */\n      swap3\n      swap2\n      pop\n      pop\n      jump\t// out\n        /* \"#utility.yul\":24263:24477   */\n    tag_353:\n        /* \"#utility.yul\":24403:24469   */\n      0x19457468657265756d205369676e6564204d6573736167653a0a333200000000\n        /* \"#utility.yul\":24399:24400   */\n      0x00\n        /* \"#utility.yul\":24391:24397   */\n      dup3\n        /* \"#utility.yul\":24387:24401   */\n      add\n        /* \"#utility.yul\":24380:24470   */\n      mstore\n        /* \"#utility.yul\":24263:24477   */\n      pop\n      jump\t// out\n        /* \"#utility.yul\":24483:24885   */\n    tag_354:\n        /* \"#utility.yul\":24643:24646   */\n      0x00\n        /* \"#utility.yul\":24664:24749   */\n      tag_626\n        /* \"#utility.yul\":24746:24748   */\n      0x1c\n        /* \"#utility.yul\":24741:24744   */\n      dup4\n        /* \"#utility.yul\":24664:24749   */\n      tag_352\n      jump\t// in\n    tag_626:\n        /* \"#utility.yul\":24657:24749   */\n      swap2\n      pop\n        /* \"#utility.yul\":24758:24851   */\n      tag_627\n        /* \"#utility.yul\":24847:24850   */\n      dup3\n        /* \"#utility.yul\":24758:24851   */\n      tag_353\n      jump\t// in\n    tag_627:\n        /* \"#utility.yul\":24876:24878   */\n      0x1c\n        /* \"#utility.yul\":24871:24874   */\n      dup3\n        /* \"#utility.yul\":24867:24879   */\n      add\n        /* \"#utility.yul\":24860:24879   */\n      swap1\n      pop\n        /* \"#utility.yul\":24483:24885   */\n      swap2\n      swap1\n      pop\n      jump\t// out\n        /* \"#utility.yul\":24891:24968   */\n    tag_355:\n        /* \"#utility.yul\":24928:24935   */\n      0x00\n        /* \"#utility.yul\":24957:24962   */\n      dup2\n        /* \"#utility.yul\":24946:24962   */\n      swap1\n      pop\n        /* \"#utility.yul\":24891:24968   */\n      swap2\n      swap1\n      pop\n      jump\t// out\n        /* \"#utility.yul\":24974:25053   */\n    tag_356:\n        /* \"#utility.yul\":25013:25020   */\n      0x00\n        /* \"#utility.yul\":25042:25047   */\n      dup2\n        /* \"#utility.yul\":25031:25047   */\n      swap1\n      pop\n        /* \"#utility.yul\":24974:25053   */\n      swap2\n      swap1\n      pop\n      jump\t// out\n        /* \"#utility.yul\":25059:25216   */\n    tag_357:\n        /* \"#utility.yul\":25164:25209   */\n      tag_631\n        /* \"#utility.yul\":25184:25208   */\n      tag_632\n        /* \"#utility.yul\":25202:25207   */\n      dup3\n        /* \"#utility.yul\":25184:25208   */\n      tag_355\n      jump\t// in\n    tag_632:\n        /* \"#utility.yul\":25164:25209   */\n      tag_356\n      jump\t// in\n    tag_631:\n        /* \"#utility.yul\":25159:25162   */\n      dup3\n        /* \"#utility.yul\":25152:25210   */\n      mstore\n        /* \"#utility.yul\":25059:25216   */\n      pop\n      pop\n      jump\t// out\n        /* \"#utility.yul\":25222:25744   */\n    tag_267:\n        /* \"#utility.yul\":25435:25438   */\n      0x00\n        /* \"#utility.yul\":25457:25605   */\n      tag_634\n        /* \"#utility.yul\":25601:25604   */\n      dup3\n        /* \"#utility.yul\":25457:25605   */\n      tag_354\n      jump\t// in\n    tag_634:\n        /* \"#utility.yul\":25450:25605   */\n      swap2\n      pop\n        /* \"#utility.yul\":25615:25690   */\n      tag_635\n        /* \"#utility.yul\":25686:25689   */\n      dup3\n        /* \"#utility.yul\":25677:25683   */\n      dup5\n        /* \"#utility.yul\":25615:25690   */\n      tag_357\n      jump\t// in\n    tag_635:\n        /* \"#utility.yul\":25715:25717   */\n      0x20\n        /* \"#utility.yul\":25710:25713   */\n      dup3\n        /* \"#utility.yul\":25706:25718   */\n      add\n        /* \"#utility.yul\":25699:25718   */\n      swap2\n      pop\n        /* \"#utility.yul\":25735:25738   */\n      dup2\n        /* \"#utility.yul\":25728:25738   */\n      swap1\n      pop\n        /* \"#utility.yul\":25222:25744   */\n      swap3\n      swap2\n      pop\n      pop\n      jump\t// out\n        /* \"#utility.yul\":25750:25931   */\n    tag_358:\n        /* \"#utility.yul\":25890:25923   */\n      0x45434453413a20696e76616c6964207369676e6174757265206c656e67746800\n        /* \"#utility.yul\":25886:25887   */\n      0x00\n        /* \"#utility.yul\":25878:25884   */\n      dup3\n        /* \"#utility.yul\":25874:25888   */\n      add\n        /* \"#utility.yul\":25867:25924   */\n      mstore\n        /* \"#utility.yul\":25750:25931   */\n      pop\n      jump\t// out\n        /* \"#utility.yul\":25937:26303   */\n    tag_359:\n        /* \"#utility.yul\":26079:26082   */\n      0x00\n        /* \"#utility.yul\":26100:26167   */\n      tag_638\n        /* \"#utility.yul\":26164:26166   */\n      0x1f\n        /* \"#utility.yul\":26159:26162   */\n      dup4\n        /* \"#utility.yul\":26100:26167   */\n      tag_312\n      jump\t// in\n    tag_638:\n        /* \"#utility.yul\":26093:26167   */\n      swap2\n      pop\n        /* \"#utility.yul\":26176:26269   */\n      tag_639\n        /* \"#utility.yul\":26265:26268   */\n      dup3\n        /* \"#utility.yul\":26176:26269   */\n      tag_358\n      jump\t// in\n    tag_639:\n        /* \"#utility.yul\":26294:26296   */\n      0x20\n        /* \"#utility.yul\":26289:26292   */\n      dup3\n        /* \"#utility.yul\":26285:26297   */\n      add\n        /* \"#utility.yul\":26278:26297   */\n      swap1\n      pop\n        /* \"#utility.yul\":25937:26303   */\n      swap2\n      swap1\n      pop\n      jump\t// out\n        /* \"#utility.yul\":26309:26728   */\n    tag_271:\n        /* \"#utility.yul\":26475:26479   */\n      0x00\n        /* \"#utility.yul\":26513:26515   */\n      0x20\n        /* \"#utility.yul\":26502:26511   */\n      dup3\n        /* \"#utility.yul\":26498:26516   */\n      add\n        /* \"#utility.yul\":26490:26516   */\n      swap1\n      pop\n        /* \"#utility.yul\":26562:26571   */\n      dup2\n        /* \"#utility.yul\":26556:26560   */\n      dup2\n        /* \"#utility.yul\":26552:26572   */\n      sub\n        /* \"#utility.yul\":26548:26549   */\n      0x00\n        /* \"#utility.yul\":26537:26546   */\n      dup4\n        /* \"#utility.yul\":26533:26550   */\n      add\n        /* \"#utility.yul\":26526:26573   */\n      mstore\n        /* \"#utility.yul\":26590:26721   */\n      tag_641\n        /* \"#utility.yul\":26716:26720   */\n      dup2\n        /* \"#utility.yul\":26590:26721   */\n      tag_359\n      jump\t// in\n    tag_641:\n        /* \"#utility.yul\":26582:26721   */\n      swap1\n      pop\n        /* \"#utility.yul\":26309:26728   */\n      swap2\n      swap1\n      pop\n      jump\t// out\n        /* \"#utility.yul\":26734:26955   */\n    tag_360:\n        /* \"#utility.yul\":26874:26908   */\n      0x45434453413a20696e76616c6964207369676e6174757265202773272076616c\n        /* \"#utility.yul\":26870:26871   */\n      0x00\n        /* \"#utility.yul\":26862:26868   */\n      dup3\n        /* \"#utility.yul\":26858:26872   */\n      add\n        /* \"#utility.yul\":26851:26909   */\n      mstore\n        /* \"#utility.yul\":26943:26947   */\n      0x7565000000000000000000000000000000000000000000000000000000000000\n        /* \"#utility.yul\":26938:26940   */\n      0x20\n        /* \"#utility.yul\":26930:26936   */\n      dup3\n        /* \"#utility.yul\":26926:26941   */\n      add\n        /* \"#utility.yul\":26919:26948   */\n      mstore\n        /* \"#utility.yul\":26734:26955   */\n      pop\n      jump\t// out\n        /* \"#utility.yul\":26961:27327   */\n    tag_361:\n        /* \"#utility.yul\":27103:27106   */\n      0x00\n        /* \"#utility.yul\":27124:27191   */\n      tag_644\n        /* \"#utility.yul\":27188:27190   */\n      0x22\n        /* \"#utility.yul\":27183:27186   */\n      dup4\n        /* \"#utility.yul\":27124:27191   */\n      tag_312\n      jump\t// in\n    tag_644:\n        /* \"#utility.yul\":27117:27191   */\n      swap2\n      pop\n        /* \"#utility.yul\":27200:27293   */\n      tag_645\n        /* \"#utility.yul\":27289:27292   */\n      dup3\n        /* \"#utility.yul\":27200:27293   */\n      tag_360\n      jump\t// in\n    tag_645:\n        /* \"#utility.yul\":27318:27320   */\n      0x40\n        /* \"#utility.yul\":27313:27316   */\n      dup3\n        /* \"#utility.yul\":27309:27321   */\n      add\n        /* \"#utility.yul\":27302:27321   */\n      swap1\n      pop\n        /* \"#utility.yul\":26961:27327   */\n      swap2\n      swap1\n      pop\n      jump\t// out\n        /* \"#utility.yul\":27333:27752   */\n    tag_278:\n        /* \"#utility.yul\":27499:27503   */\n      0x00\n        /* \"#utility.yul\":27537:27539   */\n      0x20\n        /* \"#utility.yul\":27526:27535   */\n      dup3\n        /* \"#utility.yul\":27522:27540   */\n      add\n        /* \"#utility.yul\":27514:27540   */\n      swap1\n      pop\n        /* \"#utility.yul\":27586:27595   */\n      dup2\n        /* \"#utility.yul\":27580:27584   */\n      dup2\n        /* \"#utility.yul\":27576:27596   */\n      sub\n        /* \"#utility.yul\":27572:27573   */\n      0x00\n        /* \"#utility.yul\":27561:27570   */\n      dup4\n        /* \"#utility.yul\":27557:27574   */\n      add\n        /* \"#utility.yul\":27550:27597   */\n      mstore\n        /* \"#utility.yul\":27614:27745   */\n      tag_647\n        /* \"#utility.yul\":27740:27744   */\n      dup2\n        /* \"#utility.yul\":27614:27745   */\n      tag_361\n      jump\t// in\n    tag_647:\n        /* \"#utility.yul\":27606:27745   */\n      swap1\n      pop\n        /* \"#utility.yul\":27333:27752   */\n      swap2\n      swap1\n      pop\n      jump\t// out\n        /* \"#utility.yul\":27758:27979   */\n    tag_362:\n        /* \"#utility.yul\":27898:27932   */\n      0x45434453413a20696e76616c6964207369676e6174757265202776272076616c\n        /* \"#utility.yul\":27894:27895   */\n      0x00\n        /* \"#utility.yul\":27886:27892   */\n      dup3\n        /* \"#utility.yul\":27882:27896   */\n      add\n        /* \"#utility.yul\":27875:27933   */\n      mstore\n        /* \"#utility.yul\":27967:27971   */\n      0x7565000000000000000000000000000000000000000000000000000000000000\n        /* \"#utility.yul\":27962:27964   */\n      0x20\n        /* \"#utility.yul\":27954:27960   */\n      dup3\n        /* \"#utility.yul\":27950:27965   */\n      add\n        /* \"#utility.yul\":27943:27972   */\n      mstore\n        /* \"#utility.yul\":27758:27979   */\n      pop\n      jump\t// out\n        /* \"#utility.yul\":27985:28351   */\n    tag_363:\n        /* \"#utility.yul\":28127:28130   */\n      0x00\n        /* \"#utility.yul\":28148:28215   */\n      tag_650\n        /* \"#utility.yul\":28212:28214   */\n      0x22\n        /* \"#utility.yul\":28207:28210   */\n      dup4\n        /* \"#utility.yul\":28148:28215   */\n      tag_312\n      jump\t// in\n    tag_650:\n        /* \"#utility.yul\":28141:28215   */\n      swap2\n      pop\n        /* \"#utility.yul\":28224:28317   */\n      tag_651\n        /* \"#utility.yul\":28313:28316   */\n      dup3\n        /* \"#utility.yul\":28224:28317   */\n      tag_362\n      jump\t// in\n    tag_651:\n        /* \"#utility.yul\":28342:28344   */\n      0x40\n        /* \"#utility.yul\":28337:28340   */\n      dup3\n        /* \"#utility.yul\":28333:28345   */\n      add\n        /* \"#utility.yul\":28326:28345   */\n      swap1\n      pop\n        /* \"#utility.yul\":27985:28351   */\n      swap2\n      swap1\n      pop\n      jump\t// out\n        /* \"#utility.yul\":28357:28776   */\n    tag_282:\n        /* \"#utility.yul\":28523:28527   */\n      0x00\n        /* \"#utility.yul\":28561:28563   */\n      0x20\n        /* \"#utility.yul\":28550:28559   */\n      dup3\n        /* \"#utility.yul\":28546:28564   */\n      add\n        /* \"#utility.yul\":28538:28564   */\n      swap1\n      pop\n        /* \"#utility.yul\":28610:28619   */\n      dup2\n        /* \"#utility.yul\":28604:28608   */\n      dup2\n        /* \"#utility.yul\":28600:28620   */\n      sub\n        /* \"#utility.yul\":28596:28597   */\n      0x00\n        /* \"#utility.yul\":28585:28594   */\n      dup4\n        /* \"#utility.yul\":28581:28598   */\n      add\n        /* \"#utility.yul\":28574:28621   */\n      mstore\n        /* \"#utility.yul\":28638:28769   */\n      tag_653\n        /* \"#utility.yul\":28764:28768   */\n      dup2\n        /* \"#utility.yul\":28638:28769   */\n      tag_363\n      jump\t// in\n    tag_653:\n        /* \"#utility.yul\":28630:28769   */\n      swap1\n      pop\n        /* \"#utility.yul\":28357:28776   */\n      swap2\n      swap1\n      pop\n      jump\t// out\n        /* \"#utility.yul\":28782:28900   */\n    tag_364:\n        /* \"#utility.yul\":28869:28893   */\n      tag_655\n        /* \"#utility.yul\":28887:28892   */\n      dup2\n        /* \"#utility.yul\":28869:28893   */\n      tag_355\n      jump\t// in\n    tag_655:\n        /* \"#utility.yul\":28864:28867   */\n      dup3\n        /* \"#utility.yul\":28857:28894   */\n      mstore\n        /* \"#utility.yul\":28782:28900   */\n      pop\n      pop\n      jump\t// out\n        /* \"#utility.yul\":28906:29018   */\n    tag_365:\n        /* \"#utility.yul\":28989:29011   */\n      tag_657\n        /* \"#utility.yul\":29005:29010   */\n      dup2\n        /* \"#utility.yul\":28989:29011   */\n      tag_325\n      jump\t// in\n    tag_657:\n        /* \"#utility.yul\":28984:28987   */\n      dup3\n        /* \"#utility.yul\":28977:29012   */\n      mstore\n        /* \"#utility.yul\":28906:29018   */\n      pop\n      pop\n      jump\t// out\n        /* \"#utility.yul\":29024:29569   */\n    tag_284:\n        /* \"#utility.yul\":29197:29201   */\n      0x00\n        /* \"#utility.yul\":29235:29238   */\n      0x80\n        /* \"#utility.yul\":29224:29233   */\n      dup3\n        /* \"#utility.yul\":29220:29239   */\n      add\n        /* \"#utility.yul\":29212:29239   */\n      swap1\n      pop\n        /* \"#utility.yul\":29249:29320   */\n      tag_659\n        /* \"#utility.yul\":29317:29318   */\n      0x00\n        /* \"#utility.yul\":29306:29315   */\n      dup4\n        /* \"#utility.yul\":29302:29319   */\n      add\n        /* \"#utility.yul\":29293:29299   */\n      dup8\n        /* \"#utility.yul\":29249:29320   */\n      tag_364\n      jump\t// in\n    tag_659:\n        /* \"#utility.yul\":29330:29398   */\n      tag_660\n        /* \"#utility.yul\":29394:29396   */\n      0x20\n        /* \"#utility.yul\":29383:29392   */\n      dup4\n        /* \"#utility.yul\":29379:29397   */\n      add\n        /* \"#utility.yul\":29370:29376   */\n      dup7\n        /* \"#utility.yul\":29330:29398   */\n      tag_365\n      jump\t// in\n    tag_660:\n        /* \"#utility.yul\":29408:29480   */\n      tag_661\n        /* \"#utility.yul\":29476:29478   */\n      0x40\n        /* \"#utility.yul\":29465:29474   */\n      dup4\n        /* \"#utility.yul\":29461:29479   */\n      add\n        /* \"#utility.yul\":29452:29458   */\n      dup6\n        /* \"#utility.yul\":29408:29480   */\n      tag_364\n      jump\t// in\n    tag_661:\n        /* \"#utility.yul\":29490:29562   */\n      tag_662\n        /* \"#utility.yul\":29558:29560   */\n      0x60\n        /* \"#utility.yul\":29547:29556   */\n      dup4\n        /* \"#utility.yul\":29543:29561   */\n      add\n        /* \"#utility.yul\":29534:29540   */\n      dup5\n        /* \"#utility.yul\":29490:29562   */\n      tag_364\n      jump\t// in\n    tag_662:\n        /* \"#utility.yul\":29024:29569   */\n      swap6\n      swap5\n      pop\n      pop\n      pop\n      pop\n      pop\n      jump\t// out\n        /* \"#utility.yul\":29575:29749   */\n    tag_366:\n        /* \"#utility.yul\":29715:29741   */\n      0x45434453413a20696e76616c6964207369676e61747572650000000000000000\n        /* \"#utility.yul\":29711:29712   */\n      0x00\n        /* \"#utility.yul\":29703:29709   */\n      dup3\n        /* \"#utility.yul\":29699:29713   */\n      add\n        /* \"#utility.yul\":29692:29742   */\n      mstore\n        /* \"#utility.yul\":29575:29749   */\n      pop\n      jump\t// out\n        /* \"#utility.yul\":29755:30121   */\n    tag_367:\n        /* \"#utility.yul\":29897:29900   */\n      0x00\n        /* \"#utility.yul\":29918:29985   */\n      tag_665\n        /* \"#utility.yul\":29982:29984   */\n      0x18\n        /* \"#utility.yul\":29977:29980   */\n      dup4\n        /* \"#utility.yul\":29918:29985   */\n      tag_312\n      jump\t// in\n    tag_665:\n        /* \"#utility.yul\":29911:29985   */\n      swap2\n      pop\n        /* \"#utility.yul\":29994:30087   */\n      tag_666\n        /* \"#utility.yul\":30083:30086   */\n      dup3\n        /* \"#utility.yul\":29994:30087   */\n      tag_366\n      jump\t// in\n    tag_666:\n        /* \"#utility.yul\":30112:30114   */\n      0x20\n        /* \"#utility.yul\":30107:30110   */\n      dup3\n        /* \"#utility.yul\":30103:30115   */\n      add\n        /* \"#utility.yul\":30096:30115   */\n      swap1\n      pop\n        /* \"#utility.yul\":29755:30121   */\n      swap2\n      swap1\n      pop\n      jump\t// out\n        /* \"#utility.yul\":30127:30546   */\n    tag_289:\n        /* \"#utility.yul\":30293:30297   */\n      0x00\n        /* \"#utility.yul\":30331:30333   */\n      0x20\n        /* \"#utility.yul\":30320:30329   */\n      dup3\n        /* \"#utility.yul\":30316:30334   */\n      add\n        /* \"#utility.yul\":30308:30334   */\n      swap1\n      pop\n        /* \"#utility.yul\":30380:30389   */\n      dup2\n        /* \"#utility.yul\":30374:30378   */\n      dup2\n        /* \"#utility.yul\":30370:30390   */\n      sub\n        /* \"#utility.yul\":30366:30367   */\n      0x00\n        /* \"#utility.yul\":30355:30364   */\n      dup4\n        /* \"#utility.yul\":30351:30368   */\n      add\n        /* \"#utility.yul\":30344:30391   */\n      mstore\n        /* \"#utility.yul\":30408:30539   */\n      tag_668\n        /* \"#utility.yul\":30534:30538   */\n      dup2\n        /* \"#utility.yul\":30408:30539   */\n      tag_367\n      jump\t// in\n    tag_668:\n        /* \"#utility.yul\":30400:30539   */\n      swap1\n      pop\n        /* \"#utility.yul\":30127:30546   */\n      swap2\n      swap1\n      pop\n      jump\t// out\n\n    auxdata: 0xa264697066735822122055d85189c8f23f7a78e05dd84458a93389e20ab87243ea28e99e4482bcab315d64736f6c63430008160033\n}\n",
				"bytecode": {
					"linkReferences": {},
					"object": "608060405246600a5534801562000014575f80fd5b5060405162002bd138038062002bd183398181016040528101906200003a919062000425565b835f73ffffffffffffffffffffffffffffffffffffffff168173ffffffffffffffffffffffffffffffffffffffff1603620000ae575f6040517f1e4fbdf7000000000000000000000000000000000000000000000000000000008152600401620000a59190620004c4565b60405180910390fd5b620000bf816200017e60201b60201c565b5082600b9081620000d1919062000716565b50600a60038190555061138860048190555069021e19e0c9bab24000006006819055508160015f6101000a81548173ffffffffffffffffffffffffffffffffffffffff021916908373ffffffffffffffffffffffffffffffffffffffff1602179055508060025f6101000a81548173ffffffffffffffffffffffffffffffffffffffff021916908373ffffffffffffffffffffffffffffffffffffffff16021790555050505050620007fa565b5f805f9054906101000a900473ffffffffffffffffffffffffffffffffffffffff169050815f806101000a81548173ffffffffffffffffffffffffffffffffffffffff021916908373ffffffffffffffffffffffffffffffffffffffff1602179055508173ffffffffffffffffffffffffffffffffffffffff168173ffffffffffffffffffffffffffffffffffffffff167f8be0079c531659141344cd1fd0a4f28419497f9722a3daafe3b4186f6b6457e060405160405180910390a35050565b5f604051905090565b5f80fd5b5f80fd5b5f73ffffffffffffffffffffffffffffffffffffffff82169050919050565b5f6200027b8262000250565b9050919050565b6200028d816200026f565b811462000298575f80fd5b50565b5f81519050620002ab8162000282565b92915050565b5f80fd5b5f80fd5b5f601f19601f8301169050919050565b7f4e487b71000000000000000000000000000000000000000000000000000000005f52604160045260245ffd5b6200030182620002b9565b810181811067ffffffffffffffff82111715620003235762000322620002c9565b5b80604052505050565b5f620003376200023f565b9050620003458282620002f6565b919050565b5f67ffffffffffffffff821115620003675762000366620002c9565b5b6200037282620002b9565b9050602081019050919050565b5f5b838110156200039e57808201518184015260208101905062000381565b5f8484015250505050565b5f620003bf620003b9846200034a565b6200032c565b905082815260208101848484011115620003de57620003dd620002b5565b5b620003eb8482856200037f565b509392505050565b5f82601f8301126200040a5762000409620002b1565b5b81516200041c848260208601620003a9565b91505092915050565b5f805f806080858703121562000440576200043f62000248565b5b5f6200044f878288016200029b565b945050602085015167ffffffffffffffff8111156200047357620004726200024c565b5b6200048187828801620003f3565b935050604062000494878288016200029b565b9250506060620004a7878288016200029b565b91505092959194509250565b620004be816200026f565b82525050565b5f602082019050620004d95f830184620004b3565b92915050565b5f81519050919050565b7f4e487b71000000000000000000000000000000000000000000000000000000005f52602260045260245ffd5b5f60028204905060018216806200052e57607f821691505b602082108103620005445762000543620004e9565b5b50919050565b5f819050815f5260205f209050919050565b5f6020601f8301049050919050565b5f82821b905092915050565b5f60088302620005a87fffffffffffffffffffffffffffffffffffffffffffffffffffffffffffffffff826200056b565b620005b486836200056b565b95508019841693508086168417925050509392505050565b5f819050919050565b5f819050919050565b5f620005fe620005f8620005f284620005cc565b620005d5565b620005cc565b9050919050565b5f819050919050565b6200061983620005de565b62000631620006288262000605565b84845462000577565b825550505050565b5f90565b6200064762000639565b620006548184846200060e565b505050565b5b818110156200067b576200066f5f826200063d565b6001810190506200065a565b5050565b601f821115620006ca5762000694816200054a565b6200069f846200055c565b81016020851015620006af578190505b620006c7620006be856200055c565b83018262000659565b50505b505050565b5f82821c905092915050565b5f620006ec5f1984600802620006cf565b1980831691505092915050565b5f620007068383620006db565b9150826002028217905092915050565b6200072182620004df565b67ffffffffffffffff8111156200073d576200073c620002c9565b5b62000749825462000516565b620007568282856200067f565b5f60209050601f8311600181146200078c575f841562000777578287015190505b620007838582620006f9565b865550620007f2565b601f1984166200079c866200054a565b5f5b82811015620007c5578489015182556001820191506020850194506020810190506200079e565b86831015620007e55784890151620007e1601f891682620006db565b8355505b6001600288020188555050505b505050505050565b6123c980620008085f395ff3fe608060405234801561000f575f80fd5b5060043610610156575f3560e01c80638bc7e8c4116100c1578063c4a9e8581161007a578063c4a9e85814610362578063cd84980e14610380578063e1fefd421461039e578063e63ea408146103bc578063f2fde38b146103d8578063fd918716146103f457610156565b80638bc7e8c4146102b65780638da5cb5b146102d45780639683cdc4146102f2578063ac1e50251461030e578063bbe438431461032a578063c08e72861461034657610156565b806334fcf4371161011357806334fcf4371461021c57806362a5af3b1461023857806367a52793146102565780636b4c078914610274578063715018a61461029057806376ee947f1461029a57610156565b806306e0e5821461015a578063072fdf87146101785780630ace9ca0146101945780630d461e61146101b2578063258ba1ee146101e25780632c4e722e146101fe575b5f80fd5b610162610412565b60405161016f919061141a565b60405180910390f35b610192600480360381019061018d9190611604565b610418565b005b61019c610545565b6040516101a991906116fe565b60405180910390f35b6101cc60048036038101906101c7919061171e565b6105d1565b6040516101d9919061141a565b60405180910390f35b6101fc60048036038101906101f79190611749565b6106af565b005b61020661073b565b604051610213919061141a565b60405180910390f35b6102366004803603810190610231919061171e565b610741565b005b610240610753565b60405161024d91906117a1565b60405180910390f35b61025e610765565b60405161026b919061141a565b60405180910390f35b61028e600480360381019061028991906117e4565b61076b565b005b61029861078f565b005b6102b460048036038101906102af919061171e565b6107a2565b005b6102be6107b4565b6040516102cb919061141a565b60405180910390f35b6102dc6107ba565b6040516102e9919061181e565b60405180910390f35b61030c60048036038101906103079190611837565b6107e1565b005b6103286004803603810190610323919061171e565b6109a0565b005b610344600480360381019061033f9190611604565b6109b2565b005b610360600480360381019061035b919061171e565b610d37565b005b61036a610d5c565b604051610377919061141a565b60405180910390f35b610388610d62565b604051610395919061141a565b60405180910390f35b6103a6610d68565b6040516103b3919061141a565b60405180910390f35b6103d660048036038101906103d19190611862565b610d6e565b005b6103f260048036038101906103ed9190611837565b610df7565b005b6103fc610e7b565b604051610409919061141a565b60405180910390f35b60075481565b61042484848484610e81565b600654821015610469576040517f08c379a000000000000000000000000000000000000000000000000000000000815260040161046090611922565b60405180910390fd5b60025f9054906101000a900473ffffffffffffffffffffffffffffffffffffffff1673ffffffffffffffffffffffffffffffffffffffff1663a9059cbb84846040518363ffffffff1660e01b81526004016104c5929190611940565b6020604051808303815f875af11580156104e1573d5f803e3d5ffd5b505050506040513d601f19601f82011682018060405250810190610505919061197b565b507fba953728785de35be3827ee7a7a7867a8472947562602939440e6c0bdbf4725e8383604051610537929190611940565b60405180910390a150505050565b600b8054610552906119d3565b80601f016020809104026020016040519081016040528092919081815260200182805461057e906119d3565b80156105c95780601f106105a0576101008083540402835291602001916105c9565b820191905f5260205f20905b8154815290600101906020018083116105ac57829003601f168201915b505050505081565b5f80670de0b6b3a76400006004546105e99190611a30565b60015f9054906101000a900473ffffffffffffffffffffffffffffffffffffffff1673ffffffffffffffffffffffffffffffffffffffff1663313ce5676040518163ffffffff1660e01b8152600401602060405180830381865afa158015610653573d5f803e3d5ffd5b505050506040513d601f19601f820116820180604052508101906106779190611aa7565b600a6106839190611c01565b6001856106909190611a30565b61069a9190611a30565b6106a49190611c78565b905080915050919050565b6106b761108b565b8160015f6101000a81548173ffffffffffffffffffffffffffffffffffffffff021916908373ffffffffffffffffffffffffffffffffffffffff1602179055508060025f6101000a81548173ffffffffffffffffffffffffffffffffffffffff021916908373ffffffffffffffffffffffffffffffffffffffff1602179055505050565b60045481565b61074961108b565b8060048190555050565b600c5f9054906101000a900460ff1681565b60035481565b61077361108b565b80600c5f6101000a81548160ff02191690831515021790555050565b61079761108b565b6107a05f611112565b565b6107aa61108b565b8060038190555050565b60055481565b5f805f9054906101000a900473ffffffffffffffffffffffffffffffffffffffff16905090565b6107e961108b565b5f60015f9054906101000a900473ffffffffffffffffffffffffffffffffffffffff1673ffffffffffffffffffffffffffffffffffffffff166370a08231306040518263ffffffff1660e01b8152600401610844919061181e565b602060405180830381865afa15801561085f573d5f803e3d5ffd5b505050506040513d601f19601f820116820180604052508101906108839190611cbc565b90505f6007546009546008548461089a9190611ce7565b6108a49190611ce7565b6108ae9190611d1a565b90508060075f8282546108c19190611ce7565b925050819055505f6064600354836108d99190611a30565b6108e39190611c78565b90508060095f8282546108f69190611ce7565b9250508190555060015f9054906101000a900473ffffffffffffffffffffffffffffffffffffffff1673ffffffffffffffffffffffffffffffffffffffff1663a9059cbb85836040518363ffffffff1660e01b8152600401610959929190611940565b6020604051808303815f875af1158015610975573d5f803e3d5ffd5b505050506040513d601f19601f82011682018060405250810190610999919061197b565b5050505050565b6109a861108b565b8060058190555050565b6109be84848484610e81565b8160025f9054906101000a900473ffffffffffffffffffffffffffffffffffffffff1673ffffffffffffffffffffffffffffffffffffffff166370a08231856040518263ffffffff1660e01b8152600401610a19919061181e565b602060405180830381865afa158015610a34573d5f803e3d5ffd5b505050506040513d601f19601f82011682018060405250810190610a589190611cbc565b1015610a99576040517f08c379a0000000000000000000000000000000000000000000000000000000008152600401610a9090611d97565b60405180910390fd5b600654821015610ade576040517f08c379a0000000000000000000000000000000000000000000000000000000008152600401610ad590611922565b60405180910390fd5b5f610ae8836105d1565b90508060085f828254610afb9190611ce7565b925050819055505f606460055483610b139190611a30565b610b1d9190611c78565b90505f8183610b2c9190611d1a565b905060025f9054906101000a900473ffffffffffffffffffffffffffffffffffffffff1673ffffffffffffffffffffffffffffffffffffffff16639dc29fac87876040518363ffffffff1660e01b8152600401610b8a929190611940565b5f604051808303815f87803b158015610ba1575f80fd5b505af1158015610bb3573d5f803e3d5ffd5b5050505060015f9054906101000a900473ffffffffffffffffffffffffffffffffffffffff1673ffffffffffffffffffffffffffffffffffffffff1663a9059cbb87836040518363ffffffff1660e01b8152600401610c13929190611940565b6020604051808303815f875af1158015610c2f573d5f803e3d5ffd5b505050506040513d601f19601f82011682018060405250810190610c53919061197b565b5060015f9054906101000a900473ffffffffffffffffffffffffffffffffffffffff1673ffffffffffffffffffffffffffffffffffffffff1663a9059cbb33846040518363ffffffff1660e01b8152600401610cb0929190611940565b6020604051808303815f875af1158015610ccc573d5f803e3d5ffd5b505050506040513d601f19601f82011682018060405250810190610cf0919061197b565b507fc9ec92487a51a4894b66e92fa35d58109271421843b717e764249309f96ab9b586868385604051610d269493929190611db5565b60405180910390a150505050505050565b610d3f61108b565b670de0b6b3a764000081610d539190611a30565b60068190555050565b60095481565b600a5481565b60065481565b610d7661108b565b8273ffffffffffffffffffffffffffffffffffffffff1663a9059cbb83836040518363ffffffff1660e01b8152600401610db1929190611940565b6020604051808303815f875af1158015610dcd573d5f803e3d5ffd5b505050506040513d601f19601f82011682018060405250810190610df1919061197b565b50505050565b610dff61108b565b5f73ffffffffffffffffffffffffffffffffffffffff168173ffffffffffffffffffffffffffffffffffffffff1603610e6f575f6040517f1e4fbdf7000000000000000000000000000000000000000000000000000000008152600401610e66919061181e565b60405180910390fd5b610e7881611112565b50565b60085481565b5f1515600c5f9054906101000a900460ff16151514610ed5576040517f08c379a0000000000000000000000000000000000000000000000000000000008152600401610ecc90611e42565b60405180910390fd5b42811015610f18576040517f08c379a0000000000000000000000000000000000000000000000000000000008152600401610f0f90611eaa565b60405180910390fd5b5f838383600a54604051602001610f329493929190611f2d565b6040516020818303038152906040528051906020012090505f610f6686610f58846111d3565b61120290919063ffffffff16565b90508073ffffffffffffffffffffffffffffffffffffffff16610f876107ba565b73ffffffffffffffffffffffffffffffffffffffff1614610fdd576040517f08c379a0000000000000000000000000000000000000000000000000000000008152600401610fd490611fc4565b60405180910390fd5b5f1515600d87604051610ff09190612026565b90815260200160405180910390205f9054906101000a900460ff1615151461104d576040517f08c379a000000000000000000000000000000000000000000000000000000000815260040161104490612086565b60405180910390fd5b6001600d8760405161105f9190612026565b90815260200160405180910390205f6101000a81548160ff021916908315150217905550505050505050565b611093611278565b73ffffffffffffffffffffffffffffffffffffffff166110b16107ba565b73ffffffffffffffffffffffffffffffffffffffff1614611110576110d4611278565b6040517f118cdaa7000000000000000000000000000000000000000000000000000000008152600401611107919061181e565b60405180910390fd5b565b5f805f9054906101000a900473ffffffffffffffffffffffffffffffffffffffff169050815f806101000a81548173ffffffffffffffffffffffffffffffffffffffff021916908373ffffffffffffffffffffffffffffffffffffffff1602179055508173ffffffffffffffffffffffffffffffffffffffff168173ffffffffffffffffffffffffffffffffffffffff167f8be0079c531659141344cd1fd0a4f28419497f9722a3daafe3b4186f6b6457e060405160405180910390a35050565b5f816040516020016111e59190612121565b604051602081830303815290604052805190602001209050919050565b5f6041825114611247576040517f08c379a000000000000000000000000000000000000000000000000000000000815260040161123e90612190565b60405180910390fd5b5f805f602085015192506040850151915060608501515f1a905061126d8682858561127f565b935050505092915050565b5f33905090565b5f7f7fffffffffffffffffffffffffffffff5d576e7357a4501ddfe92f46681b20a0825f1c11156112e5576040517f08c379a00000000000000000000000000000000000000000000000000000000081526004016112dc9061221e565b60405180910390fd5b601b8460ff1614806112fa5750601c8460ff16145b611339576040517f08c379a0000000000000000000000000000000000000000000000000000000008152600401611330906122ac565b60405180910390fd5b5f6001868686866040515f815260200160405260405161135c94939291906122e8565b6020604051602081039080840390855afa15801561137c573d5f803e3d5ffd5b5050506020604051035190505f73ffffffffffffffffffffffffffffffffffffffff168173ffffffffffffffffffffffffffffffffffffffff16036113f6576040517f08c379a00000000000000000000000000000000000000000000000000000000081526004016113ed90612375565b60405180910390fd5b80915050949350505050565b5f819050919050565b61141481611402565b82525050565b5f60208201905061142d5f83018461140b565b92915050565b5f604051905090565b5f80fd5b5f80fd5b5f80fd5b5f80fd5b5f601f19601f8301169050919050565b7f4e487b71000000000000000000000000000000000000000000000000000000005f52604160045260245ffd5b6114928261144c565b810181811067ffffffffffffffff821117156114b1576114b061145c565b5b80604052505050565b5f6114c3611433565b90506114cf8282611489565b919050565b5f67ffffffffffffffff8211156114ee576114ed61145c565b5b6114f78261144c565b9050602081019050919050565b828183375f83830152505050565b5f61152461151f846114d4565b6114ba565b9050828152602081018484840111156115405761153f611448565b5b61154b848285611504565b509392505050565b5f82601f83011261156757611566611444565b5b8135611577848260208601611512565b91505092915050565b5f73ffffffffffffffffffffffffffffffffffffffff82169050919050565b5f6115a982611580565b9050919050565b6115b98161159f565b81146115c3575f80fd5b50565b5f813590506115d4816115b0565b92915050565b6115e381611402565b81146115ed575f80fd5b50565b5f813590506115fe816115da565b92915050565b5f805f806080858703121561161c5761161b61143c565b5b5f85013567ffffffffffffffff81111561163957611638611440565b5b61164587828801611553565b9450506020611656878288016115c6565b9350506040611667878288016115f0565b9250506060611678878288016115f0565b91505092959194509250565b5f81519050919050565b5f82825260208201905092915050565b5f5b838110156116bb5780820151818401526020810190506116a0565b5f8484015250505050565b5f6116d082611684565b6116da818561168e565b93506116ea81856020860161169e565b6116f38161144c565b840191505092915050565b5f6020820190508181035f83015261171681846116c6565b905092915050565b5f602082840312156117335761173261143c565b5b5f611740848285016115f0565b91505092915050565b5f806040838503121561175f5761175e61143c565b5b5f61176c858286016115c6565b925050602061177d858286016115c6565b9150509250929050565b5f8115159050919050565b61179b81611787565b82525050565b5f6020820190506117b45f830184611792565b92915050565b6117c381611787565b81146117cd575f80fd5b50565b5f813590506117de816117ba565b92915050565b5f602082840312156117f9576117f861143c565b5b5f611806848285016117d0565b91505092915050565b6118188161159f565b82525050565b5f6020820190506118315f83018461180f565b92915050565b5f6020828403121561184c5761184b61143c565b5b5f611859848285016115c6565b91505092915050565b5f805f606084860312156118795761187861143c565b5b5f611886868287016115c6565b9350506020611897868287016115c6565b92505060406118a8868287016115f0565b9150509250925092565b7f706f696e747320746f2073776170206c657373207468616e206d696e706f696e5f8201527f7473000000000000000000000000000000000000000000000000000000000000602082015250565b5f61190c60228361168e565b9150611917826118b2565b604082019050919050565b5f6020820190508181035f83015261193981611900565b9050919050565b5f6040820190506119535f83018561180f565b611960602083018461140b565b9392505050565b5f81519050611975816117ba565b92915050565b5f602082840312156119905761198f61143c565b5b5f61199d84828501611967565b91505092915050565b7f4e487b71000000000000000000000000000000000000000000000000000000005f52602260045260245ffd5b5f60028204905060018216806119ea57607f821691505b6020821081036119fd576119fc6119a6565b5b50919050565b7f4e487b71000000000000000000000000000000000000000000000000000000005f52601160045260245ffd5b5f611a3a82611402565b9150611a4583611402565b9250828202611a5381611402565b91508282048414831517611a6a57611a69611a03565b5b5092915050565b5f60ff82169050919050565b611a8681611a71565b8114611a90575f80fd5b50565b5f81519050611aa181611a7d565b92915050565b5f60208284031215611abc57611abb61143c565b5b5f611ac984828501611a93565b91505092915050565b5f8160011c9050919050565b5f808291508390505b6001851115611b2757808604811115611b0357611b02611a03565b5b6001851615611b125780820291505b8081029050611b2085611ad2565b9450611ae7565b94509492505050565b5f82611b3f5760019050611bfa565b81611b4c575f9050611bfa565b8160018114611b625760028114611b6c57611b9b565b6001915050611bfa565b60ff841115611b7e57611b7d611a03565b5b8360020a915084821115611b9557611b94611a03565b5b50611bfa565b5060208310610133831016604e8410600b8410161715611bd05782820a905083811115611bcb57611bca611a03565b5b611bfa565b611bdd8484846001611ade565b92509050818404811115611bf457611bf3611a03565b5b81810290505b9392505050565b5f611c0b82611402565b9150611c1683611a71565b9250611c437fffffffffffffffffffffffffffffffffffffffffffffffffffffffffffffffff8484611b30565b905092915050565b7f4e487b71000000000000000000000000000000000000000000000000000000005f52601260045260245ffd5b5f611c8282611402565b9150611c8d83611402565b925082611c9d57611c9c611c4b565b5b828204905092915050565b5f81519050611cb6816115da565b92915050565b5f60208284031215611cd157611cd061143c565b5b5f611cde84828501611ca8565b91505092915050565b5f611cf182611402565b9150611cfc83611402565b9250828201905080821115611d1457611d13611a03565b5b92915050565b5f611d2482611402565b9150611d2f83611402565b9250828203905081811115611d4757611d46611a03565b5b92915050565b7f6e6f7420656e6f75676820706f696e74730000000000000000000000000000005f82015250565b5f611d8160118361168e565b9150611d8c82611d4d565b602082019050919050565b5f6020820190508181035f830152611dae81611d75565b9050919050565b5f608082019050611dc85f83018761180f565b611dd5602083018661140b565b611de2604083018561140b565b611def606083018461140b565b95945050505050565b7f636f6e747261637420667265657a6564000000000000000000000000000000005f82015250565b5f611e2c60108361168e565b9150611e3782611df8565b602082019050919050565b5f6020820190508181035f830152611e5981611e20565b9050919050565b7f65787069726564207369676e61747572650000000000000000000000000000005f82015250565b5f611e9460118361168e565b9150611e9f82611e60565b602082019050919050565b5f6020820190508181035f830152611ec181611e88565b9050919050565b5f8160601b9050919050565b5f611ede82611ec8565b9050919050565b5f611eef82611ed4565b9050919050565b611f07611f028261159f565b611ee5565b82525050565b5f819050919050565b611f27611f2282611402565b611f0d565b82525050565b5f611f388287611ef6565b601482019150611f488286611f16565b602082019150611f588285611f16565b602082019150611f688284611f16565b60208201915081905095945050505050565b7f6e6f74207065726d6974656400000000000000000000000000000000000000005f82015250565b5f611fae600c8361168e565b9150611fb982611f7a565b602082019050919050565b5f6020820190508181035f830152611fdb81611fa2565b9050919050565b5f81519050919050565b5f81905092915050565b5f61200082611fe2565b61200a8185611fec565b935061201a81856020860161169e565b80840191505092915050565b5f6120318284611ff6565b915081905092915050565b7f7369676e617475726520757365640000000000000000000000000000000000005f82015250565b5f612070600e8361168e565b915061207b8261203c565b602082019050919050565b5f6020820190508181035f83015261209d81612064565b9050919050565b5f81905092915050565b7f19457468657265756d205369676e6564204d6573736167653a0a3332000000005f82015250565b5f6120e2601c836120a4565b91506120ed826120ae565b601c82019050919050565b5f819050919050565b5f819050919050565b61211b612116826120f8565b612101565b82525050565b5f61212b826120d6565b9150612137828461210a565b60208201915081905092915050565b7f45434453413a20696e76616c6964207369676e6174757265206c656e677468005f82015250565b5f61217a601f8361168e565b915061218582612146565b602082019050919050565b5f6020820190508181035f8301526121a78161216e565b9050919050565b7f45434453413a20696e76616c6964207369676e6174757265202773272076616c5f8201527f7565000000000000000000000000000000000000000000000000000000000000602082015250565b5f61220860228361168e565b9150612213826121ae565b604082019050919050565b5f6020820190508181035f830152612235816121fc565b9050919050565b7f45434453413a20696e76616c6964207369676e6174757265202776272076616c5f8201527f7565000000000000000000000000000000000000000000000000000000000000602082015250565b5f61229660228361168e565b91506122a18261223c565b604082019050919050565b5f6020820190508181035f8301526122c38161228a565b9050919050565b6122d3816120f8565b82525050565b6122e281611a71565b82525050565b5f6080820190506122fb5f8301876122ca565b61230860208301866122d9565b61231560408301856122ca565b61232260608301846122ca565b95945050505050565b7f45434453413a20696e76616c6964207369676e617475726500000000000000005f82015250565b5f61235f60188361168e565b915061236a8261232b565b602082019050919050565b5f6020820190508181035f83015261238c81612353565b905091905056fea264697066735822122055d85189c8f23f7a78e05dd84458a93389e20ab87243ea28e99e4482bcab315d64736f6c63430008160033",
					"opcodes": "PUSH1 0x80 PUSH1 0x40 MSTORE CHAINID PUSH1 0xA SSTORE CALLVALUE DUP1 ISZERO PUSH3 0x14 JUMPI PUSH0 DUP1 REVERT JUMPDEST POP PUSH1 0x40 MLOAD PUSH3 0x2BD1 CODESIZE SUB DUP1 PUSH3 0x2BD1 DUP4 CODECOPY DUP2 DUP2 ADD PUSH1 0x40 MSTORE DUP2 ADD SWAP1 PUSH3 0x3A SWAP2 SWAP1 PUSH3 0x425 JUMP JUMPDEST DUP4 PUSH0 PUSH20 0xFFFFFFFFFFFFFFFFFFFFFFFFFFFFFFFFFFFFFFFF AND DUP2 PUSH20 0xFFFFFFFFFFFFFFFFFFFFFFFFFFFFFFFFFFFFFFFF AND SUB PUSH3 0xAE JUMPI PUSH0 PUSH1 0x40 MLOAD PUSH32 0x1E4FBDF700000000000000000000000000000000000000000000000000000000 DUP2 MSTORE PUSH1 0x4 ADD PUSH3 0xA5 SWAP2 SWAP1 PUSH3 0x4C4 JUMP JUMPDEST PUSH1 0x40 MLOAD DUP1 SWAP2 SUB SWAP1 REVERT JUMPDEST PUSH3 0xBF DUP2 PUSH3 0x17E PUSH1 0x20 SHL PUSH1 0x20 SHR JUMP JUMPDEST POP DUP3 PUSH1 0xB SWAP1 DUP2 PUSH3 0xD1 SWAP2 SWAP1 PUSH3 0x716 JUMP JUMPDEST POP PUSH1 0xA PUSH1 0x3 DUP2 SWAP1 SSTORE POP PUSH2 0x1388 PUSH1 0x4 DUP2 SWAP1 SSTORE POP PUSH10 0x21E19E0C9BAB2400000 PUSH1 0x6 DUP2 SWAP1 SSTORE POP DUP2 PUSH1 0x1 PUSH0 PUSH2 0x100 EXP DUP2 SLOAD DUP2 PUSH20 0xFFFFFFFFFFFFFFFFFFFFFFFFFFFFFFFFFFFFFFFF MUL NOT AND SWAP1 DUP4 PUSH20 0xFFFFFFFFFFFFFFFFFFFFFFFFFFFFFFFFFFFFFFFF AND MUL OR SWAP1 SSTORE POP DUP1 PUSH1 0x2 PUSH0 PUSH2 0x100 EXP DUP2 SLOAD DUP2 PUSH20 0xFFFFFFFFFFFFFFFFFFFFFFFFFFFFFFFFFFFFFFFF MUL NOT AND SWAP1 DUP4 PUSH20 0xFFFFFFFFFFFFFFFFFFFFFFFFFFFFFFFFFFFFFFFF AND MUL OR SWAP1 SSTORE POP POP POP POP POP PUSH3 0x7FA JUMP JUMPDEST PUSH0 DUP1 PUSH0 SWAP1 SLOAD SWAP1 PUSH2 0x100 EXP SWAP1 DIV PUSH20 0xFFFFFFFFFFFFFFFFFFFFFFFFFFFFFFFFFFFFFFFF AND SWAP1 POP DUP2 PUSH0 DUP1 PUSH2 0x100 EXP DUP2 SLOAD DUP2 PUSH20 0xFFFFFFFFFFFFFFFFFFFFFFFFFFFFFFFFFFFFFFFF MUL NOT AND SWAP1 DUP4 PUSH20 0xFFFFFFFFFFFFFFFFFFFFFFFFFFFFFFFFFFFFFFFF AND MUL OR SWAP1 SSTORE POP DUP2 PUSH20 0xFFFFFFFFFFFFFFFFFFFFFFFFFFFFFFFFFFFFFFFF AND DUP2 PUSH20 0xFFFFFFFFFFFFFFFFFFFFFFFFFFFFFFFFFFFFFFFF AND PUSH32 0x8BE0079C531659141344CD1FD0A4F28419497F9722A3DAAFE3B4186F6B6457E0 PUSH1 0x40 MLOAD PUSH1 0x40 MLOAD DUP1 SWAP2 SUB SWAP1 LOG3 POP POP JUMP JUMPDEST PUSH0 PUSH1 0x40 MLOAD SWAP1 POP SWAP1 JUMP JUMPDEST PUSH0 DUP1 REVERT JUMPDEST PUSH0 DUP1 REVERT JUMPDEST PUSH0 PUSH20 0xFFFFFFFFFFFFFFFFFFFFFFFFFFFFFFFFFFFFFFFF DUP3 AND SWAP1 POP SWAP2 SWAP1 POP JUMP JUMPDEST PUSH0 PUSH3 0x27B DUP3 PUSH3 0x250 JUMP JUMPDEST SWAP1 POP SWAP2 SWAP1 POP JUMP JUMPDEST PUSH3 0x28D DUP2 PUSH3 0x26F JUMP JUMPDEST DUP2 EQ PUSH3 0x298 JUMPI PUSH0 DUP1 REVERT JUMPDEST POP JUMP JUMPDEST PUSH0 DUP2 MLOAD SWAP1 POP PUSH3 0x2AB DUP2 PUSH3 0x282 JUMP JUMPDEST SWAP3 SWAP2 POP POP JUMP JUMPDEST PUSH0 DUP1 REVERT JUMPDEST PUSH0 DUP1 REVERT JUMPDEST PUSH0 PUSH1 0x1F NOT PUSH1 0x1F DUP4 ADD AND SWAP1 POP SWAP2 SWAP1 POP JUMP JUMPDEST PUSH32 0x4E487B7100000000000000000000000000000000000000000000000000000000 PUSH0 MSTORE PUSH1 0x41 PUSH1 0x4 MSTORE PUSH1 0x24 PUSH0 REVERT JUMPDEST PUSH3 0x301 DUP3 PUSH3 0x2B9 JUMP JUMPDEST DUP2 ADD DUP2 DUP2 LT PUSH8 0xFFFFFFFFFFFFFFFF DUP3 GT OR ISZERO PUSH3 0x323 JUMPI PUSH3 0x322 PUSH3 0x2C9 JUMP JUMPDEST JUMPDEST DUP1 PUSH1 0x40 MSTORE POP POP POP JUMP JUMPDEST PUSH0 PUSH3 0x337 PUSH3 0x23F JUMP JUMPDEST SWAP1 POP PUSH3 0x345 DUP3 DUP3 PUSH3 0x2F6 JUMP JUMPDEST SWAP2 SWAP1 POP JUMP JUMPDEST PUSH0 PUSH8 0xFFFFFFFFFFFFFFFF DUP3 GT ISZERO PUSH3 0x367 JUMPI PUSH3 0x366 PUSH3 0x2C9 JUMP JUMPDEST JUMPDEST PUSH3 0x372 DUP3 PUSH3 0x2B9 JUMP JUMPDEST SWAP1 POP PUSH1 0x20 DUP2 ADD SWAP1 POP SWAP2 SWAP1 POP JUMP JUMPDEST PUSH0 JUMPDEST DUP4 DUP2 LT ISZERO PUSH3 0x39E JUMPI DUP1 DUP3 ADD MLOAD DUP2 DUP5 ADD MSTORE PUSH1 0x20 DUP2 ADD SWAP1 POP PUSH3 0x381 JUMP JUMPDEST PUSH0 DUP5 DUP5 ADD MSTORE POP POP POP POP JUMP JUMPDEST PUSH0 PUSH3 0x3BF PUSH3 0x3B9 DUP5 PUSH3 0x34A JUMP JUMPDEST PUSH3 0x32C JUMP JUMPDEST SWAP1 POP DUP3 DUP2 MSTORE PUSH1 0x20 DUP2 ADD DUP5 DUP5 DUP5 ADD GT ISZERO PUSH3 0x3DE JUMPI PUSH3 0x3DD PUSH3 0x2B5 JUMP JUMPDEST JUMPDEST PUSH3 0x3EB DUP5 DUP3 DUP6 PUSH3 0x37F JUMP JUMPDEST POP SWAP4 SWAP3 POP POP POP JUMP JUMPDEST PUSH0 DUP3 PUSH1 0x1F DUP4 ADD SLT PUSH3 0x40A JUMPI PUSH3 0x409 PUSH3 0x2B1 JUMP JUMPDEST JUMPDEST DUP2 MLOAD PUSH3 0x41C DUP5 DUP3 PUSH1 0x20 DUP7 ADD PUSH3 0x3A9 JUMP JUMPDEST SWAP2 POP POP SWAP3 SWAP2 POP POP JUMP JUMPDEST PUSH0 DUP1 PUSH0 DUP1 PUSH1 0x80 DUP6 DUP8 SUB SLT ISZERO PUSH3 0x440 JUMPI PUSH3 0x43F PUSH3 0x248 JUMP JUMPDEST JUMPDEST PUSH0 PUSH3 0x44F DUP8 DUP3 DUP9 ADD PUSH3 0x29B JUMP JUMPDEST SWAP5 POP POP PUSH1 0x20 DUP6 ADD MLOAD PUSH8 0xFFFFFFFFFFFFFFFF DUP2 GT ISZERO PUSH3 0x473 JUMPI PUSH3 0x472 PUSH3 0x24C JUMP JUMPDEST JUMPDEST PUSH3 0x481 DUP8 DUP3 DUP9 ADD PUSH3 0x3F3 JUMP JUMPDEST SWAP4 POP POP PUSH1 0x40 PUSH3 0x494 DUP8 DUP3 DUP9 ADD PUSH3 0x29B JUMP JUMPDEST SWAP3 POP POP PUSH1 0x60 PUSH3 0x4A7 DUP8 DUP3 DUP9 ADD PUSH3 0x29B JUMP JUMPDEST SWAP2 POP POP SWAP3 SWAP6 SWAP2 SWAP5 POP SWAP3 POP JUMP JUMPDEST PUSH3 0x4BE DUP2 PUSH3 0x26F JUMP JUMPDEST DUP3 MSTORE POP POP JUMP JUMPDEST PUSH0 PUSH1 0x20 DUP3 ADD SWAP1 POP PUSH3 0x4D9 PUSH0 DUP4 ADD DUP5 PUSH3 0x4B3 JUMP JUMPDEST SWAP3 SWAP2 POP POP JUMP JUMPDEST PUSH0 DUP2 MLOAD SWAP1 POP SWAP2 SWAP1 POP JUMP JUMPDEST PUSH32 0x4E487B7100000000000000000000000000000000000000000000000000000000 PUSH0 MSTORE PUSH1 0x22 PUSH1 0x4 MSTORE PUSH1 0x24 PUSH0 REVERT JUMPDEST PUSH0 PUSH1 0x2 DUP3 DIV SWAP1 POP PUSH1 0x1 DUP3 AND DUP1 PUSH3 0x52E JUMPI PUSH1 0x7F DUP3 AND SWAP2 POP JUMPDEST PUSH1 0x20 DUP3 LT DUP2 SUB PUSH3 0x544 JUMPI PUSH3 0x543 PUSH3 0x4E9 JUMP JUMPDEST JUMPDEST POP SWAP2 SWAP1 POP JUMP JUMPDEST PUSH0 DUP2 SWAP1 POP DUP2 PUSH0 MSTORE PUSH1 0x20 PUSH0 KECCAK256 SWAP1 POP SWAP2 SWAP1 POP JUMP JUMPDEST PUSH0 PUSH1 0x20 PUSH1 0x1F DUP4 ADD DIV SWAP1 POP SWAP2 SWAP1 POP JUMP JUMPDEST PUSH0 DUP3 DUP3 SHL SWAP1 POP SWAP3 SWAP2 POP POP JUMP JUMPDEST PUSH0 PUSH1 0x8 DUP4 MUL PUSH3 0x5A8 PUSH32 0xFFFFFFFFFFFFFFFFFFFFFFFFFFFFFFFFFFFFFFFFFFFFFFFFFFFFFFFFFFFFFFFF DUP3 PUSH3 0x56B JUMP JUMPDEST PUSH3 0x5B4 DUP7 DUP4 PUSH3 0x56B JUMP JUMPDEST SWAP6 POP DUP1 NOT DUP5 AND SWAP4 POP DUP1 DUP7 AND DUP5 OR SWAP3 POP POP POP SWAP4 SWAP3 POP POP POP JUMP JUMPDEST PUSH0 DUP2 SWAP1 POP SWAP2 SWAP1 POP JUMP JUMPDEST PUSH0 DUP2 SWAP1 POP SWAP2 SWAP1 POP JUMP JUMPDEST PUSH0 PUSH3 0x5FE PUSH3 0x5F8 PUSH3 0x5F2 DUP5 PUSH3 0x5CC JUMP JUMPDEST PUSH3 0x5D5 JUMP JUMPDEST PUSH3 0x5CC JUMP JUMPDEST SWAP1 POP SWAP2 SWAP1 POP JUMP JUMPDEST PUSH0 DUP2 SWAP1 POP SWAP2 SWAP1 POP JUMP JUMPDEST PUSH3 0x619 DUP4 PUSH3 0x5DE JUMP JUMPDEST PUSH3 0x631 PUSH3 0x628 DUP3 PUSH3 0x605 JUMP JUMPDEST DUP5 DUP5 SLOAD PUSH3 0x577 JUMP JUMPDEST DUP3 SSTORE POP POP POP POP JUMP JUMPDEST PUSH0 SWAP1 JUMP JUMPDEST PUSH3 0x647 PUSH3 0x639 JUMP JUMPDEST PUSH3 0x654 DUP2 DUP5 DUP5 PUSH3 0x60E JUMP JUMPDEST POP POP POP JUMP JUMPDEST JUMPDEST DUP2 DUP2 LT ISZERO PUSH3 0x67B JUMPI PUSH3 0x66F PUSH0 DUP3 PUSH3 0x63D JUMP JUMPDEST PUSH1 0x1 DUP2 ADD SWAP1 POP PUSH3 0x65A JUMP JUMPDEST POP POP JUMP JUMPDEST PUSH1 0x1F DUP3 GT ISZERO PUSH3 0x6CA JUMPI PUSH3 0x694 DUP2 PUSH3 0x54A JUMP JUMPDEST PUSH3 0x69F DUP5 PUSH3 0x55C JUMP JUMPDEST DUP2 ADD PUSH1 0x20 DUP6 LT ISZERO PUSH3 0x6AF JUMPI DUP2 SWAP1 POP JUMPDEST PUSH3 0x6C7 PUSH3 0x6BE DUP6 PUSH3 0x55C JUMP JUMPDEST DUP4 ADD DUP3 PUSH3 0x659 JUMP JUMPDEST POP POP JUMPDEST POP POP POP JUMP JUMPDEST PUSH0 DUP3 DUP3 SHR SWAP1 POP SWAP3 SWAP2 POP POP JUMP JUMPDEST PUSH0 PUSH3 0x6EC PUSH0 NOT DUP5 PUSH1 0x8 MUL PUSH3 0x6CF JUMP JUMPDEST NOT DUP1 DUP4 AND SWAP2 POP POP SWAP3 SWAP2 POP POP JUMP JUMPDEST PUSH0 PUSH3 0x706 DUP4 DUP4 PUSH3 0x6DB JUMP JUMPDEST SWAP2 POP DUP3 PUSH1 0x2 MUL DUP3 OR SWAP1 POP SWAP3 SWAP2 POP POP JUMP JUMPDEST PUSH3 0x721 DUP3 PUSH3 0x4DF JUMP JUMPDEST PUSH8 0xFFFFFFFFFFFFFFFF DUP2 GT ISZERO PUSH3 0x73D JUMPI PUSH3 0x73C PUSH3 0x2C9 JUMP JUMPDEST JUMPDEST PUSH3 0x749 DUP3 SLOAD PUSH3 0x516 JUMP JUMPDEST PUSH3 0x756 DUP3 DUP3 DUP6 PUSH3 0x67F JUMP JUMPDEST PUSH0 PUSH1 0x20 SWAP1 POP PUSH1 0x1F DUP4 GT PUSH1 0x1 DUP2 EQ PUSH3 0x78C JUMPI PUSH0 DUP5 ISZERO PUSH3 0x777 JUMPI DUP3 DUP8 ADD MLOAD SWAP1 POP JUMPDEST PUSH3 0x783 DUP6 DUP3 PUSH3 0x6F9 JUMP JUMPDEST DUP7 SSTORE POP PUSH3 0x7F2 JUMP JUMPDEST PUSH1 0x1F NOT DUP5 AND PUSH3 0x79C DUP7 PUSH3 0x54A JUMP JUMPDEST PUSH0 JUMPDEST DUP3 DUP2 LT ISZERO PUSH3 0x7C5 JUMPI DUP5 DUP10 ADD MLOAD DUP3 SSTORE PUSH1 0x1 DUP3 ADD SWAP2 POP PUSH1 0x20 DUP6 ADD SWAP5 POP PUSH1 0x20 DUP2 ADD SWAP1 POP PUSH3 0x79E JUMP JUMPDEST DUP7 DUP4 LT ISZERO PUSH3 0x7E5 JUMPI DUP5 DUP10 ADD MLOAD PUSH3 0x7E1 PUSH1 0x1F DUP10 AND DUP3 PUSH3 0x6DB JUMP JUMPDEST DUP4 SSTORE POP JUMPDEST PUSH1 0x1 PUSH1 0x2 DUP9 MUL ADD DUP9 SSTORE POP POP POP JUMPDEST POP POP POP POP POP POP JUMP JUMPDEST PUSH2 0x23C9 DUP1 PUSH3 0x808 PUSH0 CODECOPY PUSH0 RETURN INVALID PUSH1 0x80 PUSH1 0x40 MSTORE CALLVALUE DUP1 ISZERO PUSH2 0xF JUMPI PUSH0 DUP1 REVERT JUMPDEST POP PUSH1 0x4 CALLDATASIZE LT PUSH2 0x156 JUMPI PUSH0 CALLDATALOAD PUSH1 0xE0 SHR DUP1 PUSH4 0x8BC7E8C4 GT PUSH2 0xC1 JUMPI DUP1 PUSH4 0xC4A9E858 GT PUSH2 0x7A JUMPI DUP1 PUSH4 0xC4A9E858 EQ PUSH2 0x362 JUMPI DUP1 PUSH4 0xCD84980E EQ PUSH2 0x380 JUMPI DUP1 PUSH4 0xE1FEFD42 EQ PUSH2 0x39E JUMPI DUP1 PUSH4 0xE63EA408 EQ PUSH2 0x3BC JUMPI DUP1 PUSH4 0xF2FDE38B EQ PUSH2 0x3D8 JUMPI DUP1 PUSH4 0xFD918716 EQ PUSH2 0x3F4 JUMPI PUSH2 0x156 JUMP JUMPDEST DUP1 PUSH4 0x8BC7E8C4 EQ PUSH2 0x2B6 JUMPI DUP1 PUSH4 0x8DA5CB5B EQ PUSH2 0x2D4 JUMPI DUP1 PUSH4 0x9683CDC4 EQ PUSH2 0x2F2 JUMPI DUP1 PUSH4 0xAC1E5025 EQ PUSH2 0x30E JUMPI DUP1 PUSH4 0xBBE43843 EQ PUSH2 0x32A JUMPI DUP1 PUSH4 0xC08E7286 EQ PUSH2 0x346 JUMPI PUSH2 0x156 JUMP JUMPDEST DUP1 PUSH4 0x34FCF437 GT PUSH2 0x113 JUMPI DUP1 PUSH4 0x34FCF437 EQ PUSH2 0x21C JUMPI DUP1 PUSH4 0x62A5AF3B EQ PUSH2 0x238 JUMPI DUP1 PUSH4 0x67A52793 EQ PUSH2 0x256 JUMPI DUP1 PUSH4 0x6B4C0789 EQ PUSH2 0x274 JUMPI DUP1 PUSH4 0x715018A6 EQ PUSH2 0x290 JUMPI DUP1 PUSH4 0x76EE947F EQ PUSH2 0x29A JUMPI PUSH2 0x156 JUMP JUMPDEST DUP1 PUSH4 0x6E0E582 EQ PUSH2 0x15A JUMPI DUP1 PUSH4 0x72FDF87 EQ PUSH2 0x178 JUMPI DUP1 PUSH4 0xACE9CA0 EQ PUSH2 0x194 JUMPI DUP1 PUSH4 0xD461E61 EQ PUSH2 0x1B2 JUMPI DUP1 PUSH4 0x258BA1EE EQ PUSH2 0x1E2 JUMPI DUP1 PUSH4 0x2C4E722E EQ PUSH2 0x1FE JUMPI JUMPDEST PUSH0 DUP1 REVERT JUMPDEST PUSH2 0x162 PUSH2 0x412 JUMP JUMPDEST PUSH1 0x40 MLOAD PUSH2 0x16F SWAP2 SWAP1 PUSH2 0x141A JUMP JUMPDEST PUSH1 0x40 MLOAD DUP1 SWAP2 SUB SWAP1 RETURN JUMPDEST PUSH2 0x192 PUSH1 0x4 DUP1 CALLDATASIZE SUB DUP2 ADD SWAP1 PUSH2 0x18D SWAP2 SWAP1 PUSH2 0x1604 JUMP JUMPDEST PUSH2 0x418 JUMP JUMPDEST STOP JUMPDEST PUSH2 0x19C PUSH2 0x545 JUMP JUMPDEST PUSH1 0x40 MLOAD PUSH2 0x1A9 SWAP2 SWAP1 PUSH2 0x16FE JUMP JUMPDEST PUSH1 0x40 MLOAD DUP1 SWAP2 SUB SWAP1 RETURN JUMPDEST PUSH2 0x1CC PUSH1 0x4 DUP1 CALLDATASIZE SUB DUP2 ADD SWAP1 PUSH2 0x1C7 SWAP2 SWAP1 PUSH2 0x171E JUMP JUMPDEST PUSH2 0x5D1 JUMP JUMPDEST PUSH1 0x40 MLOAD PUSH2 0x1D9 SWAP2 SWAP1 PUSH2 0x141A JUMP JUMPDEST PUSH1 0x40 MLOAD DUP1 SWAP2 SUB SWAP1 RETURN JUMPDEST PUSH2 0x1FC PUSH1 0x4 DUP1 CALLDATASIZE SUB DUP2 ADD SWAP1 PUSH2 0x1F7 SWAP2 SWAP1 PUSH2 0x1749 JUMP JUMPDEST PUSH2 0x6AF JUMP JUMPDEST STOP JUMPDEST PUSH2 0x206 PUSH2 0x73B JUMP JUMPDEST PUSH1 0x40 MLOAD PUSH2 0x213 SWAP2 SWAP1 PUSH2 0x141A JUMP JUMPDEST PUSH1 0x40 MLOAD DUP1 SWAP2 SUB SWAP1 RETURN JUMPDEST PUSH2 0x236 PUSH1 0x4 DUP1 CALLDATASIZE SUB DUP2 ADD SWAP1 PUSH2 0x231 SWAP2 SWAP1 PUSH2 0x171E JUMP JUMPDEST PUSH2 0x741 JUMP JUMPDEST STOP JUMPDEST PUSH2 0x240 PUSH2 0x753 JUMP JUMPDEST PUSH1 0x40 MLOAD PUSH2 0x24D SWAP2 SWAP1 PUSH2 0x17A1 JUMP JUMPDEST PUSH1 0x40 MLOAD DUP1 SWAP2 SUB SWAP1 RETURN JUMPDEST PUSH2 0x25E PUSH2 0x765 JUMP JUMPDEST PUSH1 0x40 MLOAD PUSH2 0x26B SWAP2 SWAP1 PUSH2 0x141A JUMP JUMPDEST PUSH1 0x40 MLOAD DUP1 SWAP2 SUB SWAP1 RETURN JUMPDEST PUSH2 0x28E PUSH1 0x4 DUP1 CALLDATASIZE SUB DUP2 ADD SWAP1 PUSH2 0x289 SWAP2 SWAP1 PUSH2 0x17E4 JUMP JUMPDEST PUSH2 0x76B JUMP JUMPDEST STOP JUMPDEST PUSH2 0x298 PUSH2 0x78F JUMP JUMPDEST STOP JUMPDEST PUSH2 0x2B4 PUSH1 0x4 DUP1 CALLDATASIZE SUB DUP2 ADD SWAP1 PUSH2 0x2AF SWAP2 SWAP1 PUSH2 0x171E JUMP JUMPDEST PUSH2 0x7A2 JUMP JUMPDEST STOP JUMPDEST PUSH2 0x2BE PUSH2 0x7B4 JUMP JUMPDEST PUSH1 0x40 MLOAD PUSH2 0x2CB SWAP2 SWAP1 PUSH2 0x141A JUMP JUMPDEST PUSH1 0x40 MLOAD DUP1 SWAP2 SUB SWAP1 RETURN JUMPDEST PUSH2 0x2DC PUSH2 0x7BA JUMP JUMPDEST PUSH1 0x40 MLOAD PUSH2 0x2E9 SWAP2 SWAP1 PUSH2 0x181E JUMP JUMPDEST PUSH1 0x40 MLOAD DUP1 SWAP2 SUB SWAP1 RETURN JUMPDEST PUSH2 0x30C PUSH1 0x4 DUP1 CALLDATASIZE SUB DUP2 ADD SWAP1 PUSH2 0x307 SWAP2 SWAP1 PUSH2 0x1837 JUMP JUMPDEST PUSH2 0x7E1 JUMP JUMPDEST STOP JUMPDEST PUSH2 0x328 PUSH1 0x4 DUP1 CALLDATASIZE SUB DUP2 ADD SWAP1 PUSH2 0x323 SWAP2 SWAP1 PUSH2 0x171E JUMP JUMPDEST PUSH2 0x9A0 JUMP JUMPDEST STOP JUMPDEST PUSH2 0x344 PUSH1 0x4 DUP1 CALLDATASIZE SUB DUP2 ADD SWAP1 PUSH2 0x33F SWAP2 SWAP1 PUSH2 0x1604 JUMP JUMPDEST PUSH2 0x9B2 JUMP JUMPDEST STOP JUMPDEST PUSH2 0x360 PUSH1 0x4 DUP1 CALLDATASIZE SUB DUP2 ADD SWAP1 PUSH2 0x35B SWAP2 SWAP1 PUSH2 0x171E JUMP JUMPDEST PUSH2 0xD37 JUMP JUMPDEST STOP JUMPDEST PUSH2 0x36A PUSH2 0xD5C JUMP JUMPDEST PUSH1 0x40 MLOAD PUSH2 0x377 SWAP2 SWAP1 PUSH2 0x141A JUMP JUMPDEST PUSH1 0x40 MLOAD DUP1 SWAP2 SUB SWAP1 RETURN JUMPDEST PUSH2 0x388 PUSH2 0xD62 JUMP JUMPDEST PUSH1 0x40 MLOAD PUSH2 0x395 SWAP2 SWAP1 PUSH2 0x141A JUMP JUMPDEST PUSH1 0x40 MLOAD DUP1 SWAP2 SUB SWAP1 RETURN JUMPDEST PUSH2 0x3A6 PUSH2 0xD68 JUMP JUMPDEST PUSH1 0x40 MLOAD PUSH2 0x3B3 SWAP2 SWAP1 PUSH2 0x141A JUMP JUMPDEST PUSH1 0x40 MLOAD DUP1 SWAP2 SUB SWAP1 RETURN JUMPDEST PUSH2 0x3D6 PUSH1 0x4 DUP1 CALLDATASIZE SUB DUP2 ADD SWAP1 PUSH2 0x3D1 SWAP2 SWAP1 PUSH2 0x1862 JUMP JUMPDEST PUSH2 0xD6E JUMP JUMPDEST STOP JUMPDEST PUSH2 0x3F2 PUSH1 0x4 DUP1 CALLDATASIZE SUB DUP2 ADD SWAP1 PUSH2 0x3ED SWAP2 SWAP1 PUSH2 0x1837 JUMP JUMPDEST PUSH2 0xDF7 JUMP JUMPDEST STOP JUMPDEST PUSH2 0x3FC PUSH2 0xE7B JUMP JUMPDEST PUSH1 0x40 MLOAD PUSH2 0x409 SWAP2 SWAP1 PUSH2 0x141A JUMP JUMPDEST PUSH1 0x40 MLOAD DUP1 SWAP2 SUB SWAP1 RETURN JUMPDEST PUSH1 0x7 SLOAD DUP2 JUMP JUMPDEST PUSH2 0x424 DUP5 DUP5 DUP5 DUP5 PUSH2 0xE81 JUMP JUMPDEST PUSH1 0x6 SLOAD DUP3 LT ISZERO PUSH2 0x469 JUMPI PUSH1 0x40 MLOAD PUSH32 0x8C379A000000000000000000000000000000000000000000000000000000000 DUP2 MSTORE PUSH1 0x4 ADD PUSH2 0x460 SWAP1 PUSH2 0x1922 JUMP JUMPDEST PUSH1 0x40 MLOAD DUP1 SWAP2 SUB SWAP1 REVERT JUMPDEST PUSH1 0x2 PUSH0 SWAP1 SLOAD SWAP1 PUSH2 0x100 EXP SWAP1 DIV PUSH20 0xFFFFFFFFFFFFFFFFFFFFFFFFFFFFFFFFFFFFFFFF AND PUSH20 0xFFFFFFFFFFFFFFFFFFFFFFFFFFFFFFFFFFFFFFFF AND PUSH4 0xA9059CBB DUP5 DUP5 PUSH1 0x40 MLOAD DUP4 PUSH4 0xFFFFFFFF AND PUSH1 0xE0 SHL DUP2 MSTORE PUSH1 0x4 ADD PUSH2 0x4C5 SWAP3 SWAP2 SWAP1 PUSH2 0x1940 JUMP JUMPDEST PUSH1 0x20 PUSH1 0x40 MLOAD DUP1 DUP4 SUB DUP2 PUSH0 DUP8 GAS CALL ISZERO DUP1 ISZERO PUSH2 0x4E1 JUMPI RETURNDATASIZE PUSH0 DUP1 RETURNDATACOPY RETURNDATASIZE PUSH0 REVERT JUMPDEST POP POP POP POP PUSH1 0x40 MLOAD RETURNDATASIZE PUSH1 0x1F NOT PUSH1 0x1F DUP3 ADD AND DUP3 ADD DUP1 PUSH1 0x40 MSTORE POP DUP2 ADD SWAP1 PUSH2 0x505 SWAP2 SWAP1 PUSH2 0x197B JUMP JUMPDEST POP PUSH32 0xBA953728785DE35BE3827EE7A7A7867A8472947562602939440E6C0BDBF4725E DUP4 DUP4 PUSH1 0x40 MLOAD PUSH2 0x537 SWAP3 SWAP2 SWAP1 PUSH2 0x1940 JUMP JUMPDEST PUSH1 0x40 MLOAD DUP1 SWAP2 SUB SWAP1 LOG1 POP POP POP POP JUMP JUMPDEST PUSH1 0xB DUP1 SLOAD PUSH2 0x552 SWAP1 PUSH2 0x19D3 JUMP JUMPDEST DUP1 PUSH1 0x1F ADD PUSH1 0x20 DUP1 SWAP2 DIV MUL PUSH1 0x20 ADD PUSH1 0x40 MLOAD SWAP1 DUP2 ADD PUSH1 0x40 MSTORE DUP1 SWAP3 SWAP2 SWAP1 DUP2 DUP2 MSTORE PUSH1 0x20 ADD DUP3 DUP1 SLOAD PUSH2 0x57E SWAP1 PUSH2 0x19D3 JUMP JUMPDEST DUP1 ISZERO PUSH2 0x5C9 JUMPI DUP1 PUSH1 0x1F LT PUSH2 0x5A0 JUMPI PUSH2 0x100 DUP1 DUP4 SLOAD DIV MUL DUP4 MSTORE SWAP2 PUSH1 0x20 ADD SWAP2 PUSH2 0x5C9 JUMP JUMPDEST DUP3 ADD SWAP2 SWAP1 PUSH0 MSTORE PUSH1 0x20 PUSH0 KECCAK256 SWAP1 JUMPDEST DUP2 SLOAD DUP2 MSTORE SWAP1 PUSH1 0x1 ADD SWAP1 PUSH1 0x20 ADD DUP1 DUP4 GT PUSH2 0x5AC JUMPI DUP3 SWAP1 SUB PUSH1 0x1F AND DUP3 ADD SWAP2 JUMPDEST POP POP POP POP POP DUP2 JUMP JUMPDEST PUSH0 DUP1 PUSH8 0xDE0B6B3A7640000 PUSH1 0x4 SLOAD PUSH2 0x5E9 SWAP2 SWAP1 PUSH2 0x1A30 JUMP JUMPDEST PUSH1 0x1 PUSH0 SWAP1 SLOAD SWAP1 PUSH2 0x100 EXP SWAP1 DIV PUSH20 0xFFFFFFFFFFFFFFFFFFFFFFFFFFFFFFFFFFFFFFFF AND PUSH20 0xFFFFFFFFFFFFFFFFFFFFFFFFFFFFFFFFFFFFFFFF AND PUSH4 0x313CE567 PUSH1 0x40 MLOAD DUP2 PUSH4 0xFFFFFFFF AND PUSH1 0xE0 SHL DUP2 MSTORE PUSH1 0x4 ADD PUSH1 0x20 PUSH1 0x40 MLOAD DUP1 DUP4 SUB DUP2 DUP7 GAS STATICCALL ISZERO DUP1 ISZERO PUSH2 0x653 JUMPI RETURNDATASIZE PUSH0 DUP1 RETURNDATACOPY RETURNDATASIZE PUSH0 REVERT JUMPDEST POP POP POP POP PUSH1 0x40 MLOAD RETURNDATASIZE PUSH1 0x1F NOT PUSH1 0x1F DUP3 ADD AND DUP3 ADD DUP1 PUSH1 0x40 MSTORE POP DUP2 ADD SWAP1 PUSH2 0x677 SWAP2 SWAP1 PUSH2 0x1AA7 JUMP JUMPDEST PUSH1 0xA PUSH2 0x683 SWAP2 SWAP1 PUSH2 0x1C01 JUMP JUMPDEST PUSH1 0x1 DUP6 PUSH2 0x690 SWAP2 SWAP1 PUSH2 0x1A30 JUMP JUMPDEST PUSH2 0x69A SWAP2 SWAP1 PUSH2 0x1A30 JUMP JUMPDEST PUSH2 0x6A4 SWAP2 SWAP1 PUSH2 0x1C78 JUMP JUMPDEST SWAP1 POP DUP1 SWAP2 POP POP SWAP2 SWAP1 POP JUMP JUMPDEST PUSH2 0x6B7 PUSH2 0x108B JUMP JUMPDEST DUP2 PUSH1 0x1 PUSH0 PUSH2 0x100 EXP DUP2 SLOAD DUP2 PUSH20 0xFFFFFFFFFFFFFFFFFFFFFFFFFFFFFFFFFFFFFFFF MUL NOT AND SWAP1 DUP4 PUSH20 0xFFFFFFFFFFFFFFFFFFFFFFFFFFFFFFFFFFFFFFFF AND MUL OR SWAP1 SSTORE POP DUP1 PUSH1 0x2 PUSH0 PUSH2 0x100 EXP DUP2 SLOAD DUP2 PUSH20 0xFFFFFFFFFFFFFFFFFFFFFFFFFFFFFFFFFFFFFFFF MUL NOT AND SWAP1 DUP4 PUSH20 0xFFFFFFFFFFFFFFFFFFFFFFFFFFFFFFFFFFFFFFFF AND MUL OR SWAP1 SSTORE POP POP POP JUMP JUMPDEST PUSH1 0x4 SLOAD DUP2 JUMP JUMPDEST PUSH2 0x749 PUSH2 0x108B JUMP JUMPDEST DUP1 PUSH1 0x4 DUP2 SWAP1 SSTORE POP POP JUMP JUMPDEST PUSH1 0xC PUSH0 SWAP1 SLOAD SWAP1 PUSH2 0x100 EXP SWAP1 DIV PUSH1 0xFF AND DUP2 JUMP JUMPDEST PUSH1 0x3 SLOAD DUP2 JUMP JUMPDEST PUSH2 0x773 PUSH2 0x108B JUMP JUMPDEST DUP1 PUSH1 0xC PUSH0 PUSH2 0x100 EXP DUP2 SLOAD DUP2 PUSH1 0xFF MUL NOT AND SWAP1 DUP4 ISZERO ISZERO MUL OR SWAP1 SSTORE POP POP JUMP JUMPDEST PUSH2 0x797 PUSH2 0x108B JUMP JUMPDEST PUSH2 0x7A0 PUSH0 PUSH2 0x1112 JUMP JUMPDEST JUMP JUMPDEST PUSH2 0x7AA PUSH2 0x108B JUMP JUMPDEST DUP1 PUSH1 0x3 DUP2 SWAP1 SSTORE POP POP JUMP JUMPDEST PUSH1 0x5 SLOAD DUP2 JUMP JUMPDEST PUSH0 DUP1 PUSH0 SWAP1 SLOAD SWAP1 PUSH2 0x100 EXP SWAP1 DIV PUSH20 0xFFFFFFFFFFFFFFFFFFFFFFFFFFFFFFFFFFFFFFFF AND SWAP1 POP SWAP1 JUMP JUMPDEST PUSH2 0x7E9 PUSH2 0x108B JUMP JUMPDEST PUSH0 PUSH1 0x1 PUSH0 SWAP1 SLOAD SWAP1 PUSH2 0x100 EXP SWAP1 DIV PUSH20 0xFFFFFFFFFFFFFFFFFFFFFFFFFFFFFFFFFFFFFFFF AND PUSH20 0xFFFFFFFFFFFFFFFFFFFFFFFFFFFFFFFFFFFFFFFF AND PUSH4 0x70A08231 ADDRESS PUSH1 0x40 MLOAD DUP3 PUSH4 0xFFFFFFFF AND PUSH1 0xE0 SHL DUP2 MSTORE PUSH1 0x4 ADD PUSH2 0x844 SWAP2 SWAP1 PUSH2 0x181E JUMP JUMPDEST PUSH1 0x20 PUSH1 0x40 MLOAD DUP1 DUP4 SUB DUP2 DUP7 GAS STATICCALL ISZERO DUP1 ISZERO PUSH2 0x85F JUMPI RETURNDATASIZE PUSH0 DUP1 RETURNDATACOPY RETURNDATASIZE PUSH0 REVERT JUMPDEST POP POP POP POP PUSH1 0x40 MLOAD RETURNDATASIZE PUSH1 0x1F NOT PUSH1 0x1F DUP3 ADD AND DUP3 ADD DUP1 PUSH1 0x40 MSTORE POP DUP2 ADD SWAP1 PUSH2 0x883 SWAP2 SWAP1 PUSH2 0x1CBC JUMP JUMPDEST SWAP1 POP PUSH0 PUSH1 0x7 SLOAD PUSH1 0x9 SLOAD PUSH1 0x8 SLOAD DUP5 PUSH2 0x89A SWAP2 SWAP1 PUSH2 0x1CE7 JUMP JUMPDEST PUSH2 0x8A4 SWAP2 SWAP1 PUSH2 0x1CE7 JUMP JUMPDEST PUSH2 0x8AE SWAP2 SWAP1 PUSH2 0x1D1A JUMP JUMPDEST SWAP1 POP DUP1 PUSH1 0x7 PUSH0 DUP3 DUP3 SLOAD PUSH2 0x8C1 SWAP2 SWAP1 PUSH2 0x1CE7 JUMP JUMPDEST SWAP3 POP POP DUP2 SWAP1 SSTORE POP PUSH0 PUSH1 0x64 PUSH1 0x3 SLOAD DUP4 PUSH2 0x8D9 SWAP2 SWAP1 PUSH2 0x1A30 JUMP JUMPDEST PUSH2 0x8E3 SWAP2 SWAP1 PUSH2 0x1C78 JUMP JUMPDEST SWAP1 POP DUP1 PUSH1 0x9 PUSH0 DUP3 DUP3 SLOAD PUSH2 0x8F6 SWAP2 SWAP1 PUSH2 0x1CE7 JUMP JUMPDEST SWAP3 POP POP DUP2 SWAP1 SSTORE POP PUSH1 0x1 PUSH0 SWAP1 SLOAD SWAP1 PUSH2 0x100 EXP SWAP1 DIV PUSH20 0xFFFFFFFFFFFFFFFFFFFFFFFFFFFFFFFFFFFFFFFF AND PUSH20 0xFFFFFFFFFFFFFFFFFFFFFFFFFFFFFFFFFFFFFFFF AND PUSH4 0xA9059CBB DUP6 DUP4 PUSH1 0x40 MLOAD DUP4 PUSH4 0xFFFFFFFF AND PUSH1 0xE0 SHL DUP2 MSTORE PUSH1 0x4 ADD PUSH2 0x959 SWAP3 SWAP2 SWAP1 PUSH2 0x1940 JUMP JUMPDEST PUSH1 0x20 PUSH1 0x40 MLOAD DUP1 DUP4 SUB DUP2 PUSH0 DUP8 GAS CALL ISZERO DUP1 ISZERO PUSH2 0x975 JUMPI RETURNDATASIZE PUSH0 DUP1 RETURNDATACOPY RETURNDATASIZE PUSH0 REVERT JUMPDEST POP POP POP POP PUSH1 0x40 MLOAD RETURNDATASIZE PUSH1 0x1F NOT PUSH1 0x1F DUP3 ADD AND DUP3 ADD DUP1 PUSH1 0x40 MSTORE POP DUP2 ADD SWAP1 PUSH2 0x999 SWAP2 SWAP1 PUSH2 0x197B JUMP JUMPDEST POP POP POP POP POP JUMP JUMPDEST PUSH2 0x9A8 PUSH2 0x108B JUMP JUMPDEST DUP1 PUSH1 0x5 DUP2 SWAP1 SSTORE POP POP JUMP JUMPDEST PUSH2 0x9BE DUP5 DUP5 DUP5 DUP5 PUSH2 0xE81 JUMP JUMPDEST DUP2 PUSH1 0x2 PUSH0 SWAP1 SLOAD SWAP1 PUSH2 0x100 EXP SWAP1 DIV PUSH20 0xFFFFFFFFFFFFFFFFFFFFFFFFFFFFFFFFFFFFFFFF AND PUSH20 0xFFFFFFFFFFFFFFFFFFFFFFFFFFFFFFFFFFFFFFFF AND PUSH4 0x70A08231 DUP6 PUSH1 0x40 MLOAD DUP3 PUSH4 0xFFFFFFFF AND PUSH1 0xE0 SHL DUP2 MSTORE PUSH1 0x4 ADD PUSH2 0xA19 SWAP2 SWAP1 PUSH2 0x181E JUMP JUMPDEST PUSH1 0x20 PUSH1 0x40 MLOAD DUP1 DUP4 SUB DUP2 DUP7 GAS STATICCALL ISZERO DUP1 ISZERO PUSH2 0xA34 JUMPI RETURNDATASIZE PUSH0 DUP1 RETURNDATACOPY RETURNDATASIZE PUSH0 REVERT JUMPDEST POP POP POP POP PUSH1 0x40 MLOAD RETURNDATASIZE PUSH1 0x1F NOT PUSH1 0x1F DUP3 ADD AND DUP3 ADD DUP1 PUSH1 0x40 MSTORE POP DUP2 ADD SWAP1 PUSH2 0xA58 SWAP2 SWAP1 PUSH2 0x1CBC JUMP JUMPDEST LT ISZERO PUSH2 0xA99 JUMPI PUSH1 0x40 MLOAD PUSH32 0x8C379A000000000000000000000000000000000000000000000000000000000 DUP2 MSTORE PUSH1 0x4 ADD PUSH2 0xA90 SWAP1 PUSH2 0x1D97 JUMP JUMPDEST PUSH1 0x40 MLOAD DUP1 SWAP2 SUB SWAP1 REVERT JUMPDEST PUSH1 0x6 SLOAD DUP3 LT ISZERO PUSH2 0xADE JUMPI PUSH1 0x40 MLOAD PUSH32 0x8C379A000000000000000000000000000000000000000000000000000000000 DUP2 MSTORE PUSH1 0x4 ADD PUSH2 0xAD5 SWAP1 PUSH2 0x1922 JUMP JUMPDEST PUSH1 0x40 MLOAD DUP1 SWAP2 SUB SWAP1 REVERT JUMPDEST PUSH0 PUSH2 0xAE8 DUP4 PUSH2 0x5D1 JUMP JUMPDEST SWAP1 POP DUP1 PUSH1 0x8 PUSH0 DUP3 DUP3 SLOAD PUSH2 0xAFB SWAP2 SWAP1 PUSH2 0x1CE7 JUMP JUMPDEST SWAP3 POP POP DUP2 SWAP1 SSTORE POP PUSH0 PUSH1 0x64 PUSH1 0x5 SLOAD DUP4 PUSH2 0xB13 SWAP2 SWAP1 PUSH2 0x1A30 JUMP JUMPDEST PUSH2 0xB1D SWAP2 SWAP1 PUSH2 0x1C78 JUMP JUMPDEST SWAP1 POP PUSH0 DUP2 DUP4 PUSH2 0xB2C SWAP2 SWAP1 PUSH2 0x1D1A JUMP JUMPDEST SWAP1 POP PUSH1 0x2 PUSH0 SWAP1 SLOAD SWAP1 PUSH2 0x100 EXP SWAP1 DIV PUSH20 0xFFFFFFFFFFFFFFFFFFFFFFFFFFFFFFFFFFFFFFFF AND PUSH20 0xFFFFFFFFFFFFFFFFFFFFFFFFFFFFFFFFFFFFFFFF AND PUSH4 0x9DC29FAC DUP8 DUP8 PUSH1 0x40 MLOAD DUP4 PUSH4 0xFFFFFFFF AND PUSH1 0xE0 SHL DUP2 MSTORE PUSH1 0x4 ADD PUSH2 0xB8A SWAP3 SWAP2 SWAP1 PUSH2 0x1940 JUMP JUMPDEST PUSH0 PUSH1 0x40 MLOAD DUP1 DUP4 SUB DUP2 PUSH0 DUP8 DUP1 EXTCODESIZE ISZERO DUP1 ISZERO PUSH2 0xBA1 JUMPI PUSH0 DUP1 REVERT JUMPDEST POP GAS CALL ISZERO DUP1 ISZERO PUSH2 0xBB3 JUMPI RETURNDATASIZE PUSH0 DUP1 RETURNDATACOPY RETURNDATASIZE PUSH0 REVERT JUMPDEST POP POP POP POP PUSH1 0x1 PUSH0 SWAP1 SLOAD SWAP1 PUSH2 0x100 EXP SWAP1 DIV PUSH20 0xFFFFFFFFFFFFFFFFFFFFFFFFFFFFFFFFFFFFFFFF AND PUSH20 0xFFFFFFFFFFFFFFFFFFFFFFFFFFFFFFFFFFFFFFFF AND PUSH4 0xA9059CBB DUP8 DUP4 PUSH1 0x40 MLOAD DUP4 PUSH4 0xFFFFFFFF AND PUSH1 0xE0 SHL DUP2 MSTORE PUSH1 0x4 ADD PUSH2 0xC13 SWAP3 SWAP2 SWAP1 PUSH2 0x1940 JUMP JUMPDEST PUSH1 0x20 PUSH1 0x40 MLOAD DUP1 DUP4 SUB DUP2 PUSH0 DUP8 GAS CALL ISZERO DUP1 ISZERO PUSH2 0xC2F JUMPI RETURNDATASIZE PUSH0 DUP1 RETURNDATACOPY RETURNDATASIZE PUSH0 REVERT JUMPDEST POP POP POP POP PUSH1 0x40 MLOAD RETURNDATASIZE PUSH1 0x1F NOT PUSH1 0x1F DUP3 ADD AND DUP3 ADD DUP1 PUSH1 0x40 MSTORE POP DUP2 ADD SWAP1 PUSH2 0xC53 SWAP2 SWAP1 PUSH2 0x197B JUMP JUMPDEST POP PUSH1 0x1 PUSH0 SWAP1 SLOAD SWAP1 PUSH2 0x100 EXP SWAP1 DIV PUSH20 0xFFFFFFFFFFFFFFFFFFFFFFFFFFFFFFFFFFFFFFFF AND PUSH20 0xFFFFFFFFFFFFFFFFFFFFFFFFFFFFFFFFFFFFFFFF AND PUSH4 0xA9059CBB CALLER DUP5 PUSH1 0x40 MLOAD DUP4 PUSH4 0xFFFFFFFF AND PUSH1 0xE0 SHL DUP2 MSTORE PUSH1 0x4 ADD PUSH2 0xCB0 SWAP3 SWAP2 SWAP1 PUSH2 0x1940 JUMP JUMPDEST PUSH1 0x20 PUSH1 0x40 MLOAD DUP1 DUP4 SUB DUP2 PUSH0 DUP8 GAS CALL ISZERO DUP1 ISZERO PUSH2 0xCCC JUMPI RETURNDATASIZE PUSH0 DUP1 RETURNDATACOPY RETURNDATASIZE PUSH0 REVERT JUMPDEST POP POP POP POP PUSH1 0x40 MLOAD RETURNDATASIZE PUSH1 0x1F NOT PUSH1 0x1F DUP3 ADD AND DUP3 ADD DUP1 PUSH1 0x40 MSTORE POP DUP2 ADD SWAP1 PUSH2 0xCF0 SWAP2 SWAP1 PUSH2 0x197B JUMP JUMPDEST POP PUSH32 0xC9EC92487A51A4894B66E92FA35D58109271421843B717E764249309F96AB9B5 DUP7 DUP7 DUP4 DUP6 PUSH1 0x40 MLOAD PUSH2 0xD26 SWAP5 SWAP4 SWAP3 SWAP2 SWAP1 PUSH2 0x1DB5 JUMP JUMPDEST PUSH1 0x40 MLOAD DUP1 SWAP2 SUB SWAP1 LOG1 POP POP POP POP POP POP POP JUMP JUMPDEST PUSH2 0xD3F PUSH2 0x108B JUMP JUMPDEST PUSH8 0xDE0B6B3A7640000 DUP2 PUSH2 0xD53 SWAP2 SWAP1 PUSH2 0x1A30 JUMP JUMPDEST PUSH1 0x6 DUP2 SWAP1 SSTORE POP POP JUMP JUMPDEST PUSH1 0x9 SLOAD DUP2 JUMP JUMPDEST PUSH1 0xA SLOAD DUP2 JUMP JUMPDEST PUSH1 0x6 SLOAD DUP2 JUMP JUMPDEST PUSH2 0xD76 PUSH2 0x108B JUMP JUMPDEST DUP3 PUSH20 0xFFFFFFFFFFFFFFFFFFFFFFFFFFFFFFFFFFFFFFFF AND PUSH4 0xA9059CBB DUP4 DUP4 PUSH1 0x40 MLOAD DUP4 PUSH4 0xFFFFFFFF AND PUSH1 0xE0 SHL DUP2 MSTORE PUSH1 0x4 ADD PUSH2 0xDB1 SWAP3 SWAP2 SWAP1 PUSH2 0x1940 JUMP JUMPDEST PUSH1 0x20 PUSH1 0x40 MLOAD DUP1 DUP4 SUB DUP2 PUSH0 DUP8 GAS CALL ISZERO DUP1 ISZERO PUSH2 0xDCD JUMPI RETURNDATASIZE PUSH0 DUP1 RETURNDATACOPY RETURNDATASIZE PUSH0 REVERT JUMPDEST POP POP POP POP PUSH1 0x40 MLOAD RETURNDATASIZE PUSH1 0x1F NOT PUSH1 0x1F DUP3 ADD AND DUP3 ADD DUP1 PUSH1 0x40 MSTORE POP DUP2 ADD SWAP1 PUSH2 0xDF1 SWAP2 SWAP1 PUSH2 0x197B JUMP JUMPDEST POP POP POP POP JUMP JUMPDEST PUSH2 0xDFF PUSH2 0x108B JUMP JUMPDEST PUSH0 PUSH20 0xFFFFFFFFFFFFFFFFFFFFFFFFFFFFFFFFFFFFFFFF AND DUP2 PUSH20 0xFFFFFFFFFFFFFFFFFFFFFFFFFFFFFFFFFFFFFFFF AND SUB PUSH2 0xE6F JUMPI PUSH0 PUSH1 0x40 MLOAD PUSH32 0x1E4FBDF700000000000000000000000000000000000000000000000000000000 DUP2 MSTORE PUSH1 0x4 ADD PUSH2 0xE66 SWAP2 SWAP1 PUSH2 0x181E JUMP JUMPDEST PUSH1 0x40 MLOAD DUP1 SWAP2 SUB SWAP1 REVERT JUMPDEST PUSH2 0xE78 DUP2 PUSH2 0x1112 JUMP JUMPDEST POP JUMP JUMPDEST PUSH1 0x8 SLOAD DUP2 JUMP JUMPDEST PUSH0 ISZERO ISZERO PUSH1 0xC PUSH0 SWAP1 SLOAD SWAP1 PUSH2 0x100 EXP SWAP1 DIV PUSH1 0xFF AND ISZERO ISZERO EQ PUSH2 0xED5 JUMPI PUSH1 0x40 MLOAD PUSH32 0x8C379A000000000000000000000000000000000000000000000000000000000 DUP2 MSTORE PUSH1 0x4 ADD PUSH2 0xECC SWAP1 PUSH2 0x1E42 JUMP JUMPDEST PUSH1 0x40 MLOAD DUP1 SWAP2 SUB SWAP1 REVERT JUMPDEST TIMESTAMP DUP2 LT ISZERO PUSH2 0xF18 JUMPI PUSH1 0x40 MLOAD PUSH32 0x8C379A000000000000000000000000000000000000000000000000000000000 DUP2 MSTORE PUSH1 0x4 ADD PUSH2 0xF0F SWAP1 PUSH2 0x1EAA JUMP JUMPDEST PUSH1 0x40 MLOAD DUP1 SWAP2 SUB SWAP1 REVERT JUMPDEST PUSH0 DUP4 DUP4 DUP4 PUSH1 0xA SLOAD PUSH1 0x40 MLOAD PUSH1 0x20 ADD PUSH2 0xF32 SWAP5 SWAP4 SWAP3 SWAP2 SWAP1 PUSH2 0x1F2D JUMP JUMPDEST PUSH1 0x40 MLOAD PUSH1 0x20 DUP2 DUP4 SUB SUB DUP2 MSTORE SWAP1 PUSH1 0x40 MSTORE DUP1 MLOAD SWAP1 PUSH1 0x20 ADD KECCAK256 SWAP1 POP PUSH0 PUSH2 0xF66 DUP7 PUSH2 0xF58 DUP5 PUSH2 0x11D3 JUMP JUMPDEST PUSH2 0x1202 SWAP1 SWAP2 SWAP1 PUSH4 0xFFFFFFFF AND JUMP JUMPDEST SWAP1 POP DUP1 PUSH20 0xFFFFFFFFFFFFFFFFFFFFFFFFFFFFFFFFFFFFFFFF AND PUSH2 0xF87 PUSH2 0x7BA JUMP JUMPDEST PUSH20 0xFFFFFFFFFFFFFFFFFFFFFFFFFFFFFFFFFFFFFFFF AND EQ PUSH2 0xFDD JUMPI PUSH1 0x40 MLOAD PUSH32 0x8C379A000000000000000000000000000000000000000000000000000000000 DUP2 MSTORE PUSH1 0x4 ADD PUSH2 0xFD4 SWAP1 PUSH2 0x1FC4 JUMP JUMPDEST PUSH1 0x40 MLOAD DUP1 SWAP2 SUB SWAP1 REVERT JUMPDEST PUSH0 ISZERO ISZERO PUSH1 0xD DUP8 PUSH1 0x40 MLOAD PUSH2 0xFF0 SWAP2 SWAP1 PUSH2 0x2026 JUMP JUMPDEST SWAP1 DUP2 MSTORE PUSH1 0x20 ADD PUSH1 0x40 MLOAD DUP1 SWAP2 SUB SWAP1 KECCAK256 PUSH0 SWAP1 SLOAD SWAP1 PUSH2 0x100 EXP SWAP1 DIV PUSH1 0xFF AND ISZERO ISZERO EQ PUSH2 0x104D JUMPI PUSH1 0x40 MLOAD PUSH32 0x8C379A000000000000000000000000000000000000000000000000000000000 DUP2 MSTORE PUSH1 0x4 ADD PUSH2 0x1044 SWAP1 PUSH2 0x2086 JUMP JUMPDEST PUSH1 0x40 MLOAD DUP1 SWAP2 SUB SWAP1 REVERT JUMPDEST PUSH1 0x1 PUSH1 0xD DUP8 PUSH1 0x40 MLOAD PUSH2 0x105F SWAP2 SWAP1 PUSH2 0x2026 JUMP JUMPDEST SWAP1 DUP2 MSTORE PUSH1 0x20 ADD PUSH1 0x40 MLOAD DUP1 SWAP2 SUB SWAP1 KECCAK256 PUSH0 PUSH2 0x100 EXP DUP2 SLOAD DUP2 PUSH1 0xFF MUL NOT AND SWAP1 DUP4 ISZERO ISZERO MUL OR SWAP1 SSTORE POP POP POP POP POP POP POP JUMP JUMPDEST PUSH2 0x1093 PUSH2 0x1278 JUMP JUMPDEST PUSH20 0xFFFFFFFFFFFFFFFFFFFFFFFFFFFFFFFFFFFFFFFF AND PUSH2 0x10B1 PUSH2 0x7BA JUMP JUMPDEST PUSH20 0xFFFFFFFFFFFFFFFFFFFFFFFFFFFFFFFFFFFFFFFF AND EQ PUSH2 0x1110 JUMPI PUSH2 0x10D4 PUSH2 0x1278 JUMP JUMPDEST PUSH1 0x40 MLOAD PUSH32 0x118CDAA700000000000000000000000000000000000000000000000000000000 DUP2 MSTORE PUSH1 0x4 ADD PUSH2 0x1107 SWAP2 SWAP1 PUSH2 0x181E JUMP JUMPDEST PUSH1 0x40 MLOAD DUP1 SWAP2 SUB SWAP1 REVERT JUMPDEST JUMP JUMPDEST PUSH0 DUP1 PUSH0 SWAP1 SLOAD SWAP1 PUSH2 0x100 EXP SWAP1 DIV PUSH20 0xFFFFFFFFFFFFFFFFFFFFFFFFFFFFFFFFFFFFFFFF AND SWAP1 POP DUP2 PUSH0 DUP1 PUSH2 0x100 EXP DUP2 SLOAD DUP2 PUSH20 0xFFFFFFFFFFFFFFFFFFFFFFFFFFFFFFFFFFFFFFFF MUL NOT AND SWAP1 DUP4 PUSH20 0xFFFFFFFFFFFFFFFFFFFFFFFFFFFFFFFFFFFFFFFF AND MUL OR SWAP1 SSTORE POP DUP2 PUSH20 0xFFFFFFFFFFFFFFFFFFFFFFFFFFFFFFFFFFFFFFFF AND DUP2 PUSH20 0xFFFFFFFFFFFFFFFFFFFFFFFFFFFFFFFFFFFFFFFF AND PUSH32 0x8BE0079C531659141344CD1FD0A4F28419497F9722A3DAAFE3B4186F6B6457E0 PUSH1 0x40 MLOAD PUSH1 0x40 MLOAD DUP1 SWAP2 SUB SWAP1 LOG3 POP POP JUMP JUMPDEST PUSH0 DUP2 PUSH1 0x40 MLOAD PUSH1 0x20 ADD PUSH2 0x11E5 SWAP2 SWAP1 PUSH2 0x2121 JUMP JUMPDEST PUSH1 0x40 MLOAD PUSH1 0x20 DUP2 DUP4 SUB SUB DUP2 MSTORE SWAP1 PUSH1 0x40 MSTORE DUP1 MLOAD SWAP1 PUSH1 0x20 ADD KECCAK256 SWAP1 POP SWAP2 SWAP1 POP JUMP JUMPDEST PUSH0 PUSH1 0x41 DUP3 MLOAD EQ PUSH2 0x1247 JUMPI PUSH1 0x40 MLOAD PUSH32 0x8C379A000000000000000000000000000000000000000000000000000000000 DUP2 MSTORE PUSH1 0x4 ADD PUSH2 0x123E SWAP1 PUSH2 0x2190 JUMP JUMPDEST PUSH1 0x40 MLOAD DUP1 SWAP2 SUB SWAP1 REVERT JUMPDEST PUSH0 DUP1 PUSH0 PUSH1 0x20 DUP6 ADD MLOAD SWAP3 POP PUSH1 0x40 DUP6 ADD MLOAD SWAP2 POP PUSH1 0x60 DUP6 ADD MLOAD PUSH0 BYTE SWAP1 POP PUSH2 0x126D DUP7 DUP3 DUP6 DUP6 PUSH2 0x127F JUMP JUMPDEST SWAP4 POP POP POP POP SWAP3 SWAP2 POP POP JUMP JUMPDEST PUSH0 CALLER SWAP1 POP SWAP1 JUMP JUMPDEST PUSH0 PUSH32 0x7FFFFFFFFFFFFFFFFFFFFFFFFFFFFFFF5D576E7357A4501DDFE92F46681B20A0 DUP3 PUSH0 SHR GT ISZERO PUSH2 0x12E5 JUMPI PUSH1 0x40 MLOAD PUSH32 0x8C379A000000000000000000000000000000000000000000000000000000000 DUP2 MSTORE PUSH1 0x4 ADD PUSH2 0x12DC SWAP1 PUSH2 0x221E JUMP JUMPDEST PUSH1 0x40 MLOAD DUP1 SWAP2 SUB SWAP1 REVERT JUMPDEST PUSH1 0x1B DUP5 PUSH1 0xFF AND EQ DUP1 PUSH2 0x12FA JUMPI POP PUSH1 0x1C DUP5 PUSH1 0xFF AND EQ JUMPDEST PUSH2 0x1339 JUMPI PUSH1 0x40 MLOAD PUSH32 0x8C379A000000000000000000000000000000000000000000000000000000000 DUP2 MSTORE PUSH1 0x4 ADD PUSH2 0x1330 SWAP1 PUSH2 0x22AC JUMP JUMPDEST PUSH1 0x40 MLOAD DUP1 SWAP2 SUB SWAP1 REVERT JUMPDEST PUSH0 PUSH1 0x1 DUP7 DUP7 DUP7 DUP7 PUSH1 0x40 MLOAD PUSH0 DUP2 MSTORE PUSH1 0x20 ADD PUSH1 0x40 MSTORE PUSH1 0x40 MLOAD PUSH2 0x135C SWAP5 SWAP4 SWAP3 SWAP2 SWAP1 PUSH2 0x22E8 JUMP JUMPDEST PUSH1 0x20 PUSH1 0x40 MLOAD PUSH1 0x20 DUP2 SUB SWAP1 DUP1 DUP5 SUB SWAP1 DUP6 GAS STATICCALL ISZERO DUP1 ISZERO PUSH2 0x137C JUMPI RETURNDATASIZE PUSH0 DUP1 RETURNDATACOPY RETURNDATASIZE PUSH0 REVERT JUMPDEST POP POP POP PUSH1 0x20 PUSH1 0x40 MLOAD SUB MLOAD SWAP1 POP PUSH0 PUSH20 0xFFFFFFFFFFFFFFFFFFFFFFFFFFFFFFFFFFFFFFFF AND DUP2 PUSH20 0xFFFFFFFFFFFFFFFFFFFFFFFFFFFFFFFFFFFFFFFF AND SUB PUSH2 0x13F6 JUMPI PUSH1 0x40 MLOAD PUSH32 0x8C379A000000000000000000000000000000000000000000000000000000000 DUP2 MSTORE PUSH1 0x4 ADD PUSH2 0x13ED SWAP1 PUSH2 0x2375 JUMP JUMPDEST PUSH1 0x40 MLOAD DUP1 SWAP2 SUB SWAP1 REVERT JUMPDEST DUP1 SWAP2 POP POP SWAP5 SWAP4 POP POP POP POP JUMP JUMPDEST PUSH0 DUP2 SWAP1 POP SWAP2 SWAP1 POP JUMP JUMPDEST PUSH2 0x1414 DUP2 PUSH2 0x1402 JUMP JUMPDEST DUP3 MSTORE POP POP JUMP JUMPDEST PUSH0 PUSH1 0x20 DUP3 ADD SWAP1 POP PUSH2 0x142D PUSH0 DUP4 ADD DUP5 PUSH2 0x140B JUMP JUMPDEST SWAP3 SWAP2 POP POP JUMP JUMPDEST PUSH0 PUSH1 0x40 MLOAD SWAP1 POP SWAP1 JUMP JUMPDEST PUSH0 DUP1 REVERT JUMPDEST PUSH0 DUP1 REVERT JUMPDEST PUSH0 DUP1 REVERT JUMPDEST PUSH0 DUP1 REVERT JUMPDEST PUSH0 PUSH1 0x1F NOT PUSH1 0x1F DUP4 ADD AND SWAP1 POP SWAP2 SWAP1 POP JUMP JUMPDEST PUSH32 0x4E487B7100000000000000000000000000000000000000000000000000000000 PUSH0 MSTORE PUSH1 0x41 PUSH1 0x4 MSTORE PUSH1 0x24 PUSH0 REVERT JUMPDEST PUSH2 0x1492 DUP3 PUSH2 0x144C JUMP JUMPDEST DUP2 ADD DUP2 DUP2 LT PUSH8 0xFFFFFFFFFFFFFFFF DUP3 GT OR ISZERO PUSH2 0x14B1 JUMPI PUSH2 0x14B0 PUSH2 0x145C JUMP JUMPDEST JUMPDEST DUP1 PUSH1 0x40 MSTORE POP POP POP JUMP JUMPDEST PUSH0 PUSH2 0x14C3 PUSH2 0x1433 JUMP JUMPDEST SWAP1 POP PUSH2 0x14CF DUP3 DUP3 PUSH2 0x1489 JUMP JUMPDEST SWAP2 SWAP1 POP JUMP JUMPDEST PUSH0 PUSH8 0xFFFFFFFFFFFFFFFF DUP3 GT ISZERO PUSH2 0x14EE JUMPI PUSH2 0x14ED PUSH2 0x145C JUMP JUMPDEST JUMPDEST PUSH2 0x14F7 DUP3 PUSH2 0x144C JUMP JUMPDEST SWAP1 POP PUSH1 0x20 DUP2 ADD SWAP1 POP SWAP2 SWAP1 POP JUMP JUMPDEST DUP3 DUP2 DUP4 CALLDATACOPY PUSH0 DUP4 DUP4 ADD MSTORE POP POP POP JUMP JUMPDEST PUSH0 PUSH2 0x1524 PUSH2 0x151F DUP5 PUSH2 0x14D4 JUMP JUMPDEST PUSH2 0x14BA JUMP JUMPDEST SWAP1 POP DUP3 DUP2 MSTORE PUSH1 0x20 DUP2 ADD DUP5 DUP5 DUP5 ADD GT ISZERO PUSH2 0x1540 JUMPI PUSH2 0x153F PUSH2 0x1448 JUMP JUMPDEST JUMPDEST PUSH2 0x154B DUP5 DUP3 DUP6 PUSH2 0x1504 JUMP JUMPDEST POP SWAP4 SWAP3 POP POP POP JUMP JUMPDEST PUSH0 DUP3 PUSH1 0x1F DUP4 ADD SLT PUSH2 0x1567 JUMPI PUSH2 0x1566 PUSH2 0x1444 JUMP JUMPDEST JUMPDEST DUP2 CALLDATALOAD PUSH2 0x1577 DUP5 DUP3 PUSH1 0x20 DUP7 ADD PUSH2 0x1512 JUMP JUMPDEST SWAP2 POP POP SWAP3 SWAP2 POP POP JUMP JUMPDEST PUSH0 PUSH20 0xFFFFFFFFFFFFFFFFFFFFFFFFFFFFFFFFFFFFFFFF DUP3 AND SWAP1 POP SWAP2 SWAP1 POP JUMP JUMPDEST PUSH0 PUSH2 0x15A9 DUP3 PUSH2 0x1580 JUMP JUMPDEST SWAP1 POP SWAP2 SWAP1 POP JUMP JUMPDEST PUSH2 0x15B9 DUP2 PUSH2 0x159F JUMP JUMPDEST DUP2 EQ PUSH2 0x15C3 JUMPI PUSH0 DUP1 REVERT JUMPDEST POP JUMP JUMPDEST PUSH0 DUP2 CALLDATALOAD SWAP1 POP PUSH2 0x15D4 DUP2 PUSH2 0x15B0 JUMP JUMPDEST SWAP3 SWAP2 POP POP JUMP JUMPDEST PUSH2 0x15E3 DUP2 PUSH2 0x1402 JUMP JUMPDEST DUP2 EQ PUSH2 0x15ED JUMPI PUSH0 DUP1 REVERT JUMPDEST POP JUMP JUMPDEST PUSH0 DUP2 CALLDATALOAD SWAP1 POP PUSH2 0x15FE DUP2 PUSH2 0x15DA JUMP JUMPDEST SWAP3 SWAP2 POP POP JUMP JUMPDEST PUSH0 DUP1 PUSH0 DUP1 PUSH1 0x80 DUP6 DUP8 SUB SLT ISZERO PUSH2 0x161C JUMPI PUSH2 0x161B PUSH2 0x143C JUMP JUMPDEST JUMPDEST PUSH0 DUP6 ADD CALLDATALOAD PUSH8 0xFFFFFFFFFFFFFFFF DUP2 GT ISZERO PUSH2 0x1639 JUMPI PUSH2 0x1638 PUSH2 0x1440 JUMP JUMPDEST JUMPDEST PUSH2 0x1645 DUP8 DUP3 DUP9 ADD PUSH2 0x1553 JUMP JUMPDEST SWAP5 POP POP PUSH1 0x20 PUSH2 0x1656 DUP8 DUP3 DUP9 ADD PUSH2 0x15C6 JUMP JUMPDEST SWAP4 POP POP PUSH1 0x40 PUSH2 0x1667 DUP8 DUP3 DUP9 ADD PUSH2 0x15F0 JUMP JUMPDEST SWAP3 POP POP PUSH1 0x60 PUSH2 0x1678 DUP8 DUP3 DUP9 ADD PUSH2 0x15F0 JUMP JUMPDEST SWAP2 POP POP SWAP3 SWAP6 SWAP2 SWAP5 POP SWAP3 POP JUMP JUMPDEST PUSH0 DUP2 MLOAD SWAP1 POP SWAP2 SWAP1 POP JUMP JUMPDEST PUSH0 DUP3 DUP3 MSTORE PUSH1 0x20 DUP3 ADD SWAP1 POP SWAP3 SWAP2 POP POP JUMP JUMPDEST PUSH0 JUMPDEST DUP4 DUP2 LT ISZERO PUSH2 0x16BB JUMPI DUP1 DUP3 ADD MLOAD DUP2 DUP5 ADD MSTORE PUSH1 0x20 DUP2 ADD SWAP1 POP PUSH2 0x16A0 JUMP JUMPDEST PUSH0 DUP5 DUP5 ADD MSTORE POP POP POP POP JUMP JUMPDEST PUSH0 PUSH2 0x16D0 DUP3 PUSH2 0x1684 JUMP JUMPDEST PUSH2 0x16DA DUP2 DUP6 PUSH2 0x168E JUMP JUMPDEST SWAP4 POP PUSH2 0x16EA DUP2 DUP6 PUSH1 0x20 DUP7 ADD PUSH2 0x169E JUMP JUMPDEST PUSH2 0x16F3 DUP2 PUSH2 0x144C JUMP JUMPDEST DUP5 ADD SWAP2 POP POP SWAP3 SWAP2 POP POP JUMP JUMPDEST PUSH0 PUSH1 0x20 DUP3 ADD SWAP1 POP DUP2 DUP2 SUB PUSH0 DUP4 ADD MSTORE PUSH2 0x1716 DUP2 DUP5 PUSH2 0x16C6 JUMP JUMPDEST SWAP1 POP SWAP3 SWAP2 POP POP JUMP JUMPDEST PUSH0 PUSH1 0x20 DUP3 DUP5 SUB SLT ISZERO PUSH2 0x1733 JUMPI PUSH2 0x1732 PUSH2 0x143C JUMP JUMPDEST JUMPDEST PUSH0 PUSH2 0x1740 DUP5 DUP3 DUP6 ADD PUSH2 0x15F0 JUMP JUMPDEST SWAP2 POP POP SWAP3 SWAP2 POP POP JUMP JUMPDEST PUSH0 DUP1 PUSH1 0x40 DUP4 DUP6 SUB SLT ISZERO PUSH2 0x175F JUMPI PUSH2 0x175E PUSH2 0x143C JUMP JUMPDEST JUMPDEST PUSH0 PUSH2 0x176C DUP6 DUP3 DUP7 ADD PUSH2 0x15C6 JUMP JUMPDEST SWAP3 POP POP PUSH1 0x20 PUSH2 0x177D DUP6 DUP3 DUP7 ADD PUSH2 0x15C6 JUMP JUMPDEST SWAP2 POP POP SWAP3 POP SWAP3 SWAP1 POP JUMP JUMPDEST PUSH0 DUP2 ISZERO ISZERO SWAP1 POP SWAP2 SWAP1 POP JUMP JUMPDEST PUSH2 0x179B DUP2 PUSH2 0x1787 JUMP JUMPDEST DUP3 MSTORE POP POP JUMP JUMPDEST PUSH0 PUSH1 0x20 DUP3 ADD SWAP1 POP PUSH2 0x17B4 PUSH0 DUP4 ADD DUP5 PUSH2 0x1792 JUMP JUMPDEST SWAP3 SWAP2 POP POP JUMP JUMPDEST PUSH2 0x17C3 DUP2 PUSH2 0x1787 JUMP JUMPDEST DUP2 EQ PUSH2 0x17CD JUMPI PUSH0 DUP1 REVERT JUMPDEST POP JUMP JUMPDEST PUSH0 DUP2 CALLDATALOAD SWAP1 POP PUSH2 0x17DE DUP2 PUSH2 0x17BA JUMP JUMPDEST SWAP3 SWAP2 POP POP JUMP JUMPDEST PUSH0 PUSH1 0x20 DUP3 DUP5 SUB SLT ISZERO PUSH2 0x17F9 JUMPI PUSH2 0x17F8 PUSH2 0x143C JUMP JUMPDEST JUMPDEST PUSH0 PUSH2 0x1806 DUP5 DUP3 DUP6 ADD PUSH2 0x17D0 JUMP JUMPDEST SWAP2 POP POP SWAP3 SWAP2 POP POP JUMP JUMPDEST PUSH2 0x1818 DUP2 PUSH2 0x159F JUMP JUMPDEST DUP3 MSTORE POP POP JUMP JUMPDEST PUSH0 PUSH1 0x20 DUP3 ADD SWAP1 POP PUSH2 0x1831 PUSH0 DUP4 ADD DUP5 PUSH2 0x180F JUMP JUMPDEST SWAP3 SWAP2 POP POP JUMP JUMPDEST PUSH0 PUSH1 0x20 DUP3 DUP5 SUB SLT ISZERO PUSH2 0x184C JUMPI PUSH2 0x184B PUSH2 0x143C JUMP JUMPDEST JUMPDEST PUSH0 PUSH2 0x1859 DUP5 DUP3 DUP6 ADD PUSH2 0x15C6 JUMP JUMPDEST SWAP2 POP POP SWAP3 SWAP2 POP POP JUMP JUMPDEST PUSH0 DUP1 PUSH0 PUSH1 0x60 DUP5 DUP7 SUB SLT ISZERO PUSH2 0x1879 JUMPI PUSH2 0x1878 PUSH2 0x143C JUMP JUMPDEST JUMPDEST PUSH0 PUSH2 0x1886 DUP7 DUP3 DUP8 ADD PUSH2 0x15C6 JUMP JUMPDEST SWAP4 POP POP PUSH1 0x20 PUSH2 0x1897 DUP7 DUP3 DUP8 ADD PUSH2 0x15C6 JUMP JUMPDEST SWAP3 POP POP PUSH1 0x40 PUSH2 0x18A8 DUP7 DUP3 DUP8 ADD PUSH2 0x15F0 JUMP JUMPDEST SWAP2 POP POP SWAP3 POP SWAP3 POP SWAP3 JUMP JUMPDEST PUSH32 0x706F696E747320746F2073776170206C657373207468616E206D696E706F696E PUSH0 DUP3 ADD MSTORE PUSH32 0x7473000000000000000000000000000000000000000000000000000000000000 PUSH1 0x20 DUP3 ADD MSTORE POP JUMP JUMPDEST PUSH0 PUSH2 0x190C PUSH1 0x22 DUP4 PUSH2 0x168E JUMP JUMPDEST SWAP2 POP PUSH2 0x1917 DUP3 PUSH2 0x18B2 JUMP JUMPDEST PUSH1 0x40 DUP3 ADD SWAP1 POP SWAP2 SWAP1 POP JUMP JUMPDEST PUSH0 PUSH1 0x20 DUP3 ADD SWAP1 POP DUP2 DUP2 SUB PUSH0 DUP4 ADD MSTORE PUSH2 0x1939 DUP2 PUSH2 0x1900 JUMP JUMPDEST SWAP1 POP SWAP2 SWAP1 POP JUMP JUMPDEST PUSH0 PUSH1 0x40 DUP3 ADD SWAP1 POP PUSH2 0x1953 PUSH0 DUP4 ADD DUP6 PUSH2 0x180F JUMP JUMPDEST PUSH2 0x1960 PUSH1 0x20 DUP4 ADD DUP5 PUSH2 0x140B JUMP JUMPDEST SWAP4 SWAP3 POP POP POP JUMP JUMPDEST PUSH0 DUP2 MLOAD SWAP1 POP PUSH2 0x1975 DUP2 PUSH2 0x17BA JUMP JUMPDEST SWAP3 SWAP2 POP POP JUMP JUMPDEST PUSH0 PUSH1 0x20 DUP3 DUP5 SUB SLT ISZERO PUSH2 0x1990 JUMPI PUSH2 0x198F PUSH2 0x143C JUMP JUMPDEST JUMPDEST PUSH0 PUSH2 0x199D DUP5 DUP3 DUP6 ADD PUSH2 0x1967 JUMP JUMPDEST SWAP2 POP POP SWAP3 SWAP2 POP POP JUMP JUMPDEST PUSH32 0x4E487B7100000000000000000000000000000000000000000000000000000000 PUSH0 MSTORE PUSH1 0x22 PUSH1 0x4 MSTORE PUSH1 0x24 PUSH0 REVERT JUMPDEST PUSH0 PUSH1 0x2 DUP3 DIV SWAP1 POP PUSH1 0x1 DUP3 AND DUP1 PUSH2 0x19EA JUMPI PUSH1 0x7F DUP3 AND SWAP2 POP JUMPDEST PUSH1 0x20 DUP3 LT DUP2 SUB PUSH2 0x19FD JUMPI PUSH2 0x19FC PUSH2 0x19A6 JUMP JUMPDEST JUMPDEST POP SWAP2 SWAP1 POP JUMP JUMPDEST PUSH32 0x4E487B7100000000000000000000000000000000000000000000000000000000 PUSH0 MSTORE PUSH1 0x11 PUSH1 0x4 MSTORE PUSH1 0x24 PUSH0 REVERT JUMPDEST PUSH0 PUSH2 0x1A3A DUP3 PUSH2 0x1402 JUMP JUMPDEST SWAP2 POP PUSH2 0x1A45 DUP4 PUSH2 0x1402 JUMP JUMPDEST SWAP3 POP DUP3 DUP3 MUL PUSH2 0x1A53 DUP2 PUSH2 0x1402 JUMP JUMPDEST SWAP2 POP DUP3 DUP3 DIV DUP5 EQ DUP4 ISZERO OR PUSH2 0x1A6A JUMPI PUSH2 0x1A69 PUSH2 0x1A03 JUMP JUMPDEST JUMPDEST POP SWAP3 SWAP2 POP POP JUMP JUMPDEST PUSH0 PUSH1 0xFF DUP3 AND SWAP1 POP SWAP2 SWAP1 POP JUMP JUMPDEST PUSH2 0x1A86 DUP2 PUSH2 0x1A71 JUMP JUMPDEST DUP2 EQ PUSH2 0x1A90 JUMPI PUSH0 DUP1 REVERT JUMPDEST POP JUMP JUMPDEST PUSH0 DUP2 MLOAD SWAP1 POP PUSH2 0x1AA1 DUP2 PUSH2 0x1A7D JUMP JUMPDEST SWAP3 SWAP2 POP POP JUMP JUMPDEST PUSH0 PUSH1 0x20 DUP3 DUP5 SUB SLT ISZERO PUSH2 0x1ABC JUMPI PUSH2 0x1ABB PUSH2 0x143C JUMP JUMPDEST JUMPDEST PUSH0 PUSH2 0x1AC9 DUP5 DUP3 DUP6 ADD PUSH2 0x1A93 JUMP JUMPDEST SWAP2 POP POP SWAP3 SWAP2 POP POP JUMP JUMPDEST PUSH0 DUP2 PUSH1 0x1 SHR SWAP1 POP SWAP2 SWAP1 POP JUMP JUMPDEST PUSH0 DUP1 DUP3 SWAP2 POP DUP4 SWAP1 POP JUMPDEST PUSH1 0x1 DUP6 GT ISZERO PUSH2 0x1B27 JUMPI DUP1 DUP7 DIV DUP2 GT ISZERO PUSH2 0x1B03 JUMPI PUSH2 0x1B02 PUSH2 0x1A03 JUMP JUMPDEST JUMPDEST PUSH1 0x1 DUP6 AND ISZERO PUSH2 0x1B12 JUMPI DUP1 DUP3 MUL SWAP2 POP JUMPDEST DUP1 DUP2 MUL SWAP1 POP PUSH2 0x1B20 DUP6 PUSH2 0x1AD2 JUMP JUMPDEST SWAP5 POP PUSH2 0x1AE7 JUMP JUMPDEST SWAP5 POP SWAP5 SWAP3 POP POP POP JUMP JUMPDEST PUSH0 DUP3 PUSH2 0x1B3F JUMPI PUSH1 0x1 SWAP1 POP PUSH2 0x1BFA JUMP JUMPDEST DUP2 PUSH2 0x1B4C JUMPI PUSH0 SWAP1 POP PUSH2 0x1BFA JUMP JUMPDEST DUP2 PUSH1 0x1 DUP2 EQ PUSH2 0x1B62 JUMPI PUSH1 0x2 DUP2 EQ PUSH2 0x1B6C JUMPI PUSH2 0x1B9B JUMP JUMPDEST PUSH1 0x1 SWAP2 POP POP PUSH2 0x1BFA JUMP JUMPDEST PUSH1 0xFF DUP5 GT ISZERO PUSH2 0x1B7E JUMPI PUSH2 0x1B7D PUSH2 0x1A03 JUMP JUMPDEST JUMPDEST DUP4 PUSH1 0x2 EXP SWAP2 POP DUP5 DUP3 GT ISZERO PUSH2 0x1B95 JUMPI PUSH2 0x1B94 PUSH2 0x1A03 JUMP JUMPDEST JUMPDEST POP PUSH2 0x1BFA JUMP JUMPDEST POP PUSH1 0x20 DUP4 LT PUSH2 0x133 DUP4 LT AND PUSH1 0x4E DUP5 LT PUSH1 0xB DUP5 LT AND OR ISZERO PUSH2 0x1BD0 JUMPI DUP3 DUP3 EXP SWAP1 POP DUP4 DUP2 GT ISZERO PUSH2 0x1BCB JUMPI PUSH2 0x1BCA PUSH2 0x1A03 JUMP JUMPDEST JUMPDEST PUSH2 0x1BFA JUMP JUMPDEST PUSH2 0x1BDD DUP5 DUP5 DUP5 PUSH1 0x1 PUSH2 0x1ADE JUMP JUMPDEST SWAP3 POP SWAP1 POP DUP2 DUP5 DIV DUP2 GT ISZERO PUSH2 0x1BF4 JUMPI PUSH2 0x1BF3 PUSH2 0x1A03 JUMP JUMPDEST JUMPDEST DUP2 DUP2 MUL SWAP1 POP JUMPDEST SWAP4 SWAP3 POP POP POP JUMP JUMPDEST PUSH0 PUSH2 0x1C0B DUP3 PUSH2 0x1402 JUMP JUMPDEST SWAP2 POP PUSH2 0x1C16 DUP4 PUSH2 0x1A71 JUMP JUMPDEST SWAP3 POP PUSH2 0x1C43 PUSH32 0xFFFFFFFFFFFFFFFFFFFFFFFFFFFFFFFFFFFFFFFFFFFFFFFFFFFFFFFFFFFFFFFF DUP5 DUP5 PUSH2 0x1B30 JUMP JUMPDEST SWAP1 POP SWAP3 SWAP2 POP POP JUMP JUMPDEST PUSH32 0x4E487B7100000000000000000000000000000000000000000000000000000000 PUSH0 MSTORE PUSH1 0x12 PUSH1 0x4 MSTORE PUSH1 0x24 PUSH0 REVERT JUMPDEST PUSH0 PUSH2 0x1C82 DUP3 PUSH2 0x1402 JUMP JUMPDEST SWAP2 POP PUSH2 0x1C8D DUP4 PUSH2 0x1402 JUMP JUMPDEST SWAP3 POP DUP3 PUSH2 0x1C9D JUMPI PUSH2 0x1C9C PUSH2 0x1C4B JUMP JUMPDEST JUMPDEST DUP3 DUP3 DIV SWAP1 POP SWAP3 SWAP2 POP POP JUMP JUMPDEST PUSH0 DUP2 MLOAD SWAP1 POP PUSH2 0x1CB6 DUP2 PUSH2 0x15DA JUMP JUMPDEST SWAP3 SWAP2 POP POP JUMP JUMPDEST PUSH0 PUSH1 0x20 DUP3 DUP5 SUB SLT ISZERO PUSH2 0x1CD1 JUMPI PUSH2 0x1CD0 PUSH2 0x143C JUMP JUMPDEST JUMPDEST PUSH0 PUSH2 0x1CDE DUP5 DUP3 DUP6 ADD PUSH2 0x1CA8 JUMP JUMPDEST SWAP2 POP POP SWAP3 SWAP2 POP POP JUMP JUMPDEST PUSH0 PUSH2 0x1CF1 DUP3 PUSH2 0x1402 JUMP JUMPDEST SWAP2 POP PUSH2 0x1CFC DUP4 PUSH2 0x1402 JUMP JUMPDEST SWAP3 POP DUP3 DUP3 ADD SWAP1 POP DUP1 DUP3 GT ISZERO PUSH2 0x1D14 JUMPI PUSH2 0x1D13 PUSH2 0x1A03 JUMP JUMPDEST JUMPDEST SWAP3 SWAP2 POP POP JUMP JUMPDEST PUSH0 PUSH2 0x1D24 DUP3 PUSH2 0x1402 JUMP JUMPDEST SWAP2 POP PUSH2 0x1D2F DUP4 PUSH2 0x1402 JUMP JUMPDEST SWAP3 POP DUP3 DUP3 SUB SWAP1 POP DUP2 DUP2 GT ISZERO PUSH2 0x1D47 JUMPI PUSH2 0x1D46 PUSH2 0x1A03 JUMP JUMPDEST JUMPDEST SWAP3 SWAP2 POP POP JUMP JUMPDEST PUSH32 0x6E6F7420656E6F75676820706F696E7473000000000000000000000000000000 PUSH0 DUP3 ADD MSTORE POP JUMP JUMPDEST PUSH0 PUSH2 0x1D81 PUSH1 0x11 DUP4 PUSH2 0x168E JUMP JUMPDEST SWAP2 POP PUSH2 0x1D8C DUP3 PUSH2 0x1D4D JUMP JUMPDEST PUSH1 0x20 DUP3 ADD SWAP1 POP SWAP2 SWAP1 POP JUMP JUMPDEST PUSH0 PUSH1 0x20 DUP3 ADD SWAP1 POP DUP2 DUP2 SUB PUSH0 DUP4 ADD MSTORE PUSH2 0x1DAE DUP2 PUSH2 0x1D75 JUMP JUMPDEST SWAP1 POP SWAP2 SWAP1 POP JUMP JUMPDEST PUSH0 PUSH1 0x80 DUP3 ADD SWAP1 POP PUSH2 0x1DC8 PUSH0 DUP4 ADD DUP8 PUSH2 0x180F JUMP JUMPDEST PUSH2 0x1DD5 PUSH1 0x20 DUP4 ADD DUP7 PUSH2 0x140B JUMP JUMPDEST PUSH2 0x1DE2 PUSH1 0x40 DUP4 ADD DUP6 PUSH2 0x140B JUMP JUMPDEST PUSH2 0x1DEF PUSH1 0x60 DUP4 ADD DUP5 PUSH2 0x140B JUMP JUMPDEST SWAP6 SWAP5 POP POP POP POP POP JUMP JUMPDEST PUSH32 0x636F6E747261637420667265657A656400000000000000000000000000000000 PUSH0 DUP3 ADD MSTORE POP JUMP JUMPDEST PUSH0 PUSH2 0x1E2C PUSH1 0x10 DUP4 PUSH2 0x168E JUMP JUMPDEST SWAP2 POP PUSH2 0x1E37 DUP3 PUSH2 0x1DF8 JUMP JUMPDEST PUSH1 0x20 DUP3 ADD SWAP1 POP SWAP2 SWAP1 POP JUMP JUMPDEST PUSH0 PUSH1 0x20 DUP3 ADD SWAP1 POP DUP2 DUP2 SUB PUSH0 DUP4 ADD MSTORE PUSH2 0x1E59 DUP2 PUSH2 0x1E20 JUMP JUMPDEST SWAP1 POP SWAP2 SWAP1 POP JUMP JUMPDEST PUSH32 0x65787069726564207369676E6174757265000000000000000000000000000000 PUSH0 DUP3 ADD MSTORE POP JUMP JUMPDEST PUSH0 PUSH2 0x1E94 PUSH1 0x11 DUP4 PUSH2 0x168E JUMP JUMPDEST SWAP2 POP PUSH2 0x1E9F DUP3 PUSH2 0x1E60 JUMP JUMPDEST PUSH1 0x20 DUP3 ADD SWAP1 POP SWAP2 SWAP1 POP JUMP JUMPDEST PUSH0 PUSH1 0x20 DUP3 ADD SWAP1 POP DUP2 DUP2 SUB PUSH0 DUP4 ADD MSTORE PUSH2 0x1EC1 DUP2 PUSH2 0x1E88 JUMP JUMPDEST SWAP1 POP SWAP2 SWAP1 POP JUMP JUMPDEST PUSH0 DUP2 PUSH1 0x60 SHL SWAP1 POP SWAP2 SWAP1 POP JUMP JUMPDEST PUSH0 PUSH2 0x1EDE DUP3 PUSH2 0x1EC8 JUMP JUMPDEST SWAP1 POP SWAP2 SWAP1 POP JUMP JUMPDEST PUSH0 PUSH2 0x1EEF DUP3 PUSH2 0x1ED4 JUMP JUMPDEST SWAP1 POP SWAP2 SWAP1 POP JUMP JUMPDEST PUSH2 0x1F07 PUSH2 0x1F02 DUP3 PUSH2 0x159F JUMP JUMPDEST PUSH2 0x1EE5 JUMP JUMPDEST DUP3 MSTORE POP POP JUMP JUMPDEST PUSH0 DUP2 SWAP1 POP SWAP2 SWAP1 POP JUMP JUMPDEST PUSH2 0x1F27 PUSH2 0x1F22 DUP3 PUSH2 0x1402 JUMP JUMPDEST PUSH2 0x1F0D JUMP JUMPDEST DUP3 MSTORE POP POP JUMP JUMPDEST PUSH0 PUSH2 0x1F38 DUP3 DUP8 PUSH2 0x1EF6 JUMP JUMPDEST PUSH1 0x14 DUP3 ADD SWAP2 POP PUSH2 0x1F48 DUP3 DUP7 PUSH2 0x1F16 JUMP JUMPDEST PUSH1 0x20 DUP3 ADD SWAP2 POP PUSH2 0x1F58 DUP3 DUP6 PUSH2 0x1F16 JUMP JUMPDEST PUSH1 0x20 DUP3 ADD SWAP2 POP PUSH2 0x1F68 DUP3 DUP5 PUSH2 0x1F16 JUMP JUMPDEST PUSH1 0x20 DUP3 ADD SWAP2 POP DUP2 SWAP1 POP SWAP6 SWAP5 POP POP POP POP POP JUMP JUMPDEST PUSH32 0x6E6F74207065726D697465640000000000000000000000000000000000000000 PUSH0 DUP3 ADD MSTORE POP JUMP JUMPDEST PUSH0 PUSH2 0x1FAE PUSH1 0xC DUP4 PUSH2 0x168E JUMP JUMPDEST SWAP2 POP PUSH2 0x1FB9 DUP3 PUSH2 0x1F7A JUMP JUMPDEST PUSH1 0x20 DUP3 ADD SWAP1 POP SWAP2 SWAP1 POP JUMP JUMPDEST PUSH0 PUSH1 0x20 DUP3 ADD SWAP1 POP DUP2 DUP2 SUB PUSH0 DUP4 ADD MSTORE PUSH2 0x1FDB DUP2 PUSH2 0x1FA2 JUMP JUMPDEST SWAP1 POP SWAP2 SWAP1 POP JUMP JUMPDEST PUSH0 DUP2 MLOAD SWAP1 POP SWAP2 SWAP1 POP JUMP JUMPDEST PUSH0 DUP2 SWAP1 POP SWAP3 SWAP2 POP POP JUMP JUMPDEST PUSH0 PUSH2 0x2000 DUP3 PUSH2 0x1FE2 JUMP JUMPDEST PUSH2 0x200A DUP2 DUP6 PUSH2 0x1FEC JUMP JUMPDEST SWAP4 POP PUSH2 0x201A DUP2 DUP6 PUSH1 0x20 DUP7 ADD PUSH2 0x169E JUMP JUMPDEST DUP1 DUP5 ADD SWAP2 POP POP SWAP3 SWAP2 POP POP JUMP JUMPDEST PUSH0 PUSH2 0x2031 DUP3 DUP5 PUSH2 0x1FF6 JUMP JUMPDEST SWAP2 POP DUP2 SWAP1 POP SWAP3 SWAP2 POP POP JUMP JUMPDEST PUSH32 0x7369676E61747572652075736564000000000000000000000000000000000000 PUSH0 DUP3 ADD MSTORE POP JUMP JUMPDEST PUSH0 PUSH2 0x2070 PUSH1 0xE DUP4 PUSH2 0x168E JUMP JUMPDEST SWAP2 POP PUSH2 0x207B DUP3 PUSH2 0x203C JUMP JUMPDEST PUSH1 0x20 DUP3 ADD SWAP1 POP SWAP2 SWAP1 POP JUMP JUMPDEST PUSH0 PUSH1 0x20 DUP3 ADD SWAP1 POP DUP2 DUP2 SUB PUSH0 DUP4 ADD MSTORE PUSH2 0x209D DUP2 PUSH2 0x2064 JUMP JUMPDEST SWAP1 POP SWAP2 SWAP1 POP JUMP JUMPDEST PUSH0 DUP2 SWAP1 POP SWAP3 SWAP2 POP POP JUMP JUMPDEST PUSH32 0x19457468657265756D205369676E6564204D6573736167653A0A333200000000 PUSH0 DUP3 ADD MSTORE POP JUMP JUMPDEST PUSH0 PUSH2 0x20E2 PUSH1 0x1C DUP4 PUSH2 0x20A4 JUMP JUMPDEST SWAP2 POP PUSH2 0x20ED DUP3 PUSH2 0x20AE JUMP JUMPDEST PUSH1 0x1C DUP3 ADD SWAP1 POP SWAP2 SWAP1 POP JUMP JUMPDEST PUSH0 DUP2 SWAP1 POP SWAP2 SWAP1 POP JUMP JUMPDEST PUSH0 DUP2 SWAP1 POP SWAP2 SWAP1 POP JUMP JUMPDEST PUSH2 0x211B PUSH2 0x2116 DUP3 PUSH2 0x20F8 JUMP JUMPDEST PUSH2 0x2101 JUMP JUMPDEST DUP3 MSTORE POP POP JUMP JUMPDEST PUSH0 PUSH2 0x212B DUP3 PUSH2 0x20D6 JUMP JUMPDEST SWAP2 POP PUSH2 0x2137 DUP3 DUP5 PUSH2 0x210A JUMP JUMPDEST PUSH1 0x20 DUP3 ADD SWAP2 POP DUP2 SWAP1 POP SWAP3 SWAP2 POP POP JUMP JUMPDEST PUSH32 0x45434453413A20696E76616C6964207369676E6174757265206C656E67746800 PUSH0 DUP3 ADD MSTORE POP JUMP JUMPDEST PUSH0 PUSH2 0x217A PUSH1 0x1F DUP4 PUSH2 0x168E JUMP JUMPDEST SWAP2 POP PUSH2 0x2185 DUP3 PUSH2 0x2146 JUMP JUMPDEST PUSH1 0x20 DUP3 ADD SWAP1 POP SWAP2 SWAP1 POP JUMP JUMPDEST PUSH0 PUSH1 0x20 DUP3 ADD SWAP1 POP DUP2 DUP2 SUB PUSH0 DUP4 ADD MSTORE PUSH2 0x21A7 DUP2 PUSH2 0x216E JUMP JUMPDEST SWAP1 POP SWAP2 SWAP1 POP JUMP JUMPDEST PUSH32 0x45434453413A20696E76616C6964207369676E6174757265202773272076616C PUSH0 DUP3 ADD MSTORE PUSH32 0x7565000000000000000000000000000000000000000000000000000000000000 PUSH1 0x20 DUP3 ADD MSTORE POP JUMP JUMPDEST PUSH0 PUSH2 0x2208 PUSH1 0x22 DUP4 PUSH2 0x168E JUMP JUMPDEST SWAP2 POP PUSH2 0x2213 DUP3 PUSH2 0x21AE JUMP JUMPDEST PUSH1 0x40 DUP3 ADD SWAP1 POP SWAP2 SWAP1 POP JUMP JUMPDEST PUSH0 PUSH1 0x20 DUP3 ADD SWAP1 POP DUP2 DUP2 SUB PUSH0 DUP4 ADD MSTORE PUSH2 0x2235 DUP2 PUSH2 0x21FC JUMP JUMPDEST SWAP1 POP SWAP2 SWAP1 POP JUMP JUMPDEST PUSH32 0x45434453413A20696E76616C6964207369676E6174757265202776272076616C PUSH0 DUP3 ADD MSTORE PUSH32 0x7565000000000000000000000000000000000000000000000000000000000000 PUSH1 0x20 DUP3 ADD MSTORE POP JUMP JUMPDEST PUSH0 PUSH2 0x2296 PUSH1 0x22 DUP4 PUSH2 0x168E JUMP JUMPDEST SWAP2 POP PUSH2 0x22A1 DUP3 PUSH2 0x223C JUMP JUMPDEST PUSH1 0x40 DUP3 ADD SWAP1 POP SWAP2 SWAP1 POP JUMP JUMPDEST PUSH0 PUSH1 0x20 DUP3 ADD SWAP1 POP DUP2 DUP2 SUB PUSH0 DUP4 ADD MSTORE PUSH2 0x22C3 DUP2 PUSH2 0x228A JUMP JUMPDEST SWAP1 POP SWAP2 SWAP1 POP JUMP JUMPDEST PUSH2 0x22D3 DUP2 PUSH2 0x20F8 JUMP JUMPDEST DUP3 MSTORE POP POP JUMP JUMPDEST PUSH2 0x22E2 DUP2 PUSH2 0x1A71 JUMP JUMPDEST DUP3 MSTORE POP POP JUMP JUMPDEST PUSH0 PUSH1 0x80 DUP3 ADD SWAP1 POP PUSH2 0x22FB PUSH0 DUP4 ADD DUP8 PUSH2 0x22CA JUMP JUMPDEST PUSH2 0x2308 PUSH1 0x20 DUP4 ADD DUP7 PUSH2 0x22D9 JUMP JUMPDEST PUSH2 0x2315 PUSH1 0x40 DUP4 ADD DUP6 PUSH2 0x22CA JUMP JUMPDEST PUSH2 0x2322 PUSH1 0x60 DUP4 ADD DUP5 PUSH2 0x22CA JUMP JUMPDEST SWAP6 SWAP5 POP POP POP POP POP JUMP JUMPDEST PUSH32 0x45434453413A20696E76616C6964207369676E61747572650000000000000000 PUSH0 DUP3 ADD MSTORE POP JUMP JUMPDEST PUSH0 PUSH2 0x235F PUSH1 0x18 DUP4 PUSH2 0x168E JUMP JUMPDEST SWAP2 POP PUSH2 0x236A DUP3 PUSH2 0x232B JUMP JUMPDEST PUSH1 0x20 DUP3 ADD SWAP1 POP SWAP2 SWAP1 POP JUMP JUMPDEST PUSH0 PUSH1 0x20 DUP3 ADD SWAP1 POP DUP2 DUP2 SUB PUSH0 DUP4 ADD MSTORE PUSH2 0x238C DUP2 PUSH2 0x2353 JUMP JUMPDEST SWAP1 POP SWAP2 SWAP1 POP JUMP INVALID LOG2 PUSH5 0x6970667358 0x22 SLT KECCAK256 SSTORE 0xD8 MLOAD DUP10 0xC8 CALLCODE EXTCODEHASH PUSH27 0x78E05DD84458A93389E20AB87243EA28E99E4482BCAB315D64736F PUSH13 0x63430008160033000000000000 "
				},
				"gasEstimates": {
					"creation": {
						"codeDepositCost": "1832200",
						"executionCost": "infinite",
						"totalCost": "infinite"
					},
					"external": {
						"TotalfeescollectedPaymentCoin()": "2447",
						"chainid()": "2469",
						"checkAmountToRecive(uint256)": "infinite",
						"claimPoints(bytes,address,uint256,uint256)": "infinite",
						"claimedPaymentCoin()": "2557",
						"depositFee()": "2492",
						"emergencyWithdraw(address,address,uint256)": "infinite",
						"freeze()": "2511",
						"freezeContract(bool)": "infinite",
						"initContractBalancePaymentCoin()": "2449",
						"owner()": "2560",
						"pointsMin()": "2491",
						"rate()": "2559",
						"renounceOwnership()": "infinite",
						"setMinPointsToSWap(uint256)": "infinite",
						"setPaymentDepositfees(uint256)": "infinite",
						"setRate(uint256)": "infinite",
						"setWithdrawalFee(uint256)": "infinite",
						"setpaymentTokenAndpoints(address,address)": "infinite",
						"swapToPaymentCoin(bytes,address,uint256,uint256)": "infinite",
						"transferOwnership(address)": "infinite",
						"vaultName()": "infinite",
						"withdrawalFee()": "2448",
						"withdrawfees(address)": "infinite"
					},
					"internal": {
						"_verify(bytes memory,address,uint256,uint256)": "infinite"
					}
				},
				"methodIdentifiers": {
					"TotalfeescollectedPaymentCoin()": "c4a9e858",
					"chainid()": "cd84980e",
					"checkAmountToRecive(uint256)": "0d461e61",
					"claimPoints(bytes,address,uint256,uint256)": "072fdf87",
					"claimedPaymentCoin()": "fd918716",
					"depositFee()": "67a52793",
					"emergencyWithdraw(address,address,uint256)": "e63ea408",
					"freeze()": "62a5af3b",
					"freezeContract(bool)": "6b4c0789",
					"initContractBalancePaymentCoin()": "06e0e582",
					"owner()": "8da5cb5b",
					"pointsMin()": "e1fefd42",
					"rate()": "2c4e722e",
					"renounceOwnership()": "715018a6",
					"setMinPointsToSWap(uint256)": "c08e7286",
					"setPaymentDepositfees(uint256)": "76ee947f",
					"setRate(uint256)": "34fcf437",
					"setWithdrawalFee(uint256)": "ac1e5025",
					"setpaymentTokenAndpoints(address,address)": "258ba1ee",
					"swapToPaymentCoin(bytes,address,uint256,uint256)": "bbe43843",
					"transferOwnership(address)": "f2fde38b",
					"vaultName()": "0ace9ca0",
					"withdrawalFee()": "8bc7e8c4",
					"withdrawfees(address)": "9683cdc4"
				}
			},
			"storageLayout": {
				"storage": [
					{
						"astId": 8,
						"contract": "ribbonVaultOld.sol:vault",
						"label": "_owner",
						"offset": 0,
						"slot": "0",
						"type": "t_address"
					},
					{
						"astId": 364,
						"contract": "ribbonVaultOld.sol:vault",
						"label": "_Ipaymentcoin",
						"offset": 0,
						"slot": "1",
						"type": "t_contract(IERC20T)356"
					},
					{
						"astId": 367,
						"contract": "ribbonVaultOld.sol:vault",
						"label": "_Ipointscoin",
						"offset": 0,
						"slot": "2",
						"type": "t_contract(IERC20T)356"
					},
					{
						"astId": 369,
						"contract": "ribbonVaultOld.sol:vault",
						"label": "depositFee",
						"offset": 0,
						"slot": "3",
						"type": "t_uint256"
					},
					{
						"astId": 371,
						"contract": "ribbonVaultOld.sol:vault",
						"label": "rate",
						"offset": 0,
						"slot": "4",
						"type": "t_uint256"
					},
					{
						"astId": 373,
						"contract": "ribbonVaultOld.sol:vault",
						"label": "withdrawalFee",
						"offset": 0,
						"slot": "5",
						"type": "t_uint256"
					},
					{
						"astId": 375,
						"contract": "ribbonVaultOld.sol:vault",
						"label": "pointsMin",
						"offset": 0,
						"slot": "6",
						"type": "t_uint256"
					},
					{
						"astId": 377,
						"contract": "ribbonVaultOld.sol:vault",
						"label": "initContractBalancePaymentCoin",
						"offset": 0,
						"slot": "7",
						"type": "t_uint256"
					},
					{
						"astId": 379,
						"contract": "ribbonVaultOld.sol:vault",
						"label": "claimedPaymentCoin",
						"offset": 0,
						"slot": "8",
						"type": "t_uint256"
					},
					{
						"astId": 381,
						"contract": "ribbonVaultOld.sol:vault",
						"label": "TotalfeescollectedPaymentCoin",
						"offset": 0,
						"slot": "9",
						"type": "t_uint256"
					},
					{
						"astId": 385,
						"contract": "ribbonVaultOld.sol:vault",
						"label": "chainid",
						"offset": 0,
						"slot": "10",
						"type": "t_uint256"
					},
					{
						"astId": 387,
						"contract": "ribbonVaultOld.sol:vault",
						"label": "vaultName",
						"offset": 0,
						"slot": "11",
						"type": "t_string_storage"
					},
					{
						"astId": 389,
						"contract": "ribbonVaultOld.sol:vault",
						"label": "freeze",
						"offset": 0,
						"slot": "12",
						"type": "t_bool"
					},
					{
						"astId": 393,
						"contract": "ribbonVaultOld.sol:vault",
						"label": "alreadyclaimedpoints",
						"offset": 0,
						"slot": "13",
						"type": "t_mapping(t_bytes_memory_ptr,t_bool)"
					}
				],
				"types": {
					"t_address": {
						"encoding": "inplace",
						"label": "address",
						"numberOfBytes": "20"
					},
					"t_bool": {
						"encoding": "inplace",
						"label": "bool",
						"numberOfBytes": "1"
					},
					"t_bytes_memory_ptr": {
						"encoding": "bytes",
						"label": "bytes",
						"numberOfBytes": "32"
					},
					"t_contract(IERC20T)356": {
						"encoding": "inplace",
						"label": "contract IERC20T",
						"numberOfBytes": "20"
					},
					"t_mapping(t_bytes_memory_ptr,t_bool)": {
						"encoding": "mapping",
						"key": "t_bytes_memory_ptr",
						"label": "mapping(bytes => bool)",
						"numberOfBytes": "32",
						"value": "t_bool"
					},
					"t_string_storage": {
						"encoding": "bytes",
						"label": "string",
						"numberOfBytes": "32"
					},
					"t_uint256": {
						"encoding": "inplace",
						"label": "uint256",
						"numberOfBytes": "32"
					}
				}
			},
			"userdoc": {
				"kind": "user",
				"methods": {},
				"version": 1
			}
		}
	}
}