{
	"ribbonVault.sol": {
		"vault": {
			"abi": [
				{
					"inputs": [
						{
							"internalType": "address",
							"name": "owner",
							"type": "address"
						},
						{
							"internalType": "string",
							"name": "name",
							"type": "string"
						},
						{
							"internalType": "address",
							"name": "paymentAddress",
							"type": "address"
						},
						{
							"internalType": "address",
							"name": "pointsaddress",
							"type": "address"
						}
					],
					"stateMutability": "nonpayable",
					"type": "constructor"
				},
				{
					"inputs": [
						{
							"internalType": "address",
							"name": "owner",
							"type": "address"
						}
					],
					"name": "OwnableInvalidOwner",
					"type": "error"
				},
				{
					"inputs": [
						{
							"internalType": "address",
							"name": "account",
							"type": "address"
						}
					],
					"name": "OwnableUnauthorizedAccount",
					"type": "error"
				},
				{
					"anonymous": false,
					"inputs": [
						{
							"indexed": true,
							"internalType": "address",
							"name": "previousOwner",
							"type": "address"
						},
						{
							"indexed": true,
							"internalType": "address",
							"name": "newOwner",
							"type": "address"
						}
					],
					"name": "OwnershipTransferred",
					"type": "event"
				},
				{
					"anonymous": false,
					"inputs": [
						{
							"indexed": false,
							"internalType": "address",
							"name": "user",
							"type": "address"
						},
						{
							"indexed": false,
							"internalType": "uint256",
							"name": "amount",
							"type": "uint256"
						}
					],
					"name": "PointsClaimed",
					"type": "event"
				},
				{
					"anonymous": false,
					"inputs": [
						{
							"indexed": false,
							"internalType": "address",
							"name": "user",
							"type": "address"
						},
						{
							"indexed": false,
							"internalType": "uint256",
							"name": "pointToSwap",
							"type": "uint256"
						},
						{
							"indexed": false,
							"internalType": "uint256",
							"name": "paymentTokenRecieved",
							"type": "uint256"
						},
						{
							"indexed": false,
							"internalType": "uint256",
							"name": "_fees",
							"type": "uint256"
						}
					],
					"name": "swap",
					"type": "event"
				},
				{
					"inputs": [],
					"name": "TotalfeescollectedPaymentCoin",
					"outputs": [
						{
							"internalType": "uint256",
							"name": "",
							"type": "uint256"
						}
					],
					"stateMutability": "view",
					"type": "function"
				},
				{
					"inputs": [
						{
							"internalType": "uint256",
							"name": "pointToSwap",
							"type": "uint256"
						}
					],
					"name": "checkAmountToRecive",
					"outputs": [
						{
							"internalType": "uint256",
							"name": "",
							"type": "uint256"
						}
					],
					"stateMutability": "view",
					"type": "function"
				},
				{
					"inputs": [
						{
							"internalType": "address",
							"name": "user",
							"type": "address"
						},
						{
							"internalType": "uint256",
							"name": "amount",
							"type": "uint256"
						}
					],
					"name": "claimPoints",
					"outputs": [],
					"stateMutability": "nonpayable",
					"type": "function"
				},
				{
					"inputs": [],
					"name": "claimedPaymentCoin",
					"outputs": [
						{
							"internalType": "uint256",
							"name": "",
							"type": "uint256"
						}
					],
					"stateMutability": "view",
					"type": "function"
				},
				{
					"inputs": [],
					"name": "depositFee",
					"outputs": [
						{
							"internalType": "uint256",
							"name": "",
							"type": "uint256"
						}
					],
					"stateMutability": "view",
					"type": "function"
				},
				{
					"inputs": [],
					"name": "initContractBalancePaymentCoin",
					"outputs": [
						{
							"internalType": "uint256",
							"name": "",
							"type": "uint256"
						}
					],
					"stateMutability": "view",
					"type": "function"
				},
				{
					"inputs": [
						{
							"internalType": "address",
							"name": "",
							"type": "address"
						}
					],
					"name": "onlyApprovedAdmin",
					"outputs": [
						{
							"internalType": "bool",
							"name": "",
							"type": "bool"
						}
					],
					"stateMutability": "view",
					"type": "function"
				},
				{
					"inputs": [],
					"name": "owner",
					"outputs": [
						{
							"internalType": "address",
							"name": "",
							"type": "address"
						}
					],
					"stateMutability": "view",
					"type": "function"
				},
				{
					"inputs": [],
					"name": "pointsMin",
					"outputs": [
						{
							"internalType": "uint256",
							"name": "",
							"type": "uint256"
						}
					],
					"stateMutability": "view",
					"type": "function"
				},
				{
					"inputs": [],
					"name": "rate",
					"outputs": [
						{
							"internalType": "uint256",
							"name": "",
							"type": "uint256"
						}
					],
					"stateMutability": "view",
					"type": "function"
				},
				{
					"inputs": [],
					"name": "renounceOwnership",
					"outputs": [],
					"stateMutability": "nonpayable",
					"type": "function"
				},
				{
					"inputs": [
						{
							"internalType": "address[]",
							"name": "_addresses",
							"type": "address[]"
						},
						{
							"internalType": "bool",
							"name": "_val",
							"type": "bool"
						}
					],
					"name": "setApprovedAdmin",
					"outputs": [],
					"stateMutability": "nonpayable",
					"type": "function"
				},
				{
					"inputs": [
						{
							"internalType": "uint256",
							"name": "_pointsMin",
							"type": "uint256"
						}
					],
					"name": "setMinPointsToSWap",
					"outputs": [],
					"stateMutability": "nonpayable",
					"type": "function"
				},
				{
					"inputs": [
						{
							"internalType": "uint256",
							"name": "_fee",
							"type": "uint256"
						}
					],
					"name": "setPaymentDepositfees",
					"outputs": [],
					"stateMutability": "nonpayable",
					"type": "function"
				},
				{
					"inputs": [
						{
							"internalType": "uint256",
							"name": "_rate",
							"type": "uint256"
						}
					],
					"name": "setRate",
					"outputs": [],
					"stateMutability": "nonpayable",
					"type": "function"
				},
				{
					"inputs": [
						{
							"internalType": "uint256",
							"name": "_fee",
							"type": "uint256"
						}
					],
					"name": "setWithdrawalFee",
					"outputs": [],
					"stateMutability": "nonpayable",
					"type": "function"
				},
				{
					"inputs": [
						{
							"internalType": "address",
							"name": "paymentAddress",
							"type": "address"
						},
						{
							"internalType": "address",
							"name": "pointsaddress",
							"type": "address"
						}
					],
					"name": "setpaymentTokenAndpoints",
					"outputs": [],
					"stateMutability": "nonpayable",
					"type": "function"
				},
				{
					"inputs": [
						{
							"internalType": "address",
							"name": "user",
							"type": "address"
						},
						{
							"internalType": "uint256",
							"name": "pointToSwap",
							"type": "uint256"
						}
					],
					"name": "swapToPaymentCoin",
					"outputs": [],
					"stateMutability": "nonpayable",
					"type": "function"
				},
				{
					"inputs": [
						{
							"internalType": "address",
							"name": "newOwner",
							"type": "address"
						}
					],
					"name": "transferOwnership",
					"outputs": [],
					"stateMutability": "nonpayable",
					"type": "function"
				},
				{
					"inputs": [],
					"name": "vaultName",
					"outputs": [
						{
							"internalType": "string",
							"name": "",
							"type": "string"
						}
					],
					"stateMutability": "view",
					"type": "function"
				},
				{
					"inputs": [],
					"name": "withdrawalFee",
					"outputs": [
						{
							"internalType": "uint256",
							"name": "",
							"type": "uint256"
						}
					],
					"stateMutability": "view",
					"type": "function"
				},
				{
					"inputs": [
						{
							"internalType": "address",
							"name": "feeTakerAddress",
							"type": "address"
						}
					],
					"name": "withdrawfees",
					"outputs": [],
					"stateMutability": "nonpayable",
					"type": "function"
				}
			],
			"devdoc": {
				"errors": {
					"OwnableInvalidOwner(address)": [
						{
							"details": "The owner is not a valid owner account. (eg. `address(0)`)"
						}
					],
					"OwnableUnauthorizedAccount(address)": [
						{
							"details": "The caller account is not authorized to perform an operation."
						}
					]
				},
				"kind": "dev",
				"methods": {
					"owner()": {
						"details": "Returns the address of the current owner."
					},
					"renounceOwnership()": {
						"details": "Leaves the contract without owner. It will not be possible to call `onlyOwner` functions. Can only be called by the current owner. NOTE: Renouncing ownership will leave the contract without an owner, thereby disabling any functionality that is only available to the owner."
					},
					"transferOwnership(address)": {
						"details": "Transfers ownership of the contract to a new account (`newOwner`). Can only be called by the current owner."
					}
				},
				"version": 1
			},
			"evm": {
				"assembly": "    /* \"ribbonVault.sol\":524:4314  contract vault is Ownable{... */\n  mstore(0x40, 0x80)\n    /* \"ribbonVault.sol\":1053:1408  constructor(address owner,string memory name,address paymentAddress,address pointsaddress)Ownable(owner){... */\n  callvalue\n  dup1\n  iszero\n  tag_1\n  jumpi\n  0x00\n  dup1\n  revert\ntag_1:\n  pop\n  mload(0x40)\n  sub(codesize, bytecodeSize)\n  dup1\n  bytecodeSize\n  dup4\n  codecopy\n  dup2\n  dup2\n  add\n  0x40\n  mstore\n  dup2\n  add\n  swap1\n  tag_2\n  swap2\n  swap1\n  tag_3\n  jump\t// in\ntag_2:\n    /* \"ribbonVault.sol\":1151:1156  owner */\n  dup4\n    /* \"@openzeppelin/contracts/access/Ownable.sol\":1297:1298  0 */\n  0x00\n    /* \"@openzeppelin/contracts/access/Ownable.sol\":1273:1299  initialOwner == address(0) */\n  0xffffffffffffffffffffffffffffffffffffffff\n  and\n    /* \"@openzeppelin/contracts/access/Ownable.sol\":1273:1285  initialOwner */\n  dup2\n    /* \"@openzeppelin/contracts/access/Ownable.sol\":1273:1299  initialOwner == address(0) */\n  0xffffffffffffffffffffffffffffffffffffffff\n  and\n  sub\n    /* \"@openzeppelin/contracts/access/Ownable.sol\":1269:1364  if (initialOwner == address(0)) {... */\n  tag_7\n  jumpi\n    /* \"@openzeppelin/contracts/access/Ownable.sol\":1350:1351  0 */\n  0x00\n    /* \"@openzeppelin/contracts/access/Ownable.sol\":1322:1353  OwnableInvalidOwner(address(0)) */\n  mload(0x40)\n  0x1e4fbdf700000000000000000000000000000000000000000000000000000000\n  dup2\n  mstore\n  0x04\n  add\n  tag_8\n  swap2\n  swap1\n  tag_9\n  jump\t// in\ntag_8:\n  mload(0x40)\n  dup1\n  swap2\n  sub\n  swap1\n  revert\n    /* \"@openzeppelin/contracts/access/Ownable.sol\":1269:1364  if (initialOwner == address(0)) {... */\ntag_7:\n    /* \"@openzeppelin/contracts/access/Ownable.sol\":1373:1405  _transferOwnership(initialOwner) */\n  tag_10\n    /* \"@openzeppelin/contracts/access/Ownable.sol\":1392:1404  initialOwner */\n  dup2\n    /* \"@openzeppelin/contracts/access/Ownable.sol\":1373:1391  _transferOwnership */\n  shl(0x20, tag_11)\n    /* \"@openzeppelin/contracts/access/Ownable.sol\":1373:1405  _transferOwnership(initialOwner) */\n  0x20\n  shr\n  jump\t// in\ntag_10:\n    /* \"@openzeppelin/contracts/access/Ownable.sol\":1225:1412  constructor(address initialOwner) {... */\n  pop\n    /* \"ribbonVault.sol\":1178:1182  name */\n  dup3\n    /* \"ribbonVault.sol\":1168:1177  vaultName */\n  0x0a\n    /* \"ribbonVault.sol\":1168:1182  vaultName=name */\n  swap1\n  dup2\n  tag_13\n  swap2\n  swap1\n  tag_14\n  jump\t// in\ntag_13:\n  pop\n    /* \"ribbonVault.sol\":1205:1207  10 */\n  0x0a\n    /* \"ribbonVault.sol\":1193:1203  depositFee */\n  0x03\n    /* \"ribbonVault.sol\":1193:1207  depositFee =10 */\n  dup2\n  swap1\n  sstore\n  pop\n    /* \"ribbonVault.sol\":1225:1229  5000 */\n  0x1388\n    /* \"ribbonVault.sol\":1218:1222  rate */\n  0x04\n    /* \"ribbonVault.sol\":1218:1229  rate = 5000 */\n  dup2\n  swap1\n  sstore\n  pop\n    /* \"ribbonVault.sol\":1252:1264  10000*10**18 */\n  0x021e19e0c9bab2400000\n    /* \"ribbonVault.sol\":1240:1249  pointsMin */\n  0x06\n    /* \"ribbonVault.sol\":1240:1264  pointsMin = 10000*10**18 */\n  dup2\n  swap1\n  sstore\n  pop\n    /* \"ribbonVault.sol\":1299:1313  paymentAddress */\n  dup2\n    /* \"ribbonVault.sol\":1275:1288  _Ipaymentcoin */\n  0x01\n  0x00\n    /* \"ribbonVault.sol\":1275:1314  _Ipaymentcoin = IERC20T(paymentAddress) */\n  0x0100\n  exp\n  dup2\n  sload\n  dup2\n  0xffffffffffffffffffffffffffffffffffffffff\n  mul\n  not\n  and\n  swap1\n  dup4\n  0xffffffffffffffffffffffffffffffffffffffff\n  and\n  mul\n  or\n  swap1\n  sstore\n  pop\n    /* \"ribbonVault.sol\":1348:1361  pointsaddress */\n  dup1\n    /* \"ribbonVault.sol\":1325:1337  _Ipointscoin */\n  0x02\n  0x00\n    /* \"ribbonVault.sol\":1325:1362  _Ipointscoin = IERC20T(pointsaddress) */\n  0x0100\n  exp\n  dup2\n  sload\n  dup2\n  0xffffffffffffffffffffffffffffffffffffffff\n  mul\n  not\n  and\n  swap1\n  dup4\n  0xffffffffffffffffffffffffffffffffffffffff\n  and\n  mul\n  or\n  swap1\n  sstore\n  pop\n    /* \"ribbonVault.sol\":1398:1402  true */\n  0x01\n    /* \"ribbonVault.sol\":1373:1390  onlyApprovedAdmin */\n  0x0b\n    /* \"ribbonVault.sol\":1373:1397  onlyApprovedAdmin[owner] */\n  0x00\n    /* \"ribbonVault.sol\":1391:1396  owner */\n  dup7\n    /* \"ribbonVault.sol\":1373:1397  onlyApprovedAdmin[owner] */\n  0xffffffffffffffffffffffffffffffffffffffff\n  and\n  0xffffffffffffffffffffffffffffffffffffffff\n  and\n  dup2\n  mstore\n  0x20\n  add\n  swap1\n  dup2\n  mstore\n  0x20\n  add\n  0x00\n  keccak256\n  0x00\n    /* \"ribbonVault.sol\":1373:1402  onlyApprovedAdmin[owner]=true */\n  0x0100\n  exp\n  dup2\n  sload\n  dup2\n  0xff\n  mul\n  not\n  and\n  swap1\n  dup4\n  iszero\n  iszero\n  mul\n  or\n  swap1\n  sstore\n  pop\n    /* \"ribbonVault.sol\":1053:1408  constructor(address owner,string memory name,address paymentAddress,address pointsaddress)Ownable(owner){... */\n  pop\n  pop\n  pop\n  pop\n    /* \"ribbonVault.sol\":524:4314  contract vault is Ownable{... */\n  jump(tag_15)\n    /* \"@openzeppelin/contracts/access/Ownable.sol\":2912:3099  function _transferOwnership(address newOwner) internal virtual {... */\ntag_11:\n    /* \"@openzeppelin/contracts/access/Ownable.sol\":2985:3001  address oldOwner */\n  0x00\n    /* \"@openzeppelin/contracts/access/Ownable.sol\":3004:3010  _owner */\n  dup1\n  0x00\n  swap1\n  sload\n  swap1\n  0x0100\n  exp\n  swap1\n  div\n  0xffffffffffffffffffffffffffffffffffffffff\n  and\n    /* \"@openzeppelin/contracts/access/Ownable.sol\":2985:3010  address oldOwner = _owner */\n  swap1\n  pop\n    /* \"@openzeppelin/contracts/access/Ownable.sol\":3029:3037  newOwner */\n  dup2\n    /* \"@openzeppelin/contracts/access/Ownable.sol\":3020:3026  _owner */\n  0x00\n  dup1\n    /* \"@openzeppelin/contracts/access/Ownable.sol\":3020:3037  _owner = newOwner */\n  0x0100\n  exp\n  dup2\n  sload\n  dup2\n  0xffffffffffffffffffffffffffffffffffffffff\n  mul\n  not\n  and\n  swap1\n  dup4\n  0xffffffffffffffffffffffffffffffffffffffff\n  and\n  mul\n  or\n  swap1\n  sstore\n  pop\n    /* \"@openzeppelin/contracts/access/Ownable.sol\":3083:3091  newOwner */\n  dup2\n    /* \"@openzeppelin/contracts/access/Ownable.sol\":3052:3092  OwnershipTransferred(oldOwner, newOwner) */\n  0xffffffffffffffffffffffffffffffffffffffff\n  and\n    /* \"@openzeppelin/contracts/access/Ownable.sol\":3073:3081  oldOwner */\n  dup2\n    /* \"@openzeppelin/contracts/access/Ownable.sol\":3052:3092  OwnershipTransferred(oldOwner, newOwner) */\n  0xffffffffffffffffffffffffffffffffffffffff\n  and\n  0x8be0079c531659141344cd1fd0a4f28419497f9722a3daafe3b4186f6b6457e0\n  mload(0x40)\n  mload(0x40)\n  dup1\n  swap2\n  sub\n  swap1\n  log3\n    /* \"@openzeppelin/contracts/access/Ownable.sol\":2975:3099  {... */\n  pop\n    /* \"@openzeppelin/contracts/access/Ownable.sol\":2912:3099  function _transferOwnership(address newOwner) internal virtual {... */\n  pop\n  jump\t// out\n    /* \"#utility.yul\":7:82   */\ntag_17:\n    /* \"#utility.yul\":40:46   */\n  0x00\n    /* \"#utility.yul\":73:75   */\n  0x40\n    /* \"#utility.yul\":67:76   */\n  mload\n    /* \"#utility.yul\":57:76   */\n  swap1\n  pop\n    /* \"#utility.yul\":7:82   */\n  swap1\n  jump\t// out\n    /* \"#utility.yul\":88:205   */\ntag_18:\n    /* \"#utility.yul\":197:198   */\n  0x00\n    /* \"#utility.yul\":194:195   */\n  dup1\n    /* \"#utility.yul\":187:199   */\n  revert\n    /* \"#utility.yul\":211:328   */\ntag_19:\n    /* \"#utility.yul\":320:321   */\n  0x00\n    /* \"#utility.yul\":317:318   */\n  dup1\n    /* \"#utility.yul\":310:322   */\n  revert\n    /* \"#utility.yul\":334:460   */\ntag_20:\n    /* \"#utility.yul\":371:378   */\n  0x00\n    /* \"#utility.yul\":411:453   */\n  0xffffffffffffffffffffffffffffffffffffffff\n    /* \"#utility.yul\":404:409   */\n  dup3\n    /* \"#utility.yul\":400:454   */\n  and\n    /* \"#utility.yul\":389:454   */\n  swap1\n  pop\n    /* \"#utility.yul\":334:460   */\n  swap2\n  swap1\n  pop\n  jump\t// out\n    /* \"#utility.yul\":466:562   */\ntag_21:\n    /* \"#utility.yul\":503:510   */\n  0x00\n    /* \"#utility.yul\":532:556   */\n  tag_60\n    /* \"#utility.yul\":550:555   */\n  dup3\n    /* \"#utility.yul\":532:556   */\n  tag_20\n  jump\t// in\ntag_60:\n    /* \"#utility.yul\":521:556   */\n  swap1\n  pop\n    /* \"#utility.yul\":466:562   */\n  swap2\n  swap1\n  pop\n  jump\t// out\n    /* \"#utility.yul\":568:690   */\ntag_22:\n    /* \"#utility.yul\":641:665   */\n  tag_62\n    /* \"#utility.yul\":659:664   */\n  dup2\n    /* \"#utility.yul\":641:665   */\n  tag_21\n  jump\t// in\ntag_62:\n    /* \"#utility.yul\":634:639   */\n  dup2\n    /* \"#utility.yul\":631:666   */\n  eq\n    /* \"#utility.yul\":621:684   */\n  tag_63\n  jumpi\n    /* \"#utility.yul\":680:681   */\n  0x00\n    /* \"#utility.yul\":677:678   */\n  dup1\n    /* \"#utility.yul\":670:682   */\n  revert\n    /* \"#utility.yul\":621:684   */\ntag_63:\n    /* \"#utility.yul\":568:690   */\n  pop\n  jump\t// out\n    /* \"#utility.yul\":696:839   */\ntag_23:\n    /* \"#utility.yul\":753:758   */\n  0x00\n    /* \"#utility.yul\":784:790   */\n  dup2\n    /* \"#utility.yul\":778:791   */\n  mload\n    /* \"#utility.yul\":769:791   */\n  swap1\n  pop\n    /* \"#utility.yul\":800:833   */\n  tag_65\n    /* \"#utility.yul\":827:832   */\n  dup2\n    /* \"#utility.yul\":800:833   */\n  tag_22\n  jump\t// in\ntag_65:\n    /* \"#utility.yul\":696:839   */\n  swap3\n  swap2\n  pop\n  pop\n  jump\t// out\n    /* \"#utility.yul\":845:962   */\ntag_24:\n    /* \"#utility.yul\":954:955   */\n  0x00\n    /* \"#utility.yul\":951:952   */\n  dup1\n    /* \"#utility.yul\":944:956   */\n  revert\n    /* \"#utility.yul\":968:1085   */\ntag_25:\n    /* \"#utility.yul\":1077:1078   */\n  0x00\n    /* \"#utility.yul\":1074:1075   */\n  dup1\n    /* \"#utility.yul\":1067:1079   */\n  revert\n    /* \"#utility.yul\":1091:1193   */\ntag_26:\n    /* \"#utility.yul\":1132:1138   */\n  0x00\n    /* \"#utility.yul\":1183:1185   */\n  0x1f\n    /* \"#utility.yul\":1179:1186   */\n  not\n    /* \"#utility.yul\":1174:1176   */\n  0x1f\n    /* \"#utility.yul\":1167:1172   */\n  dup4\n    /* \"#utility.yul\":1163:1177   */\n  add\n    /* \"#utility.yul\":1159:1187   */\n  and\n    /* \"#utility.yul\":1149:1187   */\n  swap1\n  pop\n    /* \"#utility.yul\":1091:1193   */\n  swap2\n  swap1\n  pop\n  jump\t// out\n    /* \"#utility.yul\":1199:1379   */\ntag_27:\n    /* \"#utility.yul\":1247:1324   */\n  0x4e487b7100000000000000000000000000000000000000000000000000000000\n    /* \"#utility.yul\":1244:1245   */\n  0x00\n    /* \"#utility.yul\":1237:1325   */\n  mstore\n    /* \"#utility.yul\":1344:1348   */\n  0x41\n    /* \"#utility.yul\":1341:1342   */\n  0x04\n    /* \"#utility.yul\":1334:1349   */\n  mstore\n    /* \"#utility.yul\":1368:1372   */\n  0x24\n    /* \"#utility.yul\":1365:1366   */\n  0x00\n    /* \"#utility.yul\":1358:1373   */\n  revert\n    /* \"#utility.yul\":1385:1666   */\ntag_28:\n    /* \"#utility.yul\":1468:1495   */\n  tag_71\n    /* \"#utility.yul\":1490:1494   */\n  dup3\n    /* \"#utility.yul\":1468:1495   */\n  tag_26\n  jump\t// in\ntag_71:\n    /* \"#utility.yul\":1460:1466   */\n  dup2\n    /* \"#utility.yul\":1456:1496   */\n  add\n    /* \"#utility.yul\":1598:1604   */\n  dup2\n    /* \"#utility.yul\":1586:1596   */\n  dup2\n    /* \"#utility.yul\":1583:1605   */\n  lt\n    /* \"#utility.yul\":1562:1580   */\n  0xffffffffffffffff\n    /* \"#utility.yul\":1550:1560   */\n  dup3\n    /* \"#utility.yul\":1547:1581   */\n  gt\n    /* \"#utility.yul\":1544:1606   */\n  or\n    /* \"#utility.yul\":1541:1629   */\n  iszero\n  tag_72\n  jumpi\n    /* \"#utility.yul\":1609:1627   */\n  tag_73\n  tag_27\n  jump\t// in\ntag_73:\n    /* \"#utility.yul\":1541:1629   */\ntag_72:\n    /* \"#utility.yul\":1649:1659   */\n  dup1\n    /* \"#utility.yul\":1645:1647   */\n  0x40\n    /* \"#utility.yul\":1638:1660   */\n  mstore\n    /* \"#utility.yul\":1428:1666   */\n  pop\n    /* \"#utility.yul\":1385:1666   */\n  pop\n  pop\n  jump\t// out\n    /* \"#utility.yul\":1672:1801   */\ntag_29:\n    /* \"#utility.yul\":1706:1712   */\n  0x00\n    /* \"#utility.yul\":1733:1753   */\n  tag_75\n  tag_17\n  jump\t// in\ntag_75:\n    /* \"#utility.yul\":1723:1753   */\n  swap1\n  pop\n    /* \"#utility.yul\":1762:1795   */\n  tag_76\n    /* \"#utility.yul\":1790:1794   */\n  dup3\n    /* \"#utility.yul\":1782:1788   */\n  dup3\n    /* \"#utility.yul\":1762:1795   */\n  tag_28\n  jump\t// in\ntag_76:\n    /* \"#utility.yul\":1672:1801   */\n  swap2\n  swap1\n  pop\n  jump\t// out\n    /* \"#utility.yul\":1807:2115   */\ntag_30:\n    /* \"#utility.yul\":1869:1873   */\n  0x00\n    /* \"#utility.yul\":1959:1977   */\n  0xffffffffffffffff\n    /* \"#utility.yul\":1951:1957   */\n  dup3\n    /* \"#utility.yul\":1948:1978   */\n  gt\n    /* \"#utility.yul\":1945:2001   */\n  iszero\n  tag_78\n  jumpi\n    /* \"#utility.yul\":1981:1999   */\n  tag_79\n  tag_27\n  jump\t// in\ntag_79:\n    /* \"#utility.yul\":1945:2001   */\ntag_78:\n    /* \"#utility.yul\":2019:2048   */\n  tag_80\n    /* \"#utility.yul\":2041:2047   */\n  dup3\n    /* \"#utility.yul\":2019:2048   */\n  tag_26\n  jump\t// in\ntag_80:\n    /* \"#utility.yul\":2011:2048   */\n  swap1\n  pop\n    /* \"#utility.yul\":2103:2107   */\n  0x20\n    /* \"#utility.yul\":2097:2101   */\n  dup2\n    /* \"#utility.yul\":2093:2108   */\n  add\n    /* \"#utility.yul\":2085:2108   */\n  swap1\n  pop\n    /* \"#utility.yul\":1807:2115   */\n  swap2\n  swap1\n  pop\n  jump\t// out\n    /* \"#utility.yul\":2121:2367   */\ntag_31:\n    /* \"#utility.yul\":2202:2203   */\n  0x00\n    /* \"#utility.yul\":2212:2325   */\ntag_82:\n    /* \"#utility.yul\":2226:2232   */\n  dup4\n    /* \"#utility.yul\":2223:2224   */\n  dup2\n    /* \"#utility.yul\":2220:2233   */\n  lt\n    /* \"#utility.yul\":2212:2325   */\n  iszero\n  tag_84\n  jumpi\n    /* \"#utility.yul\":2311:2312   */\n  dup1\n    /* \"#utility.yul\":2306:2309   */\n  dup3\n    /* \"#utility.yul\":2302:2313   */\n  add\n    /* \"#utility.yul\":2296:2314   */\n  mload\n    /* \"#utility.yul\":2292:2293   */\n  dup2\n    /* \"#utility.yul\":2287:2290   */\n  dup5\n    /* \"#utility.yul\":2283:2294   */\n  add\n    /* \"#utility.yul\":2276:2315   */\n  mstore\n    /* \"#utility.yul\":2248:2250   */\n  0x20\n    /* \"#utility.yul\":2245:2246   */\n  dup2\n    /* \"#utility.yul\":2241:2251   */\n  add\n    /* \"#utility.yul\":2236:2251   */\n  swap1\n  pop\n    /* \"#utility.yul\":2212:2325   */\n  jump(tag_82)\ntag_84:\n    /* \"#utility.yul\":2359:2360   */\n  0x00\n    /* \"#utility.yul\":2350:2356   */\n  dup5\n    /* \"#utility.yul\":2345:2348   */\n  dup5\n    /* \"#utility.yul\":2341:2357   */\n  add\n    /* \"#utility.yul\":2334:2361   */\n  mstore\n    /* \"#utility.yul\":2183:2367   */\n  pop\n    /* \"#utility.yul\":2121:2367   */\n  pop\n  pop\n  pop\n  jump\t// out\n    /* \"#utility.yul\":2373:2807   */\ntag_32:\n    /* \"#utility.yul\":2462:2467   */\n  0x00\n    /* \"#utility.yul\":2487:2553   */\n  tag_86\n    /* \"#utility.yul\":2503:2552   */\n  tag_87\n    /* \"#utility.yul\":2545:2551   */\n  dup5\n    /* \"#utility.yul\":2503:2552   */\n  tag_30\n  jump\t// in\ntag_87:\n    /* \"#utility.yul\":2487:2553   */\n  tag_29\n  jump\t// in\ntag_86:\n    /* \"#utility.yul\":2478:2553   */\n  swap1\n  pop\n    /* \"#utility.yul\":2576:2582   */\n  dup3\n    /* \"#utility.yul\":2569:2574   */\n  dup2\n    /* \"#utility.yul\":2562:2583   */\n  mstore\n    /* \"#utility.yul\":2614:2618   */\n  0x20\n    /* \"#utility.yul\":2607:2612   */\n  dup2\n    /* \"#utility.yul\":2603:2619   */\n  add\n    /* \"#utility.yul\":2652:2655   */\n  dup5\n    /* \"#utility.yul\":2643:2649   */\n  dup5\n    /* \"#utility.yul\":2638:2641   */\n  dup5\n    /* \"#utility.yul\":2634:2650   */\n  add\n    /* \"#utility.yul\":2631:2656   */\n  gt\n    /* \"#utility.yul\":2628:2740   */\n  iszero\n  tag_88\n  jumpi\n    /* \"#utility.yul\":2659:2738   */\n  tag_89\n  tag_25\n  jump\t// in\ntag_89:\n    /* \"#utility.yul\":2628:2740   */\ntag_88:\n    /* \"#utility.yul\":2749:2801   */\n  tag_90\n    /* \"#utility.yul\":2794:2800   */\n  dup5\n    /* \"#utility.yul\":2789:2792   */\n  dup3\n    /* \"#utility.yul\":2784:2787   */\n  dup6\n    /* \"#utility.yul\":2749:2801   */\n  tag_31\n  jump\t// in\ntag_90:\n    /* \"#utility.yul\":2468:2807   */\n  pop\n    /* \"#utility.yul\":2373:2807   */\n  swap4\n  swap3\n  pop\n  pop\n  pop\n  jump\t// out\n    /* \"#utility.yul\":2827:3182   */\ntag_33:\n    /* \"#utility.yul\":2894:2899   */\n  0x00\n    /* \"#utility.yul\":2943:2946   */\n  dup3\n    /* \"#utility.yul\":2936:2940   */\n  0x1f\n    /* \"#utility.yul\":2928:2934   */\n  dup4\n    /* \"#utility.yul\":2924:2941   */\n  add\n    /* \"#utility.yul\":2920:2947   */\n  slt\n    /* \"#utility.yul\":2910:3032   */\n  tag_92\n  jumpi\n    /* \"#utility.yul\":2951:3030   */\n  tag_93\n  tag_24\n  jump\t// in\ntag_93:\n    /* \"#utility.yul\":2910:3032   */\ntag_92:\n    /* \"#utility.yul\":3061:3067   */\n  dup2\n    /* \"#utility.yul\":3055:3068   */\n  mload\n    /* \"#utility.yul\":3086:3176   */\n  tag_94\n    /* \"#utility.yul\":3172:3175   */\n  dup5\n    /* \"#utility.yul\":3164:3170   */\n  dup3\n    /* \"#utility.yul\":3157:3161   */\n  0x20\n    /* \"#utility.yul\":3149:3155   */\n  dup7\n    /* \"#utility.yul\":3145:3162   */\n  add\n    /* \"#utility.yul\":3086:3176   */\n  tag_32\n  jump\t// in\ntag_94:\n    /* \"#utility.yul\":3077:3176   */\n  swap2\n  pop\n    /* \"#utility.yul\":2900:3182   */\n  pop\n    /* \"#utility.yul\":2827:3182   */\n  swap3\n  swap2\n  pop\n  pop\n  jump\t// out\n    /* \"#utility.yul\":3188:4181   */\ntag_3:\n    /* \"#utility.yul\":3295:3301   */\n  0x00\n    /* \"#utility.yul\":3303:3309   */\n  dup1\n    /* \"#utility.yul\":3311:3317   */\n  0x00\n    /* \"#utility.yul\":3319:3325   */\n  dup1\n    /* \"#utility.yul\":3368:3371   */\n  0x80\n    /* \"#utility.yul\":3356:3365   */\n  dup6\n    /* \"#utility.yul\":3347:3354   */\n  dup8\n    /* \"#utility.yul\":3343:3366   */\n  sub\n    /* \"#utility.yul\":3339:3372   */\n  slt\n    /* \"#utility.yul\":3336:3456   */\n  iszero\n  tag_96\n  jumpi\n    /* \"#utility.yul\":3375:3454   */\n  tag_97\n  tag_18\n  jump\t// in\ntag_97:\n    /* \"#utility.yul\":3336:3456   */\ntag_96:\n    /* \"#utility.yul\":3495:3496   */\n  0x00\n    /* \"#utility.yul\":3520:3584   */\n  tag_98\n    /* \"#utility.yul\":3576:3583   */\n  dup8\n    /* \"#utility.yul\":3567:3573   */\n  dup3\n    /* \"#utility.yul\":3556:3565   */\n  dup9\n    /* \"#utility.yul\":3552:3574   */\n  add\n    /* \"#utility.yul\":3520:3584   */\n  tag_23\n  jump\t// in\ntag_98:\n    /* \"#utility.yul\":3510:3584   */\n  swap5\n  pop\n    /* \"#utility.yul\":3466:3594   */\n  pop\n    /* \"#utility.yul\":3654:3656   */\n  0x20\n    /* \"#utility.yul\":3643:3652   */\n  dup6\n    /* \"#utility.yul\":3639:3657   */\n  add\n    /* \"#utility.yul\":3633:3658   */\n  mload\n    /* \"#utility.yul\":3685:3703   */\n  0xffffffffffffffff\n    /* \"#utility.yul\":3677:3683   */\n  dup2\n    /* \"#utility.yul\":3674:3704   */\n  gt\n    /* \"#utility.yul\":3671:3788   */\n  iszero\n  tag_99\n  jumpi\n    /* \"#utility.yul\":3707:3786   */\n  tag_100\n  tag_19\n  jump\t// in\ntag_100:\n    /* \"#utility.yul\":3671:3788   */\ntag_99:\n    /* \"#utility.yul\":3812:3886   */\n  tag_101\n    /* \"#utility.yul\":3878:3885   */\n  dup8\n    /* \"#utility.yul\":3869:3875   */\n  dup3\n    /* \"#utility.yul\":3858:3867   */\n  dup9\n    /* \"#utility.yul\":3854:3876   */\n  add\n    /* \"#utility.yul\":3812:3886   */\n  tag_33\n  jump\t// in\ntag_101:\n    /* \"#utility.yul\":3802:3886   */\n  swap4\n  pop\n    /* \"#utility.yul\":3604:3896   */\n  pop\n    /* \"#utility.yul\":3935:3937   */\n  0x40\n    /* \"#utility.yul\":3961:4025   */\n  tag_102\n    /* \"#utility.yul\":4017:4024   */\n  dup8\n    /* \"#utility.yul\":4008:4014   */\n  dup3\n    /* \"#utility.yul\":3997:4006   */\n  dup9\n    /* \"#utility.yul\":3993:4015   */\n  add\n    /* \"#utility.yul\":3961:4025   */\n  tag_23\n  jump\t// in\ntag_102:\n    /* \"#utility.yul\":3951:4025   */\n  swap3\n  pop\n    /* \"#utility.yul\":3906:4035   */\n  pop\n    /* \"#utility.yul\":4074:4076   */\n  0x60\n    /* \"#utility.yul\":4100:4164   */\n  tag_103\n    /* \"#utility.yul\":4156:4163   */\n  dup8\n    /* \"#utility.yul\":4147:4153   */\n  dup3\n    /* \"#utility.yul\":4136:4145   */\n  dup9\n    /* \"#utility.yul\":4132:4154   */\n  add\n    /* \"#utility.yul\":4100:4164   */\n  tag_23\n  jump\t// in\ntag_103:\n    /* \"#utility.yul\":4090:4164   */\n  swap2\n  pop\n    /* \"#utility.yul\":4045:4174   */\n  pop\n    /* \"#utility.yul\":3188:4181   */\n  swap3\n  swap6\n  swap2\n  swap5\n  pop\n  swap3\n  pop\n  jump\t// out\n    /* \"#utility.yul\":4187:4305   */\ntag_34:\n    /* \"#utility.yul\":4274:4298   */\n  tag_105\n    /* \"#utility.yul\":4292:4297   */\n  dup2\n    /* \"#utility.yul\":4274:4298   */\n  tag_21\n  jump\t// in\ntag_105:\n    /* \"#utility.yul\":4269:4272   */\n  dup3\n    /* \"#utility.yul\":4262:4299   */\n  mstore\n    /* \"#utility.yul\":4187:4305   */\n  pop\n  pop\n  jump\t// out\n    /* \"#utility.yul\":4311:4533   */\ntag_9:\n    /* \"#utility.yul\":4404:4408   */\n  0x00\n    /* \"#utility.yul\":4442:4444   */\n  0x20\n    /* \"#utility.yul\":4431:4440   */\n  dup3\n    /* \"#utility.yul\":4427:4445   */\n  add\n    /* \"#utility.yul\":4419:4445   */\n  swap1\n  pop\n    /* \"#utility.yul\":4455:4526   */\n  tag_107\n    /* \"#utility.yul\":4523:4524   */\n  0x00\n    /* \"#utility.yul\":4512:4521   */\n  dup4\n    /* \"#utility.yul\":4508:4525   */\n  add\n    /* \"#utility.yul\":4499:4505   */\n  dup5\n    /* \"#utility.yul\":4455:4526   */\n  tag_34\n  jump\t// in\ntag_107:\n    /* \"#utility.yul\":4311:4533   */\n  swap3\n  swap2\n  pop\n  pop\n  jump\t// out\n    /* \"#utility.yul\":4539:4638   */\ntag_35:\n    /* \"#utility.yul\":4591:4597   */\n  0x00\n    /* \"#utility.yul\":4625:4630   */\n  dup2\n    /* \"#utility.yul\":4619:4631   */\n  mload\n    /* \"#utility.yul\":4609:4631   */\n  swap1\n  pop\n    /* \"#utility.yul\":4539:4638   */\n  swap2\n  swap1\n  pop\n  jump\t// out\n    /* \"#utility.yul\":4644:4824   */\ntag_36:\n    /* \"#utility.yul\":4692:4769   */\n  0x4e487b7100000000000000000000000000000000000000000000000000000000\n    /* \"#utility.yul\":4689:4690   */\n  0x00\n    /* \"#utility.yul\":4682:4770   */\n  mstore\n    /* \"#utility.yul\":4789:4793   */\n  0x22\n    /* \"#utility.yul\":4786:4787   */\n  0x04\n    /* \"#utility.yul\":4779:4794   */\n  mstore\n    /* \"#utility.yul\":4813:4817   */\n  0x24\n    /* \"#utility.yul\":4810:4811   */\n  0x00\n    /* \"#utility.yul\":4803:4818   */\n  revert\n    /* \"#utility.yul\":4830:5150   */\ntag_37:\n    /* \"#utility.yul\":4874:4880   */\n  0x00\n    /* \"#utility.yul\":4911:4912   */\n  0x02\n    /* \"#utility.yul\":4905:4909   */\n  dup3\n    /* \"#utility.yul\":4901:4913   */\n  div\n    /* \"#utility.yul\":4891:4913   */\n  swap1\n  pop\n    /* \"#utility.yul\":4958:4959   */\n  0x01\n    /* \"#utility.yul\":4952:4956   */\n  dup3\n    /* \"#utility.yul\":4948:4960   */\n  and\n    /* \"#utility.yul\":4979:4997   */\n  dup1\n    /* \"#utility.yul\":4969:5050   */\n  tag_111\n  jumpi\n    /* \"#utility.yul\":5035:5039   */\n  0x7f\n    /* \"#utility.yul\":5027:5033   */\n  dup3\n    /* \"#utility.yul\":5023:5040   */\n  and\n    /* \"#utility.yul\":5013:5040   */\n  swap2\n  pop\n    /* \"#utility.yul\":4969:5050   */\ntag_111:\n    /* \"#utility.yul\":5097:5099   */\n  0x20\n    /* \"#utility.yul\":5089:5095   */\n  dup3\n    /* \"#utility.yul\":5086:5100   */\n  lt\n    /* \"#utility.yul\":5066:5084   */\n  dup2\n    /* \"#utility.yul\":5063:5101   */\n  sub\n    /* \"#utility.yul\":5060:5144   */\n  tag_112\n  jumpi\n    /* \"#utility.yul\":5116:5134   */\n  tag_113\n  tag_36\n  jump\t// in\ntag_113:\n    /* \"#utility.yul\":5060:5144   */\ntag_112:\n    /* \"#utility.yul\":4881:5150   */\n  pop\n    /* \"#utility.yul\":4830:5150   */\n  swap2\n  swap1\n  pop\n  jump\t// out\n    /* \"#utility.yul\":5156:5297   */\ntag_38:\n    /* \"#utility.yul\":5205:5209   */\n  0x00\n    /* \"#utility.yul\":5228:5231   */\n  dup2\n    /* \"#utility.yul\":5220:5231   */\n  swap1\n  pop\n    /* \"#utility.yul\":5251:5254   */\n  dup2\n    /* \"#utility.yul\":5248:5249   */\n  0x00\n    /* \"#utility.yul\":5241:5255   */\n  mstore\n    /* \"#utility.yul\":5285:5289   */\n  0x20\n    /* \"#utility.yul\":5282:5283   */\n  0x00\n    /* \"#utility.yul\":5272:5290   */\n  keccak256\n    /* \"#utility.yul\":5264:5290   */\n  swap1\n  pop\n    /* \"#utility.yul\":5156:5297   */\n  swap2\n  swap1\n  pop\n  jump\t// out\n    /* \"#utility.yul\":5303:5396   */\ntag_39:\n    /* \"#utility.yul\":5340:5346   */\n  0x00\n    /* \"#utility.yul\":5387:5389   */\n  0x20\n    /* \"#utility.yul\":5382:5384   */\n  0x1f\n    /* \"#utility.yul\":5375:5380   */\n  dup4\n    /* \"#utility.yul\":5371:5385   */\n  add\n    /* \"#utility.yul\":5367:5390   */\n  div\n    /* \"#utility.yul\":5357:5390   */\n  swap1\n  pop\n    /* \"#utility.yul\":5303:5396   */\n  swap2\n  swap1\n  pop\n  jump\t// out\n    /* \"#utility.yul\":5402:5509   */\ntag_40:\n    /* \"#utility.yul\":5446:5454   */\n  0x00\n    /* \"#utility.yul\":5496:5501   */\n  dup3\n    /* \"#utility.yul\":5490:5494   */\n  dup3\n    /* \"#utility.yul\":5486:5502   */\n  shl\n    /* \"#utility.yul\":5465:5502   */\n  swap1\n  pop\n    /* \"#utility.yul\":5402:5509   */\n  swap3\n  swap2\n  pop\n  pop\n  jump\t// out\n    /* \"#utility.yul\":5515:5908   */\ntag_41:\n    /* \"#utility.yul\":5584:5590   */\n  0x00\n    /* \"#utility.yul\":5634:5635   */\n  0x08\n    /* \"#utility.yul\":5622:5632   */\n  dup4\n    /* \"#utility.yul\":5618:5636   */\n  mul\n    /* \"#utility.yul\":5657:5754   */\n  tag_118\n    /* \"#utility.yul\":5687:5753   */\n  0xffffffffffffffffffffffffffffffffffffffffffffffffffffffffffffffff\n    /* \"#utility.yul\":5676:5685   */\n  dup3\n    /* \"#utility.yul\":5657:5754   */\n  tag_40\n  jump\t// in\ntag_118:\n    /* \"#utility.yul\":5775:5814   */\n  tag_119\n    /* \"#utility.yul\":5805:5813   */\n  dup7\n    /* \"#utility.yul\":5794:5803   */\n  dup4\n    /* \"#utility.yul\":5775:5814   */\n  tag_40\n  jump\t// in\ntag_119:\n    /* \"#utility.yul\":5763:5814   */\n  swap6\n  pop\n    /* \"#utility.yul\":5847:5851   */\n  dup1\n    /* \"#utility.yul\":5843:5852   */\n  not\n    /* \"#utility.yul\":5836:5841   */\n  dup5\n    /* \"#utility.yul\":5832:5853   */\n  and\n    /* \"#utility.yul\":5823:5853   */\n  swap4\n  pop\n    /* \"#utility.yul\":5896:5900   */\n  dup1\n    /* \"#utility.yul\":5886:5894   */\n  dup7\n    /* \"#utility.yul\":5882:5901   */\n  and\n    /* \"#utility.yul\":5875:5880   */\n  dup5\n    /* \"#utility.yul\":5872:5902   */\n  or\n    /* \"#utility.yul\":5862:5902   */\n  swap3\n  pop\n    /* \"#utility.yul\":5591:5908   */\n  pop\n  pop\n    /* \"#utility.yul\":5515:5908   */\n  swap4\n  swap3\n  pop\n  pop\n  pop\n  jump\t// out\n    /* \"#utility.yul\":5914:5991   */\ntag_42:\n    /* \"#utility.yul\":5951:5958   */\n  0x00\n    /* \"#utility.yul\":5980:5985   */\n  dup2\n    /* \"#utility.yul\":5969:5985   */\n  swap1\n  pop\n    /* \"#utility.yul\":5914:5991   */\n  swap2\n  swap1\n  pop\n  jump\t// out\n    /* \"#utility.yul\":5997:6057   */\ntag_43:\n    /* \"#utility.yul\":6025:6028   */\n  0x00\n    /* \"#utility.yul\":6046:6051   */\n  dup2\n    /* \"#utility.yul\":6039:6051   */\n  swap1\n  pop\n    /* \"#utility.yul\":5997:6057   */\n  swap2\n  swap1\n  pop\n  jump\t// out\n    /* \"#utility.yul\":6063:6205   */\ntag_44:\n    /* \"#utility.yul\":6113:6122   */\n  0x00\n    /* \"#utility.yul\":6146:6199   */\n  tag_123\n    /* \"#utility.yul\":6164:6198   */\n  tag_124\n    /* \"#utility.yul\":6173:6197   */\n  tag_125\n    /* \"#utility.yul\":6191:6196   */\n  dup5\n    /* \"#utility.yul\":6173:6197   */\n  tag_42\n  jump\t// in\ntag_125:\n    /* \"#utility.yul\":6164:6198   */\n  tag_43\n  jump\t// in\ntag_124:\n    /* \"#utility.yul\":6146:6199   */\n  tag_42\n  jump\t// in\ntag_123:\n    /* \"#utility.yul\":6133:6199   */\n  swap1\n  pop\n    /* \"#utility.yul\":6063:6205   */\n  swap2\n  swap1\n  pop\n  jump\t// out\n    /* \"#utility.yul\":6211:6286   */\ntag_45:\n    /* \"#utility.yul\":6254:6257   */\n  0x00\n    /* \"#utility.yul\":6275:6280   */\n  dup2\n    /* \"#utility.yul\":6268:6280   */\n  swap1\n  pop\n    /* \"#utility.yul\":6211:6286   */\n  swap2\n  swap1\n  pop\n  jump\t// out\n    /* \"#utility.yul\":6292:6561   */\ntag_46:\n    /* \"#utility.yul\":6402:6441   */\n  tag_128\n    /* \"#utility.yul\":6433:6440   */\n  dup4\n    /* \"#utility.yul\":6402:6441   */\n  tag_44\n  jump\t// in\ntag_128:\n    /* \"#utility.yul\":6463:6554   */\n  tag_129\n    /* \"#utility.yul\":6512:6553   */\n  tag_130\n    /* \"#utility.yul\":6536:6552   */\n  dup3\n    /* \"#utility.yul\":6512:6553   */\n  tag_45\n  jump\t// in\ntag_130:\n    /* \"#utility.yul\":6504:6510   */\n  dup5\n    /* \"#utility.yul\":6497:6501   */\n  dup5\n    /* \"#utility.yul\":6491:6502   */\n  sload\n    /* \"#utility.yul\":6463:6554   */\n  tag_41\n  jump\t// in\ntag_129:\n    /* \"#utility.yul\":6457:6461   */\n  dup3\n    /* \"#utility.yul\":6450:6555   */\n  sstore\n    /* \"#utility.yul\":6368:6561   */\n  pop\n    /* \"#utility.yul\":6292:6561   */\n  pop\n  pop\n  pop\n  jump\t// out\n    /* \"#utility.yul\":6567:6640   */\ntag_47:\n    /* \"#utility.yul\":6612:6615   */\n  0x00\n    /* \"#utility.yul\":6567:6640   */\n  swap1\n  jump\t// out\n    /* \"#utility.yul\":6646:6835   */\ntag_48:\n    /* \"#utility.yul\":6723:6755   */\n  tag_133\n  tag_47\n  jump\t// in\ntag_133:\n    /* \"#utility.yul\":6764:6829   */\n  tag_134\n    /* \"#utility.yul\":6822:6828   */\n  dup2\n    /* \"#utility.yul\":6814:6820   */\n  dup5\n    /* \"#utility.yul\":6808:6812   */\n  dup5\n    /* \"#utility.yul\":6764:6829   */\n  tag_46\n  jump\t// in\ntag_134:\n    /* \"#utility.yul\":6699:6835   */\n  pop\n    /* \"#utility.yul\":6646:6835   */\n  pop\n  pop\n  jump\t// out\n    /* \"#utility.yul\":6841:7027   */\ntag_49:\n    /* \"#utility.yul\":6901:7021   */\ntag_136:\n    /* \"#utility.yul\":6918:6921   */\n  dup2\n    /* \"#utility.yul\":6911:6916   */\n  dup2\n    /* \"#utility.yul\":6908:6922   */\n  lt\n    /* \"#utility.yul\":6901:7021   */\n  iszero\n  tag_138\n  jumpi\n    /* \"#utility.yul\":6972:7011   */\n  tag_139\n    /* \"#utility.yul\":7009:7010   */\n  0x00\n    /* \"#utility.yul\":7002:7007   */\n  dup3\n    /* \"#utility.yul\":6972:7011   */\n  tag_48\n  jump\t// in\ntag_139:\n    /* \"#utility.yul\":6945:6946   */\n  0x01\n    /* \"#utility.yul\":6938:6943   */\n  dup2\n    /* \"#utility.yul\":6934:6947   */\n  add\n    /* \"#utility.yul\":6925:6947   */\n  swap1\n  pop\n    /* \"#utility.yul\":6901:7021   */\n  jump(tag_136)\ntag_138:\n    /* \"#utility.yul\":6841:7027   */\n  pop\n  pop\n  jump\t// out\n    /* \"#utility.yul\":7033:7576   */\ntag_50:\n    /* \"#utility.yul\":7134:7136   */\n  0x1f\n    /* \"#utility.yul\":7129:7132   */\n  dup3\n    /* \"#utility.yul\":7126:7137   */\n  gt\n    /* \"#utility.yul\":7123:7569   */\n  iszero\n  tag_141\n  jumpi\n    /* \"#utility.yul\":7168:7206   */\n  tag_142\n    /* \"#utility.yul\":7200:7205   */\n  dup2\n    /* \"#utility.yul\":7168:7206   */\n  tag_38\n  jump\t// in\ntag_142:\n    /* \"#utility.yul\":7252:7281   */\n  tag_143\n    /* \"#utility.yul\":7270:7280   */\n  dup5\n    /* \"#utility.yul\":7252:7281   */\n  tag_39\n  jump\t// in\ntag_143:\n    /* \"#utility.yul\":7242:7250   */\n  dup2\n    /* \"#utility.yul\":7238:7282   */\n  add\n    /* \"#utility.yul\":7435:7437   */\n  0x20\n    /* \"#utility.yul\":7423:7433   */\n  dup6\n    /* \"#utility.yul\":7420:7438   */\n  lt\n    /* \"#utility.yul\":7417:7466   */\n  iszero\n  tag_144\n  jumpi\n    /* \"#utility.yul\":7456:7464   */\n  dup2\n    /* \"#utility.yul\":7441:7464   */\n  swap1\n  pop\n    /* \"#utility.yul\":7417:7466   */\ntag_144:\n    /* \"#utility.yul\":7479:7559   */\n  tag_145\n    /* \"#utility.yul\":7535:7557   */\n  tag_146\n    /* \"#utility.yul\":7553:7556   */\n  dup6\n    /* \"#utility.yul\":7535:7557   */\n  tag_39\n  jump\t// in\ntag_146:\n    /* \"#utility.yul\":7525:7533   */\n  dup4\n    /* \"#utility.yul\":7521:7558   */\n  add\n    /* \"#utility.yul\":7508:7519   */\n  dup3\n    /* \"#utility.yul\":7479:7559   */\n  tag_49\n  jump\t// in\ntag_145:\n    /* \"#utility.yul\":7138:7569   */\n  pop\n  pop\n    /* \"#utility.yul\":7123:7569   */\ntag_141:\n    /* \"#utility.yul\":7033:7576   */\n  pop\n  pop\n  pop\n  jump\t// out\n    /* \"#utility.yul\":7582:7699   */\ntag_51:\n    /* \"#utility.yul\":7636:7644   */\n  0x00\n    /* \"#utility.yul\":7686:7691   */\n  dup3\n    /* \"#utility.yul\":7680:7684   */\n  dup3\n    /* \"#utility.yul\":7676:7692   */\n  shr\n    /* \"#utility.yul\":7655:7692   */\n  swap1\n  pop\n    /* \"#utility.yul\":7582:7699   */\n  swap3\n  swap2\n  pop\n  pop\n  jump\t// out\n    /* \"#utility.yul\":7705:7874   */\ntag_52:\n    /* \"#utility.yul\":7749:7755   */\n  0x00\n    /* \"#utility.yul\":7782:7833   */\n  tag_149\n    /* \"#utility.yul\":7830:7831   */\n  0x00\n    /* \"#utility.yul\":7826:7832   */\n  not\n    /* \"#utility.yul\":7818:7823   */\n  dup5\n    /* \"#utility.yul\":7815:7816   */\n  0x08\n    /* \"#utility.yul\":7811:7824   */\n  mul\n    /* \"#utility.yul\":7782:7833   */\n  tag_51\n  jump\t// in\ntag_149:\n    /* \"#utility.yul\":7778:7834   */\n  not\n    /* \"#utility.yul\":7863:7867   */\n  dup1\n    /* \"#utility.yul\":7857:7861   */\n  dup4\n    /* \"#utility.yul\":7853:7868   */\n  and\n    /* \"#utility.yul\":7843:7868   */\n  swap2\n  pop\n    /* \"#utility.yul\":7756:7874   */\n  pop\n    /* \"#utility.yul\":7705:7874   */\n  swap3\n  swap2\n  pop\n  pop\n  jump\t// out\n    /* \"#utility.yul\":7879:8174   */\ntag_53:\n    /* \"#utility.yul\":7955:7959   */\n  0x00\n    /* \"#utility.yul\":8101:8130   */\n  tag_151\n    /* \"#utility.yul\":8126:8129   */\n  dup4\n    /* \"#utility.yul\":8120:8124   */\n  dup4\n    /* \"#utility.yul\":8101:8130   */\n  tag_52\n  jump\t// in\ntag_151:\n    /* \"#utility.yul\":8093:8130   */\n  swap2\n  pop\n    /* \"#utility.yul\":8163:8166   */\n  dup3\n    /* \"#utility.yul\":8160:8161   */\n  0x02\n    /* \"#utility.yul\":8156:8167   */\n  mul\n    /* \"#utility.yul\":8150:8154   */\n  dup3\n    /* \"#utility.yul\":8147:8168   */\n  or\n    /* \"#utility.yul\":8139:8168   */\n  swap1\n  pop\n    /* \"#utility.yul\":7879:8174   */\n  swap3\n  swap2\n  pop\n  pop\n  jump\t// out\n    /* \"#utility.yul\":8179:9574   */\ntag_14:\n    /* \"#utility.yul\":8296:8333   */\n  tag_153\n    /* \"#utility.yul\":8329:8332   */\n  dup3\n    /* \"#utility.yul\":8296:8333   */\n  tag_35\n  jump\t// in\ntag_153:\n    /* \"#utility.yul\":8398:8416   */\n  0xffffffffffffffff\n    /* \"#utility.yul\":8390:8396   */\n  dup2\n    /* \"#utility.yul\":8387:8417   */\n  gt\n    /* \"#utility.yul\":8384:8440   */\n  iszero\n  tag_154\n  jumpi\n    /* \"#utility.yul\":8420:8438   */\n  tag_155\n  tag_27\n  jump\t// in\ntag_155:\n    /* \"#utility.yul\":8384:8440   */\ntag_154:\n    /* \"#utility.yul\":8464:8502   */\n  tag_156\n    /* \"#utility.yul\":8496:8500   */\n  dup3\n    /* \"#utility.yul\":8490:8501   */\n  sload\n    /* \"#utility.yul\":8464:8502   */\n  tag_37\n  jump\t// in\ntag_156:\n    /* \"#utility.yul\":8549:8616   */\n  tag_157\n    /* \"#utility.yul\":8609:8615   */\n  dup3\n    /* \"#utility.yul\":8601:8607   */\n  dup3\n    /* \"#utility.yul\":8595:8599   */\n  dup6\n    /* \"#utility.yul\":8549:8616   */\n  tag_50\n  jump\t// in\ntag_157:\n    /* \"#utility.yul\":8643:8644   */\n  0x00\n    /* \"#utility.yul\":8667:8671   */\n  0x20\n    /* \"#utility.yul\":8654:8671   */\n  swap1\n  pop\n    /* \"#utility.yul\":8699:8701   */\n  0x1f\n    /* \"#utility.yul\":8691:8697   */\n  dup4\n    /* \"#utility.yul\":8688:8702   */\n  gt\n    /* \"#utility.yul\":8716:8717   */\n  0x01\n    /* \"#utility.yul\":8711:9329   */\n  dup2\n  eq\n  tag_159\n  jumpi\n    /* \"#utility.yul\":9373:9374   */\n  0x00\n    /* \"#utility.yul\":9390:9396   */\n  dup5\n    /* \"#utility.yul\":9387:9464   */\n  iszero\n  tag_160\n  jumpi\n    /* \"#utility.yul\":9439:9448   */\n  dup3\n    /* \"#utility.yul\":9434:9437   */\n  dup8\n    /* \"#utility.yul\":9430:9449   */\n  add\n    /* \"#utility.yul\":9424:9450   */\n  mload\n    /* \"#utility.yul\":9415:9450   */\n  swap1\n  pop\n    /* \"#utility.yul\":9387:9464   */\ntag_160:\n    /* \"#utility.yul\":9490:9557   */\n  tag_161\n    /* \"#utility.yul\":9550:9556   */\n  dup6\n    /* \"#utility.yul\":9543:9548   */\n  dup3\n    /* \"#utility.yul\":9490:9557   */\n  tag_53\n  jump\t// in\ntag_161:\n    /* \"#utility.yul\":9484:9488   */\n  dup7\n    /* \"#utility.yul\":9477:9558   */\n  sstore\n    /* \"#utility.yul\":9346:9568   */\n  pop\n    /* \"#utility.yul\":8681:9568   */\n  jump(tag_158)\n    /* \"#utility.yul\":8711:9329   */\ntag_159:\n    /* \"#utility.yul\":8763:8767   */\n  0x1f\n    /* \"#utility.yul\":8759:8768   */\n  not\n    /* \"#utility.yul\":8751:8757   */\n  dup5\n    /* \"#utility.yul\":8747:8769   */\n  and\n    /* \"#utility.yul\":8797:8834   */\n  tag_162\n    /* \"#utility.yul\":8829:8833   */\n  dup7\n    /* \"#utility.yul\":8797:8834   */\n  tag_38\n  jump\t// in\ntag_162:\n    /* \"#utility.yul\":8856:8857   */\n  0x00\n    /* \"#utility.yul\":8870:9078   */\ntag_163:\n    /* \"#utility.yul\":8884:8891   */\n  dup3\n    /* \"#utility.yul\":8881:8882   */\n  dup2\n    /* \"#utility.yul\":8878:8892   */\n  lt\n    /* \"#utility.yul\":8870:9078   */\n  iszero\n  tag_165\n  jumpi\n    /* \"#utility.yul\":8963:8972   */\n  dup5\n    /* \"#utility.yul\":8958:8961   */\n  dup10\n    /* \"#utility.yul\":8954:8973   */\n  add\n    /* \"#utility.yul\":8948:8974   */\n  mload\n    /* \"#utility.yul\":8940:8946   */\n  dup3\n    /* \"#utility.yul\":8933:8975   */\n  sstore\n    /* \"#utility.yul\":9014:9015   */\n  0x01\n    /* \"#utility.yul\":9006:9012   */\n  dup3\n    /* \"#utility.yul\":9002:9016   */\n  add\n    /* \"#utility.yul\":8992:9016   */\n  swap2\n  pop\n    /* \"#utility.yul\":9061:9063   */\n  0x20\n    /* \"#utility.yul\":9050:9059   */\n  dup6\n    /* \"#utility.yul\":9046:9064   */\n  add\n    /* \"#utility.yul\":9033:9064   */\n  swap5\n  pop\n    /* \"#utility.yul\":8907:8911   */\n  0x20\n    /* \"#utility.yul\":8904:8905   */\n  dup2\n    /* \"#utility.yul\":8900:8912   */\n  add\n    /* \"#utility.yul\":8895:8912   */\n  swap1\n  pop\n    /* \"#utility.yul\":8870:9078   */\n  jump(tag_163)\ntag_165:\n    /* \"#utility.yul\":9106:9112   */\n  dup7\n    /* \"#utility.yul\":9097:9104   */\n  dup4\n    /* \"#utility.yul\":9094:9113   */\n  lt\n    /* \"#utility.yul\":9091:9270   */\n  iszero\n  tag_166\n  jumpi\n    /* \"#utility.yul\":9164:9173   */\n  dup5\n    /* \"#utility.yul\":9159:9162   */\n  dup10\n    /* \"#utility.yul\":9155:9174   */\n  add\n    /* \"#utility.yul\":9149:9175   */\n  mload\n    /* \"#utility.yul\":9207:9255   */\n  tag_167\n    /* \"#utility.yul\":9249:9253   */\n  0x1f\n    /* \"#utility.yul\":9241:9247   */\n  dup10\n    /* \"#utility.yul\":9237:9254   */\n  and\n    /* \"#utility.yul\":9226:9235   */\n  dup3\n    /* \"#utility.yul\":9207:9255   */\n  tag_52\n  jump\t// in\ntag_167:\n    /* \"#utility.yul\":9199:9205   */\n  dup4\n    /* \"#utility.yul\":9192:9256   */\n  sstore\n    /* \"#utility.yul\":9114:9270   */\n  pop\n    /* \"#utility.yul\":9091:9270   */\ntag_166:\n    /* \"#utility.yul\":9316:9317   */\n  0x01\n    /* \"#utility.yul\":9312:9313   */\n  0x02\n    /* \"#utility.yul\":9304:9310   */\n  dup9\n    /* \"#utility.yul\":9300:9314   */\n  mul\n    /* \"#utility.yul\":9296:9318   */\n  add\n    /* \"#utility.yul\":9290:9294   */\n  dup9\n    /* \"#utility.yul\":9283:9319   */\n  sstore\n    /* \"#utility.yul\":8718:9329   */\n  pop\n  pop\n  pop\n    /* \"#utility.yul\":8681:9568   */\ntag_158:\n  pop\n    /* \"#utility.yul\":8271:9574   */\n  pop\n  pop\n  pop\n    /* \"#utility.yul\":8179:9574   */\n  pop\n  pop\n  jump\t// out\n    /* \"ribbonVault.sol\":524:4314  contract vault is Ownable{... */\ntag_15:\n  dataSize(sub_0)\n  dup1\n  dataOffset(sub_0)\n  0x00\n  codecopy\n  0x00\n  return\nstop\n\nsub_0: assembly {\n        /* \"ribbonVault.sol\":524:4314  contract vault is Ownable{... */\n      mstore(0x40, 0x80)\n      callvalue\n      dup1\n      iszero\n      tag_1\n      jumpi\n      0x00\n      dup1\n      revert\n    tag_1:\n      pop\n      jumpi(tag_2, lt(calldatasize, 0x04))\n      shr(0xe0, calldataload(0x00))\n      dup1\n      0x8bc7e8c4\n      gt\n      tag_25\n      jumpi\n      dup1\n      0xac1e5025\n      gt\n      tag_26\n      jumpi\n      dup1\n      0xac1e5025\n      eq\n      tag_19\n      jumpi\n      dup1\n      0xc08e7286\n      eq\n      tag_20\n      jumpi\n      dup1\n      0xc4a9e858\n      eq\n      tag_21\n      jumpi\n      dup1\n      0xe1fefd42\n      eq\n      tag_22\n      jumpi\n      dup1\n      0xf2fde38b\n      eq\n      tag_23\n      jumpi\n      dup1\n      0xfd918716\n      eq\n      tag_24\n      jumpi\n      jump(tag_2)\n    tag_26:\n      dup1\n      0x8bc7e8c4\n      eq\n      tag_14\n      jumpi\n      dup1\n      0x8da5cb5b\n      eq\n      tag_15\n      jumpi\n      dup1\n      0x945c147b\n      eq\n      tag_16\n      jumpi\n      dup1\n      0x966addc0\n      eq\n      tag_17\n      jumpi\n      dup1\n      0x9683cdc4\n      eq\n      tag_18\n      jumpi\n      jump(tag_2)\n    tag_25:\n      dup1\n      0x34ef077c\n      gt\n      tag_27\n      jumpi\n      dup1\n      0x34ef077c\n      eq\n      tag_8\n      jumpi\n      dup1\n      0x34fcf437\n      eq\n      tag_9\n      jumpi\n      dup1\n      0x67a52793\n      eq\n      tag_10\n      jumpi\n      dup1\n      0x715018a6\n      eq\n      tag_11\n      jumpi\n      dup1\n      0x76ee947f\n      eq\n      tag_12\n      jumpi\n      dup1\n      0x7d91fb46\n      eq\n      tag_13\n      jumpi\n      jump(tag_2)\n    tag_27:\n      dup1\n      0x06e0e582\n      eq\n      tag_3\n      jumpi\n      dup1\n      0x0ace9ca0\n      eq\n      tag_4\n      jumpi\n      dup1\n      0x0d461e61\n      eq\n      tag_5\n      jumpi\n      dup1\n      0x258ba1ee\n      eq\n      tag_6\n      jumpi\n      dup1\n      0x2c4e722e\n      eq\n      tag_7\n      jumpi\n    tag_2:\n      0x00\n      dup1\n      revert\n        /* \"ribbonVault.sol\":709:751  uint public initContractBalancePaymentCoin */\n    tag_3:\n      tag_28\n      tag_29\n      jump\t// in\n    tag_28:\n      mload(0x40)\n      tag_30\n      swap2\n      swap1\n      tag_31\n      jump\t// in\n    tag_30:\n      mload(0x40)\n      dup1\n      swap2\n      sub\n      swap1\n      return\n        /* \"ribbonVault.sol\":837:860  string public vaultName */\n    tag_4:\n      tag_32\n      tag_33\n      jump\t// in\n    tag_32:\n      mload(0x40)\n      tag_34\n      swap2\n      swap1\n      tag_35\n      jump\t// in\n    tag_34:\n      mload(0x40)\n      dup1\n      swap2\n      sub\n      swap1\n      return\n        /* \"ribbonVault.sol\":3360:3548  function checkAmountToRecive(uint pointToSwap)public view returns(uint){... */\n    tag_5:\n      tag_36\n      0x04\n      dup1\n      calldatasize\n      sub\n      dup2\n      add\n      swap1\n      tag_37\n      swap2\n      swap1\n      tag_38\n      jump\t// in\n    tag_37:\n      tag_39\n      jump\t// in\n    tag_36:\n      mload(0x40)\n      tag_40\n      swap2\n      swap1\n      tag_31\n      jump\t// in\n    tag_40:\n      mload(0x40)\n      dup1\n      swap2\n      sub\n      swap1\n      return\n        /* \"ribbonVault.sol\":1451:1648  function setpaymentTokenAndpoints(address paymentAddress,address pointsaddress)public onlyOwner{... */\n    tag_6:\n      tag_41\n      0x04\n      dup1\n      calldatasize\n      sub\n      dup2\n      add\n      swap1\n      tag_42\n      swap2\n      swap1\n      tag_43\n      jump\t// in\n    tag_42:\n      tag_44\n      jump\t// in\n    tag_41:\n      stop\n        /* \"ribbonVault.sol\":632:648  uint public rate */\n    tag_7:\n      tag_45\n      tag_46\n      jump\t// in\n    tag_45:\n      mload(0x40)\n      tag_47\n      swap2\n      swap1\n      tag_31\n      jump\t// in\n    tag_47:\n      mload(0x40)\n      dup1\n      swap2\n      sub\n      swap1\n      return\n        /* \"ribbonVault.sol\":3598:4302  function swapToPaymentCoin(address user,uint pointToSwap)public {... */\n    tag_8:\n      tag_48\n      0x04\n      dup1\n      calldatasize\n      sub\n      dup2\n      add\n      swap1\n      tag_49\n      swap2\n      swap1\n      tag_50\n      jump\t// in\n    tag_49:\n      tag_51\n      jump\t// in\n    tag_48:\n      stop\n        /* \"ribbonVault.sol\":1883:1957  function setRate(uint _rate)public onlyOwner{... */\n    tag_9:\n      tag_52\n      0x04\n      dup1\n      calldatasize\n      sub\n      dup2\n      add\n      swap1\n      tag_53\n      swap2\n      swap1\n      tag_38\n      jump\t// in\n    tag_53:\n      tag_54\n      jump\t// in\n    tag_52:\n      stop\n        /* \"ribbonVault.sol\":605:627  uint public depositFee */\n    tag_10:\n      tag_55\n      tag_56\n      jump\t// in\n    tag_55:\n      mload(0x40)\n      tag_57\n      swap2\n      swap1\n      tag_31\n      jump\t// in\n    tag_57:\n      mload(0x40)\n      dup1\n      swap2\n      sub\n      swap1\n      return\n        /* \"@openzeppelin/contracts/access/Ownable.sol\":2293:2394  function renounceOwnership() public virtual onlyOwner {... */\n    tag_11:\n      tag_58\n      tag_59\n      jump\t// in\n    tag_58:\n      stop\n        /* \"ribbonVault.sol\":1658:1748  function setPaymentDepositfees(uint _fee)public onlyOwner{... */\n    tag_12:\n      tag_60\n      0x04\n      dup1\n      calldatasize\n      sub\n      dup2\n      add\n      swap1\n      tag_61\n      swap2\n      swap1\n      tag_38\n      jump\t// in\n    tag_61:\n      tag_62\n      jump\t// in\n    tag_60:\n      stop\n        /* \"ribbonVault.sol\":865:913  mapping (address=>bool) public onlyApprovedAdmin */\n    tag_13:\n      tag_63\n      0x04\n      dup1\n      calldatasize\n      sub\n      dup2\n      add\n      swap1\n      tag_64\n      swap2\n      swap1\n      tag_65\n      jump\t// in\n    tag_64:\n      tag_66\n      jump\t// in\n    tag_63:\n      mload(0x40)\n      tag_67\n      swap2\n      swap1\n      tag_68\n      jump\t// in\n    tag_67:\n      mload(0x40)\n      dup1\n      swap2\n      sub\n      swap1\n      return\n        /* \"ribbonVault.sol\":653:678  uint public withdrawalFee */\n    tag_14:\n      tag_69\n      tag_70\n      jump\t// in\n    tag_69:\n      mload(0x40)\n      tag_71\n      swap2\n      swap1\n      tag_31\n      jump\t// in\n    tag_71:\n      mload(0x40)\n      dup1\n      swap2\n      sub\n      swap1\n      return\n        /* \"@openzeppelin/contracts/access/Ownable.sol\":1638:1723  function owner() public view virtual returns (address) {... */\n    tag_15:\n      tag_72\n      tag_73\n      jump\t// in\n    tag_72:\n      mload(0x40)\n      tag_74\n      swap2\n      swap1\n      tag_75\n      jump\t// in\n    tag_74:\n      mload(0x40)\n      dup1\n      swap2\n      sub\n      swap1\n      return\n        /* \"ribbonVault.sol\":2113:2310  function setApprovedAdmin(address[] memory _addresses,bool _val)public onlyOwner{ ... */\n    tag_16:\n      tag_76\n      0x04\n      dup1\n      calldatasize\n      sub\n      dup2\n      add\n      swap1\n      tag_77\n      swap2\n      swap1\n      tag_78\n      jump\t// in\n    tag_77:\n      tag_79\n      jump\t// in\n    tag_76:\n      stop\n        /* \"ribbonVault.sol\":3085:3352  function claimPoints(address user,uint amount)public  {... */\n    tag_17:\n      tag_80\n      0x04\n      dup1\n      calldatasize\n      sub\n      dup2\n      add\n      swap1\n      tag_81\n      swap2\n      swap1\n      tag_50\n      jump\t// in\n    tag_81:\n      tag_82\n      jump\t// in\n    tag_80:\n      stop\n        /* \"ribbonVault.sol\":2317:2809  function withdrawfees(address feeTakerAddress) public onlyOwner{... */\n    tag_18:\n      tag_83\n      0x04\n      dup1\n      calldatasize\n      sub\n      dup2\n      add\n      swap1\n      tag_84\n      swap2\n      swap1\n      tag_65\n      jump\t// in\n    tag_84:\n      tag_85\n      jump\t// in\n    tag_83:\n      stop\n        /* \"ribbonVault.sol\":1752:1840  function setWithdrawalFee(uint _fee)public onlyOwner{... */\n    tag_19:\n      tag_86\n      0x04\n      dup1\n      calldatasize\n      sub\n      dup2\n      add\n      swap1\n      tag_87\n      swap2\n      swap1\n      tag_38\n      jump\t// in\n    tag_87:\n      tag_88\n      jump\t// in\n    tag_86:\n      stop\n        /* \"ribbonVault.sol\":2001:2108  function setMinPointsToSWap(uint _pointsMin)public onlyOwner{... */\n    tag_20:\n      tag_89\n      0x04\n      dup1\n      calldatasize\n      sub\n      dup2\n      add\n      swap1\n      tag_90\n      swap2\n      swap1\n      tag_38\n      jump\t// in\n    tag_90:\n      tag_91\n      jump\t// in\n    tag_89:\n      stop\n        /* \"ribbonVault.sol\":791:832  uint public TotalfeescollectedPaymentCoin */\n    tag_21:\n      tag_92\n      tag_93\n      jump\t// in\n    tag_92:\n      mload(0x40)\n      tag_94\n      swap2\n      swap1\n      tag_31\n      jump\t// in\n    tag_94:\n      mload(0x40)\n      dup1\n      swap2\n      sub\n      swap1\n      return\n        /* \"ribbonVault.sol\":683:704  uint public pointsMin */\n    tag_22:\n      tag_95\n      tag_96\n      jump\t// in\n    tag_95:\n      mload(0x40)\n      tag_97\n      swap2\n      swap1\n      tag_31\n      jump\t// in\n    tag_97:\n      mload(0x40)\n      dup1\n      swap2\n      sub\n      swap1\n      return\n        /* \"@openzeppelin/contracts/access/Ownable.sol\":2543:2758  function transferOwnership(address newOwner) public virtual onlyOwner {... */\n    tag_23:\n      tag_98\n      0x04\n      dup1\n      calldatasize\n      sub\n      dup2\n      add\n      swap1\n      tag_99\n      swap2\n      swap1\n      tag_65\n      jump\t// in\n    tag_99:\n      tag_100\n      jump\t// in\n    tag_98:\n      stop\n        /* \"ribbonVault.sol\":756:786  uint public claimedPaymentCoin */\n    tag_24:\n      tag_101\n      tag_102\n      jump\t// in\n    tag_101:\n      mload(0x40)\n      tag_103\n      swap2\n      swap1\n      tag_31\n      jump\t// in\n    tag_103:\n      mload(0x40)\n      dup1\n      swap2\n      sub\n      swap1\n      return\n        /* \"ribbonVault.sol\":709:751  uint public initContractBalancePaymentCoin */\n    tag_29:\n      sload(0x07)\n      dup2\n      jump\t// out\n        /* \"ribbonVault.sol\":837:860  string public vaultName */\n    tag_33:\n      0x0a\n      dup1\n      sload\n      tag_104\n      swap1\n      tag_105\n      jump\t// in\n    tag_104:\n      dup1\n      0x1f\n      add\n      0x20\n      dup1\n      swap2\n      div\n      mul\n      0x20\n      add\n      mload(0x40)\n      swap1\n      dup2\n      add\n      0x40\n      mstore\n      dup1\n      swap3\n      swap2\n      swap1\n      dup2\n      dup2\n      mstore\n      0x20\n      add\n      dup3\n      dup1\n      sload\n      tag_106\n      swap1\n      tag_105\n      jump\t// in\n    tag_106:\n      dup1\n      iszero\n      tag_107\n      jumpi\n      dup1\n      0x1f\n      lt\n      tag_108\n      jumpi\n      0x0100\n      dup1\n      dup4\n      sload\n      div\n      mul\n      dup4\n      mstore\n      swap2\n      0x20\n      add\n      swap2\n      jump(tag_107)\n    tag_108:\n      dup3\n      add\n      swap2\n      swap1\n      0x00\n      mstore\n      keccak256(0x00, 0x20)\n      swap1\n    tag_109:\n      dup2\n      sload\n      dup2\n      mstore\n      swap1\n      0x01\n      add\n      swap1\n      0x20\n      add\n      dup1\n      dup4\n      gt\n      tag_109\n      jumpi\n      dup3\n      swap1\n      sub\n      0x1f\n      and\n      dup3\n      add\n      swap2\n    tag_107:\n      pop\n      pop\n      pop\n      pop\n      pop\n      dup2\n      jump\t// out\n        /* \"ribbonVault.sol\":3360:3548  function checkAmountToRecive(uint pointToSwap)public view returns(uint){... */\n    tag_39:\n        /* \"ribbonVault.sol\":3426:3430  uint */\n      0x00\n        /* \"ribbonVault.sol\":3444:3454  uint _rate */\n      dup1\n        /* \"ribbonVault.sol\":3510:3516  10**18 */\n      0x0de0b6b3a7640000\n        /* \"ribbonVault.sol\":3505:3509  rate */\n      sload(0x04)\n        /* \"ribbonVault.sol\":3505:3516  rate*10**18 */\n      tag_111\n      swap2\n      swap1\n      tag_112\n      jump\t// in\n    tag_111:\n        /* \"ribbonVault.sol\":3478:3491  _Ipaymentcoin */\n      0x01\n      0x00\n      swap1\n      sload\n      swap1\n      0x0100\n      exp\n      swap1\n      div\n      0xffffffffffffffffffffffffffffffffffffffff\n      and\n        /* \"ribbonVault.sol\":3478:3500  _Ipaymentcoin.decimals */\n      0xffffffffffffffffffffffffffffffffffffffff\n      and\n      0x313ce567\n        /* \"ribbonVault.sol\":3478:3502  _Ipaymentcoin.decimals() */\n      mload(0x40)\n      dup2\n      0xffffffff\n      and\n      0xe0\n      shl\n      dup2\n      mstore\n      0x04\n      add\n      0x20\n      mload(0x40)\n      dup1\n      dup4\n      sub\n      dup2\n      dup7\n      gas\n      staticcall\n      iszero\n      dup1\n      iszero\n      tag_114\n      jumpi\n      returndatasize\n      0x00\n      dup1\n      returndatacopy\n      revert(0x00, returndatasize)\n    tag_114:\n      pop\n      pop\n      pop\n      pop\n      mload(0x40)\n      returndatasize\n      not(0x1f)\n      0x1f\n      dup3\n      add\n      and\n      dup3\n      add\n      dup1\n      0x40\n      mstore\n      pop\n      dup2\n      add\n      swap1\n      tag_115\n      swap2\n      swap1\n      tag_116\n      jump\t// in\n    tag_115:\n        /* \"ribbonVault.sol\":3474:3476  10 */\n      0x0a\n        /* \"ribbonVault.sol\":3474:3502  10**_Ipaymentcoin.decimals() */\n      tag_117\n      swap2\n      swap1\n      tag_118\n      jump\t// in\n    tag_117:\n        /* \"ribbonVault.sol\":3472:3473  1 */\n      0x01\n        /* \"ribbonVault.sol\":3458:3469  pointToSwap */\n      dup6\n        /* \"ribbonVault.sol\":3458:3473  pointToSwap * 1 */\n      tag_119\n      swap2\n      swap1\n      tag_112\n      jump\t// in\n    tag_119:\n        /* \"ribbonVault.sol\":3458:3502  pointToSwap * 1*10**_Ipaymentcoin.decimals() */\n      tag_120\n      swap2\n      swap1\n      tag_112\n      jump\t// in\n    tag_120:\n        /* \"ribbonVault.sol\":3457:3517  (pointToSwap * 1*10**_Ipaymentcoin.decimals())/(rate*10**18) */\n      tag_121\n      swap2\n      swap1\n      tag_122\n      jump\t// in\n    tag_121:\n        /* \"ribbonVault.sol\":3444:3517  uint _rate = (pointToSwap * 1*10**_Ipaymentcoin.decimals())/(rate*10**18) */\n      swap1\n      pop\n        /* \"ribbonVault.sol\":3537:3542  _rate */\n      dup1\n        /* \"ribbonVault.sol\":3530:3542  return _rate */\n      swap2\n      pop\n      pop\n        /* \"ribbonVault.sol\":3360:3548  function checkAmountToRecive(uint pointToSwap)public view returns(uint){... */\n      swap2\n      swap1\n      pop\n      jump\t// out\n        /* \"ribbonVault.sol\":1451:1648  function setpaymentTokenAndpoints(address paymentAddress,address pointsaddress)public onlyOwner{... */\n    tag_44:\n        /* \"@openzeppelin/contracts/access/Ownable.sol\":1531:1544  _checkOwner() */\n      tag_124\n        /* \"@openzeppelin/contracts/access/Ownable.sol\":1531:1542  _checkOwner */\n      tag_125\n        /* \"@openzeppelin/contracts/access/Ownable.sol\":1531:1544  _checkOwner() */\n      jump\t// in\n    tag_124:\n        /* \"ribbonVault.sol\":1580:1594  paymentAddress */\n      dup2\n        /* \"ribbonVault.sol\":1556:1569  _Ipaymentcoin */\n      0x01\n      0x00\n        /* \"ribbonVault.sol\":1556:1595  _Ipaymentcoin = IERC20T(paymentAddress) */\n      0x0100\n      exp\n      dup2\n      sload\n      dup2\n      0xffffffffffffffffffffffffffffffffffffffff\n      mul\n      not\n      and\n      swap1\n      dup4\n      0xffffffffffffffffffffffffffffffffffffffff\n      and\n      mul\n      or\n      swap1\n      sstore\n      pop\n        /* \"ribbonVault.sol\":1628:1641  pointsaddress */\n      dup1\n        /* \"ribbonVault.sol\":1605:1617  _Ipointscoin */\n      0x02\n      0x00\n        /* \"ribbonVault.sol\":1605:1642  _Ipointscoin = IERC20T(pointsaddress) */\n      0x0100\n      exp\n      dup2\n      sload\n      dup2\n      0xffffffffffffffffffffffffffffffffffffffff\n      mul\n      not\n      and\n      swap1\n      dup4\n      0xffffffffffffffffffffffffffffffffffffffff\n      and\n      mul\n      or\n      swap1\n      sstore\n      pop\n        /* \"ribbonVault.sol\":1451:1648  function setpaymentTokenAndpoints(address paymentAddress,address pointsaddress)public onlyOwner{... */\n      pop\n      pop\n      jump\t// out\n        /* \"ribbonVault.sol\":632:648  uint public rate */\n    tag_46:\n      sload(0x04)\n      dup2\n      jump\t// out\n        /* \"ribbonVault.sol\":3598:4302  function swapToPaymentCoin(address user,uint pointToSwap)public {... */\n    tag_51:\n        /* \"ribbonVault.sol\":3709:3713  true */\n      0x01\n        /* \"ribbonVault.sol\":3678:3713  onlyApprovedAdmin[msg.sender]==true */\n      iszero\n      iszero\n        /* \"ribbonVault.sol\":3678:3695  onlyApprovedAdmin */\n      0x0b\n        /* \"ribbonVault.sol\":3678:3707  onlyApprovedAdmin[msg.sender] */\n      0x00\n        /* \"ribbonVault.sol\":3696:3706  msg.sender */\n      caller\n        /* \"ribbonVault.sol\":3678:3707  onlyApprovedAdmin[msg.sender] */\n      0xffffffffffffffffffffffffffffffffffffffff\n      and\n      0xffffffffffffffffffffffffffffffffffffffff\n      and\n      dup2\n      mstore\n      0x20\n      add\n      swap1\n      dup2\n      mstore\n      0x20\n      add\n      0x00\n      keccak256\n      0x00\n      swap1\n      sload\n      swap1\n      0x0100\n      exp\n      swap1\n      div\n      0xff\n      and\n        /* \"ribbonVault.sol\":3678:3713  onlyApprovedAdmin[msg.sender]==true */\n      iszero\n      iszero\n      eq\n        /* \"ribbonVault.sol\":3670:3738  require(onlyApprovedAdmin[msg.sender]==true,\"you are not permitted\") */\n      tag_128\n      jumpi\n      mload(0x40)\n      0x08c379a000000000000000000000000000000000000000000000000000000000\n      dup2\n      mstore\n      0x04\n      add\n      tag_129\n      swap1\n      tag_130\n      jump\t// in\n    tag_129:\n      mload(0x40)\n      dup1\n      swap2\n      sub\n      swap1\n      revert\n    tag_128:\n        /* \"ribbonVault.sol\":3788:3799  pointToSwap */\n      dup1\n        /* \"ribbonVault.sol\":3757:3769  _Ipointscoin */\n      0x02\n      0x00\n      swap1\n      sload\n      swap1\n      0x0100\n      exp\n      swap1\n      div\n      0xffffffffffffffffffffffffffffffffffffffff\n      and\n        /* \"ribbonVault.sol\":3757:3779  _Ipointscoin.balanceOf */\n      0xffffffffffffffffffffffffffffffffffffffff\n      and\n      0x70a08231\n        /* \"ribbonVault.sol\":3780:3784  user */\n      dup5\n        /* \"ribbonVault.sol\":3757:3785  _Ipointscoin.balanceOf(user) */\n      mload(0x40)\n      dup3\n      0xffffffff\n      and\n      0xe0\n      shl\n      dup2\n      mstore\n      0x04\n      add\n      tag_131\n      swap2\n      swap1\n      tag_75\n      jump\t// in\n    tag_131:\n      0x20\n      mload(0x40)\n      dup1\n      dup4\n      sub\n      dup2\n      dup7\n      gas\n      staticcall\n      iszero\n      dup1\n      iszero\n      tag_133\n      jumpi\n      returndatasize\n      0x00\n      dup1\n      returndatacopy\n      revert(0x00, returndatasize)\n    tag_133:\n      pop\n      pop\n      pop\n      pop\n      mload(0x40)\n      returndatasize\n      not(0x1f)\n      0x1f\n      dup3\n      add\n      and\n      dup3\n      add\n      dup1\n      0x40\n      mstore\n      pop\n      dup2\n      add\n      swap1\n      tag_134\n      swap2\n      swap1\n      tag_135\n      jump\t// in\n    tag_134:\n        /* \"ribbonVault.sol\":3757:3799  _Ipointscoin.balanceOf(user)>= pointToSwap */\n      lt\n      iszero\n        /* \"ribbonVault.sol\":3749:3820  require(_Ipointscoin.balanceOf(user)>= pointToSwap,\"not enough points\") */\n      tag_136\n      jumpi\n      mload(0x40)\n      0x08c379a000000000000000000000000000000000000000000000000000000000\n      dup2\n      mstore\n      0x04\n      add\n      tag_137\n      swap1\n      tag_138\n      jump\t// in\n    tag_137:\n      mload(0x40)\n      dup1\n      swap2\n      sub\n      swap1\n      revert\n    tag_136:\n        /* \"ribbonVault.sol\":3854:3863  pointsMin */\n      sload(0x06)\n        /* \"ribbonVault.sol\":3839:3850  pointToSwap */\n      dup2\n        /* \"ribbonVault.sol\":3839:3863  pointToSwap >= pointsMin */\n      lt\n      iszero\n        /* \"ribbonVault.sol\":3831:3901  require(pointToSwap >= pointsMin,\"points to swap less than minpoints\") */\n      tag_139\n      jumpi\n      mload(0x40)\n      0x08c379a000000000000000000000000000000000000000000000000000000000\n      dup2\n      mstore\n      0x04\n      add\n      tag_140\n      swap1\n      tag_141\n      jump\t// in\n    tag_140:\n      mload(0x40)\n      dup1\n      swap2\n      sub\n      swap1\n      revert\n    tag_139:\n        /* \"ribbonVault.sol\":3912:3923  uint amount */\n      0x00\n        /* \"ribbonVault.sol\":3926:3958  checkAmountToRecive(pointToSwap) */\n      tag_142\n        /* \"ribbonVault.sol\":3946:3957  pointToSwap */\n      dup3\n        /* \"ribbonVault.sol\":3926:3945  checkAmountToRecive */\n      tag_39\n        /* \"ribbonVault.sol\":3926:3958  checkAmountToRecive(pointToSwap) */\n      jump\t// in\n    tag_142:\n        /* \"ribbonVault.sol\":3912:3958  uint amount = checkAmountToRecive(pointToSwap) */\n      swap1\n      pop\n        /* \"ribbonVault.sol\":3991:3997  amount */\n      dup1\n        /* \"ribbonVault.sol\":3969:3987  claimedPaymentCoin */\n      0x08\n      0x00\n        /* \"ribbonVault.sol\":3969:3997  claimedPaymentCoin += amount */\n      dup3\n      dup3\n      sload\n      tag_143\n      swap2\n      swap1\n      tag_144\n      jump\t// in\n    tag_143:\n      swap3\n      pop\n      pop\n      dup2\n      swap1\n      sstore\n      pop\n        /* \"ribbonVault.sol\":4008:4017  uint _fee */\n      0x00\n        /* \"ribbonVault.sol\":4043:4046  100 */\n      0x64\n        /* \"ribbonVault.sol\":4028:4041  withdrawalFee */\n      sload(0x05)\n        /* \"ribbonVault.sol\":4021:4027  amount */\n      dup4\n        /* \"ribbonVault.sol\":4021:4041  amount*withdrawalFee */\n      tag_145\n      swap2\n      swap1\n      tag_112\n      jump\t// in\n    tag_145:\n        /* \"ribbonVault.sol\":4020:4046  (amount*withdrawalFee)/100 */\n      tag_146\n      swap2\n      swap1\n      tag_122\n      jump\t// in\n    tag_146:\n        /* \"ribbonVault.sol\":4008:4046  uint _fee = (amount*withdrawalFee)/100 */\n      swap1\n      pop\n        /* \"ribbonVault.sol\":4057:4075  uint amoutAfterFee */\n      0x00\n        /* \"ribbonVault.sol\":4086:4090  _fee */\n      dup2\n        /* \"ribbonVault.sol\":4078:4084  amount */\n      dup4\n        /* \"ribbonVault.sol\":4078:4090  amount -_fee */\n      tag_147\n      swap2\n      swap1\n      tag_148\n      jump\t// in\n    tag_147:\n        /* \"ribbonVault.sol\":4057:4090  uint amoutAfterFee = amount -_fee */\n      swap1\n      pop\n        /* \"ribbonVault.sol\":4101:4113  _Ipointscoin */\n      0x02\n      0x00\n      swap1\n      sload\n      swap1\n      0x0100\n      exp\n      swap1\n      div\n      0xffffffffffffffffffffffffffffffffffffffff\n      and\n        /* \"ribbonVault.sol\":4101:4118  _Ipointscoin.burn */\n      0xffffffffffffffffffffffffffffffffffffffff\n      and\n      0x9dc29fac\n        /* \"ribbonVault.sol\":4119:4123  user */\n      dup7\n        /* \"ribbonVault.sol\":4124:4135  pointToSwap */\n      dup7\n        /* \"ribbonVault.sol\":4101:4136  _Ipointscoin.burn(user,pointToSwap) */\n      mload(0x40)\n      dup4\n      0xffffffff\n      and\n      0xe0\n      shl\n      dup2\n      mstore\n      0x04\n      add\n      tag_149\n      swap3\n      swap2\n      swap1\n      tag_150\n      jump\t// in\n    tag_149:\n      0x00\n      mload(0x40)\n      dup1\n      dup4\n      sub\n      dup2\n      0x00\n      dup8\n      dup1\n      extcodesize\n      iszero\n      dup1\n      iszero\n      tag_151\n      jumpi\n      0x00\n      dup1\n      revert\n    tag_151:\n      pop\n      gas\n      call\n      iszero\n      dup1\n      iszero\n      tag_153\n      jumpi\n      returndatasize\n      0x00\n      dup1\n      returndatacopy\n      revert(0x00, returndatasize)\n    tag_153:\n      pop\n      pop\n      pop\n      pop\n        /* \"ribbonVault.sol\":4147:4160  _Ipaymentcoin */\n      0x01\n      0x00\n      swap1\n      sload\n      swap1\n      0x0100\n      exp\n      swap1\n      div\n      0xffffffffffffffffffffffffffffffffffffffff\n      and\n        /* \"ribbonVault.sol\":4147:4169  _Ipaymentcoin.transfer */\n      0xffffffffffffffffffffffffffffffffffffffff\n      and\n      0xa9059cbb\n        /* \"ribbonVault.sol\":4170:4174  user */\n      dup7\n        /* \"ribbonVault.sol\":4175:4188  amoutAfterFee */\n      dup4\n        /* \"ribbonVault.sol\":4147:4189  _Ipaymentcoin.transfer(user,amoutAfterFee) */\n      mload(0x40)\n      dup4\n      0xffffffff\n      and\n      0xe0\n      shl\n      dup2\n      mstore\n      0x04\n      add\n      tag_154\n      swap3\n      swap2\n      swap1\n      tag_150\n      jump\t// in\n    tag_154:\n      0x20\n      mload(0x40)\n      dup1\n      dup4\n      sub\n      dup2\n      0x00\n      dup8\n      gas\n      call\n      iszero\n      dup1\n      iszero\n      tag_156\n      jumpi\n      returndatasize\n      0x00\n      dup1\n      returndatacopy\n      revert(0x00, returndatasize)\n    tag_156:\n      pop\n      pop\n      pop\n      pop\n      mload(0x40)\n      returndatasize\n      not(0x1f)\n      0x1f\n      dup3\n      add\n      and\n      dup3\n      add\n      dup1\n      0x40\n      mstore\n      pop\n      dup2\n      add\n      swap1\n      tag_157\n      swap2\n      swap1\n      tag_158\n      jump\t// in\n    tag_157:\n      pop\n        /* \"ribbonVault.sol\":4200:4213  _Ipaymentcoin */\n      0x01\n      0x00\n      swap1\n      sload\n      swap1\n      0x0100\n      exp\n      swap1\n      div\n      0xffffffffffffffffffffffffffffffffffffffff\n      and\n        /* \"ribbonVault.sol\":4200:4222  _Ipaymentcoin.transfer */\n      0xffffffffffffffffffffffffffffffffffffffff\n      and\n      0xa9059cbb\n        /* \"ribbonVault.sol\":4223:4233  msg.sender */\n      caller\n        /* \"ribbonVault.sol\":4234:4238  _fee */\n      dup5\n        /* \"ribbonVault.sol\":4200:4239  _Ipaymentcoin.transfer(msg.sender,_fee) */\n      mload(0x40)\n      dup4\n      0xffffffff\n      and\n      0xe0\n      shl\n      dup2\n      mstore\n      0x04\n      add\n      tag_159\n      swap3\n      swap2\n      swap1\n      tag_150\n      jump\t// in\n    tag_159:\n      0x20\n      mload(0x40)\n      dup1\n      dup4\n      sub\n      dup2\n      0x00\n      dup8\n      gas\n      call\n      iszero\n      dup1\n      iszero\n      tag_161\n      jumpi\n      returndatasize\n      0x00\n      dup1\n      returndatacopy\n      revert(0x00, returndatasize)\n    tag_161:\n      pop\n      pop\n      pop\n      pop\n      mload(0x40)\n      returndatasize\n      not(0x1f)\n      0x1f\n      dup3\n      add\n      and\n      dup3\n      add\n      dup1\n      0x40\n      mstore\n      pop\n      dup2\n      add\n      swap1\n      tag_162\n      swap2\n      swap1\n      tag_158\n      jump\t// in\n    tag_162:\n      pop\n        /* \"ribbonVault.sol\":4255:4296  swap(user,pointToSwap,amoutAfterFee,_fee) */\n      0xc9ec92487a51a4894b66e92fa35d58109271421843b717e764249309f96ab9b5\n        /* \"ribbonVault.sol\":4260:4264  user */\n      dup6\n        /* \"ribbonVault.sol\":4265:4276  pointToSwap */\n      dup6\n        /* \"ribbonVault.sol\":4277:4290  amoutAfterFee */\n      dup4\n        /* \"ribbonVault.sol\":4291:4295  _fee */\n      dup6\n        /* \"ribbonVault.sol\":4255:4296  swap(user,pointToSwap,amoutAfterFee,_fee) */\n      mload(0x40)\n      tag_163\n      swap5\n      swap4\n      swap3\n      swap2\n      swap1\n      tag_164\n      jump\t// in\n    tag_163:\n      mload(0x40)\n      dup1\n      swap2\n      sub\n      swap1\n      log1\n        /* \"ribbonVault.sol\":3662:4302  {... */\n      pop\n      pop\n      pop\n        /* \"ribbonVault.sol\":3598:4302  function swapToPaymentCoin(address user,uint pointToSwap)public {... */\n      pop\n      pop\n      jump\t// out\n        /* \"ribbonVault.sol\":1883:1957  function setRate(uint _rate)public onlyOwner{... */\n    tag_54:\n        /* \"@openzeppelin/contracts/access/Ownable.sol\":1531:1544  _checkOwner() */\n      tag_166\n        /* \"@openzeppelin/contracts/access/Ownable.sol\":1531:1542  _checkOwner */\n      tag_125\n        /* \"@openzeppelin/contracts/access/Ownable.sol\":1531:1544  _checkOwner() */\n      jump\t// in\n    tag_166:\n        /* \"ribbonVault.sol\":1946:1951  _rate */\n      dup1\n        /* \"ribbonVault.sol\":1939:1943  rate */\n      0x04\n        /* \"ribbonVault.sol\":1939:1951  rate = _rate */\n      dup2\n      swap1\n      sstore\n      pop\n        /* \"ribbonVault.sol\":1883:1957  function setRate(uint _rate)public onlyOwner{... */\n      pop\n      jump\t// out\n        /* \"ribbonVault.sol\":605:627  uint public depositFee */\n    tag_56:\n      sload(0x03)\n      dup2\n      jump\t// out\n        /* \"@openzeppelin/contracts/access/Ownable.sol\":2293:2394  function renounceOwnership() public virtual onlyOwner {... */\n    tag_59:\n        /* \"@openzeppelin/contracts/access/Ownable.sol\":1531:1544  _checkOwner() */\n      tag_169\n        /* \"@openzeppelin/contracts/access/Ownable.sol\":1531:1542  _checkOwner */\n      tag_125\n        /* \"@openzeppelin/contracts/access/Ownable.sol\":1531:1544  _checkOwner() */\n      jump\t// in\n    tag_169:\n        /* \"@openzeppelin/contracts/access/Ownable.sol\":2357:2387  _transferOwnership(address(0)) */\n      tag_171\n        /* \"@openzeppelin/contracts/access/Ownable.sol\":2384:2385  0 */\n      0x00\n        /* \"@openzeppelin/contracts/access/Ownable.sol\":2357:2375  _transferOwnership */\n      tag_172\n        /* \"@openzeppelin/contracts/access/Ownable.sol\":2357:2387  _transferOwnership(address(0)) */\n      jump\t// in\n    tag_171:\n        /* \"@openzeppelin/contracts/access/Ownable.sol\":2293:2394  function renounceOwnership() public virtual onlyOwner {... */\n      jump\t// out\n        /* \"ribbonVault.sol\":1658:1748  function setPaymentDepositfees(uint _fee)public onlyOwner{... */\n    tag_62:\n        /* \"@openzeppelin/contracts/access/Ownable.sol\":1531:1544  _checkOwner() */\n      tag_174\n        /* \"@openzeppelin/contracts/access/Ownable.sol\":1531:1542  _checkOwner */\n      tag_125\n        /* \"@openzeppelin/contracts/access/Ownable.sol\":1531:1544  _checkOwner() */\n      jump\t// in\n    tag_174:\n        /* \"ribbonVault.sol\":1738:1742  _fee */\n      dup1\n        /* \"ribbonVault.sol\":1725:1735  depositFee */\n      0x03\n        /* \"ribbonVault.sol\":1725:1742  depositFee = _fee */\n      dup2\n      swap1\n      sstore\n      pop\n        /* \"ribbonVault.sol\":1658:1748  function setPaymentDepositfees(uint _fee)public onlyOwner{... */\n      pop\n      jump\t// out\n        /* \"ribbonVault.sol\":865:913  mapping (address=>bool) public onlyApprovedAdmin */\n    tag_66:\n      mstore(0x20, 0x0b)\n      dup1\n      0x00\n      mstore\n      keccak256(0x00, 0x40)\n      0x00\n      swap2\n      pop\n      sload\n      swap1\n      0x0100\n      exp\n      swap1\n      div\n      0xff\n      and\n      dup2\n      jump\t// out\n        /* \"ribbonVault.sol\":653:678  uint public withdrawalFee */\n    tag_70:\n      sload(0x05)\n      dup2\n      jump\t// out\n        /* \"@openzeppelin/contracts/access/Ownable.sol\":1638:1723  function owner() public view virtual returns (address) {... */\n    tag_73:\n        /* \"@openzeppelin/contracts/access/Ownable.sol\":1684:1691  address */\n      0x00\n        /* \"@openzeppelin/contracts/access/Ownable.sol\":1710:1716  _owner */\n      dup1\n      0x00\n      swap1\n      sload\n      swap1\n      0x0100\n      exp\n      swap1\n      div\n      0xffffffffffffffffffffffffffffffffffffffff\n      and\n        /* \"@openzeppelin/contracts/access/Ownable.sol\":1703:1716  return _owner */\n      swap1\n      pop\n        /* \"@openzeppelin/contracts/access/Ownable.sol\":1638:1723  function owner() public view virtual returns (address) {... */\n      swap1\n      jump\t// out\n        /* \"ribbonVault.sol\":2113:2310  function setApprovedAdmin(address[] memory _addresses,bool _val)public onlyOwner{ ... */\n    tag_79:\n        /* \"@openzeppelin/contracts/access/Ownable.sol\":1531:1544  _checkOwner() */\n      tag_178\n        /* \"@openzeppelin/contracts/access/Ownable.sol\":1531:1542  _checkOwner */\n      tag_125\n        /* \"@openzeppelin/contracts/access/Ownable.sol\":1531:1544  _checkOwner() */\n      jump\t// in\n    tag_178:\n        /* \"ribbonVault.sol\":2209:2215  uint i */\n      0x00\n        /* \"ribbonVault.sol\":2205:2305  for(uint i=0;i<_addresses.length;i++){... */\n    tag_180:\n        /* \"ribbonVault.sol\":2220:2230  _addresses */\n      dup3\n        /* \"ribbonVault.sol\":2220:2237  _addresses.length */\n      mload\n        /* \"ribbonVault.sol\":2218:2219  i */\n      dup2\n        /* \"ribbonVault.sol\":2218:2237  i<_addresses.length */\n      lt\n        /* \"ribbonVault.sol\":2205:2305  for(uint i=0;i<_addresses.length;i++){... */\n      iszero\n      tag_181\n      jumpi\n        /* \"ribbonVault.sol\":2289:2293  _val */\n      dup2\n        /* \"ribbonVault.sol\":2256:2273  onlyApprovedAdmin */\n      0x0b\n        /* \"ribbonVault.sol\":2256:2288  onlyApprovedAdmin[_addresses[i]] */\n      0x00\n        /* \"ribbonVault.sol\":2274:2284  _addresses */\n      dup6\n        /* \"ribbonVault.sol\":2285:2286  i */\n      dup5\n        /* \"ribbonVault.sol\":2274:2287  _addresses[i] */\n      dup2\n      mload\n      dup2\n      lt\n      tag_183\n      jumpi\n      tag_184\n      tag_185\n      jump\t// in\n    tag_184:\n    tag_183:\n      0x20\n      mul\n      0x20\n      add\n      add\n      mload\n        /* \"ribbonVault.sol\":2256:2288  onlyApprovedAdmin[_addresses[i]] */\n      0xffffffffffffffffffffffffffffffffffffffff\n      and\n      0xffffffffffffffffffffffffffffffffffffffff\n      and\n      dup2\n      mstore\n      0x20\n      add\n      swap1\n      dup2\n      mstore\n      0x20\n      add\n      0x00\n      keccak256\n      0x00\n        /* \"ribbonVault.sol\":2256:2293  onlyApprovedAdmin[_addresses[i]]=_val */\n      0x0100\n      exp\n      dup2\n      sload\n      dup2\n      0xff\n      mul\n      not\n      and\n      swap1\n      dup4\n      iszero\n      iszero\n      mul\n      or\n      swap1\n      sstore\n      pop\n        /* \"ribbonVault.sol\":2238:2241  i++ */\n      dup1\n      dup1\n      0x01\n      add\n      swap2\n      pop\n      pop\n        /* \"ribbonVault.sol\":2205:2305  for(uint i=0;i<_addresses.length;i++){... */\n      jump(tag_180)\n    tag_181:\n      pop\n        /* \"ribbonVault.sol\":2113:2310  function setApprovedAdmin(address[] memory _addresses,bool _val)public onlyOwner{ ... */\n      pop\n      pop\n      jump\t// out\n        /* \"ribbonVault.sol\":3085:3352  function claimPoints(address user,uint amount)public  {... */\n    tag_82:\n        /* \"ribbonVault.sol\":3186:3190  true */\n      0x01\n        /* \"ribbonVault.sol\":3155:3190  onlyApprovedAdmin[msg.sender]==true */\n      iszero\n      iszero\n        /* \"ribbonVault.sol\":3155:3172  onlyApprovedAdmin */\n      0x0b\n        /* \"ribbonVault.sol\":3155:3184  onlyApprovedAdmin[msg.sender] */\n      0x00\n        /* \"ribbonVault.sol\":3173:3183  msg.sender */\n      caller\n        /* \"ribbonVault.sol\":3155:3184  onlyApprovedAdmin[msg.sender] */\n      0xffffffffffffffffffffffffffffffffffffffff\n      and\n      0xffffffffffffffffffffffffffffffffffffffff\n      and\n      dup2\n      mstore\n      0x20\n      add\n      swap1\n      dup2\n      mstore\n      0x20\n      add\n      0x00\n      keccak256\n      0x00\n      swap1\n      sload\n      swap1\n      0x0100\n      exp\n      swap1\n      div\n      0xff\n      and\n        /* \"ribbonVault.sol\":3155:3190  onlyApprovedAdmin[msg.sender]==true */\n      iszero\n      iszero\n      eq\n        /* \"ribbonVault.sol\":3147:3215  require(onlyApprovedAdmin[msg.sender]==true,\"you are not permitted\") */\n      tag_187\n      jumpi\n      mload(0x40)\n      0x08c379a000000000000000000000000000000000000000000000000000000000\n      dup2\n      mstore\n      0x04\n      add\n      tag_188\n      swap1\n      tag_130\n      jump\t// in\n    tag_188:\n      mload(0x40)\n      dup1\n      swap2\n      sub\n      swap1\n      revert\n    tag_187:\n        /* \"ribbonVault.sol\":3246:3255  pointsMin */\n      sload(0x06)\n        /* \"ribbonVault.sol\":3236:3242  amount */\n      dup2\n        /* \"ribbonVault.sol\":3236:3255  amount >= pointsMin */\n      lt\n      iszero\n        /* \"ribbonVault.sol\":3228:3256  require(amount >= pointsMin) */\n      tag_189\n      jumpi\n      0x00\n      dup1\n      revert\n    tag_189:\n        /* \"ribbonVault.sol\":3269:3281  _Ipointscoin */\n      0x02\n      0x00\n      swap1\n      sload\n      swap1\n      0x0100\n      exp\n      swap1\n      div\n      0xffffffffffffffffffffffffffffffffffffffff\n      and\n        /* \"ribbonVault.sol\":3269:3290  _Ipointscoin.transfer */\n      0xffffffffffffffffffffffffffffffffffffffff\n      and\n      0xa9059cbb\n        /* \"ribbonVault.sol\":3291:3295  user */\n      dup4\n        /* \"ribbonVault.sol\":3296:3302  amount */\n      dup4\n        /* \"ribbonVault.sol\":3269:3303  _Ipointscoin.transfer(user,amount) */\n      mload(0x40)\n      dup4\n      0xffffffff\n      and\n      0xe0\n      shl\n      dup2\n      mstore\n      0x04\n      add\n      tag_190\n      swap3\n      swap2\n      swap1\n      tag_150\n      jump\t// in\n    tag_190:\n      0x20\n      mload(0x40)\n      dup1\n      dup4\n      sub\n      dup2\n      0x00\n      dup8\n      gas\n      call\n      iszero\n      dup1\n      iszero\n      tag_192\n      jumpi\n      returndatasize\n      0x00\n      dup1\n      returndatacopy\n      revert(0x00, returndatasize)\n    tag_192:\n      pop\n      pop\n      pop\n      pop\n      mload(0x40)\n      returndatasize\n      not(0x1f)\n      0x1f\n      dup3\n      add\n      and\n      dup3\n      add\n      dup1\n      0x40\n      mstore\n      pop\n      dup2\n      add\n      swap1\n      tag_193\n      swap2\n      swap1\n      tag_158\n      jump\t// in\n    tag_193:\n      pop\n        /* \"ribbonVault.sol\":3320:3346  PointsClaimed(user,amount) */\n      0xba953728785de35be3827ee7a7a7867a8472947562602939440e6c0bdbf4725e\n        /* \"ribbonVault.sol\":3334:3338  user */\n      dup3\n        /* \"ribbonVault.sol\":3339:3345  amount */\n      dup3\n        /* \"ribbonVault.sol\":3320:3346  PointsClaimed(user,amount) */\n      mload(0x40)\n      tag_194\n      swap3\n      swap2\n      swap1\n      tag_150\n      jump\t// in\n    tag_194:\n      mload(0x40)\n      dup1\n      swap2\n      sub\n      swap1\n      log1\n        /* \"ribbonVault.sol\":3085:3352  function claimPoints(address user,uint amount)public  {... */\n      pop\n      pop\n      jump\t// out\n        /* \"ribbonVault.sol\":2317:2809  function withdrawfees(address feeTakerAddress) public onlyOwner{... */\n    tag_85:\n        /* \"@openzeppelin/contracts/access/Ownable.sol\":1531:1544  _checkOwner() */\n      tag_196\n        /* \"@openzeppelin/contracts/access/Ownable.sol\":1531:1542  _checkOwner */\n      tag_125\n        /* \"@openzeppelin/contracts/access/Ownable.sol\":1531:1544  _checkOwner() */\n      jump\t// in\n    tag_196:\n        /* \"ribbonVault.sol\":2390:2410  uint contractBalance */\n      0x00\n        /* \"ribbonVault.sol\":2412:2425  _Ipaymentcoin */\n      0x01\n      0x00\n      swap1\n      sload\n      swap1\n      0x0100\n      exp\n      swap1\n      div\n      0xffffffffffffffffffffffffffffffffffffffff\n      and\n        /* \"ribbonVault.sol\":2412:2435  _Ipaymentcoin.balanceOf */\n      0xffffffffffffffffffffffffffffffffffffffff\n      and\n      0x70a08231\n        /* \"ribbonVault.sol\":2444:2448  this */\n      address\n        /* \"ribbonVault.sol\":2412:2450  _Ipaymentcoin.balanceOf(address(this)) */\n      mload(0x40)\n      dup3\n      0xffffffff\n      and\n      0xe0\n      shl\n      dup2\n      mstore\n      0x04\n      add\n      tag_198\n      swap2\n      swap1\n      tag_75\n      jump\t// in\n    tag_198:\n      0x20\n      mload(0x40)\n      dup1\n      dup4\n      sub\n      dup2\n      dup7\n      gas\n      staticcall\n      iszero\n      dup1\n      iszero\n      tag_200\n      jumpi\n      returndatasize\n      0x00\n      dup1\n      returndatacopy\n      revert(0x00, returndatasize)\n    tag_200:\n      pop\n      pop\n      pop\n      pop\n      mload(0x40)\n      returndatasize\n      not(0x1f)\n      0x1f\n      dup3\n      add\n      and\n      dup3\n      add\n      dup1\n      0x40\n      mstore\n      pop\n      dup2\n      add\n      swap1\n      tag_201\n      swap2\n      swap1\n      tag_135\n      jump\t// in\n    tag_201:\n        /* \"ribbonVault.sol\":2390:2450  uint contractBalance =_Ipaymentcoin.balanceOf(address(this)) */\n      swap1\n      pop\n        /* \"ribbonVault.sol\":2460:2481  uint balanceDeposited */\n      0x00\n        /* \"ribbonVault.sol\":2557:2587  initContractBalancePaymentCoin */\n      sload(0x07)\n        /* \"ribbonVault.sol\":2524:2553  TotalfeescollectedPaymentCoin */\n      sload(0x09)\n        /* \"ribbonVault.sol\":2503:2521  claimedPaymentCoin */\n      sload(0x08)\n        /* \"ribbonVault.sol\":2485:2500  contractBalance */\n      dup5\n        /* \"ribbonVault.sol\":2485:2521  contractBalance + claimedPaymentCoin */\n      tag_202\n      swap2\n      swap1\n      tag_144\n      jump\t// in\n    tag_202:\n        /* \"ribbonVault.sol\":2485:2553  contractBalance + claimedPaymentCoin + TotalfeescollectedPaymentCoin */\n      tag_203\n      swap2\n      swap1\n      tag_144\n      jump\t// in\n    tag_203:\n        /* \"ribbonVault.sol\":2484:2587  (contractBalance + claimedPaymentCoin + TotalfeescollectedPaymentCoin) - initContractBalancePaymentCoin */\n      tag_204\n      swap2\n      swap1\n      tag_148\n      jump\t// in\n    tag_204:\n        /* \"ribbonVault.sol\":2460:2587  uint balanceDeposited = (contractBalance + claimedPaymentCoin + TotalfeescollectedPaymentCoin) - initContractBalancePaymentCoin */\n      swap1\n      pop\n        /* \"ribbonVault.sol\":2631:2647  balanceDeposited */\n      dup1\n        /* \"ribbonVault.sol\":2597:2627  initContractBalancePaymentCoin */\n      0x07\n      0x00\n        /* \"ribbonVault.sol\":2597:2647  initContractBalancePaymentCoin += balanceDeposited */\n      dup3\n      dup3\n      sload\n      tag_205\n      swap2\n      swap1\n      tag_144\n      jump\t// in\n    tag_205:\n      swap3\n      pop\n      pop\n      dup2\n      swap1\n      sstore\n      pop\n        /* \"ribbonVault.sol\":2657:2666  uint _fee */\n      0x00\n        /* \"ribbonVault.sol\":2699:2702  100 */\n      0x64\n        /* \"ribbonVault.sol\":2687:2697  depositFee */\n      sload(0x03)\n        /* \"ribbonVault.sol\":2670:2686  balanceDeposited */\n      dup4\n        /* \"ribbonVault.sol\":2670:2697  balanceDeposited*depositFee */\n      tag_206\n      swap2\n      swap1\n      tag_112\n      jump\t// in\n    tag_206:\n        /* \"ribbonVault.sol\":2669:2702  (balanceDeposited*depositFee)/100 */\n      tag_207\n      swap2\n      swap1\n      tag_122\n      jump\t// in\n    tag_207:\n        /* \"ribbonVault.sol\":2657:2702  uint _fee = (balanceDeposited*depositFee)/100 */\n      swap1\n      pop\n        /* \"ribbonVault.sol\":2745:2749  _fee */\n      dup1\n        /* \"ribbonVault.sol\":2712:2741  TotalfeescollectedPaymentCoin */\n      0x09\n      0x00\n        /* \"ribbonVault.sol\":2712:2749  TotalfeescollectedPaymentCoin += _fee */\n      dup3\n      dup3\n      sload\n      tag_208\n      swap2\n      swap1\n      tag_144\n      jump\t// in\n    tag_208:\n      swap3\n      pop\n      pop\n      dup2\n      swap1\n      sstore\n      pop\n        /* \"ribbonVault.sol\":2759:2772  _Ipaymentcoin */\n      0x01\n      0x00\n      swap1\n      sload\n      swap1\n      0x0100\n      exp\n      swap1\n      div\n      0xffffffffffffffffffffffffffffffffffffffff\n      and\n        /* \"ribbonVault.sol\":2759:2781  _Ipaymentcoin.transfer */\n      0xffffffffffffffffffffffffffffffffffffffff\n      and\n      0xa9059cbb\n        /* \"ribbonVault.sol\":2782:2797  feeTakerAddress */\n      dup6\n        /* \"ribbonVault.sol\":2798:2802  _fee */\n      dup4\n        /* \"ribbonVault.sol\":2759:2803  _Ipaymentcoin.transfer(feeTakerAddress,_fee) */\n      mload(0x40)\n      dup4\n      0xffffffff\n      and\n      0xe0\n      shl\n      dup2\n      mstore\n      0x04\n      add\n      tag_209\n      swap3\n      swap2\n      swap1\n      tag_150\n      jump\t// in\n    tag_209:\n      0x20\n      mload(0x40)\n      dup1\n      dup4\n      sub\n      dup2\n      0x00\n      dup8\n      gas\n      call\n      iszero\n      dup1\n      iszero\n      tag_211\n      jumpi\n      returndatasize\n      0x00\n      dup1\n      returndatacopy\n      revert(0x00, returndatasize)\n    tag_211:\n      pop\n      pop\n      pop\n      pop\n      mload(0x40)\n      returndatasize\n      not(0x1f)\n      0x1f\n      dup3\n      add\n      and\n      dup3\n      add\n      dup1\n      0x40\n      mstore\n      pop\n      dup2\n      add\n      swap1\n      tag_212\n      swap2\n      swap1\n      tag_158\n      jump\t// in\n    tag_212:\n      pop\n        /* \"ribbonVault.sol\":2380:2809  {... */\n      pop\n      pop\n      pop\n        /* \"ribbonVault.sol\":2317:2809  function withdrawfees(address feeTakerAddress) public onlyOwner{... */\n      pop\n      jump\t// out\n        /* \"ribbonVault.sol\":1752:1840  function setWithdrawalFee(uint _fee)public onlyOwner{... */\n    tag_88:\n        /* \"@openzeppelin/contracts/access/Ownable.sol\":1531:1544  _checkOwner() */\n      tag_214\n        /* \"@openzeppelin/contracts/access/Ownable.sol\":1531:1542  _checkOwner */\n      tag_125\n        /* \"@openzeppelin/contracts/access/Ownable.sol\":1531:1544  _checkOwner() */\n      jump\t// in\n    tag_214:\n        /* \"ribbonVault.sol\":1830:1834  _fee */\n      dup1\n        /* \"ribbonVault.sol\":1814:1827  withdrawalFee */\n      0x05\n        /* \"ribbonVault.sol\":1814:1834  withdrawalFee = _fee */\n      dup2\n      swap1\n      sstore\n      pop\n        /* \"ribbonVault.sol\":1752:1840  function setWithdrawalFee(uint _fee)public onlyOwner{... */\n      pop\n      jump\t// out\n        /* \"ribbonVault.sol\":2001:2108  function setMinPointsToSWap(uint _pointsMin)public onlyOwner{... */\n    tag_91:\n        /* \"@openzeppelin/contracts/access/Ownable.sol\":1531:1544  _checkOwner() */\n      tag_217\n        /* \"@openzeppelin/contracts/access/Ownable.sol\":1531:1542  _checkOwner */\n      tag_125\n        /* \"@openzeppelin/contracts/access/Ownable.sol\":1531:1544  _checkOwner() */\n      jump\t// in\n    tag_217:\n        /* \"ribbonVault.sol\":2096:2102  10**18 */\n      0x0de0b6b3a7640000\n        /* \"ribbonVault.sol\":2085:2095  _pointsMin */\n      dup2\n        /* \"ribbonVault.sol\":2085:2102  _pointsMin*10**18 */\n      tag_219\n      swap2\n      swap1\n      tag_112\n      jump\t// in\n    tag_219:\n        /* \"ribbonVault.sol\":2073:2082  pointsMin */\n      0x06\n        /* \"ribbonVault.sol\":2073:2102  pointsMin = _pointsMin*10**18 */\n      dup2\n      swap1\n      sstore\n      pop\n        /* \"ribbonVault.sol\":2001:2108  function setMinPointsToSWap(uint _pointsMin)public onlyOwner{... */\n      pop\n      jump\t// out\n        /* \"ribbonVault.sol\":791:832  uint public TotalfeescollectedPaymentCoin */\n    tag_93:\n      sload(0x09)\n      dup2\n      jump\t// out\n        /* \"ribbonVault.sol\":683:704  uint public pointsMin */\n    tag_96:\n      sload(0x06)\n      dup2\n      jump\t// out\n        /* \"@openzeppelin/contracts/access/Ownable.sol\":2543:2758  function transferOwnership(address newOwner) public virtual onlyOwner {... */\n    tag_100:\n        /* \"@openzeppelin/contracts/access/Ownable.sol\":1531:1544  _checkOwner() */\n      tag_221\n        /* \"@openzeppelin/contracts/access/Ownable.sol\":1531:1542  _checkOwner */\n      tag_125\n        /* \"@openzeppelin/contracts/access/Ownable.sol\":1531:1544  _checkOwner() */\n      jump\t// in\n    tag_221:\n        /* \"@openzeppelin/contracts/access/Ownable.sol\":2647:2648  0 */\n      0x00\n        /* \"@openzeppelin/contracts/access/Ownable.sol\":2627:2649  newOwner == address(0) */\n      0xffffffffffffffffffffffffffffffffffffffff\n      and\n        /* \"@openzeppelin/contracts/access/Ownable.sol\":2627:2635  newOwner */\n      dup2\n        /* \"@openzeppelin/contracts/access/Ownable.sol\":2627:2649  newOwner == address(0) */\n      0xffffffffffffffffffffffffffffffffffffffff\n      and\n      sub\n        /* \"@openzeppelin/contracts/access/Ownable.sol\":2623:2714  if (newOwner == address(0)) {... */\n      tag_223\n      jumpi\n        /* \"@openzeppelin/contracts/access/Ownable.sol\":2700:2701  0 */\n      0x00\n        /* \"@openzeppelin/contracts/access/Ownable.sol\":2672:2703  OwnableInvalidOwner(address(0)) */\n      mload(0x40)\n      0x1e4fbdf700000000000000000000000000000000000000000000000000000000\n      dup2\n      mstore\n      0x04\n      add\n      tag_224\n      swap2\n      swap1\n      tag_75\n      jump\t// in\n    tag_224:\n      mload(0x40)\n      dup1\n      swap2\n      sub\n      swap1\n      revert\n        /* \"@openzeppelin/contracts/access/Ownable.sol\":2623:2714  if (newOwner == address(0)) {... */\n    tag_223:\n        /* \"@openzeppelin/contracts/access/Ownable.sol\":2723:2751  _transferOwnership(newOwner) */\n      tag_225\n        /* \"@openzeppelin/contracts/access/Ownable.sol\":2742:2750  newOwner */\n      dup2\n        /* \"@openzeppelin/contracts/access/Ownable.sol\":2723:2741  _transferOwnership */\n      tag_172\n        /* \"@openzeppelin/contracts/access/Ownable.sol\":2723:2751  _transferOwnership(newOwner) */\n      jump\t// in\n    tag_225:\n        /* \"@openzeppelin/contracts/access/Ownable.sol\":2543:2758  function transferOwnership(address newOwner) public virtual onlyOwner {... */\n      pop\n      jump\t// out\n        /* \"ribbonVault.sol\":756:786  uint public claimedPaymentCoin */\n    tag_102:\n      sload(0x08)\n      dup2\n      jump\t// out\n        /* \"@openzeppelin/contracts/access/Ownable.sol\":1796:1958  function _checkOwner() internal view virtual {... */\n    tag_125:\n        /* \"@openzeppelin/contracts/access/Ownable.sol\":1866:1878  _msgSender() */\n      tag_227\n        /* \"@openzeppelin/contracts/access/Ownable.sol\":1866:1876  _msgSender */\n      tag_228\n        /* \"@openzeppelin/contracts/access/Ownable.sol\":1866:1878  _msgSender() */\n      jump\t// in\n    tag_227:\n        /* \"@openzeppelin/contracts/access/Ownable.sol\":1855:1878  owner() != _msgSender() */\n      0xffffffffffffffffffffffffffffffffffffffff\n      and\n        /* \"@openzeppelin/contracts/access/Ownable.sol\":1855:1862  owner() */\n      tag_229\n        /* \"@openzeppelin/contracts/access/Ownable.sol\":1855:1860  owner */\n      tag_73\n        /* \"@openzeppelin/contracts/access/Ownable.sol\":1855:1862  owner() */\n      jump\t// in\n    tag_229:\n        /* \"@openzeppelin/contracts/access/Ownable.sol\":1855:1878  owner() != _msgSender() */\n      0xffffffffffffffffffffffffffffffffffffffff\n      and\n      eq\n        /* \"@openzeppelin/contracts/access/Ownable.sol\":1851:1952  if (owner() != _msgSender()) {... */\n      tag_230\n      jumpi\n        /* \"@openzeppelin/contracts/access/Ownable.sol\":1928:1940  _msgSender() */\n      tag_231\n        /* \"@openzeppelin/contracts/access/Ownable.sol\":1928:1938  _msgSender */\n      tag_228\n        /* \"@openzeppelin/contracts/access/Ownable.sol\":1928:1940  _msgSender() */\n      jump\t// in\n    tag_231:\n        /* \"@openzeppelin/contracts/access/Ownable.sol\":1901:1941  OwnableUnauthorizedAccount(_msgSender()) */\n      mload(0x40)\n      0x118cdaa700000000000000000000000000000000000000000000000000000000\n      dup2\n      mstore\n      0x04\n      add\n      tag_232\n      swap2\n      swap1\n      tag_75\n      jump\t// in\n    tag_232:\n      mload(0x40)\n      dup1\n      swap2\n      sub\n      swap1\n      revert\n        /* \"@openzeppelin/contracts/access/Ownable.sol\":1851:1952  if (owner() != _msgSender()) {... */\n    tag_230:\n        /* \"@openzeppelin/contracts/access/Ownable.sol\":1796:1958  function _checkOwner() internal view virtual {... */\n      jump\t// out\n        /* \"@openzeppelin/contracts/access/Ownable.sol\":2912:3099  function _transferOwnership(address newOwner) internal virtual {... */\n    tag_172:\n        /* \"@openzeppelin/contracts/access/Ownable.sol\":2985:3001  address oldOwner */\n      0x00\n        /* \"@openzeppelin/contracts/access/Ownable.sol\":3004:3010  _owner */\n      dup1\n      0x00\n      swap1\n      sload\n      swap1\n      0x0100\n      exp\n      swap1\n      div\n      0xffffffffffffffffffffffffffffffffffffffff\n      and\n        /* \"@openzeppelin/contracts/access/Ownable.sol\":2985:3010  address oldOwner = _owner */\n      swap1\n      pop\n        /* \"@openzeppelin/contracts/access/Ownable.sol\":3029:3037  newOwner */\n      dup2\n        /* \"@openzeppelin/contracts/access/Ownable.sol\":3020:3026  _owner */\n      0x00\n      dup1\n        /* \"@openzeppelin/contracts/access/Ownable.sol\":3020:3037  _owner = newOwner */\n      0x0100\n      exp\n      dup2\n      sload\n      dup2\n      0xffffffffffffffffffffffffffffffffffffffff\n      mul\n      not\n      and\n      swap1\n      dup4\n      0xffffffffffffffffffffffffffffffffffffffff\n      and\n      mul\n      or\n      swap1\n      sstore\n      pop\n        /* \"@openzeppelin/contracts/access/Ownable.sol\":3083:3091  newOwner */\n      dup2\n        /* \"@openzeppelin/contracts/access/Ownable.sol\":3052:3092  OwnershipTransferred(oldOwner, newOwner) */\n      0xffffffffffffffffffffffffffffffffffffffff\n      and\n        /* \"@openzeppelin/contracts/access/Ownable.sol\":3073:3081  oldOwner */\n      dup2\n        /* \"@openzeppelin/contracts/access/Ownable.sol\":3052:3092  OwnershipTransferred(oldOwner, newOwner) */\n      0xffffffffffffffffffffffffffffffffffffffff\n      and\n      0x8be0079c531659141344cd1fd0a4f28419497f9722a3daafe3b4186f6b6457e0\n      mload(0x40)\n      mload(0x40)\n      dup1\n      swap2\n      sub\n      swap1\n      log3\n        /* \"@openzeppelin/contracts/access/Ownable.sol\":2975:3099  {... */\n      pop\n        /* \"@openzeppelin/contracts/access/Ownable.sol\":2912:3099  function _transferOwnership(address newOwner) internal virtual {... */\n      pop\n      jump\t// out\n        /* \"@openzeppelin/contracts/utils/Context.sol\":656:752  function _msgSender() internal view virtual returns (address) {... */\n    tag_228:\n        /* \"@openzeppelin/contracts/utils/Context.sol\":709:716  address */\n      0x00\n        /* \"@openzeppelin/contracts/utils/Context.sol\":735:745  msg.sender */\n      caller\n        /* \"@openzeppelin/contracts/utils/Context.sol\":728:745  return msg.sender */\n      swap1\n      pop\n        /* \"@openzeppelin/contracts/utils/Context.sol\":656:752  function _msgSender() internal view virtual returns (address) {... */\n      swap1\n      jump\t// out\n        /* \"#utility.yul\":7:84   */\n    tag_235:\n        /* \"#utility.yul\":44:51   */\n      0x00\n        /* \"#utility.yul\":73:78   */\n      dup2\n        /* \"#utility.yul\":62:78   */\n      swap1\n      pop\n        /* \"#utility.yul\":7:84   */\n      swap2\n      swap1\n      pop\n      jump\t// out\n        /* \"#utility.yul\":90:208   */\n    tag_236:\n        /* \"#utility.yul\":177:201   */\n      tag_284\n        /* \"#utility.yul\":195:200   */\n      dup2\n        /* \"#utility.yul\":177:201   */\n      tag_235\n      jump\t// in\n    tag_284:\n        /* \"#utility.yul\":172:175   */\n      dup3\n        /* \"#utility.yul\":165:202   */\n      mstore\n        /* \"#utility.yul\":90:208   */\n      pop\n      pop\n      jump\t// out\n        /* \"#utility.yul\":214:436   */\n    tag_31:\n        /* \"#utility.yul\":307:311   */\n      0x00\n        /* \"#utility.yul\":345:347   */\n      0x20\n        /* \"#utility.yul\":334:343   */\n      dup3\n        /* \"#utility.yul\":330:348   */\n      add\n        /* \"#utility.yul\":322:348   */\n      swap1\n      pop\n        /* \"#utility.yul\":358:429   */\n      tag_286\n        /* \"#utility.yul\":426:427   */\n      0x00\n        /* \"#utility.yul\":415:424   */\n      dup4\n        /* \"#utility.yul\":411:428   */\n      add\n        /* \"#utility.yul\":402:408   */\n      dup5\n        /* \"#utility.yul\":358:429   */\n      tag_236\n      jump\t// in\n    tag_286:\n        /* \"#utility.yul\":214:436   */\n      swap3\n      swap2\n      pop\n      pop\n      jump\t// out\n        /* \"#utility.yul\":442:541   */\n    tag_237:\n        /* \"#utility.yul\":494:500   */\n      0x00\n        /* \"#utility.yul\":528:533   */\n      dup2\n        /* \"#utility.yul\":522:534   */\n      mload\n        /* \"#utility.yul\":512:534   */\n      swap1\n      pop\n        /* \"#utility.yul\":442:541   */\n      swap2\n      swap1\n      pop\n      jump\t// out\n        /* \"#utility.yul\":547:716   */\n    tag_238:\n        /* \"#utility.yul\":631:642   */\n      0x00\n        /* \"#utility.yul\":665:671   */\n      dup3\n        /* \"#utility.yul\":660:663   */\n      dup3\n        /* \"#utility.yul\":653:672   */\n      mstore\n        /* \"#utility.yul\":705:709   */\n      0x20\n        /* \"#utility.yul\":700:703   */\n      dup3\n        /* \"#utility.yul\":696:710   */\n      add\n        /* \"#utility.yul\":681:710   */\n      swap1\n      pop\n        /* \"#utility.yul\":547:716   */\n      swap3\n      swap2\n      pop\n      pop\n      jump\t// out\n        /* \"#utility.yul\":722:968   */\n    tag_239:\n        /* \"#utility.yul\":803:804   */\n      0x00\n        /* \"#utility.yul\":813:926   */\n    tag_290:\n        /* \"#utility.yul\":827:833   */\n      dup4\n        /* \"#utility.yul\":824:825   */\n      dup2\n        /* \"#utility.yul\":821:834   */\n      lt\n        /* \"#utility.yul\":813:926   */\n      iszero\n      tag_292\n      jumpi\n        /* \"#utility.yul\":912:913   */\n      dup1\n        /* \"#utility.yul\":907:910   */\n      dup3\n        /* \"#utility.yul\":903:914   */\n      add\n        /* \"#utility.yul\":897:915   */\n      mload\n        /* \"#utility.yul\":893:894   */\n      dup2\n        /* \"#utility.yul\":888:891   */\n      dup5\n        /* \"#utility.yul\":884:895   */\n      add\n        /* \"#utility.yul\":877:916   */\n      mstore\n        /* \"#utility.yul\":849:851   */\n      0x20\n        /* \"#utility.yul\":846:847   */\n      dup2\n        /* \"#utility.yul\":842:852   */\n      add\n        /* \"#utility.yul\":837:852   */\n      swap1\n      pop\n        /* \"#utility.yul\":813:926   */\n      jump(tag_290)\n    tag_292:\n        /* \"#utility.yul\":960:961   */\n      0x00\n        /* \"#utility.yul\":951:957   */\n      dup5\n        /* \"#utility.yul\":946:949   */\n      dup5\n        /* \"#utility.yul\":942:958   */\n      add\n        /* \"#utility.yul\":935:962   */\n      mstore\n        /* \"#utility.yul\":784:968   */\n      pop\n        /* \"#utility.yul\":722:968   */\n      pop\n      pop\n      pop\n      jump\t// out\n        /* \"#utility.yul\":974:1076   */\n    tag_240:\n        /* \"#utility.yul\":1015:1021   */\n      0x00\n        /* \"#utility.yul\":1066:1068   */\n      0x1f\n        /* \"#utility.yul\":1062:1069   */\n      not\n        /* \"#utility.yul\":1057:1059   */\n      0x1f\n        /* \"#utility.yul\":1050:1055   */\n      dup4\n        /* \"#utility.yul\":1046:1060   */\n      add\n        /* \"#utility.yul\":1042:1070   */\n      and\n        /* \"#utility.yul\":1032:1070   */\n      swap1\n      pop\n        /* \"#utility.yul\":974:1076   */\n      swap2\n      swap1\n      pop\n      jump\t// out\n        /* \"#utility.yul\":1082:1459   */\n    tag_241:\n        /* \"#utility.yul\":1170:1173   */\n      0x00\n        /* \"#utility.yul\":1198:1237   */\n      tag_295\n        /* \"#utility.yul\":1231:1236   */\n      dup3\n        /* \"#utility.yul\":1198:1237   */\n      tag_237\n      jump\t// in\n    tag_295:\n        /* \"#utility.yul\":1253:1324   */\n      tag_296\n        /* \"#utility.yul\":1317:1323   */\n      dup2\n        /* \"#utility.yul\":1312:1315   */\n      dup6\n        /* \"#utility.yul\":1253:1324   */\n      tag_238\n      jump\t// in\n    tag_296:\n        /* \"#utility.yul\":1246:1324   */\n      swap4\n      pop\n        /* \"#utility.yul\":1333:1398   */\n      tag_297\n        /* \"#utility.yul\":1391:1397   */\n      dup2\n        /* \"#utility.yul\":1386:1389   */\n      dup6\n        /* \"#utility.yul\":1379:1383   */\n      0x20\n        /* \"#utility.yul\":1372:1377   */\n      dup7\n        /* \"#utility.yul\":1368:1384   */\n      add\n        /* \"#utility.yul\":1333:1398   */\n      tag_239\n      jump\t// in\n    tag_297:\n        /* \"#utility.yul\":1423:1452   */\n      tag_298\n        /* \"#utility.yul\":1445:1451   */\n      dup2\n        /* \"#utility.yul\":1423:1452   */\n      tag_240\n      jump\t// in\n    tag_298:\n        /* \"#utility.yul\":1418:1421   */\n      dup5\n        /* \"#utility.yul\":1414:1453   */\n      add\n        /* \"#utility.yul\":1407:1453   */\n      swap2\n      pop\n        /* \"#utility.yul\":1174:1459   */\n      pop\n        /* \"#utility.yul\":1082:1459   */\n      swap3\n      swap2\n      pop\n      pop\n      jump\t// out\n        /* \"#utility.yul\":1465:1778   */\n    tag_35:\n        /* \"#utility.yul\":1578:1582   */\n      0x00\n        /* \"#utility.yul\":1616:1618   */\n      0x20\n        /* \"#utility.yul\":1605:1614   */\n      dup3\n        /* \"#utility.yul\":1601:1619   */\n      add\n        /* \"#utility.yul\":1593:1619   */\n      swap1\n      pop\n        /* \"#utility.yul\":1665:1674   */\n      dup2\n        /* \"#utility.yul\":1659:1663   */\n      dup2\n        /* \"#utility.yul\":1655:1675   */\n      sub\n        /* \"#utility.yul\":1651:1652   */\n      0x00\n        /* \"#utility.yul\":1640:1649   */\n      dup4\n        /* \"#utility.yul\":1636:1653   */\n      add\n        /* \"#utility.yul\":1629:1676   */\n      mstore\n        /* \"#utility.yul\":1693:1771   */\n      tag_300\n        /* \"#utility.yul\":1766:1770   */\n      dup2\n        /* \"#utility.yul\":1757:1763   */\n      dup5\n        /* \"#utility.yul\":1693:1771   */\n      tag_241\n      jump\t// in\n    tag_300:\n        /* \"#utility.yul\":1685:1771   */\n      swap1\n      pop\n        /* \"#utility.yul\":1465:1778   */\n      swap3\n      swap2\n      pop\n      pop\n      jump\t// out\n        /* \"#utility.yul\":1784:1859   */\n    tag_242:\n        /* \"#utility.yul\":1817:1823   */\n      0x00\n        /* \"#utility.yul\":1850:1852   */\n      0x40\n        /* \"#utility.yul\":1844:1853   */\n      mload\n        /* \"#utility.yul\":1834:1853   */\n      swap1\n      pop\n        /* \"#utility.yul\":1784:1859   */\n      swap1\n      jump\t// out\n        /* \"#utility.yul\":1865:1982   */\n    tag_243:\n        /* \"#utility.yul\":1974:1975   */\n      0x00\n        /* \"#utility.yul\":1971:1972   */\n      dup1\n        /* \"#utility.yul\":1964:1976   */\n      revert\n        /* \"#utility.yul\":1988:2105   */\n    tag_244:\n        /* \"#utility.yul\":2097:2098   */\n      0x00\n        /* \"#utility.yul\":2094:2095   */\n      dup1\n        /* \"#utility.yul\":2087:2099   */\n      revert\n        /* \"#utility.yul\":2111:2233   */\n    tag_245:\n        /* \"#utility.yul\":2184:2208   */\n      tag_305\n        /* \"#utility.yul\":2202:2207   */\n      dup2\n        /* \"#utility.yul\":2184:2208   */\n      tag_235\n      jump\t// in\n    tag_305:\n        /* \"#utility.yul\":2177:2182   */\n      dup2\n        /* \"#utility.yul\":2174:2209   */\n      eq\n        /* \"#utility.yul\":2164:2227   */\n      tag_306\n      jumpi\n        /* \"#utility.yul\":2223:2224   */\n      0x00\n        /* \"#utility.yul\":2220:2221   */\n      dup1\n        /* \"#utility.yul\":2213:2225   */\n      revert\n        /* \"#utility.yul\":2164:2227   */\n    tag_306:\n        /* \"#utility.yul\":2111:2233   */\n      pop\n      jump\t// out\n        /* \"#utility.yul\":2239:2378   */\n    tag_246:\n        /* \"#utility.yul\":2285:2290   */\n      0x00\n        /* \"#utility.yul\":2323:2329   */\n      dup2\n        /* \"#utility.yul\":2310:2330   */\n      calldataload\n        /* \"#utility.yul\":2301:2330   */\n      swap1\n      pop\n        /* \"#utility.yul\":2339:2372   */\n      tag_308\n        /* \"#utility.yul\":2366:2371   */\n      dup2\n        /* \"#utility.yul\":2339:2372   */\n      tag_245\n      jump\t// in\n    tag_308:\n        /* \"#utility.yul\":2239:2378   */\n      swap3\n      swap2\n      pop\n      pop\n      jump\t// out\n        /* \"#utility.yul\":2384:2713   */\n    tag_38:\n        /* \"#utility.yul\":2443:2449   */\n      0x00\n        /* \"#utility.yul\":2492:2494   */\n      0x20\n        /* \"#utility.yul\":2480:2489   */\n      dup3\n        /* \"#utility.yul\":2471:2478   */\n      dup5\n        /* \"#utility.yul\":2467:2490   */\n      sub\n        /* \"#utility.yul\":2463:2495   */\n      slt\n        /* \"#utility.yul\":2460:2579   */\n      iszero\n      tag_310\n      jumpi\n        /* \"#utility.yul\":2498:2577   */\n      tag_311\n      tag_243\n      jump\t// in\n    tag_311:\n        /* \"#utility.yul\":2460:2579   */\n    tag_310:\n        /* \"#utility.yul\":2618:2619   */\n      0x00\n        /* \"#utility.yul\":2643:2696   */\n      tag_312\n        /* \"#utility.yul\":2688:2695   */\n      dup5\n        /* \"#utility.yul\":2679:2685   */\n      dup3\n        /* \"#utility.yul\":2668:2677   */\n      dup6\n        /* \"#utility.yul\":2664:2686   */\n      add\n        /* \"#utility.yul\":2643:2696   */\n      tag_246\n      jump\t// in\n    tag_312:\n        /* \"#utility.yul\":2633:2696   */\n      swap2\n      pop\n        /* \"#utility.yul\":2589:2706   */\n      pop\n        /* \"#utility.yul\":2384:2713   */\n      swap3\n      swap2\n      pop\n      pop\n      jump\t// out\n        /* \"#utility.yul\":2719:2845   */\n    tag_247:\n        /* \"#utility.yul\":2756:2763   */\n      0x00\n        /* \"#utility.yul\":2796:2838   */\n      0xffffffffffffffffffffffffffffffffffffffff\n        /* \"#utility.yul\":2789:2794   */\n      dup3\n        /* \"#utility.yul\":2785:2839   */\n      and\n        /* \"#utility.yul\":2774:2839   */\n      swap1\n      pop\n        /* \"#utility.yul\":2719:2845   */\n      swap2\n      swap1\n      pop\n      jump\t// out\n        /* \"#utility.yul\":2851:2947   */\n    tag_248:\n        /* \"#utility.yul\":2888:2895   */\n      0x00\n        /* \"#utility.yul\":2917:2941   */\n      tag_315\n        /* \"#utility.yul\":2935:2940   */\n      dup3\n        /* \"#utility.yul\":2917:2941   */\n      tag_247\n      jump\t// in\n    tag_315:\n        /* \"#utility.yul\":2906:2941   */\n      swap1\n      pop\n        /* \"#utility.yul\":2851:2947   */\n      swap2\n      swap1\n      pop\n      jump\t// out\n        /* \"#utility.yul\":2953:3075   */\n    tag_249:\n        /* \"#utility.yul\":3026:3050   */\n      tag_317\n        /* \"#utility.yul\":3044:3049   */\n      dup2\n        /* \"#utility.yul\":3026:3050   */\n      tag_248\n      jump\t// in\n    tag_317:\n        /* \"#utility.yul\":3019:3024   */\n      dup2\n        /* \"#utility.yul\":3016:3051   */\n      eq\n        /* \"#utility.yul\":3006:3069   */\n      tag_318\n      jumpi\n        /* \"#utility.yul\":3065:3066   */\n      0x00\n        /* \"#utility.yul\":3062:3063   */\n      dup1\n        /* \"#utility.yul\":3055:3067   */\n      revert\n        /* \"#utility.yul\":3006:3069   */\n    tag_318:\n        /* \"#utility.yul\":2953:3075   */\n      pop\n      jump\t// out\n        /* \"#utility.yul\":3081:3220   */\n    tag_250:\n        /* \"#utility.yul\":3127:3132   */\n      0x00\n        /* \"#utility.yul\":3165:3171   */\n      dup2\n        /* \"#utility.yul\":3152:3172   */\n      calldataload\n        /* \"#utility.yul\":3143:3172   */\n      swap1\n      pop\n        /* \"#utility.yul\":3181:3214   */\n      tag_320\n        /* \"#utility.yul\":3208:3213   */\n      dup2\n        /* \"#utility.yul\":3181:3214   */\n      tag_249\n      jump\t// in\n    tag_320:\n        /* \"#utility.yul\":3081:3220   */\n      swap3\n      swap2\n      pop\n      pop\n      jump\t// out\n        /* \"#utility.yul\":3226:3700   */\n    tag_43:\n        /* \"#utility.yul\":3294:3300   */\n      0x00\n        /* \"#utility.yul\":3302:3308   */\n      dup1\n        /* \"#utility.yul\":3351:3353   */\n      0x40\n        /* \"#utility.yul\":3339:3348   */\n      dup4\n        /* \"#utility.yul\":3330:3337   */\n      dup6\n        /* \"#utility.yul\":3326:3349   */\n      sub\n        /* \"#utility.yul\":3322:3354   */\n      slt\n        /* \"#utility.yul\":3319:3438   */\n      iszero\n      tag_322\n      jumpi\n        /* \"#utility.yul\":3357:3436   */\n      tag_323\n      tag_243\n      jump\t// in\n    tag_323:\n        /* \"#utility.yul\":3319:3438   */\n    tag_322:\n        /* \"#utility.yul\":3477:3478   */\n      0x00\n        /* \"#utility.yul\":3502:3555   */\n      tag_324\n        /* \"#utility.yul\":3547:3554   */\n      dup6\n        /* \"#utility.yul\":3538:3544   */\n      dup3\n        /* \"#utility.yul\":3527:3536   */\n      dup7\n        /* \"#utility.yul\":3523:3545   */\n      add\n        /* \"#utility.yul\":3502:3555   */\n      tag_250\n      jump\t// in\n    tag_324:\n        /* \"#utility.yul\":3492:3555   */\n      swap3\n      pop\n        /* \"#utility.yul\":3448:3565   */\n      pop\n        /* \"#utility.yul\":3604:3606   */\n      0x20\n        /* \"#utility.yul\":3630:3683   */\n      tag_325\n        /* \"#utility.yul\":3675:3682   */\n      dup6\n        /* \"#utility.yul\":3666:3672   */\n      dup3\n        /* \"#utility.yul\":3655:3664   */\n      dup7\n        /* \"#utility.yul\":3651:3673   */\n      add\n        /* \"#utility.yul\":3630:3683   */\n      tag_250\n      jump\t// in\n    tag_325:\n        /* \"#utility.yul\":3620:3683   */\n      swap2\n      pop\n        /* \"#utility.yul\":3575:3693   */\n      pop\n        /* \"#utility.yul\":3226:3700   */\n      swap3\n      pop\n      swap3\n      swap1\n      pop\n      jump\t// out\n        /* \"#utility.yul\":3706:4180   */\n    tag_50:\n        /* \"#utility.yul\":3774:3780   */\n      0x00\n        /* \"#utility.yul\":3782:3788   */\n      dup1\n        /* \"#utility.yul\":3831:3833   */\n      0x40\n        /* \"#utility.yul\":3819:3828   */\n      dup4\n        /* \"#utility.yul\":3810:3817   */\n      dup6\n        /* \"#utility.yul\":3806:3829   */\n      sub\n        /* \"#utility.yul\":3802:3834   */\n      slt\n        /* \"#utility.yul\":3799:3918   */\n      iszero\n      tag_327\n      jumpi\n        /* \"#utility.yul\":3837:3916   */\n      tag_328\n      tag_243\n      jump\t// in\n    tag_328:\n        /* \"#utility.yul\":3799:3918   */\n    tag_327:\n        /* \"#utility.yul\":3957:3958   */\n      0x00\n        /* \"#utility.yul\":3982:4035   */\n      tag_329\n        /* \"#utility.yul\":4027:4034   */\n      dup6\n        /* \"#utility.yul\":4018:4024   */\n      dup3\n        /* \"#utility.yul\":4007:4016   */\n      dup7\n        /* \"#utility.yul\":4003:4025   */\n      add\n        /* \"#utility.yul\":3982:4035   */\n      tag_250\n      jump\t// in\n    tag_329:\n        /* \"#utility.yul\":3972:4035   */\n      swap3\n      pop\n        /* \"#utility.yul\":3928:4045   */\n      pop\n        /* \"#utility.yul\":4084:4086   */\n      0x20\n        /* \"#utility.yul\":4110:4163   */\n      tag_330\n        /* \"#utility.yul\":4155:4162   */\n      dup6\n        /* \"#utility.yul\":4146:4152   */\n      dup3\n        /* \"#utility.yul\":4135:4144   */\n      dup7\n        /* \"#utility.yul\":4131:4153   */\n      add\n        /* \"#utility.yul\":4110:4163   */\n      tag_246\n      jump\t// in\n    tag_330:\n        /* \"#utility.yul\":4100:4163   */\n      swap2\n      pop\n        /* \"#utility.yul\":4055:4173   */\n      pop\n        /* \"#utility.yul\":3706:4180   */\n      swap3\n      pop\n      swap3\n      swap1\n      pop\n      jump\t// out\n        /* \"#utility.yul\":4186:4515   */\n    tag_65:\n        /* \"#utility.yul\":4245:4251   */\n      0x00\n        /* \"#utility.yul\":4294:4296   */\n      0x20\n        /* \"#utility.yul\":4282:4291   */\n      dup3\n        /* \"#utility.yul\":4273:4280   */\n      dup5\n        /* \"#utility.yul\":4269:4292   */\n      sub\n        /* \"#utility.yul\":4265:4297   */\n      slt\n        /* \"#utility.yul\":4262:4381   */\n      iszero\n      tag_332\n      jumpi\n        /* \"#utility.yul\":4300:4379   */\n      tag_333\n      tag_243\n      jump\t// in\n    tag_333:\n        /* \"#utility.yul\":4262:4381   */\n    tag_332:\n        /* \"#utility.yul\":4420:4421   */\n      0x00\n        /* \"#utility.yul\":4445:4498   */\n      tag_334\n        /* \"#utility.yul\":4490:4497   */\n      dup5\n        /* \"#utility.yul\":4481:4487   */\n      dup3\n        /* \"#utility.yul\":4470:4479   */\n      dup6\n        /* \"#utility.yul\":4466:4488   */\n      add\n        /* \"#utility.yul\":4445:4498   */\n      tag_250\n      jump\t// in\n    tag_334:\n        /* \"#utility.yul\":4435:4498   */\n      swap2\n      pop\n        /* \"#utility.yul\":4391:4508   */\n      pop\n        /* \"#utility.yul\":4186:4515   */\n      swap3\n      swap2\n      pop\n      pop\n      jump\t// out\n        /* \"#utility.yul\":4521:4611   */\n    tag_251:\n        /* \"#utility.yul\":4555:4562   */\n      0x00\n        /* \"#utility.yul\":4598:4603   */\n      dup2\n        /* \"#utility.yul\":4591:4604   */\n      iszero\n        /* \"#utility.yul\":4584:4605   */\n      iszero\n        /* \"#utility.yul\":4573:4605   */\n      swap1\n      pop\n        /* \"#utility.yul\":4521:4611   */\n      swap2\n      swap1\n      pop\n      jump\t// out\n        /* \"#utility.yul\":4617:4726   */\n    tag_252:\n        /* \"#utility.yul\":4698:4719   */\n      tag_337\n        /* \"#utility.yul\":4713:4718   */\n      dup2\n        /* \"#utility.yul\":4698:4719   */\n      tag_251\n      jump\t// in\n    tag_337:\n        /* \"#utility.yul\":4693:4696   */\n      dup3\n        /* \"#utility.yul\":4686:4720   */\n      mstore\n        /* \"#utility.yul\":4617:4726   */\n      pop\n      pop\n      jump\t// out\n        /* \"#utility.yul\":4732:4942   */\n    tag_68:\n        /* \"#utility.yul\":4819:4823   */\n      0x00\n        /* \"#utility.yul\":4857:4859   */\n      0x20\n        /* \"#utility.yul\":4846:4855   */\n      dup3\n        /* \"#utility.yul\":4842:4860   */\n      add\n        /* \"#utility.yul\":4834:4860   */\n      swap1\n      pop\n        /* \"#utility.yul\":4870:4935   */\n      tag_339\n        /* \"#utility.yul\":4932:4933   */\n      0x00\n        /* \"#utility.yul\":4921:4930   */\n      dup4\n        /* \"#utility.yul\":4917:4934   */\n      add\n        /* \"#utility.yul\":4908:4914   */\n      dup5\n        /* \"#utility.yul\":4870:4935   */\n      tag_252\n      jump\t// in\n    tag_339:\n        /* \"#utility.yul\":4732:4942   */\n      swap3\n      swap2\n      pop\n      pop\n      jump\t// out\n        /* \"#utility.yul\":4948:5066   */\n    tag_253:\n        /* \"#utility.yul\":5035:5059   */\n      tag_341\n        /* \"#utility.yul\":5053:5058   */\n      dup2\n        /* \"#utility.yul\":5035:5059   */\n      tag_248\n      jump\t// in\n    tag_341:\n        /* \"#utility.yul\":5030:5033   */\n      dup3\n        /* \"#utility.yul\":5023:5060   */\n      mstore\n        /* \"#utility.yul\":4948:5066   */\n      pop\n      pop\n      jump\t// out\n        /* \"#utility.yul\":5072:5294   */\n    tag_75:\n        /* \"#utility.yul\":5165:5169   */\n      0x00\n        /* \"#utility.yul\":5203:5205   */\n      0x20\n        /* \"#utility.yul\":5192:5201   */\n      dup3\n        /* \"#utility.yul\":5188:5206   */\n      add\n        /* \"#utility.yul\":5180:5206   */\n      swap1\n      pop\n        /* \"#utility.yul\":5216:5287   */\n      tag_343\n        /* \"#utility.yul\":5284:5285   */\n      0x00\n        /* \"#utility.yul\":5273:5282   */\n      dup4\n        /* \"#utility.yul\":5269:5286   */\n      add\n        /* \"#utility.yul\":5260:5266   */\n      dup5\n        /* \"#utility.yul\":5216:5287   */\n      tag_253\n      jump\t// in\n    tag_343:\n        /* \"#utility.yul\":5072:5294   */\n      swap3\n      swap2\n      pop\n      pop\n      jump\t// out\n        /* \"#utility.yul\":5300:5417   */\n    tag_254:\n        /* \"#utility.yul\":5409:5410   */\n      0x00\n        /* \"#utility.yul\":5406:5407   */\n      dup1\n        /* \"#utility.yul\":5399:5411   */\n      revert\n        /* \"#utility.yul\":5423:5603   */\n    tag_255:\n        /* \"#utility.yul\":5471:5548   */\n      0x4e487b7100000000000000000000000000000000000000000000000000000000\n        /* \"#utility.yul\":5468:5469   */\n      0x00\n        /* \"#utility.yul\":5461:5549   */\n      mstore\n        /* \"#utility.yul\":5568:5572   */\n      0x41\n        /* \"#utility.yul\":5565:5566   */\n      0x04\n        /* \"#utility.yul\":5558:5573   */\n      mstore\n        /* \"#utility.yul\":5592:5596   */\n      0x24\n        /* \"#utility.yul\":5589:5590   */\n      0x00\n        /* \"#utility.yul\":5582:5597   */\n      revert\n        /* \"#utility.yul\":5609:5890   */\n    tag_256:\n        /* \"#utility.yul\":5692:5719   */\n      tag_347\n        /* \"#utility.yul\":5714:5718   */\n      dup3\n        /* \"#utility.yul\":5692:5719   */\n      tag_240\n      jump\t// in\n    tag_347:\n        /* \"#utility.yul\":5684:5690   */\n      dup2\n        /* \"#utility.yul\":5680:5720   */\n      add\n        /* \"#utility.yul\":5822:5828   */\n      dup2\n        /* \"#utility.yul\":5810:5820   */\n      dup2\n        /* \"#utility.yul\":5807:5829   */\n      lt\n        /* \"#utility.yul\":5786:5804   */\n      0xffffffffffffffff\n        /* \"#utility.yul\":5774:5784   */\n      dup3\n        /* \"#utility.yul\":5771:5805   */\n      gt\n        /* \"#utility.yul\":5768:5830   */\n      or\n        /* \"#utility.yul\":5765:5853   */\n      iszero\n      tag_348\n      jumpi\n        /* \"#utility.yul\":5833:5851   */\n      tag_349\n      tag_255\n      jump\t// in\n    tag_349:\n        /* \"#utility.yul\":5765:5853   */\n    tag_348:\n        /* \"#utility.yul\":5873:5883   */\n      dup1\n        /* \"#utility.yul\":5869:5871   */\n      0x40\n        /* \"#utility.yul\":5862:5884   */\n      mstore\n        /* \"#utility.yul\":5652:5890   */\n      pop\n        /* \"#utility.yul\":5609:5890   */\n      pop\n      pop\n      jump\t// out\n        /* \"#utility.yul\":5896:6025   */\n    tag_257:\n        /* \"#utility.yul\":5930:5936   */\n      0x00\n        /* \"#utility.yul\":5957:5977   */\n      tag_351\n      tag_242\n      jump\t// in\n    tag_351:\n        /* \"#utility.yul\":5947:5977   */\n      swap1\n      pop\n        /* \"#utility.yul\":5986:6019   */\n      tag_352\n        /* \"#utility.yul\":6014:6018   */\n      dup3\n        /* \"#utility.yul\":6006:6012   */\n      dup3\n        /* \"#utility.yul\":5986:6019   */\n      tag_256\n      jump\t// in\n    tag_352:\n        /* \"#utility.yul\":5896:6025   */\n      swap2\n      swap1\n      pop\n      jump\t// out\n        /* \"#utility.yul\":6031:6342   */\n    tag_258:\n        /* \"#utility.yul\":6108:6112   */\n      0x00\n        /* \"#utility.yul\":6198:6216   */\n      0xffffffffffffffff\n        /* \"#utility.yul\":6190:6196   */\n      dup3\n        /* \"#utility.yul\":6187:6217   */\n      gt\n        /* \"#utility.yul\":6184:6240   */\n      iszero\n      tag_354\n      jumpi\n        /* \"#utility.yul\":6220:6238   */\n      tag_355\n      tag_255\n      jump\t// in\n    tag_355:\n        /* \"#utility.yul\":6184:6240   */\n    tag_354:\n        /* \"#utility.yul\":6270:6274   */\n      0x20\n        /* \"#utility.yul\":6262:6268   */\n      dup3\n        /* \"#utility.yul\":6258:6275   */\n      mul\n        /* \"#utility.yul\":6250:6275   */\n      swap1\n      pop\n        /* \"#utility.yul\":6330:6334   */\n      0x20\n        /* \"#utility.yul\":6324:6328   */\n      dup2\n        /* \"#utility.yul\":6320:6335   */\n      add\n        /* \"#utility.yul\":6312:6335   */\n      swap1\n      pop\n        /* \"#utility.yul\":6031:6342   */\n      swap2\n      swap1\n      pop\n      jump\t// out\n        /* \"#utility.yul\":6348:6465   */\n    tag_259:\n        /* \"#utility.yul\":6457:6458   */\n      0x00\n        /* \"#utility.yul\":6454:6455   */\n      dup1\n        /* \"#utility.yul\":6447:6459   */\n      revert\n        /* \"#utility.yul\":6488:7198   */\n    tag_260:\n        /* \"#utility.yul\":6584:6589   */\n      0x00\n        /* \"#utility.yul\":6609:6690   */\n      tag_358\n        /* \"#utility.yul\":6625:6689   */\n      tag_359\n        /* \"#utility.yul\":6682:6688   */\n      dup5\n        /* \"#utility.yul\":6625:6689   */\n      tag_258\n      jump\t// in\n    tag_359:\n        /* \"#utility.yul\":6609:6690   */\n      tag_257\n      jump\t// in\n    tag_358:\n        /* \"#utility.yul\":6600:6690   */\n      swap1\n      pop\n        /* \"#utility.yul\":6710:6715   */\n      dup1\n        /* \"#utility.yul\":6739:6745   */\n      dup4\n        /* \"#utility.yul\":6732:6737   */\n      dup3\n        /* \"#utility.yul\":6725:6746   */\n      mstore\n        /* \"#utility.yul\":6773:6777   */\n      0x20\n        /* \"#utility.yul\":6766:6771   */\n      dup3\n        /* \"#utility.yul\":6762:6778   */\n      add\n        /* \"#utility.yul\":6755:6778   */\n      swap1\n      pop\n        /* \"#utility.yul\":6826:6830   */\n      0x20\n        /* \"#utility.yul\":6818:6824   */\n      dup5\n        /* \"#utility.yul\":6814:6831   */\n      mul\n        /* \"#utility.yul\":6806:6812   */\n      dup4\n        /* \"#utility.yul\":6802:6832   */\n      add\n        /* \"#utility.yul\":6855:6858   */\n      dup6\n        /* \"#utility.yul\":6847:6853   */\n      dup2\n        /* \"#utility.yul\":6844:6859   */\n      gt\n        /* \"#utility.yul\":6841:6963   */\n      iszero\n      tag_360\n      jumpi\n        /* \"#utility.yul\":6874:6953   */\n      tag_361\n      tag_259\n      jump\t// in\n    tag_361:\n        /* \"#utility.yul\":6841:6963   */\n    tag_360:\n        /* \"#utility.yul\":6989:6995   */\n      dup4\n        /* \"#utility.yul\":6972:7192   */\n    tag_362:\n        /* \"#utility.yul\":7006:7012   */\n      dup2\n        /* \"#utility.yul\":7001:7004   */\n      dup2\n        /* \"#utility.yul\":6998:7013   */\n      lt\n        /* \"#utility.yul\":6972:7192   */\n      iszero\n      tag_364\n      jumpi\n        /* \"#utility.yul\":7081:7084   */\n      dup1\n        /* \"#utility.yul\":7110:7147   */\n      tag_365\n        /* \"#utility.yul\":7143:7146   */\n      dup9\n        /* \"#utility.yul\":7131:7141   */\n      dup3\n        /* \"#utility.yul\":7110:7147   */\n      tag_250\n      jump\t// in\n    tag_365:\n        /* \"#utility.yul\":7105:7108   */\n      dup5\n        /* \"#utility.yul\":7098:7148   */\n      mstore\n        /* \"#utility.yul\":7177:7181   */\n      0x20\n        /* \"#utility.yul\":7172:7175   */\n      dup5\n        /* \"#utility.yul\":7168:7182   */\n      add\n        /* \"#utility.yul\":7161:7182   */\n      swap4\n      pop\n        /* \"#utility.yul\":7048:7192   */\n      pop\n        /* \"#utility.yul\":7032:7036   */\n      0x20\n        /* \"#utility.yul\":7027:7030   */\n      dup2\n        /* \"#utility.yul\":7023:7037   */\n      add\n        /* \"#utility.yul\":7016:7037   */\n      swap1\n      pop\n        /* \"#utility.yul\":6972:7192   */\n      jump(tag_362)\n    tag_364:\n        /* \"#utility.yul\":6976:6997   */\n      pop\n        /* \"#utility.yul\":6590:7198   */\n      pop\n      pop\n        /* \"#utility.yul\":6488:7198   */\n      swap4\n      swap3\n      pop\n      pop\n      pop\n      jump\t// out\n        /* \"#utility.yul\":7221:7591   */\n    tag_261:\n        /* \"#utility.yul\":7292:7297   */\n      0x00\n        /* \"#utility.yul\":7341:7344   */\n      dup3\n        /* \"#utility.yul\":7334:7338   */\n      0x1f\n        /* \"#utility.yul\":7326:7332   */\n      dup4\n        /* \"#utility.yul\":7322:7339   */\n      add\n        /* \"#utility.yul\":7318:7345   */\n      slt\n        /* \"#utility.yul\":7308:7430   */\n      tag_367\n      jumpi\n        /* \"#utility.yul\":7349:7428   */\n      tag_368\n      tag_254\n      jump\t// in\n    tag_368:\n        /* \"#utility.yul\":7308:7430   */\n    tag_367:\n        /* \"#utility.yul\":7466:7472   */\n      dup2\n        /* \"#utility.yul\":7453:7473   */\n      calldataload\n        /* \"#utility.yul\":7491:7585   */\n      tag_369\n        /* \"#utility.yul\":7581:7584   */\n      dup5\n        /* \"#utility.yul\":7573:7579   */\n      dup3\n        /* \"#utility.yul\":7566:7570   */\n      0x20\n        /* \"#utility.yul\":7558:7564   */\n      dup7\n        /* \"#utility.yul\":7554:7571   */\n      add\n        /* \"#utility.yul\":7491:7585   */\n      tag_260\n      jump\t// in\n    tag_369:\n        /* \"#utility.yul\":7482:7585   */\n      swap2\n      pop\n        /* \"#utility.yul\":7298:7591   */\n      pop\n        /* \"#utility.yul\":7221:7591   */\n      swap3\n      swap2\n      pop\n      pop\n      jump\t// out\n        /* \"#utility.yul\":7597:7713   */\n    tag_262:\n        /* \"#utility.yul\":7667:7688   */\n      tag_371\n        /* \"#utility.yul\":7682:7687   */\n      dup2\n        /* \"#utility.yul\":7667:7688   */\n      tag_251\n      jump\t// in\n    tag_371:\n        /* \"#utility.yul\":7660:7665   */\n      dup2\n        /* \"#utility.yul\":7657:7689   */\n      eq\n        /* \"#utility.yul\":7647:7707   */\n      tag_372\n      jumpi\n        /* \"#utility.yul\":7703:7704   */\n      0x00\n        /* \"#utility.yul\":7700:7701   */\n      dup1\n        /* \"#utility.yul\":7693:7705   */\n      revert\n        /* \"#utility.yul\":7647:7707   */\n    tag_372:\n        /* \"#utility.yul\":7597:7713   */\n      pop\n      jump\t// out\n        /* \"#utility.yul\":7719:7852   */\n    tag_263:\n        /* \"#utility.yul\":7762:7767   */\n      0x00\n        /* \"#utility.yul\":7800:7806   */\n      dup2\n        /* \"#utility.yul\":7787:7807   */\n      calldataload\n        /* \"#utility.yul\":7778:7807   */\n      swap1\n      pop\n        /* \"#utility.yul\":7816:7846   */\n      tag_374\n        /* \"#utility.yul\":7840:7845   */\n      dup2\n        /* \"#utility.yul\":7816:7846   */\n      tag_262\n      jump\t// in\n    tag_374:\n        /* \"#utility.yul\":7719:7852   */\n      swap3\n      swap2\n      pop\n      pop\n      jump\t// out\n        /* \"#utility.yul\":7858:8536   */\n    tag_78:\n        /* \"#utility.yul\":7948:7954   */\n      0x00\n        /* \"#utility.yul\":7956:7962   */\n      dup1\n        /* \"#utility.yul\":8005:8007   */\n      0x40\n        /* \"#utility.yul\":7993:8002   */\n      dup4\n        /* \"#utility.yul\":7984:7991   */\n      dup6\n        /* \"#utility.yul\":7980:8003   */\n      sub\n        /* \"#utility.yul\":7976:8008   */\n      slt\n        /* \"#utility.yul\":7973:8092   */\n      iszero\n      tag_376\n      jumpi\n        /* \"#utility.yul\":8011:8090   */\n      tag_377\n      tag_243\n      jump\t// in\n    tag_377:\n        /* \"#utility.yul\":7973:8092   */\n    tag_376:\n        /* \"#utility.yul\":8159:8160   */\n      0x00\n        /* \"#utility.yul\":8148:8157   */\n      dup4\n        /* \"#utility.yul\":8144:8161   */\n      add\n        /* \"#utility.yul\":8131:8162   */\n      calldataload\n        /* \"#utility.yul\":8189:8207   */\n      0xffffffffffffffff\n        /* \"#utility.yul\":8181:8187   */\n      dup2\n        /* \"#utility.yul\":8178:8208   */\n      gt\n        /* \"#utility.yul\":8175:8292   */\n      iszero\n      tag_378\n      jumpi\n        /* \"#utility.yul\":8211:8290   */\n      tag_379\n      tag_244\n      jump\t// in\n    tag_379:\n        /* \"#utility.yul\":8175:8292   */\n    tag_378:\n        /* \"#utility.yul\":8316:8394   */\n      tag_380\n        /* \"#utility.yul\":8386:8393   */\n      dup6\n        /* \"#utility.yul\":8377:8383   */\n      dup3\n        /* \"#utility.yul\":8366:8375   */\n      dup7\n        /* \"#utility.yul\":8362:8384   */\n      add\n        /* \"#utility.yul\":8316:8394   */\n      tag_261\n      jump\t// in\n    tag_380:\n        /* \"#utility.yul\":8306:8394   */\n      swap3\n      pop\n        /* \"#utility.yul\":8102:8404   */\n      pop\n        /* \"#utility.yul\":8443:8445   */\n      0x20\n        /* \"#utility.yul\":8469:8519   */\n      tag_381\n        /* \"#utility.yul\":8511:8518   */\n      dup6\n        /* \"#utility.yul\":8502:8508   */\n      dup3\n        /* \"#utility.yul\":8491:8500   */\n      dup7\n        /* \"#utility.yul\":8487:8509   */\n      add\n        /* \"#utility.yul\":8469:8519   */\n      tag_263\n      jump\t// in\n    tag_381:\n        /* \"#utility.yul\":8459:8519   */\n      swap2\n      pop\n        /* \"#utility.yul\":8414:8529   */\n      pop\n        /* \"#utility.yul\":7858:8536   */\n      swap3\n      pop\n      swap3\n      swap1\n      pop\n      jump\t// out\n        /* \"#utility.yul\":8542:8722   */\n    tag_264:\n        /* \"#utility.yul\":8590:8667   */\n      0x4e487b7100000000000000000000000000000000000000000000000000000000\n        /* \"#utility.yul\":8587:8588   */\n      0x00\n        /* \"#utility.yul\":8580:8668   */\n      mstore\n        /* \"#utility.yul\":8687:8691   */\n      0x22\n        /* \"#utility.yul\":8684:8685   */\n      0x04\n        /* \"#utility.yul\":8677:8692   */\n      mstore\n        /* \"#utility.yul\":8711:8715   */\n      0x24\n        /* \"#utility.yul\":8708:8709   */\n      0x00\n        /* \"#utility.yul\":8701:8716   */\n      revert\n        /* \"#utility.yul\":8728:9048   */\n    tag_105:\n        /* \"#utility.yul\":8772:8778   */\n      0x00\n        /* \"#utility.yul\":8809:8810   */\n      0x02\n        /* \"#utility.yul\":8803:8807   */\n      dup3\n        /* \"#utility.yul\":8799:8811   */\n      div\n        /* \"#utility.yul\":8789:8811   */\n      swap1\n      pop\n        /* \"#utility.yul\":8856:8857   */\n      0x01\n        /* \"#utility.yul\":8850:8854   */\n      dup3\n        /* \"#utility.yul\":8846:8858   */\n      and\n        /* \"#utility.yul\":8877:8895   */\n      dup1\n        /* \"#utility.yul\":8867:8948   */\n      tag_384\n      jumpi\n        /* \"#utility.yul\":8933:8937   */\n      0x7f\n        /* \"#utility.yul\":8925:8931   */\n      dup3\n        /* \"#utility.yul\":8921:8938   */\n      and\n        /* \"#utility.yul\":8911:8938   */\n      swap2\n      pop\n        /* \"#utility.yul\":8867:8948   */\n    tag_384:\n        /* \"#utility.yul\":8995:8997   */\n      0x20\n        /* \"#utility.yul\":8987:8993   */\n      dup3\n        /* \"#utility.yul\":8984:8998   */\n      lt\n        /* \"#utility.yul\":8964:8982   */\n      dup2\n        /* \"#utility.yul\":8961:8999   */\n      sub\n        /* \"#utility.yul\":8958:9042   */\n      tag_385\n      jumpi\n        /* \"#utility.yul\":9014:9032   */\n      tag_386\n      tag_264\n      jump\t// in\n    tag_386:\n        /* \"#utility.yul\":8958:9042   */\n    tag_385:\n        /* \"#utility.yul\":8779:9048   */\n      pop\n        /* \"#utility.yul\":8728:9048   */\n      swap2\n      swap1\n      pop\n      jump\t// out\n        /* \"#utility.yul\":9054:9234   */\n    tag_265:\n        /* \"#utility.yul\":9102:9179   */\n      0x4e487b7100000000000000000000000000000000000000000000000000000000\n        /* \"#utility.yul\":9099:9100   */\n      0x00\n        /* \"#utility.yul\":9092:9180   */\n      mstore\n        /* \"#utility.yul\":9199:9203   */\n      0x11\n        /* \"#utility.yul\":9196:9197   */\n      0x04\n        /* \"#utility.yul\":9189:9204   */\n      mstore\n        /* \"#utility.yul\":9223:9227   */\n      0x24\n        /* \"#utility.yul\":9220:9221   */\n      0x00\n        /* \"#utility.yul\":9213:9228   */\n      revert\n        /* \"#utility.yul\":9240:9650   */\n    tag_112:\n        /* \"#utility.yul\":9280:9287   */\n      0x00\n        /* \"#utility.yul\":9303:9323   */\n      tag_389\n        /* \"#utility.yul\":9321:9322   */\n      dup3\n        /* \"#utility.yul\":9303:9323   */\n      tag_235\n      jump\t// in\n    tag_389:\n        /* \"#utility.yul\":9298:9323   */\n      swap2\n      pop\n        /* \"#utility.yul\":9337:9357   */\n      tag_390\n        /* \"#utility.yul\":9355:9356   */\n      dup4\n        /* \"#utility.yul\":9337:9357   */\n      tag_235\n      jump\t// in\n    tag_390:\n        /* \"#utility.yul\":9332:9357   */\n      swap3\n      pop\n        /* \"#utility.yul\":9392:9393   */\n      dup3\n        /* \"#utility.yul\":9389:9390   */\n      dup3\n        /* \"#utility.yul\":9385:9394   */\n      mul\n        /* \"#utility.yul\":9414:9444   */\n      tag_391\n        /* \"#utility.yul\":9432:9443   */\n      dup2\n        /* \"#utility.yul\":9414:9444   */\n      tag_235\n      jump\t// in\n    tag_391:\n        /* \"#utility.yul\":9403:9444   */\n      swap2\n      pop\n        /* \"#utility.yul\":9593:9594   */\n      dup3\n        /* \"#utility.yul\":9584:9591   */\n      dup3\n        /* \"#utility.yul\":9580:9595   */\n      div\n        /* \"#utility.yul\":9577:9578   */\n      dup5\n        /* \"#utility.yul\":9574:9596   */\n      eq\n        /* \"#utility.yul\":9554:9555   */\n      dup4\n        /* \"#utility.yul\":9547:9556   */\n      iszero\n        /* \"#utility.yul\":9527:9610   */\n      or\n        /* \"#utility.yul\":9504:9643   */\n      tag_392\n      jumpi\n        /* \"#utility.yul\":9623:9641   */\n      tag_393\n      tag_265\n      jump\t// in\n    tag_393:\n        /* \"#utility.yul\":9504:9643   */\n    tag_392:\n        /* \"#utility.yul\":9288:9650   */\n      pop\n        /* \"#utility.yul\":9240:9650   */\n      swap3\n      swap2\n      pop\n      pop\n      jump\t// out\n        /* \"#utility.yul\":9656:9742   */\n    tag_266:\n        /* \"#utility.yul\":9691:9698   */\n      0x00\n        /* \"#utility.yul\":9731:9735   */\n      0xff\n        /* \"#utility.yul\":9724:9729   */\n      dup3\n        /* \"#utility.yul\":9720:9736   */\n      and\n        /* \"#utility.yul\":9709:9736   */\n      swap1\n      pop\n        /* \"#utility.yul\":9656:9742   */\n      swap2\n      swap1\n      pop\n      jump\t// out\n        /* \"#utility.yul\":9748:9866   */\n    tag_267:\n        /* \"#utility.yul\":9819:9841   */\n      tag_396\n        /* \"#utility.yul\":9835:9840   */\n      dup2\n        /* \"#utility.yul\":9819:9841   */\n      tag_266\n      jump\t// in\n    tag_396:\n        /* \"#utility.yul\":9812:9817   */\n      dup2\n        /* \"#utility.yul\":9809:9842   */\n      eq\n        /* \"#utility.yul\":9799:9860   */\n      tag_397\n      jumpi\n        /* \"#utility.yul\":9856:9857   */\n      0x00\n        /* \"#utility.yul\":9853:9854   */\n      dup1\n        /* \"#utility.yul\":9846:9858   */\n      revert\n        /* \"#utility.yul\":9799:9860   */\n    tag_397:\n        /* \"#utility.yul\":9748:9866   */\n      pop\n      jump\t// out\n        /* \"#utility.yul\":9872:10011   */\n    tag_268:\n        /* \"#utility.yul\":9927:9932   */\n      0x00\n        /* \"#utility.yul\":9958:9964   */\n      dup2\n        /* \"#utility.yul\":9952:9965   */\n      mload\n        /* \"#utility.yul\":9943:9965   */\n      swap1\n      pop\n        /* \"#utility.yul\":9974:10005   */\n      tag_399\n        /* \"#utility.yul\":9999:10004   */\n      dup2\n        /* \"#utility.yul\":9974:10005   */\n      tag_267\n      jump\t// in\n    tag_399:\n        /* \"#utility.yul\":9872:10011   */\n      swap3\n      swap2\n      pop\n      pop\n      jump\t// out\n        /* \"#utility.yul\":10017:10364   */\n    tag_116:\n        /* \"#utility.yul\":10085:10091   */\n      0x00\n        /* \"#utility.yul\":10134:10136   */\n      0x20\n        /* \"#utility.yul\":10122:10131   */\n      dup3\n        /* \"#utility.yul\":10113:10120   */\n      dup5\n        /* \"#utility.yul\":10109:10132   */\n      sub\n        /* \"#utility.yul\":10105:10137   */\n      slt\n        /* \"#utility.yul\":10102:10221   */\n      iszero\n      tag_401\n      jumpi\n        /* \"#utility.yul\":10140:10219   */\n      tag_402\n      tag_243\n      jump\t// in\n    tag_402:\n        /* \"#utility.yul\":10102:10221   */\n    tag_401:\n        /* \"#utility.yul\":10260:10261   */\n      0x00\n        /* \"#utility.yul\":10285:10347   */\n      tag_403\n        /* \"#utility.yul\":10339:10346   */\n      dup5\n        /* \"#utility.yul\":10330:10336   */\n      dup3\n        /* \"#utility.yul\":10319:10328   */\n      dup6\n        /* \"#utility.yul\":10315:10337   */\n      add\n        /* \"#utility.yul\":10285:10347   */\n      tag_268\n      jump\t// in\n    tag_403:\n        /* \"#utility.yul\":10275:10347   */\n      swap2\n      pop\n        /* \"#utility.yul\":10231:10357   */\n      pop\n        /* \"#utility.yul\":10017:10364   */\n      swap3\n      swap2\n      pop\n      pop\n      jump\t// out\n        /* \"#utility.yul\":10370:10472   */\n    tag_269:\n        /* \"#utility.yul\":10412:10420   */\n      0x00\n        /* \"#utility.yul\":10459:10464   */\n      dup2\n        /* \"#utility.yul\":10456:10457   */\n      0x01\n        /* \"#utility.yul\":10452:10465   */\n      shr\n        /* \"#utility.yul\":10431:10465   */\n      swap1\n      pop\n        /* \"#utility.yul\":10370:10472   */\n      swap2\n      swap1\n      pop\n      jump\t// out\n        /* \"#utility.yul\":10478:11326   */\n    tag_270:\n        /* \"#utility.yul\":10539:10544   */\n      0x00\n        /* \"#utility.yul\":10546:10550   */\n      dup1\n        /* \"#utility.yul\":10570:10576   */\n      dup3\n        /* \"#utility.yul\":10561:10576   */\n      swap2\n      pop\n        /* \"#utility.yul\":10594:10599   */\n      dup4\n        /* \"#utility.yul\":10585:10599   */\n      swap1\n      pop\n        /* \"#utility.yul\":10608:11320   */\n    tag_406:\n        /* \"#utility.yul\":10629:10630   */\n      0x01\n        /* \"#utility.yul\":10619:10627   */\n      dup6\n        /* \"#utility.yul\":10616:10631   */\n      gt\n        /* \"#utility.yul\":10608:11320   */\n      iszero\n      tag_408\n      jumpi\n        /* \"#utility.yul\":10724:10728   */\n      dup1\n        /* \"#utility.yul\":10719:10722   */\n      dup7\n        /* \"#utility.yul\":10715:10729   */\n      div\n        /* \"#utility.yul\":10709:10713   */\n      dup2\n        /* \"#utility.yul\":10706:10730   */\n      gt\n        /* \"#utility.yul\":10703:10753   */\n      iszero\n      tag_409\n      jumpi\n        /* \"#utility.yul\":10733:10751   */\n      tag_410\n      tag_265\n      jump\t// in\n    tag_410:\n        /* \"#utility.yul\":10703:10753   */\n    tag_409:\n        /* \"#utility.yul\":10783:10784   */\n      0x01\n        /* \"#utility.yul\":10773:10781   */\n      dup6\n        /* \"#utility.yul\":10769:10785   */\n      and\n        /* \"#utility.yul\":10766:11217   */\n      iszero\n      tag_411\n      jumpi\n        /* \"#utility.yul\":11198:11202   */\n      dup1\n        /* \"#utility.yul\":11191:11196   */\n      dup3\n        /* \"#utility.yul\":11187:11203   */\n      mul\n        /* \"#utility.yul\":11178:11203   */\n      swap2\n      pop\n        /* \"#utility.yul\":10766:11217   */\n    tag_411:\n        /* \"#utility.yul\":11248:11252   */\n      dup1\n        /* \"#utility.yul\":11242:11246   */\n      dup2\n        /* \"#utility.yul\":11238:11253   */\n      mul\n        /* \"#utility.yul\":11230:11253   */\n      swap1\n      pop\n        /* \"#utility.yul\":11278:11310   */\n      tag_412\n        /* \"#utility.yul\":11301:11309   */\n      dup6\n        /* \"#utility.yul\":11278:11310   */\n      tag_269\n      jump\t// in\n    tag_412:\n        /* \"#utility.yul\":11266:11310   */\n      swap5\n      pop\n        /* \"#utility.yul\":10608:11320   */\n      jump(tag_406)\n    tag_408:\n        /* \"#utility.yul\":10478:11326   */\n      swap5\n      pop\n      swap5\n      swap3\n      pop\n      pop\n      pop\n      jump\t// out\n        /* \"#utility.yul\":11332:12405   */\n    tag_271:\n        /* \"#utility.yul\":11386:11391   */\n      0x00\n        /* \"#utility.yul\":11577:11585   */\n      dup3\n        /* \"#utility.yul\":11567:11607   */\n      tag_414\n      jumpi\n        /* \"#utility.yul\":11598:11599   */\n      0x01\n        /* \"#utility.yul\":11589:11599   */\n      swap1\n      pop\n        /* \"#utility.yul\":11600:11605   */\n      jump(tag_413)\n        /* \"#utility.yul\":11567:11607   */\n    tag_414:\n        /* \"#utility.yul\":11626:11630   */\n      dup2\n        /* \"#utility.yul\":11616:11652   */\n      tag_415\n      jumpi\n        /* \"#utility.yul\":11643:11644   */\n      0x00\n        /* \"#utility.yul\":11634:11644   */\n      swap1\n      pop\n        /* \"#utility.yul\":11645:11650   */\n      jump(tag_413)\n        /* \"#utility.yul\":11616:11652   */\n    tag_415:\n        /* \"#utility.yul\":11712:11716   */\n      dup2\n        /* \"#utility.yul\":11760:11761   */\n      0x01\n        /* \"#utility.yul\":11755:11782   */\n      dup2\n      eq\n      tag_417\n      jumpi\n        /* \"#utility.yul\":11796:11797   */\n      0x02\n        /* \"#utility.yul\":11791:11982   */\n      dup2\n      eq\n      tag_418\n      jumpi\n        /* \"#utility.yul\":11705:11982   */\n      jump(tag_416)\n        /* \"#utility.yul\":11755:11782   */\n    tag_417:\n        /* \"#utility.yul\":11773:11774   */\n      0x01\n        /* \"#utility.yul\":11764:11774   */\n      swap2\n      pop\n        /* \"#utility.yul\":11775:11780   */\n      pop\n      jump(tag_413)\n        /* \"#utility.yul\":11791:11982   */\n    tag_418:\n        /* \"#utility.yul\":11836:11839   */\n      0xff\n        /* \"#utility.yul\":11826:11834   */\n      dup5\n        /* \"#utility.yul\":11823:11840   */\n      gt\n        /* \"#utility.yul\":11820:11863   */\n      iszero\n      tag_419\n      jumpi\n        /* \"#utility.yul\":11843:11861   */\n      tag_420\n      tag_265\n      jump\t// in\n    tag_420:\n        /* \"#utility.yul\":11820:11863   */\n    tag_419:\n        /* \"#utility.yul\":11892:11900   */\n      dup4\n        /* \"#utility.yul\":11889:11890   */\n      0x02\n        /* \"#utility.yul\":11885:11901   */\n      exp\n        /* \"#utility.yul\":11876:11901   */\n      swap2\n      pop\n        /* \"#utility.yul\":11927:11930   */\n      dup5\n        /* \"#utility.yul\":11920:11925   */\n      dup3\n        /* \"#utility.yul\":11917:11931   */\n      gt\n        /* \"#utility.yul\":11914:11954   */\n      iszero\n      tag_421\n      jumpi\n        /* \"#utility.yul\":11934:11952   */\n      tag_422\n      tag_265\n      jump\t// in\n    tag_422:\n        /* \"#utility.yul\":11914:11954   */\n    tag_421:\n        /* \"#utility.yul\":11967:11972   */\n      pop\n      jump(tag_413)\n        /* \"#utility.yul\":11705:11982   */\n    tag_416:\n      pop\n        /* \"#utility.yul\":12091:12093   */\n      0x20\n        /* \"#utility.yul\":12081:12089   */\n      dup4\n        /* \"#utility.yul\":12078:12094   */\n      lt\n        /* \"#utility.yul\":12072:12075   */\n      0x0133\n        /* \"#utility.yul\":12066:12070   */\n      dup4\n        /* \"#utility.yul\":12063:12076   */\n      lt\n        /* \"#utility.yul\":12059:12095   */\n      and\n        /* \"#utility.yul\":12041:12043   */\n      0x4e\n        /* \"#utility.yul\":12031:12039   */\n      dup5\n        /* \"#utility.yul\":12028:12044   */\n      lt\n        /* \"#utility.yul\":12023:12025   */\n      0x0b\n        /* \"#utility.yul\":12017:12021   */\n      dup5\n        /* \"#utility.yul\":12014:12026   */\n      lt\n        /* \"#utility.yul\":12010:12045   */\n      and\n        /* \"#utility.yul\":11994:12105   */\n      or\n        /* \"#utility.yul\":11991:12237   */\n      iszero\n      tag_423\n      jumpi\n        /* \"#utility.yul\":12147:12155   */\n      dup3\n        /* \"#utility.yul\":12141:12145   */\n      dup3\n        /* \"#utility.yul\":12137:12156   */\n      exp\n        /* \"#utility.yul\":12128:12156   */\n      swap1\n      pop\n        /* \"#utility.yul\":12182:12185   */\n      dup4\n        /* \"#utility.yul\":12175:12180   */\n      dup2\n        /* \"#utility.yul\":12172:12186   */\n      gt\n        /* \"#utility.yul\":12169:12209   */\n      iszero\n      tag_424\n      jumpi\n        /* \"#utility.yul\":12189:12207   */\n      tag_425\n      tag_265\n      jump\t// in\n    tag_425:\n        /* \"#utility.yul\":12169:12209   */\n    tag_424:\n        /* \"#utility.yul\":12222:12227   */\n      jump(tag_413)\n        /* \"#utility.yul\":11991:12237   */\n    tag_423:\n        /* \"#utility.yul\":12262:12304   */\n      tag_426\n        /* \"#utility.yul\":12300:12303   */\n      dup5\n        /* \"#utility.yul\":12290:12298   */\n      dup5\n        /* \"#utility.yul\":12284:12288   */\n      dup5\n        /* \"#utility.yul\":12281:12282   */\n      0x01\n        /* \"#utility.yul\":12262:12304   */\n      tag_270\n      jump\t// in\n    tag_426:\n        /* \"#utility.yul\":12247:12304   */\n      swap3\n      pop\n      swap1\n      pop\n        /* \"#utility.yul\":12336:12340   */\n      dup2\n        /* \"#utility.yul\":12331:12334   */\n      dup5\n        /* \"#utility.yul\":12327:12341   */\n      div\n        /* \"#utility.yul\":12320:12325   */\n      dup2\n        /* \"#utility.yul\":12317:12342   */\n      gt\n        /* \"#utility.yul\":12314:12365   */\n      iszero\n      tag_427\n      jumpi\n        /* \"#utility.yul\":12345:12363   */\n      tag_428\n      tag_265\n      jump\t// in\n    tag_428:\n        /* \"#utility.yul\":12314:12365   */\n    tag_427:\n        /* \"#utility.yul\":12394:12398   */\n      dup2\n        /* \"#utility.yul\":12387:12392   */\n      dup2\n        /* \"#utility.yul\":12383:12399   */\n      mul\n        /* \"#utility.yul\":12374:12399   */\n      swap1\n      pop\n        /* \"#utility.yul\":11332:12405   */\n    tag_413:\n      swap4\n      swap3\n      pop\n      pop\n      pop\n      jump\t// out\n        /* \"#utility.yul\":12411:12692   */\n    tag_118:\n        /* \"#utility.yul\":12469:12474   */\n      0x00\n        /* \"#utility.yul\":12493:12516   */\n      tag_430\n        /* \"#utility.yul\":12511:12515   */\n      dup3\n        /* \"#utility.yul\":12493:12516   */\n      tag_235\n      jump\t// in\n    tag_430:\n        /* \"#utility.yul\":12485:12516   */\n      swap2\n      pop\n        /* \"#utility.yul\":12537:12562   */\n      tag_431\n        /* \"#utility.yul\":12553:12561   */\n      dup4\n        /* \"#utility.yul\":12537:12562   */\n      tag_266\n      jump\t// in\n    tag_431:\n        /* \"#utility.yul\":12525:12562   */\n      swap3\n      pop\n        /* \"#utility.yul\":12581:12685   */\n      tag_432\n        /* \"#utility.yul\":12618:12684   */\n      0xffffffffffffffffffffffffffffffffffffffffffffffffffffffffffffffff\n        /* \"#utility.yul\":12608:12616   */\n      dup5\n        /* \"#utility.yul\":12602:12606   */\n      dup5\n        /* \"#utility.yul\":12581:12685   */\n      tag_271\n      jump\t// in\n    tag_432:\n        /* \"#utility.yul\":12572:12685   */\n      swap1\n      pop\n        /* \"#utility.yul\":12411:12692   */\n      swap3\n      swap2\n      pop\n      pop\n      jump\t// out\n        /* \"#utility.yul\":12698:12878   */\n    tag_272:\n        /* \"#utility.yul\":12746:12823   */\n      0x4e487b7100000000000000000000000000000000000000000000000000000000\n        /* \"#utility.yul\":12743:12744   */\n      0x00\n        /* \"#utility.yul\":12736:12824   */\n      mstore\n        /* \"#utility.yul\":12843:12847   */\n      0x12\n        /* \"#utility.yul\":12840:12841   */\n      0x04\n        /* \"#utility.yul\":12833:12848   */\n      mstore\n        /* \"#utility.yul\":12867:12871   */\n      0x24\n        /* \"#utility.yul\":12864:12865   */\n      0x00\n        /* \"#utility.yul\":12857:12872   */\n      revert\n        /* \"#utility.yul\":12884:13069   */\n    tag_122:\n        /* \"#utility.yul\":12924:12925   */\n      0x00\n        /* \"#utility.yul\":12941:12961   */\n      tag_435\n        /* \"#utility.yul\":12959:12960   */\n      dup3\n        /* \"#utility.yul\":12941:12961   */\n      tag_235\n      jump\t// in\n    tag_435:\n        /* \"#utility.yul\":12936:12961   */\n      swap2\n      pop\n        /* \"#utility.yul\":12975:12995   */\n      tag_436\n        /* \"#utility.yul\":12993:12994   */\n      dup4\n        /* \"#utility.yul\":12975:12995   */\n      tag_235\n      jump\t// in\n    tag_436:\n        /* \"#utility.yul\":12970:12995   */\n      swap3\n      pop\n        /* \"#utility.yul\":13014:13015   */\n      dup3\n        /* \"#utility.yul\":13004:13039   */\n      tag_437\n      jumpi\n        /* \"#utility.yul\":13019:13037   */\n      tag_438\n      tag_272\n      jump\t// in\n    tag_438:\n        /* \"#utility.yul\":13004:13039   */\n    tag_437:\n        /* \"#utility.yul\":13061:13062   */\n      dup3\n        /* \"#utility.yul\":13058:13059   */\n      dup3\n        /* \"#utility.yul\":13054:13063   */\n      div\n        /* \"#utility.yul\":13049:13063   */\n      swap1\n      pop\n        /* \"#utility.yul\":12884:13069   */\n      swap3\n      swap2\n      pop\n      pop\n      jump\t// out\n        /* \"#utility.yul\":13075:13246   */\n    tag_273:\n        /* \"#utility.yul\":13215:13238   */\n      0x796f7520617265206e6f74207065726d69747465640000000000000000000000\n        /* \"#utility.yul\":13211:13212   */\n      0x00\n        /* \"#utility.yul\":13203:13209   */\n      dup3\n        /* \"#utility.yul\":13199:13213   */\n      add\n        /* \"#utility.yul\":13192:13239   */\n      mstore\n        /* \"#utility.yul\":13075:13246   */\n      pop\n      jump\t// out\n        /* \"#utility.yul\":13252:13618   */\n    tag_274:\n        /* \"#utility.yul\":13394:13397   */\n      0x00\n        /* \"#utility.yul\":13415:13482   */\n      tag_441\n        /* \"#utility.yul\":13479:13481   */\n      0x15\n        /* \"#utility.yul\":13474:13477   */\n      dup4\n        /* \"#utility.yul\":13415:13482   */\n      tag_238\n      jump\t// in\n    tag_441:\n        /* \"#utility.yul\":13408:13482   */\n      swap2\n      pop\n        /* \"#utility.yul\":13491:13584   */\n      tag_442\n        /* \"#utility.yul\":13580:13583   */\n      dup3\n        /* \"#utility.yul\":13491:13584   */\n      tag_273\n      jump\t// in\n    tag_442:\n        /* \"#utility.yul\":13609:13611   */\n      0x20\n        /* \"#utility.yul\":13604:13607   */\n      dup3\n        /* \"#utility.yul\":13600:13612   */\n      add\n        /* \"#utility.yul\":13593:13612   */\n      swap1\n      pop\n        /* \"#utility.yul\":13252:13618   */\n      swap2\n      swap1\n      pop\n      jump\t// out\n        /* \"#utility.yul\":13624:14043   */\n    tag_130:\n        /* \"#utility.yul\":13790:13794   */\n      0x00\n        /* \"#utility.yul\":13828:13830   */\n      0x20\n        /* \"#utility.yul\":13817:13826   */\n      dup3\n        /* \"#utility.yul\":13813:13831   */\n      add\n        /* \"#utility.yul\":13805:13831   */\n      swap1\n      pop\n        /* \"#utility.yul\":13877:13886   */\n      dup2\n        /* \"#utility.yul\":13871:13875   */\n      dup2\n        /* \"#utility.yul\":13867:13887   */\n      sub\n        /* \"#utility.yul\":13863:13864   */\n      0x00\n        /* \"#utility.yul\":13852:13861   */\n      dup4\n        /* \"#utility.yul\":13848:13865   */\n      add\n        /* \"#utility.yul\":13841:13888   */\n      mstore\n        /* \"#utility.yul\":13905:14036   */\n      tag_444\n        /* \"#utility.yul\":14031:14035   */\n      dup2\n        /* \"#utility.yul\":13905:14036   */\n      tag_274\n      jump\t// in\n    tag_444:\n        /* \"#utility.yul\":13897:14036   */\n      swap1\n      pop\n        /* \"#utility.yul\":13624:14043   */\n      swap2\n      swap1\n      pop\n      jump\t// out\n        /* \"#utility.yul\":14049:14192   */\n    tag_275:\n        /* \"#utility.yul\":14106:14111   */\n      0x00\n        /* \"#utility.yul\":14137:14143   */\n      dup2\n        /* \"#utility.yul\":14131:14144   */\n      mload\n        /* \"#utility.yul\":14122:14144   */\n      swap1\n      pop\n        /* \"#utility.yul\":14153:14186   */\n      tag_446\n        /* \"#utility.yul\":14180:14185   */\n      dup2\n        /* \"#utility.yul\":14153:14186   */\n      tag_245\n      jump\t// in\n    tag_446:\n        /* \"#utility.yul\":14049:14192   */\n      swap3\n      swap2\n      pop\n      pop\n      jump\t// out\n        /* \"#utility.yul\":14198:14549   */\n    tag_135:\n        /* \"#utility.yul\":14268:14274   */\n      0x00\n        /* \"#utility.yul\":14317:14319   */\n      0x20\n        /* \"#utility.yul\":14305:14314   */\n      dup3\n        /* \"#utility.yul\":14296:14303   */\n      dup5\n        /* \"#utility.yul\":14292:14315   */\n      sub\n        /* \"#utility.yul\":14288:14320   */\n      slt\n        /* \"#utility.yul\":14285:14404   */\n      iszero\n      tag_448\n      jumpi\n        /* \"#utility.yul\":14323:14402   */\n      tag_449\n      tag_243\n      jump\t// in\n    tag_449:\n        /* \"#utility.yul\":14285:14404   */\n    tag_448:\n        /* \"#utility.yul\":14443:14444   */\n      0x00\n        /* \"#utility.yul\":14468:14532   */\n      tag_450\n        /* \"#utility.yul\":14524:14531   */\n      dup5\n        /* \"#utility.yul\":14515:14521   */\n      dup3\n        /* \"#utility.yul\":14504:14513   */\n      dup6\n        /* \"#utility.yul\":14500:14522   */\n      add\n        /* \"#utility.yul\":14468:14532   */\n      tag_275\n      jump\t// in\n    tag_450:\n        /* \"#utility.yul\":14458:14532   */\n      swap2\n      pop\n        /* \"#utility.yul\":14414:14542   */\n      pop\n        /* \"#utility.yul\":14198:14549   */\n      swap3\n      swap2\n      pop\n      pop\n      jump\t// out\n        /* \"#utility.yul\":14555:14722   */\n    tag_276:\n        /* \"#utility.yul\":14695:14714   */\n      0x6e6f7420656e6f75676820706f696e7473000000000000000000000000000000\n        /* \"#utility.yul\":14691:14692   */\n      0x00\n        /* \"#utility.yul\":14683:14689   */\n      dup3\n        /* \"#utility.yul\":14679:14693   */\n      add\n        /* \"#utility.yul\":14672:14715   */\n      mstore\n        /* \"#utility.yul\":14555:14722   */\n      pop\n      jump\t// out\n        /* \"#utility.yul\":14728:15094   */\n    tag_277:\n        /* \"#utility.yul\":14870:14873   */\n      0x00\n        /* \"#utility.yul\":14891:14958   */\n      tag_453\n        /* \"#utility.yul\":14955:14957   */\n      0x11\n        /* \"#utility.yul\":14950:14953   */\n      dup4\n        /* \"#utility.yul\":14891:14958   */\n      tag_238\n      jump\t// in\n    tag_453:\n        /* \"#utility.yul\":14884:14958   */\n      swap2\n      pop\n        /* \"#utility.yul\":14967:15060   */\n      tag_454\n        /* \"#utility.yul\":15056:15059   */\n      dup3\n        /* \"#utility.yul\":14967:15060   */\n      tag_276\n      jump\t// in\n    tag_454:\n        /* \"#utility.yul\":15085:15087   */\n      0x20\n        /* \"#utility.yul\":15080:15083   */\n      dup3\n        /* \"#utility.yul\":15076:15088   */\n      add\n        /* \"#utility.yul\":15069:15088   */\n      swap1\n      pop\n        /* \"#utility.yul\":14728:15094   */\n      swap2\n      swap1\n      pop\n      jump\t// out\n        /* \"#utility.yul\":15100:15519   */\n    tag_138:\n        /* \"#utility.yul\":15266:15270   */\n      0x00\n        /* \"#utility.yul\":15304:15306   */\n      0x20\n        /* \"#utility.yul\":15293:15302   */\n      dup3\n        /* \"#utility.yul\":15289:15307   */\n      add\n        /* \"#utility.yul\":15281:15307   */\n      swap1\n      pop\n        /* \"#utility.yul\":15353:15362   */\n      dup2\n        /* \"#utility.yul\":15347:15351   */\n      dup2\n        /* \"#utility.yul\":15343:15363   */\n      sub\n        /* \"#utility.yul\":15339:15340   */\n      0x00\n        /* \"#utility.yul\":15328:15337   */\n      dup4\n        /* \"#utility.yul\":15324:15341   */\n      add\n        /* \"#utility.yul\":15317:15364   */\n      mstore\n        /* \"#utility.yul\":15381:15512   */\n      tag_456\n        /* \"#utility.yul\":15507:15511   */\n      dup2\n        /* \"#utility.yul\":15381:15512   */\n      tag_277\n      jump\t// in\n    tag_456:\n        /* \"#utility.yul\":15373:15512   */\n      swap1\n      pop\n        /* \"#utility.yul\":15100:15519   */\n      swap2\n      swap1\n      pop\n      jump\t// out\n        /* \"#utility.yul\":15525:15746   */\n    tag_278:\n        /* \"#utility.yul\":15665:15699   */\n      0x706f696e747320746f2073776170206c657373207468616e206d696e706f696e\n        /* \"#utility.yul\":15661:15662   */\n      0x00\n        /* \"#utility.yul\":15653:15659   */\n      dup3\n        /* \"#utility.yul\":15649:15663   */\n      add\n        /* \"#utility.yul\":15642:15700   */\n      mstore\n        /* \"#utility.yul\":15734:15738   */\n      0x7473000000000000000000000000000000000000000000000000000000000000\n        /* \"#utility.yul\":15729:15731   */\n      0x20\n        /* \"#utility.yul\":15721:15727   */\n      dup3\n        /* \"#utility.yul\":15717:15732   */\n      add\n        /* \"#utility.yul\":15710:15739   */\n      mstore\n        /* \"#utility.yul\":15525:15746   */\n      pop\n      jump\t// out\n        /* \"#utility.yul\":15752:16118   */\n    tag_279:\n        /* \"#utility.yul\":15894:15897   */\n      0x00\n        /* \"#utility.yul\":15915:15982   */\n      tag_459\n        /* \"#utility.yul\":15979:15981   */\n      0x22\n        /* \"#utility.yul\":15974:15977   */\n      dup4\n        /* \"#utility.yul\":15915:15982   */\n      tag_238\n      jump\t// in\n    tag_459:\n        /* \"#utility.yul\":15908:15982   */\n      swap2\n      pop\n        /* \"#utility.yul\":15991:16084   */\n      tag_460\n        /* \"#utility.yul\":16080:16083   */\n      dup3\n        /* \"#utility.yul\":15991:16084   */\n      tag_278\n      jump\t// in\n    tag_460:\n        /* \"#utility.yul\":16109:16111   */\n      0x40\n        /* \"#utility.yul\":16104:16107   */\n      dup3\n        /* \"#utility.yul\":16100:16112   */\n      add\n        /* \"#utility.yul\":16093:16112   */\n      swap1\n      pop\n        /* \"#utility.yul\":15752:16118   */\n      swap2\n      swap1\n      pop\n      jump\t// out\n        /* \"#utility.yul\":16124:16543   */\n    tag_141:\n        /* \"#utility.yul\":16290:16294   */\n      0x00\n        /* \"#utility.yul\":16328:16330   */\n      0x20\n        /* \"#utility.yul\":16317:16326   */\n      dup3\n        /* \"#utility.yul\":16313:16331   */\n      add\n        /* \"#utility.yul\":16305:16331   */\n      swap1\n      pop\n        /* \"#utility.yul\":16377:16386   */\n      dup2\n        /* \"#utility.yul\":16371:16375   */\n      dup2\n        /* \"#utility.yul\":16367:16387   */\n      sub\n        /* \"#utility.yul\":16363:16364   */\n      0x00\n        /* \"#utility.yul\":16352:16361   */\n      dup4\n        /* \"#utility.yul\":16348:16365   */\n      add\n        /* \"#utility.yul\":16341:16388   */\n      mstore\n        /* \"#utility.yul\":16405:16536   */\n      tag_462\n        /* \"#utility.yul\":16531:16535   */\n      dup2\n        /* \"#utility.yul\":16405:16536   */\n      tag_279\n      jump\t// in\n    tag_462:\n        /* \"#utility.yul\":16397:16536   */\n      swap1\n      pop\n        /* \"#utility.yul\":16124:16543   */\n      swap2\n      swap1\n      pop\n      jump\t// out\n        /* \"#utility.yul\":16549:16740   */\n    tag_144:\n        /* \"#utility.yul\":16589:16592   */\n      0x00\n        /* \"#utility.yul\":16608:16628   */\n      tag_464\n        /* \"#utility.yul\":16626:16627   */\n      dup3\n        /* \"#utility.yul\":16608:16628   */\n      tag_235\n      jump\t// in\n    tag_464:\n        /* \"#utility.yul\":16603:16628   */\n      swap2\n      pop\n        /* \"#utility.yul\":16642:16662   */\n      tag_465\n        /* \"#utility.yul\":16660:16661   */\n      dup4\n        /* \"#utility.yul\":16642:16662   */\n      tag_235\n      jump\t// in\n    tag_465:\n        /* \"#utility.yul\":16637:16662   */\n      swap3\n      pop\n        /* \"#utility.yul\":16685:16686   */\n      dup3\n        /* \"#utility.yul\":16682:16683   */\n      dup3\n        /* \"#utility.yul\":16678:16687   */\n      add\n        /* \"#utility.yul\":16671:16687   */\n      swap1\n      pop\n        /* \"#utility.yul\":16706:16709   */\n      dup1\n        /* \"#utility.yul\":16703:16704   */\n      dup3\n        /* \"#utility.yul\":16700:16710   */\n      gt\n        /* \"#utility.yul\":16697:16733   */\n      iszero\n      tag_466\n      jumpi\n        /* \"#utility.yul\":16713:16731   */\n      tag_467\n      tag_265\n      jump\t// in\n    tag_467:\n        /* \"#utility.yul\":16697:16733   */\n    tag_466:\n        /* \"#utility.yul\":16549:16740   */\n      swap3\n      swap2\n      pop\n      pop\n      jump\t// out\n        /* \"#utility.yul\":16746:16940   */\n    tag_148:\n        /* \"#utility.yul\":16786:16790   */\n      0x00\n        /* \"#utility.yul\":16806:16826   */\n      tag_469\n        /* \"#utility.yul\":16824:16825   */\n      dup3\n        /* \"#utility.yul\":16806:16826   */\n      tag_235\n      jump\t// in\n    tag_469:\n        /* \"#utility.yul\":16801:16826   */\n      swap2\n      pop\n        /* \"#utility.yul\":16840:16860   */\n      tag_470\n        /* \"#utility.yul\":16858:16859   */\n      dup4\n        /* \"#utility.yul\":16840:16860   */\n      tag_235\n      jump\t// in\n    tag_470:\n        /* \"#utility.yul\":16835:16860   */\n      swap3\n      pop\n        /* \"#utility.yul\":16884:16885   */\n      dup3\n        /* \"#utility.yul\":16881:16882   */\n      dup3\n        /* \"#utility.yul\":16877:16886   */\n      sub\n        /* \"#utility.yul\":16869:16886   */\n      swap1\n      pop\n        /* \"#utility.yul\":16908:16909   */\n      dup2\n        /* \"#utility.yul\":16902:16906   */\n      dup2\n        /* \"#utility.yul\":16899:16910   */\n      gt\n        /* \"#utility.yul\":16896:16933   */\n      iszero\n      tag_471\n      jumpi\n        /* \"#utility.yul\":16913:16931   */\n      tag_472\n      tag_265\n      jump\t// in\n    tag_472:\n        /* \"#utility.yul\":16896:16933   */\n    tag_471:\n        /* \"#utility.yul\":16746:16940   */\n      swap3\n      swap2\n      pop\n      pop\n      jump\t// out\n        /* \"#utility.yul\":16946:17278   */\n    tag_150:\n        /* \"#utility.yul\":17067:17071   */\n      0x00\n        /* \"#utility.yul\":17105:17107   */\n      0x40\n        /* \"#utility.yul\":17094:17103   */\n      dup3\n        /* \"#utility.yul\":17090:17108   */\n      add\n        /* \"#utility.yul\":17082:17108   */\n      swap1\n      pop\n        /* \"#utility.yul\":17118:17189   */\n      tag_474\n        /* \"#utility.yul\":17186:17187   */\n      0x00\n        /* \"#utility.yul\":17175:17184   */\n      dup4\n        /* \"#utility.yul\":17171:17188   */\n      add\n        /* \"#utility.yul\":17162:17168   */\n      dup6\n        /* \"#utility.yul\":17118:17189   */\n      tag_253\n      jump\t// in\n    tag_474:\n        /* \"#utility.yul\":17199:17271   */\n      tag_475\n        /* \"#utility.yul\":17267:17269   */\n      0x20\n        /* \"#utility.yul\":17256:17265   */\n      dup4\n        /* \"#utility.yul\":17252:17270   */\n      add\n        /* \"#utility.yul\":17243:17249   */\n      dup5\n        /* \"#utility.yul\":17199:17271   */\n      tag_236\n      jump\t// in\n    tag_475:\n        /* \"#utility.yul\":16946:17278   */\n      swap4\n      swap3\n      pop\n      pop\n      pop\n      jump\t// out\n        /* \"#utility.yul\":17284:17421   */\n    tag_280:\n        /* \"#utility.yul\":17338:17343   */\n      0x00\n        /* \"#utility.yul\":17369:17375   */\n      dup2\n        /* \"#utility.yul\":17363:17376   */\n      mload\n        /* \"#utility.yul\":17354:17376   */\n      swap1\n      pop\n        /* \"#utility.yul\":17385:17415   */\n      tag_477\n        /* \"#utility.yul\":17409:17414   */\n      dup2\n        /* \"#utility.yul\":17385:17415   */\n      tag_262\n      jump\t// in\n    tag_477:\n        /* \"#utility.yul\":17284:17421   */\n      swap3\n      swap2\n      pop\n      pop\n      jump\t// out\n        /* \"#utility.yul\":17427:17772   */\n    tag_158:\n        /* \"#utility.yul\":17494:17500   */\n      0x00\n        /* \"#utility.yul\":17543:17545   */\n      0x20\n        /* \"#utility.yul\":17531:17540   */\n      dup3\n        /* \"#utility.yul\":17522:17529   */\n      dup5\n        /* \"#utility.yul\":17518:17541   */\n      sub\n        /* \"#utility.yul\":17514:17546   */\n      slt\n        /* \"#utility.yul\":17511:17630   */\n      iszero\n      tag_479\n      jumpi\n        /* \"#utility.yul\":17549:17628   */\n      tag_480\n      tag_243\n      jump\t// in\n    tag_480:\n        /* \"#utility.yul\":17511:17630   */\n    tag_479:\n        /* \"#utility.yul\":17669:17670   */\n      0x00\n        /* \"#utility.yul\":17694:17755   */\n      tag_481\n        /* \"#utility.yul\":17747:17754   */\n      dup5\n        /* \"#utility.yul\":17738:17744   */\n      dup3\n        /* \"#utility.yul\":17727:17736   */\n      dup6\n        /* \"#utility.yul\":17723:17745   */\n      add\n        /* \"#utility.yul\":17694:17755   */\n      tag_280\n      jump\t// in\n    tag_481:\n        /* \"#utility.yul\":17684:17755   */\n      swap2\n      pop\n        /* \"#utility.yul\":17640:17765   */\n      pop\n        /* \"#utility.yul\":17427:17772   */\n      swap3\n      swap2\n      pop\n      pop\n      jump\t// out\n        /* \"#utility.yul\":17778:18331   */\n    tag_164:\n        /* \"#utility.yul\":17955:17959   */\n      0x00\n        /* \"#utility.yul\":17993:17996   */\n      0x80\n        /* \"#utility.yul\":17982:17991   */\n      dup3\n        /* \"#utility.yul\":17978:17997   */\n      add\n        /* \"#utility.yul\":17970:17997   */\n      swap1\n      pop\n        /* \"#utility.yul\":18007:18078   */\n      tag_483\n        /* \"#utility.yul\":18075:18076   */\n      0x00\n        /* \"#utility.yul\":18064:18073   */\n      dup4\n        /* \"#utility.yul\":18060:18077   */\n      add\n        /* \"#utility.yul\":18051:18057   */\n      dup8\n        /* \"#utility.yul\":18007:18078   */\n      tag_253\n      jump\t// in\n    tag_483:\n        /* \"#utility.yul\":18088:18160   */\n      tag_484\n        /* \"#utility.yul\":18156:18158   */\n      0x20\n        /* \"#utility.yul\":18145:18154   */\n      dup4\n        /* \"#utility.yul\":18141:18159   */\n      add\n        /* \"#utility.yul\":18132:18138   */\n      dup7\n        /* \"#utility.yul\":18088:18160   */\n      tag_236\n      jump\t// in\n    tag_484:\n        /* \"#utility.yul\":18170:18242   */\n      tag_485\n        /* \"#utility.yul\":18238:18240   */\n      0x40\n        /* \"#utility.yul\":18227:18236   */\n      dup4\n        /* \"#utility.yul\":18223:18241   */\n      add\n        /* \"#utility.yul\":18214:18220   */\n      dup6\n        /* \"#utility.yul\":18170:18242   */\n      tag_236\n      jump\t// in\n    tag_485:\n        /* \"#utility.yul\":18252:18324   */\n      tag_486\n        /* \"#utility.yul\":18320:18322   */\n      0x60\n        /* \"#utility.yul\":18309:18318   */\n      dup4\n        /* \"#utility.yul\":18305:18323   */\n      add\n        /* \"#utility.yul\":18296:18302   */\n      dup5\n        /* \"#utility.yul\":18252:18324   */\n      tag_236\n      jump\t// in\n    tag_486:\n        /* \"#utility.yul\":17778:18331   */\n      swap6\n      swap5\n      pop\n      pop\n      pop\n      pop\n      pop\n      jump\t// out\n        /* \"#utility.yul\":18337:18517   */\n    tag_185:\n        /* \"#utility.yul\":18385:18462   */\n      0x4e487b7100000000000000000000000000000000000000000000000000000000\n        /* \"#utility.yul\":18382:18383   */\n      0x00\n        /* \"#utility.yul\":18375:18463   */\n      mstore\n        /* \"#utility.yul\":18482:18486   */\n      0x32\n        /* \"#utility.yul\":18479:18480   */\n      0x04\n        /* \"#utility.yul\":18472:18487   */\n      mstore\n        /* \"#utility.yul\":18506:18510   */\n      0x24\n        /* \"#utility.yul\":18503:18504   */\n      0x00\n        /* \"#utility.yul\":18496:18511   */\n      revert\n\n    auxdata: 0xa264697066735822122088f43eb321e2b15c4fe40cedf61f22b7fd549b5668a1bce418c6f926916f5b7464736f6c63430008160033\n}\n",
				"bytecode": {
					"linkReferences": {},
					"object": "608060405234801562000010575f80fd5b506040516200231538038062002315833981810160405281019062000036919062000476565b835f73ffffffffffffffffffffffffffffffffffffffff168173ffffffffffffffffffffffffffffffffffffffff1603620000aa575f6040517f1e4fbdf7000000000000000000000000000000000000000000000000000000008152600401620000a1919062000515565b60405180910390fd5b620000bb81620001cf60201b60201c565b5082600a9081620000cd919062000767565b50600a60038190555061138860048190555069021e19e0c9bab24000006006819055508160015f6101000a81548173ffffffffffffffffffffffffffffffffffffffff021916908373ffffffffffffffffffffffffffffffffffffffff1602179055508060025f6101000a81548173ffffffffffffffffffffffffffffffffffffffff021916908373ffffffffffffffffffffffffffffffffffffffff1602179055506001600b5f8673ffffffffffffffffffffffffffffffffffffffff1673ffffffffffffffffffffffffffffffffffffffff1681526020019081526020015f205f6101000a81548160ff021916908315150217905550505050506200084b565b5f805f9054906101000a900473ffffffffffffffffffffffffffffffffffffffff169050815f806101000a81548173ffffffffffffffffffffffffffffffffffffffff021916908373ffffffffffffffffffffffffffffffffffffffff1602179055508173ffffffffffffffffffffffffffffffffffffffff168173ffffffffffffffffffffffffffffffffffffffff167f8be0079c531659141344cd1fd0a4f28419497f9722a3daafe3b4186f6b6457e060405160405180910390a35050565b5f604051905090565b5f80fd5b5f80fd5b5f73ffffffffffffffffffffffffffffffffffffffff82169050919050565b5f620002cc82620002a1565b9050919050565b620002de81620002c0565b8114620002e9575f80fd5b50565b5f81519050620002fc81620002d3565b92915050565b5f80fd5b5f80fd5b5f601f19601f8301169050919050565b7f4e487b71000000000000000000000000000000000000000000000000000000005f52604160045260245ffd5b62000352826200030a565b810181811067ffffffffffffffff821117156200037457620003736200031a565b5b80604052505050565b5f6200038862000290565b905062000396828262000347565b919050565b5f67ffffffffffffffff821115620003b857620003b76200031a565b5b620003c3826200030a565b9050602081019050919050565b5f5b83811015620003ef578082015181840152602081019050620003d2565b5f8484015250505050565b5f620004106200040a846200039b565b6200037d565b9050828152602081018484840111156200042f576200042e62000306565b5b6200043c848285620003d0565b509392505050565b5f82601f8301126200045b576200045a62000302565b5b81516200046d848260208601620003fa565b91505092915050565b5f805f806080858703121562000491576200049062000299565b5b5f620004a087828801620002ec565b945050602085015167ffffffffffffffff811115620004c457620004c36200029d565b5b620004d28782880162000444565b9350506040620004e587828801620002ec565b9250506060620004f887828801620002ec565b91505092959194509250565b6200050f81620002c0565b82525050565b5f6020820190506200052a5f83018462000504565b92915050565b5f81519050919050565b7f4e487b71000000000000000000000000000000000000000000000000000000005f52602260045260245ffd5b5f60028204905060018216806200057f57607f821691505b6020821081036200059557620005946200053a565b5b50919050565b5f819050815f5260205f209050919050565b5f6020601f8301049050919050565b5f82821b905092915050565b5f60088302620005f97fffffffffffffffffffffffffffffffffffffffffffffffffffffffffffffffff82620005bc565b620006058683620005bc565b95508019841693508086168417925050509392505050565b5f819050919050565b5f819050919050565b5f6200064f6200064962000643846200061d565b62000626565b6200061d565b9050919050565b5f819050919050565b6200066a836200062f565b62000682620006798262000656565b848454620005c8565b825550505050565b5f90565b620006986200068a565b620006a58184846200065f565b505050565b5b81811015620006cc57620006c05f826200068e565b600181019050620006ab565b5050565b601f8211156200071b57620006e5816200059b565b620006f084620005ad565b8101602085101562000700578190505b620007186200070f85620005ad565b830182620006aa565b50505b505050565b5f82821c905092915050565b5f6200073d5f198460080262000720565b1980831691505092915050565b5f6200075783836200072c565b9150826002028217905092915050565b620007728262000530565b67ffffffffffffffff8111156200078e576200078d6200031a565b5b6200079a825462000567565b620007a7828285620006d0565b5f60209050601f831160018114620007dd575f8415620007c8578287015190505b620007d485826200074a565b86555062000843565b601f198416620007ed866200059b565b5f5b828110156200081657848901518255600182019150602085019450602081019050620007ef565b8683101562000836578489015162000832601f8916826200072c565b8355505b6001600288020188555050505b505050505050565b611abc80620008595f395ff3fe608060405234801561000f575f80fd5b5060043610610140575f3560e01c80638bc7e8c4116100b6578063ac1e50251161007a578063ac1e502514610326578063c08e728614610342578063c4a9e8581461035e578063e1fefd421461037c578063f2fde38b1461039a578063fd918716146103b657610140565b80638bc7e8c4146102965780638da5cb5b146102b4578063945c147b146102d2578063966addc0146102ee5780639683cdc41461030a57610140565b806334ef077c1161010857806334ef077c146101ea57806334fcf4371461020657806367a5279314610222578063715018a61461024057806376ee947f1461024a5780637d91fb461461026657610140565b806306e0e582146101445780630ace9ca0146101625780630d461e6114610180578063258ba1ee146101b05780632c4e722e146101cc575b5f80fd5b61014c6103d4565b6040516101599190611062565b60405180910390f35b61016a6103da565b6040516101779190611105565b60405180910390f35b61019a60048036038101906101959190611160565b610466565b6040516101a79190611062565b60405180910390f35b6101ca60048036038101906101c591906111e5565b610544565b005b6101d46105d0565b6040516101e19190611062565b60405180910390f35b61020460048036038101906101ff9190611223565b6105d6565b005b610220600480360381019061021b9190611160565b6109dd565b005b61022a6109ef565b6040516102379190611062565b60405180910390f35b6102486109f5565b005b610264600480360381019061025f9190611160565b610a08565b005b610280600480360381019061027b9190611261565b610a1a565b60405161028d91906112a6565b60405180910390f35b61029e610a37565b6040516102ab9190611062565b60405180910390f35b6102bc610a3d565b6040516102c991906112ce565b60405180910390f35b6102ec60048036038101906102e79190611451565b610a64565b005b61030860048036038101906103039190611223565b610af7565b005b610324600480360381019061031f9190611261565b610c6f565b005b610340600480360381019061033b9190611160565b610e2e565b005b61035c60048036038101906103579190611160565b610e40565b005b610366610e65565b6040516103739190611062565b60405180910390f35b610384610e6b565b6040516103919190611062565b60405180910390f35b6103b460048036038101906103af9190611261565b610e71565b005b6103be610ef5565b6040516103cb9190611062565b60405180910390f35b60075481565b600a80546103e7906114d8565b80601f0160208091040260200160405190810160405280929190818152602001828054610413906114d8565b801561045e5780601f106104355761010080835404028352916020019161045e565b820191905f5260205f20905b81548152906001019060200180831161044157829003601f168201915b505050505081565b5f80670de0b6b3a764000060045461047e9190611535565b60015f9054906101000a900473ffffffffffffffffffffffffffffffffffffffff1673ffffffffffffffffffffffffffffffffffffffff1663313ce5676040518163ffffffff1660e01b8152600401602060405180830381865afa1580156104e8573d5f803e3d5ffd5b505050506040513d601f19601f8201168201806040525081019061050c91906115ac565b600a6105189190611706565b6001856105259190611535565b61052f9190611535565b610539919061177d565b905080915050919050565b61054c610efb565b8160015f6101000a81548173ffffffffffffffffffffffffffffffffffffffff021916908373ffffffffffffffffffffffffffffffffffffffff1602179055508060025f6101000a81548173ffffffffffffffffffffffffffffffffffffffff021916908373ffffffffffffffffffffffffffffffffffffffff1602179055505050565b60045481565b60011515600b5f3373ffffffffffffffffffffffffffffffffffffffff1673ffffffffffffffffffffffffffffffffffffffff1681526020019081526020015f205f9054906101000a900460ff16151514610666576040517f08c379a000000000000000000000000000000000000000000000000000000000815260040161065d906117f7565b60405180910390fd5b8060025f9054906101000a900473ffffffffffffffffffffffffffffffffffffffff1673ffffffffffffffffffffffffffffffffffffffff166370a08231846040518263ffffffff1660e01b81526004016106c191906112ce565b602060405180830381865afa1580156106dc573d5f803e3d5ffd5b505050506040513d601f19601f820116820180604052508101906107009190611829565b1015610741576040517f08c379a00000000000000000000000000000000000000000000000000000000081526004016107389061189e565b60405180910390fd5b600654811015610786576040517f08c379a000000000000000000000000000000000000000000000000000000000815260040161077d9061192c565b60405180910390fd5b5f61079082610466565b90508060085f8282546107a3919061194a565b925050819055505f6064600554836107bb9190611535565b6107c5919061177d565b90505f81836107d4919061197d565b905060025f9054906101000a900473ffffffffffffffffffffffffffffffffffffffff1673ffffffffffffffffffffffffffffffffffffffff16639dc29fac86866040518363ffffffff1660e01b81526004016108329291906119b0565b5f604051808303815f87803b158015610849575f80fd5b505af115801561085b573d5f803e3d5ffd5b5050505060015f9054906101000a900473ffffffffffffffffffffffffffffffffffffffff1673ffffffffffffffffffffffffffffffffffffffff1663a9059cbb86836040518363ffffffff1660e01b81526004016108bb9291906119b0565b6020604051808303815f875af11580156108d7573d5f803e3d5ffd5b505050506040513d601f19601f820116820180604052508101906108fb91906119eb565b5060015f9054906101000a900473ffffffffffffffffffffffffffffffffffffffff1673ffffffffffffffffffffffffffffffffffffffff1663a9059cbb33846040518363ffffffff1660e01b81526004016109589291906119b0565b6020604051808303815f875af1158015610974573d5f803e3d5ffd5b505050506040513d601f19601f8201168201806040525081019061099891906119eb565b507fc9ec92487a51a4894b66e92fa35d58109271421843b717e764249309f96ab9b5858583856040516109ce9493929190611a16565b60405180910390a15050505050565b6109e5610efb565b8060048190555050565b60035481565b6109fd610efb565b610a065f610f82565b565b610a10610efb565b8060038190555050565b600b602052805f5260405f205f915054906101000a900460ff1681565b60055481565b5f805f9054906101000a900473ffffffffffffffffffffffffffffffffffffffff16905090565b610a6c610efb565b5f5b8251811015610af25781600b5f858481518110610a8e57610a8d611a59565b5b602002602001015173ffffffffffffffffffffffffffffffffffffffff1673ffffffffffffffffffffffffffffffffffffffff1681526020019081526020015f205f6101000a81548160ff0219169083151502179055508080600101915050610a6e565b505050565b60011515600b5f3373ffffffffffffffffffffffffffffffffffffffff1673ffffffffffffffffffffffffffffffffffffffff1681526020019081526020015f205f9054906101000a900460ff16151514610b87576040517f08c379a0000000000000000000000000000000000000000000000000000000008152600401610b7e906117f7565b60405180910390fd5b600654811015610b95575f80fd5b60025f9054906101000a900473ffffffffffffffffffffffffffffffffffffffff1673ffffffffffffffffffffffffffffffffffffffff1663a9059cbb83836040518363ffffffff1660e01b8152600401610bf19291906119b0565b6020604051808303815f875af1158015610c0d573d5f803e3d5ffd5b505050506040513d601f19601f82011682018060405250810190610c3191906119eb565b507fba953728785de35be3827ee7a7a7867a8472947562602939440e6c0bdbf4725e8282604051610c639291906119b0565b60405180910390a15050565b610c77610efb565b5f60015f9054906101000a900473ffffffffffffffffffffffffffffffffffffffff1673ffffffffffffffffffffffffffffffffffffffff166370a08231306040518263ffffffff1660e01b8152600401610cd291906112ce565b602060405180830381865afa158015610ced573d5f803e3d5ffd5b505050506040513d601f19601f82011682018060405250810190610d119190611829565b90505f60075460095460085484610d28919061194a565b610d32919061194a565b610d3c919061197d565b90508060075f828254610d4f919061194a565b925050819055505f606460035483610d679190611535565b610d71919061177d565b90508060095f828254610d84919061194a565b9250508190555060015f9054906101000a900473ffffffffffffffffffffffffffffffffffffffff1673ffffffffffffffffffffffffffffffffffffffff1663a9059cbb85836040518363ffffffff1660e01b8152600401610de79291906119b0565b6020604051808303815f875af1158015610e03573d5f803e3d5ffd5b505050506040513d601f19601f82011682018060405250810190610e2791906119eb565b5050505050565b610e36610efb565b8060058190555050565b610e48610efb565b670de0b6b3a764000081610e5c9190611535565b60068190555050565b60095481565b60065481565b610e79610efb565b5f73ffffffffffffffffffffffffffffffffffffffff168173ffffffffffffffffffffffffffffffffffffffff1603610ee9575f6040517f1e4fbdf7000000000000000000000000000000000000000000000000000000008152600401610ee091906112ce565b60405180910390fd5b610ef281610f82565b50565b60085481565b610f03611043565b73ffffffffffffffffffffffffffffffffffffffff16610f21610a3d565b73ffffffffffffffffffffffffffffffffffffffff1614610f8057610f44611043565b6040517f118cdaa7000000000000000000000000000000000000000000000000000000008152600401610f7791906112ce565b60405180910390fd5b565b5f805f9054906101000a900473ffffffffffffffffffffffffffffffffffffffff169050815f806101000a81548173ffffffffffffffffffffffffffffffffffffffff021916908373ffffffffffffffffffffffffffffffffffffffff1602179055508173ffffffffffffffffffffffffffffffffffffffff168173ffffffffffffffffffffffffffffffffffffffff167f8be0079c531659141344cd1fd0a4f28419497f9722a3daafe3b4186f6b6457e060405160405180910390a35050565b5f33905090565b5f819050919050565b61105c8161104a565b82525050565b5f6020820190506110755f830184611053565b92915050565b5f81519050919050565b5f82825260208201905092915050565b5f5b838110156110b2578082015181840152602081019050611097565b5f8484015250505050565b5f601f19601f8301169050919050565b5f6110d78261107b565b6110e18185611085565b93506110f1818560208601611095565b6110fa816110bd565b840191505092915050565b5f6020820190508181035f83015261111d81846110cd565b905092915050565b5f604051905090565b5f80fd5b5f80fd5b61113f8161104a565b8114611149575f80fd5b50565b5f8135905061115a81611136565b92915050565b5f602082840312156111755761117461112e565b5b5f6111828482850161114c565b91505092915050565b5f73ffffffffffffffffffffffffffffffffffffffff82169050919050565b5f6111b48261118b565b9050919050565b6111c4816111aa565b81146111ce575f80fd5b50565b5f813590506111df816111bb565b92915050565b5f80604083850312156111fb576111fa61112e565b5b5f611208858286016111d1565b9250506020611219858286016111d1565b9150509250929050565b5f80604083850312156112395761123861112e565b5b5f611246858286016111d1565b92505060206112578582860161114c565b9150509250929050565b5f602082840312156112765761127561112e565b5b5f611283848285016111d1565b91505092915050565b5f8115159050919050565b6112a08161128c565b82525050565b5f6020820190506112b95f830184611297565b92915050565b6112c8816111aa565b82525050565b5f6020820190506112e15f8301846112bf565b92915050565b5f80fd5b7f4e487b71000000000000000000000000000000000000000000000000000000005f52604160045260245ffd5b611321826110bd565b810181811067ffffffffffffffff821117156113405761133f6112eb565b5b80604052505050565b5f611352611125565b905061135e8282611318565b919050565b5f67ffffffffffffffff82111561137d5761137c6112eb565b5b602082029050602081019050919050565b5f80fd5b5f6113a461139f84611363565b611349565b905080838252602082019050602084028301858111156113c7576113c661138e565b5b835b818110156113f057806113dc88826111d1565b8452602084019350506020810190506113c9565b5050509392505050565b5f82601f83011261140e5761140d6112e7565b5b813561141e848260208601611392565b91505092915050565b6114308161128c565b811461143a575f80fd5b50565b5f8135905061144b81611427565b92915050565b5f80604083850312156114675761146661112e565b5b5f83013567ffffffffffffffff81111561148457611483611132565b5b611490858286016113fa565b92505060206114a18582860161143d565b9150509250929050565b7f4e487b71000000000000000000000000000000000000000000000000000000005f52602260045260245ffd5b5f60028204905060018216806114ef57607f821691505b602082108103611502576115016114ab565b5b50919050565b7f4e487b71000000000000000000000000000000000000000000000000000000005f52601160045260245ffd5b5f61153f8261104a565b915061154a8361104a565b92508282026115588161104a565b9150828204841483151761156f5761156e611508565b5b5092915050565b5f60ff82169050919050565b61158b81611576565b8114611595575f80fd5b50565b5f815190506115a681611582565b92915050565b5f602082840312156115c1576115c061112e565b5b5f6115ce84828501611598565b91505092915050565b5f8160011c9050919050565b5f808291508390505b600185111561162c5780860481111561160857611607611508565b5b60018516156116175780820291505b8081029050611625856115d7565b94506115ec565b94509492505050565b5f8261164457600190506116ff565b81611651575f90506116ff565b81600181146116675760028114611671576116a0565b60019150506116ff565b60ff84111561168357611682611508565b5b8360020a91508482111561169a57611699611508565b5b506116ff565b5060208310610133831016604e8410600b84101617156116d55782820a9050838111156116d0576116cf611508565b5b6116ff565b6116e284848460016115e3565b925090508184048111156116f9576116f8611508565b5b81810290505b9392505050565b5f6117108261104a565b915061171b83611576565b92506117487fffffffffffffffffffffffffffffffffffffffffffffffffffffffffffffffff8484611635565b905092915050565b7f4e487b71000000000000000000000000000000000000000000000000000000005f52601260045260245ffd5b5f6117878261104a565b91506117928361104a565b9250826117a2576117a1611750565b5b828204905092915050565b7f796f7520617265206e6f74207065726d697474656400000000000000000000005f82015250565b5f6117e1601583611085565b91506117ec826117ad565b602082019050919050565b5f6020820190508181035f83015261180e816117d5565b9050919050565b5f8151905061182381611136565b92915050565b5f6020828403121561183e5761183d61112e565b5b5f61184b84828501611815565b91505092915050565b7f6e6f7420656e6f75676820706f696e74730000000000000000000000000000005f82015250565b5f611888601183611085565b915061189382611854565b602082019050919050565b5f6020820190508181035f8301526118b58161187c565b9050919050565b7f706f696e747320746f2073776170206c657373207468616e206d696e706f696e5f8201527f7473000000000000000000000000000000000000000000000000000000000000602082015250565b5f611916602283611085565b9150611921826118bc565b604082019050919050565b5f6020820190508181035f8301526119438161190a565b9050919050565b5f6119548261104a565b915061195f8361104a565b925082820190508082111561197757611976611508565b5b92915050565b5f6119878261104a565b91506119928361104a565b92508282039050818111156119aa576119a9611508565b5b92915050565b5f6040820190506119c35f8301856112bf565b6119d06020830184611053565b9392505050565b5f815190506119e581611427565b92915050565b5f60208284031215611a00576119ff61112e565b5b5f611a0d848285016119d7565b91505092915050565b5f608082019050611a295f8301876112bf565b611a366020830186611053565b611a436040830185611053565b611a506060830184611053565b95945050505050565b7f4e487b71000000000000000000000000000000000000000000000000000000005f52603260045260245ffdfea264697066735822122088f43eb321e2b15c4fe40cedf61f22b7fd549b5668a1bce418c6f926916f5b7464736f6c63430008160033",
					"opcodes": "PUSH1 0x80 PUSH1 0x40 MSTORE CALLVALUE DUP1 ISZERO PUSH3 0x10 JUMPI PUSH0 DUP1 REVERT JUMPDEST POP PUSH1 0x40 MLOAD PUSH3 0x2315 CODESIZE SUB DUP1 PUSH3 0x2315 DUP4 CODECOPY DUP2 DUP2 ADD PUSH1 0x40 MSTORE DUP2 ADD SWAP1 PUSH3 0x36 SWAP2 SWAP1 PUSH3 0x476 JUMP JUMPDEST DUP4 PUSH0 PUSH20 0xFFFFFFFFFFFFFFFFFFFFFFFFFFFFFFFFFFFFFFFF AND DUP2 PUSH20 0xFFFFFFFFFFFFFFFFFFFFFFFFFFFFFFFFFFFFFFFF AND SUB PUSH3 0xAA JUMPI PUSH0 PUSH1 0x40 MLOAD PUSH32 0x1E4FBDF700000000000000000000000000000000000000000000000000000000 DUP2 MSTORE PUSH1 0x4 ADD PUSH3 0xA1 SWAP2 SWAP1 PUSH3 0x515 JUMP JUMPDEST PUSH1 0x40 MLOAD DUP1 SWAP2 SUB SWAP1 REVERT JUMPDEST PUSH3 0xBB DUP2 PUSH3 0x1CF PUSH1 0x20 SHL PUSH1 0x20 SHR JUMP JUMPDEST POP DUP3 PUSH1 0xA SWAP1 DUP2 PUSH3 0xCD SWAP2 SWAP1 PUSH3 0x767 JUMP JUMPDEST POP PUSH1 0xA PUSH1 0x3 DUP2 SWAP1 SSTORE POP PUSH2 0x1388 PUSH1 0x4 DUP2 SWAP1 SSTORE POP PUSH10 0x21E19E0C9BAB2400000 PUSH1 0x6 DUP2 SWAP1 SSTORE POP DUP2 PUSH1 0x1 PUSH0 PUSH2 0x100 EXP DUP2 SLOAD DUP2 PUSH20 0xFFFFFFFFFFFFFFFFFFFFFFFFFFFFFFFFFFFFFFFF MUL NOT AND SWAP1 DUP4 PUSH20 0xFFFFFFFFFFFFFFFFFFFFFFFFFFFFFFFFFFFFFFFF AND MUL OR SWAP1 SSTORE POP DUP1 PUSH1 0x2 PUSH0 PUSH2 0x100 EXP DUP2 SLOAD DUP2 PUSH20 0xFFFFFFFFFFFFFFFFFFFFFFFFFFFFFFFFFFFFFFFF MUL NOT AND SWAP1 DUP4 PUSH20 0xFFFFFFFFFFFFFFFFFFFFFFFFFFFFFFFFFFFFFFFF AND MUL OR SWAP1 SSTORE POP PUSH1 0x1 PUSH1 0xB PUSH0 DUP7 PUSH20 0xFFFFFFFFFFFFFFFFFFFFFFFFFFFFFFFFFFFFFFFF AND PUSH20 0xFFFFFFFFFFFFFFFFFFFFFFFFFFFFFFFFFFFFFFFF AND DUP2 MSTORE PUSH1 0x20 ADD SWAP1 DUP2 MSTORE PUSH1 0x20 ADD PUSH0 KECCAK256 PUSH0 PUSH2 0x100 EXP DUP2 SLOAD DUP2 PUSH1 0xFF MUL NOT AND SWAP1 DUP4 ISZERO ISZERO MUL OR SWAP1 SSTORE POP POP POP POP POP PUSH3 0x84B JUMP JUMPDEST PUSH0 DUP1 PUSH0 SWAP1 SLOAD SWAP1 PUSH2 0x100 EXP SWAP1 DIV PUSH20 0xFFFFFFFFFFFFFFFFFFFFFFFFFFFFFFFFFFFFFFFF AND SWAP1 POP DUP2 PUSH0 DUP1 PUSH2 0x100 EXP DUP2 SLOAD DUP2 PUSH20 0xFFFFFFFFFFFFFFFFFFFFFFFFFFFFFFFFFFFFFFFF MUL NOT AND SWAP1 DUP4 PUSH20 0xFFFFFFFFFFFFFFFFFFFFFFFFFFFFFFFFFFFFFFFF AND MUL OR SWAP1 SSTORE POP DUP2 PUSH20 0xFFFFFFFFFFFFFFFFFFFFFFFFFFFFFFFFFFFFFFFF AND DUP2 PUSH20 0xFFFFFFFFFFFFFFFFFFFFFFFFFFFFFFFFFFFFFFFF AND PUSH32 0x8BE0079C531659141344CD1FD0A4F28419497F9722A3DAAFE3B4186F6B6457E0 PUSH1 0x40 MLOAD PUSH1 0x40 MLOAD DUP1 SWAP2 SUB SWAP1 LOG3 POP POP JUMP JUMPDEST PUSH0 PUSH1 0x40 MLOAD SWAP1 POP SWAP1 JUMP JUMPDEST PUSH0 DUP1 REVERT JUMPDEST PUSH0 DUP1 REVERT JUMPDEST PUSH0 PUSH20 0xFFFFFFFFFFFFFFFFFFFFFFFFFFFFFFFFFFFFFFFF DUP3 AND SWAP1 POP SWAP2 SWAP1 POP JUMP JUMPDEST PUSH0 PUSH3 0x2CC DUP3 PUSH3 0x2A1 JUMP JUMPDEST SWAP1 POP SWAP2 SWAP1 POP JUMP JUMPDEST PUSH3 0x2DE DUP2 PUSH3 0x2C0 JUMP JUMPDEST DUP2 EQ PUSH3 0x2E9 JUMPI PUSH0 DUP1 REVERT JUMPDEST POP JUMP JUMPDEST PUSH0 DUP2 MLOAD SWAP1 POP PUSH3 0x2FC DUP2 PUSH3 0x2D3 JUMP JUMPDEST SWAP3 SWAP2 POP POP JUMP JUMPDEST PUSH0 DUP1 REVERT JUMPDEST PUSH0 DUP1 REVERT JUMPDEST PUSH0 PUSH1 0x1F NOT PUSH1 0x1F DUP4 ADD AND SWAP1 POP SWAP2 SWAP1 POP JUMP JUMPDEST PUSH32 0x4E487B7100000000000000000000000000000000000000000000000000000000 PUSH0 MSTORE PUSH1 0x41 PUSH1 0x4 MSTORE PUSH1 0x24 PUSH0 REVERT JUMPDEST PUSH3 0x352 DUP3 PUSH3 0x30A JUMP JUMPDEST DUP2 ADD DUP2 DUP2 LT PUSH8 0xFFFFFFFFFFFFFFFF DUP3 GT OR ISZERO PUSH3 0x374 JUMPI PUSH3 0x373 PUSH3 0x31A JUMP JUMPDEST JUMPDEST DUP1 PUSH1 0x40 MSTORE POP POP POP JUMP JUMPDEST PUSH0 PUSH3 0x388 PUSH3 0x290 JUMP JUMPDEST SWAP1 POP PUSH3 0x396 DUP3 DUP3 PUSH3 0x347 JUMP JUMPDEST SWAP2 SWAP1 POP JUMP JUMPDEST PUSH0 PUSH8 0xFFFFFFFFFFFFFFFF DUP3 GT ISZERO PUSH3 0x3B8 JUMPI PUSH3 0x3B7 PUSH3 0x31A JUMP JUMPDEST JUMPDEST PUSH3 0x3C3 DUP3 PUSH3 0x30A JUMP JUMPDEST SWAP1 POP PUSH1 0x20 DUP2 ADD SWAP1 POP SWAP2 SWAP1 POP JUMP JUMPDEST PUSH0 JUMPDEST DUP4 DUP2 LT ISZERO PUSH3 0x3EF JUMPI DUP1 DUP3 ADD MLOAD DUP2 DUP5 ADD MSTORE PUSH1 0x20 DUP2 ADD SWAP1 POP PUSH3 0x3D2 JUMP JUMPDEST PUSH0 DUP5 DUP5 ADD MSTORE POP POP POP POP JUMP JUMPDEST PUSH0 PUSH3 0x410 PUSH3 0x40A DUP5 PUSH3 0x39B JUMP JUMPDEST PUSH3 0x37D JUMP JUMPDEST SWAP1 POP DUP3 DUP2 MSTORE PUSH1 0x20 DUP2 ADD DUP5 DUP5 DUP5 ADD GT ISZERO PUSH3 0x42F JUMPI PUSH3 0x42E PUSH3 0x306 JUMP JUMPDEST JUMPDEST PUSH3 0x43C DUP5 DUP3 DUP6 PUSH3 0x3D0 JUMP JUMPDEST POP SWAP4 SWAP3 POP POP POP JUMP JUMPDEST PUSH0 DUP3 PUSH1 0x1F DUP4 ADD SLT PUSH3 0x45B JUMPI PUSH3 0x45A PUSH3 0x302 JUMP JUMPDEST JUMPDEST DUP2 MLOAD PUSH3 0x46D DUP5 DUP3 PUSH1 0x20 DUP7 ADD PUSH3 0x3FA JUMP JUMPDEST SWAP2 POP POP SWAP3 SWAP2 POP POP JUMP JUMPDEST PUSH0 DUP1 PUSH0 DUP1 PUSH1 0x80 DUP6 DUP8 SUB SLT ISZERO PUSH3 0x491 JUMPI PUSH3 0x490 PUSH3 0x299 JUMP JUMPDEST JUMPDEST PUSH0 PUSH3 0x4A0 DUP8 DUP3 DUP9 ADD PUSH3 0x2EC JUMP JUMPDEST SWAP5 POP POP PUSH1 0x20 DUP6 ADD MLOAD PUSH8 0xFFFFFFFFFFFFFFFF DUP2 GT ISZERO PUSH3 0x4C4 JUMPI PUSH3 0x4C3 PUSH3 0x29D JUMP JUMPDEST JUMPDEST PUSH3 0x4D2 DUP8 DUP3 DUP9 ADD PUSH3 0x444 JUMP JUMPDEST SWAP4 POP POP PUSH1 0x40 PUSH3 0x4E5 DUP8 DUP3 DUP9 ADD PUSH3 0x2EC JUMP JUMPDEST SWAP3 POP POP PUSH1 0x60 PUSH3 0x4F8 DUP8 DUP3 DUP9 ADD PUSH3 0x2EC JUMP JUMPDEST SWAP2 POP POP SWAP3 SWAP6 SWAP2 SWAP5 POP SWAP3 POP JUMP JUMPDEST PUSH3 0x50F DUP2 PUSH3 0x2C0 JUMP JUMPDEST DUP3 MSTORE POP POP JUMP JUMPDEST PUSH0 PUSH1 0x20 DUP3 ADD SWAP1 POP PUSH3 0x52A PUSH0 DUP4 ADD DUP5 PUSH3 0x504 JUMP JUMPDEST SWAP3 SWAP2 POP POP JUMP JUMPDEST PUSH0 DUP2 MLOAD SWAP1 POP SWAP2 SWAP1 POP JUMP JUMPDEST PUSH32 0x4E487B7100000000000000000000000000000000000000000000000000000000 PUSH0 MSTORE PUSH1 0x22 PUSH1 0x4 MSTORE PUSH1 0x24 PUSH0 REVERT JUMPDEST PUSH0 PUSH1 0x2 DUP3 DIV SWAP1 POP PUSH1 0x1 DUP3 AND DUP1 PUSH3 0x57F JUMPI PUSH1 0x7F DUP3 AND SWAP2 POP JUMPDEST PUSH1 0x20 DUP3 LT DUP2 SUB PUSH3 0x595 JUMPI PUSH3 0x594 PUSH3 0x53A JUMP JUMPDEST JUMPDEST POP SWAP2 SWAP1 POP JUMP JUMPDEST PUSH0 DUP2 SWAP1 POP DUP2 PUSH0 MSTORE PUSH1 0x20 PUSH0 KECCAK256 SWAP1 POP SWAP2 SWAP1 POP JUMP JUMPDEST PUSH0 PUSH1 0x20 PUSH1 0x1F DUP4 ADD DIV SWAP1 POP SWAP2 SWAP1 POP JUMP JUMPDEST PUSH0 DUP3 DUP3 SHL SWAP1 POP SWAP3 SWAP2 POP POP JUMP JUMPDEST PUSH0 PUSH1 0x8 DUP4 MUL PUSH3 0x5F9 PUSH32 0xFFFFFFFFFFFFFFFFFFFFFFFFFFFFFFFFFFFFFFFFFFFFFFFFFFFFFFFFFFFFFFFF DUP3 PUSH3 0x5BC JUMP JUMPDEST PUSH3 0x605 DUP7 DUP4 PUSH3 0x5BC JUMP JUMPDEST SWAP6 POP DUP1 NOT DUP5 AND SWAP4 POP DUP1 DUP7 AND DUP5 OR SWAP3 POP POP POP SWAP4 SWAP3 POP POP POP JUMP JUMPDEST PUSH0 DUP2 SWAP1 POP SWAP2 SWAP1 POP JUMP JUMPDEST PUSH0 DUP2 SWAP1 POP SWAP2 SWAP1 POP JUMP JUMPDEST PUSH0 PUSH3 0x64F PUSH3 0x649 PUSH3 0x643 DUP5 PUSH3 0x61D JUMP JUMPDEST PUSH3 0x626 JUMP JUMPDEST PUSH3 0x61D JUMP JUMPDEST SWAP1 POP SWAP2 SWAP1 POP JUMP JUMPDEST PUSH0 DUP2 SWAP1 POP SWAP2 SWAP1 POP JUMP JUMPDEST PUSH3 0x66A DUP4 PUSH3 0x62F JUMP JUMPDEST PUSH3 0x682 PUSH3 0x679 DUP3 PUSH3 0x656 JUMP JUMPDEST DUP5 DUP5 SLOAD PUSH3 0x5C8 JUMP JUMPDEST DUP3 SSTORE POP POP POP POP JUMP JUMPDEST PUSH0 SWAP1 JUMP JUMPDEST PUSH3 0x698 PUSH3 0x68A JUMP JUMPDEST PUSH3 0x6A5 DUP2 DUP5 DUP5 PUSH3 0x65F JUMP JUMPDEST POP POP POP JUMP JUMPDEST JUMPDEST DUP2 DUP2 LT ISZERO PUSH3 0x6CC JUMPI PUSH3 0x6C0 PUSH0 DUP3 PUSH3 0x68E JUMP JUMPDEST PUSH1 0x1 DUP2 ADD SWAP1 POP PUSH3 0x6AB JUMP JUMPDEST POP POP JUMP JUMPDEST PUSH1 0x1F DUP3 GT ISZERO PUSH3 0x71B JUMPI PUSH3 0x6E5 DUP2 PUSH3 0x59B JUMP JUMPDEST PUSH3 0x6F0 DUP5 PUSH3 0x5AD JUMP JUMPDEST DUP2 ADD PUSH1 0x20 DUP6 LT ISZERO PUSH3 0x700 JUMPI DUP2 SWAP1 POP JUMPDEST PUSH3 0x718 PUSH3 0x70F DUP6 PUSH3 0x5AD JUMP JUMPDEST DUP4 ADD DUP3 PUSH3 0x6AA JUMP JUMPDEST POP POP JUMPDEST POP POP POP JUMP JUMPDEST PUSH0 DUP3 DUP3 SHR SWAP1 POP SWAP3 SWAP2 POP POP JUMP JUMPDEST PUSH0 PUSH3 0x73D PUSH0 NOT DUP5 PUSH1 0x8 MUL PUSH3 0x720 JUMP JUMPDEST NOT DUP1 DUP4 AND SWAP2 POP POP SWAP3 SWAP2 POP POP JUMP JUMPDEST PUSH0 PUSH3 0x757 DUP4 DUP4 PUSH3 0x72C JUMP JUMPDEST SWAP2 POP DUP3 PUSH1 0x2 MUL DUP3 OR SWAP1 POP SWAP3 SWAP2 POP POP JUMP JUMPDEST PUSH3 0x772 DUP3 PUSH3 0x530 JUMP JUMPDEST PUSH8 0xFFFFFFFFFFFFFFFF DUP2 GT ISZERO PUSH3 0x78E JUMPI PUSH3 0x78D PUSH3 0x31A JUMP JUMPDEST JUMPDEST PUSH3 0x79A DUP3 SLOAD PUSH3 0x567 JUMP JUMPDEST PUSH3 0x7A7 DUP3 DUP3 DUP6 PUSH3 0x6D0 JUMP JUMPDEST PUSH0 PUSH1 0x20 SWAP1 POP PUSH1 0x1F DUP4 GT PUSH1 0x1 DUP2 EQ PUSH3 0x7DD JUMPI PUSH0 DUP5 ISZERO PUSH3 0x7C8 JUMPI DUP3 DUP8 ADD MLOAD SWAP1 POP JUMPDEST PUSH3 0x7D4 DUP6 DUP3 PUSH3 0x74A JUMP JUMPDEST DUP7 SSTORE POP PUSH3 0x843 JUMP JUMPDEST PUSH1 0x1F NOT DUP5 AND PUSH3 0x7ED DUP7 PUSH3 0x59B JUMP JUMPDEST PUSH0 JUMPDEST DUP3 DUP2 LT ISZERO PUSH3 0x816 JUMPI DUP5 DUP10 ADD MLOAD DUP3 SSTORE PUSH1 0x1 DUP3 ADD SWAP2 POP PUSH1 0x20 DUP6 ADD SWAP5 POP PUSH1 0x20 DUP2 ADD SWAP1 POP PUSH3 0x7EF JUMP JUMPDEST DUP7 DUP4 LT ISZERO PUSH3 0x836 JUMPI DUP5 DUP10 ADD MLOAD PUSH3 0x832 PUSH1 0x1F DUP10 AND DUP3 PUSH3 0x72C JUMP JUMPDEST DUP4 SSTORE POP JUMPDEST PUSH1 0x1 PUSH1 0x2 DUP9 MUL ADD DUP9 SSTORE POP POP POP JUMPDEST POP POP POP POP POP POP JUMP JUMPDEST PUSH2 0x1ABC DUP1 PUSH3 0x859 PUSH0 CODECOPY PUSH0 RETURN INVALID PUSH1 0x80 PUSH1 0x40 MSTORE CALLVALUE DUP1 ISZERO PUSH2 0xF JUMPI PUSH0 DUP1 REVERT JUMPDEST POP PUSH1 0x4 CALLDATASIZE LT PUSH2 0x140 JUMPI PUSH0 CALLDATALOAD PUSH1 0xE0 SHR DUP1 PUSH4 0x8BC7E8C4 GT PUSH2 0xB6 JUMPI DUP1 PUSH4 0xAC1E5025 GT PUSH2 0x7A JUMPI DUP1 PUSH4 0xAC1E5025 EQ PUSH2 0x326 JUMPI DUP1 PUSH4 0xC08E7286 EQ PUSH2 0x342 JUMPI DUP1 PUSH4 0xC4A9E858 EQ PUSH2 0x35E JUMPI DUP1 PUSH4 0xE1FEFD42 EQ PUSH2 0x37C JUMPI DUP1 PUSH4 0xF2FDE38B EQ PUSH2 0x39A JUMPI DUP1 PUSH4 0xFD918716 EQ PUSH2 0x3B6 JUMPI PUSH2 0x140 JUMP JUMPDEST DUP1 PUSH4 0x8BC7E8C4 EQ PUSH2 0x296 JUMPI DUP1 PUSH4 0x8DA5CB5B EQ PUSH2 0x2B4 JUMPI DUP1 PUSH4 0x945C147B EQ PUSH2 0x2D2 JUMPI DUP1 PUSH4 0x966ADDC0 EQ PUSH2 0x2EE JUMPI DUP1 PUSH4 0x9683CDC4 EQ PUSH2 0x30A JUMPI PUSH2 0x140 JUMP JUMPDEST DUP1 PUSH4 0x34EF077C GT PUSH2 0x108 JUMPI DUP1 PUSH4 0x34EF077C EQ PUSH2 0x1EA JUMPI DUP1 PUSH4 0x34FCF437 EQ PUSH2 0x206 JUMPI DUP1 PUSH4 0x67A52793 EQ PUSH2 0x222 JUMPI DUP1 PUSH4 0x715018A6 EQ PUSH2 0x240 JUMPI DUP1 PUSH4 0x76EE947F EQ PUSH2 0x24A JUMPI DUP1 PUSH4 0x7D91FB46 EQ PUSH2 0x266 JUMPI PUSH2 0x140 JUMP JUMPDEST DUP1 PUSH4 0x6E0E582 EQ PUSH2 0x144 JUMPI DUP1 PUSH4 0xACE9CA0 EQ PUSH2 0x162 JUMPI DUP1 PUSH4 0xD461E61 EQ PUSH2 0x180 JUMPI DUP1 PUSH4 0x258BA1EE EQ PUSH2 0x1B0 JUMPI DUP1 PUSH4 0x2C4E722E EQ PUSH2 0x1CC JUMPI JUMPDEST PUSH0 DUP1 REVERT JUMPDEST PUSH2 0x14C PUSH2 0x3D4 JUMP JUMPDEST PUSH1 0x40 MLOAD PUSH2 0x159 SWAP2 SWAP1 PUSH2 0x1062 JUMP JUMPDEST PUSH1 0x40 MLOAD DUP1 SWAP2 SUB SWAP1 RETURN JUMPDEST PUSH2 0x16A PUSH2 0x3DA JUMP JUMPDEST PUSH1 0x40 MLOAD PUSH2 0x177 SWAP2 SWAP1 PUSH2 0x1105 JUMP JUMPDEST PUSH1 0x40 MLOAD DUP1 SWAP2 SUB SWAP1 RETURN JUMPDEST PUSH2 0x19A PUSH1 0x4 DUP1 CALLDATASIZE SUB DUP2 ADD SWAP1 PUSH2 0x195 SWAP2 SWAP1 PUSH2 0x1160 JUMP JUMPDEST PUSH2 0x466 JUMP JUMPDEST PUSH1 0x40 MLOAD PUSH2 0x1A7 SWAP2 SWAP1 PUSH2 0x1062 JUMP JUMPDEST PUSH1 0x40 MLOAD DUP1 SWAP2 SUB SWAP1 RETURN JUMPDEST PUSH2 0x1CA PUSH1 0x4 DUP1 CALLDATASIZE SUB DUP2 ADD SWAP1 PUSH2 0x1C5 SWAP2 SWAP1 PUSH2 0x11E5 JUMP JUMPDEST PUSH2 0x544 JUMP JUMPDEST STOP JUMPDEST PUSH2 0x1D4 PUSH2 0x5D0 JUMP JUMPDEST PUSH1 0x40 MLOAD PUSH2 0x1E1 SWAP2 SWAP1 PUSH2 0x1062 JUMP JUMPDEST PUSH1 0x40 MLOAD DUP1 SWAP2 SUB SWAP1 RETURN JUMPDEST PUSH2 0x204 PUSH1 0x4 DUP1 CALLDATASIZE SUB DUP2 ADD SWAP1 PUSH2 0x1FF SWAP2 SWAP1 PUSH2 0x1223 JUMP JUMPDEST PUSH2 0x5D6 JUMP JUMPDEST STOP JUMPDEST PUSH2 0x220 PUSH1 0x4 DUP1 CALLDATASIZE SUB DUP2 ADD SWAP1 PUSH2 0x21B SWAP2 SWAP1 PUSH2 0x1160 JUMP JUMPDEST PUSH2 0x9DD JUMP JUMPDEST STOP JUMPDEST PUSH2 0x22A PUSH2 0x9EF JUMP JUMPDEST PUSH1 0x40 MLOAD PUSH2 0x237 SWAP2 SWAP1 PUSH2 0x1062 JUMP JUMPDEST PUSH1 0x40 MLOAD DUP1 SWAP2 SUB SWAP1 RETURN JUMPDEST PUSH2 0x248 PUSH2 0x9F5 JUMP JUMPDEST STOP JUMPDEST PUSH2 0x264 PUSH1 0x4 DUP1 CALLDATASIZE SUB DUP2 ADD SWAP1 PUSH2 0x25F SWAP2 SWAP1 PUSH2 0x1160 JUMP JUMPDEST PUSH2 0xA08 JUMP JUMPDEST STOP JUMPDEST PUSH2 0x280 PUSH1 0x4 DUP1 CALLDATASIZE SUB DUP2 ADD SWAP1 PUSH2 0x27B SWAP2 SWAP1 PUSH2 0x1261 JUMP JUMPDEST PUSH2 0xA1A JUMP JUMPDEST PUSH1 0x40 MLOAD PUSH2 0x28D SWAP2 SWAP1 PUSH2 0x12A6 JUMP JUMPDEST PUSH1 0x40 MLOAD DUP1 SWAP2 SUB SWAP1 RETURN JUMPDEST PUSH2 0x29E PUSH2 0xA37 JUMP JUMPDEST PUSH1 0x40 MLOAD PUSH2 0x2AB SWAP2 SWAP1 PUSH2 0x1062 JUMP JUMPDEST PUSH1 0x40 MLOAD DUP1 SWAP2 SUB SWAP1 RETURN JUMPDEST PUSH2 0x2BC PUSH2 0xA3D JUMP JUMPDEST PUSH1 0x40 MLOAD PUSH2 0x2C9 SWAP2 SWAP1 PUSH2 0x12CE JUMP JUMPDEST PUSH1 0x40 MLOAD DUP1 SWAP2 SUB SWAP1 RETURN JUMPDEST PUSH2 0x2EC PUSH1 0x4 DUP1 CALLDATASIZE SUB DUP2 ADD SWAP1 PUSH2 0x2E7 SWAP2 SWAP1 PUSH2 0x1451 JUMP JUMPDEST PUSH2 0xA64 JUMP JUMPDEST STOP JUMPDEST PUSH2 0x308 PUSH1 0x4 DUP1 CALLDATASIZE SUB DUP2 ADD SWAP1 PUSH2 0x303 SWAP2 SWAP1 PUSH2 0x1223 JUMP JUMPDEST PUSH2 0xAF7 JUMP JUMPDEST STOP JUMPDEST PUSH2 0x324 PUSH1 0x4 DUP1 CALLDATASIZE SUB DUP2 ADD SWAP1 PUSH2 0x31F SWAP2 SWAP1 PUSH2 0x1261 JUMP JUMPDEST PUSH2 0xC6F JUMP JUMPDEST STOP JUMPDEST PUSH2 0x340 PUSH1 0x4 DUP1 CALLDATASIZE SUB DUP2 ADD SWAP1 PUSH2 0x33B SWAP2 SWAP1 PUSH2 0x1160 JUMP JUMPDEST PUSH2 0xE2E JUMP JUMPDEST STOP JUMPDEST PUSH2 0x35C PUSH1 0x4 DUP1 CALLDATASIZE SUB DUP2 ADD SWAP1 PUSH2 0x357 SWAP2 SWAP1 PUSH2 0x1160 JUMP JUMPDEST PUSH2 0xE40 JUMP JUMPDEST STOP JUMPDEST PUSH2 0x366 PUSH2 0xE65 JUMP JUMPDEST PUSH1 0x40 MLOAD PUSH2 0x373 SWAP2 SWAP1 PUSH2 0x1062 JUMP JUMPDEST PUSH1 0x40 MLOAD DUP1 SWAP2 SUB SWAP1 RETURN JUMPDEST PUSH2 0x384 PUSH2 0xE6B JUMP JUMPDEST PUSH1 0x40 MLOAD PUSH2 0x391 SWAP2 SWAP1 PUSH2 0x1062 JUMP JUMPDEST PUSH1 0x40 MLOAD DUP1 SWAP2 SUB SWAP1 RETURN JUMPDEST PUSH2 0x3B4 PUSH1 0x4 DUP1 CALLDATASIZE SUB DUP2 ADD SWAP1 PUSH2 0x3AF SWAP2 SWAP1 PUSH2 0x1261 JUMP JUMPDEST PUSH2 0xE71 JUMP JUMPDEST STOP JUMPDEST PUSH2 0x3BE PUSH2 0xEF5 JUMP JUMPDEST PUSH1 0x40 MLOAD PUSH2 0x3CB SWAP2 SWAP1 PUSH2 0x1062 JUMP JUMPDEST PUSH1 0x40 MLOAD DUP1 SWAP2 SUB SWAP1 RETURN JUMPDEST PUSH1 0x7 SLOAD DUP2 JUMP JUMPDEST PUSH1 0xA DUP1 SLOAD PUSH2 0x3E7 SWAP1 PUSH2 0x14D8 JUMP JUMPDEST DUP1 PUSH1 0x1F ADD PUSH1 0x20 DUP1 SWAP2 DIV MUL PUSH1 0x20 ADD PUSH1 0x40 MLOAD SWAP1 DUP2 ADD PUSH1 0x40 MSTORE DUP1 SWAP3 SWAP2 SWAP1 DUP2 DUP2 MSTORE PUSH1 0x20 ADD DUP3 DUP1 SLOAD PUSH2 0x413 SWAP1 PUSH2 0x14D8 JUMP JUMPDEST DUP1 ISZERO PUSH2 0x45E JUMPI DUP1 PUSH1 0x1F LT PUSH2 0x435 JUMPI PUSH2 0x100 DUP1 DUP4 SLOAD DIV MUL DUP4 MSTORE SWAP2 PUSH1 0x20 ADD SWAP2 PUSH2 0x45E JUMP JUMPDEST DUP3 ADD SWAP2 SWAP1 PUSH0 MSTORE PUSH1 0x20 PUSH0 KECCAK256 SWAP1 JUMPDEST DUP2 SLOAD DUP2 MSTORE SWAP1 PUSH1 0x1 ADD SWAP1 PUSH1 0x20 ADD DUP1 DUP4 GT PUSH2 0x441 JUMPI DUP3 SWAP1 SUB PUSH1 0x1F AND DUP3 ADD SWAP2 JUMPDEST POP POP POP POP POP DUP2 JUMP JUMPDEST PUSH0 DUP1 PUSH8 0xDE0B6B3A7640000 PUSH1 0x4 SLOAD PUSH2 0x47E SWAP2 SWAP1 PUSH2 0x1535 JUMP JUMPDEST PUSH1 0x1 PUSH0 SWAP1 SLOAD SWAP1 PUSH2 0x100 EXP SWAP1 DIV PUSH20 0xFFFFFFFFFFFFFFFFFFFFFFFFFFFFFFFFFFFFFFFF AND PUSH20 0xFFFFFFFFFFFFFFFFFFFFFFFFFFFFFFFFFFFFFFFF AND PUSH4 0x313CE567 PUSH1 0x40 MLOAD DUP2 PUSH4 0xFFFFFFFF AND PUSH1 0xE0 SHL DUP2 MSTORE PUSH1 0x4 ADD PUSH1 0x20 PUSH1 0x40 MLOAD DUP1 DUP4 SUB DUP2 DUP7 GAS STATICCALL ISZERO DUP1 ISZERO PUSH2 0x4E8 JUMPI RETURNDATASIZE PUSH0 DUP1 RETURNDATACOPY RETURNDATASIZE PUSH0 REVERT JUMPDEST POP POP POP POP PUSH1 0x40 MLOAD RETURNDATASIZE PUSH1 0x1F NOT PUSH1 0x1F DUP3 ADD AND DUP3 ADD DUP1 PUSH1 0x40 MSTORE POP DUP2 ADD SWAP1 PUSH2 0x50C SWAP2 SWAP1 PUSH2 0x15AC JUMP JUMPDEST PUSH1 0xA PUSH2 0x518 SWAP2 SWAP1 PUSH2 0x1706 JUMP JUMPDEST PUSH1 0x1 DUP6 PUSH2 0x525 SWAP2 SWAP1 PUSH2 0x1535 JUMP JUMPDEST PUSH2 0x52F SWAP2 SWAP1 PUSH2 0x1535 JUMP JUMPDEST PUSH2 0x539 SWAP2 SWAP1 PUSH2 0x177D JUMP JUMPDEST SWAP1 POP DUP1 SWAP2 POP POP SWAP2 SWAP1 POP JUMP JUMPDEST PUSH2 0x54C PUSH2 0xEFB JUMP JUMPDEST DUP2 PUSH1 0x1 PUSH0 PUSH2 0x100 EXP DUP2 SLOAD DUP2 PUSH20 0xFFFFFFFFFFFFFFFFFFFFFFFFFFFFFFFFFFFFFFFF MUL NOT AND SWAP1 DUP4 PUSH20 0xFFFFFFFFFFFFFFFFFFFFFFFFFFFFFFFFFFFFFFFF AND MUL OR SWAP1 SSTORE POP DUP1 PUSH1 0x2 PUSH0 PUSH2 0x100 EXP DUP2 SLOAD DUP2 PUSH20 0xFFFFFFFFFFFFFFFFFFFFFFFFFFFFFFFFFFFFFFFF MUL NOT AND SWAP1 DUP4 PUSH20 0xFFFFFFFFFFFFFFFFFFFFFFFFFFFFFFFFFFFFFFFF AND MUL OR SWAP1 SSTORE POP POP POP JUMP JUMPDEST PUSH1 0x4 SLOAD DUP2 JUMP JUMPDEST PUSH1 0x1 ISZERO ISZERO PUSH1 0xB PUSH0 CALLER PUSH20 0xFFFFFFFFFFFFFFFFFFFFFFFFFFFFFFFFFFFFFFFF AND PUSH20 0xFFFFFFFFFFFFFFFFFFFFFFFFFFFFFFFFFFFFFFFF AND DUP2 MSTORE PUSH1 0x20 ADD SWAP1 DUP2 MSTORE PUSH1 0x20 ADD PUSH0 KECCAK256 PUSH0 SWAP1 SLOAD SWAP1 PUSH2 0x100 EXP SWAP1 DIV PUSH1 0xFF AND ISZERO ISZERO EQ PUSH2 0x666 JUMPI PUSH1 0x40 MLOAD PUSH32 0x8C379A000000000000000000000000000000000000000000000000000000000 DUP2 MSTORE PUSH1 0x4 ADD PUSH2 0x65D SWAP1 PUSH2 0x17F7 JUMP JUMPDEST PUSH1 0x40 MLOAD DUP1 SWAP2 SUB SWAP1 REVERT JUMPDEST DUP1 PUSH1 0x2 PUSH0 SWAP1 SLOAD SWAP1 PUSH2 0x100 EXP SWAP1 DIV PUSH20 0xFFFFFFFFFFFFFFFFFFFFFFFFFFFFFFFFFFFFFFFF AND PUSH20 0xFFFFFFFFFFFFFFFFFFFFFFFFFFFFFFFFFFFFFFFF AND PUSH4 0x70A08231 DUP5 PUSH1 0x40 MLOAD DUP3 PUSH4 0xFFFFFFFF AND PUSH1 0xE0 SHL DUP2 MSTORE PUSH1 0x4 ADD PUSH2 0x6C1 SWAP2 SWAP1 PUSH2 0x12CE JUMP JUMPDEST PUSH1 0x20 PUSH1 0x40 MLOAD DUP1 DUP4 SUB DUP2 DUP7 GAS STATICCALL ISZERO DUP1 ISZERO PUSH2 0x6DC JUMPI RETURNDATASIZE PUSH0 DUP1 RETURNDATACOPY RETURNDATASIZE PUSH0 REVERT JUMPDEST POP POP POP POP PUSH1 0x40 MLOAD RETURNDATASIZE PUSH1 0x1F NOT PUSH1 0x1F DUP3 ADD AND DUP3 ADD DUP1 PUSH1 0x40 MSTORE POP DUP2 ADD SWAP1 PUSH2 0x700 SWAP2 SWAP1 PUSH2 0x1829 JUMP JUMPDEST LT ISZERO PUSH2 0x741 JUMPI PUSH1 0x40 MLOAD PUSH32 0x8C379A000000000000000000000000000000000000000000000000000000000 DUP2 MSTORE PUSH1 0x4 ADD PUSH2 0x738 SWAP1 PUSH2 0x189E JUMP JUMPDEST PUSH1 0x40 MLOAD DUP1 SWAP2 SUB SWAP1 REVERT JUMPDEST PUSH1 0x6 SLOAD DUP2 LT ISZERO PUSH2 0x786 JUMPI PUSH1 0x40 MLOAD PUSH32 0x8C379A000000000000000000000000000000000000000000000000000000000 DUP2 MSTORE PUSH1 0x4 ADD PUSH2 0x77D SWAP1 PUSH2 0x192C JUMP JUMPDEST PUSH1 0x40 MLOAD DUP1 SWAP2 SUB SWAP1 REVERT JUMPDEST PUSH0 PUSH2 0x790 DUP3 PUSH2 0x466 JUMP JUMPDEST SWAP1 POP DUP1 PUSH1 0x8 PUSH0 DUP3 DUP3 SLOAD PUSH2 0x7A3 SWAP2 SWAP1 PUSH2 0x194A JUMP JUMPDEST SWAP3 POP POP DUP2 SWAP1 SSTORE POP PUSH0 PUSH1 0x64 PUSH1 0x5 SLOAD DUP4 PUSH2 0x7BB SWAP2 SWAP1 PUSH2 0x1535 JUMP JUMPDEST PUSH2 0x7C5 SWAP2 SWAP1 PUSH2 0x177D JUMP JUMPDEST SWAP1 POP PUSH0 DUP2 DUP4 PUSH2 0x7D4 SWAP2 SWAP1 PUSH2 0x197D JUMP JUMPDEST SWAP1 POP PUSH1 0x2 PUSH0 SWAP1 SLOAD SWAP1 PUSH2 0x100 EXP SWAP1 DIV PUSH20 0xFFFFFFFFFFFFFFFFFFFFFFFFFFFFFFFFFFFFFFFF AND PUSH20 0xFFFFFFFFFFFFFFFFFFFFFFFFFFFFFFFFFFFFFFFF AND PUSH4 0x9DC29FAC DUP7 DUP7 PUSH1 0x40 MLOAD DUP4 PUSH4 0xFFFFFFFF AND PUSH1 0xE0 SHL DUP2 MSTORE PUSH1 0x4 ADD PUSH2 0x832 SWAP3 SWAP2 SWAP1 PUSH2 0x19B0 JUMP JUMPDEST PUSH0 PUSH1 0x40 MLOAD DUP1 DUP4 SUB DUP2 PUSH0 DUP8 DUP1 EXTCODESIZE ISZERO DUP1 ISZERO PUSH2 0x849 JUMPI PUSH0 DUP1 REVERT JUMPDEST POP GAS CALL ISZERO DUP1 ISZERO PUSH2 0x85B JUMPI RETURNDATASIZE PUSH0 DUP1 RETURNDATACOPY RETURNDATASIZE PUSH0 REVERT JUMPDEST POP POP POP POP PUSH1 0x1 PUSH0 SWAP1 SLOAD SWAP1 PUSH2 0x100 EXP SWAP1 DIV PUSH20 0xFFFFFFFFFFFFFFFFFFFFFFFFFFFFFFFFFFFFFFFF AND PUSH20 0xFFFFFFFFFFFFFFFFFFFFFFFFFFFFFFFFFFFFFFFF AND PUSH4 0xA9059CBB DUP7 DUP4 PUSH1 0x40 MLOAD DUP4 PUSH4 0xFFFFFFFF AND PUSH1 0xE0 SHL DUP2 MSTORE PUSH1 0x4 ADD PUSH2 0x8BB SWAP3 SWAP2 SWAP1 PUSH2 0x19B0 JUMP JUMPDEST PUSH1 0x20 PUSH1 0x40 MLOAD DUP1 DUP4 SUB DUP2 PUSH0 DUP8 GAS CALL ISZERO DUP1 ISZERO PUSH2 0x8D7 JUMPI RETURNDATASIZE PUSH0 DUP1 RETURNDATACOPY RETURNDATASIZE PUSH0 REVERT JUMPDEST POP POP POP POP PUSH1 0x40 MLOAD RETURNDATASIZE PUSH1 0x1F NOT PUSH1 0x1F DUP3 ADD AND DUP3 ADD DUP1 PUSH1 0x40 MSTORE POP DUP2 ADD SWAP1 PUSH2 0x8FB SWAP2 SWAP1 PUSH2 0x19EB JUMP JUMPDEST POP PUSH1 0x1 PUSH0 SWAP1 SLOAD SWAP1 PUSH2 0x100 EXP SWAP1 DIV PUSH20 0xFFFFFFFFFFFFFFFFFFFFFFFFFFFFFFFFFFFFFFFF AND PUSH20 0xFFFFFFFFFFFFFFFFFFFFFFFFFFFFFFFFFFFFFFFF AND PUSH4 0xA9059CBB CALLER DUP5 PUSH1 0x40 MLOAD DUP4 PUSH4 0xFFFFFFFF AND PUSH1 0xE0 SHL DUP2 MSTORE PUSH1 0x4 ADD PUSH2 0x958 SWAP3 SWAP2 SWAP1 PUSH2 0x19B0 JUMP JUMPDEST PUSH1 0x20 PUSH1 0x40 MLOAD DUP1 DUP4 SUB DUP2 PUSH0 DUP8 GAS CALL ISZERO DUP1 ISZERO PUSH2 0x974 JUMPI RETURNDATASIZE PUSH0 DUP1 RETURNDATACOPY RETURNDATASIZE PUSH0 REVERT JUMPDEST POP POP POP POP PUSH1 0x40 MLOAD RETURNDATASIZE PUSH1 0x1F NOT PUSH1 0x1F DUP3 ADD AND DUP3 ADD DUP1 PUSH1 0x40 MSTORE POP DUP2 ADD SWAP1 PUSH2 0x998 SWAP2 SWAP1 PUSH2 0x19EB JUMP JUMPDEST POP PUSH32 0xC9EC92487A51A4894B66E92FA35D58109271421843B717E764249309F96AB9B5 DUP6 DUP6 DUP4 DUP6 PUSH1 0x40 MLOAD PUSH2 0x9CE SWAP5 SWAP4 SWAP3 SWAP2 SWAP1 PUSH2 0x1A16 JUMP JUMPDEST PUSH1 0x40 MLOAD DUP1 SWAP2 SUB SWAP1 LOG1 POP POP POP POP POP JUMP JUMPDEST PUSH2 0x9E5 PUSH2 0xEFB JUMP JUMPDEST DUP1 PUSH1 0x4 DUP2 SWAP1 SSTORE POP POP JUMP JUMPDEST PUSH1 0x3 SLOAD DUP2 JUMP JUMPDEST PUSH2 0x9FD PUSH2 0xEFB JUMP JUMPDEST PUSH2 0xA06 PUSH0 PUSH2 0xF82 JUMP JUMPDEST JUMP JUMPDEST PUSH2 0xA10 PUSH2 0xEFB JUMP JUMPDEST DUP1 PUSH1 0x3 DUP2 SWAP1 SSTORE POP POP JUMP JUMPDEST PUSH1 0xB PUSH1 0x20 MSTORE DUP1 PUSH0 MSTORE PUSH1 0x40 PUSH0 KECCAK256 PUSH0 SWAP2 POP SLOAD SWAP1 PUSH2 0x100 EXP SWAP1 DIV PUSH1 0xFF AND DUP2 JUMP JUMPDEST PUSH1 0x5 SLOAD DUP2 JUMP JUMPDEST PUSH0 DUP1 PUSH0 SWAP1 SLOAD SWAP1 PUSH2 0x100 EXP SWAP1 DIV PUSH20 0xFFFFFFFFFFFFFFFFFFFFFFFFFFFFFFFFFFFFFFFF AND SWAP1 POP SWAP1 JUMP JUMPDEST PUSH2 0xA6C PUSH2 0xEFB JUMP JUMPDEST PUSH0 JUMPDEST DUP3 MLOAD DUP2 LT ISZERO PUSH2 0xAF2 JUMPI DUP2 PUSH1 0xB PUSH0 DUP6 DUP5 DUP2 MLOAD DUP2 LT PUSH2 0xA8E JUMPI PUSH2 0xA8D PUSH2 0x1A59 JUMP JUMPDEST JUMPDEST PUSH1 0x20 MUL PUSH1 0x20 ADD ADD MLOAD PUSH20 0xFFFFFFFFFFFFFFFFFFFFFFFFFFFFFFFFFFFFFFFF AND PUSH20 0xFFFFFFFFFFFFFFFFFFFFFFFFFFFFFFFFFFFFFFFF AND DUP2 MSTORE PUSH1 0x20 ADD SWAP1 DUP2 MSTORE PUSH1 0x20 ADD PUSH0 KECCAK256 PUSH0 PUSH2 0x100 EXP DUP2 SLOAD DUP2 PUSH1 0xFF MUL NOT AND SWAP1 DUP4 ISZERO ISZERO MUL OR SWAP1 SSTORE POP DUP1 DUP1 PUSH1 0x1 ADD SWAP2 POP POP PUSH2 0xA6E JUMP JUMPDEST POP POP POP JUMP JUMPDEST PUSH1 0x1 ISZERO ISZERO PUSH1 0xB PUSH0 CALLER PUSH20 0xFFFFFFFFFFFFFFFFFFFFFFFFFFFFFFFFFFFFFFFF AND PUSH20 0xFFFFFFFFFFFFFFFFFFFFFFFFFFFFFFFFFFFFFFFF AND DUP2 MSTORE PUSH1 0x20 ADD SWAP1 DUP2 MSTORE PUSH1 0x20 ADD PUSH0 KECCAK256 PUSH0 SWAP1 SLOAD SWAP1 PUSH2 0x100 EXP SWAP1 DIV PUSH1 0xFF AND ISZERO ISZERO EQ PUSH2 0xB87 JUMPI PUSH1 0x40 MLOAD PUSH32 0x8C379A000000000000000000000000000000000000000000000000000000000 DUP2 MSTORE PUSH1 0x4 ADD PUSH2 0xB7E SWAP1 PUSH2 0x17F7 JUMP JUMPDEST PUSH1 0x40 MLOAD DUP1 SWAP2 SUB SWAP1 REVERT JUMPDEST PUSH1 0x6 SLOAD DUP2 LT ISZERO PUSH2 0xB95 JUMPI PUSH0 DUP1 REVERT JUMPDEST PUSH1 0x2 PUSH0 SWAP1 SLOAD SWAP1 PUSH2 0x100 EXP SWAP1 DIV PUSH20 0xFFFFFFFFFFFFFFFFFFFFFFFFFFFFFFFFFFFFFFFF AND PUSH20 0xFFFFFFFFFFFFFFFFFFFFFFFFFFFFFFFFFFFFFFFF AND PUSH4 0xA9059CBB DUP4 DUP4 PUSH1 0x40 MLOAD DUP4 PUSH4 0xFFFFFFFF AND PUSH1 0xE0 SHL DUP2 MSTORE PUSH1 0x4 ADD PUSH2 0xBF1 SWAP3 SWAP2 SWAP1 PUSH2 0x19B0 JUMP JUMPDEST PUSH1 0x20 PUSH1 0x40 MLOAD DUP1 DUP4 SUB DUP2 PUSH0 DUP8 GAS CALL ISZERO DUP1 ISZERO PUSH2 0xC0D JUMPI RETURNDATASIZE PUSH0 DUP1 RETURNDATACOPY RETURNDATASIZE PUSH0 REVERT JUMPDEST POP POP POP POP PUSH1 0x40 MLOAD RETURNDATASIZE PUSH1 0x1F NOT PUSH1 0x1F DUP3 ADD AND DUP3 ADD DUP1 PUSH1 0x40 MSTORE POP DUP2 ADD SWAP1 PUSH2 0xC31 SWAP2 SWAP1 PUSH2 0x19EB JUMP JUMPDEST POP PUSH32 0xBA953728785DE35BE3827EE7A7A7867A8472947562602939440E6C0BDBF4725E DUP3 DUP3 PUSH1 0x40 MLOAD PUSH2 0xC63 SWAP3 SWAP2 SWAP1 PUSH2 0x19B0 JUMP JUMPDEST PUSH1 0x40 MLOAD DUP1 SWAP2 SUB SWAP1 LOG1 POP POP JUMP JUMPDEST PUSH2 0xC77 PUSH2 0xEFB JUMP JUMPDEST PUSH0 PUSH1 0x1 PUSH0 SWAP1 SLOAD SWAP1 PUSH2 0x100 EXP SWAP1 DIV PUSH20 0xFFFFFFFFFFFFFFFFFFFFFFFFFFFFFFFFFFFFFFFF AND PUSH20 0xFFFFFFFFFFFFFFFFFFFFFFFFFFFFFFFFFFFFFFFF AND PUSH4 0x70A08231 ADDRESS PUSH1 0x40 MLOAD DUP3 PUSH4 0xFFFFFFFF AND PUSH1 0xE0 SHL DUP2 MSTORE PUSH1 0x4 ADD PUSH2 0xCD2 SWAP2 SWAP1 PUSH2 0x12CE JUMP JUMPDEST PUSH1 0x20 PUSH1 0x40 MLOAD DUP1 DUP4 SUB DUP2 DUP7 GAS STATICCALL ISZERO DUP1 ISZERO PUSH2 0xCED JUMPI RETURNDATASIZE PUSH0 DUP1 RETURNDATACOPY RETURNDATASIZE PUSH0 REVERT JUMPDEST POP POP POP POP PUSH1 0x40 MLOAD RETURNDATASIZE PUSH1 0x1F NOT PUSH1 0x1F DUP3 ADD AND DUP3 ADD DUP1 PUSH1 0x40 MSTORE POP DUP2 ADD SWAP1 PUSH2 0xD11 SWAP2 SWAP1 PUSH2 0x1829 JUMP JUMPDEST SWAP1 POP PUSH0 PUSH1 0x7 SLOAD PUSH1 0x9 SLOAD PUSH1 0x8 SLOAD DUP5 PUSH2 0xD28 SWAP2 SWAP1 PUSH2 0x194A JUMP JUMPDEST PUSH2 0xD32 SWAP2 SWAP1 PUSH2 0x194A JUMP JUMPDEST PUSH2 0xD3C SWAP2 SWAP1 PUSH2 0x197D JUMP JUMPDEST SWAP1 POP DUP1 PUSH1 0x7 PUSH0 DUP3 DUP3 SLOAD PUSH2 0xD4F SWAP2 SWAP1 PUSH2 0x194A JUMP JUMPDEST SWAP3 POP POP DUP2 SWAP1 SSTORE POP PUSH0 PUSH1 0x64 PUSH1 0x3 SLOAD DUP4 PUSH2 0xD67 SWAP2 SWAP1 PUSH2 0x1535 JUMP JUMPDEST PUSH2 0xD71 SWAP2 SWAP1 PUSH2 0x177D JUMP JUMPDEST SWAP1 POP DUP1 PUSH1 0x9 PUSH0 DUP3 DUP3 SLOAD PUSH2 0xD84 SWAP2 SWAP1 PUSH2 0x194A JUMP JUMPDEST SWAP3 POP POP DUP2 SWAP1 SSTORE POP PUSH1 0x1 PUSH0 SWAP1 SLOAD SWAP1 PUSH2 0x100 EXP SWAP1 DIV PUSH20 0xFFFFFFFFFFFFFFFFFFFFFFFFFFFFFFFFFFFFFFFF AND PUSH20 0xFFFFFFFFFFFFFFFFFFFFFFFFFFFFFFFFFFFFFFFF AND PUSH4 0xA9059CBB DUP6 DUP4 PUSH1 0x40 MLOAD DUP4 PUSH4 0xFFFFFFFF AND PUSH1 0xE0 SHL DUP2 MSTORE PUSH1 0x4 ADD PUSH2 0xDE7 SWAP3 SWAP2 SWAP1 PUSH2 0x19B0 JUMP JUMPDEST PUSH1 0x20 PUSH1 0x40 MLOAD DUP1 DUP4 SUB DUP2 PUSH0 DUP8 GAS CALL ISZERO DUP1 ISZERO PUSH2 0xE03 JUMPI RETURNDATASIZE PUSH0 DUP1 RETURNDATACOPY RETURNDATASIZE PUSH0 REVERT JUMPDEST POP POP POP POP PUSH1 0x40 MLOAD RETURNDATASIZE PUSH1 0x1F NOT PUSH1 0x1F DUP3 ADD AND DUP3 ADD DUP1 PUSH1 0x40 MSTORE POP DUP2 ADD SWAP1 PUSH2 0xE27 SWAP2 SWAP1 PUSH2 0x19EB JUMP JUMPDEST POP POP POP POP POP JUMP JUMPDEST PUSH2 0xE36 PUSH2 0xEFB JUMP JUMPDEST DUP1 PUSH1 0x5 DUP2 SWAP1 SSTORE POP POP JUMP JUMPDEST PUSH2 0xE48 PUSH2 0xEFB JUMP JUMPDEST PUSH8 0xDE0B6B3A7640000 DUP2 PUSH2 0xE5C SWAP2 SWAP1 PUSH2 0x1535 JUMP JUMPDEST PUSH1 0x6 DUP2 SWAP1 SSTORE POP POP JUMP JUMPDEST PUSH1 0x9 SLOAD DUP2 JUMP JUMPDEST PUSH1 0x6 SLOAD DUP2 JUMP JUMPDEST PUSH2 0xE79 PUSH2 0xEFB JUMP JUMPDEST PUSH0 PUSH20 0xFFFFFFFFFFFFFFFFFFFFFFFFFFFFFFFFFFFFFFFF AND DUP2 PUSH20 0xFFFFFFFFFFFFFFFFFFFFFFFFFFFFFFFFFFFFFFFF AND SUB PUSH2 0xEE9 JUMPI PUSH0 PUSH1 0x40 MLOAD PUSH32 0x1E4FBDF700000000000000000000000000000000000000000000000000000000 DUP2 MSTORE PUSH1 0x4 ADD PUSH2 0xEE0 SWAP2 SWAP1 PUSH2 0x12CE JUMP JUMPDEST PUSH1 0x40 MLOAD DUP1 SWAP2 SUB SWAP1 REVERT JUMPDEST PUSH2 0xEF2 DUP2 PUSH2 0xF82 JUMP JUMPDEST POP JUMP JUMPDEST PUSH1 0x8 SLOAD DUP2 JUMP JUMPDEST PUSH2 0xF03 PUSH2 0x1043 JUMP JUMPDEST PUSH20 0xFFFFFFFFFFFFFFFFFFFFFFFFFFFFFFFFFFFFFFFF AND PUSH2 0xF21 PUSH2 0xA3D JUMP JUMPDEST PUSH20 0xFFFFFFFFFFFFFFFFFFFFFFFFFFFFFFFFFFFFFFFF AND EQ PUSH2 0xF80 JUMPI PUSH2 0xF44 PUSH2 0x1043 JUMP JUMPDEST PUSH1 0x40 MLOAD PUSH32 0x118CDAA700000000000000000000000000000000000000000000000000000000 DUP2 MSTORE PUSH1 0x4 ADD PUSH2 0xF77 SWAP2 SWAP1 PUSH2 0x12CE JUMP JUMPDEST PUSH1 0x40 MLOAD DUP1 SWAP2 SUB SWAP1 REVERT JUMPDEST JUMP JUMPDEST PUSH0 DUP1 PUSH0 SWAP1 SLOAD SWAP1 PUSH2 0x100 EXP SWAP1 DIV PUSH20 0xFFFFFFFFFFFFFFFFFFFFFFFFFFFFFFFFFFFFFFFF AND SWAP1 POP DUP2 PUSH0 DUP1 PUSH2 0x100 EXP DUP2 SLOAD DUP2 PUSH20 0xFFFFFFFFFFFFFFFFFFFFFFFFFFFFFFFFFFFFFFFF MUL NOT AND SWAP1 DUP4 PUSH20 0xFFFFFFFFFFFFFFFFFFFFFFFFFFFFFFFFFFFFFFFF AND MUL OR SWAP1 SSTORE POP DUP2 PUSH20 0xFFFFFFFFFFFFFFFFFFFFFFFFFFFFFFFFFFFFFFFF AND DUP2 PUSH20 0xFFFFFFFFFFFFFFFFFFFFFFFFFFFFFFFFFFFFFFFF AND PUSH32 0x8BE0079C531659141344CD1FD0A4F28419497F9722A3DAAFE3B4186F6B6457E0 PUSH1 0x40 MLOAD PUSH1 0x40 MLOAD DUP1 SWAP2 SUB SWAP1 LOG3 POP POP JUMP JUMPDEST PUSH0 CALLER SWAP1 POP SWAP1 JUMP JUMPDEST PUSH0 DUP2 SWAP1 POP SWAP2 SWAP1 POP JUMP JUMPDEST PUSH2 0x105C DUP2 PUSH2 0x104A JUMP JUMPDEST DUP3 MSTORE POP POP JUMP JUMPDEST PUSH0 PUSH1 0x20 DUP3 ADD SWAP1 POP PUSH2 0x1075 PUSH0 DUP4 ADD DUP5 PUSH2 0x1053 JUMP JUMPDEST SWAP3 SWAP2 POP POP JUMP JUMPDEST PUSH0 DUP2 MLOAD SWAP1 POP SWAP2 SWAP1 POP JUMP JUMPDEST PUSH0 DUP3 DUP3 MSTORE PUSH1 0x20 DUP3 ADD SWAP1 POP SWAP3 SWAP2 POP POP JUMP JUMPDEST PUSH0 JUMPDEST DUP4 DUP2 LT ISZERO PUSH2 0x10B2 JUMPI DUP1 DUP3 ADD MLOAD DUP2 DUP5 ADD MSTORE PUSH1 0x20 DUP2 ADD SWAP1 POP PUSH2 0x1097 JUMP JUMPDEST PUSH0 DUP5 DUP5 ADD MSTORE POP POP POP POP JUMP JUMPDEST PUSH0 PUSH1 0x1F NOT PUSH1 0x1F DUP4 ADD AND SWAP1 POP SWAP2 SWAP1 POP JUMP JUMPDEST PUSH0 PUSH2 0x10D7 DUP3 PUSH2 0x107B JUMP JUMPDEST PUSH2 0x10E1 DUP2 DUP6 PUSH2 0x1085 JUMP JUMPDEST SWAP4 POP PUSH2 0x10F1 DUP2 DUP6 PUSH1 0x20 DUP7 ADD PUSH2 0x1095 JUMP JUMPDEST PUSH2 0x10FA DUP2 PUSH2 0x10BD JUMP JUMPDEST DUP5 ADD SWAP2 POP POP SWAP3 SWAP2 POP POP JUMP JUMPDEST PUSH0 PUSH1 0x20 DUP3 ADD SWAP1 POP DUP2 DUP2 SUB PUSH0 DUP4 ADD MSTORE PUSH2 0x111D DUP2 DUP5 PUSH2 0x10CD JUMP JUMPDEST SWAP1 POP SWAP3 SWAP2 POP POP JUMP JUMPDEST PUSH0 PUSH1 0x40 MLOAD SWAP1 POP SWAP1 JUMP JUMPDEST PUSH0 DUP1 REVERT JUMPDEST PUSH0 DUP1 REVERT JUMPDEST PUSH2 0x113F DUP2 PUSH2 0x104A JUMP JUMPDEST DUP2 EQ PUSH2 0x1149 JUMPI PUSH0 DUP1 REVERT JUMPDEST POP JUMP JUMPDEST PUSH0 DUP2 CALLDATALOAD SWAP1 POP PUSH2 0x115A DUP2 PUSH2 0x1136 JUMP JUMPDEST SWAP3 SWAP2 POP POP JUMP JUMPDEST PUSH0 PUSH1 0x20 DUP3 DUP5 SUB SLT ISZERO PUSH2 0x1175 JUMPI PUSH2 0x1174 PUSH2 0x112E JUMP JUMPDEST JUMPDEST PUSH0 PUSH2 0x1182 DUP5 DUP3 DUP6 ADD PUSH2 0x114C JUMP JUMPDEST SWAP2 POP POP SWAP3 SWAP2 POP POP JUMP JUMPDEST PUSH0 PUSH20 0xFFFFFFFFFFFFFFFFFFFFFFFFFFFFFFFFFFFFFFFF DUP3 AND SWAP1 POP SWAP2 SWAP1 POP JUMP JUMPDEST PUSH0 PUSH2 0x11B4 DUP3 PUSH2 0x118B JUMP JUMPDEST SWAP1 POP SWAP2 SWAP1 POP JUMP JUMPDEST PUSH2 0x11C4 DUP2 PUSH2 0x11AA JUMP JUMPDEST DUP2 EQ PUSH2 0x11CE JUMPI PUSH0 DUP1 REVERT JUMPDEST POP JUMP JUMPDEST PUSH0 DUP2 CALLDATALOAD SWAP1 POP PUSH2 0x11DF DUP2 PUSH2 0x11BB JUMP JUMPDEST SWAP3 SWAP2 POP POP JUMP JUMPDEST PUSH0 DUP1 PUSH1 0x40 DUP4 DUP6 SUB SLT ISZERO PUSH2 0x11FB JUMPI PUSH2 0x11FA PUSH2 0x112E JUMP JUMPDEST JUMPDEST PUSH0 PUSH2 0x1208 DUP6 DUP3 DUP7 ADD PUSH2 0x11D1 JUMP JUMPDEST SWAP3 POP POP PUSH1 0x20 PUSH2 0x1219 DUP6 DUP3 DUP7 ADD PUSH2 0x11D1 JUMP JUMPDEST SWAP2 POP POP SWAP3 POP SWAP3 SWAP1 POP JUMP JUMPDEST PUSH0 DUP1 PUSH1 0x40 DUP4 DUP6 SUB SLT ISZERO PUSH2 0x1239 JUMPI PUSH2 0x1238 PUSH2 0x112E JUMP JUMPDEST JUMPDEST PUSH0 PUSH2 0x1246 DUP6 DUP3 DUP7 ADD PUSH2 0x11D1 JUMP JUMPDEST SWAP3 POP POP PUSH1 0x20 PUSH2 0x1257 DUP6 DUP3 DUP7 ADD PUSH2 0x114C JUMP JUMPDEST SWAP2 POP POP SWAP3 POP SWAP3 SWAP1 POP JUMP JUMPDEST PUSH0 PUSH1 0x20 DUP3 DUP5 SUB SLT ISZERO PUSH2 0x1276 JUMPI PUSH2 0x1275 PUSH2 0x112E JUMP JUMPDEST JUMPDEST PUSH0 PUSH2 0x1283 DUP5 DUP3 DUP6 ADD PUSH2 0x11D1 JUMP JUMPDEST SWAP2 POP POP SWAP3 SWAP2 POP POP JUMP JUMPDEST PUSH0 DUP2 ISZERO ISZERO SWAP1 POP SWAP2 SWAP1 POP JUMP JUMPDEST PUSH2 0x12A0 DUP2 PUSH2 0x128C JUMP JUMPDEST DUP3 MSTORE POP POP JUMP JUMPDEST PUSH0 PUSH1 0x20 DUP3 ADD SWAP1 POP PUSH2 0x12B9 PUSH0 DUP4 ADD DUP5 PUSH2 0x1297 JUMP JUMPDEST SWAP3 SWAP2 POP POP JUMP JUMPDEST PUSH2 0x12C8 DUP2 PUSH2 0x11AA JUMP JUMPDEST DUP3 MSTORE POP POP JUMP JUMPDEST PUSH0 PUSH1 0x20 DUP3 ADD SWAP1 POP PUSH2 0x12E1 PUSH0 DUP4 ADD DUP5 PUSH2 0x12BF JUMP JUMPDEST SWAP3 SWAP2 POP POP JUMP JUMPDEST PUSH0 DUP1 REVERT JUMPDEST PUSH32 0x4E487B7100000000000000000000000000000000000000000000000000000000 PUSH0 MSTORE PUSH1 0x41 PUSH1 0x4 MSTORE PUSH1 0x24 PUSH0 REVERT JUMPDEST PUSH2 0x1321 DUP3 PUSH2 0x10BD JUMP JUMPDEST DUP2 ADD DUP2 DUP2 LT PUSH8 0xFFFFFFFFFFFFFFFF DUP3 GT OR ISZERO PUSH2 0x1340 JUMPI PUSH2 0x133F PUSH2 0x12EB JUMP JUMPDEST JUMPDEST DUP1 PUSH1 0x40 MSTORE POP POP POP JUMP JUMPDEST PUSH0 PUSH2 0x1352 PUSH2 0x1125 JUMP JUMPDEST SWAP1 POP PUSH2 0x135E DUP3 DUP3 PUSH2 0x1318 JUMP JUMPDEST SWAP2 SWAP1 POP JUMP JUMPDEST PUSH0 PUSH8 0xFFFFFFFFFFFFFFFF DUP3 GT ISZERO PUSH2 0x137D JUMPI PUSH2 0x137C PUSH2 0x12EB JUMP JUMPDEST JUMPDEST PUSH1 0x20 DUP3 MUL SWAP1 POP PUSH1 0x20 DUP2 ADD SWAP1 POP SWAP2 SWAP1 POP JUMP JUMPDEST PUSH0 DUP1 REVERT JUMPDEST PUSH0 PUSH2 0x13A4 PUSH2 0x139F DUP5 PUSH2 0x1363 JUMP JUMPDEST PUSH2 0x1349 JUMP JUMPDEST SWAP1 POP DUP1 DUP4 DUP3 MSTORE PUSH1 0x20 DUP3 ADD SWAP1 POP PUSH1 0x20 DUP5 MUL DUP4 ADD DUP6 DUP2 GT ISZERO PUSH2 0x13C7 JUMPI PUSH2 0x13C6 PUSH2 0x138E JUMP JUMPDEST JUMPDEST DUP4 JUMPDEST DUP2 DUP2 LT ISZERO PUSH2 0x13F0 JUMPI DUP1 PUSH2 0x13DC DUP9 DUP3 PUSH2 0x11D1 JUMP JUMPDEST DUP5 MSTORE PUSH1 0x20 DUP5 ADD SWAP4 POP POP PUSH1 0x20 DUP2 ADD SWAP1 POP PUSH2 0x13C9 JUMP JUMPDEST POP POP POP SWAP4 SWAP3 POP POP POP JUMP JUMPDEST PUSH0 DUP3 PUSH1 0x1F DUP4 ADD SLT PUSH2 0x140E JUMPI PUSH2 0x140D PUSH2 0x12E7 JUMP JUMPDEST JUMPDEST DUP2 CALLDATALOAD PUSH2 0x141E DUP5 DUP3 PUSH1 0x20 DUP7 ADD PUSH2 0x1392 JUMP JUMPDEST SWAP2 POP POP SWAP3 SWAP2 POP POP JUMP JUMPDEST PUSH2 0x1430 DUP2 PUSH2 0x128C JUMP JUMPDEST DUP2 EQ PUSH2 0x143A JUMPI PUSH0 DUP1 REVERT JUMPDEST POP JUMP JUMPDEST PUSH0 DUP2 CALLDATALOAD SWAP1 POP PUSH2 0x144B DUP2 PUSH2 0x1427 JUMP JUMPDEST SWAP3 SWAP2 POP POP JUMP JUMPDEST PUSH0 DUP1 PUSH1 0x40 DUP4 DUP6 SUB SLT ISZERO PUSH2 0x1467 JUMPI PUSH2 0x1466 PUSH2 0x112E JUMP JUMPDEST JUMPDEST PUSH0 DUP4 ADD CALLDATALOAD PUSH8 0xFFFFFFFFFFFFFFFF DUP2 GT ISZERO PUSH2 0x1484 JUMPI PUSH2 0x1483 PUSH2 0x1132 JUMP JUMPDEST JUMPDEST PUSH2 0x1490 DUP6 DUP3 DUP7 ADD PUSH2 0x13FA JUMP JUMPDEST SWAP3 POP POP PUSH1 0x20 PUSH2 0x14A1 DUP6 DUP3 DUP7 ADD PUSH2 0x143D JUMP JUMPDEST SWAP2 POP POP SWAP3 POP SWAP3 SWAP1 POP JUMP JUMPDEST PUSH32 0x4E487B7100000000000000000000000000000000000000000000000000000000 PUSH0 MSTORE PUSH1 0x22 PUSH1 0x4 MSTORE PUSH1 0x24 PUSH0 REVERT JUMPDEST PUSH0 PUSH1 0x2 DUP3 DIV SWAP1 POP PUSH1 0x1 DUP3 AND DUP1 PUSH2 0x14EF JUMPI PUSH1 0x7F DUP3 AND SWAP2 POP JUMPDEST PUSH1 0x20 DUP3 LT DUP2 SUB PUSH2 0x1502 JUMPI PUSH2 0x1501 PUSH2 0x14AB JUMP JUMPDEST JUMPDEST POP SWAP2 SWAP1 POP JUMP JUMPDEST PUSH32 0x4E487B7100000000000000000000000000000000000000000000000000000000 PUSH0 MSTORE PUSH1 0x11 PUSH1 0x4 MSTORE PUSH1 0x24 PUSH0 REVERT JUMPDEST PUSH0 PUSH2 0x153F DUP3 PUSH2 0x104A JUMP JUMPDEST SWAP2 POP PUSH2 0x154A DUP4 PUSH2 0x104A JUMP JUMPDEST SWAP3 POP DUP3 DUP3 MUL PUSH2 0x1558 DUP2 PUSH2 0x104A JUMP JUMPDEST SWAP2 POP DUP3 DUP3 DIV DUP5 EQ DUP4 ISZERO OR PUSH2 0x156F JUMPI PUSH2 0x156E PUSH2 0x1508 JUMP JUMPDEST JUMPDEST POP SWAP3 SWAP2 POP POP JUMP JUMPDEST PUSH0 PUSH1 0xFF DUP3 AND SWAP1 POP SWAP2 SWAP1 POP JUMP JUMPDEST PUSH2 0x158B DUP2 PUSH2 0x1576 JUMP JUMPDEST DUP2 EQ PUSH2 0x1595 JUMPI PUSH0 DUP1 REVERT JUMPDEST POP JUMP JUMPDEST PUSH0 DUP2 MLOAD SWAP1 POP PUSH2 0x15A6 DUP2 PUSH2 0x1582 JUMP JUMPDEST SWAP3 SWAP2 POP POP JUMP JUMPDEST PUSH0 PUSH1 0x20 DUP3 DUP5 SUB SLT ISZERO PUSH2 0x15C1 JUMPI PUSH2 0x15C0 PUSH2 0x112E JUMP JUMPDEST JUMPDEST PUSH0 PUSH2 0x15CE DUP5 DUP3 DUP6 ADD PUSH2 0x1598 JUMP JUMPDEST SWAP2 POP POP SWAP3 SWAP2 POP POP JUMP JUMPDEST PUSH0 DUP2 PUSH1 0x1 SHR SWAP1 POP SWAP2 SWAP1 POP JUMP JUMPDEST PUSH0 DUP1 DUP3 SWAP2 POP DUP4 SWAP1 POP JUMPDEST PUSH1 0x1 DUP6 GT ISZERO PUSH2 0x162C JUMPI DUP1 DUP7 DIV DUP2 GT ISZERO PUSH2 0x1608 JUMPI PUSH2 0x1607 PUSH2 0x1508 JUMP JUMPDEST JUMPDEST PUSH1 0x1 DUP6 AND ISZERO PUSH2 0x1617 JUMPI DUP1 DUP3 MUL SWAP2 POP JUMPDEST DUP1 DUP2 MUL SWAP1 POP PUSH2 0x1625 DUP6 PUSH2 0x15D7 JUMP JUMPDEST SWAP5 POP PUSH2 0x15EC JUMP JUMPDEST SWAP5 POP SWAP5 SWAP3 POP POP POP JUMP JUMPDEST PUSH0 DUP3 PUSH2 0x1644 JUMPI PUSH1 0x1 SWAP1 POP PUSH2 0x16FF JUMP JUMPDEST DUP2 PUSH2 0x1651 JUMPI PUSH0 SWAP1 POP PUSH2 0x16FF JUMP JUMPDEST DUP2 PUSH1 0x1 DUP2 EQ PUSH2 0x1667 JUMPI PUSH1 0x2 DUP2 EQ PUSH2 0x1671 JUMPI PUSH2 0x16A0 JUMP JUMPDEST PUSH1 0x1 SWAP2 POP POP PUSH2 0x16FF JUMP JUMPDEST PUSH1 0xFF DUP5 GT ISZERO PUSH2 0x1683 JUMPI PUSH2 0x1682 PUSH2 0x1508 JUMP JUMPDEST JUMPDEST DUP4 PUSH1 0x2 EXP SWAP2 POP DUP5 DUP3 GT ISZERO PUSH2 0x169A JUMPI PUSH2 0x1699 PUSH2 0x1508 JUMP JUMPDEST JUMPDEST POP PUSH2 0x16FF JUMP JUMPDEST POP PUSH1 0x20 DUP4 LT PUSH2 0x133 DUP4 LT AND PUSH1 0x4E DUP5 LT PUSH1 0xB DUP5 LT AND OR ISZERO PUSH2 0x16D5 JUMPI DUP3 DUP3 EXP SWAP1 POP DUP4 DUP2 GT ISZERO PUSH2 0x16D0 JUMPI PUSH2 0x16CF PUSH2 0x1508 JUMP JUMPDEST JUMPDEST PUSH2 0x16FF JUMP JUMPDEST PUSH2 0x16E2 DUP5 DUP5 DUP5 PUSH1 0x1 PUSH2 0x15E3 JUMP JUMPDEST SWAP3 POP SWAP1 POP DUP2 DUP5 DIV DUP2 GT ISZERO PUSH2 0x16F9 JUMPI PUSH2 0x16F8 PUSH2 0x1508 JUMP JUMPDEST JUMPDEST DUP2 DUP2 MUL SWAP1 POP JUMPDEST SWAP4 SWAP3 POP POP POP JUMP JUMPDEST PUSH0 PUSH2 0x1710 DUP3 PUSH2 0x104A JUMP JUMPDEST SWAP2 POP PUSH2 0x171B DUP4 PUSH2 0x1576 JUMP JUMPDEST SWAP3 POP PUSH2 0x1748 PUSH32 0xFFFFFFFFFFFFFFFFFFFFFFFFFFFFFFFFFFFFFFFFFFFFFFFFFFFFFFFFFFFFFFFF DUP5 DUP5 PUSH2 0x1635 JUMP JUMPDEST SWAP1 POP SWAP3 SWAP2 POP POP JUMP JUMPDEST PUSH32 0x4E487B7100000000000000000000000000000000000000000000000000000000 PUSH0 MSTORE PUSH1 0x12 PUSH1 0x4 MSTORE PUSH1 0x24 PUSH0 REVERT JUMPDEST PUSH0 PUSH2 0x1787 DUP3 PUSH2 0x104A JUMP JUMPDEST SWAP2 POP PUSH2 0x1792 DUP4 PUSH2 0x104A JUMP JUMPDEST SWAP3 POP DUP3 PUSH2 0x17A2 JUMPI PUSH2 0x17A1 PUSH2 0x1750 JUMP JUMPDEST JUMPDEST DUP3 DUP3 DIV SWAP1 POP SWAP3 SWAP2 POP POP JUMP JUMPDEST PUSH32 0x796F7520617265206E6F74207065726D69747465640000000000000000000000 PUSH0 DUP3 ADD MSTORE POP JUMP JUMPDEST PUSH0 PUSH2 0x17E1 PUSH1 0x15 DUP4 PUSH2 0x1085 JUMP JUMPDEST SWAP2 POP PUSH2 0x17EC DUP3 PUSH2 0x17AD JUMP JUMPDEST PUSH1 0x20 DUP3 ADD SWAP1 POP SWAP2 SWAP1 POP JUMP JUMPDEST PUSH0 PUSH1 0x20 DUP3 ADD SWAP1 POP DUP2 DUP2 SUB PUSH0 DUP4 ADD MSTORE PUSH2 0x180E DUP2 PUSH2 0x17D5 JUMP JUMPDEST SWAP1 POP SWAP2 SWAP1 POP JUMP JUMPDEST PUSH0 DUP2 MLOAD SWAP1 POP PUSH2 0x1823 DUP2 PUSH2 0x1136 JUMP JUMPDEST SWAP3 SWAP2 POP POP JUMP JUMPDEST PUSH0 PUSH1 0x20 DUP3 DUP5 SUB SLT ISZERO PUSH2 0x183E JUMPI PUSH2 0x183D PUSH2 0x112E JUMP JUMPDEST JUMPDEST PUSH0 PUSH2 0x184B DUP5 DUP3 DUP6 ADD PUSH2 0x1815 JUMP JUMPDEST SWAP2 POP POP SWAP3 SWAP2 POP POP JUMP JUMPDEST PUSH32 0x6E6F7420656E6F75676820706F696E7473000000000000000000000000000000 PUSH0 DUP3 ADD MSTORE POP JUMP JUMPDEST PUSH0 PUSH2 0x1888 PUSH1 0x11 DUP4 PUSH2 0x1085 JUMP JUMPDEST SWAP2 POP PUSH2 0x1893 DUP3 PUSH2 0x1854 JUMP JUMPDEST PUSH1 0x20 DUP3 ADD SWAP1 POP SWAP2 SWAP1 POP JUMP JUMPDEST PUSH0 PUSH1 0x20 DUP3 ADD SWAP1 POP DUP2 DUP2 SUB PUSH0 DUP4 ADD MSTORE PUSH2 0x18B5 DUP2 PUSH2 0x187C JUMP JUMPDEST SWAP1 POP SWAP2 SWAP1 POP JUMP JUMPDEST PUSH32 0x706F696E747320746F2073776170206C657373207468616E206D696E706F696E PUSH0 DUP3 ADD MSTORE PUSH32 0x7473000000000000000000000000000000000000000000000000000000000000 PUSH1 0x20 DUP3 ADD MSTORE POP JUMP JUMPDEST PUSH0 PUSH2 0x1916 PUSH1 0x22 DUP4 PUSH2 0x1085 JUMP JUMPDEST SWAP2 POP PUSH2 0x1921 DUP3 PUSH2 0x18BC JUMP JUMPDEST PUSH1 0x40 DUP3 ADD SWAP1 POP SWAP2 SWAP1 POP JUMP JUMPDEST PUSH0 PUSH1 0x20 DUP3 ADD SWAP1 POP DUP2 DUP2 SUB PUSH0 DUP4 ADD MSTORE PUSH2 0x1943 DUP2 PUSH2 0x190A JUMP JUMPDEST SWAP1 POP SWAP2 SWAP1 POP JUMP JUMPDEST PUSH0 PUSH2 0x1954 DUP3 PUSH2 0x104A JUMP JUMPDEST SWAP2 POP PUSH2 0x195F DUP4 PUSH2 0x104A JUMP JUMPDEST SWAP3 POP DUP3 DUP3 ADD SWAP1 POP DUP1 DUP3 GT ISZERO PUSH2 0x1977 JUMPI PUSH2 0x1976 PUSH2 0x1508 JUMP JUMPDEST JUMPDEST SWAP3 SWAP2 POP POP JUMP JUMPDEST PUSH0 PUSH2 0x1987 DUP3 PUSH2 0x104A JUMP JUMPDEST SWAP2 POP PUSH2 0x1992 DUP4 PUSH2 0x104A JUMP JUMPDEST SWAP3 POP DUP3 DUP3 SUB SWAP1 POP DUP2 DUP2 GT ISZERO PUSH2 0x19AA JUMPI PUSH2 0x19A9 PUSH2 0x1508 JUMP JUMPDEST JUMPDEST SWAP3 SWAP2 POP POP JUMP JUMPDEST PUSH0 PUSH1 0x40 DUP3 ADD SWAP1 POP PUSH2 0x19C3 PUSH0 DUP4 ADD DUP6 PUSH2 0x12BF JUMP JUMPDEST PUSH2 0x19D0 PUSH1 0x20 DUP4 ADD DUP5 PUSH2 0x1053 JUMP JUMPDEST SWAP4 SWAP3 POP POP POP JUMP JUMPDEST PUSH0 DUP2 MLOAD SWAP1 POP PUSH2 0x19E5 DUP2 PUSH2 0x1427 JUMP JUMPDEST SWAP3 SWAP2 POP POP JUMP JUMPDEST PUSH0 PUSH1 0x20 DUP3 DUP5 SUB SLT ISZERO PUSH2 0x1A00 JUMPI PUSH2 0x19FF PUSH2 0x112E JUMP JUMPDEST JUMPDEST PUSH0 PUSH2 0x1A0D DUP5 DUP3 DUP6 ADD PUSH2 0x19D7 JUMP JUMPDEST SWAP2 POP POP SWAP3 SWAP2 POP POP JUMP JUMPDEST PUSH0 PUSH1 0x80 DUP3 ADD SWAP1 POP PUSH2 0x1A29 PUSH0 DUP4 ADD DUP8 PUSH2 0x12BF JUMP JUMPDEST PUSH2 0x1A36 PUSH1 0x20 DUP4 ADD DUP7 PUSH2 0x1053 JUMP JUMPDEST PUSH2 0x1A43 PUSH1 0x40 DUP4 ADD DUP6 PUSH2 0x1053 JUMP JUMPDEST PUSH2 0x1A50 PUSH1 0x60 DUP4 ADD DUP5 PUSH2 0x1053 JUMP JUMPDEST SWAP6 SWAP5 POP POP POP POP POP JUMP JUMPDEST PUSH32 0x4E487B7100000000000000000000000000000000000000000000000000000000 PUSH0 MSTORE PUSH1 0x32 PUSH1 0x4 MSTORE PUSH1 0x24 PUSH0 REVERT INVALID LOG2 PUSH5 0x6970667358 0x22 SLT KECCAK256 DUP9 DELEGATECALL RETURNDATACOPY 0xB3 0x21 0xE2 0xB1 0x5C 0x4F 0xE4 0xC 0xED 0xF6 0x1F 0x22 0xB7 REVERT SLOAD SWAP12 JUMP PUSH9 0xA1BCE418C6F926916F JUMPDEST PUSH21 0x64736F6C6343000816003300000000000000000000 "
				},
				"gasEstimates": {
					"creation": {
						"codeDepositCost": "1368800",
						"executionCost": "infinite",
						"totalCost": "infinite"
					},
					"external": {
						"TotalfeescollectedPaymentCoin()": "2491",
						"checkAmountToRecive(uint256)": "infinite",
						"claimPoints(address,uint256)": "infinite",
						"claimedPaymentCoin()": "2557",
						"depositFee()": "2492",
						"initContractBalancePaymentCoin()": "2449",
						"onlyApprovedAdmin(address)": "2966",
						"owner()": "2560",
						"pointsMin()": "2513",
						"rate()": "2537",
						"renounceOwnership()": "infinite",
						"setApprovedAdmin(address[],bool)": "infinite",
						"setMinPointsToSWap(uint256)": "infinite",
						"setPaymentDepositfees(uint256)": "infinite",
						"setRate(uint256)": "infinite",
						"setWithdrawalFee(uint256)": "infinite",
						"setpaymentTokenAndpoints(address,address)": "infinite",
						"swapToPaymentCoin(address,uint256)": "infinite",
						"transferOwnership(address)": "infinite",
						"vaultName()": "infinite",
						"withdrawalFee()": "2448",
						"withdrawfees(address)": "infinite"
					}
				},
				"methodIdentifiers": {
					"TotalfeescollectedPaymentCoin()": "c4a9e858",
					"checkAmountToRecive(uint256)": "0d461e61",
					"claimPoints(address,uint256)": "966addc0",
					"claimedPaymentCoin()": "fd918716",
					"depositFee()": "67a52793",
					"initContractBalancePaymentCoin()": "06e0e582",
					"onlyApprovedAdmin(address)": "7d91fb46",
					"owner()": "8da5cb5b",
					"pointsMin()": "e1fefd42",
					"rate()": "2c4e722e",
					"renounceOwnership()": "715018a6",
					"setApprovedAdmin(address[],bool)": "945c147b",
					"setMinPointsToSWap(uint256)": "c08e7286",
					"setPaymentDepositfees(uint256)": "76ee947f",
					"setRate(uint256)": "34fcf437",
					"setWithdrawalFee(uint256)": "ac1e5025",
					"setpaymentTokenAndpoints(address,address)": "258ba1ee",
					"swapToPaymentCoin(address,uint256)": "34ef077c",
					"transferOwnership(address)": "f2fde38b",
					"vaultName()": "0ace9ca0",
					"withdrawalFee()": "8bc7e8c4",
					"withdrawfees(address)": "9683cdc4"
				}
			},
			"storageLayout": {
				"storage": [
					{
						"astId": 8,
						"contract": "ribbonVault.sol:vault",
						"label": "_owner",
						"offset": 0,
						"slot": "0",
						"type": "t_address"
					},
					{
						"astId": 225,
						"contract": "ribbonVault.sol:vault",
						"label": "_Ipaymentcoin",
						"offset": 0,
						"slot": "1",
						"type": "t_contract(IERC20T)220"
					},
					{
						"astId": 228,
						"contract": "ribbonVault.sol:vault",
						"label": "_Ipointscoin",
						"offset": 0,
						"slot": "2",
						"type": "t_contract(IERC20T)220"
					},
					{
						"astId": 230,
						"contract": "ribbonVault.sol:vault",
						"label": "depositFee",
						"offset": 0,
						"slot": "3",
						"type": "t_uint256"
					},
					{
						"astId": 232,
						"contract": "ribbonVault.sol:vault",
						"label": "rate",
						"offset": 0,
						"slot": "4",
						"type": "t_uint256"
					},
					{
						"astId": 234,
						"contract": "ribbonVault.sol:vault",
						"label": "withdrawalFee",
						"offset": 0,
						"slot": "5",
						"type": "t_uint256"
					},
					{
						"astId": 236,
						"contract": "ribbonVault.sol:vault",
						"label": "pointsMin",
						"offset": 0,
						"slot": "6",
						"type": "t_uint256"
					},
					{
						"astId": 238,
						"contract": "ribbonVault.sol:vault",
						"label": "initContractBalancePaymentCoin",
						"offset": 0,
						"slot": "7",
						"type": "t_uint256"
					},
					{
						"astId": 240,
						"contract": "ribbonVault.sol:vault",
						"label": "claimedPaymentCoin",
						"offset": 0,
						"slot": "8",
						"type": "t_uint256"
					},
					{
						"astId": 242,
						"contract": "ribbonVault.sol:vault",
						"label": "TotalfeescollectedPaymentCoin",
						"offset": 0,
						"slot": "9",
						"type": "t_uint256"
					},
					{
						"astId": 244,
						"contract": "ribbonVault.sol:vault",
						"label": "vaultName",
						"offset": 0,
						"slot": "10",
						"type": "t_string_storage"
					},
					{
						"astId": 248,
						"contract": "ribbonVault.sol:vault",
						"label": "onlyApprovedAdmin",
						"offset": 0,
						"slot": "11",
						"type": "t_mapping(t_address,t_bool)"
					}
				],
				"types": {
					"t_address": {
						"encoding": "inplace",
						"label": "address",
						"numberOfBytes": "20"
					},
					"t_bool": {
						"encoding": "inplace",
						"label": "bool",
						"numberOfBytes": "1"
					},
					"t_contract(IERC20T)220": {
						"encoding": "inplace",
						"label": "contract IERC20T",
						"numberOfBytes": "20"
					},
					"t_mapping(t_address,t_bool)": {
						"encoding": "mapping",
						"key": "t_address",
						"label": "mapping(address => bool)",
						"numberOfBytes": "32",
						"value": "t_bool"
					},
					"t_string_storage": {
						"encoding": "bytes",
						"label": "string",
						"numberOfBytes": "32"
					},
					"t_uint256": {
						"encoding": "inplace",
						"label": "uint256",
						"numberOfBytes": "32"
					}
				}
			},
			"userdoc": {
				"kind": "user",
				"methods": {},
				"version": 1
			}
		}
	}
}