{
	"data": {
		"bytecode": {
			"linkReferences": {},
			"object": "6080604052600160065534801562000015575f80fd5b50336040518060400160405280600681526020017f506f696e747300000000000000000000000000000000000000000000000000008152506040518060400160405280600381526020017f504e540000000000000000000000000000000000000000000000000000000000815250816003908162000094919062000727565b508060049081620000a6919062000727565b5050505f73ffffffffffffffffffffffffffffffffffffffff168173ffffffffffffffffffffffffffffffffffffffff16036200011c575f6040517f1e4fbdf70000000000000000000000000000000000000000000000000000000081526004016200011391906200084e565b60405180910390fd5b6200012d816200015260201b60201c565b506200014c336b204fce5e3e250261100000006200021560201b60201c565b62000937565b5f60055f9054906101000a900473ffffffffffffffffffffffffffffffffffffffff1690508160055f6101000a81548173ffffffffffffffffffffffffffffffffffffffff021916908373ffffffffffffffffffffffffffffffffffffffff1602179055508173ffffffffffffffffffffffffffffffffffffffff168173ffffffffffffffffffffffffffffffffffffffff167f8be0079c531659141344cd1fd0a4f28419497f9722a3daafe3b4186f6b6457e060405160405180910390a35050565b5f73ffffffffffffffffffffffffffffffffffffffff168273ffffffffffffffffffffffffffffffffffffffff160362000288575f6040517fec442f050000000000000000000000000000000000000000000000000000000081526004016200027f91906200084e565b60405180910390fd5b6200029b5f83836200029f60201b60201c565b5050565b5f73ffffffffffffffffffffffffffffffffffffffff168373ffffffffffffffffffffffffffffffffffffffff1603620002f3578060025f828254620002e6919062000896565b92505081905550620003c4565b5f805f8573ffffffffffffffffffffffffffffffffffffffff1673ffffffffffffffffffffffffffffffffffffffff1681526020019081526020015f20549050818110156200037f578381836040517fe450d38c0000000000000000000000000000000000000000000000000000000081526004016200037693929190620008e1565b60405180910390fd5b8181035f808673ffffffffffffffffffffffffffffffffffffffff1673ffffffffffffffffffffffffffffffffffffffff1681526020019081526020015f2081905550505b5f73ffffffffffffffffffffffffffffffffffffffff168273ffffffffffffffffffffffffffffffffffffffff16036200040d578060025f828254039250508190555062000457565b805f808473ffffffffffffffffffffffffffffffffffffffff1673ffffffffffffffffffffffffffffffffffffffff1681526020019081526020015f205f82825401925050819055505b8173ffffffffffffffffffffffffffffffffffffffff168373ffffffffffffffffffffffffffffffffffffffff167fddf252ad1be2c89b69c2b068fc378daa952ba7f163c4a11628f55a4df523b3ef83604051620004b691906200091c565b60405180910390a3505050565b5f81519050919050565b7f4e487b71000000000000000000000000000000000000000000000000000000005f52604160045260245ffd5b7f4e487b71000000000000000000000000000000000000000000000000000000005f52602260045260245ffd5b5f60028204905060018216806200053f57607f821691505b602082108103620005555762000554620004fa565b5b50919050565b5f819050815f5260205f209050919050565b5f6020601f8301049050919050565b5f82821b905092915050565b5f60088302620005b97fffffffffffffffffffffffffffffffffffffffffffffffffffffffffffffffff826200057c565b620005c586836200057c565b95508019841693508086168417925050509392505050565b5f819050919050565b5f819050919050565b5f6200060f620006096200060384620005dd565b620005e6565b620005dd565b9050919050565b5f819050919050565b6200062a83620005ef565b62000642620006398262000616565b84845462000588565b825550505050565b5f90565b620006586200064a565b620006658184846200061f565b505050565b5b818110156200068c57620006805f826200064e565b6001810190506200066b565b5050565b601f821115620006db57620006a5816200055b565b620006b0846200056d565b81016020851015620006c0578190505b620006d8620006cf856200056d565b8301826200066a565b50505b505050565b5f82821c905092915050565b5f620006fd5f1984600802620006e0565b1980831691505092915050565b5f620007178383620006ec565b9150826002028217905092915050565b6200073282620004c3565b67ffffffffffffffff8111156200074e576200074d620004cd565b5b6200075a825462000527565b6200076782828562000690565b5f60209050601f8311600181146200079d575f841562000788578287015190505b6200079485826200070a565b86555062000803565b601f198416620007ad866200055b565b5f5b82811015620007d657848901518255600182019150602085019450602081019050620007af565b86831015620007f65784890151620007f2601f891682620006ec565b8355505b6001600288020188555050505b505050505050565b5f73ffffffffffffffffffffffffffffffffffffffff82169050919050565b5f62000836826200080b565b9050919050565b62000848816200082a565b82525050565b5f602082019050620008635f8301846200083d565b92915050565b7f4e487b71000000000000000000000000000000000000000000000000000000005f52601160045260245ffd5b5f620008a282620005dd565b9150620008af83620005dd565b9250828201905080821115620008ca57620008c962000869565b5b92915050565b620008db81620005dd565b82525050565b5f606082019050620008f65f8301866200083d565b620009056020830185620008d0565b620009146040830184620008d0565b949350505050565b5f602082019050620009315f830184620008d0565b92915050565b6143a980620009455f395ff3fe608060405234801562000010575f80fd5b50600436106200012e575f3560e01c8063715018a611620000af578063a9059cbb1162000079578063a9059cbb1462000321578063d0a5e51e1462000357578063dd62ed3e1462000379578063ea83cbf414620003af578063f2fde38b14620003e5576200012e565b8063715018a614620002b15780638da5cb5b14620002bd57806395d89b4114620002df5780639dc29fac1462000301576200012e565b806323b872dd11620000fd57806323b872dd14620001e35780632850fa6f1462000219578063313ce567146200023957806340c10f19146200025b57806370a08231146200027b576200012e565b806306fdde031462000132578063095ea7b3146200015457806309b77eef146200018a57806318160ddd14620001c1575b5f80fd5b6200013c62000405565b6040516200014b9190620014cf565b60405180910390f35b6200017260048036038101906200016c91906200159b565b6200049d565b604051620001819190620015fc565b60405180910390f35b620001a86004803603810190620001a2919062001617565b620004c3565b604051620001b892919062001658565b60405180910390f35b620001cb62000590565b604051620001da91906200169b565b60405180910390f35b620002016004803603810190620001fb9190620016b6565b62000599565b604051620002109190620015fc565b60405180910390f35b6200023760048036038101906200023191906200173e565b620005cd565b005b62000243620005e7565b604051620002529190620017a0565b60405180910390f35b6200027960048036038101906200027391906200159b565b620005ef565b005b620002996004803603810190620002939190620017bb565b62000609565b604051620002a891906200169b565b60405180910390f35b620002bb6200064e565b005b620002c762000665565b604051620002d69190620017eb565b60405180910390f35b620002e96200068d565b604051620002f89190620014cf565b60405180910390f35b6200031f60048036038101906200031991906200159b565b62000725565b005b6200033f60048036038101906200033991906200159b565b620007c8565b6040516200034e9190620015fc565b60405180910390f35b62000361620007ee565b6040516200037091906200169b565b60405180910390f35b62000397600480360381019062000391919062001806565b620007f4565b604051620003a691906200169b565b60405180910390f35b620003cd6004803603810190620003c7919062001993565b62000876565b604051620003dc919062001ac0565b60405180910390f35b620004036004803603810190620003fd9190620017bb565b62000b17565b005b606060038054620004169062001b0f565b80601f0160208091040260200160405190810160405280929190818152602001828054620004449062001b0f565b8015620004935780601f10620004695761010080835404028352916020019162000493565b820191905f5260205f20905b8154815290600101906020018083116200047557829003601f168201915b5050505050905090565b5f80620004a962000ba2565b9050620004b881858562000ba9565b600191505092915050565b6008602052805f5260405f205f91509050805f015f9054906101000a900473ffffffffffffffffffffffffffffffffffffffff1690806001018054620005099062001b0f565b80601f0160208091040260200160405190810160405280929190818152602001828054620005379062001b0f565b8015620005865780601f106200055c5761010080835404028352916020019162000586565b820191905f5260205f20905b8154815290600101906020018083116200056857829003601f168201915b5050505050905082565b5f600254905090565b5f80620005a562000ba2565b9050620005b485828562000bbd565b620005c185858562000c57565b60019150509392505050565b620005d762000d4f565b620005e3828262000ddf565b5050565b5f6012905090565b620005f962000d4f565b62000605828262000e37565b5050565b5f805f8373ffffffffffffffffffffffffffffffffffffffff1673ffffffffffffffffffffffffffffffffffffffff1681526020019081526020015f20549050919050565b6200065862000d4f565b620006635f62000ebb565b565b5f60055f9054906101000a900473ffffffffffffffffffffffffffffffffffffffff16905090565b6060600480546200069e9062001b0f565b80601f0160208091040260200160405190810160405280929190818152602001828054620006cc9062001b0f565b80156200071b5780601f10620006f1576101008083540402835291602001916200071b565b820191905f5260205f20905b815481529060010190602001808311620006fd57829003601f168201915b5050505050905090565b6001151560095f3373ffffffffffffffffffffffffffffffffffffffff1673ffffffffffffffffffffffffffffffffffffffff1681526020019081526020015f205f9054906101000a900460ff16151514620007b8576040517f08c379a0000000000000000000000000000000000000000000000000000000008152600401620007af9062001b91565b60405180910390fd5b620007c4828262000f7e565b5050565b5f80620007d462000ba2565b9050620007e381858562000c57565b600191505092915050565b60065481565b5f60015f8473ffffffffffffffffffffffffffffffffffffffff1673ffffffffffffffffffffffffffffffffffffffff1681526020019081526020015f205f8373ffffffffffffffffffffffffffffffffffffffff1673ffffffffffffffffffffffffffffffffffffffff1681526020019081526020015f2054905092915050565b62000880620013fe565b6200088a62000d4f565b5f60085f60065481526020019081526020015f2090505f1515600787604051620008b5919062001bf1565b90815260200160405180910390205f9054906101000a900460ff1615151462000915576040517f08c379a00000000000000000000000000000000000000000000000000000000081526004016200090c9062001c57565b60405180910390fd5b600160078760405162000929919062001bf1565b90815260200160405180910390205f6101000a81548160ff0219169083151502179055505f8587863060405162000960906200142d565b6200096f949392919062001c77565b604051809103905ff08015801562000989573d5f803e3d5ffd5b50905080825f015f6101000a81548173ffffffffffffffffffffffffffffffffffffffff021916908373ffffffffffffffffffffffffffffffffffffffff16021790555086826001019081620009e0919062001e8c565b50620009ed818562000e37565b60065f81548092919062000a019062001f9d565b919050555062000a1381600162000ddf565b816040518060400160405290815f82015f9054906101000a900473ffffffffffffffffffffffffffffffffffffffff1673ffffffffffffffffffffffffffffffffffffffff1673ffffffffffffffffffffffffffffffffffffffff16815260200160018201805462000a859062001b0f565b80601f016020809104026020016040519081016040528092919081815260200182805462000ab39062001b0f565b801562000b025780601f1062000ad85761010080835404028352916020019162000b02565b820191905f5260205f20905b81548152906001019060200180831162000ae457829003601f168201915b50505050508152505092505050949350505050565b62000b2162000d4f565b5f73ffffffffffffffffffffffffffffffffffffffff168173ffffffffffffffffffffffffffffffffffffffff160362000b94575f6040517f1e4fbdf700000000000000000000000000000000000000000000000000000000815260040162000b8b9190620017eb565b60405180910390fd5b62000b9f8162000ebb565b50565b5f33905090565b62000bb8838383600162001002565b505050565b5f62000bca8484620007f4565b90507fffffffffffffffffffffffffffffffffffffffffffffffffffffffffffffffff811462000c51578181101562000c40578281836040517ffb8f41b200000000000000000000000000000000000000000000000000000000815260040162000c379392919062001fe9565b60405180910390fd5b62000c5084848484035f62001002565b5b50505050565b5f73ffffffffffffffffffffffffffffffffffffffff168373ffffffffffffffffffffffffffffffffffffffff160362000cca575f6040517f96c6fd1e00000000000000000000000000000000000000000000000000000000815260040162000cc19190620017eb565b60405180910390fd5b5f73ffffffffffffffffffffffffffffffffffffffff168273ffffffffffffffffffffffffffffffffffffffff160362000d3d575f6040517fec442f0500000000000000000000000000000000000000000000000000000000815260040162000d349190620017eb565b60405180910390fd5b62000d4a838383620011da565b505050565b62000d5962000ba2565b73ffffffffffffffffffffffffffffffffffffffff1662000d7962000665565b73ffffffffffffffffffffffffffffffffffffffff161462000ddd5762000d9f62000ba2565b6040517f118cdaa700000000000000000000000000000000000000000000000000000000815260040162000dd49190620017eb565b60405180910390fd5b565b8060095f8473ffffffffffffffffffffffffffffffffffffffff1673ffffffffffffffffffffffffffffffffffffffff1681526020019081526020015f205f6101000a81548160ff0219169083151502179055505050565b5f73ffffffffffffffffffffffffffffffffffffffff168273ffffffffffffffffffffffffffffffffffffffff160362000eaa575f6040517fec442f0500000000000000000000000000000000000000000000000000000000815260040162000ea19190620017eb565b60405180910390fd5b62000eb75f8383620011da565b5050565b5f60055f9054906101000a900473ffffffffffffffffffffffffffffffffffffffff1690508160055f6101000a81548173ffffffffffffffffffffffffffffffffffffffff021916908373ffffffffffffffffffffffffffffffffffffffff1602179055508173ffffffffffffffffffffffffffffffffffffffff168173ffffffffffffffffffffffffffffffffffffffff167f8be0079c531659141344cd1fd0a4f28419497f9722a3daafe3b4186f6b6457e060405160405180910390a35050565b5f73ffffffffffffffffffffffffffffffffffffffff168273ffffffffffffffffffffffffffffffffffffffff160362000ff1575f6040517f96c6fd1e00000000000000000000000000000000000000000000000000000000815260040162000fe89190620017eb565b60405180910390fd5b62000ffe825f83620011da565b5050565b5f73ffffffffffffffffffffffffffffffffffffffff168473ffffffffffffffffffffffffffffffffffffffff160362001075575f6040517fe602df050000000000000000000000000000000000000000000000000000000081526004016200106c9190620017eb565b60405180910390fd5b5f73ffffffffffffffffffffffffffffffffffffffff168373ffffffffffffffffffffffffffffffffffffffff1603620010e8575f6040517f94280d62000000000000000000000000000000000000000000000000000000008152600401620010df9190620017eb565b60405180910390fd5b8160015f8673ffffffffffffffffffffffffffffffffffffffff1673ffffffffffffffffffffffffffffffffffffffff1681526020019081526020015f205f8573ffffffffffffffffffffffffffffffffffffffff1673ffffffffffffffffffffffffffffffffffffffff1681526020019081526020015f20819055508015620011d4578273ffffffffffffffffffffffffffffffffffffffff168473ffffffffffffffffffffffffffffffffffffffff167f8c5be1e5ebec7d5bd14f71427d1e84f3dd0314c0f7b2291e5b200ac8c7c3b92584604051620011cb91906200169b565b60405180910390a35b50505050565b5f73ffffffffffffffffffffffffffffffffffffffff168373ffffffffffffffffffffffffffffffffffffffff16036200122e578060025f82825462001221919062002024565b92505081905550620012ff565b5f805f8573ffffffffffffffffffffffffffffffffffffffff1673ffffffffffffffffffffffffffffffffffffffff1681526020019081526020015f2054905081811015620012ba578381836040517fe450d38c000000000000000000000000000000000000000000000000000000008152600401620012b19392919062001fe9565b60405180910390fd5b8181035f808673ffffffffffffffffffffffffffffffffffffffff1673ffffffffffffffffffffffffffffffffffffffff1681526020019081526020015f2081905550505b5f73ffffffffffffffffffffffffffffffffffffffff168273ffffffffffffffffffffffffffffffffffffffff160362001348578060025f828254039250508190555062001392565b805f808473ffffffffffffffffffffffffffffffffffffffff1673ffffffffffffffffffffffffffffffffffffffff1681526020019081526020015f205f82825401925050819055505b8173ffffffffffffffffffffffffffffffffffffffff168373ffffffffffffffffffffffffffffffffffffffff167fddf252ad1be2c89b69c2b068fc378daa952ba7f163c4a11628f55a4df523b3ef83604051620013f191906200169b565b60405180910390a3505050565b60405180604001604052805f73ffffffffffffffffffffffffffffffffffffffff168152602001606081525090565b612315806200205f83390190565b5f81519050919050565b5f82825260208201905092915050565b5f5b838110156200147457808201518184015260208101905062001457565b5f8484015250505050565b5f601f19601f8301169050919050565b5f6200149b826200143b565b620014a7818562001445565b9350620014b981856020860162001455565b620014c4816200147f565b840191505092915050565b5f6020820190508181035f830152620014e981846200148f565b905092915050565b5f604051905090565b5f80fd5b5f80fd5b5f73ffffffffffffffffffffffffffffffffffffffff82169050919050565b5f6200152d8262001502565b9050919050565b6200153f8162001521565b81146200154a575f80fd5b50565b5f813590506200155d8162001534565b92915050565b5f819050919050565b620015778162001563565b811462001582575f80fd5b50565b5f8135905062001595816200156c565b92915050565b5f8060408385031215620015b457620015b3620014fa565b5b5f620015c3858286016200154d565b9250506020620015d68582860162001585565b9150509250929050565b5f8115159050919050565b620015f681620015e0565b82525050565b5f602082019050620016115f830184620015eb565b92915050565b5f602082840312156200162f576200162e620014fa565b5b5f6200163e8482850162001585565b91505092915050565b620016528162001521565b82525050565b5f6040820190506200166d5f83018562001647565b81810360208301526200168181846200148f565b90509392505050565b620016958162001563565b82525050565b5f602082019050620016b05f8301846200168a565b92915050565b5f805f60608486031215620016d057620016cf620014fa565b5b5f620016df868287016200154d565b9350506020620016f2868287016200154d565b9250506040620017058682870162001585565b9150509250925092565b6200171a81620015e0565b811462001725575f80fd5b50565b5f8135905062001738816200170f565b92915050565b5f8060408385031215620017575762001756620014fa565b5b5f62001766858286016200154d565b9250506020620017798582860162001728565b9150509250929050565b5f60ff82169050919050565b6200179a8162001783565b82525050565b5f602082019050620017b55f8301846200178f565b92915050565b5f60208284031215620017d357620017d2620014fa565b5b5f620017e2848285016200154d565b91505092915050565b5f602082019050620018005f83018462001647565b92915050565b5f80604083850312156200181f576200181e620014fa565b5b5f6200182e858286016200154d565b925050602062001841858286016200154d565b9150509250929050565b5f80fd5b5f80fd5b7f4e487b71000000000000000000000000000000000000000000000000000000005f52604160045260245ffd5b6200188b826200147f565b810181811067ffffffffffffffff82111715620018ad57620018ac62001853565b5b80604052505050565b5f620018c1620014f1565b9050620018cf828262001880565b919050565b5f67ffffffffffffffff821115620018f157620018f062001853565b5b620018fc826200147f565b9050602081019050919050565b828183375f83830152505050565b5f6200192d6200192784620018d4565b620018b6565b9050828152602081018484840111156200194c576200194b6200184f565b5b6200195984828562001909565b509392505050565b5f82601f8301126200197857620019776200184b565b5b81356200198a84826020860162001917565b91505092915050565b5f805f8060808587031215620019ae57620019ad620014fa565b5b5f85013567ffffffffffffffff811115620019ce57620019cd620014fe565b5b620019dc8782880162001961565b9450506020620019ef878288016200154d565b935050604062001a02878288016200154d565b925050606062001a158782880162001585565b91505092959194509250565b62001a2c8162001521565b82525050565b5f82825260208201905092915050565b5f62001a4e826200143b565b62001a5a818562001a32565b935062001a6c81856020860162001455565b62001a77816200147f565b840191505092915050565b5f604083015f83015162001a995f86018262001a21565b506020830151848203602086015262001ab3828262001a42565b9150508091505092915050565b5f6020820190508181035f83015262001ada818462001a82565b905092915050565b7f4e487b71000000000000000000000000000000000000000000000000000000005f52602260045260245ffd5b5f600282049050600182168062001b2757607f821691505b60208210810362001b3d5762001b3c62001ae2565b5b50919050565b7f796f7520617265206e6f7420617070726f76656420746f206275726e000000005f82015250565b5f62001b79601c8362001445565b915062001b868262001b43565b602082019050919050565b5f6020820190508181035f83015262001baa8162001b6b565b9050919050565b5f81905092915050565b5f62001bc7826200143b565b62001bd3818562001bb1565b935062001be581856020860162001455565b80840191505092915050565b5f62001bfe828462001bbb565b915081905092915050565b7f6e616d652074616b656e000000000000000000000000000000000000000000005f82015250565b5f62001c3f600a8362001445565b915062001c4c8262001c09565b602082019050919050565b5f6020820190508181035f83015262001c708162001c31565b9050919050565b5f60808201905062001c8c5f83018762001647565b818103602083015262001ca081866200148f565b905062001cb1604083018562001647565b62001cc0606083018462001647565b95945050505050565b5f819050815f5260205f209050919050565b5f6020601f8301049050919050565b5f82821b905092915050565b5f6008830262001d277fffffffffffffffffffffffffffffffffffffffffffffffffffffffffffffffff8262001cea565b62001d33868362001cea565b95508019841693508086168417925050509392505050565b5f819050919050565b5f62001d7462001d6e62001d688462001563565b62001d4b565b62001563565b9050919050565b5f819050919050565b62001d8f8362001d54565b62001da762001d9e8262001d7b565b84845462001cf6565b825550505050565b5f90565b62001dbd62001daf565b62001dca81848462001d84565b505050565b5b8181101562001df15762001de55f8262001db3565b60018101905062001dd0565b5050565b601f82111562001e405762001e0a8162001cc9565b62001e158462001cdb565b8101602085101562001e25578190505b62001e3d62001e348562001cdb565b83018262001dcf565b50505b505050565b5f82821c905092915050565b5f62001e625f198460080262001e45565b1980831691505092915050565b5f62001e7c838362001e51565b9150826002028217905092915050565b62001e97826200143b565b67ffffffffffffffff81111562001eb35762001eb262001853565b5b62001ebf825462001b0f565b62001ecc82828562001df5565b5f60209050601f83116001811462001f02575f841562001eed578287015190505b62001ef9858262001e6f565b86555062001f68565b601f19841662001f128662001cc9565b5f5b8281101562001f3b5784890151825560018201915060208501945060208101905062001f14565b8683101562001f5b578489015162001f57601f89168262001e51565b8355505b6001600288020188555050505b505050505050565b7f4e487b71000000000000000000000000000000000000000000000000000000005f52601160045260245ffd5b5f62001fa98262001563565b91507fffffffffffffffffffffffffffffffffffffffffffffffffffffffffffffffff820362001fde5762001fdd62001f70565b5b600182019050919050565b5f60608201905062001ffe5f83018662001647565b6200200d60208301856200168a565b6200201c60408301846200168a565b949350505050565b5f620020308262001563565b91506200203d8362001563565b925082820190508082111562002058576200205762001f70565b5b9291505056fe608060405234801562000010575f80fd5b506040516200231538038062002315833981810160405281019062000036919062000476565b835f73ffffffffffffffffffffffffffffffffffffffff168173ffffffffffffffffffffffffffffffffffffffff1603620000aa575f6040517f1e4fbdf7000000000000000000000000000000000000000000000000000000008152600401620000a1919062000515565b60405180910390fd5b620000bb81620001cf60201b60201c565b5082600a9081620000cd919062000767565b50600a60038190555061138860048190555069021e19e0c9bab24000006006819055508160015f6101000a81548173ffffffffffffffffffffffffffffffffffffffff021916908373ffffffffffffffffffffffffffffffffffffffff1602179055508060025f6101000a81548173ffffffffffffffffffffffffffffffffffffffff021916908373ffffffffffffffffffffffffffffffffffffffff1602179055506001600b5f8673ffffffffffffffffffffffffffffffffffffffff1673ffffffffffffffffffffffffffffffffffffffff1681526020019081526020015f205f6101000a81548160ff021916908315150217905550505050506200084b565b5f805f9054906101000a900473ffffffffffffffffffffffffffffffffffffffff169050815f806101000a81548173ffffffffffffffffffffffffffffffffffffffff021916908373ffffffffffffffffffffffffffffffffffffffff1602179055508173ffffffffffffffffffffffffffffffffffffffff168173ffffffffffffffffffffffffffffffffffffffff167f8be0079c531659141344cd1fd0a4f28419497f9722a3daafe3b4186f6b6457e060405160405180910390a35050565b5f604051905090565b5f80fd5b5f80fd5b5f73ffffffffffffffffffffffffffffffffffffffff82169050919050565b5f620002cc82620002a1565b9050919050565b620002de81620002c0565b8114620002e9575f80fd5b50565b5f81519050620002fc81620002d3565b92915050565b5f80fd5b5f80fd5b5f601f19601f8301169050919050565b7f4e487b71000000000000000000000000000000000000000000000000000000005f52604160045260245ffd5b62000352826200030a565b810181811067ffffffffffffffff821117156200037457620003736200031a565b5b80604052505050565b5f6200038862000290565b905062000396828262000347565b919050565b5f67ffffffffffffffff821115620003b857620003b76200031a565b5b620003c3826200030a565b9050602081019050919050565b5f5b83811015620003ef578082015181840152602081019050620003d2565b5f8484015250505050565b5f620004106200040a846200039b565b6200037d565b9050828152602081018484840111156200042f576200042e62000306565b5b6200043c848285620003d0565b509392505050565b5f82601f8301126200045b576200045a62000302565b5b81516200046d848260208601620003fa565b91505092915050565b5f805f806080858703121562000491576200049062000299565b5b5f620004a087828801620002ec565b945050602085015167ffffffffffffffff811115620004c457620004c36200029d565b5b620004d28782880162000444565b9350506040620004e587828801620002ec565b9250506060620004f887828801620002ec565b91505092959194509250565b6200050f81620002c0565b82525050565b5f6020820190506200052a5f83018462000504565b92915050565b5f81519050919050565b7f4e487b71000000000000000000000000000000000000000000000000000000005f52602260045260245ffd5b5f60028204905060018216806200057f57607f821691505b6020821081036200059557620005946200053a565b5b50919050565b5f819050815f5260205f209050919050565b5f6020601f8301049050919050565b5f82821b905092915050565b5f60088302620005f97fffffffffffffffffffffffffffffffffffffffffffffffffffffffffffffffff82620005bc565b620006058683620005bc565b95508019841693508086168417925050509392505050565b5f819050919050565b5f819050919050565b5f6200064f6200064962000643846200061d565b62000626565b6200061d565b9050919050565b5f819050919050565b6200066a836200062f565b62000682620006798262000656565b848454620005c8565b825550505050565b5f90565b620006986200068a565b620006a58184846200065f565b505050565b5b81811015620006cc57620006c05f826200068e565b600181019050620006ab565b5050565b601f8211156200071b57620006e5816200059b565b620006f084620005ad565b8101602085101562000700578190505b620007186200070f85620005ad565b830182620006aa565b50505b505050565b5f82821c905092915050565b5f6200073d5f198460080262000720565b1980831691505092915050565b5f6200075783836200072c565b9150826002028217905092915050565b620007728262000530565b67ffffffffffffffff8111156200078e576200078d6200031a565b5b6200079a825462000567565b620007a7828285620006d0565b5f60209050601f831160018114620007dd575f8415620007c8578287015190505b620007d485826200074a565b86555062000843565b601f198416620007ed866200059b565b5f5b828110156200081657848901518255600182019150602085019450602081019050620007ef565b8683101562000836578489015162000832601f8916826200072c565b8355505b6001600288020188555050505b505050505050565b611abc80620008595f395ff3fe608060405234801561000f575f80fd5b5060043610610140575f3560e01c80638bc7e8c4116100b6578063ac1e50251161007a578063ac1e502514610326578063c08e728614610342578063c4a9e8581461035e578063e1fefd421461037c578063f2fde38b1461039a578063fd918716146103b657610140565b80638bc7e8c4146102965780638da5cb5b146102b4578063945c147b146102d2578063966addc0146102ee5780639683cdc41461030a57610140565b806334ef077c1161010857806334ef077c146101ea57806334fcf4371461020657806367a5279314610222578063715018a61461024057806376ee947f1461024a5780637d91fb461461026657610140565b806306e0e582146101445780630ace9ca0146101625780630d461e6114610180578063258ba1ee146101b05780632c4e722e146101cc575b5f80fd5b61014c6103d4565b6040516101599190611062565b60405180910390f35b61016a6103da565b6040516101779190611105565b60405180910390f35b61019a60048036038101906101959190611160565b610466565b6040516101a79190611062565b60405180910390f35b6101ca60048036038101906101c591906111e5565b610544565b005b6101d46105d0565b6040516101e19190611062565b60405180910390f35b61020460048036038101906101ff9190611223565b6105d6565b005b610220600480360381019061021b9190611160565b6109dd565b005b61022a6109ef565b6040516102379190611062565b60405180910390f35b6102486109f5565b005b610264600480360381019061025f9190611160565b610a08565b005b610280600480360381019061027b9190611261565b610a1a565b60405161028d91906112a6565b60405180910390f35b61029e610a37565b6040516102ab9190611062565b60405180910390f35b6102bc610a3d565b6040516102c991906112ce565b60405180910390f35b6102ec60048036038101906102e79190611451565b610a64565b005b61030860048036038101906103039190611223565b610af7565b005b610324600480360381019061031f9190611261565b610c6f565b005b610340600480360381019061033b9190611160565b610e2e565b005b61035c60048036038101906103579190611160565b610e40565b005b610366610e65565b6040516103739190611062565b60405180910390f35b610384610e6b565b6040516103919190611062565b60405180910390f35b6103b460048036038101906103af9190611261565b610e71565b005b6103be610ef5565b6040516103cb9190611062565b60405180910390f35b60075481565b600a80546103e7906114d8565b80601f0160208091040260200160405190810160405280929190818152602001828054610413906114d8565b801561045e5780601f106104355761010080835404028352916020019161045e565b820191905f5260205f20905b81548152906001019060200180831161044157829003601f168201915b505050505081565b5f80670de0b6b3a764000060045461047e9190611535565b60015f9054906101000a900473ffffffffffffffffffffffffffffffffffffffff1673ffffffffffffffffffffffffffffffffffffffff1663313ce5676040518163ffffffff1660e01b8152600401602060405180830381865afa1580156104e8573d5f803e3d5ffd5b505050506040513d601f19601f8201168201806040525081019061050c91906115ac565b600a6105189190611706565b6001856105259190611535565b61052f9190611535565b610539919061177d565b905080915050919050565b61054c610efb565b8160015f6101000a81548173ffffffffffffffffffffffffffffffffffffffff021916908373ffffffffffffffffffffffffffffffffffffffff1602179055508060025f6101000a81548173ffffffffffffffffffffffffffffffffffffffff021916908373ffffffffffffffffffffffffffffffffffffffff1602179055505050565b60045481565b60011515600b5f3373ffffffffffffffffffffffffffffffffffffffff1673ffffffffffffffffffffffffffffffffffffffff1681526020019081526020015f205f9054906101000a900460ff16151514610666576040517f08c379a000000000000000000000000000000000000000000000000000000000815260040161065d906117f7565b60405180910390fd5b8060025f9054906101000a900473ffffffffffffffffffffffffffffffffffffffff1673ffffffffffffffffffffffffffffffffffffffff166370a08231846040518263ffffffff1660e01b81526004016106c191906112ce565b602060405180830381865afa1580156106dc573d5f803e3d5ffd5b505050506040513d601f19601f820116820180604052508101906107009190611829565b1015610741576040517f08c379a00000000000000000000000000000000000000000000000000000000081526004016107389061189e565b60405180910390fd5b600654811015610786576040517f08c379a000000000000000000000000000000000000000000000000000000000815260040161077d9061192c565b60405180910390fd5b5f61079082610466565b90508060085f8282546107a3919061194a565b925050819055505f6064600554836107bb9190611535565b6107c5919061177d565b90505f81836107d4919061197d565b905060025f9054906101000a900473ffffffffffffffffffffffffffffffffffffffff1673ffffffffffffffffffffffffffffffffffffffff16639dc29fac86866040518363ffffffff1660e01b81526004016108329291906119b0565b5f604051808303815f87803b158015610849575f80fd5b505af115801561085b573d5f803e3d5ffd5b5050505060015f9054906101000a900473ffffffffffffffffffffffffffffffffffffffff1673ffffffffffffffffffffffffffffffffffffffff1663a9059cbb86836040518363ffffffff1660e01b81526004016108bb9291906119b0565b6020604051808303815f875af11580156108d7573d5f803e3d5ffd5b505050506040513d601f19601f820116820180604052508101906108fb91906119eb565b5060015f9054906101000a900473ffffffffffffffffffffffffffffffffffffffff1673ffffffffffffffffffffffffffffffffffffffff1663a9059cbb33846040518363ffffffff1660e01b81526004016109589291906119b0565b6020604051808303815f875af1158015610974573d5f803e3d5ffd5b505050506040513d601f19601f8201168201806040525081019061099891906119eb565b507fc9ec92487a51a4894b66e92fa35d58109271421843b717e764249309f96ab9b5858583856040516109ce9493929190611a16565b60405180910390a15050505050565b6109e5610efb565b8060048190555050565b60035481565b6109fd610efb565b610a065f610f82565b565b610a10610efb565b8060038190555050565b600b602052805f5260405f205f915054906101000a900460ff1681565b60055481565b5f805f9054906101000a900473ffffffffffffffffffffffffffffffffffffffff16905090565b610a6c610efb565b5f5b8251811015610af25781600b5f858481518110610a8e57610a8d611a59565b5b602002602001015173ffffffffffffffffffffffffffffffffffffffff1673ffffffffffffffffffffffffffffffffffffffff1681526020019081526020015f205f6101000a81548160ff0219169083151502179055508080600101915050610a6e565b505050565b60011515600b5f3373ffffffffffffffffffffffffffffffffffffffff1673ffffffffffffffffffffffffffffffffffffffff1681526020019081526020015f205f9054906101000a900460ff16151514610b87576040517f08c379a0000000000000000000000000000000000000000000000000000000008152600401610b7e906117f7565b60405180910390fd5b600654811015610b95575f80fd5b60025f9054906101000a900473ffffffffffffffffffffffffffffffffffffffff1673ffffffffffffffffffffffffffffffffffffffff1663a9059cbb83836040518363ffffffff1660e01b8152600401610bf19291906119b0565b6020604051808303815f875af1158015610c0d573d5f803e3d5ffd5b505050506040513d601f19601f82011682018060405250810190610c3191906119eb565b507fba953728785de35be3827ee7a7a7867a8472947562602939440e6c0bdbf4725e8282604051610c639291906119b0565b60405180910390a15050565b610c77610efb565b5f60015f9054906101000a900473ffffffffffffffffffffffffffffffffffffffff1673ffffffffffffffffffffffffffffffffffffffff166370a08231306040518263ffffffff1660e01b8152600401610cd291906112ce565b602060405180830381865afa158015610ced573d5f803e3d5ffd5b505050506040513d601f19601f82011682018060405250810190610d119190611829565b90505f60075460095460085484610d28919061194a565b610d32919061194a565b610d3c919061197d565b90508060075f828254610d4f919061194a565b925050819055505f606460035483610d679190611535565b610d71919061177d565b90508060095f828254610d84919061194a565b9250508190555060015f9054906101000a900473ffffffffffffffffffffffffffffffffffffffff1673ffffffffffffffffffffffffffffffffffffffff1663a9059cbb85836040518363ffffffff1660e01b8152600401610de79291906119b0565b6020604051808303815f875af1158015610e03573d5f803e3d5ffd5b505050506040513d601f19601f82011682018060405250810190610e2791906119eb565b5050505050565b610e36610efb565b8060058190555050565b610e48610efb565b670de0b6b3a764000081610e5c9190611535565b60068190555050565b60095481565b60065481565b610e79610efb565b5f73ffffffffffffffffffffffffffffffffffffffff168173ffffffffffffffffffffffffffffffffffffffff1603610ee9575f6040517f1e4fbdf7000000000000000000000000000000000000000000000000000000008152600401610ee091906112ce565b60405180910390fd5b610ef281610f82565b50565b60085481565b610f03611043565b73ffffffffffffffffffffffffffffffffffffffff16610f21610a3d565b73ffffffffffffffffffffffffffffffffffffffff1614610f8057610f44611043565b6040517f118cdaa7000000000000000000000000000000000000000000000000000000008152600401610f7791906112ce565b60405180910390fd5b565b5f805f9054906101000a900473ffffffffffffffffffffffffffffffffffffffff169050815f806101000a81548173ffffffffffffffffffffffffffffffffffffffff021916908373ffffffffffffffffffffffffffffffffffffffff1602179055508173ffffffffffffffffffffffffffffffffffffffff168173ffffffffffffffffffffffffffffffffffffffff167f8be0079c531659141344cd1fd0a4f28419497f9722a3daafe3b4186f6b6457e060405160405180910390a35050565b5f33905090565b5f819050919050565b61105c8161104a565b82525050565b5f6020820190506110755f830184611053565b92915050565b5f81519050919050565b5f82825260208201905092915050565b5f5b838110156110b2578082015181840152602081019050611097565b5f8484015250505050565b5f601f19601f8301169050919050565b5f6110d78261107b565b6110e18185611085565b93506110f1818560208601611095565b6110fa816110bd565b840191505092915050565b5f6020820190508181035f83015261111d81846110cd565b905092915050565b5f604051905090565b5f80fd5b5f80fd5b61113f8161104a565b8114611149575f80fd5b50565b5f8135905061115a81611136565b92915050565b5f602082840312156111755761117461112e565b5b5f6111828482850161114c565b91505092915050565b5f73ffffffffffffffffffffffffffffffffffffffff82169050919050565b5f6111b48261118b565b9050919050565b6111c4816111aa565b81146111ce575f80fd5b50565b5f813590506111df816111bb565b92915050565b5f80604083850312156111fb576111fa61112e565b5b5f611208858286016111d1565b9250506020611219858286016111d1565b9150509250929050565b5f80604083850312156112395761123861112e565b5b5f611246858286016111d1565b92505060206112578582860161114c565b9150509250929050565b5f602082840312156112765761127561112e565b5b5f611283848285016111d1565b91505092915050565b5f8115159050919050565b6112a08161128c565b82525050565b5f6020820190506112b95f830184611297565b92915050565b6112c8816111aa565b82525050565b5f6020820190506112e15f8301846112bf565b92915050565b5f80fd5b7f4e487b71000000000000000000000000000000000000000000000000000000005f52604160045260245ffd5b611321826110bd565b810181811067ffffffffffffffff821117156113405761133f6112eb565b5b80604052505050565b5f611352611125565b905061135e8282611318565b919050565b5f67ffffffffffffffff82111561137d5761137c6112eb565b5b602082029050602081019050919050565b5f80fd5b5f6113a461139f84611363565b611349565b905080838252602082019050602084028301858111156113c7576113c661138e565b5b835b818110156113f057806113dc88826111d1565b8452602084019350506020810190506113c9565b5050509392505050565b5f82601f83011261140e5761140d6112e7565b5b813561141e848260208601611392565b91505092915050565b6114308161128c565b811461143a575f80fd5b50565b5f8135905061144b81611427565b92915050565b5f80604083850312156114675761146661112e565b5b5f83013567ffffffffffffffff81111561148457611483611132565b5b611490858286016113fa565b92505060206114a18582860161143d565b9150509250929050565b7f4e487b71000000000000000000000000000000000000000000000000000000005f52602260045260245ffd5b5f60028204905060018216806114ef57607f821691505b602082108103611502576115016114ab565b5b50919050565b7f4e487b71000000000000000000000000000000000000000000000000000000005f52601160045260245ffd5b5f61153f8261104a565b915061154a8361104a565b92508282026115588161104a565b9150828204841483151761156f5761156e611508565b5b5092915050565b5f60ff82169050919050565b61158b81611576565b8114611595575f80fd5b50565b5f815190506115a681611582565b92915050565b5f602082840312156115c1576115c061112e565b5b5f6115ce84828501611598565b91505092915050565b5f8160011c9050919050565b5f808291508390505b600185111561162c5780860481111561160857611607611508565b5b60018516156116175780820291505b8081029050611625856115d7565b94506115ec565b94509492505050565b5f8261164457600190506116ff565b81611651575f90506116ff565b81600181146116675760028114611671576116a0565b60019150506116ff565b60ff84111561168357611682611508565b5b8360020a91508482111561169a57611699611508565b5b506116ff565b5060208310610133831016604e8410600b84101617156116d55782820a9050838111156116d0576116cf611508565b5b6116ff565b6116e284848460016115e3565b925090508184048111156116f9576116f8611508565b5b81810290505b9392505050565b5f6117108261104a565b915061171b83611576565b92506117487fffffffffffffffffffffffffffffffffffffffffffffffffffffffffffffffff8484611635565b905092915050565b7f4e487b71000000000000000000000000000000000000000000000000000000005f52601260045260245ffd5b5f6117878261104a565b91506117928361104a565b9250826117a2576117a1611750565b5b828204905092915050565b7f796f7520617265206e6f74207065726d697474656400000000000000000000005f82015250565b5f6117e1601583611085565b91506117ec826117ad565b602082019050919050565b5f6020820190508181035f83015261180e816117d5565b9050919050565b5f8151905061182381611136565b92915050565b5f6020828403121561183e5761183d61112e565b5b5f61184b84828501611815565b91505092915050565b7f6e6f7420656e6f75676820706f696e74730000000000000000000000000000005f82015250565b5f611888601183611085565b915061189382611854565b602082019050919050565b5f6020820190508181035f8301526118b58161187c565b9050919050565b7f706f696e747320746f2073776170206c657373207468616e206d696e706f696e5f8201527f7473000000000000000000000000000000000000000000000000000000000000602082015250565b5f611916602283611085565b9150611921826118bc565b604082019050919050565b5f6020820190508181035f8301526119438161190a565b9050919050565b5f6119548261104a565b915061195f8361104a565b925082820190508082111561197757611976611508565b5b92915050565b5f6119878261104a565b91506119928361104a565b92508282039050818111156119aa576119a9611508565b5b92915050565b5f6040820190506119c35f8301856112bf565b6119d06020830184611053565b9392505050565b5f815190506119e581611427565b92915050565b5f60208284031215611a00576119ff61112e565b5b5f611a0d848285016119d7565b91505092915050565b5f608082019050611a295f8301876112bf565b611a366020830186611053565b611a436040830185611053565b611a506060830184611053565b95945050505050565b7f4e487b71000000000000000000000000000000000000000000000000000000005f52603260045260245ffdfea264697066735822122088f43eb321e2b15c4fe40cedf61f22b7fd549b5668a1bce418c6f926916f5b7464736f6c63430008160033a2646970667358221220ac46e6763dee02a5c4206335c5b6c16d4fbf392c34618438c80338f475f9250f64736f6c63430008160033",
			"opcodes": "PUSH1 0x80 PUSH1 0x40 MSTORE PUSH1 0x1 PUSH1 0x6 SSTORE CALLVALUE DUP1 ISZERO PUSH3 0x15 JUMPI PUSH0 DUP1 REVERT JUMPDEST POP CALLER PUSH1 0x40 MLOAD DUP1 PUSH1 0x40 ADD PUSH1 0x40 MSTORE DUP1 PUSH1 0x6 DUP2 MSTORE PUSH1 0x20 ADD PUSH32 0x506F696E74730000000000000000000000000000000000000000000000000000 DUP2 MSTORE POP PUSH1 0x40 MLOAD DUP1 PUSH1 0x40 ADD PUSH1 0x40 MSTORE DUP1 PUSH1 0x3 DUP2 MSTORE PUSH1 0x20 ADD PUSH32 0x504E540000000000000000000000000000000000000000000000000000000000 DUP2 MSTORE POP DUP2 PUSH1 0x3 SWAP1 DUP2 PUSH3 0x94 SWAP2 SWAP1 PUSH3 0x727 JUMP JUMPDEST POP DUP1 PUSH1 0x4 SWAP1 DUP2 PUSH3 0xA6 SWAP2 SWAP1 PUSH3 0x727 JUMP JUMPDEST POP POP POP PUSH0 PUSH20 0xFFFFFFFFFFFFFFFFFFFFFFFFFFFFFFFFFFFFFFFF AND DUP2 PUSH20 0xFFFFFFFFFFFFFFFFFFFFFFFFFFFFFFFFFFFFFFFF AND SUB PUSH3 0x11C JUMPI PUSH0 PUSH1 0x40 MLOAD PUSH32 0x1E4FBDF700000000000000000000000000000000000000000000000000000000 DUP2 MSTORE PUSH1 0x4 ADD PUSH3 0x113 SWAP2 SWAP1 PUSH3 0x84E JUMP JUMPDEST PUSH1 0x40 MLOAD DUP1 SWAP2 SUB SWAP1 REVERT JUMPDEST PUSH3 0x12D DUP2 PUSH3 0x152 PUSH1 0x20 SHL PUSH1 0x20 SHR JUMP JUMPDEST POP PUSH3 0x14C CALLER PUSH12 0x204FCE5E3E25026110000000 PUSH3 0x215 PUSH1 0x20 SHL PUSH1 0x20 SHR JUMP JUMPDEST PUSH3 0x937 JUMP JUMPDEST PUSH0 PUSH1 0x5 PUSH0 SWAP1 SLOAD SWAP1 PUSH2 0x100 EXP SWAP1 DIV PUSH20 0xFFFFFFFFFFFFFFFFFFFFFFFFFFFFFFFFFFFFFFFF AND SWAP1 POP DUP2 PUSH1 0x5 PUSH0 PUSH2 0x100 EXP DUP2 SLOAD DUP2 PUSH20 0xFFFFFFFFFFFFFFFFFFFFFFFFFFFFFFFFFFFFFFFF MUL NOT AND SWAP1 DUP4 PUSH20 0xFFFFFFFFFFFFFFFFFFFFFFFFFFFFFFFFFFFFFFFF AND MUL OR SWAP1 SSTORE POP DUP2 PUSH20 0xFFFFFFFFFFFFFFFFFFFFFFFFFFFFFFFFFFFFFFFF AND DUP2 PUSH20 0xFFFFFFFFFFFFFFFFFFFFFFFFFFFFFFFFFFFFFFFF AND PUSH32 0x8BE0079C531659141344CD1FD0A4F28419497F9722A3DAAFE3B4186F6B6457E0 PUSH1 0x40 MLOAD PUSH1 0x40 MLOAD DUP1 SWAP2 SUB SWAP1 LOG3 POP POP JUMP JUMPDEST PUSH0 PUSH20 0xFFFFFFFFFFFFFFFFFFFFFFFFFFFFFFFFFFFFFFFF AND DUP3 PUSH20 0xFFFFFFFFFFFFFFFFFFFFFFFFFFFFFFFFFFFFFFFF AND SUB PUSH3 0x288 JUMPI PUSH0 PUSH1 0x40 MLOAD PUSH32 0xEC442F0500000000000000000000000000000000000000000000000000000000 DUP2 MSTORE PUSH1 0x4 ADD PUSH3 0x27F SWAP2 SWAP1 PUSH3 0x84E JUMP JUMPDEST PUSH1 0x40 MLOAD DUP1 SWAP2 SUB SWAP1 REVERT JUMPDEST PUSH3 0x29B PUSH0 DUP4 DUP4 PUSH3 0x29F PUSH1 0x20 SHL PUSH1 0x20 SHR JUMP JUMPDEST POP POP JUMP JUMPDEST PUSH0 PUSH20 0xFFFFFFFFFFFFFFFFFFFFFFFFFFFFFFFFFFFFFFFF AND DUP4 PUSH20 0xFFFFFFFFFFFFFFFFFFFFFFFFFFFFFFFFFFFFFFFF AND SUB PUSH3 0x2F3 JUMPI DUP1 PUSH1 0x2 PUSH0 DUP3 DUP3 SLOAD PUSH3 0x2E6 SWAP2 SWAP1 PUSH3 0x896 JUMP JUMPDEST SWAP3 POP POP DUP2 SWAP1 SSTORE POP PUSH3 0x3C4 JUMP JUMPDEST PUSH0 DUP1 PUSH0 DUP6 PUSH20 0xFFFFFFFFFFFFFFFFFFFFFFFFFFFFFFFFFFFFFFFF AND PUSH20 0xFFFFFFFFFFFFFFFFFFFFFFFFFFFFFFFFFFFFFFFF AND DUP2 MSTORE PUSH1 0x20 ADD SWAP1 DUP2 MSTORE PUSH1 0x20 ADD PUSH0 KECCAK256 SLOAD SWAP1 POP DUP2 DUP2 LT ISZERO PUSH3 0x37F JUMPI DUP4 DUP2 DUP4 PUSH1 0x40 MLOAD PUSH32 0xE450D38C00000000000000000000000000000000000000000000000000000000 DUP2 MSTORE PUSH1 0x4 ADD PUSH3 0x376 SWAP4 SWAP3 SWAP2 SWAP1 PUSH3 0x8E1 JUMP JUMPDEST PUSH1 0x40 MLOAD DUP1 SWAP2 SUB SWAP1 REVERT JUMPDEST DUP2 DUP2 SUB PUSH0 DUP1 DUP7 PUSH20 0xFFFFFFFFFFFFFFFFFFFFFFFFFFFFFFFFFFFFFFFF AND PUSH20 0xFFFFFFFFFFFFFFFFFFFFFFFFFFFFFFFFFFFFFFFF AND DUP2 MSTORE PUSH1 0x20 ADD SWAP1 DUP2 MSTORE PUSH1 0x20 ADD PUSH0 KECCAK256 DUP2 SWAP1 SSTORE POP POP JUMPDEST PUSH0 PUSH20 0xFFFFFFFFFFFFFFFFFFFFFFFFFFFFFFFFFFFFFFFF AND DUP3 PUSH20 0xFFFFFFFFFFFFFFFFFFFFFFFFFFFFFFFFFFFFFFFF AND SUB PUSH3 0x40D JUMPI DUP1 PUSH1 0x2 PUSH0 DUP3 DUP3 SLOAD SUB SWAP3 POP POP DUP2 SWAP1 SSTORE POP PUSH3 0x457 JUMP JUMPDEST DUP1 PUSH0 DUP1 DUP5 PUSH20 0xFFFFFFFFFFFFFFFFFFFFFFFFFFFFFFFFFFFFFFFF AND PUSH20 0xFFFFFFFFFFFFFFFFFFFFFFFFFFFFFFFFFFFFFFFF AND DUP2 MSTORE PUSH1 0x20 ADD SWAP1 DUP2 MSTORE PUSH1 0x20 ADD PUSH0 KECCAK256 PUSH0 DUP3 DUP3 SLOAD ADD SWAP3 POP POP DUP2 SWAP1 SSTORE POP JUMPDEST DUP2 PUSH20 0xFFFFFFFFFFFFFFFFFFFFFFFFFFFFFFFFFFFFFFFF AND DUP4 PUSH20 0xFFFFFFFFFFFFFFFFFFFFFFFFFFFFFFFFFFFFFFFF AND PUSH32 0xDDF252AD1BE2C89B69C2B068FC378DAA952BA7F163C4A11628F55A4DF523B3EF DUP4 PUSH1 0x40 MLOAD PUSH3 0x4B6 SWAP2 SWAP1 PUSH3 0x91C JUMP JUMPDEST PUSH1 0x40 MLOAD DUP1 SWAP2 SUB SWAP1 LOG3 POP POP POP JUMP JUMPDEST PUSH0 DUP2 MLOAD SWAP1 POP SWAP2 SWAP1 POP JUMP JUMPDEST PUSH32 0x4E487B7100000000000000000000000000000000000000000000000000000000 PUSH0 MSTORE PUSH1 0x41 PUSH1 0x4 MSTORE PUSH1 0x24 PUSH0 REVERT JUMPDEST PUSH32 0x4E487B7100000000000000000000000000000000000000000000000000000000 PUSH0 MSTORE PUSH1 0x22 PUSH1 0x4 MSTORE PUSH1 0x24 PUSH0 REVERT JUMPDEST PUSH0 PUSH1 0x2 DUP3 DIV SWAP1 POP PUSH1 0x1 DUP3 AND DUP1 PUSH3 0x53F JUMPI PUSH1 0x7F DUP3 AND SWAP2 POP JUMPDEST PUSH1 0x20 DUP3 LT DUP2 SUB PUSH3 0x555 JUMPI PUSH3 0x554 PUSH3 0x4FA JUMP JUMPDEST JUMPDEST POP SWAP2 SWAP1 POP JUMP JUMPDEST PUSH0 DUP2 SWAP1 POP DUP2 PUSH0 MSTORE PUSH1 0x20 PUSH0 KECCAK256 SWAP1 POP SWAP2 SWAP1 POP JUMP JUMPDEST PUSH0 PUSH1 0x20 PUSH1 0x1F DUP4 ADD DIV SWAP1 POP SWAP2 SWAP1 POP JUMP JUMPDEST PUSH0 DUP3 DUP3 SHL SWAP1 POP SWAP3 SWAP2 POP POP JUMP JUMPDEST PUSH0 PUSH1 0x8 DUP4 MUL PUSH3 0x5B9 PUSH32 0xFFFFFFFFFFFFFFFFFFFFFFFFFFFFFFFFFFFFFFFFFFFFFFFFFFFFFFFFFFFFFFFF DUP3 PUSH3 0x57C JUMP JUMPDEST PUSH3 0x5C5 DUP7 DUP4 PUSH3 0x57C JUMP JUMPDEST SWAP6 POP DUP1 NOT DUP5 AND SWAP4 POP DUP1 DUP7 AND DUP5 OR SWAP3 POP POP POP SWAP4 SWAP3 POP POP POP JUMP JUMPDEST PUSH0 DUP2 SWAP1 POP SWAP2 SWAP1 POP JUMP JUMPDEST PUSH0 DUP2 SWAP1 POP SWAP2 SWAP1 POP JUMP JUMPDEST PUSH0 PUSH3 0x60F PUSH3 0x609 PUSH3 0x603 DUP5 PUSH3 0x5DD JUMP JUMPDEST PUSH3 0x5E6 JUMP JUMPDEST PUSH3 0x5DD JUMP JUMPDEST SWAP1 POP SWAP2 SWAP1 POP JUMP JUMPDEST PUSH0 DUP2 SWAP1 POP SWAP2 SWAP1 POP JUMP JUMPDEST PUSH3 0x62A DUP4 PUSH3 0x5EF JUMP JUMPDEST PUSH3 0x642 PUSH3 0x639 DUP3 PUSH3 0x616 JUMP JUMPDEST DUP5 DUP5 SLOAD PUSH3 0x588 JUMP JUMPDEST DUP3 SSTORE POP POP POP POP JUMP JUMPDEST PUSH0 SWAP1 JUMP JUMPDEST PUSH3 0x658 PUSH3 0x64A JUMP JUMPDEST PUSH3 0x665 DUP2 DUP5 DUP5 PUSH3 0x61F JUMP JUMPDEST POP POP POP JUMP JUMPDEST JUMPDEST DUP2 DUP2 LT ISZERO PUSH3 0x68C JUMPI PUSH3 0x680 PUSH0 DUP3 PUSH3 0x64E JUMP JUMPDEST PUSH1 0x1 DUP2 ADD SWAP1 POP PUSH3 0x66B JUMP JUMPDEST POP POP JUMP JUMPDEST PUSH1 0x1F DUP3 GT ISZERO PUSH3 0x6DB JUMPI PUSH3 0x6A5 DUP2 PUSH3 0x55B JUMP JUMPDEST PUSH3 0x6B0 DUP5 PUSH3 0x56D JUMP JUMPDEST DUP2 ADD PUSH1 0x20 DUP6 LT ISZERO PUSH3 0x6C0 JUMPI DUP2 SWAP1 POP JUMPDEST PUSH3 0x6D8 PUSH3 0x6CF DUP6 PUSH3 0x56D JUMP JUMPDEST DUP4 ADD DUP3 PUSH3 0x66A JUMP JUMPDEST POP POP JUMPDEST POP POP POP JUMP JUMPDEST PUSH0 DUP3 DUP3 SHR SWAP1 POP SWAP3 SWAP2 POP POP JUMP JUMPDEST PUSH0 PUSH3 0x6FD PUSH0 NOT DUP5 PUSH1 0x8 MUL PUSH3 0x6E0 JUMP JUMPDEST NOT DUP1 DUP4 AND SWAP2 POP POP SWAP3 SWAP2 POP POP JUMP JUMPDEST PUSH0 PUSH3 0x717 DUP4 DUP4 PUSH3 0x6EC JUMP JUMPDEST SWAP2 POP DUP3 PUSH1 0x2 MUL DUP3 OR SWAP1 POP SWAP3 SWAP2 POP POP JUMP JUMPDEST PUSH3 0x732 DUP3 PUSH3 0x4C3 JUMP JUMPDEST PUSH8 0xFFFFFFFFFFFFFFFF DUP2 GT ISZERO PUSH3 0x74E JUMPI PUSH3 0x74D PUSH3 0x4CD JUMP JUMPDEST JUMPDEST PUSH3 0x75A DUP3 SLOAD PUSH3 0x527 JUMP JUMPDEST PUSH3 0x767 DUP3 DUP3 DUP6 PUSH3 0x690 JUMP JUMPDEST PUSH0 PUSH1 0x20 SWAP1 POP PUSH1 0x1F DUP4 GT PUSH1 0x1 DUP2 EQ PUSH3 0x79D JUMPI PUSH0 DUP5 ISZERO PUSH3 0x788 JUMPI DUP3 DUP8 ADD MLOAD SWAP1 POP JUMPDEST PUSH3 0x794 DUP6 DUP3 PUSH3 0x70A JUMP JUMPDEST DUP7 SSTORE POP PUSH3 0x803 JUMP JUMPDEST PUSH1 0x1F NOT DUP5 AND PUSH3 0x7AD DUP7 PUSH3 0x55B JUMP JUMPDEST PUSH0 JUMPDEST DUP3 DUP2 LT ISZERO PUSH3 0x7D6 JUMPI DUP5 DUP10 ADD MLOAD DUP3 SSTORE PUSH1 0x1 DUP3 ADD SWAP2 POP PUSH1 0x20 DUP6 ADD SWAP5 POP PUSH1 0x20 DUP2 ADD SWAP1 POP PUSH3 0x7AF JUMP JUMPDEST DUP7 DUP4 LT ISZERO PUSH3 0x7F6 JUMPI DUP5 DUP10 ADD MLOAD PUSH3 0x7F2 PUSH1 0x1F DUP10 AND DUP3 PUSH3 0x6EC JUMP JUMPDEST DUP4 SSTORE POP JUMPDEST PUSH1 0x1 PUSH1 0x2 DUP9 MUL ADD DUP9 SSTORE POP POP POP JUMPDEST POP POP POP POP POP POP JUMP JUMPDEST PUSH0 PUSH20 0xFFFFFFFFFFFFFFFFFFFFFFFFFFFFFFFFFFFFFFFF DUP3 AND SWAP1 POP SWAP2 SWAP1 POP JUMP JUMPDEST PUSH0 PUSH3 0x836 DUP3 PUSH3 0x80B JUMP JUMPDEST SWAP1 POP SWAP2 SWAP1 POP JUMP JUMPDEST PUSH3 0x848 DUP2 PUSH3 0x82A JUMP JUMPDEST DUP3 MSTORE POP POP JUMP JUMPDEST PUSH0 PUSH1 0x20 DUP3 ADD SWAP1 POP PUSH3 0x863 PUSH0 DUP4 ADD DUP5 PUSH3 0x83D JUMP JUMPDEST SWAP3 SWAP2 POP POP JUMP JUMPDEST PUSH32 0x4E487B7100000000000000000000000000000000000000000000000000000000 PUSH0 MSTORE PUSH1 0x11 PUSH1 0x4 MSTORE PUSH1 0x24 PUSH0 REVERT JUMPDEST PUSH0 PUSH3 0x8A2 DUP3 PUSH3 0x5DD JUMP JUMPDEST SWAP2 POP PUSH3 0x8AF DUP4 PUSH3 0x5DD JUMP JUMPDEST SWAP3 POP DUP3 DUP3 ADD SWAP1 POP DUP1 DUP3 GT ISZERO PUSH3 0x8CA JUMPI PUSH3 0x8C9 PUSH3 0x869 JUMP JUMPDEST JUMPDEST SWAP3 SWAP2 POP POP JUMP JUMPDEST PUSH3 0x8DB DUP2 PUSH3 0x5DD JUMP JUMPDEST DUP3 MSTORE POP POP JUMP JUMPDEST PUSH0 PUSH1 0x60 DUP3 ADD SWAP1 POP PUSH3 0x8F6 PUSH0 DUP4 ADD DUP7 PUSH3 0x83D JUMP JUMPDEST PUSH3 0x905 PUSH1 0x20 DUP4 ADD DUP6 PUSH3 0x8D0 JUMP JUMPDEST PUSH3 0x914 PUSH1 0x40 DUP4 ADD DUP5 PUSH3 0x8D0 JUMP JUMPDEST SWAP5 SWAP4 POP POP POP POP JUMP JUMPDEST PUSH0 PUSH1 0x20 DUP3 ADD SWAP1 POP PUSH3 0x931 PUSH0 DUP4 ADD DUP5 PUSH3 0x8D0 JUMP JUMPDEST SWAP3 SWAP2 POP POP JUMP JUMPDEST PUSH2 0x43A9 DUP1 PUSH3 0x945 PUSH0 CODECOPY PUSH0 RETURN INVALID PUSH1 0x80 PUSH1 0x40 MSTORE CALLVALUE DUP1 ISZERO PUSH3 0x10 JUMPI PUSH0 DUP1 REVERT JUMPDEST POP PUSH1 0x4 CALLDATASIZE LT PUSH3 0x12E JUMPI PUSH0 CALLDATALOAD PUSH1 0xE0 SHR DUP1 PUSH4 0x715018A6 GT PUSH3 0xAF JUMPI DUP1 PUSH4 0xA9059CBB GT PUSH3 0x79 JUMPI DUP1 PUSH4 0xA9059CBB EQ PUSH3 0x321 JUMPI DUP1 PUSH4 0xD0A5E51E EQ PUSH3 0x357 JUMPI DUP1 PUSH4 0xDD62ED3E EQ PUSH3 0x379 JUMPI DUP1 PUSH4 0xEA83CBF4 EQ PUSH3 0x3AF JUMPI DUP1 PUSH4 0xF2FDE38B EQ PUSH3 0x3E5 JUMPI PUSH3 0x12E JUMP JUMPDEST DUP1 PUSH4 0x715018A6 EQ PUSH3 0x2B1 JUMPI DUP1 PUSH4 0x8DA5CB5B EQ PUSH3 0x2BD JUMPI DUP1 PUSH4 0x95D89B41 EQ PUSH3 0x2DF JUMPI DUP1 PUSH4 0x9DC29FAC EQ PUSH3 0x301 JUMPI PUSH3 0x12E JUMP JUMPDEST DUP1 PUSH4 0x23B872DD GT PUSH3 0xFD JUMPI DUP1 PUSH4 0x23B872DD EQ PUSH3 0x1E3 JUMPI DUP1 PUSH4 0x2850FA6F EQ PUSH3 0x219 JUMPI DUP1 PUSH4 0x313CE567 EQ PUSH3 0x239 JUMPI DUP1 PUSH4 0x40C10F19 EQ PUSH3 0x25B JUMPI DUP1 PUSH4 0x70A08231 EQ PUSH3 0x27B JUMPI PUSH3 0x12E JUMP JUMPDEST DUP1 PUSH4 0x6FDDE03 EQ PUSH3 0x132 JUMPI DUP1 PUSH4 0x95EA7B3 EQ PUSH3 0x154 JUMPI DUP1 PUSH4 0x9B77EEF EQ PUSH3 0x18A JUMPI DUP1 PUSH4 0x18160DDD EQ PUSH3 0x1C1 JUMPI JUMPDEST PUSH0 DUP1 REVERT JUMPDEST PUSH3 0x13C PUSH3 0x405 JUMP JUMPDEST PUSH1 0x40 MLOAD PUSH3 0x14B SWAP2 SWAP1 PUSH3 0x14CF JUMP JUMPDEST PUSH1 0x40 MLOAD DUP1 SWAP2 SUB SWAP1 RETURN JUMPDEST PUSH3 0x172 PUSH1 0x4 DUP1 CALLDATASIZE SUB DUP2 ADD SWAP1 PUSH3 0x16C SWAP2 SWAP1 PUSH3 0x159B JUMP JUMPDEST PUSH3 0x49D JUMP JUMPDEST PUSH1 0x40 MLOAD PUSH3 0x181 SWAP2 SWAP1 PUSH3 0x15FC JUMP JUMPDEST PUSH1 0x40 MLOAD DUP1 SWAP2 SUB SWAP1 RETURN JUMPDEST PUSH3 0x1A8 PUSH1 0x4 DUP1 CALLDATASIZE SUB DUP2 ADD SWAP1 PUSH3 0x1A2 SWAP2 SWAP1 PUSH3 0x1617 JUMP JUMPDEST PUSH3 0x4C3 JUMP JUMPDEST PUSH1 0x40 MLOAD PUSH3 0x1B8 SWAP3 SWAP2 SWAP1 PUSH3 0x1658 JUMP JUMPDEST PUSH1 0x40 MLOAD DUP1 SWAP2 SUB SWAP1 RETURN JUMPDEST PUSH3 0x1CB PUSH3 0x590 JUMP JUMPDEST PUSH1 0x40 MLOAD PUSH3 0x1DA SWAP2 SWAP1 PUSH3 0x169B JUMP JUMPDEST PUSH1 0x40 MLOAD DUP1 SWAP2 SUB SWAP1 RETURN JUMPDEST PUSH3 0x201 PUSH1 0x4 DUP1 CALLDATASIZE SUB DUP2 ADD SWAP1 PUSH3 0x1FB SWAP2 SWAP1 PUSH3 0x16B6 JUMP JUMPDEST PUSH3 0x599 JUMP JUMPDEST PUSH1 0x40 MLOAD PUSH3 0x210 SWAP2 SWAP1 PUSH3 0x15FC JUMP JUMPDEST PUSH1 0x40 MLOAD DUP1 SWAP2 SUB SWAP1 RETURN JUMPDEST PUSH3 0x237 PUSH1 0x4 DUP1 CALLDATASIZE SUB DUP2 ADD SWAP1 PUSH3 0x231 SWAP2 SWAP1 PUSH3 0x173E JUMP JUMPDEST PUSH3 0x5CD JUMP JUMPDEST STOP JUMPDEST PUSH3 0x243 PUSH3 0x5E7 JUMP JUMPDEST PUSH1 0x40 MLOAD PUSH3 0x252 SWAP2 SWAP1 PUSH3 0x17A0 JUMP JUMPDEST PUSH1 0x40 MLOAD DUP1 SWAP2 SUB SWAP1 RETURN JUMPDEST PUSH3 0x279 PUSH1 0x4 DUP1 CALLDATASIZE SUB DUP2 ADD SWAP1 PUSH3 0x273 SWAP2 SWAP1 PUSH3 0x159B JUMP JUMPDEST PUSH3 0x5EF JUMP JUMPDEST STOP JUMPDEST PUSH3 0x299 PUSH1 0x4 DUP1 CALLDATASIZE SUB DUP2 ADD SWAP1 PUSH3 0x293 SWAP2 SWAP1 PUSH3 0x17BB JUMP JUMPDEST PUSH3 0x609 JUMP JUMPDEST PUSH1 0x40 MLOAD PUSH3 0x2A8 SWAP2 SWAP1 PUSH3 0x169B JUMP JUMPDEST PUSH1 0x40 MLOAD DUP1 SWAP2 SUB SWAP1 RETURN JUMPDEST PUSH3 0x2BB PUSH3 0x64E JUMP JUMPDEST STOP JUMPDEST PUSH3 0x2C7 PUSH3 0x665 JUMP JUMPDEST PUSH1 0x40 MLOAD PUSH3 0x2D6 SWAP2 SWAP1 PUSH3 0x17EB JUMP JUMPDEST PUSH1 0x40 MLOAD DUP1 SWAP2 SUB SWAP1 RETURN JUMPDEST PUSH3 0x2E9 PUSH3 0x68D JUMP JUMPDEST PUSH1 0x40 MLOAD PUSH3 0x2F8 SWAP2 SWAP1 PUSH3 0x14CF JUMP JUMPDEST PUSH1 0x40 MLOAD DUP1 SWAP2 SUB SWAP1 RETURN JUMPDEST PUSH3 0x31F PUSH1 0x4 DUP1 CALLDATASIZE SUB DUP2 ADD SWAP1 PUSH3 0x319 SWAP2 SWAP1 PUSH3 0x159B JUMP JUMPDEST PUSH3 0x725 JUMP JUMPDEST STOP JUMPDEST PUSH3 0x33F PUSH1 0x4 DUP1 CALLDATASIZE SUB DUP2 ADD SWAP1 PUSH3 0x339 SWAP2 SWAP1 PUSH3 0x159B JUMP JUMPDEST PUSH3 0x7C8 JUMP JUMPDEST PUSH1 0x40 MLOAD PUSH3 0x34E SWAP2 SWAP1 PUSH3 0x15FC JUMP JUMPDEST PUSH1 0x40 MLOAD DUP1 SWAP2 SUB SWAP1 RETURN JUMPDEST PUSH3 0x361 PUSH3 0x7EE JUMP JUMPDEST PUSH1 0x40 MLOAD PUSH3 0x370 SWAP2 SWAP1 PUSH3 0x169B JUMP JUMPDEST PUSH1 0x40 MLOAD DUP1 SWAP2 SUB SWAP1 RETURN JUMPDEST PUSH3 0x397 PUSH1 0x4 DUP1 CALLDATASIZE SUB DUP2 ADD SWAP1 PUSH3 0x391 SWAP2 SWAP1 PUSH3 0x1806 JUMP JUMPDEST PUSH3 0x7F4 JUMP JUMPDEST PUSH1 0x40 MLOAD PUSH3 0x3A6 SWAP2 SWAP1 PUSH3 0x169B JUMP JUMPDEST PUSH1 0x40 MLOAD DUP1 SWAP2 SUB SWAP1 RETURN JUMPDEST PUSH3 0x3CD PUSH1 0x4 DUP1 CALLDATASIZE SUB DUP2 ADD SWAP1 PUSH3 0x3C7 SWAP2 SWAP1 PUSH3 0x1993 JUMP JUMPDEST PUSH3 0x876 JUMP JUMPDEST PUSH1 0x40 MLOAD PUSH3 0x3DC SWAP2 SWAP1 PUSH3 0x1AC0 JUMP JUMPDEST PUSH1 0x40 MLOAD DUP1 SWAP2 SUB SWAP1 RETURN JUMPDEST PUSH3 0x403 PUSH1 0x4 DUP1 CALLDATASIZE SUB DUP2 ADD SWAP1 PUSH3 0x3FD SWAP2 SWAP1 PUSH3 0x17BB JUMP JUMPDEST PUSH3 0xB17 JUMP JUMPDEST STOP JUMPDEST PUSH1 0x60 PUSH1 0x3 DUP1 SLOAD PUSH3 0x416 SWAP1 PUSH3 0x1B0F JUMP JUMPDEST DUP1 PUSH1 0x1F ADD PUSH1 0x20 DUP1 SWAP2 DIV MUL PUSH1 0x20 ADD PUSH1 0x40 MLOAD SWAP1 DUP2 ADD PUSH1 0x40 MSTORE DUP1 SWAP3 SWAP2 SWAP1 DUP2 DUP2 MSTORE PUSH1 0x20 ADD DUP3 DUP1 SLOAD PUSH3 0x444 SWAP1 PUSH3 0x1B0F JUMP JUMPDEST DUP1 ISZERO PUSH3 0x493 JUMPI DUP1 PUSH1 0x1F LT PUSH3 0x469 JUMPI PUSH2 0x100 DUP1 DUP4 SLOAD DIV MUL DUP4 MSTORE SWAP2 PUSH1 0x20 ADD SWAP2 PUSH3 0x493 JUMP JUMPDEST DUP3 ADD SWAP2 SWAP1 PUSH0 MSTORE PUSH1 0x20 PUSH0 KECCAK256 SWAP1 JUMPDEST DUP2 SLOAD DUP2 MSTORE SWAP1 PUSH1 0x1 ADD SWAP1 PUSH1 0x20 ADD DUP1 DUP4 GT PUSH3 0x475 JUMPI DUP3 SWAP1 SUB PUSH1 0x1F AND DUP3 ADD SWAP2 JUMPDEST POP POP POP POP POP SWAP1 POP SWAP1 JUMP JUMPDEST PUSH0 DUP1 PUSH3 0x4A9 PUSH3 0xBA2 JUMP JUMPDEST SWAP1 POP PUSH3 0x4B8 DUP2 DUP6 DUP6 PUSH3 0xBA9 JUMP JUMPDEST PUSH1 0x1 SWAP2 POP POP SWAP3 SWAP2 POP POP JUMP JUMPDEST PUSH1 0x8 PUSH1 0x20 MSTORE DUP1 PUSH0 MSTORE PUSH1 0x40 PUSH0 KECCAK256 PUSH0 SWAP2 POP SWAP1 POP DUP1 PUSH0 ADD PUSH0 SWAP1 SLOAD SWAP1 PUSH2 0x100 EXP SWAP1 DIV PUSH20 0xFFFFFFFFFFFFFFFFFFFFFFFFFFFFFFFFFFFFFFFF AND SWAP1 DUP1 PUSH1 0x1 ADD DUP1 SLOAD PUSH3 0x509 SWAP1 PUSH3 0x1B0F JUMP JUMPDEST DUP1 PUSH1 0x1F ADD PUSH1 0x20 DUP1 SWAP2 DIV MUL PUSH1 0x20 ADD PUSH1 0x40 MLOAD SWAP1 DUP2 ADD PUSH1 0x40 MSTORE DUP1 SWAP3 SWAP2 SWAP1 DUP2 DUP2 MSTORE PUSH1 0x20 ADD DUP3 DUP1 SLOAD PUSH3 0x537 SWAP1 PUSH3 0x1B0F JUMP JUMPDEST DUP1 ISZERO PUSH3 0x586 JUMPI DUP1 PUSH1 0x1F LT PUSH3 0x55C JUMPI PUSH2 0x100 DUP1 DUP4 SLOAD DIV MUL DUP4 MSTORE SWAP2 PUSH1 0x20 ADD SWAP2 PUSH3 0x586 JUMP JUMPDEST DUP3 ADD SWAP2 SWAP1 PUSH0 MSTORE PUSH1 0x20 PUSH0 KECCAK256 SWAP1 JUMPDEST DUP2 SLOAD DUP2 MSTORE SWAP1 PUSH1 0x1 ADD SWAP1 PUSH1 0x20 ADD DUP1 DUP4 GT PUSH3 0x568 JUMPI DUP3 SWAP1 SUB PUSH1 0x1F AND DUP3 ADD SWAP2 JUMPDEST POP POP POP POP POP SWAP1 POP DUP3 JUMP JUMPDEST PUSH0 PUSH1 0x2 SLOAD SWAP1 POP SWAP1 JUMP JUMPDEST PUSH0 DUP1 PUSH3 0x5A5 PUSH3 0xBA2 JUMP JUMPDEST SWAP1 POP PUSH3 0x5B4 DUP6 DUP3 DUP6 PUSH3 0xBBD JUMP JUMPDEST PUSH3 0x5C1 DUP6 DUP6 DUP6 PUSH3 0xC57 JUMP JUMPDEST PUSH1 0x1 SWAP2 POP POP SWAP4 SWAP3 POP POP POP JUMP JUMPDEST PUSH3 0x5D7 PUSH3 0xD4F JUMP JUMPDEST PUSH3 0x5E3 DUP3 DUP3 PUSH3 0xDDF JUMP JUMPDEST POP POP JUMP JUMPDEST PUSH0 PUSH1 0x12 SWAP1 POP SWAP1 JUMP JUMPDEST PUSH3 0x5F9 PUSH3 0xD4F JUMP JUMPDEST PUSH3 0x605 DUP3 DUP3 PUSH3 0xE37 JUMP JUMPDEST POP POP JUMP JUMPDEST PUSH0 DUP1 PUSH0 DUP4 PUSH20 0xFFFFFFFFFFFFFFFFFFFFFFFFFFFFFFFFFFFFFFFF AND PUSH20 0xFFFFFFFFFFFFFFFFFFFFFFFFFFFFFFFFFFFFFFFF AND DUP2 MSTORE PUSH1 0x20 ADD SWAP1 DUP2 MSTORE PUSH1 0x20 ADD PUSH0 KECCAK256 SLOAD SWAP1 POP SWAP2 SWAP1 POP JUMP JUMPDEST PUSH3 0x658 PUSH3 0xD4F JUMP JUMPDEST PUSH3 0x663 PUSH0 PUSH3 0xEBB JUMP JUMPDEST JUMP JUMPDEST PUSH0 PUSH1 0x5 PUSH0 SWAP1 SLOAD SWAP1 PUSH2 0x100 EXP SWAP1 DIV PUSH20 0xFFFFFFFFFFFFFFFFFFFFFFFFFFFFFFFFFFFFFFFF AND SWAP1 POP SWAP1 JUMP JUMPDEST PUSH1 0x60 PUSH1 0x4 DUP1 SLOAD PUSH3 0x69E SWAP1 PUSH3 0x1B0F JUMP JUMPDEST DUP1 PUSH1 0x1F ADD PUSH1 0x20 DUP1 SWAP2 DIV MUL PUSH1 0x20 ADD PUSH1 0x40 MLOAD SWAP1 DUP2 ADD PUSH1 0x40 MSTORE DUP1 SWAP3 SWAP2 SWAP1 DUP2 DUP2 MSTORE PUSH1 0x20 ADD DUP3 DUP1 SLOAD PUSH3 0x6CC SWAP1 PUSH3 0x1B0F JUMP JUMPDEST DUP1 ISZERO PUSH3 0x71B JUMPI DUP1 PUSH1 0x1F LT PUSH3 0x6F1 JUMPI PUSH2 0x100 DUP1 DUP4 SLOAD DIV MUL DUP4 MSTORE SWAP2 PUSH1 0x20 ADD SWAP2 PUSH3 0x71B JUMP JUMPDEST DUP3 ADD SWAP2 SWAP1 PUSH0 MSTORE PUSH1 0x20 PUSH0 KECCAK256 SWAP1 JUMPDEST DUP2 SLOAD DUP2 MSTORE SWAP1 PUSH1 0x1 ADD SWAP1 PUSH1 0x20 ADD DUP1 DUP4 GT PUSH3 0x6FD JUMPI DUP3 SWAP1 SUB PUSH1 0x1F AND DUP3 ADD SWAP2 JUMPDEST POP POP POP POP POP SWAP1 POP SWAP1 JUMP JUMPDEST PUSH1 0x1 ISZERO ISZERO PUSH1 0x9 PUSH0 CALLER PUSH20 0xFFFFFFFFFFFFFFFFFFFFFFFFFFFFFFFFFFFFFFFF AND PUSH20 0xFFFFFFFFFFFFFFFFFFFFFFFFFFFFFFFFFFFFFFFF AND DUP2 MSTORE PUSH1 0x20 ADD SWAP1 DUP2 MSTORE PUSH1 0x20 ADD PUSH0 KECCAK256 PUSH0 SWAP1 SLOAD SWAP1 PUSH2 0x100 EXP SWAP1 DIV PUSH1 0xFF AND ISZERO ISZERO EQ PUSH3 0x7B8 JUMPI PUSH1 0x40 MLOAD PUSH32 0x8C379A000000000000000000000000000000000000000000000000000000000 DUP2 MSTORE PUSH1 0x4 ADD PUSH3 0x7AF SWAP1 PUSH3 0x1B91 JUMP JUMPDEST PUSH1 0x40 MLOAD DUP1 SWAP2 SUB SWAP1 REVERT JUMPDEST PUSH3 0x7C4 DUP3 DUP3 PUSH3 0xF7E JUMP JUMPDEST POP POP JUMP JUMPDEST PUSH0 DUP1 PUSH3 0x7D4 PUSH3 0xBA2 JUMP JUMPDEST SWAP1 POP PUSH3 0x7E3 DUP2 DUP6 DUP6 PUSH3 0xC57 JUMP JUMPDEST PUSH1 0x1 SWAP2 POP POP SWAP3 SWAP2 POP POP JUMP JUMPDEST PUSH1 0x6 SLOAD DUP2 JUMP JUMPDEST PUSH0 PUSH1 0x1 PUSH0 DUP5 PUSH20 0xFFFFFFFFFFFFFFFFFFFFFFFFFFFFFFFFFFFFFFFF AND PUSH20 0xFFFFFFFFFFFFFFFFFFFFFFFFFFFFFFFFFFFFFFFF AND DUP2 MSTORE PUSH1 0x20 ADD SWAP1 DUP2 MSTORE PUSH1 0x20 ADD PUSH0 KECCAK256 PUSH0 DUP4 PUSH20 0xFFFFFFFFFFFFFFFFFFFFFFFFFFFFFFFFFFFFFFFF AND PUSH20 0xFFFFFFFFFFFFFFFFFFFFFFFFFFFFFFFFFFFFFFFF AND DUP2 MSTORE PUSH1 0x20 ADD SWAP1 DUP2 MSTORE PUSH1 0x20 ADD PUSH0 KECCAK256 SLOAD SWAP1 POP SWAP3 SWAP2 POP POP JUMP JUMPDEST PUSH3 0x880 PUSH3 0x13FE JUMP JUMPDEST PUSH3 0x88A PUSH3 0xD4F JUMP JUMPDEST PUSH0 PUSH1 0x8 PUSH0 PUSH1 0x6 SLOAD DUP2 MSTORE PUSH1 0x20 ADD SWAP1 DUP2 MSTORE PUSH1 0x20 ADD PUSH0 KECCAK256 SWAP1 POP PUSH0 ISZERO ISZERO PUSH1 0x7 DUP8 PUSH1 0x40 MLOAD PUSH3 0x8B5 SWAP2 SWAP1 PUSH3 0x1BF1 JUMP JUMPDEST SWAP1 DUP2 MSTORE PUSH1 0x20 ADD PUSH1 0x40 MLOAD DUP1 SWAP2 SUB SWAP1 KECCAK256 PUSH0 SWAP1 SLOAD SWAP1 PUSH2 0x100 EXP SWAP1 DIV PUSH1 0xFF AND ISZERO ISZERO EQ PUSH3 0x915 JUMPI PUSH1 0x40 MLOAD PUSH32 0x8C379A000000000000000000000000000000000000000000000000000000000 DUP2 MSTORE PUSH1 0x4 ADD PUSH3 0x90C SWAP1 PUSH3 0x1C57 JUMP JUMPDEST PUSH1 0x40 MLOAD DUP1 SWAP2 SUB SWAP1 REVERT JUMPDEST PUSH1 0x1 PUSH1 0x7 DUP8 PUSH1 0x40 MLOAD PUSH3 0x929 SWAP2 SWAP1 PUSH3 0x1BF1 JUMP JUMPDEST SWAP1 DUP2 MSTORE PUSH1 0x20 ADD PUSH1 0x40 MLOAD DUP1 SWAP2 SUB SWAP1 KECCAK256 PUSH0 PUSH2 0x100 EXP DUP2 SLOAD DUP2 PUSH1 0xFF MUL NOT AND SWAP1 DUP4 ISZERO ISZERO MUL OR SWAP1 SSTORE POP PUSH0 DUP6 DUP8 DUP7 ADDRESS PUSH1 0x40 MLOAD PUSH3 0x960 SWAP1 PUSH3 0x142D JUMP JUMPDEST PUSH3 0x96F SWAP5 SWAP4 SWAP3 SWAP2 SWAP1 PUSH3 0x1C77 JUMP JUMPDEST PUSH1 0x40 MLOAD DUP1 SWAP2 SUB SWAP1 PUSH0 CREATE DUP1 ISZERO DUP1 ISZERO PUSH3 0x989 JUMPI RETURNDATASIZE PUSH0 DUP1 RETURNDATACOPY RETURNDATASIZE PUSH0 REVERT JUMPDEST POP SWAP1 POP DUP1 DUP3 PUSH0 ADD PUSH0 PUSH2 0x100 EXP DUP2 SLOAD DUP2 PUSH20 0xFFFFFFFFFFFFFFFFFFFFFFFFFFFFFFFFFFFFFFFF MUL NOT AND SWAP1 DUP4 PUSH20 0xFFFFFFFFFFFFFFFFFFFFFFFFFFFFFFFFFFFFFFFF AND MUL OR SWAP1 SSTORE POP DUP7 DUP3 PUSH1 0x1 ADD SWAP1 DUP2 PUSH3 0x9E0 SWAP2 SWAP1 PUSH3 0x1E8C JUMP JUMPDEST POP PUSH3 0x9ED DUP2 DUP6 PUSH3 0xE37 JUMP JUMPDEST PUSH1 0x6 PUSH0 DUP2 SLOAD DUP1 SWAP3 SWAP2 SWAP1 PUSH3 0xA01 SWAP1 PUSH3 0x1F9D JUMP JUMPDEST SWAP2 SWAP1 POP SSTORE POP PUSH3 0xA13 DUP2 PUSH1 0x1 PUSH3 0xDDF JUMP JUMPDEST DUP2 PUSH1 0x40 MLOAD DUP1 PUSH1 0x40 ADD PUSH1 0x40 MSTORE SWAP1 DUP2 PUSH0 DUP3 ADD PUSH0 SWAP1 SLOAD SWAP1 PUSH2 0x100 EXP SWAP1 DIV PUSH20 0xFFFFFFFFFFFFFFFFFFFFFFFFFFFFFFFFFFFFFFFF AND PUSH20 0xFFFFFFFFFFFFFFFFFFFFFFFFFFFFFFFFFFFFFFFF AND PUSH20 0xFFFFFFFFFFFFFFFFFFFFFFFFFFFFFFFFFFFFFFFF AND DUP2 MSTORE PUSH1 0x20 ADD PUSH1 0x1 DUP3 ADD DUP1 SLOAD PUSH3 0xA85 SWAP1 PUSH3 0x1B0F JUMP JUMPDEST DUP1 PUSH1 0x1F ADD PUSH1 0x20 DUP1 SWAP2 DIV MUL PUSH1 0x20 ADD PUSH1 0x40 MLOAD SWAP1 DUP2 ADD PUSH1 0x40 MSTORE DUP1 SWAP3 SWAP2 SWAP1 DUP2 DUP2 MSTORE PUSH1 0x20 ADD DUP3 DUP1 SLOAD PUSH3 0xAB3 SWAP1 PUSH3 0x1B0F JUMP JUMPDEST DUP1 ISZERO PUSH3 0xB02 JUMPI DUP1 PUSH1 0x1F LT PUSH3 0xAD8 JUMPI PUSH2 0x100 DUP1 DUP4 SLOAD DIV MUL DUP4 MSTORE SWAP2 PUSH1 0x20 ADD SWAP2 PUSH3 0xB02 JUMP JUMPDEST DUP3 ADD SWAP2 SWAP1 PUSH0 MSTORE PUSH1 0x20 PUSH0 KECCAK256 SWAP1 JUMPDEST DUP2 SLOAD DUP2 MSTORE SWAP1 PUSH1 0x1 ADD SWAP1 PUSH1 0x20 ADD DUP1 DUP4 GT PUSH3 0xAE4 JUMPI DUP3 SWAP1 SUB PUSH1 0x1F AND DUP3 ADD SWAP2 JUMPDEST POP POP POP POP POP DUP2 MSTORE POP POP SWAP3 POP POP POP SWAP5 SWAP4 POP POP POP POP JUMP JUMPDEST PUSH3 0xB21 PUSH3 0xD4F JUMP JUMPDEST PUSH0 PUSH20 0xFFFFFFFFFFFFFFFFFFFFFFFFFFFFFFFFFFFFFFFF AND DUP2 PUSH20 0xFFFFFFFFFFFFFFFFFFFFFFFFFFFFFFFFFFFFFFFF AND SUB PUSH3 0xB94 JUMPI PUSH0 PUSH1 0x40 MLOAD PUSH32 0x1E4FBDF700000000000000000000000000000000000000000000000000000000 DUP2 MSTORE PUSH1 0x4 ADD PUSH3 0xB8B SWAP2 SWAP1 PUSH3 0x17EB JUMP JUMPDEST PUSH1 0x40 MLOAD DUP1 SWAP2 SUB SWAP1 REVERT JUMPDEST PUSH3 0xB9F DUP2 PUSH3 0xEBB JUMP JUMPDEST POP JUMP JUMPDEST PUSH0 CALLER SWAP1 POP SWAP1 JUMP JUMPDEST PUSH3 0xBB8 DUP4 DUP4 DUP4 PUSH1 0x1 PUSH3 0x1002 JUMP JUMPDEST POP POP POP JUMP JUMPDEST PUSH0 PUSH3 0xBCA DUP5 DUP5 PUSH3 0x7F4 JUMP JUMPDEST SWAP1 POP PUSH32 0xFFFFFFFFFFFFFFFFFFFFFFFFFFFFFFFFFFFFFFFFFFFFFFFFFFFFFFFFFFFFFFFF DUP2 EQ PUSH3 0xC51 JUMPI DUP2 DUP2 LT ISZERO PUSH3 0xC40 JUMPI DUP3 DUP2 DUP4 PUSH1 0x40 MLOAD PUSH32 0xFB8F41B200000000000000000000000000000000000000000000000000000000 DUP2 MSTORE PUSH1 0x4 ADD PUSH3 0xC37 SWAP4 SWAP3 SWAP2 SWAP1 PUSH3 0x1FE9 JUMP JUMPDEST PUSH1 0x40 MLOAD DUP1 SWAP2 SUB SWAP1 REVERT JUMPDEST PUSH3 0xC50 DUP5 DUP5 DUP5 DUP5 SUB PUSH0 PUSH3 0x1002 JUMP JUMPDEST JUMPDEST POP POP POP POP JUMP JUMPDEST PUSH0 PUSH20 0xFFFFFFFFFFFFFFFFFFFFFFFFFFFFFFFFFFFFFFFF AND DUP4 PUSH20 0xFFFFFFFFFFFFFFFFFFFFFFFFFFFFFFFFFFFFFFFF AND SUB PUSH3 0xCCA JUMPI PUSH0 PUSH1 0x40 MLOAD PUSH32 0x96C6FD1E00000000000000000000000000000000000000000000000000000000 DUP2 MSTORE PUSH1 0x4 ADD PUSH3 0xCC1 SWAP2 SWAP1 PUSH3 0x17EB JUMP JUMPDEST PUSH1 0x40 MLOAD DUP1 SWAP2 SUB SWAP1 REVERT JUMPDEST PUSH0 PUSH20 0xFFFFFFFFFFFFFFFFFFFFFFFFFFFFFFFFFFFFFFFF AND DUP3 PUSH20 0xFFFFFFFFFFFFFFFFFFFFFFFFFFFFFFFFFFFFFFFF AND SUB PUSH3 0xD3D JUMPI PUSH0 PUSH1 0x40 MLOAD PUSH32 0xEC442F0500000000000000000000000000000000000000000000000000000000 DUP2 MSTORE PUSH1 0x4 ADD PUSH3 0xD34 SWAP2 SWAP1 PUSH3 0x17EB JUMP JUMPDEST PUSH1 0x40 MLOAD DUP1 SWAP2 SUB SWAP1 REVERT JUMPDEST PUSH3 0xD4A DUP4 DUP4 DUP4 PUSH3 0x11DA JUMP JUMPDEST POP POP POP JUMP JUMPDEST PUSH3 0xD59 PUSH3 0xBA2 JUMP JUMPDEST PUSH20 0xFFFFFFFFFFFFFFFFFFFFFFFFFFFFFFFFFFFFFFFF AND PUSH3 0xD79 PUSH3 0x665 JUMP JUMPDEST PUSH20 0xFFFFFFFFFFFFFFFFFFFFFFFFFFFFFFFFFFFFFFFF AND EQ PUSH3 0xDDD JUMPI PUSH3 0xD9F PUSH3 0xBA2 JUMP JUMPDEST PUSH1 0x40 MLOAD PUSH32 0x118CDAA700000000000000000000000000000000000000000000000000000000 DUP2 MSTORE PUSH1 0x4 ADD PUSH3 0xDD4 SWAP2 SWAP1 PUSH3 0x17EB JUMP JUMPDEST PUSH1 0x40 MLOAD DUP1 SWAP2 SUB SWAP1 REVERT JUMPDEST JUMP JUMPDEST DUP1 PUSH1 0x9 PUSH0 DUP5 PUSH20 0xFFFFFFFFFFFFFFFFFFFFFFFFFFFFFFFFFFFFFFFF AND PUSH20 0xFFFFFFFFFFFFFFFFFFFFFFFFFFFFFFFFFFFFFFFF AND DUP2 MSTORE PUSH1 0x20 ADD SWAP1 DUP2 MSTORE PUSH1 0x20 ADD PUSH0 KECCAK256 PUSH0 PUSH2 0x100 EXP DUP2 SLOAD DUP2 PUSH1 0xFF MUL NOT AND SWAP1 DUP4 ISZERO ISZERO MUL OR SWAP1 SSTORE POP POP POP JUMP JUMPDEST PUSH0 PUSH20 0xFFFFFFFFFFFFFFFFFFFFFFFFFFFFFFFFFFFFFFFF AND DUP3 PUSH20 0xFFFFFFFFFFFFFFFFFFFFFFFFFFFFFFFFFFFFFFFF AND SUB PUSH3 0xEAA JUMPI PUSH0 PUSH1 0x40 MLOAD PUSH32 0xEC442F0500000000000000000000000000000000000000000000000000000000 DUP2 MSTORE PUSH1 0x4 ADD PUSH3 0xEA1 SWAP2 SWAP1 PUSH3 0x17EB JUMP JUMPDEST PUSH1 0x40 MLOAD DUP1 SWAP2 SUB SWAP1 REVERT JUMPDEST PUSH3 0xEB7 PUSH0 DUP4 DUP4 PUSH3 0x11DA JUMP JUMPDEST POP POP JUMP JUMPDEST PUSH0 PUSH1 0x5 PUSH0 SWAP1 SLOAD SWAP1 PUSH2 0x100 EXP SWAP1 DIV PUSH20 0xFFFFFFFFFFFFFFFFFFFFFFFFFFFFFFFFFFFFFFFF AND SWAP1 POP DUP2 PUSH1 0x5 PUSH0 PUSH2 0x100 EXP DUP2 SLOAD DUP2 PUSH20 0xFFFFFFFFFFFFFFFFFFFFFFFFFFFFFFFFFFFFFFFF MUL NOT AND SWAP1 DUP4 PUSH20 0xFFFFFFFFFFFFFFFFFFFFFFFFFFFFFFFFFFFFFFFF AND MUL OR SWAP1 SSTORE POP DUP2 PUSH20 0xFFFFFFFFFFFFFFFFFFFFFFFFFFFFFFFFFFFFFFFF AND DUP2 PUSH20 0xFFFFFFFFFFFFFFFFFFFFFFFFFFFFFFFFFFFFFFFF AND PUSH32 0x8BE0079C531659141344CD1FD0A4F28419497F9722A3DAAFE3B4186F6B6457E0 PUSH1 0x40 MLOAD PUSH1 0x40 MLOAD DUP1 SWAP2 SUB SWAP1 LOG3 POP POP JUMP JUMPDEST PUSH0 PUSH20 0xFFFFFFFFFFFFFFFFFFFFFFFFFFFFFFFFFFFFFFFF AND DUP3 PUSH20 0xFFFFFFFFFFFFFFFFFFFFFFFFFFFFFFFFFFFFFFFF AND SUB PUSH3 0xFF1 JUMPI PUSH0 PUSH1 0x40 MLOAD PUSH32 0x96C6FD1E00000000000000000000000000000000000000000000000000000000 DUP2 MSTORE PUSH1 0x4 ADD PUSH3 0xFE8 SWAP2 SWAP1 PUSH3 0x17EB JUMP JUMPDEST PUSH1 0x40 MLOAD DUP1 SWAP2 SUB SWAP1 REVERT JUMPDEST PUSH3 0xFFE DUP3 PUSH0 DUP4 PUSH3 0x11DA JUMP JUMPDEST POP POP JUMP JUMPDEST PUSH0 PUSH20 0xFFFFFFFFFFFFFFFFFFFFFFFFFFFFFFFFFFFFFFFF AND DUP5 PUSH20 0xFFFFFFFFFFFFFFFFFFFFFFFFFFFFFFFFFFFFFFFF AND SUB PUSH3 0x1075 JUMPI PUSH0 PUSH1 0x40 MLOAD PUSH32 0xE602DF0500000000000000000000000000000000000000000000000000000000 DUP2 MSTORE PUSH1 0x4 ADD PUSH3 0x106C SWAP2 SWAP1 PUSH3 0x17EB JUMP JUMPDEST PUSH1 0x40 MLOAD DUP1 SWAP2 SUB SWAP1 REVERT JUMPDEST PUSH0 PUSH20 0xFFFFFFFFFFFFFFFFFFFFFFFFFFFFFFFFFFFFFFFF AND DUP4 PUSH20 0xFFFFFFFFFFFFFFFFFFFFFFFFFFFFFFFFFFFFFFFF AND SUB PUSH3 0x10E8 JUMPI PUSH0 PUSH1 0x40 MLOAD PUSH32 0x94280D6200000000000000000000000000000000000000000000000000000000 DUP2 MSTORE PUSH1 0x4 ADD PUSH3 0x10DF SWAP2 SWAP1 PUSH3 0x17EB JUMP JUMPDEST PUSH1 0x40 MLOAD DUP1 SWAP2 SUB SWAP1 REVERT JUMPDEST DUP2 PUSH1 0x1 PUSH0 DUP7 PUSH20 0xFFFFFFFFFFFFFFFFFFFFFFFFFFFFFFFFFFFFFFFF AND PUSH20 0xFFFFFFFFFFFFFFFFFFFFFFFFFFFFFFFFFFFFFFFF AND DUP2 MSTORE PUSH1 0x20 ADD SWAP1 DUP2 MSTORE PUSH1 0x20 ADD PUSH0 KECCAK256 PUSH0 DUP6 PUSH20 0xFFFFFFFFFFFFFFFFFFFFFFFFFFFFFFFFFFFFFFFF AND PUSH20 0xFFFFFFFFFFFFFFFFFFFFFFFFFFFFFFFFFFFFFFFF AND DUP2 MSTORE PUSH1 0x20 ADD SWAP1 DUP2 MSTORE PUSH1 0x20 ADD PUSH0 KECCAK256 DUP2 SWAP1 SSTORE POP DUP1 ISZERO PUSH3 0x11D4 JUMPI DUP3 PUSH20 0xFFFFFFFFFFFFFFFFFFFFFFFFFFFFFFFFFFFFFFFF AND DUP5 PUSH20 0xFFFFFFFFFFFFFFFFFFFFFFFFFFFFFFFFFFFFFFFF AND PUSH32 0x8C5BE1E5EBEC7D5BD14F71427D1E84F3DD0314C0F7B2291E5B200AC8C7C3B925 DUP5 PUSH1 0x40 MLOAD PUSH3 0x11CB SWAP2 SWAP1 PUSH3 0x169B JUMP JUMPDEST PUSH1 0x40 MLOAD DUP1 SWAP2 SUB SWAP1 LOG3 JUMPDEST POP POP POP POP JUMP JUMPDEST PUSH0 PUSH20 0xFFFFFFFFFFFFFFFFFFFFFFFFFFFFFFFFFFFFFFFF AND DUP4 PUSH20 0xFFFFFFFFFFFFFFFFFFFFFFFFFFFFFFFFFFFFFFFF AND SUB PUSH3 0x122E JUMPI DUP1 PUSH1 0x2 PUSH0 DUP3 DUP3 SLOAD PUSH3 0x1221 SWAP2 SWAP1 PUSH3 0x2024 JUMP JUMPDEST SWAP3 POP POP DUP2 SWAP1 SSTORE POP PUSH3 0x12FF JUMP JUMPDEST PUSH0 DUP1 PUSH0 DUP6 PUSH20 0xFFFFFFFFFFFFFFFFFFFFFFFFFFFFFFFFFFFFFFFF AND PUSH20 0xFFFFFFFFFFFFFFFFFFFFFFFFFFFFFFFFFFFFFFFF AND DUP2 MSTORE PUSH1 0x20 ADD SWAP1 DUP2 MSTORE PUSH1 0x20 ADD PUSH0 KECCAK256 SLOAD SWAP1 POP DUP2 DUP2 LT ISZERO PUSH3 0x12BA JUMPI DUP4 DUP2 DUP4 PUSH1 0x40 MLOAD PUSH32 0xE450D38C00000000000000000000000000000000000000000000000000000000 DUP2 MSTORE PUSH1 0x4 ADD PUSH3 0x12B1 SWAP4 SWAP3 SWAP2 SWAP1 PUSH3 0x1FE9 JUMP JUMPDEST PUSH1 0x40 MLOAD DUP1 SWAP2 SUB SWAP1 REVERT JUMPDEST DUP2 DUP2 SUB PUSH0 DUP1 DUP7 PUSH20 0xFFFFFFFFFFFFFFFFFFFFFFFFFFFFFFFFFFFFFFFF AND PUSH20 0xFFFFFFFFFFFFFFFFFFFFFFFFFFFFFFFFFFFFFFFF AND DUP2 MSTORE PUSH1 0x20 ADD SWAP1 DUP2 MSTORE PUSH1 0x20 ADD PUSH0 KECCAK256 DUP2 SWAP1 SSTORE POP POP JUMPDEST PUSH0 PUSH20 0xFFFFFFFFFFFFFFFFFFFFFFFFFFFFFFFFFFFFFFFF AND DUP3 PUSH20 0xFFFFFFFFFFFFFFFFFFFFFFFFFFFFFFFFFFFFFFFF AND SUB PUSH3 0x1348 JUMPI DUP1 PUSH1 0x2 PUSH0 DUP3 DUP3 SLOAD SUB SWAP3 POP POP DUP2 SWAP1 SSTORE POP PUSH3 0x1392 JUMP JUMPDEST DUP1 PUSH0 DUP1 DUP5 PUSH20 0xFFFFFFFFFFFFFFFFFFFFFFFFFFFFFFFFFFFFFFFF AND PUSH20 0xFFFFFFFFFFFFFFFFFFFFFFFFFFFFFFFFFFFFFFFF AND DUP2 MSTORE PUSH1 0x20 ADD SWAP1 DUP2 MSTORE PUSH1 0x20 ADD PUSH0 KECCAK256 PUSH0 DUP3 DUP3 SLOAD ADD SWAP3 POP POP DUP2 SWAP1 SSTORE POP JUMPDEST DUP2 PUSH20 0xFFFFFFFFFFFFFFFFFFFFFFFFFFFFFFFFFFFFFFFF AND DUP4 PUSH20 0xFFFFFFFFFFFFFFFFFFFFFFFFFFFFFFFFFFFFFFFF AND PUSH32 0xDDF252AD1BE2C89B69C2B068FC378DAA952BA7F163C4A11628F55A4DF523B3EF DUP4 PUSH1 0x40 MLOAD PUSH3 0x13F1 SWAP2 SWAP1 PUSH3 0x169B JUMP JUMPDEST PUSH1 0x40 MLOAD DUP1 SWAP2 SUB SWAP1 LOG3 POP POP POP JUMP JUMPDEST PUSH1 0x40 MLOAD DUP1 PUSH1 0x40 ADD PUSH1 0x40 MSTORE DUP1 PUSH0 PUSH20 0xFFFFFFFFFFFFFFFFFFFFFFFFFFFFFFFFFFFFFFFF AND DUP2 MSTORE PUSH1 0x20 ADD PUSH1 0x60 DUP2 MSTORE POP SWAP1 JUMP JUMPDEST PUSH2 0x2315 DUP1 PUSH3 0x205F DUP4 CODECOPY ADD SWAP1 JUMP JUMPDEST PUSH0 DUP2 MLOAD SWAP1 POP SWAP2 SWAP1 POP JUMP JUMPDEST PUSH0 DUP3 DUP3 MSTORE PUSH1 0x20 DUP3 ADD SWAP1 POP SWAP3 SWAP2 POP POP JUMP JUMPDEST PUSH0 JUMPDEST DUP4 DUP2 LT ISZERO PUSH3 0x1474 JUMPI DUP1 DUP3 ADD MLOAD DUP2 DUP5 ADD MSTORE PUSH1 0x20 DUP2 ADD SWAP1 POP PUSH3 0x1457 JUMP JUMPDEST PUSH0 DUP5 DUP5 ADD MSTORE POP POP POP POP JUMP JUMPDEST PUSH0 PUSH1 0x1F NOT PUSH1 0x1F DUP4 ADD AND SWAP1 POP SWAP2 SWAP1 POP JUMP JUMPDEST PUSH0 PUSH3 0x149B DUP3 PUSH3 0x143B JUMP JUMPDEST PUSH3 0x14A7 DUP2 DUP6 PUSH3 0x1445 JUMP JUMPDEST SWAP4 POP PUSH3 0x14B9 DUP2 DUP6 PUSH1 0x20 DUP7 ADD PUSH3 0x1455 JUMP JUMPDEST PUSH3 0x14C4 DUP2 PUSH3 0x147F JUMP JUMPDEST DUP5 ADD SWAP2 POP POP SWAP3 SWAP2 POP POP JUMP JUMPDEST PUSH0 PUSH1 0x20 DUP3 ADD SWAP1 POP DUP2 DUP2 SUB PUSH0 DUP4 ADD MSTORE PUSH3 0x14E9 DUP2 DUP5 PUSH3 0x148F JUMP JUMPDEST SWAP1 POP SWAP3 SWAP2 POP POP JUMP JUMPDEST PUSH0 PUSH1 0x40 MLOAD SWAP1 POP SWAP1 JUMP JUMPDEST PUSH0 DUP1 REVERT JUMPDEST PUSH0 DUP1 REVERT JUMPDEST PUSH0 PUSH20 0xFFFFFFFFFFFFFFFFFFFFFFFFFFFFFFFFFFFFFFFF DUP3 AND SWAP1 POP SWAP2 SWAP1 POP JUMP JUMPDEST PUSH0 PUSH3 0x152D DUP3 PUSH3 0x1502 JUMP JUMPDEST SWAP1 POP SWAP2 SWAP1 POP JUMP JUMPDEST PUSH3 0x153F DUP2 PUSH3 0x1521 JUMP JUMPDEST DUP2 EQ PUSH3 0x154A JUMPI PUSH0 DUP1 REVERT JUMPDEST POP JUMP JUMPDEST PUSH0 DUP2 CALLDATALOAD SWAP1 POP PUSH3 0x155D DUP2 PUSH3 0x1534 JUMP JUMPDEST SWAP3 SWAP2 POP POP JUMP JUMPDEST PUSH0 DUP2 SWAP1 POP SWAP2 SWAP1 POP JUMP JUMPDEST PUSH3 0x1577 DUP2 PUSH3 0x1563 JUMP JUMPDEST DUP2 EQ PUSH3 0x1582 JUMPI PUSH0 DUP1 REVERT JUMPDEST POP JUMP JUMPDEST PUSH0 DUP2 CALLDATALOAD SWAP1 POP PUSH3 0x1595 DUP2 PUSH3 0x156C JUMP JUMPDEST SWAP3 SWAP2 POP POP JUMP JUMPDEST PUSH0 DUP1 PUSH1 0x40 DUP4 DUP6 SUB SLT ISZERO PUSH3 0x15B4 JUMPI PUSH3 0x15B3 PUSH3 0x14FA JUMP JUMPDEST JUMPDEST PUSH0 PUSH3 0x15C3 DUP6 DUP3 DUP7 ADD PUSH3 0x154D JUMP JUMPDEST SWAP3 POP POP PUSH1 0x20 PUSH3 0x15D6 DUP6 DUP3 DUP7 ADD PUSH3 0x1585 JUMP JUMPDEST SWAP2 POP POP SWAP3 POP SWAP3 SWAP1 POP JUMP JUMPDEST PUSH0 DUP2 ISZERO ISZERO SWAP1 POP SWAP2 SWAP1 POP JUMP JUMPDEST PUSH3 0x15F6 DUP2 PUSH3 0x15E0 JUMP JUMPDEST DUP3 MSTORE POP POP JUMP JUMPDEST PUSH0 PUSH1 0x20 DUP3 ADD SWAP1 POP PUSH3 0x1611 PUSH0 DUP4 ADD DUP5 PUSH3 0x15EB JUMP JUMPDEST SWAP3 SWAP2 POP POP JUMP JUMPDEST PUSH0 PUSH1 0x20 DUP3 DUP5 SUB SLT ISZERO PUSH3 0x162F JUMPI PUSH3 0x162E PUSH3 0x14FA JUMP JUMPDEST JUMPDEST PUSH0 PUSH3 0x163E DUP5 DUP3 DUP6 ADD PUSH3 0x1585 JUMP JUMPDEST SWAP2 POP POP SWAP3 SWAP2 POP POP JUMP JUMPDEST PUSH3 0x1652 DUP2 PUSH3 0x1521 JUMP JUMPDEST DUP3 MSTORE POP POP JUMP JUMPDEST PUSH0 PUSH1 0x40 DUP3 ADD SWAP1 POP PUSH3 0x166D PUSH0 DUP4 ADD DUP6 PUSH3 0x1647 JUMP JUMPDEST DUP2 DUP2 SUB PUSH1 0x20 DUP4 ADD MSTORE PUSH3 0x1681 DUP2 DUP5 PUSH3 0x148F JUMP JUMPDEST SWAP1 POP SWAP4 SWAP3 POP POP POP JUMP JUMPDEST PUSH3 0x1695 DUP2 PUSH3 0x1563 JUMP JUMPDEST DUP3 MSTORE POP POP JUMP JUMPDEST PUSH0 PUSH1 0x20 DUP3 ADD SWAP1 POP PUSH3 0x16B0 PUSH0 DUP4 ADD DUP5 PUSH3 0x168A JUMP JUMPDEST SWAP3 SWAP2 POP POP JUMP JUMPDEST PUSH0 DUP1 PUSH0 PUSH1 0x60 DUP5 DUP7 SUB SLT ISZERO PUSH3 0x16D0 JUMPI PUSH3 0x16CF PUSH3 0x14FA JUMP JUMPDEST JUMPDEST PUSH0 PUSH3 0x16DF DUP7 DUP3 DUP8 ADD PUSH3 0x154D JUMP JUMPDEST SWAP4 POP POP PUSH1 0x20 PUSH3 0x16F2 DUP7 DUP3 DUP8 ADD PUSH3 0x154D JUMP JUMPDEST SWAP3 POP POP PUSH1 0x40 PUSH3 0x1705 DUP7 DUP3 DUP8 ADD PUSH3 0x1585 JUMP JUMPDEST SWAP2 POP POP SWAP3 POP SWAP3 POP SWAP3 JUMP JUMPDEST PUSH3 0x171A DUP2 PUSH3 0x15E0 JUMP JUMPDEST DUP2 EQ PUSH3 0x1725 JUMPI PUSH0 DUP1 REVERT JUMPDEST POP JUMP JUMPDEST PUSH0 DUP2 CALLDATALOAD SWAP1 POP PUSH3 0x1738 DUP2 PUSH3 0x170F JUMP JUMPDEST SWAP3 SWAP2 POP POP JUMP JUMPDEST PUSH0 DUP1 PUSH1 0x40 DUP4 DUP6 SUB SLT ISZERO PUSH3 0x1757 JUMPI PUSH3 0x1756 PUSH3 0x14FA JUMP JUMPDEST JUMPDEST PUSH0 PUSH3 0x1766 DUP6 DUP3 DUP7 ADD PUSH3 0x154D JUMP JUMPDEST SWAP3 POP POP PUSH1 0x20 PUSH3 0x1779 DUP6 DUP3 DUP7 ADD PUSH3 0x1728 JUMP JUMPDEST SWAP2 POP POP SWAP3 POP SWAP3 SWAP1 POP JUMP JUMPDEST PUSH0 PUSH1 0xFF DUP3 AND SWAP1 POP SWAP2 SWAP1 POP JUMP JUMPDEST PUSH3 0x179A DUP2 PUSH3 0x1783 JUMP JUMPDEST DUP3 MSTORE POP POP JUMP JUMPDEST PUSH0 PUSH1 0x20 DUP3 ADD SWAP1 POP PUSH3 0x17B5 PUSH0 DUP4 ADD DUP5 PUSH3 0x178F JUMP JUMPDEST SWAP3 SWAP2 POP POP JUMP JUMPDEST PUSH0 PUSH1 0x20 DUP3 DUP5 SUB SLT ISZERO PUSH3 0x17D3 JUMPI PUSH3 0x17D2 PUSH3 0x14FA JUMP JUMPDEST JUMPDEST PUSH0 PUSH3 0x17E2 DUP5 DUP3 DUP6 ADD PUSH3 0x154D JUMP JUMPDEST SWAP2 POP POP SWAP3 SWAP2 POP POP JUMP JUMPDEST PUSH0 PUSH1 0x20 DUP3 ADD SWAP1 POP PUSH3 0x1800 PUSH0 DUP4 ADD DUP5 PUSH3 0x1647 JUMP JUMPDEST SWAP3 SWAP2 POP POP JUMP JUMPDEST PUSH0 DUP1 PUSH1 0x40 DUP4 DUP6 SUB SLT ISZERO PUSH3 0x181F JUMPI PUSH3 0x181E PUSH3 0x14FA JUMP JUMPDEST JUMPDEST PUSH0 PUSH3 0x182E DUP6 DUP3 DUP7 ADD PUSH3 0x154D JUMP JUMPDEST SWAP3 POP POP PUSH1 0x20 PUSH3 0x1841 DUP6 DUP3 DUP7 ADD PUSH3 0x154D JUMP JUMPDEST SWAP2 POP POP SWAP3 POP SWAP3 SWAP1 POP JUMP JUMPDEST PUSH0 DUP1 REVERT JUMPDEST PUSH0 DUP1 REVERT JUMPDEST PUSH32 0x4E487B7100000000000000000000000000000000000000000000000000000000 PUSH0 MSTORE PUSH1 0x41 PUSH1 0x4 MSTORE PUSH1 0x24 PUSH0 REVERT JUMPDEST PUSH3 0x188B DUP3 PUSH3 0x147F JUMP JUMPDEST DUP2 ADD DUP2 DUP2 LT PUSH8 0xFFFFFFFFFFFFFFFF DUP3 GT OR ISZERO PUSH3 0x18AD JUMPI PUSH3 0x18AC PUSH3 0x1853 JUMP JUMPDEST JUMPDEST DUP1 PUSH1 0x40 MSTORE POP POP POP JUMP JUMPDEST PUSH0 PUSH3 0x18C1 PUSH3 0x14F1 JUMP JUMPDEST SWAP1 POP PUSH3 0x18CF DUP3 DUP3 PUSH3 0x1880 JUMP JUMPDEST SWAP2 SWAP1 POP JUMP JUMPDEST PUSH0 PUSH8 0xFFFFFFFFFFFFFFFF DUP3 GT ISZERO PUSH3 0x18F1 JUMPI PUSH3 0x18F0 PUSH3 0x1853 JUMP JUMPDEST JUMPDEST PUSH3 0x18FC DUP3 PUSH3 0x147F JUMP JUMPDEST SWAP1 POP PUSH1 0x20 DUP2 ADD SWAP1 POP SWAP2 SWAP1 POP JUMP JUMPDEST DUP3 DUP2 DUP4 CALLDATACOPY PUSH0 DUP4 DUP4 ADD MSTORE POP POP POP JUMP JUMPDEST PUSH0 PUSH3 0x192D PUSH3 0x1927 DUP5 PUSH3 0x18D4 JUMP JUMPDEST PUSH3 0x18B6 JUMP JUMPDEST SWAP1 POP DUP3 DUP2 MSTORE PUSH1 0x20 DUP2 ADD DUP5 DUP5 DUP5 ADD GT ISZERO PUSH3 0x194C JUMPI PUSH3 0x194B PUSH3 0x184F JUMP JUMPDEST JUMPDEST PUSH3 0x1959 DUP5 DUP3 DUP6 PUSH3 0x1909 JUMP JUMPDEST POP SWAP4 SWAP3 POP POP POP JUMP JUMPDEST PUSH0 DUP3 PUSH1 0x1F DUP4 ADD SLT PUSH3 0x1978 JUMPI PUSH3 0x1977 PUSH3 0x184B JUMP JUMPDEST JUMPDEST DUP2 CALLDATALOAD PUSH3 0x198A DUP5 DUP3 PUSH1 0x20 DUP7 ADD PUSH3 0x1917 JUMP JUMPDEST SWAP2 POP POP SWAP3 SWAP2 POP POP JUMP JUMPDEST PUSH0 DUP1 PUSH0 DUP1 PUSH1 0x80 DUP6 DUP8 SUB SLT ISZERO PUSH3 0x19AE JUMPI PUSH3 0x19AD PUSH3 0x14FA JUMP JUMPDEST JUMPDEST PUSH0 DUP6 ADD CALLDATALOAD PUSH8 0xFFFFFFFFFFFFFFFF DUP2 GT ISZERO PUSH3 0x19CE JUMPI PUSH3 0x19CD PUSH3 0x14FE JUMP JUMPDEST JUMPDEST PUSH3 0x19DC DUP8 DUP3 DUP9 ADD PUSH3 0x1961 JUMP JUMPDEST SWAP5 POP POP PUSH1 0x20 PUSH3 0x19EF DUP8 DUP3 DUP9 ADD PUSH3 0x154D JUMP JUMPDEST SWAP4 POP POP PUSH1 0x40 PUSH3 0x1A02 DUP8 DUP3 DUP9 ADD PUSH3 0x154D JUMP JUMPDEST SWAP3 POP POP PUSH1 0x60 PUSH3 0x1A15 DUP8 DUP3 DUP9 ADD PUSH3 0x1585 JUMP JUMPDEST SWAP2 POP POP SWAP3 SWAP6 SWAP2 SWAP5 POP SWAP3 POP JUMP JUMPDEST PUSH3 0x1A2C DUP2 PUSH3 0x1521 JUMP JUMPDEST DUP3 MSTORE POP POP JUMP JUMPDEST PUSH0 DUP3 DUP3 MSTORE PUSH1 0x20 DUP3 ADD SWAP1 POP SWAP3 SWAP2 POP POP JUMP JUMPDEST PUSH0 PUSH3 0x1A4E DUP3 PUSH3 0x143B JUMP JUMPDEST PUSH3 0x1A5A DUP2 DUP6 PUSH3 0x1A32 JUMP JUMPDEST SWAP4 POP PUSH3 0x1A6C DUP2 DUP6 PUSH1 0x20 DUP7 ADD PUSH3 0x1455 JUMP JUMPDEST PUSH3 0x1A77 DUP2 PUSH3 0x147F JUMP JUMPDEST DUP5 ADD SWAP2 POP POP SWAP3 SWAP2 POP POP JUMP JUMPDEST PUSH0 PUSH1 0x40 DUP4 ADD PUSH0 DUP4 ADD MLOAD PUSH3 0x1A99 PUSH0 DUP7 ADD DUP3 PUSH3 0x1A21 JUMP JUMPDEST POP PUSH1 0x20 DUP4 ADD MLOAD DUP5 DUP3 SUB PUSH1 0x20 DUP7 ADD MSTORE PUSH3 0x1AB3 DUP3 DUP3 PUSH3 0x1A42 JUMP JUMPDEST SWAP2 POP POP DUP1 SWAP2 POP POP SWAP3 SWAP2 POP POP JUMP JUMPDEST PUSH0 PUSH1 0x20 DUP3 ADD SWAP1 POP DUP2 DUP2 SUB PUSH0 DUP4 ADD MSTORE PUSH3 0x1ADA DUP2 DUP5 PUSH3 0x1A82 JUMP JUMPDEST SWAP1 POP SWAP3 SWAP2 POP POP JUMP JUMPDEST PUSH32 0x4E487B7100000000000000000000000000000000000000000000000000000000 PUSH0 MSTORE PUSH1 0x22 PUSH1 0x4 MSTORE PUSH1 0x24 PUSH0 REVERT JUMPDEST PUSH0 PUSH1 0x2 DUP3 DIV SWAP1 POP PUSH1 0x1 DUP3 AND DUP1 PUSH3 0x1B27 JUMPI PUSH1 0x7F DUP3 AND SWAP2 POP JUMPDEST PUSH1 0x20 DUP3 LT DUP2 SUB PUSH3 0x1B3D JUMPI PUSH3 0x1B3C PUSH3 0x1AE2 JUMP JUMPDEST JUMPDEST POP SWAP2 SWAP1 POP JUMP JUMPDEST PUSH32 0x796F7520617265206E6F7420617070726F76656420746F206275726E00000000 PUSH0 DUP3 ADD MSTORE POP JUMP JUMPDEST PUSH0 PUSH3 0x1B79 PUSH1 0x1C DUP4 PUSH3 0x1445 JUMP JUMPDEST SWAP2 POP PUSH3 0x1B86 DUP3 PUSH3 0x1B43 JUMP JUMPDEST PUSH1 0x20 DUP3 ADD SWAP1 POP SWAP2 SWAP1 POP JUMP JUMPDEST PUSH0 PUSH1 0x20 DUP3 ADD SWAP1 POP DUP2 DUP2 SUB PUSH0 DUP4 ADD MSTORE PUSH3 0x1BAA DUP2 PUSH3 0x1B6B JUMP JUMPDEST SWAP1 POP SWAP2 SWAP1 POP JUMP JUMPDEST PUSH0 DUP2 SWAP1 POP SWAP3 SWAP2 POP POP JUMP JUMPDEST PUSH0 PUSH3 0x1BC7 DUP3 PUSH3 0x143B JUMP JUMPDEST PUSH3 0x1BD3 DUP2 DUP6 PUSH3 0x1BB1 JUMP JUMPDEST SWAP4 POP PUSH3 0x1BE5 DUP2 DUP6 PUSH1 0x20 DUP7 ADD PUSH3 0x1455 JUMP JUMPDEST DUP1 DUP5 ADD SWAP2 POP POP SWAP3 SWAP2 POP POP JUMP JUMPDEST PUSH0 PUSH3 0x1BFE DUP3 DUP5 PUSH3 0x1BBB JUMP JUMPDEST SWAP2 POP DUP2 SWAP1 POP SWAP3 SWAP2 POP POP JUMP JUMPDEST PUSH32 0x6E616D652074616B656E00000000000000000000000000000000000000000000 PUSH0 DUP3 ADD MSTORE POP JUMP JUMPDEST PUSH0 PUSH3 0x1C3F PUSH1 0xA DUP4 PUSH3 0x1445 JUMP JUMPDEST SWAP2 POP PUSH3 0x1C4C DUP3 PUSH3 0x1C09 JUMP JUMPDEST PUSH1 0x20 DUP3 ADD SWAP1 POP SWAP2 SWAP1 POP JUMP JUMPDEST PUSH0 PUSH1 0x20 DUP3 ADD SWAP1 POP DUP2 DUP2 SUB PUSH0 DUP4 ADD MSTORE PUSH3 0x1C70 DUP2 PUSH3 0x1C31 JUMP JUMPDEST SWAP1 POP SWAP2 SWAP1 POP JUMP JUMPDEST PUSH0 PUSH1 0x80 DUP3 ADD SWAP1 POP PUSH3 0x1C8C PUSH0 DUP4 ADD DUP8 PUSH3 0x1647 JUMP JUMPDEST DUP2 DUP2 SUB PUSH1 0x20 DUP4 ADD MSTORE PUSH3 0x1CA0 DUP2 DUP7 PUSH3 0x148F JUMP JUMPDEST SWAP1 POP PUSH3 0x1CB1 PUSH1 0x40 DUP4 ADD DUP6 PUSH3 0x1647 JUMP JUMPDEST PUSH3 0x1CC0 PUSH1 0x60 DUP4 ADD DUP5 PUSH3 0x1647 JUMP JUMPDEST SWAP6 SWAP5 POP POP POP POP POP JUMP JUMPDEST PUSH0 DUP2 SWAP1 POP DUP2 PUSH0 MSTORE PUSH1 0x20 PUSH0 KECCAK256 SWAP1 POP SWAP2 SWAP1 POP JUMP JUMPDEST PUSH0 PUSH1 0x20 PUSH1 0x1F DUP4 ADD DIV SWAP1 POP SWAP2 SWAP1 POP JUMP JUMPDEST PUSH0 DUP3 DUP3 SHL SWAP1 POP SWAP3 SWAP2 POP POP JUMP JUMPDEST PUSH0 PUSH1 0x8 DUP4 MUL PUSH3 0x1D27 PUSH32 0xFFFFFFFFFFFFFFFFFFFFFFFFFFFFFFFFFFFFFFFFFFFFFFFFFFFFFFFFFFFFFFFF DUP3 PUSH3 0x1CEA JUMP JUMPDEST PUSH3 0x1D33 DUP7 DUP4 PUSH3 0x1CEA JUMP JUMPDEST SWAP6 POP DUP1 NOT DUP5 AND SWAP4 POP DUP1 DUP7 AND DUP5 OR SWAP3 POP POP POP SWAP4 SWAP3 POP POP POP JUMP JUMPDEST PUSH0 DUP2 SWAP1 POP SWAP2 SWAP1 POP JUMP JUMPDEST PUSH0 PUSH3 0x1D74 PUSH3 0x1D6E PUSH3 0x1D68 DUP5 PUSH3 0x1563 JUMP JUMPDEST PUSH3 0x1D4B JUMP JUMPDEST PUSH3 0x1563 JUMP JUMPDEST SWAP1 POP SWAP2 SWAP1 POP JUMP JUMPDEST PUSH0 DUP2 SWAP1 POP SWAP2 SWAP1 POP JUMP JUMPDEST PUSH3 0x1D8F DUP4 PUSH3 0x1D54 JUMP JUMPDEST PUSH3 0x1DA7 PUSH3 0x1D9E DUP3 PUSH3 0x1D7B JUMP JUMPDEST DUP5 DUP5 SLOAD PUSH3 0x1CF6 JUMP JUMPDEST DUP3 SSTORE POP POP POP POP JUMP JUMPDEST PUSH0 SWAP1 JUMP JUMPDEST PUSH3 0x1DBD PUSH3 0x1DAF JUMP JUMPDEST PUSH3 0x1DCA DUP2 DUP5 DUP5 PUSH3 0x1D84 JUMP JUMPDEST POP POP POP JUMP JUMPDEST JUMPDEST DUP2 DUP2 LT ISZERO PUSH3 0x1DF1 JUMPI PUSH3 0x1DE5 PUSH0 DUP3 PUSH3 0x1DB3 JUMP JUMPDEST PUSH1 0x1 DUP2 ADD SWAP1 POP PUSH3 0x1DD0 JUMP JUMPDEST POP POP JUMP JUMPDEST PUSH1 0x1F DUP3 GT ISZERO PUSH3 0x1E40 JUMPI PUSH3 0x1E0A DUP2 PUSH3 0x1CC9 JUMP JUMPDEST PUSH3 0x1E15 DUP5 PUSH3 0x1CDB JUMP JUMPDEST DUP2 ADD PUSH1 0x20 DUP6 LT ISZERO PUSH3 0x1E25 JUMPI DUP2 SWAP1 POP JUMPDEST PUSH3 0x1E3D PUSH3 0x1E34 DUP6 PUSH3 0x1CDB JUMP JUMPDEST DUP4 ADD DUP3 PUSH3 0x1DCF JUMP JUMPDEST POP POP JUMPDEST POP POP POP JUMP JUMPDEST PUSH0 DUP3 DUP3 SHR SWAP1 POP SWAP3 SWAP2 POP POP JUMP JUMPDEST PUSH0 PUSH3 0x1E62 PUSH0 NOT DUP5 PUSH1 0x8 MUL PUSH3 0x1E45 JUMP JUMPDEST NOT DUP1 DUP4 AND SWAP2 POP POP SWAP3 SWAP2 POP POP JUMP JUMPDEST PUSH0 PUSH3 0x1E7C DUP4 DUP4 PUSH3 0x1E51 JUMP JUMPDEST SWAP2 POP DUP3 PUSH1 0x2 MUL DUP3 OR SWAP1 POP SWAP3 SWAP2 POP POP JUMP JUMPDEST PUSH3 0x1E97 DUP3 PUSH3 0x143B JUMP JUMPDEST PUSH8 0xFFFFFFFFFFFFFFFF DUP2 GT ISZERO PUSH3 0x1EB3 JUMPI PUSH3 0x1EB2 PUSH3 0x1853 JUMP JUMPDEST JUMPDEST PUSH3 0x1EBF DUP3 SLOAD PUSH3 0x1B0F JUMP JUMPDEST PUSH3 0x1ECC DUP3 DUP3 DUP6 PUSH3 0x1DF5 JUMP JUMPDEST PUSH0 PUSH1 0x20 SWAP1 POP PUSH1 0x1F DUP4 GT PUSH1 0x1 DUP2 EQ PUSH3 0x1F02 JUMPI PUSH0 DUP5 ISZERO PUSH3 0x1EED JUMPI DUP3 DUP8 ADD MLOAD SWAP1 POP JUMPDEST PUSH3 0x1EF9 DUP6 DUP3 PUSH3 0x1E6F JUMP JUMPDEST DUP7 SSTORE POP PUSH3 0x1F68 JUMP JUMPDEST PUSH1 0x1F NOT DUP5 AND PUSH3 0x1F12 DUP7 PUSH3 0x1CC9 JUMP JUMPDEST PUSH0 JUMPDEST DUP3 DUP2 LT ISZERO PUSH3 0x1F3B JUMPI DUP5 DUP10 ADD MLOAD DUP3 SSTORE PUSH1 0x1 DUP3 ADD SWAP2 POP PUSH1 0x20 DUP6 ADD SWAP5 POP PUSH1 0x20 DUP2 ADD SWAP1 POP PUSH3 0x1F14 JUMP JUMPDEST DUP7 DUP4 LT ISZERO PUSH3 0x1F5B JUMPI DUP5 DUP10 ADD MLOAD PUSH3 0x1F57 PUSH1 0x1F DUP10 AND DUP3 PUSH3 0x1E51 JUMP JUMPDEST DUP4 SSTORE POP JUMPDEST PUSH1 0x1 PUSH1 0x2 DUP9 MUL ADD DUP9 SSTORE POP POP POP JUMPDEST POP POP POP POP POP POP JUMP JUMPDEST PUSH32 0x4E487B7100000000000000000000000000000000000000000000000000000000 PUSH0 MSTORE PUSH1 0x11 PUSH1 0x4 MSTORE PUSH1 0x24 PUSH0 REVERT JUMPDEST PUSH0 PUSH3 0x1FA9 DUP3 PUSH3 0x1563 JUMP JUMPDEST SWAP2 POP PUSH32 0xFFFFFFFFFFFFFFFFFFFFFFFFFFFFFFFFFFFFFFFFFFFFFFFFFFFFFFFFFFFFFFFF DUP3 SUB PUSH3 0x1FDE JUMPI PUSH3 0x1FDD PUSH3 0x1F70 JUMP JUMPDEST JUMPDEST PUSH1 0x1 DUP3 ADD SWAP1 POP SWAP2 SWAP1 POP JUMP JUMPDEST PUSH0 PUSH1 0x60 DUP3 ADD SWAP1 POP PUSH3 0x1FFE PUSH0 DUP4 ADD DUP7 PUSH3 0x1647 JUMP JUMPDEST PUSH3 0x200D PUSH1 0x20 DUP4 ADD DUP6 PUSH3 0x168A JUMP JUMPDEST PUSH3 0x201C PUSH1 0x40 DUP4 ADD DUP5 PUSH3 0x168A JUMP JUMPDEST SWAP5 SWAP4 POP POP POP POP JUMP JUMPDEST PUSH0 PUSH3 0x2030 DUP3 PUSH3 0x1563 JUMP JUMPDEST SWAP2 POP PUSH3 0x203D DUP4 PUSH3 0x1563 JUMP JUMPDEST SWAP3 POP DUP3 DUP3 ADD SWAP1 POP DUP1 DUP3 GT ISZERO PUSH3 0x2058 JUMPI PUSH3 0x2057 PUSH3 0x1F70 JUMP JUMPDEST JUMPDEST SWAP3 SWAP2 POP POP JUMP INVALID PUSH1 0x80 PUSH1 0x40 MSTORE CALLVALUE DUP1 ISZERO PUSH3 0x10 JUMPI PUSH0 DUP1 REVERT JUMPDEST POP PUSH1 0x40 MLOAD PUSH3 0x2315 CODESIZE SUB DUP1 PUSH3 0x2315 DUP4 CODECOPY DUP2 DUP2 ADD PUSH1 0x40 MSTORE DUP2 ADD SWAP1 PUSH3 0x36 SWAP2 SWAP1 PUSH3 0x476 JUMP JUMPDEST DUP4 PUSH0 PUSH20 0xFFFFFFFFFFFFFFFFFFFFFFFFFFFFFFFFFFFFFFFF AND DUP2 PUSH20 0xFFFFFFFFFFFFFFFFFFFFFFFFFFFFFFFFFFFFFFFF AND SUB PUSH3 0xAA JUMPI PUSH0 PUSH1 0x40 MLOAD PUSH32 0x1E4FBDF700000000000000000000000000000000000000000000000000000000 DUP2 MSTORE PUSH1 0x4 ADD PUSH3 0xA1 SWAP2 SWAP1 PUSH3 0x515 JUMP JUMPDEST PUSH1 0x40 MLOAD DUP1 SWAP2 SUB SWAP1 REVERT JUMPDEST PUSH3 0xBB DUP2 PUSH3 0x1CF PUSH1 0x20 SHL PUSH1 0x20 SHR JUMP JUMPDEST POP DUP3 PUSH1 0xA SWAP1 DUP2 PUSH3 0xCD SWAP2 SWAP1 PUSH3 0x767 JUMP JUMPDEST POP PUSH1 0xA PUSH1 0x3 DUP2 SWAP1 SSTORE POP PUSH2 0x1388 PUSH1 0x4 DUP2 SWAP1 SSTORE POP PUSH10 0x21E19E0C9BAB2400000 PUSH1 0x6 DUP2 SWAP1 SSTORE POP DUP2 PUSH1 0x1 PUSH0 PUSH2 0x100 EXP DUP2 SLOAD DUP2 PUSH20 0xFFFFFFFFFFFFFFFFFFFFFFFFFFFFFFFFFFFFFFFF MUL NOT AND SWAP1 DUP4 PUSH20 0xFFFFFFFFFFFFFFFFFFFFFFFFFFFFFFFFFFFFFFFF AND MUL OR SWAP1 SSTORE POP DUP1 PUSH1 0x2 PUSH0 PUSH2 0x100 EXP DUP2 SLOAD DUP2 PUSH20 0xFFFFFFFFFFFFFFFFFFFFFFFFFFFFFFFFFFFFFFFF MUL NOT AND SWAP1 DUP4 PUSH20 0xFFFFFFFFFFFFFFFFFFFFFFFFFFFFFFFFFFFFFFFF AND MUL OR SWAP1 SSTORE POP PUSH1 0x1 PUSH1 0xB PUSH0 DUP7 PUSH20 0xFFFFFFFFFFFFFFFFFFFFFFFFFFFFFFFFFFFFFFFF AND PUSH20 0xFFFFFFFFFFFFFFFFFFFFFFFFFFFFFFFFFFFFFFFF AND DUP2 MSTORE PUSH1 0x20 ADD SWAP1 DUP2 MSTORE PUSH1 0x20 ADD PUSH0 KECCAK256 PUSH0 PUSH2 0x100 EXP DUP2 SLOAD DUP2 PUSH1 0xFF MUL NOT AND SWAP1 DUP4 ISZERO ISZERO MUL OR SWAP1 SSTORE POP POP POP POP POP PUSH3 0x84B JUMP JUMPDEST PUSH0 DUP1 PUSH0 SWAP1 SLOAD SWAP1 PUSH2 0x100 EXP SWAP1 DIV PUSH20 0xFFFFFFFFFFFFFFFFFFFFFFFFFFFFFFFFFFFFFFFF AND SWAP1 POP DUP2 PUSH0 DUP1 PUSH2 0x100 EXP DUP2 SLOAD DUP2 PUSH20 0xFFFFFFFFFFFFFFFFFFFFFFFFFFFFFFFFFFFFFFFF MUL NOT AND SWAP1 DUP4 PUSH20 0xFFFFFFFFFFFFFFFFFFFFFFFFFFFFFFFFFFFFFFFF AND MUL OR SWAP1 SSTORE POP DUP2 PUSH20 0xFFFFFFFFFFFFFFFFFFFFFFFFFFFFFFFFFFFFFFFF AND DUP2 PUSH20 0xFFFFFFFFFFFFFFFFFFFFFFFFFFFFFFFFFFFFFFFF AND PUSH32 0x8BE0079C531659141344CD1FD0A4F28419497F9722A3DAAFE3B4186F6B6457E0 PUSH1 0x40 MLOAD PUSH1 0x40 MLOAD DUP1 SWAP2 SUB SWAP1 LOG3 POP POP JUMP JUMPDEST PUSH0 PUSH1 0x40 MLOAD SWAP1 POP SWAP1 JUMP JUMPDEST PUSH0 DUP1 REVERT JUMPDEST PUSH0 DUP1 REVERT JUMPDEST PUSH0 PUSH20 0xFFFFFFFFFFFFFFFFFFFFFFFFFFFFFFFFFFFFFFFF DUP3 AND SWAP1 POP SWAP2 SWAP1 POP JUMP JUMPDEST PUSH0 PUSH3 0x2CC DUP3 PUSH3 0x2A1 JUMP JUMPDEST SWAP1 POP SWAP2 SWAP1 POP JUMP JUMPDEST PUSH3 0x2DE DUP2 PUSH3 0x2C0 JUMP JUMPDEST DUP2 EQ PUSH3 0x2E9 JUMPI PUSH0 DUP1 REVERT JUMPDEST POP JUMP JUMPDEST PUSH0 DUP2 MLOAD SWAP1 POP PUSH3 0x2FC DUP2 PUSH3 0x2D3 JUMP JUMPDEST SWAP3 SWAP2 POP POP JUMP JUMPDEST PUSH0 DUP1 REVERT JUMPDEST PUSH0 DUP1 REVERT JUMPDEST PUSH0 PUSH1 0x1F NOT PUSH1 0x1F DUP4 ADD AND SWAP1 POP SWAP2 SWAP1 POP JUMP JUMPDEST PUSH32 0x4E487B7100000000000000000000000000000000000000000000000000000000 PUSH0 MSTORE PUSH1 0x41 PUSH1 0x4 MSTORE PUSH1 0x24 PUSH0 REVERT JUMPDEST PUSH3 0x352 DUP3 PUSH3 0x30A JUMP JUMPDEST DUP2 ADD DUP2 DUP2 LT PUSH8 0xFFFFFFFFFFFFFFFF DUP3 GT OR ISZERO PUSH3 0x374 JUMPI PUSH3 0x373 PUSH3 0x31A JUMP JUMPDEST JUMPDEST DUP1 PUSH1 0x40 MSTORE POP POP POP JUMP JUMPDEST PUSH0 PUSH3 0x388 PUSH3 0x290 JUMP JUMPDEST SWAP1 POP PUSH3 0x396 DUP3 DUP3 PUSH3 0x347 JUMP JUMPDEST SWAP2 SWAP1 POP JUMP JUMPDEST PUSH0 PUSH8 0xFFFFFFFFFFFFFFFF DUP3 GT ISZERO PUSH3 0x3B8 JUMPI PUSH3 0x3B7 PUSH3 0x31A JUMP JUMPDEST JUMPDEST PUSH3 0x3C3 DUP3 PUSH3 0x30A JUMP JUMPDEST SWAP1 POP PUSH1 0x20 DUP2 ADD SWAP1 POP SWAP2 SWAP1 POP JUMP JUMPDEST PUSH0 JUMPDEST DUP4 DUP2 LT ISZERO PUSH3 0x3EF JUMPI DUP1 DUP3 ADD MLOAD DUP2 DUP5 ADD MSTORE PUSH1 0x20 DUP2 ADD SWAP1 POP PUSH3 0x3D2 JUMP JUMPDEST PUSH0 DUP5 DUP5 ADD MSTORE POP POP POP POP JUMP JUMPDEST PUSH0 PUSH3 0x410 PUSH3 0x40A DUP5 PUSH3 0x39B JUMP JUMPDEST PUSH3 0x37D JUMP JUMPDEST SWAP1 POP DUP3 DUP2 MSTORE PUSH1 0x20 DUP2 ADD DUP5 DUP5 DUP5 ADD GT ISZERO PUSH3 0x42F JUMPI PUSH3 0x42E PUSH3 0x306 JUMP JUMPDEST JUMPDEST PUSH3 0x43C DUP5 DUP3 DUP6 PUSH3 0x3D0 JUMP JUMPDEST POP SWAP4 SWAP3 POP POP POP JUMP JUMPDEST PUSH0 DUP3 PUSH1 0x1F DUP4 ADD SLT PUSH3 0x45B JUMPI PUSH3 0x45A PUSH3 0x302 JUMP JUMPDEST JUMPDEST DUP2 MLOAD PUSH3 0x46D DUP5 DUP3 PUSH1 0x20 DUP7 ADD PUSH3 0x3FA JUMP JUMPDEST SWAP2 POP POP SWAP3 SWAP2 POP POP JUMP JUMPDEST PUSH0 DUP1 PUSH0 DUP1 PUSH1 0x80 DUP6 DUP8 SUB SLT ISZERO PUSH3 0x491 JUMPI PUSH3 0x490 PUSH3 0x299 JUMP JUMPDEST JUMPDEST PUSH0 PUSH3 0x4A0 DUP8 DUP3 DUP9 ADD PUSH3 0x2EC JUMP JUMPDEST SWAP5 POP POP PUSH1 0x20 DUP6 ADD MLOAD PUSH8 0xFFFFFFFFFFFFFFFF DUP2 GT ISZERO PUSH3 0x4C4 JUMPI PUSH3 0x4C3 PUSH3 0x29D JUMP JUMPDEST JUMPDEST PUSH3 0x4D2 DUP8 DUP3 DUP9 ADD PUSH3 0x444 JUMP JUMPDEST SWAP4 POP POP PUSH1 0x40 PUSH3 0x4E5 DUP8 DUP3 DUP9 ADD PUSH3 0x2EC JUMP JUMPDEST SWAP3 POP POP PUSH1 0x60 PUSH3 0x4F8 DUP8 DUP3 DUP9 ADD PUSH3 0x2EC JUMP JUMPDEST SWAP2 POP POP SWAP3 SWAP6 SWAP2 SWAP5 POP SWAP3 POP JUMP JUMPDEST PUSH3 0x50F DUP2 PUSH3 0x2C0 JUMP JUMPDEST DUP3 MSTORE POP POP JUMP JUMPDEST PUSH0 PUSH1 0x20 DUP3 ADD SWAP1 POP PUSH3 0x52A PUSH0 DUP4 ADD DUP5 PUSH3 0x504 JUMP JUMPDEST SWAP3 SWAP2 POP POP JUMP JUMPDEST PUSH0 DUP2 MLOAD SWAP1 POP SWAP2 SWAP1 POP JUMP JUMPDEST PUSH32 0x4E487B7100000000000000000000000000000000000000000000000000000000 PUSH0 MSTORE PUSH1 0x22 PUSH1 0x4 MSTORE PUSH1 0x24 PUSH0 REVERT JUMPDEST PUSH0 PUSH1 0x2 DUP3 DIV SWAP1 POP PUSH1 0x1 DUP3 AND DUP1 PUSH3 0x57F JUMPI PUSH1 0x7F DUP3 AND SWAP2 POP JUMPDEST PUSH1 0x20 DUP3 LT DUP2 SUB PUSH3 0x595 JUMPI PUSH3 0x594 PUSH3 0x53A JUMP JUMPDEST JUMPDEST POP SWAP2 SWAP1 POP JUMP JUMPDEST PUSH0 DUP2 SWAP1 POP DUP2 PUSH0 MSTORE PUSH1 0x20 PUSH0 KECCAK256 SWAP1 POP SWAP2 SWAP1 POP JUMP JUMPDEST PUSH0 PUSH1 0x20 PUSH1 0x1F DUP4 ADD DIV SWAP1 POP SWAP2 SWAP1 POP JUMP JUMPDEST PUSH0 DUP3 DUP3 SHL SWAP1 POP SWAP3 SWAP2 POP POP JUMP JUMPDEST PUSH0 PUSH1 0x8 DUP4 MUL PUSH3 0x5F9 PUSH32 0xFFFFFFFFFFFFFFFFFFFFFFFFFFFFFFFFFFFFFFFFFFFFFFFFFFFFFFFFFFFFFFFF DUP3 PUSH3 0x5BC JUMP JUMPDEST PUSH3 0x605 DUP7 DUP4 PUSH3 0x5BC JUMP JUMPDEST SWAP6 POP DUP1 NOT DUP5 AND SWAP4 POP DUP1 DUP7 AND DUP5 OR SWAP3 POP POP POP SWAP4 SWAP3 POP POP POP JUMP JUMPDEST PUSH0 DUP2 SWAP1 POP SWAP2 SWAP1 POP JUMP JUMPDEST PUSH0 DUP2 SWAP1 POP SWAP2 SWAP1 POP JUMP JUMPDEST PUSH0 PUSH3 0x64F PUSH3 0x649 PUSH3 0x643 DUP5 PUSH3 0x61D JUMP JUMPDEST PUSH3 0x626 JUMP JUMPDEST PUSH3 0x61D JUMP JUMPDEST SWAP1 POP SWAP2 SWAP1 POP JUMP JUMPDEST PUSH0 DUP2 SWAP1 POP SWAP2 SWAP1 POP JUMP JUMPDEST PUSH3 0x66A DUP4 PUSH3 0x62F JUMP JUMPDEST PUSH3 0x682 PUSH3 0x679 DUP3 PUSH3 0x656 JUMP JUMPDEST DUP5 DUP5 SLOAD PUSH3 0x5C8 JUMP JUMPDEST DUP3 SSTORE POP POP POP POP JUMP JUMPDEST PUSH0 SWAP1 JUMP JUMPDEST PUSH3 0x698 PUSH3 0x68A JUMP JUMPDEST PUSH3 0x6A5 DUP2 DUP5 DUP5 PUSH3 0x65F JUMP JUMPDEST POP POP POP JUMP JUMPDEST JUMPDEST DUP2 DUP2 LT ISZERO PUSH3 0x6CC JUMPI PUSH3 0x6C0 PUSH0 DUP3 PUSH3 0x68E JUMP JUMPDEST PUSH1 0x1 DUP2 ADD SWAP1 POP PUSH3 0x6AB JUMP JUMPDEST POP POP JUMP JUMPDEST PUSH1 0x1F DUP3 GT ISZERO PUSH3 0x71B JUMPI PUSH3 0x6E5 DUP2 PUSH3 0x59B JUMP JUMPDEST PUSH3 0x6F0 DUP5 PUSH3 0x5AD JUMP JUMPDEST DUP2 ADD PUSH1 0x20 DUP6 LT ISZERO PUSH3 0x700 JUMPI DUP2 SWAP1 POP JUMPDEST PUSH3 0x718 PUSH3 0x70F DUP6 PUSH3 0x5AD JUMP JUMPDEST DUP4 ADD DUP3 PUSH3 0x6AA JUMP JUMPDEST POP POP JUMPDEST POP POP POP JUMP JUMPDEST PUSH0 DUP3 DUP3 SHR SWAP1 POP SWAP3 SWAP2 POP POP JUMP JUMPDEST PUSH0 PUSH3 0x73D PUSH0 NOT DUP5 PUSH1 0x8 MUL PUSH3 0x720 JUMP JUMPDEST NOT DUP1 DUP4 AND SWAP2 POP POP SWAP3 SWAP2 POP POP JUMP JUMPDEST PUSH0 PUSH3 0x757 DUP4 DUP4 PUSH3 0x72C JUMP JUMPDEST SWAP2 POP DUP3 PUSH1 0x2 MUL DUP3 OR SWAP1 POP SWAP3 SWAP2 POP POP JUMP JUMPDEST PUSH3 0x772 DUP3 PUSH3 0x530 JUMP JUMPDEST PUSH8 0xFFFFFFFFFFFFFFFF DUP2 GT ISZERO PUSH3 0x78E JUMPI PUSH3 0x78D PUSH3 0x31A JUMP JUMPDEST JUMPDEST PUSH3 0x79A DUP3 SLOAD PUSH3 0x567 JUMP JUMPDEST PUSH3 0x7A7 DUP3 DUP3 DUP6 PUSH3 0x6D0 JUMP JUMPDEST PUSH0 PUSH1 0x20 SWAP1 POP PUSH1 0x1F DUP4 GT PUSH1 0x1 DUP2 EQ PUSH3 0x7DD JUMPI PUSH0 DUP5 ISZERO PUSH3 0x7C8 JUMPI DUP3 DUP8 ADD MLOAD SWAP1 POP JUMPDEST PUSH3 0x7D4 DUP6 DUP3 PUSH3 0x74A JUMP JUMPDEST DUP7 SSTORE POP PUSH3 0x843 JUMP JUMPDEST PUSH1 0x1F NOT DUP5 AND PUSH3 0x7ED DUP7 PUSH3 0x59B JUMP JUMPDEST PUSH0 JUMPDEST DUP3 DUP2 LT ISZERO PUSH3 0x816 JUMPI DUP5 DUP10 ADD MLOAD DUP3 SSTORE PUSH1 0x1 DUP3 ADD SWAP2 POP PUSH1 0x20 DUP6 ADD SWAP5 POP PUSH1 0x20 DUP2 ADD SWAP1 POP PUSH3 0x7EF JUMP JUMPDEST DUP7 DUP4 LT ISZERO PUSH3 0x836 JUMPI DUP5 DUP10 ADD MLOAD PUSH3 0x832 PUSH1 0x1F DUP10 AND DUP3 PUSH3 0x72C JUMP JUMPDEST DUP4 SSTORE POP JUMPDEST PUSH1 0x1 PUSH1 0x2 DUP9 MUL ADD DUP9 SSTORE POP POP POP JUMPDEST POP POP POP POP POP POP JUMP JUMPDEST PUSH2 0x1ABC DUP1 PUSH3 0x859 PUSH0 CODECOPY PUSH0 RETURN INVALID PUSH1 0x80 PUSH1 0x40 MSTORE CALLVALUE DUP1 ISZERO PUSH2 0xF JUMPI PUSH0 DUP1 REVERT JUMPDEST POP PUSH1 0x4 CALLDATASIZE LT PUSH2 0x140 JUMPI PUSH0 CALLDATALOAD PUSH1 0xE0 SHR DUP1 PUSH4 0x8BC7E8C4 GT PUSH2 0xB6 JUMPI DUP1 PUSH4 0xAC1E5025 GT PUSH2 0x7A JUMPI DUP1 PUSH4 0xAC1E5025 EQ PUSH2 0x326 JUMPI DUP1 PUSH4 0xC08E7286 EQ PUSH2 0x342 JUMPI DUP1 PUSH4 0xC4A9E858 EQ PUSH2 0x35E JUMPI DUP1 PUSH4 0xE1FEFD42 EQ PUSH2 0x37C JUMPI DUP1 PUSH4 0xF2FDE38B EQ PUSH2 0x39A JUMPI DUP1 PUSH4 0xFD918716 EQ PUSH2 0x3B6 JUMPI PUSH2 0x140 JUMP JUMPDEST DUP1 PUSH4 0x8BC7E8C4 EQ PUSH2 0x296 JUMPI DUP1 PUSH4 0x8DA5CB5B EQ PUSH2 0x2B4 JUMPI DUP1 PUSH4 0x945C147B EQ PUSH2 0x2D2 JUMPI DUP1 PUSH4 0x966ADDC0 EQ PUSH2 0x2EE JUMPI DUP1 PUSH4 0x9683CDC4 EQ PUSH2 0x30A JUMPI PUSH2 0x140 JUMP JUMPDEST DUP1 PUSH4 0x34EF077C GT PUSH2 0x108 JUMPI DUP1 PUSH4 0x34EF077C EQ PUSH2 0x1EA JUMPI DUP1 PUSH4 0x34FCF437 EQ PUSH2 0x206 JUMPI DUP1 PUSH4 0x67A52793 EQ PUSH2 0x222 JUMPI DUP1 PUSH4 0x715018A6 EQ PUSH2 0x240 JUMPI DUP1 PUSH4 0x76EE947F EQ PUSH2 0x24A JUMPI DUP1 PUSH4 0x7D91FB46 EQ PUSH2 0x266 JUMPI PUSH2 0x140 JUMP JUMPDEST DUP1 PUSH4 0x6E0E582 EQ PUSH2 0x144 JUMPI DUP1 PUSH4 0xACE9CA0 EQ PUSH2 0x162 JUMPI DUP1 PUSH4 0xD461E61 EQ PUSH2 0x180 JUMPI DUP1 PUSH4 0x258BA1EE EQ PUSH2 0x1B0 JUMPI DUP1 PUSH4 0x2C4E722E EQ PUSH2 0x1CC JUMPI JUMPDEST PUSH0 DUP1 REVERT JUMPDEST PUSH2 0x14C PUSH2 0x3D4 JUMP JUMPDEST PUSH1 0x40 MLOAD PUSH2 0x159 SWAP2 SWAP1 PUSH2 0x1062 JUMP JUMPDEST PUSH1 0x40 MLOAD DUP1 SWAP2 SUB SWAP1 RETURN JUMPDEST PUSH2 0x16A PUSH2 0x3DA JUMP JUMPDEST PUSH1 0x40 MLOAD PUSH2 0x177 SWAP2 SWAP1 PUSH2 0x1105 JUMP JUMPDEST PUSH1 0x40 MLOAD DUP1 SWAP2 SUB SWAP1 RETURN JUMPDEST PUSH2 0x19A PUSH1 0x4 DUP1 CALLDATASIZE SUB DUP2 ADD SWAP1 PUSH2 0x195 SWAP2 SWAP1 PUSH2 0x1160 JUMP JUMPDEST PUSH2 0x466 JUMP JUMPDEST PUSH1 0x40 MLOAD PUSH2 0x1A7 SWAP2 SWAP1 PUSH2 0x1062 JUMP JUMPDEST PUSH1 0x40 MLOAD DUP1 SWAP2 SUB SWAP1 RETURN JUMPDEST PUSH2 0x1CA PUSH1 0x4 DUP1 CALLDATASIZE SUB DUP2 ADD SWAP1 PUSH2 0x1C5 SWAP2 SWAP1 PUSH2 0x11E5 JUMP JUMPDEST PUSH2 0x544 JUMP JUMPDEST STOP JUMPDEST PUSH2 0x1D4 PUSH2 0x5D0 JUMP JUMPDEST PUSH1 0x40 MLOAD PUSH2 0x1E1 SWAP2 SWAP1 PUSH2 0x1062 JUMP JUMPDEST PUSH1 0x40 MLOAD DUP1 SWAP2 SUB SWAP1 RETURN JUMPDEST PUSH2 0x204 PUSH1 0x4 DUP1 CALLDATASIZE SUB DUP2 ADD SWAP1 PUSH2 0x1FF SWAP2 SWAP1 PUSH2 0x1223 JUMP JUMPDEST PUSH2 0x5D6 JUMP JUMPDEST STOP JUMPDEST PUSH2 0x220 PUSH1 0x4 DUP1 CALLDATASIZE SUB DUP2 ADD SWAP1 PUSH2 0x21B SWAP2 SWAP1 PUSH2 0x1160 JUMP JUMPDEST PUSH2 0x9DD JUMP JUMPDEST STOP JUMPDEST PUSH2 0x22A PUSH2 0x9EF JUMP JUMPDEST PUSH1 0x40 MLOAD PUSH2 0x237 SWAP2 SWAP1 PUSH2 0x1062 JUMP JUMPDEST PUSH1 0x40 MLOAD DUP1 SWAP2 SUB SWAP1 RETURN JUMPDEST PUSH2 0x248 PUSH2 0x9F5 JUMP JUMPDEST STOP JUMPDEST PUSH2 0x264 PUSH1 0x4 DUP1 CALLDATASIZE SUB DUP2 ADD SWAP1 PUSH2 0x25F SWAP2 SWAP1 PUSH2 0x1160 JUMP JUMPDEST PUSH2 0xA08 JUMP JUMPDEST STOP JUMPDEST PUSH2 0x280 PUSH1 0x4 DUP1 CALLDATASIZE SUB DUP2 ADD SWAP1 PUSH2 0x27B SWAP2 SWAP1 PUSH2 0x1261 JUMP JUMPDEST PUSH2 0xA1A JUMP JUMPDEST PUSH1 0x40 MLOAD PUSH2 0x28D SWAP2 SWAP1 PUSH2 0x12A6 JUMP JUMPDEST PUSH1 0x40 MLOAD DUP1 SWAP2 SUB SWAP1 RETURN JUMPDEST PUSH2 0x29E PUSH2 0xA37 JUMP JUMPDEST PUSH1 0x40 MLOAD PUSH2 0x2AB SWAP2 SWAP1 PUSH2 0x1062 JUMP JUMPDEST PUSH1 0x40 MLOAD DUP1 SWAP2 SUB SWAP1 RETURN JUMPDEST PUSH2 0x2BC PUSH2 0xA3D JUMP JUMPDEST PUSH1 0x40 MLOAD PUSH2 0x2C9 SWAP2 SWAP1 PUSH2 0x12CE JUMP JUMPDEST PUSH1 0x40 MLOAD DUP1 SWAP2 SUB SWAP1 RETURN JUMPDEST PUSH2 0x2EC PUSH1 0x4 DUP1 CALLDATASIZE SUB DUP2 ADD SWAP1 PUSH2 0x2E7 SWAP2 SWAP1 PUSH2 0x1451 JUMP JUMPDEST PUSH2 0xA64 JUMP JUMPDEST STOP JUMPDEST PUSH2 0x308 PUSH1 0x4 DUP1 CALLDATASIZE SUB DUP2 ADD SWAP1 PUSH2 0x303 SWAP2 SWAP1 PUSH2 0x1223 JUMP JUMPDEST PUSH2 0xAF7 JUMP JUMPDEST STOP JUMPDEST PUSH2 0x324 PUSH1 0x4 DUP1 CALLDATASIZE SUB DUP2 ADD SWAP1 PUSH2 0x31F SWAP2 SWAP1 PUSH2 0x1261 JUMP JUMPDEST PUSH2 0xC6F JUMP JUMPDEST STOP JUMPDEST PUSH2 0x340 PUSH1 0x4 DUP1 CALLDATASIZE SUB DUP2 ADD SWAP1 PUSH2 0x33B SWAP2 SWAP1 PUSH2 0x1160 JUMP JUMPDEST PUSH2 0xE2E JUMP JUMPDEST STOP JUMPDEST PUSH2 0x35C PUSH1 0x4 DUP1 CALLDATASIZE SUB DUP2 ADD SWAP1 PUSH2 0x357 SWAP2 SWAP1 PUSH2 0x1160 JUMP JUMPDEST PUSH2 0xE40 JUMP JUMPDEST STOP JUMPDEST PUSH2 0x366 PUSH2 0xE65 JUMP JUMPDEST PUSH1 0x40 MLOAD PUSH2 0x373 SWAP2 SWAP1 PUSH2 0x1062 JUMP JUMPDEST PUSH1 0x40 MLOAD DUP1 SWAP2 SUB SWAP1 RETURN JUMPDEST PUSH2 0x384 PUSH2 0xE6B JUMP JUMPDEST PUSH1 0x40 MLOAD PUSH2 0x391 SWAP2 SWAP1 PUSH2 0x1062 JUMP JUMPDEST PUSH1 0x40 MLOAD DUP1 SWAP2 SUB SWAP1 RETURN JUMPDEST PUSH2 0x3B4 PUSH1 0x4 DUP1 CALLDATASIZE SUB DUP2 ADD SWAP1 PUSH2 0x3AF SWAP2 SWAP1 PUSH2 0x1261 JUMP JUMPDEST PUSH2 0xE71 JUMP JUMPDEST STOP JUMPDEST PUSH2 0x3BE PUSH2 0xEF5 JUMP JUMPDEST PUSH1 0x40 MLOAD PUSH2 0x3CB SWAP2 SWAP1 PUSH2 0x1062 JUMP JUMPDEST PUSH1 0x40 MLOAD DUP1 SWAP2 SUB SWAP1 RETURN JUMPDEST PUSH1 0x7 SLOAD DUP2 JUMP JUMPDEST PUSH1 0xA DUP1 SLOAD PUSH2 0x3E7 SWAP1 PUSH2 0x14D8 JUMP JUMPDEST DUP1 PUSH1 0x1F ADD PUSH1 0x20 DUP1 SWAP2 DIV MUL PUSH1 0x20 ADD PUSH1 0x40 MLOAD SWAP1 DUP2 ADD PUSH1 0x40 MSTORE DUP1 SWAP3 SWAP2 SWAP1 DUP2 DUP2 MSTORE PUSH1 0x20 ADD DUP3 DUP1 SLOAD PUSH2 0x413 SWAP1 PUSH2 0x14D8 JUMP JUMPDEST DUP1 ISZERO PUSH2 0x45E JUMPI DUP1 PUSH1 0x1F LT PUSH2 0x435 JUMPI PUSH2 0x100 DUP1 DUP4 SLOAD DIV MUL DUP4 MSTORE SWAP2 PUSH1 0x20 ADD SWAP2 PUSH2 0x45E JUMP JUMPDEST DUP3 ADD SWAP2 SWAP1 PUSH0 MSTORE PUSH1 0x20 PUSH0 KECCAK256 SWAP1 JUMPDEST DUP2 SLOAD DUP2 MSTORE SWAP1 PUSH1 0x1 ADD SWAP1 PUSH1 0x20 ADD DUP1 DUP4 GT PUSH2 0x441 JUMPI DUP3 SWAP1 SUB PUSH1 0x1F AND DUP3 ADD SWAP2 JUMPDEST POP POP POP POP POP DUP2 JUMP JUMPDEST PUSH0 DUP1 PUSH8 0xDE0B6B3A7640000 PUSH1 0x4 SLOAD PUSH2 0x47E SWAP2 SWAP1 PUSH2 0x1535 JUMP JUMPDEST PUSH1 0x1 PUSH0 SWAP1 SLOAD SWAP1 PUSH2 0x100 EXP SWAP1 DIV PUSH20 0xFFFFFFFFFFFFFFFFFFFFFFFFFFFFFFFFFFFFFFFF AND PUSH20 0xFFFFFFFFFFFFFFFFFFFFFFFFFFFFFFFFFFFFFFFF AND PUSH4 0x313CE567 PUSH1 0x40 MLOAD DUP2 PUSH4 0xFFFFFFFF AND PUSH1 0xE0 SHL DUP2 MSTORE PUSH1 0x4 ADD PUSH1 0x20 PUSH1 0x40 MLOAD DUP1 DUP4 SUB DUP2 DUP7 GAS STATICCALL ISZERO DUP1 ISZERO PUSH2 0x4E8 JUMPI RETURNDATASIZE PUSH0 DUP1 RETURNDATACOPY RETURNDATASIZE PUSH0 REVERT JUMPDEST POP POP POP POP PUSH1 0x40 MLOAD RETURNDATASIZE PUSH1 0x1F NOT PUSH1 0x1F DUP3 ADD AND DUP3 ADD DUP1 PUSH1 0x40 MSTORE POP DUP2 ADD SWAP1 PUSH2 0x50C SWAP2 SWAP1 PUSH2 0x15AC JUMP JUMPDEST PUSH1 0xA PUSH2 0x518 SWAP2 SWAP1 PUSH2 0x1706 JUMP JUMPDEST PUSH1 0x1 DUP6 PUSH2 0x525 SWAP2 SWAP1 PUSH2 0x1535 JUMP JUMPDEST PUSH2 0x52F SWAP2 SWAP1 PUSH2 0x1535 JUMP JUMPDEST PUSH2 0x539 SWAP2 SWAP1 PUSH2 0x177D JUMP JUMPDEST SWAP1 POP DUP1 SWAP2 POP POP SWAP2 SWAP1 POP JUMP JUMPDEST PUSH2 0x54C PUSH2 0xEFB JUMP JUMPDEST DUP2 PUSH1 0x1 PUSH0 PUSH2 0x100 EXP DUP2 SLOAD DUP2 PUSH20 0xFFFFFFFFFFFFFFFFFFFFFFFFFFFFFFFFFFFFFFFF MUL NOT AND SWAP1 DUP4 PUSH20 0xFFFFFFFFFFFFFFFFFFFFFFFFFFFFFFFFFFFFFFFF AND MUL OR SWAP1 SSTORE POP DUP1 PUSH1 0x2 PUSH0 PUSH2 0x100 EXP DUP2 SLOAD DUP2 PUSH20 0xFFFFFFFFFFFFFFFFFFFFFFFFFFFFFFFFFFFFFFFF MUL NOT AND SWAP1 DUP4 PUSH20 0xFFFFFFFFFFFFFFFFFFFFFFFFFFFFFFFFFFFFFFFF AND MUL OR SWAP1 SSTORE POP POP POP JUMP JUMPDEST PUSH1 0x4 SLOAD DUP2 JUMP JUMPDEST PUSH1 0x1 ISZERO ISZERO PUSH1 0xB PUSH0 CALLER PUSH20 0xFFFFFFFFFFFFFFFFFFFFFFFFFFFFFFFFFFFFFFFF AND PUSH20 0xFFFFFFFFFFFFFFFFFFFFFFFFFFFFFFFFFFFFFFFF AND DUP2 MSTORE PUSH1 0x20 ADD SWAP1 DUP2 MSTORE PUSH1 0x20 ADD PUSH0 KECCAK256 PUSH0 SWAP1 SLOAD SWAP1 PUSH2 0x100 EXP SWAP1 DIV PUSH1 0xFF AND ISZERO ISZERO EQ PUSH2 0x666 JUMPI PUSH1 0x40 MLOAD PUSH32 0x8C379A000000000000000000000000000000000000000000000000000000000 DUP2 MSTORE PUSH1 0x4 ADD PUSH2 0x65D SWAP1 PUSH2 0x17F7 JUMP JUMPDEST PUSH1 0x40 MLOAD DUP1 SWAP2 SUB SWAP1 REVERT JUMPDEST DUP1 PUSH1 0x2 PUSH0 SWAP1 SLOAD SWAP1 PUSH2 0x100 EXP SWAP1 DIV PUSH20 0xFFFFFFFFFFFFFFFFFFFFFFFFFFFFFFFFFFFFFFFF AND PUSH20 0xFFFFFFFFFFFFFFFFFFFFFFFFFFFFFFFFFFFFFFFF AND PUSH4 0x70A08231 DUP5 PUSH1 0x40 MLOAD DUP3 PUSH4 0xFFFFFFFF AND PUSH1 0xE0 SHL DUP2 MSTORE PUSH1 0x4 ADD PUSH2 0x6C1 SWAP2 SWAP1 PUSH2 0x12CE JUMP JUMPDEST PUSH1 0x20 PUSH1 0x40 MLOAD DUP1 DUP4 SUB DUP2 DUP7 GAS STATICCALL ISZERO DUP1 ISZERO PUSH2 0x6DC JUMPI RETURNDATASIZE PUSH0 DUP1 RETURNDATACOPY RETURNDATASIZE PUSH0 REVERT JUMPDEST POP POP POP POP PUSH1 0x40 MLOAD RETURNDATASIZE PUSH1 0x1F NOT PUSH1 0x1F DUP3 ADD AND DUP3 ADD DUP1 PUSH1 0x40 MSTORE POP DUP2 ADD SWAP1 PUSH2 0x700 SWAP2 SWAP1 PUSH2 0x1829 JUMP JUMPDEST LT ISZERO PUSH2 0x741 JUMPI PUSH1 0x40 MLOAD PUSH32 0x8C379A000000000000000000000000000000000000000000000000000000000 DUP2 MSTORE PUSH1 0x4 ADD PUSH2 0x738 SWAP1 PUSH2 0x189E JUMP JUMPDEST PUSH1 0x40 MLOAD DUP1 SWAP2 SUB SWAP1 REVERT JUMPDEST PUSH1 0x6 SLOAD DUP2 LT ISZERO PUSH2 0x786 JUMPI PUSH1 0x40 MLOAD PUSH32 0x8C379A000000000000000000000000000000000000000000000000000000000 DUP2 MSTORE PUSH1 0x4 ADD PUSH2 0x77D SWAP1 PUSH2 0x192C JUMP JUMPDEST PUSH1 0x40 MLOAD DUP1 SWAP2 SUB SWAP1 REVERT JUMPDEST PUSH0 PUSH2 0x790 DUP3 PUSH2 0x466 JUMP JUMPDEST SWAP1 POP DUP1 PUSH1 0x8 PUSH0 DUP3 DUP3 SLOAD PUSH2 0x7A3 SWAP2 SWAP1 PUSH2 0x194A JUMP JUMPDEST SWAP3 POP POP DUP2 SWAP1 SSTORE POP PUSH0 PUSH1 0x64 PUSH1 0x5 SLOAD DUP4 PUSH2 0x7BB SWAP2 SWAP1 PUSH2 0x1535 JUMP JUMPDEST PUSH2 0x7C5 SWAP2 SWAP1 PUSH2 0x177D JUMP JUMPDEST SWAP1 POP PUSH0 DUP2 DUP4 PUSH2 0x7D4 SWAP2 SWAP1 PUSH2 0x197D JUMP JUMPDEST SWAP1 POP PUSH1 0x2 PUSH0 SWAP1 SLOAD SWAP1 PUSH2 0x100 EXP SWAP1 DIV PUSH20 0xFFFFFFFFFFFFFFFFFFFFFFFFFFFFFFFFFFFFFFFF AND PUSH20 0xFFFFFFFFFFFFFFFFFFFFFFFFFFFFFFFFFFFFFFFF AND PUSH4 0x9DC29FAC DUP7 DUP7 PUSH1 0x40 MLOAD DUP4 PUSH4 0xFFFFFFFF AND PUSH1 0xE0 SHL DUP2 MSTORE PUSH1 0x4 ADD PUSH2 0x832 SWAP3 SWAP2 SWAP1 PUSH2 0x19B0 JUMP JUMPDEST PUSH0 PUSH1 0x40 MLOAD DUP1 DUP4 SUB DUP2 PUSH0 DUP8 DUP1 EXTCODESIZE ISZERO DUP1 ISZERO PUSH2 0x849 JUMPI PUSH0 DUP1 REVERT JUMPDEST POP GAS CALL ISZERO DUP1 ISZERO PUSH2 0x85B JUMPI RETURNDATASIZE PUSH0 DUP1 RETURNDATACOPY RETURNDATASIZE PUSH0 REVERT JUMPDEST POP POP POP POP PUSH1 0x1 PUSH0 SWAP1 SLOAD SWAP1 PUSH2 0x100 EXP SWAP1 DIV PUSH20 0xFFFFFFFFFFFFFFFFFFFFFFFFFFFFFFFFFFFFFFFF AND PUSH20 0xFFFFFFFFFFFFFFFFFFFFFFFFFFFFFFFFFFFFFFFF AND PUSH4 0xA9059CBB DUP7 DUP4 PUSH1 0x40 MLOAD DUP4 PUSH4 0xFFFFFFFF AND PUSH1 0xE0 SHL DUP2 MSTORE PUSH1 0x4 ADD PUSH2 0x8BB SWAP3 SWAP2 SWAP1 PUSH2 0x19B0 JUMP JUMPDEST PUSH1 0x20 PUSH1 0x40 MLOAD DUP1 DUP4 SUB DUP2 PUSH0 DUP8 GAS CALL ISZERO DUP1 ISZERO PUSH2 0x8D7 JUMPI RETURNDATASIZE PUSH0 DUP1 RETURNDATACOPY RETURNDATASIZE PUSH0 REVERT JUMPDEST POP POP POP POP PUSH1 0x40 MLOAD RETURNDATASIZE PUSH1 0x1F NOT PUSH1 0x1F DUP3 ADD AND DUP3 ADD DUP1 PUSH1 0x40 MSTORE POP DUP2 ADD SWAP1 PUSH2 0x8FB SWAP2 SWAP1 PUSH2 0x19EB JUMP JUMPDEST POP PUSH1 0x1 PUSH0 SWAP1 SLOAD SWAP1 PUSH2 0x100 EXP SWAP1 DIV PUSH20 0xFFFFFFFFFFFFFFFFFFFFFFFFFFFFFFFFFFFFFFFF AND PUSH20 0xFFFFFFFFFFFFFFFFFFFFFFFFFFFFFFFFFFFFFFFF AND PUSH4 0xA9059CBB CALLER DUP5 PUSH1 0x40 MLOAD DUP4 PUSH4 0xFFFFFFFF AND PUSH1 0xE0 SHL DUP2 MSTORE PUSH1 0x4 ADD PUSH2 0x958 SWAP3 SWAP2 SWAP1 PUSH2 0x19B0 JUMP JUMPDEST PUSH1 0x20 PUSH1 0x40 MLOAD DUP1 DUP4 SUB DUP2 PUSH0 DUP8 GAS CALL ISZERO DUP1 ISZERO PUSH2 0x974 JUMPI RETURNDATASIZE PUSH0 DUP1 RETURNDATACOPY RETURNDATASIZE PUSH0 REVERT JUMPDEST POP POP POP POP PUSH1 0x40 MLOAD RETURNDATASIZE PUSH1 0x1F NOT PUSH1 0x1F DUP3 ADD AND DUP3 ADD DUP1 PUSH1 0x40 MSTORE POP DUP2 ADD SWAP1 PUSH2 0x998 SWAP2 SWAP1 PUSH2 0x19EB JUMP JUMPDEST POP PUSH32 0xC9EC92487A51A4894B66E92FA35D58109271421843B717E764249309F96AB9B5 DUP6 DUP6 DUP4 DUP6 PUSH1 0x40 MLOAD PUSH2 0x9CE SWAP5 SWAP4 SWAP3 SWAP2 SWAP1 PUSH2 0x1A16 JUMP JUMPDEST PUSH1 0x40 MLOAD DUP1 SWAP2 SUB SWAP1 LOG1 POP POP POP POP POP JUMP JUMPDEST PUSH2 0x9E5 PUSH2 0xEFB JUMP JUMPDEST DUP1 PUSH1 0x4 DUP2 SWAP1 SSTORE POP POP JUMP JUMPDEST PUSH1 0x3 SLOAD DUP2 JUMP JUMPDEST PUSH2 0x9FD PUSH2 0xEFB JUMP JUMPDEST PUSH2 0xA06 PUSH0 PUSH2 0xF82 JUMP JUMPDEST JUMP JUMPDEST PUSH2 0xA10 PUSH2 0xEFB JUMP JUMPDEST DUP1 PUSH1 0x3 DUP2 SWAP1 SSTORE POP POP JUMP JUMPDEST PUSH1 0xB PUSH1 0x20 MSTORE DUP1 PUSH0 MSTORE PUSH1 0x40 PUSH0 KECCAK256 PUSH0 SWAP2 POP SLOAD SWAP1 PUSH2 0x100 EXP SWAP1 DIV PUSH1 0xFF AND DUP2 JUMP JUMPDEST PUSH1 0x5 SLOAD DUP2 JUMP JUMPDEST PUSH0 DUP1 PUSH0 SWAP1 SLOAD SWAP1 PUSH2 0x100 EXP SWAP1 DIV PUSH20 0xFFFFFFFFFFFFFFFFFFFFFFFFFFFFFFFFFFFFFFFF AND SWAP1 POP SWAP1 JUMP JUMPDEST PUSH2 0xA6C PUSH2 0xEFB JUMP JUMPDEST PUSH0 JUMPDEST DUP3 MLOAD DUP2 LT ISZERO PUSH2 0xAF2 JUMPI DUP2 PUSH1 0xB PUSH0 DUP6 DUP5 DUP2 MLOAD DUP2 LT PUSH2 0xA8E JUMPI PUSH2 0xA8D PUSH2 0x1A59 JUMP JUMPDEST JUMPDEST PUSH1 0x20 MUL PUSH1 0x20 ADD ADD MLOAD PUSH20 0xFFFFFFFFFFFFFFFFFFFFFFFFFFFFFFFFFFFFFFFF AND PUSH20 0xFFFFFFFFFFFFFFFFFFFFFFFFFFFFFFFFFFFFFFFF AND DUP2 MSTORE PUSH1 0x20 ADD SWAP1 DUP2 MSTORE PUSH1 0x20 ADD PUSH0 KECCAK256 PUSH0 PUSH2 0x100 EXP DUP2 SLOAD DUP2 PUSH1 0xFF MUL NOT AND SWAP1 DUP4 ISZERO ISZERO MUL OR SWAP1 SSTORE POP DUP1 DUP1 PUSH1 0x1 ADD SWAP2 POP POP PUSH2 0xA6E JUMP JUMPDEST POP POP POP JUMP JUMPDEST PUSH1 0x1 ISZERO ISZERO PUSH1 0xB PUSH0 CALLER PUSH20 0xFFFFFFFFFFFFFFFFFFFFFFFFFFFFFFFFFFFFFFFF AND PUSH20 0xFFFFFFFFFFFFFFFFFFFFFFFFFFFFFFFFFFFFFFFF AND DUP2 MSTORE PUSH1 0x20 ADD SWAP1 DUP2 MSTORE PUSH1 0x20 ADD PUSH0 KECCAK256 PUSH0 SWAP1 SLOAD SWAP1 PUSH2 0x100 EXP SWAP1 DIV PUSH1 0xFF AND ISZERO ISZERO EQ PUSH2 0xB87 JUMPI PUSH1 0x40 MLOAD PUSH32 0x8C379A000000000000000000000000000000000000000000000000000000000 DUP2 MSTORE PUSH1 0x4 ADD PUSH2 0xB7E SWAP1 PUSH2 0x17F7 JUMP JUMPDEST PUSH1 0x40 MLOAD DUP1 SWAP2 SUB SWAP1 REVERT JUMPDEST PUSH1 0x6 SLOAD DUP2 LT ISZERO PUSH2 0xB95 JUMPI PUSH0 DUP1 REVERT JUMPDEST PUSH1 0x2 PUSH0 SWAP1 SLOAD SWAP1 PUSH2 0x100 EXP SWAP1 DIV PUSH20 0xFFFFFFFFFFFFFFFFFFFFFFFFFFFFFFFFFFFFFFFF AND PUSH20 0xFFFFFFFFFFFFFFFFFFFFFFFFFFFFFFFFFFFFFFFF AND PUSH4 0xA9059CBB DUP4 DUP4 PUSH1 0x40 MLOAD DUP4 PUSH4 0xFFFFFFFF AND PUSH1 0xE0 SHL DUP2 MSTORE PUSH1 0x4 ADD PUSH2 0xBF1 SWAP3 SWAP2 SWAP1 PUSH2 0x19B0 JUMP JUMPDEST PUSH1 0x20 PUSH1 0x40 MLOAD DUP1 DUP4 SUB DUP2 PUSH0 DUP8 GAS CALL ISZERO DUP1 ISZERO PUSH2 0xC0D JUMPI RETURNDATASIZE PUSH0 DUP1 RETURNDATACOPY RETURNDATASIZE PUSH0 REVERT JUMPDEST POP POP POP POP PUSH1 0x40 MLOAD RETURNDATASIZE PUSH1 0x1F NOT PUSH1 0x1F DUP3 ADD AND DUP3 ADD DUP1 PUSH1 0x40 MSTORE POP DUP2 ADD SWAP1 PUSH2 0xC31 SWAP2 SWAP1 PUSH2 0x19EB JUMP JUMPDEST POP PUSH32 0xBA953728785DE35BE3827EE7A7A7867A8472947562602939440E6C0BDBF4725E DUP3 DUP3 PUSH1 0x40 MLOAD PUSH2 0xC63 SWAP3 SWAP2 SWAP1 PUSH2 0x19B0 JUMP JUMPDEST PUSH1 0x40 MLOAD DUP1 SWAP2 SUB SWAP1 LOG1 POP POP JUMP JUMPDEST PUSH2 0xC77 PUSH2 0xEFB JUMP JUMPDEST PUSH0 PUSH1 0x1 PUSH0 SWAP1 SLOAD SWAP1 PUSH2 0x100 EXP SWAP1 DIV PUSH20 0xFFFFFFFFFFFFFFFFFFFFFFFFFFFFFFFFFFFFFFFF AND PUSH20 0xFFFFFFFFFFFFFFFFFFFFFFFFFFFFFFFFFFFFFFFF AND PUSH4 0x70A08231 ADDRESS PUSH1 0x40 MLOAD DUP3 PUSH4 0xFFFFFFFF AND PUSH1 0xE0 SHL DUP2 MSTORE PUSH1 0x4 ADD PUSH2 0xCD2 SWAP2 SWAP1 PUSH2 0x12CE JUMP JUMPDEST PUSH1 0x20 PUSH1 0x40 MLOAD DUP1 DUP4 SUB DUP2 DUP7 GAS STATICCALL ISZERO DUP1 ISZERO PUSH2 0xCED JUMPI RETURNDATASIZE PUSH0 DUP1 RETURNDATACOPY RETURNDATASIZE PUSH0 REVERT JUMPDEST POP POP POP POP PUSH1 0x40 MLOAD RETURNDATASIZE PUSH1 0x1F NOT PUSH1 0x1F DUP3 ADD AND DUP3 ADD DUP1 PUSH1 0x40 MSTORE POP DUP2 ADD SWAP1 PUSH2 0xD11 SWAP2 SWAP1 PUSH2 0x1829 JUMP JUMPDEST SWAP1 POP PUSH0 PUSH1 0x7 SLOAD PUSH1 0x9 SLOAD PUSH1 0x8 SLOAD DUP5 PUSH2 0xD28 SWAP2 SWAP1 PUSH2 0x194A JUMP JUMPDEST PUSH2 0xD32 SWAP2 SWAP1 PUSH2 0x194A JUMP JUMPDEST PUSH2 0xD3C SWAP2 SWAP1 PUSH2 0x197D JUMP JUMPDEST SWAP1 POP DUP1 PUSH1 0x7 PUSH0 DUP3 DUP3 SLOAD PUSH2 0xD4F SWAP2 SWAP1 PUSH2 0x194A JUMP JUMPDEST SWAP3 POP POP DUP2 SWAP1 SSTORE POP PUSH0 PUSH1 0x64 PUSH1 0x3 SLOAD DUP4 PUSH2 0xD67 SWAP2 SWAP1 PUSH2 0x1535 JUMP JUMPDEST PUSH2 0xD71 SWAP2 SWAP1 PUSH2 0x177D JUMP JUMPDEST SWAP1 POP DUP1 PUSH1 0x9 PUSH0 DUP3 DUP3 SLOAD PUSH2 0xD84 SWAP2 SWAP1 PUSH2 0x194A JUMP JUMPDEST SWAP3 POP POP DUP2 SWAP1 SSTORE POP PUSH1 0x1 PUSH0 SWAP1 SLOAD SWAP1 PUSH2 0x100 EXP SWAP1 DIV PUSH20 0xFFFFFFFFFFFFFFFFFFFFFFFFFFFFFFFFFFFFFFFF AND PUSH20 0xFFFFFFFFFFFFFFFFFFFFFFFFFFFFFFFFFFFFFFFF AND PUSH4 0xA9059CBB DUP6 DUP4 PUSH1 0x40 MLOAD DUP4 PUSH4 0xFFFFFFFF AND PUSH1 0xE0 SHL DUP2 MSTORE PUSH1 0x4 ADD PUSH2 0xDE7 SWAP3 SWAP2 SWAP1 PUSH2 0x19B0 JUMP JUMPDEST PUSH1 0x20 PUSH1 0x40 MLOAD DUP1 DUP4 SUB DUP2 PUSH0 DUP8 GAS CALL ISZERO DUP1 ISZERO PUSH2 0xE03 JUMPI RETURNDATASIZE PUSH0 DUP1 RETURNDATACOPY RETURNDATASIZE PUSH0 REVERT JUMPDEST POP POP POP POP PUSH1 0x40 MLOAD RETURNDATASIZE PUSH1 0x1F NOT PUSH1 0x1F DUP3 ADD AND DUP3 ADD DUP1 PUSH1 0x40 MSTORE POP DUP2 ADD SWAP1 PUSH2 0xE27 SWAP2 SWAP1 PUSH2 0x19EB JUMP JUMPDEST POP POP POP POP POP JUMP JUMPDEST PUSH2 0xE36 PUSH2 0xEFB JUMP JUMPDEST DUP1 PUSH1 0x5 DUP2 SWAP1 SSTORE POP POP JUMP JUMPDEST PUSH2 0xE48 PUSH2 0xEFB JUMP JUMPDEST PUSH8 0xDE0B6B3A7640000 DUP2 PUSH2 0xE5C SWAP2 SWAP1 PUSH2 0x1535 JUMP JUMPDEST PUSH1 0x6 DUP2 SWAP1 SSTORE POP POP JUMP JUMPDEST PUSH1 0x9 SLOAD DUP2 JUMP JUMPDEST PUSH1 0x6 SLOAD DUP2 JUMP JUMPDEST PUSH2 0xE79 PUSH2 0xEFB JUMP JUMPDEST PUSH0 PUSH20 0xFFFFFFFFFFFFFFFFFFFFFFFFFFFFFFFFFFFFFFFF AND DUP2 PUSH20 0xFFFFFFFFFFFFFFFFFFFFFFFFFFFFFFFFFFFFFFFF AND SUB PUSH2 0xEE9 JUMPI PUSH0 PUSH1 0x40 MLOAD PUSH32 0x1E4FBDF700000000000000000000000000000000000000000000000000000000 DUP2 MSTORE PUSH1 0x4 ADD PUSH2 0xEE0 SWAP2 SWAP1 PUSH2 0x12CE JUMP JUMPDEST PUSH1 0x40 MLOAD DUP1 SWAP2 SUB SWAP1 REVERT JUMPDEST PUSH2 0xEF2 DUP2 PUSH2 0xF82 JUMP JUMPDEST POP JUMP JUMPDEST PUSH1 0x8 SLOAD DUP2 JUMP JUMPDEST PUSH2 0xF03 PUSH2 0x1043 JUMP JUMPDEST PUSH20 0xFFFFFFFFFFFFFFFFFFFFFFFFFFFFFFFFFFFFFFFF AND PUSH2 0xF21 PUSH2 0xA3D JUMP JUMPDEST PUSH20 0xFFFFFFFFFFFFFFFFFFFFFFFFFFFFFFFFFFFFFFFF AND EQ PUSH2 0xF80 JUMPI PUSH2 0xF44 PUSH2 0x1043 JUMP JUMPDEST PUSH1 0x40 MLOAD PUSH32 0x118CDAA700000000000000000000000000000000000000000000000000000000 DUP2 MSTORE PUSH1 0x4 ADD PUSH2 0xF77 SWAP2 SWAP1 PUSH2 0x12CE JUMP JUMPDEST PUSH1 0x40 MLOAD DUP1 SWAP2 SUB SWAP1 REVERT JUMPDEST JUMP JUMPDEST PUSH0 DUP1 PUSH0 SWAP1 SLOAD SWAP1 PUSH2 0x100 EXP SWAP1 DIV PUSH20 0xFFFFFFFFFFFFFFFFFFFFFFFFFFFFFFFFFFFFFFFF AND SWAP1 POP DUP2 PUSH0 DUP1 PUSH2 0x100 EXP DUP2 SLOAD DUP2 PUSH20 0xFFFFFFFFFFFFFFFFFFFFFFFFFFFFFFFFFFFFFFFF MUL NOT AND SWAP1 DUP4 PUSH20 0xFFFFFFFFFFFFFFFFFFFFFFFFFFFFFFFFFFFFFFFF AND MUL OR SWAP1 SSTORE POP DUP2 PUSH20 0xFFFFFFFFFFFFFFFFFFFFFFFFFFFFFFFFFFFFFFFF AND DUP2 PUSH20 0xFFFFFFFFFFFFFFFFFFFFFFFFFFFFFFFFFFFFFFFF AND PUSH32 0x8BE0079C531659141344CD1FD0A4F28419497F9722A3DAAFE3B4186F6B6457E0 PUSH1 0x40 MLOAD PUSH1 0x40 MLOAD DUP1 SWAP2 SUB SWAP1 LOG3 POP POP JUMP JUMPDEST PUSH0 CALLER SWAP1 POP SWAP1 JUMP JUMPDEST PUSH0 DUP2 SWAP1 POP SWAP2 SWAP1 POP JUMP JUMPDEST PUSH2 0x105C DUP2 PUSH2 0x104A JUMP JUMPDEST DUP3 MSTORE POP POP JUMP JUMPDEST PUSH0 PUSH1 0x20 DUP3 ADD SWAP1 POP PUSH2 0x1075 PUSH0 DUP4 ADD DUP5 PUSH2 0x1053 JUMP JUMPDEST SWAP3 SWAP2 POP POP JUMP JUMPDEST PUSH0 DUP2 MLOAD SWAP1 POP SWAP2 SWAP1 POP JUMP JUMPDEST PUSH0 DUP3 DUP3 MSTORE PUSH1 0x20 DUP3 ADD SWAP1 POP SWAP3 SWAP2 POP POP JUMP JUMPDEST PUSH0 JUMPDEST DUP4 DUP2 LT ISZERO PUSH2 0x10B2 JUMPI DUP1 DUP3 ADD MLOAD DUP2 DUP5 ADD MSTORE PUSH1 0x20 DUP2 ADD SWAP1 POP PUSH2 0x1097 JUMP JUMPDEST PUSH0 DUP5 DUP5 ADD MSTORE POP POP POP POP JUMP JUMPDEST PUSH0 PUSH1 0x1F NOT PUSH1 0x1F DUP4 ADD AND SWAP1 POP SWAP2 SWAP1 POP JUMP JUMPDEST PUSH0 PUSH2 0x10D7 DUP3 PUSH2 0x107B JUMP JUMPDEST PUSH2 0x10E1 DUP2 DUP6 PUSH2 0x1085 JUMP JUMPDEST SWAP4 POP PUSH2 0x10F1 DUP2 DUP6 PUSH1 0x20 DUP7 ADD PUSH2 0x1095 JUMP JUMPDEST PUSH2 0x10FA DUP2 PUSH2 0x10BD JUMP JUMPDEST DUP5 ADD SWAP2 POP POP SWAP3 SWAP2 POP POP JUMP JUMPDEST PUSH0 PUSH1 0x20 DUP3 ADD SWAP1 POP DUP2 DUP2 SUB PUSH0 DUP4 ADD MSTORE PUSH2 0x111D DUP2 DUP5 PUSH2 0x10CD JUMP JUMPDEST SWAP1 POP SWAP3 SWAP2 POP POP JUMP JUMPDEST PUSH0 PUSH1 0x40 MLOAD SWAP1 POP SWAP1 JUMP JUMPDEST PUSH0 DUP1 REVERT JUMPDEST PUSH0 DUP1 REVERT JUMPDEST PUSH2 0x113F DUP2 PUSH2 0x104A JUMP JUMPDEST DUP2 EQ PUSH2 0x1149 JUMPI PUSH0 DUP1 REVERT JUMPDEST POP JUMP JUMPDEST PUSH0 DUP2 CALLDATALOAD SWAP1 POP PUSH2 0x115A DUP2 PUSH2 0x1136 JUMP JUMPDEST SWAP3 SWAP2 POP POP JUMP JUMPDEST PUSH0 PUSH1 0x20 DUP3 DUP5 SUB SLT ISZERO PUSH2 0x1175 JUMPI PUSH2 0x1174 PUSH2 0x112E JUMP JUMPDEST JUMPDEST PUSH0 PUSH2 0x1182 DUP5 DUP3 DUP6 ADD PUSH2 0x114C JUMP JUMPDEST SWAP2 POP POP SWAP3 SWAP2 POP POP JUMP JUMPDEST PUSH0 PUSH20 0xFFFFFFFFFFFFFFFFFFFFFFFFFFFFFFFFFFFFFFFF DUP3 AND SWAP1 POP SWAP2 SWAP1 POP JUMP JUMPDEST PUSH0 PUSH2 0x11B4 DUP3 PUSH2 0x118B JUMP JUMPDEST SWAP1 POP SWAP2 SWAP1 POP JUMP JUMPDEST PUSH2 0x11C4 DUP2 PUSH2 0x11AA JUMP JUMPDEST DUP2 EQ PUSH2 0x11CE JUMPI PUSH0 DUP1 REVERT JUMPDEST POP JUMP JUMPDEST PUSH0 DUP2 CALLDATALOAD SWAP1 POP PUSH2 0x11DF DUP2 PUSH2 0x11BB JUMP JUMPDEST SWAP3 SWAP2 POP POP JUMP JUMPDEST PUSH0 DUP1 PUSH1 0x40 DUP4 DUP6 SUB SLT ISZERO PUSH2 0x11FB JUMPI PUSH2 0x11FA PUSH2 0x112E JUMP JUMPDEST JUMPDEST PUSH0 PUSH2 0x1208 DUP6 DUP3 DUP7 ADD PUSH2 0x11D1 JUMP JUMPDEST SWAP3 POP POP PUSH1 0x20 PUSH2 0x1219 DUP6 DUP3 DUP7 ADD PUSH2 0x11D1 JUMP JUMPDEST SWAP2 POP POP SWAP3 POP SWAP3 SWAP1 POP JUMP JUMPDEST PUSH0 DUP1 PUSH1 0x40 DUP4 DUP6 SUB SLT ISZERO PUSH2 0x1239 JUMPI PUSH2 0x1238 PUSH2 0x112E JUMP JUMPDEST JUMPDEST PUSH0 PUSH2 0x1246 DUP6 DUP3 DUP7 ADD PUSH2 0x11D1 JUMP JUMPDEST SWAP3 POP POP PUSH1 0x20 PUSH2 0x1257 DUP6 DUP3 DUP7 ADD PUSH2 0x114C JUMP JUMPDEST SWAP2 POP POP SWAP3 POP SWAP3 SWAP1 POP JUMP JUMPDEST PUSH0 PUSH1 0x20 DUP3 DUP5 SUB SLT ISZERO PUSH2 0x1276 JUMPI PUSH2 0x1275 PUSH2 0x112E JUMP JUMPDEST JUMPDEST PUSH0 PUSH2 0x1283 DUP5 DUP3 DUP6 ADD PUSH2 0x11D1 JUMP JUMPDEST SWAP2 POP POP SWAP3 SWAP2 POP POP JUMP JUMPDEST PUSH0 DUP2 ISZERO ISZERO SWAP1 POP SWAP2 SWAP1 POP JUMP JUMPDEST PUSH2 0x12A0 DUP2 PUSH2 0x128C JUMP JUMPDEST DUP3 MSTORE POP POP JUMP JUMPDEST PUSH0 PUSH1 0x20 DUP3 ADD SWAP1 POP PUSH2 0x12B9 PUSH0 DUP4 ADD DUP5 PUSH2 0x1297 JUMP JUMPDEST SWAP3 SWAP2 POP POP JUMP JUMPDEST PUSH2 0x12C8 DUP2 PUSH2 0x11AA JUMP JUMPDEST DUP3 MSTORE POP POP JUMP JUMPDEST PUSH0 PUSH1 0x20 DUP3 ADD SWAP1 POP PUSH2 0x12E1 PUSH0 DUP4 ADD DUP5 PUSH2 0x12BF JUMP JUMPDEST SWAP3 SWAP2 POP POP JUMP JUMPDEST PUSH0 DUP1 REVERT JUMPDEST PUSH32 0x4E487B7100000000000000000000000000000000000000000000000000000000 PUSH0 MSTORE PUSH1 0x41 PUSH1 0x4 MSTORE PUSH1 0x24 PUSH0 REVERT JUMPDEST PUSH2 0x1321 DUP3 PUSH2 0x10BD JUMP JUMPDEST DUP2 ADD DUP2 DUP2 LT PUSH8 0xFFFFFFFFFFFFFFFF DUP3 GT OR ISZERO PUSH2 0x1340 JUMPI PUSH2 0x133F PUSH2 0x12EB JUMP JUMPDEST JUMPDEST DUP1 PUSH1 0x40 MSTORE POP POP POP JUMP JUMPDEST PUSH0 PUSH2 0x1352 PUSH2 0x1125 JUMP JUMPDEST SWAP1 POP PUSH2 0x135E DUP3 DUP3 PUSH2 0x1318 JUMP JUMPDEST SWAP2 SWAP1 POP JUMP JUMPDEST PUSH0 PUSH8 0xFFFFFFFFFFFFFFFF DUP3 GT ISZERO PUSH2 0x137D JUMPI PUSH2 0x137C PUSH2 0x12EB JUMP JUMPDEST JUMPDEST PUSH1 0x20 DUP3 MUL SWAP1 POP PUSH1 0x20 DUP2 ADD SWAP1 POP SWAP2 SWAP1 POP JUMP JUMPDEST PUSH0 DUP1 REVERT JUMPDEST PUSH0 PUSH2 0x13A4 PUSH2 0x139F DUP5 PUSH2 0x1363 JUMP JUMPDEST PUSH2 0x1349 JUMP JUMPDEST SWAP1 POP DUP1 DUP4 DUP3 MSTORE PUSH1 0x20 DUP3 ADD SWAP1 POP PUSH1 0x20 DUP5 MUL DUP4 ADD DUP6 DUP2 GT ISZERO PUSH2 0x13C7 JUMPI PUSH2 0x13C6 PUSH2 0x138E JUMP JUMPDEST JUMPDEST DUP4 JUMPDEST DUP2 DUP2 LT ISZERO PUSH2 0x13F0 JUMPI DUP1 PUSH2 0x13DC DUP9 DUP3 PUSH2 0x11D1 JUMP JUMPDEST DUP5 MSTORE PUSH1 0x20 DUP5 ADD SWAP4 POP POP PUSH1 0x20 DUP2 ADD SWAP1 POP PUSH2 0x13C9 JUMP JUMPDEST POP POP POP SWAP4 SWAP3 POP POP POP JUMP JUMPDEST PUSH0 DUP3 PUSH1 0x1F DUP4 ADD SLT PUSH2 0x140E JUMPI PUSH2 0x140D PUSH2 0x12E7 JUMP JUMPDEST JUMPDEST DUP2 CALLDATALOAD PUSH2 0x141E DUP5 DUP3 PUSH1 0x20 DUP7 ADD PUSH2 0x1392 JUMP JUMPDEST SWAP2 POP POP SWAP3 SWAP2 POP POP JUMP JUMPDEST PUSH2 0x1430 DUP2 PUSH2 0x128C JUMP JUMPDEST DUP2 EQ PUSH2 0x143A JUMPI PUSH0 DUP1 REVERT JUMPDEST POP JUMP JUMPDEST PUSH0 DUP2 CALLDATALOAD SWAP1 POP PUSH2 0x144B DUP2 PUSH2 0x1427 JUMP JUMPDEST SWAP3 SWAP2 POP POP JUMP JUMPDEST PUSH0 DUP1 PUSH1 0x40 DUP4 DUP6 SUB SLT ISZERO PUSH2 0x1467 JUMPI PUSH2 0x1466 PUSH2 0x112E JUMP JUMPDEST JUMPDEST PUSH0 DUP4 ADD CALLDATALOAD PUSH8 0xFFFFFFFFFFFFFFFF DUP2 GT ISZERO PUSH2 0x1484 JUMPI PUSH2 0x1483 PUSH2 0x1132 JUMP JUMPDEST JUMPDEST PUSH2 0x1490 DUP6 DUP3 DUP7 ADD PUSH2 0x13FA JUMP JUMPDEST SWAP3 POP POP PUSH1 0x20 PUSH2 0x14A1 DUP6 DUP3 DUP7 ADD PUSH2 0x143D JUMP JUMPDEST SWAP2 POP POP SWAP3 POP SWAP3 SWAP1 POP JUMP JUMPDEST PUSH32 0x4E487B7100000000000000000000000000000000000000000000000000000000 PUSH0 MSTORE PUSH1 0x22 PUSH1 0x4 MSTORE PUSH1 0x24 PUSH0 REVERT JUMPDEST PUSH0 PUSH1 0x2 DUP3 DIV SWAP1 POP PUSH1 0x1 DUP3 AND DUP1 PUSH2 0x14EF JUMPI PUSH1 0x7F DUP3 AND SWAP2 POP JUMPDEST PUSH1 0x20 DUP3 LT DUP2 SUB PUSH2 0x1502 JUMPI PUSH2 0x1501 PUSH2 0x14AB JUMP JUMPDEST JUMPDEST POP SWAP2 SWAP1 POP JUMP JUMPDEST PUSH32 0x4E487B7100000000000000000000000000000000000000000000000000000000 PUSH0 MSTORE PUSH1 0x11 PUSH1 0x4 MSTORE PUSH1 0x24 PUSH0 REVERT JUMPDEST PUSH0 PUSH2 0x153F DUP3 PUSH2 0x104A JUMP JUMPDEST SWAP2 POP PUSH2 0x154A DUP4 PUSH2 0x104A JUMP JUMPDEST SWAP3 POP DUP3 DUP3 MUL PUSH2 0x1558 DUP2 PUSH2 0x104A JUMP JUMPDEST SWAP2 POP DUP3 DUP3 DIV DUP5 EQ DUP4 ISZERO OR PUSH2 0x156F JUMPI PUSH2 0x156E PUSH2 0x1508 JUMP JUMPDEST JUMPDEST POP SWAP3 SWAP2 POP POP JUMP JUMPDEST PUSH0 PUSH1 0xFF DUP3 AND SWAP1 POP SWAP2 SWAP1 POP JUMP JUMPDEST PUSH2 0x158B DUP2 PUSH2 0x1576 JUMP JUMPDEST DUP2 EQ PUSH2 0x1595 JUMPI PUSH0 DUP1 REVERT JUMPDEST POP JUMP JUMPDEST PUSH0 DUP2 MLOAD SWAP1 POP PUSH2 0x15A6 DUP2 PUSH2 0x1582 JUMP JUMPDEST SWAP3 SWAP2 POP POP JUMP JUMPDEST PUSH0 PUSH1 0x20 DUP3 DUP5 SUB SLT ISZERO PUSH2 0x15C1 JUMPI PUSH2 0x15C0 PUSH2 0x112E JUMP JUMPDEST JUMPDEST PUSH0 PUSH2 0x15CE DUP5 DUP3 DUP6 ADD PUSH2 0x1598 JUMP JUMPDEST SWAP2 POP POP SWAP3 SWAP2 POP POP JUMP JUMPDEST PUSH0 DUP2 PUSH1 0x1 SHR SWAP1 POP SWAP2 SWAP1 POP JUMP JUMPDEST PUSH0 DUP1 DUP3 SWAP2 POP DUP4 SWAP1 POP JUMPDEST PUSH1 0x1 DUP6 GT ISZERO PUSH2 0x162C JUMPI DUP1 DUP7 DIV DUP2 GT ISZERO PUSH2 0x1608 JUMPI PUSH2 0x1607 PUSH2 0x1508 JUMP JUMPDEST JUMPDEST PUSH1 0x1 DUP6 AND ISZERO PUSH2 0x1617 JUMPI DUP1 DUP3 MUL SWAP2 POP JUMPDEST DUP1 DUP2 MUL SWAP1 POP PUSH2 0x1625 DUP6 PUSH2 0x15D7 JUMP JUMPDEST SWAP5 POP PUSH2 0x15EC JUMP JUMPDEST SWAP5 POP SWAP5 SWAP3 POP POP POP JUMP JUMPDEST PUSH0 DUP3 PUSH2 0x1644 JUMPI PUSH1 0x1 SWAP1 POP PUSH2 0x16FF JUMP JUMPDEST DUP2 PUSH2 0x1651 JUMPI PUSH0 SWAP1 POP PUSH2 0x16FF JUMP JUMPDEST DUP2 PUSH1 0x1 DUP2 EQ PUSH2 0x1667 JUMPI PUSH1 0x2 DUP2 EQ PUSH2 0x1671 JUMPI PUSH2 0x16A0 JUMP JUMPDEST PUSH1 0x1 SWAP2 POP POP PUSH2 0x16FF JUMP JUMPDEST PUSH1 0xFF DUP5 GT ISZERO PUSH2 0x1683 JUMPI PUSH2 0x1682 PUSH2 0x1508 JUMP JUMPDEST JUMPDEST DUP4 PUSH1 0x2 EXP SWAP2 POP DUP5 DUP3 GT ISZERO PUSH2 0x169A JUMPI PUSH2 0x1699 PUSH2 0x1508 JUMP JUMPDEST JUMPDEST POP PUSH2 0x16FF JUMP JUMPDEST POP PUSH1 0x20 DUP4 LT PUSH2 0x133 DUP4 LT AND PUSH1 0x4E DUP5 LT PUSH1 0xB DUP5 LT AND OR ISZERO PUSH2 0x16D5 JUMPI DUP3 DUP3 EXP SWAP1 POP DUP4 DUP2 GT ISZERO PUSH2 0x16D0 JUMPI PUSH2 0x16CF PUSH2 0x1508 JUMP JUMPDEST JUMPDEST PUSH2 0x16FF JUMP JUMPDEST PUSH2 0x16E2 DUP5 DUP5 DUP5 PUSH1 0x1 PUSH2 0x15E3 JUMP JUMPDEST SWAP3 POP SWAP1 POP DUP2 DUP5 DIV DUP2 GT ISZERO PUSH2 0x16F9 JUMPI PUSH2 0x16F8 PUSH2 0x1508 JUMP JUMPDEST JUMPDEST DUP2 DUP2 MUL SWAP1 POP JUMPDEST SWAP4 SWAP3 POP POP POP JUMP JUMPDEST PUSH0 PUSH2 0x1710 DUP3 PUSH2 0x104A JUMP JUMPDEST SWAP2 POP PUSH2 0x171B DUP4 PUSH2 0x1576 JUMP JUMPDEST SWAP3 POP PUSH2 0x1748 PUSH32 0xFFFFFFFFFFFFFFFFFFFFFFFFFFFFFFFFFFFFFFFFFFFFFFFFFFFFFFFFFFFFFFFF DUP5 DUP5 PUSH2 0x1635 JUMP JUMPDEST SWAP1 POP SWAP3 SWAP2 POP POP JUMP JUMPDEST PUSH32 0x4E487B7100000000000000000000000000000000000000000000000000000000 PUSH0 MSTORE PUSH1 0x12 PUSH1 0x4 MSTORE PUSH1 0x24 PUSH0 REVERT JUMPDEST PUSH0 PUSH2 0x1787 DUP3 PUSH2 0x104A JUMP JUMPDEST SWAP2 POP PUSH2 0x1792 DUP4 PUSH2 0x104A JUMP JUMPDEST SWAP3 POP DUP3 PUSH2 0x17A2 JUMPI PUSH2 0x17A1 PUSH2 0x1750 JUMP JUMPDEST JUMPDEST DUP3 DUP3 DIV SWAP1 POP SWAP3 SWAP2 POP POP JUMP JUMPDEST PUSH32 0x796F7520617265206E6F74207065726D69747465640000000000000000000000 PUSH0 DUP3 ADD MSTORE POP JUMP JUMPDEST PUSH0 PUSH2 0x17E1 PUSH1 0x15 DUP4 PUSH2 0x1085 JUMP JUMPDEST SWAP2 POP PUSH2 0x17EC DUP3 PUSH2 0x17AD JUMP JUMPDEST PUSH1 0x20 DUP3 ADD SWAP1 POP SWAP2 SWAP1 POP JUMP JUMPDEST PUSH0 PUSH1 0x20 DUP3 ADD SWAP1 POP DUP2 DUP2 SUB PUSH0 DUP4 ADD MSTORE PUSH2 0x180E DUP2 PUSH2 0x17D5 JUMP JUMPDEST SWAP1 POP SWAP2 SWAP1 POP JUMP JUMPDEST PUSH0 DUP2 MLOAD SWAP1 POP PUSH2 0x1823 DUP2 PUSH2 0x1136 JUMP JUMPDEST SWAP3 SWAP2 POP POP JUMP JUMPDEST PUSH0 PUSH1 0x20 DUP3 DUP5 SUB SLT ISZERO PUSH2 0x183E JUMPI PUSH2 0x183D PUSH2 0x112E JUMP JUMPDEST JUMPDEST PUSH0 PUSH2 0x184B DUP5 DUP3 DUP6 ADD PUSH2 0x1815 JUMP JUMPDEST SWAP2 POP POP SWAP3 SWAP2 POP POP JUMP JUMPDEST PUSH32 0x6E6F7420656E6F75676820706F696E7473000000000000000000000000000000 PUSH0 DUP3 ADD MSTORE POP JUMP JUMPDEST PUSH0 PUSH2 0x1888 PUSH1 0x11 DUP4 PUSH2 0x1085 JUMP JUMPDEST SWAP2 POP PUSH2 0x1893 DUP3 PUSH2 0x1854 JUMP JUMPDEST PUSH1 0x20 DUP3 ADD SWAP1 POP SWAP2 SWAP1 POP JUMP JUMPDEST PUSH0 PUSH1 0x20 DUP3 ADD SWAP1 POP DUP2 DUP2 SUB PUSH0 DUP4 ADD MSTORE PUSH2 0x18B5 DUP2 PUSH2 0x187C JUMP JUMPDEST SWAP1 POP SWAP2 SWAP1 POP JUMP JUMPDEST PUSH32 0x706F696E747320746F2073776170206C657373207468616E206D696E706F696E PUSH0 DUP3 ADD MSTORE PUSH32 0x7473000000000000000000000000000000000000000000000000000000000000 PUSH1 0x20 DUP3 ADD MSTORE POP JUMP JUMPDEST PUSH0 PUSH2 0x1916 PUSH1 0x22 DUP4 PUSH2 0x1085 JUMP JUMPDEST SWAP2 POP PUSH2 0x1921 DUP3 PUSH2 0x18BC JUMP JUMPDEST PUSH1 0x40 DUP3 ADD SWAP1 POP SWAP2 SWAP1 POP JUMP JUMPDEST PUSH0 PUSH1 0x20 DUP3 ADD SWAP1 POP DUP2 DUP2 SUB PUSH0 DUP4 ADD MSTORE PUSH2 0x1943 DUP2 PUSH2 0x190A JUMP JUMPDEST SWAP1 POP SWAP2 SWAP1 POP JUMP JUMPDEST PUSH0 PUSH2 0x1954 DUP3 PUSH2 0x104A JUMP JUMPDEST SWAP2 POP PUSH2 0x195F DUP4 PUSH2 0x104A JUMP JUMPDEST SWAP3 POP DUP3 DUP3 ADD SWAP1 POP DUP1 DUP3 GT ISZERO PUSH2 0x1977 JUMPI PUSH2 0x1976 PUSH2 0x1508 JUMP JUMPDEST JUMPDEST SWAP3 SWAP2 POP POP JUMP JUMPDEST PUSH0 PUSH2 0x1987 DUP3 PUSH2 0x104A JUMP JUMPDEST SWAP2 POP PUSH2 0x1992 DUP4 PUSH2 0x104A JUMP JUMPDEST SWAP3 POP DUP3 DUP3 SUB SWAP1 POP DUP2 DUP2 GT ISZERO PUSH2 0x19AA JUMPI PUSH2 0x19A9 PUSH2 0x1508 JUMP JUMPDEST JUMPDEST SWAP3 SWAP2 POP POP JUMP JUMPDEST PUSH0 PUSH1 0x40 DUP3 ADD SWAP1 POP PUSH2 0x19C3 PUSH0 DUP4 ADD DUP6 PUSH2 0x12BF JUMP JUMPDEST PUSH2 0x19D0 PUSH1 0x20 DUP4 ADD DUP5 PUSH2 0x1053 JUMP JUMPDEST SWAP4 SWAP3 POP POP POP JUMP JUMPDEST PUSH0 DUP2 MLOAD SWAP1 POP PUSH2 0x19E5 DUP2 PUSH2 0x1427 JUMP JUMPDEST SWAP3 SWAP2 POP POP JUMP JUMPDEST PUSH0 PUSH1 0x20 DUP3 DUP5 SUB SLT ISZERO PUSH2 0x1A00 JUMPI PUSH2 0x19FF PUSH2 0x112E JUMP JUMPDEST JUMPDEST PUSH0 PUSH2 0x1A0D DUP5 DUP3 DUP6 ADD PUSH2 0x19D7 JUMP JUMPDEST SWAP2 POP POP SWAP3 SWAP2 POP POP JUMP JUMPDEST PUSH0 PUSH1 0x80 DUP3 ADD SWAP1 POP PUSH2 0x1A29 PUSH0 DUP4 ADD DUP8 PUSH2 0x12BF JUMP JUMPDEST PUSH2 0x1A36 PUSH1 0x20 DUP4 ADD DUP7 PUSH2 0x1053 JUMP JUMPDEST PUSH2 0x1A43 PUSH1 0x40 DUP4 ADD DUP6 PUSH2 0x1053 JUMP JUMPDEST PUSH2 0x1A50 PUSH1 0x60 DUP4 ADD DUP5 PUSH2 0x1053 JUMP JUMPDEST SWAP6 SWAP5 POP POP POP POP POP JUMP JUMPDEST PUSH32 0x4E487B7100000000000000000000000000000000000000000000000000000000 PUSH0 MSTORE PUSH1 0x32 PUSH1 0x4 MSTORE PUSH1 0x24 PUSH0 REVERT INVALID LOG2 PUSH5 0x6970667358 0x22 SLT KECCAK256 DUP9 DELEGATECALL RETURNDATACOPY 0xB3 0x21 0xE2 0xB1 0x5C 0x4F 0xE4 0xC 0xED 0xF6 0x1F 0x22 0xB7 REVERT SLOAD SWAP12 JUMP PUSH9 0xA1BCE418C6F926916F JUMPDEST PUSH21 0x64736F6C63430008160033A2646970667358221220 0xAC CHAINID 0xE6 PUSH23 0x3DEE02A5C4206335C5B6C16D4FBF392C34618438C80338 DELEGATECALL PUSH22 0xF9250F64736F6C634300081600330000000000000000 "
		},
		"gasEstimates": {
			"creation": {
				"codeDepositCost": "3464200",
				"executionCost": "infinite",
				"totalCost": "infinite"
			},
			"external": {
				"allowance(address,address)": "infinite",
				"approve(address,uint256)": "infinite",
				"balanceOf(address)": "2940",
				"burn(address,uint256)": "infinite",
				"counterId()": "2469",
				"createVault(string,address,address,uint256)": "infinite",
				"decimals()": "405",
				"mint(address,uint256)": "infinite",
				"name()": "infinite",
				"owner()": "2560",
				"renounceOwnership()": "infinite",
				"setApproveToburn(address,bool)": "infinite",
				"symbol()": "infinite",
				"totalSupply()": "2522",
				"transfer(address,uint256)": "infinite",
				"transferFrom(address,address,uint256)": "infinite",
				"transferOwnership(address)": "infinite",
				"vaultIdentifcation(uint256)": "infinite"
			},
			"internal": {
				"_setApproveToburn(address,bool)": "24373"
			}
		},
		"methodIdentifiers": {
			"allowance(address,address)": "dd62ed3e",
			"approve(address,uint256)": "095ea7b3",
			"balanceOf(address)": "70a08231",
			"burn(address,uint256)": "9dc29fac",
			"counterId()": "d0a5e51e",
			"createVault(string,address,address,uint256)": "ea83cbf4",
			"decimals()": "313ce567",
			"mint(address,uint256)": "40c10f19",
			"name()": "06fdde03",
			"owner()": "8da5cb5b",
			"renounceOwnership()": "715018a6",
			"setApproveToburn(address,bool)": "2850fa6f",
			"symbol()": "95d89b41",
			"totalSupply()": "18160ddd",
			"transfer(address,uint256)": "a9059cbb",
			"transferFrom(address,address,uint256)": "23b872dd",
			"transferOwnership(address)": "f2fde38b",
			"vaultIdentifcation(uint256)": "09b77eef"
		}
	},
	"abi": [
		{
			"inputs": [],
			"stateMutability": "nonpayable",
			"type": "constructor"
		},
		{
			"inputs": [
				{
					"internalType": "address",
					"name": "spender",
					"type": "address"
				},
				{
					"internalType": "uint256",
					"name": "allowance",
					"type": "uint256"
				},
				{
					"internalType": "uint256",
					"name": "needed",
					"type": "uint256"
				}
			],
			"name": "ERC20InsufficientAllowance",
			"type": "error"
		},
		{
			"inputs": [
				{
					"internalType": "address",
					"name": "sender",
					"type": "address"
				},
				{
					"internalType": "uint256",
					"name": "balance",
					"type": "uint256"
				},
				{
					"internalType": "uint256",
					"name": "needed",
					"type": "uint256"
				}
			],
			"name": "ERC20InsufficientBalance",
			"type": "error"
		},
		{
			"inputs": [
				{
					"internalType": "address",
					"name": "approver",
					"type": "address"
				}
			],
			"name": "ERC20InvalidApprover",
			"type": "error"
		},
		{
			"inputs": [
				{
					"internalType": "address",
					"name": "receiver",
					"type": "address"
				}
			],
			"name": "ERC20InvalidReceiver",
			"type": "error"
		},
		{
			"inputs": [
				{
					"internalType": "address",
					"name": "sender",
					"type": "address"
				}
			],
			"name": "ERC20InvalidSender",
			"type": "error"
		},
		{
			"inputs": [
				{
					"internalType": "address",
					"name": "spender",
					"type": "address"
				}
			],
			"name": "ERC20InvalidSpender",
			"type": "error"
		},
		{
			"inputs": [
				{
					"internalType": "address",
					"name": "owner",
					"type": "address"
				}
			],
			"name": "OwnableInvalidOwner",
			"type": "error"
		},
		{
			"inputs": [
				{
					"internalType": "address",
					"name": "account",
					"type": "address"
				}
			],
			"name": "OwnableUnauthorizedAccount",
			"type": "error"
		},
		{
			"anonymous": false,
			"inputs": [
				{
					"indexed": true,
					"internalType": "address",
					"name": "owner",
					"type": "address"
				},
				{
					"indexed": true,
					"internalType": "address",
					"name": "spender",
					"type": "address"
				},
				{
					"indexed": false,
					"internalType": "uint256",
					"name": "value",
					"type": "uint256"
				}
			],
			"name": "Approval",
			"type": "event"
		},
		{
			"anonymous": false,
			"inputs": [
				{
					"indexed": true,
					"internalType": "address",
					"name": "previousOwner",
					"type": "address"
				},
				{
					"indexed": true,
					"internalType": "address",
					"name": "newOwner",
					"type": "address"
				}
			],
			"name": "OwnershipTransferred",
			"type": "event"
		},
		{
			"anonymous": false,
			"inputs": [
				{
					"indexed": true,
					"internalType": "address",
					"name": "from",
					"type": "address"
				},
				{
					"indexed": true,
					"internalType": "address",
					"name": "to",
					"type": "address"
				},
				{
					"indexed": false,
					"internalType": "uint256",
					"name": "value",
					"type": "uint256"
				}
			],
			"name": "Transfer",
			"type": "event"
		},
		{
			"inputs": [
				{
					"internalType": "address",
					"name": "owner",
					"type": "address"
				},
				{
					"internalType": "address",
					"name": "spender",
					"type": "address"
				}
			],
			"name": "allowance",
			"outputs": [
				{
					"internalType": "uint256",
					"name": "",
					"type": "uint256"
				}
			],
			"stateMutability": "view",
			"type": "function"
		},
		{
			"inputs": [
				{
					"internalType": "address",
					"name": "spender",
					"type": "address"
				},
				{
					"internalType": "uint256",
					"name": "value",
					"type": "uint256"
				}
			],
			"name": "approve",
			"outputs": [
				{
					"internalType": "bool",
					"name": "",
					"type": "bool"
				}
			],
			"stateMutability": "nonpayable",
			"type": "function"
		},
		{
			"inputs": [
				{
					"internalType": "address",
					"name": "account",
					"type": "address"
				}
			],
			"name": "balanceOf",
			"outputs": [
				{
					"internalType": "uint256",
					"name": "",
					"type": "uint256"
				}
			],
			"stateMutability": "view",
			"type": "function"
		},
		{
			"inputs": [
				{
					"internalType": "address",
					"name": "account",
					"type": "address"
				},
				{
					"internalType": "uint256",
					"name": "value",
					"type": "uint256"
				}
			],
			"name": "burn",
			"outputs": [],
			"stateMutability": "nonpayable",
			"type": "function"
		},
		{
			"inputs": [],
			"name": "counterId",
			"outputs": [
				{
					"internalType": "uint256",
					"name": "",
					"type": "uint256"
				}
			],
			"stateMutability": "view",
			"type": "function"
		},
		{
			"inputs": [
				{
					"internalType": "string",
					"name": "vaultName",
					"type": "string"
				},
				{
					"internalType": "address",
					"name": "vaultowner",
					"type": "address"
				},
				{
					"internalType": "address",
					"name": "paymentAddress",
					"type": "address"
				},
				{
					"internalType": "uint256",
					"name": "pointsAmountForVault",
					"type": "uint256"
				}
			],
			"name": "createVault",
			"outputs": [
				{
					"components": [
						{
							"internalType": "address",
							"name": "vaultAdrress",
							"type": "address"
						},
						{
							"internalType": "string",
							"name": "name",
							"type": "string"
						}
					],
					"internalType": "struct points.vaultId",
					"name": "",
					"type": "tuple"
				}
			],
			"stateMutability": "nonpayable",
			"type": "function"
		},
		{
			"inputs": [],
			"name": "decimals",
			"outputs": [
				{
					"internalType": "uint8",
					"name": "",
					"type": "uint8"
				}
			],
			"stateMutability": "view",
			"type": "function"
		},
		{
			"inputs": [
				{
					"internalType": "address",
					"name": "add",
					"type": "address"
				},
				{
					"internalType": "uint256",
					"name": "amount",
					"type": "uint256"
				}
			],
			"name": "mint",
			"outputs": [],
			"stateMutability": "nonpayable",
			"type": "function"
		},
		{
			"inputs": [],
			"name": "name",
			"outputs": [
				{
					"internalType": "string",
					"name": "",
					"type": "string"
				}
			],
			"stateMutability": "view",
			"type": "function"
		},
		{
			"inputs": [],
			"name": "owner",
			"outputs": [
				{
					"internalType": "address",
					"name": "",
					"type": "address"
				}
			],
			"stateMutability": "view",
			"type": "function"
		},
		{
			"inputs": [],
			"name": "renounceOwnership",
			"outputs": [],
			"stateMutability": "nonpayable",
			"type": "function"
		},
		{
			"inputs": [
				{
					"internalType": "address",
					"name": "approvedAdd",
					"type": "address"
				},
				{
					"internalType": "bool",
					"name": "_approve",
					"type": "bool"
				}
			],
			"name": "setApproveToburn",
			"outputs": [],
			"stateMutability": "nonpayable",
			"type": "function"
		},
		{
			"inputs": [],
			"name": "symbol",
			"outputs": [
				{
					"internalType": "string",
					"name": "",
					"type": "string"
				}
			],
			"stateMutability": "view",
			"type": "function"
		},
		{
			"inputs": [],
			"name": "totalSupply",
			"outputs": [
				{
					"internalType": "uint256",
					"name": "",
					"type": "uint256"
				}
			],
			"stateMutability": "view",
			"type": "function"
		},
		{
			"inputs": [
				{
					"internalType": "address",
					"name": "to",
					"type": "address"
				},
				{
					"internalType": "uint256",
					"name": "value",
					"type": "uint256"
				}
			],
			"name": "transfer",
			"outputs": [
				{
					"internalType": "bool",
					"name": "",
					"type": "bool"
				}
			],
			"stateMutability": "nonpayable",
			"type": "function"
		},
		{
			"inputs": [
				{
					"internalType": "address",
					"name": "from",
					"type": "address"
				},
				{
					"internalType": "address",
					"name": "to",
					"type": "address"
				},
				{
					"internalType": "uint256",
					"name": "value",
					"type": "uint256"
				}
			],
			"name": "transferFrom",
			"outputs": [
				{
					"internalType": "bool",
					"name": "",
					"type": "bool"
				}
			],
			"stateMutability": "nonpayable",
			"type": "function"
		},
		{
			"inputs": [
				{
					"internalType": "address",
					"name": "newOwner",
					"type": "address"
				}
			],
			"name": "transferOwnership",
			"outputs": [],
			"stateMutability": "nonpayable",
			"type": "function"
		},
		{
			"inputs": [
				{
					"internalType": "uint256",
					"name": "",
					"type": "uint256"
				}
			],
			"name": "vaultIdentifcation",
			"outputs": [
				{
					"internalType": "address",
					"name": "vaultAdrress",
					"type": "address"
				},
				{
					"internalType": "string",
					"name": "name",
					"type": "string"
				}
			],
			"stateMutability": "view",
			"type": "function"
		}
	]
}