{
	"data": {
		"bytecode": {
			"linkReferences": {},
			"object": "61016060405234801562000011575f80fd5b5060405162003f6d38038062003f6d8339818101604052810190620000379190620006c2565b826040518060400160405280600181526020017f3100000000000000000000000000000000000000000000000000000000000000815250855f73ffffffffffffffffffffffffffffffffffffffff168173ffffffffffffffffffffffffffffffffffffffff1603620000e2575f6040517f1e4fbdf7000000000000000000000000000000000000000000000000000000008152600401620000d9919062000761565b60405180910390fd5b620000f381620002f760201b60201c565b506200010a600183620003b860201b90919060201c565b610120818152505062000128600282620003b860201b90919060201c565b6101408181525050818051906020012060e08181525050808051906020012061010081815250504660a08181525050620001676200040d60201b60201c565b608081815250503073ffffffffffffffffffffffffffffffffffffffff1660c08173ffffffffffffffffffffffffffffffffffffffff1681525050505082600c9081620001b59190620009b3565b50600a60058190555061138860068190555069021e19e0c9bab24000006008819055508160035f6101000a81548173ffffffffffffffffffffffffffffffffffffffff021916908373ffffffffffffffffffffffffffffffffffffffff1602179055508060045f6101000a81548173ffffffffffffffffffffffffffffffffffffffff021916908373ffffffffffffffffffffffffffffffffffffffff16021790555083600d5f6101000a81548173ffffffffffffffffffffffffffffffffffffffff021916908373ffffffffffffffffffffffffffffffffffffffff1602179055506001600e5f8673ffffffffffffffffffffffffffffffffffffffff1673ffffffffffffffffffffffffffffffffffffffff1681526020019081526020015f205f6101000a81548160ff0219169083151502179055505050505062000c2d565b5f805f9054906101000a900473ffffffffffffffffffffffffffffffffffffffff169050815f806101000a81548173ffffffffffffffffffffffffffffffffffffffff021916908373ffffffffffffffffffffffffffffffffffffffff1602179055508173ffffffffffffffffffffffffffffffffffffffff168173ffffffffffffffffffffffffffffffffffffffff167f8be0079c531659141344cd1fd0a4f28419497f9722a3daafe3b4186f6b6457e060405160405180910390a35050565b5f602083511015620003dd57620003d5836200046960201b60201c565b905062000407565b82620003ef83620004d360201b60201c565b5f019081620003ff9190620009b3565b5060ff5f1b90505b92915050565b5f7f8b73c3c69bb8fe3d512ecc4cf759cc79239f7b179b0ffacaa9a75d522b39400f60e0516101005146306040516020016200044e95949392919062000ac2565b60405160208183030381529060405280519060200120905090565b5f80829050601f81511115620004b857826040517f305a27a9000000000000000000000000000000000000000000000000000000008152600401620004af919062000b6d565b60405180910390fd5b805181620004c69062000bbe565b5f1c175f1b915050919050565b5f819050919050565b5f604051905090565b5f80fd5b5f80fd5b5f73ffffffffffffffffffffffffffffffffffffffff82169050919050565b5f6200051882620004ed565b9050919050565b6200052a816200050c565b811462000535575f80fd5b50565b5f8151905062000548816200051f565b92915050565b5f80fd5b5f80fd5b5f601f19601f8301169050919050565b7f4e487b71000000000000000000000000000000000000000000000000000000005f52604160045260245ffd5b6200059e8262000556565b810181811067ffffffffffffffff82111715620005c057620005bf62000566565b5b80604052505050565b5f620005d4620004dc565b9050620005e2828262000593565b919050565b5f67ffffffffffffffff82111562000604576200060362000566565b5b6200060f8262000556565b9050602081019050919050565b5f5b838110156200063b5780820151818401526020810190506200061e565b5f8484015250505050565b5f6200065c6200065684620005e7565b620005c9565b9050828152602081018484840111156200067b576200067a62000552565b5b620006888482856200061c565b509392505050565b5f82601f830112620006a757620006a66200054e565b5b8151620006b984826020860162000646565b91505092915050565b5f805f8060808587031215620006dd57620006dc620004e5565b5b5f620006ec8782880162000538565b945050602085015167ffffffffffffffff81111562000710576200070f620004e9565b5b6200071e8782880162000690565b9350506040620007318782880162000538565b9250506060620007448782880162000538565b91505092959194509250565b6200075b816200050c565b82525050565b5f602082019050620007765f83018462000750565b92915050565b5f81519050919050565b7f4e487b71000000000000000000000000000000000000000000000000000000005f52602260045260245ffd5b5f6002820490506001821680620007cb57607f821691505b602082108103620007e157620007e062000786565b5b50919050565b5f819050815f5260205f209050919050565b5f6020601f8301049050919050565b5f82821b905092915050565b5f60088302620008457fffffffffffffffffffffffffffffffffffffffffffffffffffffffffffffffff8262000808565b62000851868362000808565b95508019841693508086168417925050509392505050565b5f819050919050565b5f819050919050565b5f6200089b620008956200088f8462000869565b62000872565b62000869565b9050919050565b5f819050919050565b620008b6836200087b565b620008ce620008c582620008a2565b84845462000814565b825550505050565b5f90565b620008e4620008d6565b620008f1818484620008ab565b505050565b5b8181101562000918576200090c5f82620008da565b600181019050620008f7565b5050565b601f82111562000967576200093181620007e7565b6200093c84620007f9565b810160208510156200094c578190505b620009646200095b85620007f9565b830182620008f6565b50505b505050565b5f82821c905092915050565b5f620009895f19846008026200096c565b1980831691505092915050565b5f620009a3838362000978565b9150826002028217905092915050565b620009be826200077c565b67ffffffffffffffff811115620009da57620009d962000566565b5b620009e68254620007b3565b620009f38282856200091c565b5f60209050601f83116001811462000a29575f841562000a14578287015190505b62000a20858262000996565b86555062000a8f565b601f19841662000a3986620007e7565b5f5b8281101562000a625784890151825560018201915060208501945060208101905062000a3b565b8683101562000a82578489015162000a7e601f89168262000978565b8355505b6001600288020188555050505b505050505050565b5f819050919050565b62000aab8162000a97565b82525050565b62000abc8162000869565b82525050565b5f60a08201905062000ad75f83018862000aa0565b62000ae6602083018762000aa0565b62000af5604083018662000aa0565b62000b04606083018562000ab1565b62000b13608083018462000750565b9695505050505050565b5f82825260208201905092915050565b5f62000b39826200077c565b62000b45818562000b1d565b935062000b578185602086016200061c565b62000b628162000556565b840191505092915050565b5f6020820190508181035f83015262000b87818462000b2d565b905092915050565b5f81519050919050565b5f819050602082019050919050565b5f62000bb5825162000a97565b80915050919050565b5f62000bca8262000b8f565b8262000bd68462000b99565b905062000be38162000ba8565b9250602082101562000c265762000c217fffffffffffffffffffffffffffffffffffffffffffffffffffffffffffffffff8360200360080262000808565b831692505b5050919050565b60805160a05160c05160e0516101005161012051610140516132ee62000c7f5f395f611d7d01525f611d4201525f611dfb01525f611dda01525f6118f301525f61194901525f61197201526132ee5ff3fe608060405234801561000f575f80fd5b50600436106101e3575f3560e01c806384b0196e1161010d578063c4c020f0116100a0578063f55f42061161006f578063f55f42061461050d578063f851a44014610529578063f9c3a1e814610547578063fd91871614610563576101e3565b8063c4c020f01461049b578063e1fefd42146104b7578063e63ea408146104d5578063f2fde38b146104f1576101e3565b80639683cdc4116100dc5780639683cdc414610429578063ac1e502514610445578063c08e728614610461578063c4a9e8581461047d576101e3565b806384b0196e146103ad5780638bc7e8c4146103d15780638da5cb5b146103ef578063945c147b1461040d576101e3565b80633644e51511610185578063704b6c0211610154578063704b6c021461033b578063715018a61461035757806376ee947f146103615780637d91fb461461037d576101e3565b80633644e515146102c75780636313c6d8146102e557806367a52793146103015780636b4c07891461031f576101e3565b8063252de51b116101c1578063252de51b14610253578063258ba1ee146102715780632c4e722e1461028d57806334fcf437146102ab576101e3565b806306e0e582146101e75780630ace9ca0146102055780630d461e6114610223575b5f80fd5b6101ef610581565b6040516101fc91906122a0565b60405180910390f35b61020d610587565b60405161021a9190612343565b60405180910390f35b61023d6004803603810190610238919061239e565b610613565b60405161024a91906122a0565b60405180910390f35b61025b6106f1565b60405161026891906123e3565b60405180910390f35b61028b60048036038101906102869190612456565b610704565b005b610295610790565b6040516102a291906122a0565b60405180910390f35b6102c560048036038101906102c0919061239e565b610796565b005b6102cf6107a8565b6040516102dc91906124ac565b60405180910390f35b6102ff60048036038101906102fa9190612525565b6107b6565b005b61030961093c565b60405161031691906122a0565b60405180910390f35b610339600480360381019061033491906125d8565b610942565b005b61035560048036038101906103509190612603565b610967565b005b61035f6109b2565b005b61037b6004803603810190610376919061239e565b6109c5565b005b61039760048036038101906103929190612603565b6109d7565b6040516103a491906123e3565b60405180910390f35b6103b56109f4565b6040516103c8979695949392919061272e565b60405180910390f35b6103d9610a99565b6040516103e691906122a0565b60405180910390f35b6103f7610a9f565b60405161040491906127b0565b60405180910390f35b61042760048036038101906104229190612909565b610ac6565b005b610443600480360381019061043e9190612603565b610b59565b005b61045f600480360381019061045a919061239e565b610d5a565b005b61047b6004803603810190610476919061239e565b610d6c565b005b610485610d91565b60405161049291906122a0565b60405180910390f35b6104b560048036038101906104b09190612963565b610d97565b005b6104bf610f46565b6040516104cc91906122a0565b60405180910390f35b6104ef60048036038101906104ea91906129a1565b610f4c565b005b61050b60048036038101906105069190612603565b610fd5565b005b61052760048036038101906105229190612963565b611059565b005b610531611460565b60405161053e91906127b0565b60405180910390f35b610561600480360381019061055c9190612525565b611485565b005b61056b611863565b60405161057891906122a0565b60405180910390f35b60095481565b600c805461059490612a1e565b80601f01602080910402602001604051908101604052809291908181526020018280546105c090612a1e565b801561060b5780601f106105e25761010080835404028352916020019161060b565b820191905f5260205f20905b8154815290600101906020018083116105ee57829003601f168201915b505050505081565b5f80670de0b6b3a764000060065461062b9190612a7b565b60035f9054906101000a900473ffffffffffffffffffffffffffffffffffffffff1673ffffffffffffffffffffffffffffffffffffffff1663313ce5676040518163ffffffff1660e01b8152600401602060405180830381865afa158015610695573d5f803e3d5ffd5b505050506040513d601f19601f820116820180604052508101906106b99190612ad0565b600a6106c59190612c2a565b6001856106d29190612a7b565b6106dc9190612a7b565b6106e69190612ca1565b905080915050919050565b600d60149054906101000a900460ff1681565b61070c611869565b8160035f6101000a81548173ffffffffffffffffffffffffffffffffffffffff021916908373ffffffffffffffffffffffffffffffffffffffff1602179055508060045f6101000a81548173ffffffffffffffffffffffffffffffffffffffff021916908373ffffffffffffffffffffffffffffffffffffffff1602179055505050565b60065481565b61079e611869565b8060068190555050565b5f6107b16118f0565b905090565b6107c48686868686866119a6565b5f1515600d60149054906101000a900460ff16151514610819576040517f08c379a000000000000000000000000000000000000000000000000000000000815260040161081090612d1b565b60405180910390fd5b60085485101561085e576040517f08c379a000000000000000000000000000000000000000000000000000000000815260040161085590612da9565b60405180910390fd5b60045f9054906101000a900473ffffffffffffffffffffffffffffffffffffffff1673ffffffffffffffffffffffffffffffffffffffff1663a9059cbb87876040518363ffffffff1660e01b81526004016108ba929190612dc7565b6020604051808303815f875af11580156108d6573d5f803e3d5ffd5b505050506040513d601f19601f820116820180604052508101906108fa9190612e02565b507fba953728785de35be3827ee7a7a7867a8472947562602939440e6c0bdbf4725e868660405161092c929190612dc7565b60405180910390a1505050505050565b60055481565b61094a611869565b80600d60146101000a81548160ff02191690831515021790555050565b61096f611869565b80600d5f6101000a81548173ffffffffffffffffffffffffffffffffffffffff021916908373ffffffffffffffffffffffffffffffffffffffff16021790555050565b6109ba611869565b6109c35f611c78565b565b6109cd611869565b8060058190555050565b600e602052805f5260405f205f915054906101000a900460ff1681565b5f6060805f805f6060610a05611d39565b610a0d611d74565b46305f801b5f67ffffffffffffffff811115610a2c57610a2b6127cd565b5b604051908082528060200260200182016040528015610a5a5781602001602082028036833780820191505090505b507f0f00000000000000000000000000000000000000000000000000000000000000959493929190965096509650965096509650965090919293949596565b60075481565b5f805f9054906101000a900473ffffffffffffffffffffffffffffffffffffffff16905090565b610ace611869565b5f5b8251811015610b545781600e5f858481518110610af057610aef612e2d565b5b602002602001015173ffffffffffffffffffffffffffffffffffffffff1673ffffffffffffffffffffffffffffffffffffffff1681526020019081526020015f205f6101000a81548160ff0219169083151502179055508080600101915050610ad0565b505050565b610b61611869565b5f60035f9054906101000a900473ffffffffffffffffffffffffffffffffffffffff1673ffffffffffffffffffffffffffffffffffffffff166370a08231306040518263ffffffff1660e01b8152600401610bbc91906127b0565b602060405180830381865afa158015610bd7573d5f803e3d5ffd5b505050506040513d601f19601f82011682018060405250810190610bfb9190612e6e565b90505f600954600b54600a5484610c129190612e99565b610c1c9190612e99565b610c269190612ecc565b90508060095f828254610c399190612e99565b925050819055505f606460055483610c519190612a7b565b610c5b9190612ca1565b90505f8111610c9f576040517f08c379a0000000000000000000000000000000000000000000000000000000008152600401610c9690612f49565b60405180910390fd5b80600b5f828254610cb09190612e99565b9250508190555060035f9054906101000a900473ffffffffffffffffffffffffffffffffffffffff1673ffffffffffffffffffffffffffffffffffffffff1663a9059cbb85836040518363ffffffff1660e01b8152600401610d13929190612dc7565b6020604051808303815f875af1158015610d2f573d5f803e3d5ffd5b505050506040513d601f19601f82011682018060405250810190610d539190612e02565b5050505050565b610d62611869565b8060078190555050565b610d74611869565b670de0b6b3a764000081610d889190612a7b565b60088190555050565b600b5481565b60011515600e5f3373ffffffffffffffffffffffffffffffffffffffff1673ffffffffffffffffffffffffffffffffffffffff1681526020019081526020015f205f9054906101000a900460ff16151514610e27576040517f08c379a0000000000000000000000000000000000000000000000000000000008152600401610e1e90612fb1565b60405180910390fd5b600854811015610e6c576040517f08c379a0000000000000000000000000000000000000000000000000000000008152600401610e639061303f565b60405180910390fd5b60045f9054906101000a900473ffffffffffffffffffffffffffffffffffffffff1673ffffffffffffffffffffffffffffffffffffffff1663a9059cbb83836040518363ffffffff1660e01b8152600401610ec8929190612dc7565b6020604051808303815f875af1158015610ee4573d5f803e3d5ffd5b505050506040513d601f19601f82011682018060405250810190610f089190612e02565b507fba953728785de35be3827ee7a7a7867a8472947562602939440e6c0bdbf4725e8282604051610f3a929190612dc7565b60405180910390a15050565b60085481565b610f54611869565b8273ffffffffffffffffffffffffffffffffffffffff1663a9059cbb83836040518363ffffffff1660e01b8152600401610f8f929190612dc7565b6020604051808303815f875af1158015610fab573d5f803e3d5ffd5b505050506040513d601f19601f82011682018060405250810190610fcf9190612e02565b50505050565b610fdd611869565b5f73ffffffffffffffffffffffffffffffffffffffff168173ffffffffffffffffffffffffffffffffffffffff160361104d575f6040517f1e4fbdf700000000000000000000000000000000000000000000000000000000815260040161104491906127b0565b60405180910390fd5b61105681611c78565b50565b60011515600e5f3373ffffffffffffffffffffffffffffffffffffffff1673ffffffffffffffffffffffffffffffffffffffff1681526020019081526020015f205f9054906101000a900460ff161515146110e9576040517f08c379a00000000000000000000000000000000000000000000000000000000081526004016110e090612fb1565b60405180910390fd5b8060045f9054906101000a900473ffffffffffffffffffffffffffffffffffffffff1673ffffffffffffffffffffffffffffffffffffffff166370a08231846040518263ffffffff1660e01b815260040161114491906127b0565b602060405180830381865afa15801561115f573d5f803e3d5ffd5b505050506040513d601f19601f820116820180604052508101906111839190612e6e565b10156111c4576040517f08c379a00000000000000000000000000000000000000000000000000000000081526004016111bb906130a7565b60405180910390fd5b600854811015611209576040517f08c379a00000000000000000000000000000000000000000000000000000000081526004016112009061303f565b60405180910390fd5b5f61121382610613565b905080600a5f8282546112269190612e99565b925050819055505f60646007548361123e9190612a7b565b6112489190612ca1565b90505f81836112579190612ecc565b905060045f9054906101000a900473ffffffffffffffffffffffffffffffffffffffff1673ffffffffffffffffffffffffffffffffffffffff16639dc29fac86866040518363ffffffff1660e01b81526004016112b5929190612dc7565b5f604051808303815f87803b1580156112cc575f80fd5b505af11580156112de573d5f803e3d5ffd5b5050505060035f9054906101000a900473ffffffffffffffffffffffffffffffffffffffff1673ffffffffffffffffffffffffffffffffffffffff1663a9059cbb86836040518363ffffffff1660e01b815260040161133e929190612dc7565b6020604051808303815f875af115801561135a573d5f803e3d5ffd5b505050506040513d601f19601f8201168201806040525081019061137e9190612e02565b5060035f9054906101000a900473ffffffffffffffffffffffffffffffffffffffff1673ffffffffffffffffffffffffffffffffffffffff1663a9059cbb33846040518363ffffffff1660e01b81526004016113db929190612dc7565b6020604051808303815f875af11580156113f7573d5f803e3d5ffd5b505050506040513d601f19601f8201168201806040525081019061141b9190612e02565b507fc9ec92487a51a4894b66e92fa35d58109271421843b717e764249309f96ab9b58585838560405161145194939291906130c5565b60405180910390a15050505050565b600d5f9054906101000a900473ffffffffffffffffffffffffffffffffffffffff1681565b6114938686868686866119a6565b5f1515600d60149054906101000a900460ff161515146114e8576040517f08c379a00000000000000000000000000000000000000000000000000000000081526004016114df90612d1b565b60405180910390fd5b8460045f9054906101000a900473ffffffffffffffffffffffffffffffffffffffff1673ffffffffffffffffffffffffffffffffffffffff166370a08231886040518263ffffffff1660e01b815260040161154391906127b0565b602060405180830381865afa15801561155e573d5f803e3d5ffd5b505050506040513d601f19601f820116820180604052508101906115829190612e6e565b10156115c3576040517f08c379a00000000000000000000000000000000000000000000000000000000081526004016115ba906130a7565b60405180910390fd5b600854851015611608576040517f08c379a00000000000000000000000000000000000000000000000000000000081526004016115ff9061303f565b60405180910390fd5b5f61161286610613565b905080600a5f8282546116259190612e99565b925050819055505f60646007548361163d9190612a7b565b6116479190612ca1565b90505f81836116569190612ecc565b905060045f9054906101000a900473ffffffffffffffffffffffffffffffffffffffff1673ffffffffffffffffffffffffffffffffffffffff16639dc29fac8a8a6040518363ffffffff1660e01b81526004016116b4929190612dc7565b5f604051808303815f87803b1580156116cb575f80fd5b505af11580156116dd573d5f803e3d5ffd5b5050505060035f9054906101000a900473ffffffffffffffffffffffffffffffffffffffff1673ffffffffffffffffffffffffffffffffffffffff1663a9059cbb8a836040518363ffffffff1660e01b815260040161173d929190612dc7565b6020604051808303815f875af1158015611759573d5f803e3d5ffd5b505050506040513d601f19601f8201168201806040525081019061177d9190612e02565b5060035f9054906101000a900473ffffffffffffffffffffffffffffffffffffffff1673ffffffffffffffffffffffffffffffffffffffff1663a9059cbb33846040518363ffffffff1660e01b81526004016117da929190612dc7565b6020604051808303815f875af11580156117f6573d5f803e3d5ffd5b505050506040513d601f19601f8201168201806040525081019061181a9190612e02565b507fc9ec92487a51a4894b66e92fa35d58109271421843b717e764249309f96ab9b58989838560405161185094939291906130c5565b60405180910390a1505050505050505050565b600a5481565b611871611daf565b73ffffffffffffffffffffffffffffffffffffffff1661188f610a9f565b73ffffffffffffffffffffffffffffffffffffffff16146118ee576118b2611daf565b6040517f118cdaa70000000000000000000000000000000000000000000000000000000081526004016118e591906127b0565b60405180910390fd5b565b5f7f000000000000000000000000000000000000000000000000000000000000000073ffffffffffffffffffffffffffffffffffffffff163073ffffffffffffffffffffffffffffffffffffffff1614801561196b57507f000000000000000000000000000000000000000000000000000000000000000046145b15611998577f000000000000000000000000000000000000000000000000000000000000000090506119a3565b6119a0611db6565b90505b90565b5f1515600f5f8560ff1660ff1681526020019081526020015f205f9054906101000a900460ff16151514806119fb57505f151560105f8481526020019081526020015f205f9054906101000a900460ff161515145b80611a2657505f151560115f8381526020019081526020015f205f9054906101000a900460ff161515145b611a65576040517f08c379a0000000000000000000000000000000000000000000000000000000008152600401611a5c90613152565b60405180910390fd5b83421115611aaa57836040517f62791302000000000000000000000000000000000000000000000000000000008152600401611aa191906122a0565b60405180910390fd5b5f7f05619a74ecd0240afc3bfb1df2bd1319401220fb577809c3a09bf0ab809ac861600d5f9054906101000a900473ffffffffffffffffffffffffffffffffffffffff16888888604051602001611b05959493929190613170565b6040516020818303038152906040528051906020012090505f611b2782611e4b565b90505f611b3682878787611e64565b9050600d5f9054906101000a900473ffffffffffffffffffffffffffffffffffffffff1673ffffffffffffffffffffffffffffffffffffffff168173ffffffffffffffffffffffffffffffffffffffff1614611bec5780600d5f9054906101000a900473ffffffffffffffffffffffffffffffffffffffff166040517f4b800e46000000000000000000000000000000000000000000000000000000008152600401611be39291906131c1565b60405180910390fd5b6001600f5f8860ff1660ff1681526020019081526020015f205f6101000a81548160ff021916908315150217905550600160105f8781526020019081526020015f205f6101000a81548160ff021916908315150217905550600160115f8681526020019081526020015f205f6101000a81548160ff021916908315150217905550505050505050505050565b5f805f9054906101000a900473ffffffffffffffffffffffffffffffffffffffff169050815f806101000a81548173ffffffffffffffffffffffffffffffffffffffff021916908373ffffffffffffffffffffffffffffffffffffffff1602179055508173ffffffffffffffffffffffffffffffffffffffff168173ffffffffffffffffffffffffffffffffffffffff167f8be0079c531659141344cd1fd0a4f28419497f9722a3daafe3b4186f6b6457e060405160405180910390a35050565b6060611d6f60017f0000000000000000000000000000000000000000000000000000000000000000611e9290919063ffffffff16565b905090565b6060611daa60027f0000000000000000000000000000000000000000000000000000000000000000611e9290919063ffffffff16565b905090565b5f33905090565b5f7f8b73c3c69bb8fe3d512ecc4cf759cc79239f7b179b0ffacaa9a75d522b39400f7f00000000000000000000000000000000000000000000000000000000000000007f00000000000000000000000000000000000000000000000000000000000000004630604051602001611e309594939291906131e8565b60405160208183030381529060405280519060200120905090565b5f611e5d611e576118f0565b83611f3f565b9050919050565b5f805f80611e7488888888611f7f565b925092509250611e848282612066565b829350505050949350505050565b606060ff5f1b8314611eae57611ea7836121c8565b9050611f39565b818054611eba90612a1e565b80601f0160208091040260200160405190810160405280929190818152602001828054611ee690612a1e565b8015611f315780601f10611f0857610100808354040283529160200191611f31565b820191905f5260205f20905b815481529060010190602001808311611f1457829003601f168201915b505050505090505b92915050565b5f6040517f190100000000000000000000000000000000000000000000000000000000000081528360028201528260228201526042812091505092915050565b5f805f7f7fffffffffffffffffffffffffffffff5d576e7357a4501ddfe92f46681b20a0845f1c1115611fbb575f60038592509250925061205c565b5f6001888888886040515f8152602001604052604051611fde9493929190613248565b6020604051602081039080840390855afa158015611ffe573d5f803e3d5ffd5b5050506020604051035190505f73ffffffffffffffffffffffffffffffffffffffff168173ffffffffffffffffffffffffffffffffffffffff160361204f575f60015f801b9350935093505061205c565b805f805f1b935093509350505b9450945094915050565b5f60038111156120795761207861328b565b5b82600381111561208c5761208b61328b565b5b03156121c457600160038111156120a6576120a561328b565b5b8260038111156120b9576120b861328b565b5b036120f0576040517ff645eedf00000000000000000000000000000000000000000000000000000000815260040160405180910390fd5b600260038111156121045761210361328b565b5b8260038111156121175761211661328b565b5b0361215b57805f1c6040517ffce698f700000000000000000000000000000000000000000000000000000000815260040161215291906122a0565b60405180910390fd5b60038081111561216e5761216d61328b565b5b8260038111156121815761218061328b565b5b036121c357806040517fd78bce0c0000000000000000000000000000000000000000000000000000000081526004016121ba91906124ac565b60405180910390fd5b5b5050565b60605f6121d48361223a565b90505f602067ffffffffffffffff8111156121f2576121f16127cd565b5b6040519080825280601f01601f1916602001820160405280156122245781602001600182028036833780820191505090505b5090508181528360208201528092505050919050565b5f8060ff835f1c169050601f81111561227f576040517fb3512b0c00000000000000000000000000000000000000000000000000000000815260040160405180910390fd5b80915050919050565b5f819050919050565b61229a81612288565b82525050565b5f6020820190506122b35f830184612291565b92915050565b5f81519050919050565b5f82825260208201905092915050565b5f5b838110156122f05780820151818401526020810190506122d5565b5f8484015250505050565b5f601f19601f8301169050919050565b5f612315826122b9565b61231f81856122c3565b935061232f8185602086016122d3565b612338816122fb565b840191505092915050565b5f6020820190508181035f83015261235b818461230b565b905092915050565b5f604051905090565b5f80fd5b5f80fd5b61237d81612288565b8114612387575f80fd5b50565b5f8135905061239881612374565b92915050565b5f602082840312156123b3576123b261236c565b5b5f6123c08482850161238a565b91505092915050565b5f8115159050919050565b6123dd816123c9565b82525050565b5f6020820190506123f65f8301846123d4565b92915050565b5f73ffffffffffffffffffffffffffffffffffffffff82169050919050565b5f612425826123fc565b9050919050565b6124358161241b565b811461243f575f80fd5b50565b5f813590506124508161242c565b92915050565b5f806040838503121561246c5761246b61236c565b5b5f61247985828601612442565b925050602061248a85828601612442565b9150509250929050565b5f819050919050565b6124a681612494565b82525050565b5f6020820190506124bf5f83018461249d565b92915050565b5f60ff82169050919050565b6124da816124c5565b81146124e4575f80fd5b50565b5f813590506124f5816124d1565b92915050565b61250481612494565b811461250e575f80fd5b50565b5f8135905061251f816124fb565b92915050565b5f805f805f8060c0878903121561253f5761253e61236c565b5b5f61254c89828a01612442565b965050602061255d89828a0161238a565b955050604061256e89828a0161238a565b945050606061257f89828a016124e7565b935050608061259089828a01612511565b92505060a06125a189828a01612511565b9150509295509295509295565b6125b7816123c9565b81146125c1575f80fd5b50565b5f813590506125d2816125ae565b92915050565b5f602082840312156125ed576125ec61236c565b5b5f6125fa848285016125c4565b91505092915050565b5f602082840312156126185761261761236c565b5b5f61262584828501612442565b91505092915050565b5f7fff0000000000000000000000000000000000000000000000000000000000000082169050919050565b6126628161262e565b82525050565b6126718161241b565b82525050565b5f81519050919050565b5f82825260208201905092915050565b5f819050602082019050919050565b6126a981612288565b82525050565b5f6126ba83836126a0565b60208301905092915050565b5f602082019050919050565b5f6126dc82612677565b6126e68185612681565b93506126f183612691565b805f5b8381101561272157815161270888826126af565b9750612713836126c6565b9250506001810190506126f4565b5085935050505092915050565b5f60e0820190506127415f83018a612659565b8181036020830152612753818961230b565b90508181036040830152612767818861230b565b90506127766060830187612291565b6127836080830186612668565b61279060a083018561249d565b81810360c08301526127a281846126d2565b905098975050505050505050565b5f6020820190506127c35f830184612668565b92915050565b5f80fd5b7f4e487b71000000000000000000000000000000000000000000000000000000005f52604160045260245ffd5b612803826122fb565b810181811067ffffffffffffffff82111715612822576128216127cd565b5b80604052505050565b5f612834612363565b905061284082826127fa565b919050565b5f67ffffffffffffffff82111561285f5761285e6127cd565b5b602082029050602081019050919050565b5f80fd5b5f61288661288184612845565b61282b565b905080838252602082019050602084028301858111156128a9576128a8612870565b5b835b818110156128d257806128be8882612442565b8452602084019350506020810190506128ab565b5050509392505050565b5f82601f8301126128f0576128ef6127c9565b5b8135612900848260208601612874565b91505092915050565b5f806040838503121561291f5761291e61236c565b5b5f83013567ffffffffffffffff81111561293c5761293b612370565b5b612948858286016128dc565b9250506020612959858286016125c4565b9150509250929050565b5f80604083850312156129795761297861236c565b5b5f61298685828601612442565b92505060206129978582860161238a565b9150509250929050565b5f805f606084860312156129b8576129b761236c565b5b5f6129c586828701612442565b93505060206129d686828701612442565b92505060406129e78682870161238a565b9150509250925092565b7f4e487b71000000000000000000000000000000000000000000000000000000005f52602260045260245ffd5b5f6002820490506001821680612a3557607f821691505b602082108103612a4857612a476129f1565b5b50919050565b7f4e487b71000000000000000000000000000000000000000000000000000000005f52601160045260245ffd5b5f612a8582612288565b9150612a9083612288565b9250828202612a9e81612288565b91508282048414831517612ab557612ab4612a4e565b5b5092915050565b5f81519050612aca816124d1565b92915050565b5f60208284031215612ae557612ae461236c565b5b5f612af284828501612abc565b91505092915050565b5f8160011c9050919050565b5f808291508390505b6001851115612b5057808604811115612b2c57612b2b612a4e565b5b6001851615612b3b5780820291505b8081029050612b4985612afb565b9450612b10565b94509492505050565b5f82612b685760019050612c23565b81612b75575f9050612c23565b8160018114612b8b5760028114612b9557612bc4565b6001915050612c23565b60ff841115612ba757612ba6612a4e565b5b8360020a915084821115612bbe57612bbd612a4e565b5b50612c23565b5060208310610133831016604e8410600b8410161715612bf95782820a905083811115612bf457612bf3612a4e565b5b612c23565b612c068484846001612b07565b92509050818404811115612c1d57612c1c612a4e565b5b81810290505b9392505050565b5f612c3482612288565b9150612c3f836124c5565b9250612c6c7fffffffffffffffffffffffffffffffffffffffffffffffffffffffffffffffff8484612b59565b905092915050565b7f4e487b71000000000000000000000000000000000000000000000000000000005f52601260045260245ffd5b5f612cab82612288565b9150612cb683612288565b925082612cc657612cc5612c74565b5b828204905092915050565b7f636f6e747261637420667265657a6564000000000000000000000000000000005f82015250565b5f612d056010836122c3565b9150612d1082612cd1565b602082019050919050565b5f6020820190508181035f830152612d3281612cf9565b9050919050565b7f706f696e747320746f20636c61696d206c657373207468616e206d696e706f695f8201527f6e74730000000000000000000000000000000000000000000000000000000000602082015250565b5f612d936023836122c3565b9150612d9e82612d39565b604082019050919050565b5f6020820190508181035f830152612dc081612d87565b9050919050565b5f604082019050612dda5f830185612668565b612de76020830184612291565b9392505050565b5f81519050612dfc816125ae565b92915050565b5f60208284031215612e1757612e1661236c565b5b5f612e2484828501612dee565b91505092915050565b7f4e487b71000000000000000000000000000000000000000000000000000000005f52603260045260245ffd5b5f81519050612e6881612374565b92915050565b5f60208284031215612e8357612e8261236c565b5b5f612e9084828501612e5a565b91505092915050565b5f612ea382612288565b9150612eae83612288565b9250828201905080821115612ec657612ec5612a4e565b5b92915050565b5f612ed682612288565b9150612ee183612288565b9250828203905081811115612ef957612ef8612a4e565b5b92915050565b7f6e6f206e6577206465706f7369742061646465640000000000000000000000005f82015250565b5f612f336014836122c3565b9150612f3e82612eff565b602082019050919050565b5f6020820190508181035f830152612f6081612f27565b9050919050565b7f796f7520617265206e6f74207065726d697474656400000000000000000000005f82015250565b5f612f9b6015836122c3565b9150612fa682612f67565b602082019050919050565b5f6020820190508181035f830152612fc881612f8f565b9050919050565b7f706f696e747320746f2073776170206c657373207468616e206d696e706f696e5f8201527f7473000000000000000000000000000000000000000000000000000000000000602082015250565b5f6130296022836122c3565b915061303482612fcf565b604082019050919050565b5f6020820190508181035f8301526130568161301d565b9050919050565b7f6e6f7420656e6f75676820706f696e74730000000000000000000000000000005f82015250565b5f6130916011836122c3565b915061309c8261305d565b602082019050919050565b5f6020820190508181035f8301526130be81613085565b9050919050565b5f6080820190506130d85f830187612668565b6130e56020830186612291565b6130f26040830185612291565b6130ff6060830184612291565b95945050505050565b7f73696720757365640000000000000000000000000000000000000000000000005f82015250565b5f61313c6008836122c3565b915061314782613108565b602082019050919050565b5f6020820190508181035f83015261316981613130565b9050919050565b5f60a0820190506131835f83018861249d565b6131906020830187612668565b61319d6040830186612668565b6131aa6060830185612291565b6131b76080830184612291565b9695505050505050565b5f6040820190506131d45f830185612668565b6131e16020830184612668565b9392505050565b5f60a0820190506131fb5f83018861249d565b613208602083018761249d565b613215604083018661249d565b6132226060830185612291565b61322f6080830184612668565b9695505050505050565b613242816124c5565b82525050565b5f60808201905061325b5f83018761249d565b6132686020830186613239565b613275604083018561249d565b613282606083018461249d565b95945050505050565b7f4e487b71000000000000000000000000000000000000000000000000000000005f52602160045260245ffdfea2646970667358221220b5f1a7402616767265fc9ba7c9fe13f678998a6dfcb0ab008d3cae4a265a8bea64736f6c63430008160033",
			"opcodes": "PUSH2 0x160 PUSH1 0x40 MSTORE CALLVALUE DUP1 ISZERO PUSH3 0x11 JUMPI PUSH0 DUP1 REVERT JUMPDEST POP PUSH1 0x40 MLOAD PUSH3 0x3F6D CODESIZE SUB DUP1 PUSH3 0x3F6D DUP4 CODECOPY DUP2 DUP2 ADD PUSH1 0x40 MSTORE DUP2 ADD SWAP1 PUSH3 0x37 SWAP2 SWAP1 PUSH3 0x6C2 JUMP JUMPDEST DUP3 PUSH1 0x40 MLOAD DUP1 PUSH1 0x40 ADD PUSH1 0x40 MSTORE DUP1 PUSH1 0x1 DUP2 MSTORE PUSH1 0x20 ADD PUSH32 0x3100000000000000000000000000000000000000000000000000000000000000 DUP2 MSTORE POP DUP6 PUSH0 PUSH20 0xFFFFFFFFFFFFFFFFFFFFFFFFFFFFFFFFFFFFFFFF AND DUP2 PUSH20 0xFFFFFFFFFFFFFFFFFFFFFFFFFFFFFFFFFFFFFFFF AND SUB PUSH3 0xE2 JUMPI PUSH0 PUSH1 0x40 MLOAD PUSH32 0x1E4FBDF700000000000000000000000000000000000000000000000000000000 DUP2 MSTORE PUSH1 0x4 ADD PUSH3 0xD9 SWAP2 SWAP1 PUSH3 0x761 JUMP JUMPDEST PUSH1 0x40 MLOAD DUP1 SWAP2 SUB SWAP1 REVERT JUMPDEST PUSH3 0xF3 DUP2 PUSH3 0x2F7 PUSH1 0x20 SHL PUSH1 0x20 SHR JUMP JUMPDEST POP PUSH3 0x10A PUSH1 0x1 DUP4 PUSH3 0x3B8 PUSH1 0x20 SHL SWAP1 SWAP2 SWAP1 PUSH1 0x20 SHR JUMP JUMPDEST PUSH2 0x120 DUP2 DUP2 MSTORE POP POP PUSH3 0x128 PUSH1 0x2 DUP3 PUSH3 0x3B8 PUSH1 0x20 SHL SWAP1 SWAP2 SWAP1 PUSH1 0x20 SHR JUMP JUMPDEST PUSH2 0x140 DUP2 DUP2 MSTORE POP POP DUP2 DUP1 MLOAD SWAP1 PUSH1 0x20 ADD KECCAK256 PUSH1 0xE0 DUP2 DUP2 MSTORE POP POP DUP1 DUP1 MLOAD SWAP1 PUSH1 0x20 ADD KECCAK256 PUSH2 0x100 DUP2 DUP2 MSTORE POP POP CHAINID PUSH1 0xA0 DUP2 DUP2 MSTORE POP POP PUSH3 0x167 PUSH3 0x40D PUSH1 0x20 SHL PUSH1 0x20 SHR JUMP JUMPDEST PUSH1 0x80 DUP2 DUP2 MSTORE POP POP ADDRESS PUSH20 0xFFFFFFFFFFFFFFFFFFFFFFFFFFFFFFFFFFFFFFFF AND PUSH1 0xC0 DUP2 PUSH20 0xFFFFFFFFFFFFFFFFFFFFFFFFFFFFFFFFFFFFFFFF AND DUP2 MSTORE POP POP POP POP DUP3 PUSH1 0xC SWAP1 DUP2 PUSH3 0x1B5 SWAP2 SWAP1 PUSH3 0x9B3 JUMP JUMPDEST POP PUSH1 0xA PUSH1 0x5 DUP2 SWAP1 SSTORE POP PUSH2 0x1388 PUSH1 0x6 DUP2 SWAP1 SSTORE POP PUSH10 0x21E19E0C9BAB2400000 PUSH1 0x8 DUP2 SWAP1 SSTORE POP DUP2 PUSH1 0x3 PUSH0 PUSH2 0x100 EXP DUP2 SLOAD DUP2 PUSH20 0xFFFFFFFFFFFFFFFFFFFFFFFFFFFFFFFFFFFFFFFF MUL NOT AND SWAP1 DUP4 PUSH20 0xFFFFFFFFFFFFFFFFFFFFFFFFFFFFFFFFFFFFFFFF AND MUL OR SWAP1 SSTORE POP DUP1 PUSH1 0x4 PUSH0 PUSH2 0x100 EXP DUP2 SLOAD DUP2 PUSH20 0xFFFFFFFFFFFFFFFFFFFFFFFFFFFFFFFFFFFFFFFF MUL NOT AND SWAP1 DUP4 PUSH20 0xFFFFFFFFFFFFFFFFFFFFFFFFFFFFFFFFFFFFFFFF AND MUL OR SWAP1 SSTORE POP DUP4 PUSH1 0xD PUSH0 PUSH2 0x100 EXP DUP2 SLOAD DUP2 PUSH20 0xFFFFFFFFFFFFFFFFFFFFFFFFFFFFFFFFFFFFFFFF MUL NOT AND SWAP1 DUP4 PUSH20 0xFFFFFFFFFFFFFFFFFFFFFFFFFFFFFFFFFFFFFFFF AND MUL OR SWAP1 SSTORE POP PUSH1 0x1 PUSH1 0xE PUSH0 DUP7 PUSH20 0xFFFFFFFFFFFFFFFFFFFFFFFFFFFFFFFFFFFFFFFF AND PUSH20 0xFFFFFFFFFFFFFFFFFFFFFFFFFFFFFFFFFFFFFFFF AND DUP2 MSTORE PUSH1 0x20 ADD SWAP1 DUP2 MSTORE PUSH1 0x20 ADD PUSH0 KECCAK256 PUSH0 PUSH2 0x100 EXP DUP2 SLOAD DUP2 PUSH1 0xFF MUL NOT AND SWAP1 DUP4 ISZERO ISZERO MUL OR SWAP1 SSTORE POP POP POP POP POP PUSH3 0xC2D JUMP JUMPDEST PUSH0 DUP1 PUSH0 SWAP1 SLOAD SWAP1 PUSH2 0x100 EXP SWAP1 DIV PUSH20 0xFFFFFFFFFFFFFFFFFFFFFFFFFFFFFFFFFFFFFFFF AND SWAP1 POP DUP2 PUSH0 DUP1 PUSH2 0x100 EXP DUP2 SLOAD DUP2 PUSH20 0xFFFFFFFFFFFFFFFFFFFFFFFFFFFFFFFFFFFFFFFF MUL NOT AND SWAP1 DUP4 PUSH20 0xFFFFFFFFFFFFFFFFFFFFFFFFFFFFFFFFFFFFFFFF AND MUL OR SWAP1 SSTORE POP DUP2 PUSH20 0xFFFFFFFFFFFFFFFFFFFFFFFFFFFFFFFFFFFFFFFF AND DUP2 PUSH20 0xFFFFFFFFFFFFFFFFFFFFFFFFFFFFFFFFFFFFFFFF AND PUSH32 0x8BE0079C531659141344CD1FD0A4F28419497F9722A3DAAFE3B4186F6B6457E0 PUSH1 0x40 MLOAD PUSH1 0x40 MLOAD DUP1 SWAP2 SUB SWAP1 LOG3 POP POP JUMP JUMPDEST PUSH0 PUSH1 0x20 DUP4 MLOAD LT ISZERO PUSH3 0x3DD JUMPI PUSH3 0x3D5 DUP4 PUSH3 0x469 PUSH1 0x20 SHL PUSH1 0x20 SHR JUMP JUMPDEST SWAP1 POP PUSH3 0x407 JUMP JUMPDEST DUP3 PUSH3 0x3EF DUP4 PUSH3 0x4D3 PUSH1 0x20 SHL PUSH1 0x20 SHR JUMP JUMPDEST PUSH0 ADD SWAP1 DUP2 PUSH3 0x3FF SWAP2 SWAP1 PUSH3 0x9B3 JUMP JUMPDEST POP PUSH1 0xFF PUSH0 SHL SWAP1 POP JUMPDEST SWAP3 SWAP2 POP POP JUMP JUMPDEST PUSH0 PUSH32 0x8B73C3C69BB8FE3D512ECC4CF759CC79239F7B179B0FFACAA9A75D522B39400F PUSH1 0xE0 MLOAD PUSH2 0x100 MLOAD CHAINID ADDRESS PUSH1 0x40 MLOAD PUSH1 0x20 ADD PUSH3 0x44E SWAP6 SWAP5 SWAP4 SWAP3 SWAP2 SWAP1 PUSH3 0xAC2 JUMP JUMPDEST PUSH1 0x40 MLOAD PUSH1 0x20 DUP2 DUP4 SUB SUB DUP2 MSTORE SWAP1 PUSH1 0x40 MSTORE DUP1 MLOAD SWAP1 PUSH1 0x20 ADD KECCAK256 SWAP1 POP SWAP1 JUMP JUMPDEST PUSH0 DUP1 DUP3 SWAP1 POP PUSH1 0x1F DUP2 MLOAD GT ISZERO PUSH3 0x4B8 JUMPI DUP3 PUSH1 0x40 MLOAD PUSH32 0x305A27A900000000000000000000000000000000000000000000000000000000 DUP2 MSTORE PUSH1 0x4 ADD PUSH3 0x4AF SWAP2 SWAP1 PUSH3 0xB6D JUMP JUMPDEST PUSH1 0x40 MLOAD DUP1 SWAP2 SUB SWAP1 REVERT JUMPDEST DUP1 MLOAD DUP2 PUSH3 0x4C6 SWAP1 PUSH3 0xBBE JUMP JUMPDEST PUSH0 SHR OR PUSH0 SHL SWAP2 POP POP SWAP2 SWAP1 POP JUMP JUMPDEST PUSH0 DUP2 SWAP1 POP SWAP2 SWAP1 POP JUMP JUMPDEST PUSH0 PUSH1 0x40 MLOAD SWAP1 POP SWAP1 JUMP JUMPDEST PUSH0 DUP1 REVERT JUMPDEST PUSH0 DUP1 REVERT JUMPDEST PUSH0 PUSH20 0xFFFFFFFFFFFFFFFFFFFFFFFFFFFFFFFFFFFFFFFF DUP3 AND SWAP1 POP SWAP2 SWAP1 POP JUMP JUMPDEST PUSH0 PUSH3 0x518 DUP3 PUSH3 0x4ED JUMP JUMPDEST SWAP1 POP SWAP2 SWAP1 POP JUMP JUMPDEST PUSH3 0x52A DUP2 PUSH3 0x50C JUMP JUMPDEST DUP2 EQ PUSH3 0x535 JUMPI PUSH0 DUP1 REVERT JUMPDEST POP JUMP JUMPDEST PUSH0 DUP2 MLOAD SWAP1 POP PUSH3 0x548 DUP2 PUSH3 0x51F JUMP JUMPDEST SWAP3 SWAP2 POP POP JUMP JUMPDEST PUSH0 DUP1 REVERT JUMPDEST PUSH0 DUP1 REVERT JUMPDEST PUSH0 PUSH1 0x1F NOT PUSH1 0x1F DUP4 ADD AND SWAP1 POP SWAP2 SWAP1 POP JUMP JUMPDEST PUSH32 0x4E487B7100000000000000000000000000000000000000000000000000000000 PUSH0 MSTORE PUSH1 0x41 PUSH1 0x4 MSTORE PUSH1 0x24 PUSH0 REVERT JUMPDEST PUSH3 0x59E DUP3 PUSH3 0x556 JUMP JUMPDEST DUP2 ADD DUP2 DUP2 LT PUSH8 0xFFFFFFFFFFFFFFFF DUP3 GT OR ISZERO PUSH3 0x5C0 JUMPI PUSH3 0x5BF PUSH3 0x566 JUMP JUMPDEST JUMPDEST DUP1 PUSH1 0x40 MSTORE POP POP POP JUMP JUMPDEST PUSH0 PUSH3 0x5D4 PUSH3 0x4DC JUMP JUMPDEST SWAP1 POP PUSH3 0x5E2 DUP3 DUP3 PUSH3 0x593 JUMP JUMPDEST SWAP2 SWAP1 POP JUMP JUMPDEST PUSH0 PUSH8 0xFFFFFFFFFFFFFFFF DUP3 GT ISZERO PUSH3 0x604 JUMPI PUSH3 0x603 PUSH3 0x566 JUMP JUMPDEST JUMPDEST PUSH3 0x60F DUP3 PUSH3 0x556 JUMP JUMPDEST SWAP1 POP PUSH1 0x20 DUP2 ADD SWAP1 POP SWAP2 SWAP1 POP JUMP JUMPDEST PUSH0 JUMPDEST DUP4 DUP2 LT ISZERO PUSH3 0x63B JUMPI DUP1 DUP3 ADD MLOAD DUP2 DUP5 ADD MSTORE PUSH1 0x20 DUP2 ADD SWAP1 POP PUSH3 0x61E JUMP JUMPDEST PUSH0 DUP5 DUP5 ADD MSTORE POP POP POP POP JUMP JUMPDEST PUSH0 PUSH3 0x65C PUSH3 0x656 DUP5 PUSH3 0x5E7 JUMP JUMPDEST PUSH3 0x5C9 JUMP JUMPDEST SWAP1 POP DUP3 DUP2 MSTORE PUSH1 0x20 DUP2 ADD DUP5 DUP5 DUP5 ADD GT ISZERO PUSH3 0x67B JUMPI PUSH3 0x67A PUSH3 0x552 JUMP JUMPDEST JUMPDEST PUSH3 0x688 DUP5 DUP3 DUP6 PUSH3 0x61C JUMP JUMPDEST POP SWAP4 SWAP3 POP POP POP JUMP JUMPDEST PUSH0 DUP3 PUSH1 0x1F DUP4 ADD SLT PUSH3 0x6A7 JUMPI PUSH3 0x6A6 PUSH3 0x54E JUMP JUMPDEST JUMPDEST DUP2 MLOAD PUSH3 0x6B9 DUP5 DUP3 PUSH1 0x20 DUP7 ADD PUSH3 0x646 JUMP JUMPDEST SWAP2 POP POP SWAP3 SWAP2 POP POP JUMP JUMPDEST PUSH0 DUP1 PUSH0 DUP1 PUSH1 0x80 DUP6 DUP8 SUB SLT ISZERO PUSH3 0x6DD JUMPI PUSH3 0x6DC PUSH3 0x4E5 JUMP JUMPDEST JUMPDEST PUSH0 PUSH3 0x6EC DUP8 DUP3 DUP9 ADD PUSH3 0x538 JUMP JUMPDEST SWAP5 POP POP PUSH1 0x20 DUP6 ADD MLOAD PUSH8 0xFFFFFFFFFFFFFFFF DUP2 GT ISZERO PUSH3 0x710 JUMPI PUSH3 0x70F PUSH3 0x4E9 JUMP JUMPDEST JUMPDEST PUSH3 0x71E DUP8 DUP3 DUP9 ADD PUSH3 0x690 JUMP JUMPDEST SWAP4 POP POP PUSH1 0x40 PUSH3 0x731 DUP8 DUP3 DUP9 ADD PUSH3 0x538 JUMP JUMPDEST SWAP3 POP POP PUSH1 0x60 PUSH3 0x744 DUP8 DUP3 DUP9 ADD PUSH3 0x538 JUMP JUMPDEST SWAP2 POP POP SWAP3 SWAP6 SWAP2 SWAP5 POP SWAP3 POP JUMP JUMPDEST PUSH3 0x75B DUP2 PUSH3 0x50C JUMP JUMPDEST DUP3 MSTORE POP POP JUMP JUMPDEST PUSH0 PUSH1 0x20 DUP3 ADD SWAP1 POP PUSH3 0x776 PUSH0 DUP4 ADD DUP5 PUSH3 0x750 JUMP JUMPDEST SWAP3 SWAP2 POP POP JUMP JUMPDEST PUSH0 DUP2 MLOAD SWAP1 POP SWAP2 SWAP1 POP JUMP JUMPDEST PUSH32 0x4E487B7100000000000000000000000000000000000000000000000000000000 PUSH0 MSTORE PUSH1 0x22 PUSH1 0x4 MSTORE PUSH1 0x24 PUSH0 REVERT JUMPDEST PUSH0 PUSH1 0x2 DUP3 DIV SWAP1 POP PUSH1 0x1 DUP3 AND DUP1 PUSH3 0x7CB JUMPI PUSH1 0x7F DUP3 AND SWAP2 POP JUMPDEST PUSH1 0x20 DUP3 LT DUP2 SUB PUSH3 0x7E1 JUMPI PUSH3 0x7E0 PUSH3 0x786 JUMP JUMPDEST JUMPDEST POP SWAP2 SWAP1 POP JUMP JUMPDEST PUSH0 DUP2 SWAP1 POP DUP2 PUSH0 MSTORE PUSH1 0x20 PUSH0 KECCAK256 SWAP1 POP SWAP2 SWAP1 POP JUMP JUMPDEST PUSH0 PUSH1 0x20 PUSH1 0x1F DUP4 ADD DIV SWAP1 POP SWAP2 SWAP1 POP JUMP JUMPDEST PUSH0 DUP3 DUP3 SHL SWAP1 POP SWAP3 SWAP2 POP POP JUMP JUMPDEST PUSH0 PUSH1 0x8 DUP4 MUL PUSH3 0x845 PUSH32 0xFFFFFFFFFFFFFFFFFFFFFFFFFFFFFFFFFFFFFFFFFFFFFFFFFFFFFFFFFFFFFFFF DUP3 PUSH3 0x808 JUMP JUMPDEST PUSH3 0x851 DUP7 DUP4 PUSH3 0x808 JUMP JUMPDEST SWAP6 POP DUP1 NOT DUP5 AND SWAP4 POP DUP1 DUP7 AND DUP5 OR SWAP3 POP POP POP SWAP4 SWAP3 POP POP POP JUMP JUMPDEST PUSH0 DUP2 SWAP1 POP SWAP2 SWAP1 POP JUMP JUMPDEST PUSH0 DUP2 SWAP1 POP SWAP2 SWAP1 POP JUMP JUMPDEST PUSH0 PUSH3 0x89B PUSH3 0x895 PUSH3 0x88F DUP5 PUSH3 0x869 JUMP JUMPDEST PUSH3 0x872 JUMP JUMPDEST PUSH3 0x869 JUMP JUMPDEST SWAP1 POP SWAP2 SWAP1 POP JUMP JUMPDEST PUSH0 DUP2 SWAP1 POP SWAP2 SWAP1 POP JUMP JUMPDEST PUSH3 0x8B6 DUP4 PUSH3 0x87B JUMP JUMPDEST PUSH3 0x8CE PUSH3 0x8C5 DUP3 PUSH3 0x8A2 JUMP JUMPDEST DUP5 DUP5 SLOAD PUSH3 0x814 JUMP JUMPDEST DUP3 SSTORE POP POP POP POP JUMP JUMPDEST PUSH0 SWAP1 JUMP JUMPDEST PUSH3 0x8E4 PUSH3 0x8D6 JUMP JUMPDEST PUSH3 0x8F1 DUP2 DUP5 DUP5 PUSH3 0x8AB JUMP JUMPDEST POP POP POP JUMP JUMPDEST JUMPDEST DUP2 DUP2 LT ISZERO PUSH3 0x918 JUMPI PUSH3 0x90C PUSH0 DUP3 PUSH3 0x8DA JUMP JUMPDEST PUSH1 0x1 DUP2 ADD SWAP1 POP PUSH3 0x8F7 JUMP JUMPDEST POP POP JUMP JUMPDEST PUSH1 0x1F DUP3 GT ISZERO PUSH3 0x967 JUMPI PUSH3 0x931 DUP2 PUSH3 0x7E7 JUMP JUMPDEST PUSH3 0x93C DUP5 PUSH3 0x7F9 JUMP JUMPDEST DUP2 ADD PUSH1 0x20 DUP6 LT ISZERO PUSH3 0x94C JUMPI DUP2 SWAP1 POP JUMPDEST PUSH3 0x964 PUSH3 0x95B DUP6 PUSH3 0x7F9 JUMP JUMPDEST DUP4 ADD DUP3 PUSH3 0x8F6 JUMP JUMPDEST POP POP JUMPDEST POP POP POP JUMP JUMPDEST PUSH0 DUP3 DUP3 SHR SWAP1 POP SWAP3 SWAP2 POP POP JUMP JUMPDEST PUSH0 PUSH3 0x989 PUSH0 NOT DUP5 PUSH1 0x8 MUL PUSH3 0x96C JUMP JUMPDEST NOT DUP1 DUP4 AND SWAP2 POP POP SWAP3 SWAP2 POP POP JUMP JUMPDEST PUSH0 PUSH3 0x9A3 DUP4 DUP4 PUSH3 0x978 JUMP JUMPDEST SWAP2 POP DUP3 PUSH1 0x2 MUL DUP3 OR SWAP1 POP SWAP3 SWAP2 POP POP JUMP JUMPDEST PUSH3 0x9BE DUP3 PUSH3 0x77C JUMP JUMPDEST PUSH8 0xFFFFFFFFFFFFFFFF DUP2 GT ISZERO PUSH3 0x9DA JUMPI PUSH3 0x9D9 PUSH3 0x566 JUMP JUMPDEST JUMPDEST PUSH3 0x9E6 DUP3 SLOAD PUSH3 0x7B3 JUMP JUMPDEST PUSH3 0x9F3 DUP3 DUP3 DUP6 PUSH3 0x91C JUMP JUMPDEST PUSH0 PUSH1 0x20 SWAP1 POP PUSH1 0x1F DUP4 GT PUSH1 0x1 DUP2 EQ PUSH3 0xA29 JUMPI PUSH0 DUP5 ISZERO PUSH3 0xA14 JUMPI DUP3 DUP8 ADD MLOAD SWAP1 POP JUMPDEST PUSH3 0xA20 DUP6 DUP3 PUSH3 0x996 JUMP JUMPDEST DUP7 SSTORE POP PUSH3 0xA8F JUMP JUMPDEST PUSH1 0x1F NOT DUP5 AND PUSH3 0xA39 DUP7 PUSH3 0x7E7 JUMP JUMPDEST PUSH0 JUMPDEST DUP3 DUP2 LT ISZERO PUSH3 0xA62 JUMPI DUP5 DUP10 ADD MLOAD DUP3 SSTORE PUSH1 0x1 DUP3 ADD SWAP2 POP PUSH1 0x20 DUP6 ADD SWAP5 POP PUSH1 0x20 DUP2 ADD SWAP1 POP PUSH3 0xA3B JUMP JUMPDEST DUP7 DUP4 LT ISZERO PUSH3 0xA82 JUMPI DUP5 DUP10 ADD MLOAD PUSH3 0xA7E PUSH1 0x1F DUP10 AND DUP3 PUSH3 0x978 JUMP JUMPDEST DUP4 SSTORE POP JUMPDEST PUSH1 0x1 PUSH1 0x2 DUP9 MUL ADD DUP9 SSTORE POP POP POP JUMPDEST POP POP POP POP POP POP JUMP JUMPDEST PUSH0 DUP2 SWAP1 POP SWAP2 SWAP1 POP JUMP JUMPDEST PUSH3 0xAAB DUP2 PUSH3 0xA97 JUMP JUMPDEST DUP3 MSTORE POP POP JUMP JUMPDEST PUSH3 0xABC DUP2 PUSH3 0x869 JUMP JUMPDEST DUP3 MSTORE POP POP JUMP JUMPDEST PUSH0 PUSH1 0xA0 DUP3 ADD SWAP1 POP PUSH3 0xAD7 PUSH0 DUP4 ADD DUP9 PUSH3 0xAA0 JUMP JUMPDEST PUSH3 0xAE6 PUSH1 0x20 DUP4 ADD DUP8 PUSH3 0xAA0 JUMP JUMPDEST PUSH3 0xAF5 PUSH1 0x40 DUP4 ADD DUP7 PUSH3 0xAA0 JUMP JUMPDEST PUSH3 0xB04 PUSH1 0x60 DUP4 ADD DUP6 PUSH3 0xAB1 JUMP JUMPDEST PUSH3 0xB13 PUSH1 0x80 DUP4 ADD DUP5 PUSH3 0x750 JUMP JUMPDEST SWAP7 SWAP6 POP POP POP POP POP POP JUMP JUMPDEST PUSH0 DUP3 DUP3 MSTORE PUSH1 0x20 DUP3 ADD SWAP1 POP SWAP3 SWAP2 POP POP JUMP JUMPDEST PUSH0 PUSH3 0xB39 DUP3 PUSH3 0x77C JUMP JUMPDEST PUSH3 0xB45 DUP2 DUP6 PUSH3 0xB1D JUMP JUMPDEST SWAP4 POP PUSH3 0xB57 DUP2 DUP6 PUSH1 0x20 DUP7 ADD PUSH3 0x61C JUMP JUMPDEST PUSH3 0xB62 DUP2 PUSH3 0x556 JUMP JUMPDEST DUP5 ADD SWAP2 POP POP SWAP3 SWAP2 POP POP JUMP JUMPDEST PUSH0 PUSH1 0x20 DUP3 ADD SWAP1 POP DUP2 DUP2 SUB PUSH0 DUP4 ADD MSTORE PUSH3 0xB87 DUP2 DUP5 PUSH3 0xB2D JUMP JUMPDEST SWAP1 POP SWAP3 SWAP2 POP POP JUMP JUMPDEST PUSH0 DUP2 MLOAD SWAP1 POP SWAP2 SWAP1 POP JUMP JUMPDEST PUSH0 DUP2 SWAP1 POP PUSH1 0x20 DUP3 ADD SWAP1 POP SWAP2 SWAP1 POP JUMP JUMPDEST PUSH0 PUSH3 0xBB5 DUP3 MLOAD PUSH3 0xA97 JUMP JUMPDEST DUP1 SWAP2 POP POP SWAP2 SWAP1 POP JUMP JUMPDEST PUSH0 PUSH3 0xBCA DUP3 PUSH3 0xB8F JUMP JUMPDEST DUP3 PUSH3 0xBD6 DUP5 PUSH3 0xB99 JUMP JUMPDEST SWAP1 POP PUSH3 0xBE3 DUP2 PUSH3 0xBA8 JUMP JUMPDEST SWAP3 POP PUSH1 0x20 DUP3 LT ISZERO PUSH3 0xC26 JUMPI PUSH3 0xC21 PUSH32 0xFFFFFFFFFFFFFFFFFFFFFFFFFFFFFFFFFFFFFFFFFFFFFFFFFFFFFFFFFFFFFFFF DUP4 PUSH1 0x20 SUB PUSH1 0x8 MUL PUSH3 0x808 JUMP JUMPDEST DUP4 AND SWAP3 POP JUMPDEST POP POP SWAP2 SWAP1 POP JUMP JUMPDEST PUSH1 0x80 MLOAD PUSH1 0xA0 MLOAD PUSH1 0xC0 MLOAD PUSH1 0xE0 MLOAD PUSH2 0x100 MLOAD PUSH2 0x120 MLOAD PUSH2 0x140 MLOAD PUSH2 0x32EE PUSH3 0xC7F PUSH0 CODECOPY PUSH0 PUSH2 0x1D7D ADD MSTORE PUSH0 PUSH2 0x1D42 ADD MSTORE PUSH0 PUSH2 0x1DFB ADD MSTORE PUSH0 PUSH2 0x1DDA ADD MSTORE PUSH0 PUSH2 0x18F3 ADD MSTORE PUSH0 PUSH2 0x1949 ADD MSTORE PUSH0 PUSH2 0x1972 ADD MSTORE PUSH2 0x32EE PUSH0 RETURN INVALID PUSH1 0x80 PUSH1 0x40 MSTORE CALLVALUE DUP1 ISZERO PUSH2 0xF JUMPI PUSH0 DUP1 REVERT JUMPDEST POP PUSH1 0x4 CALLDATASIZE LT PUSH2 0x1E3 JUMPI PUSH0 CALLDATALOAD PUSH1 0xE0 SHR DUP1 PUSH4 0x84B0196E GT PUSH2 0x10D JUMPI DUP1 PUSH4 0xC4C020F0 GT PUSH2 0xA0 JUMPI DUP1 PUSH4 0xF55F4206 GT PUSH2 0x6F JUMPI DUP1 PUSH4 0xF55F4206 EQ PUSH2 0x50D JUMPI DUP1 PUSH4 0xF851A440 EQ PUSH2 0x529 JUMPI DUP1 PUSH4 0xF9C3A1E8 EQ PUSH2 0x547 JUMPI DUP1 PUSH4 0xFD918716 EQ PUSH2 0x563 JUMPI PUSH2 0x1E3 JUMP JUMPDEST DUP1 PUSH4 0xC4C020F0 EQ PUSH2 0x49B JUMPI DUP1 PUSH4 0xE1FEFD42 EQ PUSH2 0x4B7 JUMPI DUP1 PUSH4 0xE63EA408 EQ PUSH2 0x4D5 JUMPI DUP1 PUSH4 0xF2FDE38B EQ PUSH2 0x4F1 JUMPI PUSH2 0x1E3 JUMP JUMPDEST DUP1 PUSH4 0x9683CDC4 GT PUSH2 0xDC JUMPI DUP1 PUSH4 0x9683CDC4 EQ PUSH2 0x429 JUMPI DUP1 PUSH4 0xAC1E5025 EQ PUSH2 0x445 JUMPI DUP1 PUSH4 0xC08E7286 EQ PUSH2 0x461 JUMPI DUP1 PUSH4 0xC4A9E858 EQ PUSH2 0x47D JUMPI PUSH2 0x1E3 JUMP JUMPDEST DUP1 PUSH4 0x84B0196E EQ PUSH2 0x3AD JUMPI DUP1 PUSH4 0x8BC7E8C4 EQ PUSH2 0x3D1 JUMPI DUP1 PUSH4 0x8DA5CB5B EQ PUSH2 0x3EF JUMPI DUP1 PUSH4 0x945C147B EQ PUSH2 0x40D JUMPI PUSH2 0x1E3 JUMP JUMPDEST DUP1 PUSH4 0x3644E515 GT PUSH2 0x185 JUMPI DUP1 PUSH4 0x704B6C02 GT PUSH2 0x154 JUMPI DUP1 PUSH4 0x704B6C02 EQ PUSH2 0x33B JUMPI DUP1 PUSH4 0x715018A6 EQ PUSH2 0x357 JUMPI DUP1 PUSH4 0x76EE947F EQ PUSH2 0x361 JUMPI DUP1 PUSH4 0x7D91FB46 EQ PUSH2 0x37D JUMPI PUSH2 0x1E3 JUMP JUMPDEST DUP1 PUSH4 0x3644E515 EQ PUSH2 0x2C7 JUMPI DUP1 PUSH4 0x6313C6D8 EQ PUSH2 0x2E5 JUMPI DUP1 PUSH4 0x67A52793 EQ PUSH2 0x301 JUMPI DUP1 PUSH4 0x6B4C0789 EQ PUSH2 0x31F JUMPI PUSH2 0x1E3 JUMP JUMPDEST DUP1 PUSH4 0x252DE51B GT PUSH2 0x1C1 JUMPI DUP1 PUSH4 0x252DE51B EQ PUSH2 0x253 JUMPI DUP1 PUSH4 0x258BA1EE EQ PUSH2 0x271 JUMPI DUP1 PUSH4 0x2C4E722E EQ PUSH2 0x28D JUMPI DUP1 PUSH4 0x34FCF437 EQ PUSH2 0x2AB JUMPI PUSH2 0x1E3 JUMP JUMPDEST DUP1 PUSH4 0x6E0E582 EQ PUSH2 0x1E7 JUMPI DUP1 PUSH4 0xACE9CA0 EQ PUSH2 0x205 JUMPI DUP1 PUSH4 0xD461E61 EQ PUSH2 0x223 JUMPI JUMPDEST PUSH0 DUP1 REVERT JUMPDEST PUSH2 0x1EF PUSH2 0x581 JUMP JUMPDEST PUSH1 0x40 MLOAD PUSH2 0x1FC SWAP2 SWAP1 PUSH2 0x22A0 JUMP JUMPDEST PUSH1 0x40 MLOAD DUP1 SWAP2 SUB SWAP1 RETURN JUMPDEST PUSH2 0x20D PUSH2 0x587 JUMP JUMPDEST PUSH1 0x40 MLOAD PUSH2 0x21A SWAP2 SWAP1 PUSH2 0x2343 JUMP JUMPDEST PUSH1 0x40 MLOAD DUP1 SWAP2 SUB SWAP1 RETURN JUMPDEST PUSH2 0x23D PUSH1 0x4 DUP1 CALLDATASIZE SUB DUP2 ADD SWAP1 PUSH2 0x238 SWAP2 SWAP1 PUSH2 0x239E JUMP JUMPDEST PUSH2 0x613 JUMP JUMPDEST PUSH1 0x40 MLOAD PUSH2 0x24A SWAP2 SWAP1 PUSH2 0x22A0 JUMP JUMPDEST PUSH1 0x40 MLOAD DUP1 SWAP2 SUB SWAP1 RETURN JUMPDEST PUSH2 0x25B PUSH2 0x6F1 JUMP JUMPDEST PUSH1 0x40 MLOAD PUSH2 0x268 SWAP2 SWAP1 PUSH2 0x23E3 JUMP JUMPDEST PUSH1 0x40 MLOAD DUP1 SWAP2 SUB SWAP1 RETURN JUMPDEST PUSH2 0x28B PUSH1 0x4 DUP1 CALLDATASIZE SUB DUP2 ADD SWAP1 PUSH2 0x286 SWAP2 SWAP1 PUSH2 0x2456 JUMP JUMPDEST PUSH2 0x704 JUMP JUMPDEST STOP JUMPDEST PUSH2 0x295 PUSH2 0x790 JUMP JUMPDEST PUSH1 0x40 MLOAD PUSH2 0x2A2 SWAP2 SWAP1 PUSH2 0x22A0 JUMP JUMPDEST PUSH1 0x40 MLOAD DUP1 SWAP2 SUB SWAP1 RETURN JUMPDEST PUSH2 0x2C5 PUSH1 0x4 DUP1 CALLDATASIZE SUB DUP2 ADD SWAP1 PUSH2 0x2C0 SWAP2 SWAP1 PUSH2 0x239E JUMP JUMPDEST PUSH2 0x796 JUMP JUMPDEST STOP JUMPDEST PUSH2 0x2CF PUSH2 0x7A8 JUMP JUMPDEST PUSH1 0x40 MLOAD PUSH2 0x2DC SWAP2 SWAP1 PUSH2 0x24AC JUMP JUMPDEST PUSH1 0x40 MLOAD DUP1 SWAP2 SUB SWAP1 RETURN JUMPDEST PUSH2 0x2FF PUSH1 0x4 DUP1 CALLDATASIZE SUB DUP2 ADD SWAP1 PUSH2 0x2FA SWAP2 SWAP1 PUSH2 0x2525 JUMP JUMPDEST PUSH2 0x7B6 JUMP JUMPDEST STOP JUMPDEST PUSH2 0x309 PUSH2 0x93C JUMP JUMPDEST PUSH1 0x40 MLOAD PUSH2 0x316 SWAP2 SWAP1 PUSH2 0x22A0 JUMP JUMPDEST PUSH1 0x40 MLOAD DUP1 SWAP2 SUB SWAP1 RETURN JUMPDEST PUSH2 0x339 PUSH1 0x4 DUP1 CALLDATASIZE SUB DUP2 ADD SWAP1 PUSH2 0x334 SWAP2 SWAP1 PUSH2 0x25D8 JUMP JUMPDEST PUSH2 0x942 JUMP JUMPDEST STOP JUMPDEST PUSH2 0x355 PUSH1 0x4 DUP1 CALLDATASIZE SUB DUP2 ADD SWAP1 PUSH2 0x350 SWAP2 SWAP1 PUSH2 0x2603 JUMP JUMPDEST PUSH2 0x967 JUMP JUMPDEST STOP JUMPDEST PUSH2 0x35F PUSH2 0x9B2 JUMP JUMPDEST STOP JUMPDEST PUSH2 0x37B PUSH1 0x4 DUP1 CALLDATASIZE SUB DUP2 ADD SWAP1 PUSH2 0x376 SWAP2 SWAP1 PUSH2 0x239E JUMP JUMPDEST PUSH2 0x9C5 JUMP JUMPDEST STOP JUMPDEST PUSH2 0x397 PUSH1 0x4 DUP1 CALLDATASIZE SUB DUP2 ADD SWAP1 PUSH2 0x392 SWAP2 SWAP1 PUSH2 0x2603 JUMP JUMPDEST PUSH2 0x9D7 JUMP JUMPDEST PUSH1 0x40 MLOAD PUSH2 0x3A4 SWAP2 SWAP1 PUSH2 0x23E3 JUMP JUMPDEST PUSH1 0x40 MLOAD DUP1 SWAP2 SUB SWAP1 RETURN JUMPDEST PUSH2 0x3B5 PUSH2 0x9F4 JUMP JUMPDEST PUSH1 0x40 MLOAD PUSH2 0x3C8 SWAP8 SWAP7 SWAP6 SWAP5 SWAP4 SWAP3 SWAP2 SWAP1 PUSH2 0x272E JUMP JUMPDEST PUSH1 0x40 MLOAD DUP1 SWAP2 SUB SWAP1 RETURN JUMPDEST PUSH2 0x3D9 PUSH2 0xA99 JUMP JUMPDEST PUSH1 0x40 MLOAD PUSH2 0x3E6 SWAP2 SWAP1 PUSH2 0x22A0 JUMP JUMPDEST PUSH1 0x40 MLOAD DUP1 SWAP2 SUB SWAP1 RETURN JUMPDEST PUSH2 0x3F7 PUSH2 0xA9F JUMP JUMPDEST PUSH1 0x40 MLOAD PUSH2 0x404 SWAP2 SWAP1 PUSH2 0x27B0 JUMP JUMPDEST PUSH1 0x40 MLOAD DUP1 SWAP2 SUB SWAP1 RETURN JUMPDEST PUSH2 0x427 PUSH1 0x4 DUP1 CALLDATASIZE SUB DUP2 ADD SWAP1 PUSH2 0x422 SWAP2 SWAP1 PUSH2 0x2909 JUMP JUMPDEST PUSH2 0xAC6 JUMP JUMPDEST STOP JUMPDEST PUSH2 0x443 PUSH1 0x4 DUP1 CALLDATASIZE SUB DUP2 ADD SWAP1 PUSH2 0x43E SWAP2 SWAP1 PUSH2 0x2603 JUMP JUMPDEST PUSH2 0xB59 JUMP JUMPDEST STOP JUMPDEST PUSH2 0x45F PUSH1 0x4 DUP1 CALLDATASIZE SUB DUP2 ADD SWAP1 PUSH2 0x45A SWAP2 SWAP1 PUSH2 0x239E JUMP JUMPDEST PUSH2 0xD5A JUMP JUMPDEST STOP JUMPDEST PUSH2 0x47B PUSH1 0x4 DUP1 CALLDATASIZE SUB DUP2 ADD SWAP1 PUSH2 0x476 SWAP2 SWAP1 PUSH2 0x239E JUMP JUMPDEST PUSH2 0xD6C JUMP JUMPDEST STOP JUMPDEST PUSH2 0x485 PUSH2 0xD91 JUMP JUMPDEST PUSH1 0x40 MLOAD PUSH2 0x492 SWAP2 SWAP1 PUSH2 0x22A0 JUMP JUMPDEST PUSH1 0x40 MLOAD DUP1 SWAP2 SUB SWAP1 RETURN JUMPDEST PUSH2 0x4B5 PUSH1 0x4 DUP1 CALLDATASIZE SUB DUP2 ADD SWAP1 PUSH2 0x4B0 SWAP2 SWAP1 PUSH2 0x2963 JUMP JUMPDEST PUSH2 0xD97 JUMP JUMPDEST STOP JUMPDEST PUSH2 0x4BF PUSH2 0xF46 JUMP JUMPDEST PUSH1 0x40 MLOAD PUSH2 0x4CC SWAP2 SWAP1 PUSH2 0x22A0 JUMP JUMPDEST PUSH1 0x40 MLOAD DUP1 SWAP2 SUB SWAP1 RETURN JUMPDEST PUSH2 0x4EF PUSH1 0x4 DUP1 CALLDATASIZE SUB DUP2 ADD SWAP1 PUSH2 0x4EA SWAP2 SWAP1 PUSH2 0x29A1 JUMP JUMPDEST PUSH2 0xF4C JUMP JUMPDEST STOP JUMPDEST PUSH2 0x50B PUSH1 0x4 DUP1 CALLDATASIZE SUB DUP2 ADD SWAP1 PUSH2 0x506 SWAP2 SWAP1 PUSH2 0x2603 JUMP JUMPDEST PUSH2 0xFD5 JUMP JUMPDEST STOP JUMPDEST PUSH2 0x527 PUSH1 0x4 DUP1 CALLDATASIZE SUB DUP2 ADD SWAP1 PUSH2 0x522 SWAP2 SWAP1 PUSH2 0x2963 JUMP JUMPDEST PUSH2 0x1059 JUMP JUMPDEST STOP JUMPDEST PUSH2 0x531 PUSH2 0x1460 JUMP JUMPDEST PUSH1 0x40 MLOAD PUSH2 0x53E SWAP2 SWAP1 PUSH2 0x27B0 JUMP JUMPDEST PUSH1 0x40 MLOAD DUP1 SWAP2 SUB SWAP1 RETURN JUMPDEST PUSH2 0x561 PUSH1 0x4 DUP1 CALLDATASIZE SUB DUP2 ADD SWAP1 PUSH2 0x55C SWAP2 SWAP1 PUSH2 0x2525 JUMP JUMPDEST PUSH2 0x1485 JUMP JUMPDEST STOP JUMPDEST PUSH2 0x56B PUSH2 0x1863 JUMP JUMPDEST PUSH1 0x40 MLOAD PUSH2 0x578 SWAP2 SWAP1 PUSH2 0x22A0 JUMP JUMPDEST PUSH1 0x40 MLOAD DUP1 SWAP2 SUB SWAP1 RETURN JUMPDEST PUSH1 0x9 SLOAD DUP2 JUMP JUMPDEST PUSH1 0xC DUP1 SLOAD PUSH2 0x594 SWAP1 PUSH2 0x2A1E JUMP JUMPDEST DUP1 PUSH1 0x1F ADD PUSH1 0x20 DUP1 SWAP2 DIV MUL PUSH1 0x20 ADD PUSH1 0x40 MLOAD SWAP1 DUP2 ADD PUSH1 0x40 MSTORE DUP1 SWAP3 SWAP2 SWAP1 DUP2 DUP2 MSTORE PUSH1 0x20 ADD DUP3 DUP1 SLOAD PUSH2 0x5C0 SWAP1 PUSH2 0x2A1E JUMP JUMPDEST DUP1 ISZERO PUSH2 0x60B JUMPI DUP1 PUSH1 0x1F LT PUSH2 0x5E2 JUMPI PUSH2 0x100 DUP1 DUP4 SLOAD DIV MUL DUP4 MSTORE SWAP2 PUSH1 0x20 ADD SWAP2 PUSH2 0x60B JUMP JUMPDEST DUP3 ADD SWAP2 SWAP1 PUSH0 MSTORE PUSH1 0x20 PUSH0 KECCAK256 SWAP1 JUMPDEST DUP2 SLOAD DUP2 MSTORE SWAP1 PUSH1 0x1 ADD SWAP1 PUSH1 0x20 ADD DUP1 DUP4 GT PUSH2 0x5EE JUMPI DUP3 SWAP1 SUB PUSH1 0x1F AND DUP3 ADD SWAP2 JUMPDEST POP POP POP POP POP DUP2 JUMP JUMPDEST PUSH0 DUP1 PUSH8 0xDE0B6B3A7640000 PUSH1 0x6 SLOAD PUSH2 0x62B SWAP2 SWAP1 PUSH2 0x2A7B JUMP JUMPDEST PUSH1 0x3 PUSH0 SWAP1 SLOAD SWAP1 PUSH2 0x100 EXP SWAP1 DIV PUSH20 0xFFFFFFFFFFFFFFFFFFFFFFFFFFFFFFFFFFFFFFFF AND PUSH20 0xFFFFFFFFFFFFFFFFFFFFFFFFFFFFFFFFFFFFFFFF AND PUSH4 0x313CE567 PUSH1 0x40 MLOAD DUP2 PUSH4 0xFFFFFFFF AND PUSH1 0xE0 SHL DUP2 MSTORE PUSH1 0x4 ADD PUSH1 0x20 PUSH1 0x40 MLOAD DUP1 DUP4 SUB DUP2 DUP7 GAS STATICCALL ISZERO DUP1 ISZERO PUSH2 0x695 JUMPI RETURNDATASIZE PUSH0 DUP1 RETURNDATACOPY RETURNDATASIZE PUSH0 REVERT JUMPDEST POP POP POP POP PUSH1 0x40 MLOAD RETURNDATASIZE PUSH1 0x1F NOT PUSH1 0x1F DUP3 ADD AND DUP3 ADD DUP1 PUSH1 0x40 MSTORE POP DUP2 ADD SWAP1 PUSH2 0x6B9 SWAP2 SWAP1 PUSH2 0x2AD0 JUMP JUMPDEST PUSH1 0xA PUSH2 0x6C5 SWAP2 SWAP1 PUSH2 0x2C2A JUMP JUMPDEST PUSH1 0x1 DUP6 PUSH2 0x6D2 SWAP2 SWAP1 PUSH2 0x2A7B JUMP JUMPDEST PUSH2 0x6DC SWAP2 SWAP1 PUSH2 0x2A7B JUMP JUMPDEST PUSH2 0x6E6 SWAP2 SWAP1 PUSH2 0x2CA1 JUMP JUMPDEST SWAP1 POP DUP1 SWAP2 POP POP SWAP2 SWAP1 POP JUMP JUMPDEST PUSH1 0xD PUSH1 0x14 SWAP1 SLOAD SWAP1 PUSH2 0x100 EXP SWAP1 DIV PUSH1 0xFF AND DUP2 JUMP JUMPDEST PUSH2 0x70C PUSH2 0x1869 JUMP JUMPDEST DUP2 PUSH1 0x3 PUSH0 PUSH2 0x100 EXP DUP2 SLOAD DUP2 PUSH20 0xFFFFFFFFFFFFFFFFFFFFFFFFFFFFFFFFFFFFFFFF MUL NOT AND SWAP1 DUP4 PUSH20 0xFFFFFFFFFFFFFFFFFFFFFFFFFFFFFFFFFFFFFFFF AND MUL OR SWAP1 SSTORE POP DUP1 PUSH1 0x4 PUSH0 PUSH2 0x100 EXP DUP2 SLOAD DUP2 PUSH20 0xFFFFFFFFFFFFFFFFFFFFFFFFFFFFFFFFFFFFFFFF MUL NOT AND SWAP1 DUP4 PUSH20 0xFFFFFFFFFFFFFFFFFFFFFFFFFFFFFFFFFFFFFFFF AND MUL OR SWAP1 SSTORE POP POP POP JUMP JUMPDEST PUSH1 0x6 SLOAD DUP2 JUMP JUMPDEST PUSH2 0x79E PUSH2 0x1869 JUMP JUMPDEST DUP1 PUSH1 0x6 DUP2 SWAP1 SSTORE POP POP JUMP JUMPDEST PUSH0 PUSH2 0x7B1 PUSH2 0x18F0 JUMP JUMPDEST SWAP1 POP SWAP1 JUMP JUMPDEST PUSH2 0x7C4 DUP7 DUP7 DUP7 DUP7 DUP7 DUP7 PUSH2 0x19A6 JUMP JUMPDEST PUSH0 ISZERO ISZERO PUSH1 0xD PUSH1 0x14 SWAP1 SLOAD SWAP1 PUSH2 0x100 EXP SWAP1 DIV PUSH1 0xFF AND ISZERO ISZERO EQ PUSH2 0x819 JUMPI PUSH1 0x40 MLOAD PUSH32 0x8C379A000000000000000000000000000000000000000000000000000000000 DUP2 MSTORE PUSH1 0x4 ADD PUSH2 0x810 SWAP1 PUSH2 0x2D1B JUMP JUMPDEST PUSH1 0x40 MLOAD DUP1 SWAP2 SUB SWAP1 REVERT JUMPDEST PUSH1 0x8 SLOAD DUP6 LT ISZERO PUSH2 0x85E JUMPI PUSH1 0x40 MLOAD PUSH32 0x8C379A000000000000000000000000000000000000000000000000000000000 DUP2 MSTORE PUSH1 0x4 ADD PUSH2 0x855 SWAP1 PUSH2 0x2DA9 JUMP JUMPDEST PUSH1 0x40 MLOAD DUP1 SWAP2 SUB SWAP1 REVERT JUMPDEST PUSH1 0x4 PUSH0 SWAP1 SLOAD SWAP1 PUSH2 0x100 EXP SWAP1 DIV PUSH20 0xFFFFFFFFFFFFFFFFFFFFFFFFFFFFFFFFFFFFFFFF AND PUSH20 0xFFFFFFFFFFFFFFFFFFFFFFFFFFFFFFFFFFFFFFFF AND PUSH4 0xA9059CBB DUP8 DUP8 PUSH1 0x40 MLOAD DUP4 PUSH4 0xFFFFFFFF AND PUSH1 0xE0 SHL DUP2 MSTORE PUSH1 0x4 ADD PUSH2 0x8BA SWAP3 SWAP2 SWAP1 PUSH2 0x2DC7 JUMP JUMPDEST PUSH1 0x20 PUSH1 0x40 MLOAD DUP1 DUP4 SUB DUP2 PUSH0 DUP8 GAS CALL ISZERO DUP1 ISZERO PUSH2 0x8D6 JUMPI RETURNDATASIZE PUSH0 DUP1 RETURNDATACOPY RETURNDATASIZE PUSH0 REVERT JUMPDEST POP POP POP POP PUSH1 0x40 MLOAD RETURNDATASIZE PUSH1 0x1F NOT PUSH1 0x1F DUP3 ADD AND DUP3 ADD DUP1 PUSH1 0x40 MSTORE POP DUP2 ADD SWAP1 PUSH2 0x8FA SWAP2 SWAP1 PUSH2 0x2E02 JUMP JUMPDEST POP PUSH32 0xBA953728785DE35BE3827EE7A7A7867A8472947562602939440E6C0BDBF4725E DUP7 DUP7 PUSH1 0x40 MLOAD PUSH2 0x92C SWAP3 SWAP2 SWAP1 PUSH2 0x2DC7 JUMP JUMPDEST PUSH1 0x40 MLOAD DUP1 SWAP2 SUB SWAP1 LOG1 POP POP POP POP POP POP JUMP JUMPDEST PUSH1 0x5 SLOAD DUP2 JUMP JUMPDEST PUSH2 0x94A PUSH2 0x1869 JUMP JUMPDEST DUP1 PUSH1 0xD PUSH1 0x14 PUSH2 0x100 EXP DUP2 SLOAD DUP2 PUSH1 0xFF MUL NOT AND SWAP1 DUP4 ISZERO ISZERO MUL OR SWAP1 SSTORE POP POP JUMP JUMPDEST PUSH2 0x96F PUSH2 0x1869 JUMP JUMPDEST DUP1 PUSH1 0xD PUSH0 PUSH2 0x100 EXP DUP2 SLOAD DUP2 PUSH20 0xFFFFFFFFFFFFFFFFFFFFFFFFFFFFFFFFFFFFFFFF MUL NOT AND SWAP1 DUP4 PUSH20 0xFFFFFFFFFFFFFFFFFFFFFFFFFFFFFFFFFFFFFFFF AND MUL OR SWAP1 SSTORE POP POP JUMP JUMPDEST PUSH2 0x9BA PUSH2 0x1869 JUMP JUMPDEST PUSH2 0x9C3 PUSH0 PUSH2 0x1C78 JUMP JUMPDEST JUMP JUMPDEST PUSH2 0x9CD PUSH2 0x1869 JUMP JUMPDEST DUP1 PUSH1 0x5 DUP2 SWAP1 SSTORE POP POP JUMP JUMPDEST PUSH1 0xE PUSH1 0x20 MSTORE DUP1 PUSH0 MSTORE PUSH1 0x40 PUSH0 KECCAK256 PUSH0 SWAP2 POP SLOAD SWAP1 PUSH2 0x100 EXP SWAP1 DIV PUSH1 0xFF AND DUP2 JUMP JUMPDEST PUSH0 PUSH1 0x60 DUP1 PUSH0 DUP1 PUSH0 PUSH1 0x60 PUSH2 0xA05 PUSH2 0x1D39 JUMP JUMPDEST PUSH2 0xA0D PUSH2 0x1D74 JUMP JUMPDEST CHAINID ADDRESS PUSH0 DUP1 SHL PUSH0 PUSH8 0xFFFFFFFFFFFFFFFF DUP2 GT ISZERO PUSH2 0xA2C JUMPI PUSH2 0xA2B PUSH2 0x27CD JUMP JUMPDEST JUMPDEST PUSH1 0x40 MLOAD SWAP1 DUP1 DUP3 MSTORE DUP1 PUSH1 0x20 MUL PUSH1 0x20 ADD DUP3 ADD PUSH1 0x40 MSTORE DUP1 ISZERO PUSH2 0xA5A JUMPI DUP2 PUSH1 0x20 ADD PUSH1 0x20 DUP3 MUL DUP1 CALLDATASIZE DUP4 CALLDATACOPY DUP1 DUP3 ADD SWAP2 POP POP SWAP1 POP JUMPDEST POP PUSH32 0xF00000000000000000000000000000000000000000000000000000000000000 SWAP6 SWAP5 SWAP4 SWAP3 SWAP2 SWAP1 SWAP7 POP SWAP7 POP SWAP7 POP SWAP7 POP SWAP7 POP SWAP7 POP SWAP7 POP SWAP1 SWAP2 SWAP3 SWAP4 SWAP5 SWAP6 SWAP7 JUMP JUMPDEST PUSH1 0x7 SLOAD DUP2 JUMP JUMPDEST PUSH0 DUP1 PUSH0 SWAP1 SLOAD SWAP1 PUSH2 0x100 EXP SWAP1 DIV PUSH20 0xFFFFFFFFFFFFFFFFFFFFFFFFFFFFFFFFFFFFFFFF AND SWAP1 POP SWAP1 JUMP JUMPDEST PUSH2 0xACE PUSH2 0x1869 JUMP JUMPDEST PUSH0 JUMPDEST DUP3 MLOAD DUP2 LT ISZERO PUSH2 0xB54 JUMPI DUP2 PUSH1 0xE PUSH0 DUP6 DUP5 DUP2 MLOAD DUP2 LT PUSH2 0xAF0 JUMPI PUSH2 0xAEF PUSH2 0x2E2D JUMP JUMPDEST JUMPDEST PUSH1 0x20 MUL PUSH1 0x20 ADD ADD MLOAD PUSH20 0xFFFFFFFFFFFFFFFFFFFFFFFFFFFFFFFFFFFFFFFF AND PUSH20 0xFFFFFFFFFFFFFFFFFFFFFFFFFFFFFFFFFFFFFFFF AND DUP2 MSTORE PUSH1 0x20 ADD SWAP1 DUP2 MSTORE PUSH1 0x20 ADD PUSH0 KECCAK256 PUSH0 PUSH2 0x100 EXP DUP2 SLOAD DUP2 PUSH1 0xFF MUL NOT AND SWAP1 DUP4 ISZERO ISZERO MUL OR SWAP1 SSTORE POP DUP1 DUP1 PUSH1 0x1 ADD SWAP2 POP POP PUSH2 0xAD0 JUMP JUMPDEST POP POP POP JUMP JUMPDEST PUSH2 0xB61 PUSH2 0x1869 JUMP JUMPDEST PUSH0 PUSH1 0x3 PUSH0 SWAP1 SLOAD SWAP1 PUSH2 0x100 EXP SWAP1 DIV PUSH20 0xFFFFFFFFFFFFFFFFFFFFFFFFFFFFFFFFFFFFFFFF AND PUSH20 0xFFFFFFFFFFFFFFFFFFFFFFFFFFFFFFFFFFFFFFFF AND PUSH4 0x70A08231 ADDRESS PUSH1 0x40 MLOAD DUP3 PUSH4 0xFFFFFFFF AND PUSH1 0xE0 SHL DUP2 MSTORE PUSH1 0x4 ADD PUSH2 0xBBC SWAP2 SWAP1 PUSH2 0x27B0 JUMP JUMPDEST PUSH1 0x20 PUSH1 0x40 MLOAD DUP1 DUP4 SUB DUP2 DUP7 GAS STATICCALL ISZERO DUP1 ISZERO PUSH2 0xBD7 JUMPI RETURNDATASIZE PUSH0 DUP1 RETURNDATACOPY RETURNDATASIZE PUSH0 REVERT JUMPDEST POP POP POP POP PUSH1 0x40 MLOAD RETURNDATASIZE PUSH1 0x1F NOT PUSH1 0x1F DUP3 ADD AND DUP3 ADD DUP1 PUSH1 0x40 MSTORE POP DUP2 ADD SWAP1 PUSH2 0xBFB SWAP2 SWAP1 PUSH2 0x2E6E JUMP JUMPDEST SWAP1 POP PUSH0 PUSH1 0x9 SLOAD PUSH1 0xB SLOAD PUSH1 0xA SLOAD DUP5 PUSH2 0xC12 SWAP2 SWAP1 PUSH2 0x2E99 JUMP JUMPDEST PUSH2 0xC1C SWAP2 SWAP1 PUSH2 0x2E99 JUMP JUMPDEST PUSH2 0xC26 SWAP2 SWAP1 PUSH2 0x2ECC JUMP JUMPDEST SWAP1 POP DUP1 PUSH1 0x9 PUSH0 DUP3 DUP3 SLOAD PUSH2 0xC39 SWAP2 SWAP1 PUSH2 0x2E99 JUMP JUMPDEST SWAP3 POP POP DUP2 SWAP1 SSTORE POP PUSH0 PUSH1 0x64 PUSH1 0x5 SLOAD DUP4 PUSH2 0xC51 SWAP2 SWAP1 PUSH2 0x2A7B JUMP JUMPDEST PUSH2 0xC5B SWAP2 SWAP1 PUSH2 0x2CA1 JUMP JUMPDEST SWAP1 POP PUSH0 DUP2 GT PUSH2 0xC9F JUMPI PUSH1 0x40 MLOAD PUSH32 0x8C379A000000000000000000000000000000000000000000000000000000000 DUP2 MSTORE PUSH1 0x4 ADD PUSH2 0xC96 SWAP1 PUSH2 0x2F49 JUMP JUMPDEST PUSH1 0x40 MLOAD DUP1 SWAP2 SUB SWAP1 REVERT JUMPDEST DUP1 PUSH1 0xB PUSH0 DUP3 DUP3 SLOAD PUSH2 0xCB0 SWAP2 SWAP1 PUSH2 0x2E99 JUMP JUMPDEST SWAP3 POP POP DUP2 SWAP1 SSTORE POP PUSH1 0x3 PUSH0 SWAP1 SLOAD SWAP1 PUSH2 0x100 EXP SWAP1 DIV PUSH20 0xFFFFFFFFFFFFFFFFFFFFFFFFFFFFFFFFFFFFFFFF AND PUSH20 0xFFFFFFFFFFFFFFFFFFFFFFFFFFFFFFFFFFFFFFFF AND PUSH4 0xA9059CBB DUP6 DUP4 PUSH1 0x40 MLOAD DUP4 PUSH4 0xFFFFFFFF AND PUSH1 0xE0 SHL DUP2 MSTORE PUSH1 0x4 ADD PUSH2 0xD13 SWAP3 SWAP2 SWAP1 PUSH2 0x2DC7 JUMP JUMPDEST PUSH1 0x20 PUSH1 0x40 MLOAD DUP1 DUP4 SUB DUP2 PUSH0 DUP8 GAS CALL ISZERO DUP1 ISZERO PUSH2 0xD2F JUMPI RETURNDATASIZE PUSH0 DUP1 RETURNDATACOPY RETURNDATASIZE PUSH0 REVERT JUMPDEST POP POP POP POP PUSH1 0x40 MLOAD RETURNDATASIZE PUSH1 0x1F NOT PUSH1 0x1F DUP3 ADD AND DUP3 ADD DUP1 PUSH1 0x40 MSTORE POP DUP2 ADD SWAP1 PUSH2 0xD53 SWAP2 SWAP1 PUSH2 0x2E02 JUMP JUMPDEST POP POP POP POP POP JUMP JUMPDEST PUSH2 0xD62 PUSH2 0x1869 JUMP JUMPDEST DUP1 PUSH1 0x7 DUP2 SWAP1 SSTORE POP POP JUMP JUMPDEST PUSH2 0xD74 PUSH2 0x1869 JUMP JUMPDEST PUSH8 0xDE0B6B3A7640000 DUP2 PUSH2 0xD88 SWAP2 SWAP1 PUSH2 0x2A7B JUMP JUMPDEST PUSH1 0x8 DUP2 SWAP1 SSTORE POP POP JUMP JUMPDEST PUSH1 0xB SLOAD DUP2 JUMP JUMPDEST PUSH1 0x1 ISZERO ISZERO PUSH1 0xE PUSH0 CALLER PUSH20 0xFFFFFFFFFFFFFFFFFFFFFFFFFFFFFFFFFFFFFFFF AND PUSH20 0xFFFFFFFFFFFFFFFFFFFFFFFFFFFFFFFFFFFFFFFF AND DUP2 MSTORE PUSH1 0x20 ADD SWAP1 DUP2 MSTORE PUSH1 0x20 ADD PUSH0 KECCAK256 PUSH0 SWAP1 SLOAD SWAP1 PUSH2 0x100 EXP SWAP1 DIV PUSH1 0xFF AND ISZERO ISZERO EQ PUSH2 0xE27 JUMPI PUSH1 0x40 MLOAD PUSH32 0x8C379A000000000000000000000000000000000000000000000000000000000 DUP2 MSTORE PUSH1 0x4 ADD PUSH2 0xE1E SWAP1 PUSH2 0x2FB1 JUMP JUMPDEST PUSH1 0x40 MLOAD DUP1 SWAP2 SUB SWAP1 REVERT JUMPDEST PUSH1 0x8 SLOAD DUP2 LT ISZERO PUSH2 0xE6C JUMPI PUSH1 0x40 MLOAD PUSH32 0x8C379A000000000000000000000000000000000000000000000000000000000 DUP2 MSTORE PUSH1 0x4 ADD PUSH2 0xE63 SWAP1 PUSH2 0x303F JUMP JUMPDEST PUSH1 0x40 MLOAD DUP1 SWAP2 SUB SWAP1 REVERT JUMPDEST PUSH1 0x4 PUSH0 SWAP1 SLOAD SWAP1 PUSH2 0x100 EXP SWAP1 DIV PUSH20 0xFFFFFFFFFFFFFFFFFFFFFFFFFFFFFFFFFFFFFFFF AND PUSH20 0xFFFFFFFFFFFFFFFFFFFFFFFFFFFFFFFFFFFFFFFF AND PUSH4 0xA9059CBB DUP4 DUP4 PUSH1 0x40 MLOAD DUP4 PUSH4 0xFFFFFFFF AND PUSH1 0xE0 SHL DUP2 MSTORE PUSH1 0x4 ADD PUSH2 0xEC8 SWAP3 SWAP2 SWAP1 PUSH2 0x2DC7 JUMP JUMPDEST PUSH1 0x20 PUSH1 0x40 MLOAD DUP1 DUP4 SUB DUP2 PUSH0 DUP8 GAS CALL ISZERO DUP1 ISZERO PUSH2 0xEE4 JUMPI RETURNDATASIZE PUSH0 DUP1 RETURNDATACOPY RETURNDATASIZE PUSH0 REVERT JUMPDEST POP POP POP POP PUSH1 0x40 MLOAD RETURNDATASIZE PUSH1 0x1F NOT PUSH1 0x1F DUP3 ADD AND DUP3 ADD DUP1 PUSH1 0x40 MSTORE POP DUP2 ADD SWAP1 PUSH2 0xF08 SWAP2 SWAP1 PUSH2 0x2E02 JUMP JUMPDEST POP PUSH32 0xBA953728785DE35BE3827EE7A7A7867A8472947562602939440E6C0BDBF4725E DUP3 DUP3 PUSH1 0x40 MLOAD PUSH2 0xF3A SWAP3 SWAP2 SWAP1 PUSH2 0x2DC7 JUMP JUMPDEST PUSH1 0x40 MLOAD DUP1 SWAP2 SUB SWAP1 LOG1 POP POP JUMP JUMPDEST PUSH1 0x8 SLOAD DUP2 JUMP JUMPDEST PUSH2 0xF54 PUSH2 0x1869 JUMP JUMPDEST DUP3 PUSH20 0xFFFFFFFFFFFFFFFFFFFFFFFFFFFFFFFFFFFFFFFF AND PUSH4 0xA9059CBB DUP4 DUP4 PUSH1 0x40 MLOAD DUP4 PUSH4 0xFFFFFFFF AND PUSH1 0xE0 SHL DUP2 MSTORE PUSH1 0x4 ADD PUSH2 0xF8F SWAP3 SWAP2 SWAP1 PUSH2 0x2DC7 JUMP JUMPDEST PUSH1 0x20 PUSH1 0x40 MLOAD DUP1 DUP4 SUB DUP2 PUSH0 DUP8 GAS CALL ISZERO DUP1 ISZERO PUSH2 0xFAB JUMPI RETURNDATASIZE PUSH0 DUP1 RETURNDATACOPY RETURNDATASIZE PUSH0 REVERT JUMPDEST POP POP POP POP PUSH1 0x40 MLOAD RETURNDATASIZE PUSH1 0x1F NOT PUSH1 0x1F DUP3 ADD AND DUP3 ADD DUP1 PUSH1 0x40 MSTORE POP DUP2 ADD SWAP1 PUSH2 0xFCF SWAP2 SWAP1 PUSH2 0x2E02 JUMP JUMPDEST POP POP POP POP JUMP JUMPDEST PUSH2 0xFDD PUSH2 0x1869 JUMP JUMPDEST PUSH0 PUSH20 0xFFFFFFFFFFFFFFFFFFFFFFFFFFFFFFFFFFFFFFFF AND DUP2 PUSH20 0xFFFFFFFFFFFFFFFFFFFFFFFFFFFFFFFFFFFFFFFF AND SUB PUSH2 0x104D JUMPI PUSH0 PUSH1 0x40 MLOAD PUSH32 0x1E4FBDF700000000000000000000000000000000000000000000000000000000 DUP2 MSTORE PUSH1 0x4 ADD PUSH2 0x1044 SWAP2 SWAP1 PUSH2 0x27B0 JUMP JUMPDEST PUSH1 0x40 MLOAD DUP1 SWAP2 SUB SWAP1 REVERT JUMPDEST PUSH2 0x1056 DUP2 PUSH2 0x1C78 JUMP JUMPDEST POP JUMP JUMPDEST PUSH1 0x1 ISZERO ISZERO PUSH1 0xE PUSH0 CALLER PUSH20 0xFFFFFFFFFFFFFFFFFFFFFFFFFFFFFFFFFFFFFFFF AND PUSH20 0xFFFFFFFFFFFFFFFFFFFFFFFFFFFFFFFFFFFFFFFF AND DUP2 MSTORE PUSH1 0x20 ADD SWAP1 DUP2 MSTORE PUSH1 0x20 ADD PUSH0 KECCAK256 PUSH0 SWAP1 SLOAD SWAP1 PUSH2 0x100 EXP SWAP1 DIV PUSH1 0xFF AND ISZERO ISZERO EQ PUSH2 0x10E9 JUMPI PUSH1 0x40 MLOAD PUSH32 0x8C379A000000000000000000000000000000000000000000000000000000000 DUP2 MSTORE PUSH1 0x4 ADD PUSH2 0x10E0 SWAP1 PUSH2 0x2FB1 JUMP JUMPDEST PUSH1 0x40 MLOAD DUP1 SWAP2 SUB SWAP1 REVERT JUMPDEST DUP1 PUSH1 0x4 PUSH0 SWAP1 SLOAD SWAP1 PUSH2 0x100 EXP SWAP1 DIV PUSH20 0xFFFFFFFFFFFFFFFFFFFFFFFFFFFFFFFFFFFFFFFF AND PUSH20 0xFFFFFFFFFFFFFFFFFFFFFFFFFFFFFFFFFFFFFFFF AND PUSH4 0x70A08231 DUP5 PUSH1 0x40 MLOAD DUP3 PUSH4 0xFFFFFFFF AND PUSH1 0xE0 SHL DUP2 MSTORE PUSH1 0x4 ADD PUSH2 0x1144 SWAP2 SWAP1 PUSH2 0x27B0 JUMP JUMPDEST PUSH1 0x20 PUSH1 0x40 MLOAD DUP1 DUP4 SUB DUP2 DUP7 GAS STATICCALL ISZERO DUP1 ISZERO PUSH2 0x115F JUMPI RETURNDATASIZE PUSH0 DUP1 RETURNDATACOPY RETURNDATASIZE PUSH0 REVERT JUMPDEST POP POP POP POP PUSH1 0x40 MLOAD RETURNDATASIZE PUSH1 0x1F NOT PUSH1 0x1F DUP3 ADD AND DUP3 ADD DUP1 PUSH1 0x40 MSTORE POP DUP2 ADD SWAP1 PUSH2 0x1183 SWAP2 SWAP1 PUSH2 0x2E6E JUMP JUMPDEST LT ISZERO PUSH2 0x11C4 JUMPI PUSH1 0x40 MLOAD PUSH32 0x8C379A000000000000000000000000000000000000000000000000000000000 DUP2 MSTORE PUSH1 0x4 ADD PUSH2 0x11BB SWAP1 PUSH2 0x30A7 JUMP JUMPDEST PUSH1 0x40 MLOAD DUP1 SWAP2 SUB SWAP1 REVERT JUMPDEST PUSH1 0x8 SLOAD DUP2 LT ISZERO PUSH2 0x1209 JUMPI PUSH1 0x40 MLOAD PUSH32 0x8C379A000000000000000000000000000000000000000000000000000000000 DUP2 MSTORE PUSH1 0x4 ADD PUSH2 0x1200 SWAP1 PUSH2 0x303F JUMP JUMPDEST PUSH1 0x40 MLOAD DUP1 SWAP2 SUB SWAP1 REVERT JUMPDEST PUSH0 PUSH2 0x1213 DUP3 PUSH2 0x613 JUMP JUMPDEST SWAP1 POP DUP1 PUSH1 0xA PUSH0 DUP3 DUP3 SLOAD PUSH2 0x1226 SWAP2 SWAP1 PUSH2 0x2E99 JUMP JUMPDEST SWAP3 POP POP DUP2 SWAP1 SSTORE POP PUSH0 PUSH1 0x64 PUSH1 0x7 SLOAD DUP4 PUSH2 0x123E SWAP2 SWAP1 PUSH2 0x2A7B JUMP JUMPDEST PUSH2 0x1248 SWAP2 SWAP1 PUSH2 0x2CA1 JUMP JUMPDEST SWAP1 POP PUSH0 DUP2 DUP4 PUSH2 0x1257 SWAP2 SWAP1 PUSH2 0x2ECC JUMP JUMPDEST SWAP1 POP PUSH1 0x4 PUSH0 SWAP1 SLOAD SWAP1 PUSH2 0x100 EXP SWAP1 DIV PUSH20 0xFFFFFFFFFFFFFFFFFFFFFFFFFFFFFFFFFFFFFFFF AND PUSH20 0xFFFFFFFFFFFFFFFFFFFFFFFFFFFFFFFFFFFFFFFF AND PUSH4 0x9DC29FAC DUP7 DUP7 PUSH1 0x40 MLOAD DUP4 PUSH4 0xFFFFFFFF AND PUSH1 0xE0 SHL DUP2 MSTORE PUSH1 0x4 ADD PUSH2 0x12B5 SWAP3 SWAP2 SWAP1 PUSH2 0x2DC7 JUMP JUMPDEST PUSH0 PUSH1 0x40 MLOAD DUP1 DUP4 SUB DUP2 PUSH0 DUP8 DUP1 EXTCODESIZE ISZERO DUP1 ISZERO PUSH2 0x12CC JUMPI PUSH0 DUP1 REVERT JUMPDEST POP GAS CALL ISZERO DUP1 ISZERO PUSH2 0x12DE JUMPI RETURNDATASIZE PUSH0 DUP1 RETURNDATACOPY RETURNDATASIZE PUSH0 REVERT JUMPDEST POP POP POP POP PUSH1 0x3 PUSH0 SWAP1 SLOAD SWAP1 PUSH2 0x100 EXP SWAP1 DIV PUSH20 0xFFFFFFFFFFFFFFFFFFFFFFFFFFFFFFFFFFFFFFFF AND PUSH20 0xFFFFFFFFFFFFFFFFFFFFFFFFFFFFFFFFFFFFFFFF AND PUSH4 0xA9059CBB DUP7 DUP4 PUSH1 0x40 MLOAD DUP4 PUSH4 0xFFFFFFFF AND PUSH1 0xE0 SHL DUP2 MSTORE PUSH1 0x4 ADD PUSH2 0x133E SWAP3 SWAP2 SWAP1 PUSH2 0x2DC7 JUMP JUMPDEST PUSH1 0x20 PUSH1 0x40 MLOAD DUP1 DUP4 SUB DUP2 PUSH0 DUP8 GAS CALL ISZERO DUP1 ISZERO PUSH2 0x135A JUMPI RETURNDATASIZE PUSH0 DUP1 RETURNDATACOPY RETURNDATASIZE PUSH0 REVERT JUMPDEST POP POP POP POP PUSH1 0x40 MLOAD RETURNDATASIZE PUSH1 0x1F NOT PUSH1 0x1F DUP3 ADD AND DUP3 ADD DUP1 PUSH1 0x40 MSTORE POP DUP2 ADD SWAP1 PUSH2 0x137E SWAP2 SWAP1 PUSH2 0x2E02 JUMP JUMPDEST POP PUSH1 0x3 PUSH0 SWAP1 SLOAD SWAP1 PUSH2 0x100 EXP SWAP1 DIV PUSH20 0xFFFFFFFFFFFFFFFFFFFFFFFFFFFFFFFFFFFFFFFF AND PUSH20 0xFFFFFFFFFFFFFFFFFFFFFFFFFFFFFFFFFFFFFFFF AND PUSH4 0xA9059CBB CALLER DUP5 PUSH1 0x40 MLOAD DUP4 PUSH4 0xFFFFFFFF AND PUSH1 0xE0 SHL DUP2 MSTORE PUSH1 0x4 ADD PUSH2 0x13DB SWAP3 SWAP2 SWAP1 PUSH2 0x2DC7 JUMP JUMPDEST PUSH1 0x20 PUSH1 0x40 MLOAD DUP1 DUP4 SUB DUP2 PUSH0 DUP8 GAS CALL ISZERO DUP1 ISZERO PUSH2 0x13F7 JUMPI RETURNDATASIZE PUSH0 DUP1 RETURNDATACOPY RETURNDATASIZE PUSH0 REVERT JUMPDEST POP POP POP POP PUSH1 0x40 MLOAD RETURNDATASIZE PUSH1 0x1F NOT PUSH1 0x1F DUP3 ADD AND DUP3 ADD DUP1 PUSH1 0x40 MSTORE POP DUP2 ADD SWAP1 PUSH2 0x141B SWAP2 SWAP1 PUSH2 0x2E02 JUMP JUMPDEST POP PUSH32 0xC9EC92487A51A4894B66E92FA35D58109271421843B717E764249309F96AB9B5 DUP6 DUP6 DUP4 DUP6 PUSH1 0x40 MLOAD PUSH2 0x1451 SWAP5 SWAP4 SWAP3 SWAP2 SWAP1 PUSH2 0x30C5 JUMP JUMPDEST PUSH1 0x40 MLOAD DUP1 SWAP2 SUB SWAP1 LOG1 POP POP POP POP POP JUMP JUMPDEST PUSH1 0xD PUSH0 SWAP1 SLOAD SWAP1 PUSH2 0x100 EXP SWAP1 DIV PUSH20 0xFFFFFFFFFFFFFFFFFFFFFFFFFFFFFFFFFFFFFFFF AND DUP2 JUMP JUMPDEST PUSH2 0x1493 DUP7 DUP7 DUP7 DUP7 DUP7 DUP7 PUSH2 0x19A6 JUMP JUMPDEST PUSH0 ISZERO ISZERO PUSH1 0xD PUSH1 0x14 SWAP1 SLOAD SWAP1 PUSH2 0x100 EXP SWAP1 DIV PUSH1 0xFF AND ISZERO ISZERO EQ PUSH2 0x14E8 JUMPI PUSH1 0x40 MLOAD PUSH32 0x8C379A000000000000000000000000000000000000000000000000000000000 DUP2 MSTORE PUSH1 0x4 ADD PUSH2 0x14DF SWAP1 PUSH2 0x2D1B JUMP JUMPDEST PUSH1 0x40 MLOAD DUP1 SWAP2 SUB SWAP1 REVERT JUMPDEST DUP5 PUSH1 0x4 PUSH0 SWAP1 SLOAD SWAP1 PUSH2 0x100 EXP SWAP1 DIV PUSH20 0xFFFFFFFFFFFFFFFFFFFFFFFFFFFFFFFFFFFFFFFF AND PUSH20 0xFFFFFFFFFFFFFFFFFFFFFFFFFFFFFFFFFFFFFFFF AND PUSH4 0x70A08231 DUP9 PUSH1 0x40 MLOAD DUP3 PUSH4 0xFFFFFFFF AND PUSH1 0xE0 SHL DUP2 MSTORE PUSH1 0x4 ADD PUSH2 0x1543 SWAP2 SWAP1 PUSH2 0x27B0 JUMP JUMPDEST PUSH1 0x20 PUSH1 0x40 MLOAD DUP1 DUP4 SUB DUP2 DUP7 GAS STATICCALL ISZERO DUP1 ISZERO PUSH2 0x155E JUMPI RETURNDATASIZE PUSH0 DUP1 RETURNDATACOPY RETURNDATASIZE PUSH0 REVERT JUMPDEST POP POP POP POP PUSH1 0x40 MLOAD RETURNDATASIZE PUSH1 0x1F NOT PUSH1 0x1F DUP3 ADD AND DUP3 ADD DUP1 PUSH1 0x40 MSTORE POP DUP2 ADD SWAP1 PUSH2 0x1582 SWAP2 SWAP1 PUSH2 0x2E6E JUMP JUMPDEST LT ISZERO PUSH2 0x15C3 JUMPI PUSH1 0x40 MLOAD PUSH32 0x8C379A000000000000000000000000000000000000000000000000000000000 DUP2 MSTORE PUSH1 0x4 ADD PUSH2 0x15BA SWAP1 PUSH2 0x30A7 JUMP JUMPDEST PUSH1 0x40 MLOAD DUP1 SWAP2 SUB SWAP1 REVERT JUMPDEST PUSH1 0x8 SLOAD DUP6 LT ISZERO PUSH2 0x1608 JUMPI PUSH1 0x40 MLOAD PUSH32 0x8C379A000000000000000000000000000000000000000000000000000000000 DUP2 MSTORE PUSH1 0x4 ADD PUSH2 0x15FF SWAP1 PUSH2 0x303F JUMP JUMPDEST PUSH1 0x40 MLOAD DUP1 SWAP2 SUB SWAP1 REVERT JUMPDEST PUSH0 PUSH2 0x1612 DUP7 PUSH2 0x613 JUMP JUMPDEST SWAP1 POP DUP1 PUSH1 0xA PUSH0 DUP3 DUP3 SLOAD PUSH2 0x1625 SWAP2 SWAP1 PUSH2 0x2E99 JUMP JUMPDEST SWAP3 POP POP DUP2 SWAP1 SSTORE POP PUSH0 PUSH1 0x64 PUSH1 0x7 SLOAD DUP4 PUSH2 0x163D SWAP2 SWAP1 PUSH2 0x2A7B JUMP JUMPDEST PUSH2 0x1647 SWAP2 SWAP1 PUSH2 0x2CA1 JUMP JUMPDEST SWAP1 POP PUSH0 DUP2 DUP4 PUSH2 0x1656 SWAP2 SWAP1 PUSH2 0x2ECC JUMP JUMPDEST SWAP1 POP PUSH1 0x4 PUSH0 SWAP1 SLOAD SWAP1 PUSH2 0x100 EXP SWAP1 DIV PUSH20 0xFFFFFFFFFFFFFFFFFFFFFFFFFFFFFFFFFFFFFFFF AND PUSH20 0xFFFFFFFFFFFFFFFFFFFFFFFFFFFFFFFFFFFFFFFF AND PUSH4 0x9DC29FAC DUP11 DUP11 PUSH1 0x40 MLOAD DUP4 PUSH4 0xFFFFFFFF AND PUSH1 0xE0 SHL DUP2 MSTORE PUSH1 0x4 ADD PUSH2 0x16B4 SWAP3 SWAP2 SWAP1 PUSH2 0x2DC7 JUMP JUMPDEST PUSH0 PUSH1 0x40 MLOAD DUP1 DUP4 SUB DUP2 PUSH0 DUP8 DUP1 EXTCODESIZE ISZERO DUP1 ISZERO PUSH2 0x16CB JUMPI PUSH0 DUP1 REVERT JUMPDEST POP GAS CALL ISZERO DUP1 ISZERO PUSH2 0x16DD JUMPI RETURNDATASIZE PUSH0 DUP1 RETURNDATACOPY RETURNDATASIZE PUSH0 REVERT JUMPDEST POP POP POP POP PUSH1 0x3 PUSH0 SWAP1 SLOAD SWAP1 PUSH2 0x100 EXP SWAP1 DIV PUSH20 0xFFFFFFFFFFFFFFFFFFFFFFFFFFFFFFFFFFFFFFFF AND PUSH20 0xFFFFFFFFFFFFFFFFFFFFFFFFFFFFFFFFFFFFFFFF AND PUSH4 0xA9059CBB DUP11 DUP4 PUSH1 0x40 MLOAD DUP4 PUSH4 0xFFFFFFFF AND PUSH1 0xE0 SHL DUP2 MSTORE PUSH1 0x4 ADD PUSH2 0x173D SWAP3 SWAP2 SWAP1 PUSH2 0x2DC7 JUMP JUMPDEST PUSH1 0x20 PUSH1 0x40 MLOAD DUP1 DUP4 SUB DUP2 PUSH0 DUP8 GAS CALL ISZERO DUP1 ISZERO PUSH2 0x1759 JUMPI RETURNDATASIZE PUSH0 DUP1 RETURNDATACOPY RETURNDATASIZE PUSH0 REVERT JUMPDEST POP POP POP POP PUSH1 0x40 MLOAD RETURNDATASIZE PUSH1 0x1F NOT PUSH1 0x1F DUP3 ADD AND DUP3 ADD DUP1 PUSH1 0x40 MSTORE POP DUP2 ADD SWAP1 PUSH2 0x177D SWAP2 SWAP1 PUSH2 0x2E02 JUMP JUMPDEST POP PUSH1 0x3 PUSH0 SWAP1 SLOAD SWAP1 PUSH2 0x100 EXP SWAP1 DIV PUSH20 0xFFFFFFFFFFFFFFFFFFFFFFFFFFFFFFFFFFFFFFFF AND PUSH20 0xFFFFFFFFFFFFFFFFFFFFFFFFFFFFFFFFFFFFFFFF AND PUSH4 0xA9059CBB CALLER DUP5 PUSH1 0x40 MLOAD DUP4 PUSH4 0xFFFFFFFF AND PUSH1 0xE0 SHL DUP2 MSTORE PUSH1 0x4 ADD PUSH2 0x17DA SWAP3 SWAP2 SWAP1 PUSH2 0x2DC7 JUMP JUMPDEST PUSH1 0x20 PUSH1 0x40 MLOAD DUP1 DUP4 SUB DUP2 PUSH0 DUP8 GAS CALL ISZERO DUP1 ISZERO PUSH2 0x17F6 JUMPI RETURNDATASIZE PUSH0 DUP1 RETURNDATACOPY RETURNDATASIZE PUSH0 REVERT JUMPDEST POP POP POP POP PUSH1 0x40 MLOAD RETURNDATASIZE PUSH1 0x1F NOT PUSH1 0x1F DUP3 ADD AND DUP3 ADD DUP1 PUSH1 0x40 MSTORE POP DUP2 ADD SWAP1 PUSH2 0x181A SWAP2 SWAP1 PUSH2 0x2E02 JUMP JUMPDEST POP PUSH32 0xC9EC92487A51A4894B66E92FA35D58109271421843B717E764249309F96AB9B5 DUP10 DUP10 DUP4 DUP6 PUSH1 0x40 MLOAD PUSH2 0x1850 SWAP5 SWAP4 SWAP3 SWAP2 SWAP1 PUSH2 0x30C5 JUMP JUMPDEST PUSH1 0x40 MLOAD DUP1 SWAP2 SUB SWAP1 LOG1 POP POP POP POP POP POP POP POP POP JUMP JUMPDEST PUSH1 0xA SLOAD DUP2 JUMP JUMPDEST PUSH2 0x1871 PUSH2 0x1DAF JUMP JUMPDEST PUSH20 0xFFFFFFFFFFFFFFFFFFFFFFFFFFFFFFFFFFFFFFFF AND PUSH2 0x188F PUSH2 0xA9F JUMP JUMPDEST PUSH20 0xFFFFFFFFFFFFFFFFFFFFFFFFFFFFFFFFFFFFFFFF AND EQ PUSH2 0x18EE JUMPI PUSH2 0x18B2 PUSH2 0x1DAF JUMP JUMPDEST PUSH1 0x40 MLOAD PUSH32 0x118CDAA700000000000000000000000000000000000000000000000000000000 DUP2 MSTORE PUSH1 0x4 ADD PUSH2 0x18E5 SWAP2 SWAP1 PUSH2 0x27B0 JUMP JUMPDEST PUSH1 0x40 MLOAD DUP1 SWAP2 SUB SWAP1 REVERT JUMPDEST JUMP JUMPDEST PUSH0 PUSH32 0x0 PUSH20 0xFFFFFFFFFFFFFFFFFFFFFFFFFFFFFFFFFFFFFFFF AND ADDRESS PUSH20 0xFFFFFFFFFFFFFFFFFFFFFFFFFFFFFFFFFFFFFFFF AND EQ DUP1 ISZERO PUSH2 0x196B JUMPI POP PUSH32 0x0 CHAINID EQ JUMPDEST ISZERO PUSH2 0x1998 JUMPI PUSH32 0x0 SWAP1 POP PUSH2 0x19A3 JUMP JUMPDEST PUSH2 0x19A0 PUSH2 0x1DB6 JUMP JUMPDEST SWAP1 POP JUMPDEST SWAP1 JUMP JUMPDEST PUSH0 ISZERO ISZERO PUSH1 0xF PUSH0 DUP6 PUSH1 0xFF AND PUSH1 0xFF AND DUP2 MSTORE PUSH1 0x20 ADD SWAP1 DUP2 MSTORE PUSH1 0x20 ADD PUSH0 KECCAK256 PUSH0 SWAP1 SLOAD SWAP1 PUSH2 0x100 EXP SWAP1 DIV PUSH1 0xFF AND ISZERO ISZERO EQ DUP1 PUSH2 0x19FB JUMPI POP PUSH0 ISZERO ISZERO PUSH1 0x10 PUSH0 DUP5 DUP2 MSTORE PUSH1 0x20 ADD SWAP1 DUP2 MSTORE PUSH1 0x20 ADD PUSH0 KECCAK256 PUSH0 SWAP1 SLOAD SWAP1 PUSH2 0x100 EXP SWAP1 DIV PUSH1 0xFF AND ISZERO ISZERO EQ JUMPDEST DUP1 PUSH2 0x1A26 JUMPI POP PUSH0 ISZERO ISZERO PUSH1 0x11 PUSH0 DUP4 DUP2 MSTORE PUSH1 0x20 ADD SWAP1 DUP2 MSTORE PUSH1 0x20 ADD PUSH0 KECCAK256 PUSH0 SWAP1 SLOAD SWAP1 PUSH2 0x100 EXP SWAP1 DIV PUSH1 0xFF AND ISZERO ISZERO EQ JUMPDEST PUSH2 0x1A65 JUMPI PUSH1 0x40 MLOAD PUSH32 0x8C379A000000000000000000000000000000000000000000000000000000000 DUP2 MSTORE PUSH1 0x4 ADD PUSH2 0x1A5C SWAP1 PUSH2 0x3152 JUMP JUMPDEST PUSH1 0x40 MLOAD DUP1 SWAP2 SUB SWAP1 REVERT JUMPDEST DUP4 TIMESTAMP GT ISZERO PUSH2 0x1AAA JUMPI DUP4 PUSH1 0x40 MLOAD PUSH32 0x6279130200000000000000000000000000000000000000000000000000000000 DUP2 MSTORE PUSH1 0x4 ADD PUSH2 0x1AA1 SWAP2 SWAP1 PUSH2 0x22A0 JUMP JUMPDEST PUSH1 0x40 MLOAD DUP1 SWAP2 SUB SWAP1 REVERT JUMPDEST PUSH0 PUSH32 0x5619A74ECD0240AFC3BFB1DF2BD1319401220FB577809C3A09BF0AB809AC861 PUSH1 0xD PUSH0 SWAP1 SLOAD SWAP1 PUSH2 0x100 EXP SWAP1 DIV PUSH20 0xFFFFFFFFFFFFFFFFFFFFFFFFFFFFFFFFFFFFFFFF AND DUP9 DUP9 DUP9 PUSH1 0x40 MLOAD PUSH1 0x20 ADD PUSH2 0x1B05 SWAP6 SWAP5 SWAP4 SWAP3 SWAP2 SWAP1 PUSH2 0x3170 JUMP JUMPDEST PUSH1 0x40 MLOAD PUSH1 0x20 DUP2 DUP4 SUB SUB DUP2 MSTORE SWAP1 PUSH1 0x40 MSTORE DUP1 MLOAD SWAP1 PUSH1 0x20 ADD KECCAK256 SWAP1 POP PUSH0 PUSH2 0x1B27 DUP3 PUSH2 0x1E4B JUMP JUMPDEST SWAP1 POP PUSH0 PUSH2 0x1B36 DUP3 DUP8 DUP8 DUP8 PUSH2 0x1E64 JUMP JUMPDEST SWAP1 POP PUSH1 0xD PUSH0 SWAP1 SLOAD SWAP1 PUSH2 0x100 EXP SWAP1 DIV PUSH20 0xFFFFFFFFFFFFFFFFFFFFFFFFFFFFFFFFFFFFFFFF AND PUSH20 0xFFFFFFFFFFFFFFFFFFFFFFFFFFFFFFFFFFFFFFFF AND DUP2 PUSH20 0xFFFFFFFFFFFFFFFFFFFFFFFFFFFFFFFFFFFFFFFF AND EQ PUSH2 0x1BEC JUMPI DUP1 PUSH1 0xD PUSH0 SWAP1 SLOAD SWAP1 PUSH2 0x100 EXP SWAP1 DIV PUSH20 0xFFFFFFFFFFFFFFFFFFFFFFFFFFFFFFFFFFFFFFFF AND PUSH1 0x40 MLOAD PUSH32 0x4B800E4600000000000000000000000000000000000000000000000000000000 DUP2 MSTORE PUSH1 0x4 ADD PUSH2 0x1BE3 SWAP3 SWAP2 SWAP1 PUSH2 0x31C1 JUMP JUMPDEST PUSH1 0x40 MLOAD DUP1 SWAP2 SUB SWAP1 REVERT JUMPDEST PUSH1 0x1 PUSH1 0xF PUSH0 DUP9 PUSH1 0xFF AND PUSH1 0xFF AND DUP2 MSTORE PUSH1 0x20 ADD SWAP1 DUP2 MSTORE PUSH1 0x20 ADD PUSH0 KECCAK256 PUSH0 PUSH2 0x100 EXP DUP2 SLOAD DUP2 PUSH1 0xFF MUL NOT AND SWAP1 DUP4 ISZERO ISZERO MUL OR SWAP1 SSTORE POP PUSH1 0x1 PUSH1 0x10 PUSH0 DUP8 DUP2 MSTORE PUSH1 0x20 ADD SWAP1 DUP2 MSTORE PUSH1 0x20 ADD PUSH0 KECCAK256 PUSH0 PUSH2 0x100 EXP DUP2 SLOAD DUP2 PUSH1 0xFF MUL NOT AND SWAP1 DUP4 ISZERO ISZERO MUL OR SWAP1 SSTORE POP PUSH1 0x1 PUSH1 0x11 PUSH0 DUP7 DUP2 MSTORE PUSH1 0x20 ADD SWAP1 DUP2 MSTORE PUSH1 0x20 ADD PUSH0 KECCAK256 PUSH0 PUSH2 0x100 EXP DUP2 SLOAD DUP2 PUSH1 0xFF MUL NOT AND SWAP1 DUP4 ISZERO ISZERO MUL OR SWAP1 SSTORE POP POP POP POP POP POP POP POP POP POP JUMP JUMPDEST PUSH0 DUP1 PUSH0 SWAP1 SLOAD SWAP1 PUSH2 0x100 EXP SWAP1 DIV PUSH20 0xFFFFFFFFFFFFFFFFFFFFFFFFFFFFFFFFFFFFFFFF AND SWAP1 POP DUP2 PUSH0 DUP1 PUSH2 0x100 EXP DUP2 SLOAD DUP2 PUSH20 0xFFFFFFFFFFFFFFFFFFFFFFFFFFFFFFFFFFFFFFFF MUL NOT AND SWAP1 DUP4 PUSH20 0xFFFFFFFFFFFFFFFFFFFFFFFFFFFFFFFFFFFFFFFF AND MUL OR SWAP1 SSTORE POP DUP2 PUSH20 0xFFFFFFFFFFFFFFFFFFFFFFFFFFFFFFFFFFFFFFFF AND DUP2 PUSH20 0xFFFFFFFFFFFFFFFFFFFFFFFFFFFFFFFFFFFFFFFF AND PUSH32 0x8BE0079C531659141344CD1FD0A4F28419497F9722A3DAAFE3B4186F6B6457E0 PUSH1 0x40 MLOAD PUSH1 0x40 MLOAD DUP1 SWAP2 SUB SWAP1 LOG3 POP POP JUMP JUMPDEST PUSH1 0x60 PUSH2 0x1D6F PUSH1 0x1 PUSH32 0x0 PUSH2 0x1E92 SWAP1 SWAP2 SWAP1 PUSH4 0xFFFFFFFF AND JUMP JUMPDEST SWAP1 POP SWAP1 JUMP JUMPDEST PUSH1 0x60 PUSH2 0x1DAA PUSH1 0x2 PUSH32 0x0 PUSH2 0x1E92 SWAP1 SWAP2 SWAP1 PUSH4 0xFFFFFFFF AND JUMP JUMPDEST SWAP1 POP SWAP1 JUMP JUMPDEST PUSH0 CALLER SWAP1 POP SWAP1 JUMP JUMPDEST PUSH0 PUSH32 0x8B73C3C69BB8FE3D512ECC4CF759CC79239F7B179B0FFACAA9A75D522B39400F PUSH32 0x0 PUSH32 0x0 CHAINID ADDRESS PUSH1 0x40 MLOAD PUSH1 0x20 ADD PUSH2 0x1E30 SWAP6 SWAP5 SWAP4 SWAP3 SWAP2 SWAP1 PUSH2 0x31E8 JUMP JUMPDEST PUSH1 0x40 MLOAD PUSH1 0x20 DUP2 DUP4 SUB SUB DUP2 MSTORE SWAP1 PUSH1 0x40 MSTORE DUP1 MLOAD SWAP1 PUSH1 0x20 ADD KECCAK256 SWAP1 POP SWAP1 JUMP JUMPDEST PUSH0 PUSH2 0x1E5D PUSH2 0x1E57 PUSH2 0x18F0 JUMP JUMPDEST DUP4 PUSH2 0x1F3F JUMP JUMPDEST SWAP1 POP SWAP2 SWAP1 POP JUMP JUMPDEST PUSH0 DUP1 PUSH0 DUP1 PUSH2 0x1E74 DUP9 DUP9 DUP9 DUP9 PUSH2 0x1F7F JUMP JUMPDEST SWAP3 POP SWAP3 POP SWAP3 POP PUSH2 0x1E84 DUP3 DUP3 PUSH2 0x2066 JUMP JUMPDEST DUP3 SWAP4 POP POP POP POP SWAP5 SWAP4 POP POP POP POP JUMP JUMPDEST PUSH1 0x60 PUSH1 0xFF PUSH0 SHL DUP4 EQ PUSH2 0x1EAE JUMPI PUSH2 0x1EA7 DUP4 PUSH2 0x21C8 JUMP JUMPDEST SWAP1 POP PUSH2 0x1F39 JUMP JUMPDEST DUP2 DUP1 SLOAD PUSH2 0x1EBA SWAP1 PUSH2 0x2A1E JUMP JUMPDEST DUP1 PUSH1 0x1F ADD PUSH1 0x20 DUP1 SWAP2 DIV MUL PUSH1 0x20 ADD PUSH1 0x40 MLOAD SWAP1 DUP2 ADD PUSH1 0x40 MSTORE DUP1 SWAP3 SWAP2 SWAP1 DUP2 DUP2 MSTORE PUSH1 0x20 ADD DUP3 DUP1 SLOAD PUSH2 0x1EE6 SWAP1 PUSH2 0x2A1E JUMP JUMPDEST DUP1 ISZERO PUSH2 0x1F31 JUMPI DUP1 PUSH1 0x1F LT PUSH2 0x1F08 JUMPI PUSH2 0x100 DUP1 DUP4 SLOAD DIV MUL DUP4 MSTORE SWAP2 PUSH1 0x20 ADD SWAP2 PUSH2 0x1F31 JUMP JUMPDEST DUP3 ADD SWAP2 SWAP1 PUSH0 MSTORE PUSH1 0x20 PUSH0 KECCAK256 SWAP1 JUMPDEST DUP2 SLOAD DUP2 MSTORE SWAP1 PUSH1 0x1 ADD SWAP1 PUSH1 0x20 ADD DUP1 DUP4 GT PUSH2 0x1F14 JUMPI DUP3 SWAP1 SUB PUSH1 0x1F AND DUP3 ADD SWAP2 JUMPDEST POP POP POP POP POP SWAP1 POP JUMPDEST SWAP3 SWAP2 POP POP JUMP JUMPDEST PUSH0 PUSH1 0x40 MLOAD PUSH32 0x1901000000000000000000000000000000000000000000000000000000000000 DUP2 MSTORE DUP4 PUSH1 0x2 DUP3 ADD MSTORE DUP3 PUSH1 0x22 DUP3 ADD MSTORE PUSH1 0x42 DUP2 KECCAK256 SWAP2 POP POP SWAP3 SWAP2 POP POP JUMP JUMPDEST PUSH0 DUP1 PUSH0 PUSH32 0x7FFFFFFFFFFFFFFFFFFFFFFFFFFFFFFF5D576E7357A4501DDFE92F46681B20A0 DUP5 PUSH0 SHR GT ISZERO PUSH2 0x1FBB JUMPI PUSH0 PUSH1 0x3 DUP6 SWAP3 POP SWAP3 POP SWAP3 POP PUSH2 0x205C JUMP JUMPDEST PUSH0 PUSH1 0x1 DUP9 DUP9 DUP9 DUP9 PUSH1 0x40 MLOAD PUSH0 DUP2 MSTORE PUSH1 0x20 ADD PUSH1 0x40 MSTORE PUSH1 0x40 MLOAD PUSH2 0x1FDE SWAP5 SWAP4 SWAP3 SWAP2 SWAP1 PUSH2 0x3248 JUMP JUMPDEST PUSH1 0x20 PUSH1 0x40 MLOAD PUSH1 0x20 DUP2 SUB SWAP1 DUP1 DUP5 SUB SWAP1 DUP6 GAS STATICCALL ISZERO DUP1 ISZERO PUSH2 0x1FFE JUMPI RETURNDATASIZE PUSH0 DUP1 RETURNDATACOPY RETURNDATASIZE PUSH0 REVERT JUMPDEST POP POP POP PUSH1 0x20 PUSH1 0x40 MLOAD SUB MLOAD SWAP1 POP PUSH0 PUSH20 0xFFFFFFFFFFFFFFFFFFFFFFFFFFFFFFFFFFFFFFFF AND DUP2 PUSH20 0xFFFFFFFFFFFFFFFFFFFFFFFFFFFFFFFFFFFFFFFF AND SUB PUSH2 0x204F JUMPI PUSH0 PUSH1 0x1 PUSH0 DUP1 SHL SWAP4 POP SWAP4 POP SWAP4 POP POP PUSH2 0x205C JUMP JUMPDEST DUP1 PUSH0 DUP1 PUSH0 SHL SWAP4 POP SWAP4 POP SWAP4 POP POP JUMPDEST SWAP5 POP SWAP5 POP SWAP5 SWAP2 POP POP JUMP JUMPDEST PUSH0 PUSH1 0x3 DUP2 GT ISZERO PUSH2 0x2079 JUMPI PUSH2 0x2078 PUSH2 0x328B JUMP JUMPDEST JUMPDEST DUP3 PUSH1 0x3 DUP2 GT ISZERO PUSH2 0x208C JUMPI PUSH2 0x208B PUSH2 0x328B JUMP JUMPDEST JUMPDEST SUB ISZERO PUSH2 0x21C4 JUMPI PUSH1 0x1 PUSH1 0x3 DUP2 GT ISZERO PUSH2 0x20A6 JUMPI PUSH2 0x20A5 PUSH2 0x328B JUMP JUMPDEST JUMPDEST DUP3 PUSH1 0x3 DUP2 GT ISZERO PUSH2 0x20B9 JUMPI PUSH2 0x20B8 PUSH2 0x328B JUMP JUMPDEST JUMPDEST SUB PUSH2 0x20F0 JUMPI PUSH1 0x40 MLOAD PUSH32 0xF645EEDF00000000000000000000000000000000000000000000000000000000 DUP2 MSTORE PUSH1 0x4 ADD PUSH1 0x40 MLOAD DUP1 SWAP2 SUB SWAP1 REVERT JUMPDEST PUSH1 0x2 PUSH1 0x3 DUP2 GT ISZERO PUSH2 0x2104 JUMPI PUSH2 0x2103 PUSH2 0x328B JUMP JUMPDEST JUMPDEST DUP3 PUSH1 0x3 DUP2 GT ISZERO PUSH2 0x2117 JUMPI PUSH2 0x2116 PUSH2 0x328B JUMP JUMPDEST JUMPDEST SUB PUSH2 0x215B JUMPI DUP1 PUSH0 SHR PUSH1 0x40 MLOAD PUSH32 0xFCE698F700000000000000000000000000000000000000000000000000000000 DUP2 MSTORE PUSH1 0x4 ADD PUSH2 0x2152 SWAP2 SWAP1 PUSH2 0x22A0 JUMP JUMPDEST PUSH1 0x40 MLOAD DUP1 SWAP2 SUB SWAP1 REVERT JUMPDEST PUSH1 0x3 DUP1 DUP2 GT ISZERO PUSH2 0x216E JUMPI PUSH2 0x216D PUSH2 0x328B JUMP JUMPDEST JUMPDEST DUP3 PUSH1 0x3 DUP2 GT ISZERO PUSH2 0x2181 JUMPI PUSH2 0x2180 PUSH2 0x328B JUMP JUMPDEST JUMPDEST SUB PUSH2 0x21C3 JUMPI DUP1 PUSH1 0x40 MLOAD PUSH32 0xD78BCE0C00000000000000000000000000000000000000000000000000000000 DUP2 MSTORE PUSH1 0x4 ADD PUSH2 0x21BA SWAP2 SWAP1 PUSH2 0x24AC JUMP JUMPDEST PUSH1 0x40 MLOAD DUP1 SWAP2 SUB SWAP1 REVERT JUMPDEST JUMPDEST POP POP JUMP JUMPDEST PUSH1 0x60 PUSH0 PUSH2 0x21D4 DUP4 PUSH2 0x223A JUMP JUMPDEST SWAP1 POP PUSH0 PUSH1 0x20 PUSH8 0xFFFFFFFFFFFFFFFF DUP2 GT ISZERO PUSH2 0x21F2 JUMPI PUSH2 0x21F1 PUSH2 0x27CD JUMP JUMPDEST JUMPDEST PUSH1 0x40 MLOAD SWAP1 DUP1 DUP3 MSTORE DUP1 PUSH1 0x1F ADD PUSH1 0x1F NOT AND PUSH1 0x20 ADD DUP3 ADD PUSH1 0x40 MSTORE DUP1 ISZERO PUSH2 0x2224 JUMPI DUP2 PUSH1 0x20 ADD PUSH1 0x1 DUP3 MUL DUP1 CALLDATASIZE DUP4 CALLDATACOPY DUP1 DUP3 ADD SWAP2 POP POP SWAP1 POP JUMPDEST POP SWAP1 POP DUP2 DUP2 MSTORE DUP4 PUSH1 0x20 DUP3 ADD MSTORE DUP1 SWAP3 POP POP POP SWAP2 SWAP1 POP JUMP JUMPDEST PUSH0 DUP1 PUSH1 0xFF DUP4 PUSH0 SHR AND SWAP1 POP PUSH1 0x1F DUP2 GT ISZERO PUSH2 0x227F JUMPI PUSH1 0x40 MLOAD PUSH32 0xB3512B0C00000000000000000000000000000000000000000000000000000000 DUP2 MSTORE PUSH1 0x4 ADD PUSH1 0x40 MLOAD DUP1 SWAP2 SUB SWAP1 REVERT JUMPDEST DUP1 SWAP2 POP POP SWAP2 SWAP1 POP JUMP JUMPDEST PUSH0 DUP2 SWAP1 POP SWAP2 SWAP1 POP JUMP JUMPDEST PUSH2 0x229A DUP2 PUSH2 0x2288 JUMP JUMPDEST DUP3 MSTORE POP POP JUMP JUMPDEST PUSH0 PUSH1 0x20 DUP3 ADD SWAP1 POP PUSH2 0x22B3 PUSH0 DUP4 ADD DUP5 PUSH2 0x2291 JUMP JUMPDEST SWAP3 SWAP2 POP POP JUMP JUMPDEST PUSH0 DUP2 MLOAD SWAP1 POP SWAP2 SWAP1 POP JUMP JUMPDEST PUSH0 DUP3 DUP3 MSTORE PUSH1 0x20 DUP3 ADD SWAP1 POP SWAP3 SWAP2 POP POP JUMP JUMPDEST PUSH0 JUMPDEST DUP4 DUP2 LT ISZERO PUSH2 0x22F0 JUMPI DUP1 DUP3 ADD MLOAD DUP2 DUP5 ADD MSTORE PUSH1 0x20 DUP2 ADD SWAP1 POP PUSH2 0x22D5 JUMP JUMPDEST PUSH0 DUP5 DUP5 ADD MSTORE POP POP POP POP JUMP JUMPDEST PUSH0 PUSH1 0x1F NOT PUSH1 0x1F DUP4 ADD AND SWAP1 POP SWAP2 SWAP1 POP JUMP JUMPDEST PUSH0 PUSH2 0x2315 DUP3 PUSH2 0x22B9 JUMP JUMPDEST PUSH2 0x231F DUP2 DUP6 PUSH2 0x22C3 JUMP JUMPDEST SWAP4 POP PUSH2 0x232F DUP2 DUP6 PUSH1 0x20 DUP7 ADD PUSH2 0x22D3 JUMP JUMPDEST PUSH2 0x2338 DUP2 PUSH2 0x22FB JUMP JUMPDEST DUP5 ADD SWAP2 POP POP SWAP3 SWAP2 POP POP JUMP JUMPDEST PUSH0 PUSH1 0x20 DUP3 ADD SWAP1 POP DUP2 DUP2 SUB PUSH0 DUP4 ADD MSTORE PUSH2 0x235B DUP2 DUP5 PUSH2 0x230B JUMP JUMPDEST SWAP1 POP SWAP3 SWAP2 POP POP JUMP JUMPDEST PUSH0 PUSH1 0x40 MLOAD SWAP1 POP SWAP1 JUMP JUMPDEST PUSH0 DUP1 REVERT JUMPDEST PUSH0 DUP1 REVERT JUMPDEST PUSH2 0x237D DUP2 PUSH2 0x2288 JUMP JUMPDEST DUP2 EQ PUSH2 0x2387 JUMPI PUSH0 DUP1 REVERT JUMPDEST POP JUMP JUMPDEST PUSH0 DUP2 CALLDATALOAD SWAP1 POP PUSH2 0x2398 DUP2 PUSH2 0x2374 JUMP JUMPDEST SWAP3 SWAP2 POP POP JUMP JUMPDEST PUSH0 PUSH1 0x20 DUP3 DUP5 SUB SLT ISZERO PUSH2 0x23B3 JUMPI PUSH2 0x23B2 PUSH2 0x236C JUMP JUMPDEST JUMPDEST PUSH0 PUSH2 0x23C0 DUP5 DUP3 DUP6 ADD PUSH2 0x238A JUMP JUMPDEST SWAP2 POP POP SWAP3 SWAP2 POP POP JUMP JUMPDEST PUSH0 DUP2 ISZERO ISZERO SWAP1 POP SWAP2 SWAP1 POP JUMP JUMPDEST PUSH2 0x23DD DUP2 PUSH2 0x23C9 JUMP JUMPDEST DUP3 MSTORE POP POP JUMP JUMPDEST PUSH0 PUSH1 0x20 DUP3 ADD SWAP1 POP PUSH2 0x23F6 PUSH0 DUP4 ADD DUP5 PUSH2 0x23D4 JUMP JUMPDEST SWAP3 SWAP2 POP POP JUMP JUMPDEST PUSH0 PUSH20 0xFFFFFFFFFFFFFFFFFFFFFFFFFFFFFFFFFFFFFFFF DUP3 AND SWAP1 POP SWAP2 SWAP1 POP JUMP JUMPDEST PUSH0 PUSH2 0x2425 DUP3 PUSH2 0x23FC JUMP JUMPDEST SWAP1 POP SWAP2 SWAP1 POP JUMP JUMPDEST PUSH2 0x2435 DUP2 PUSH2 0x241B JUMP JUMPDEST DUP2 EQ PUSH2 0x243F JUMPI PUSH0 DUP1 REVERT JUMPDEST POP JUMP JUMPDEST PUSH0 DUP2 CALLDATALOAD SWAP1 POP PUSH2 0x2450 DUP2 PUSH2 0x242C JUMP JUMPDEST SWAP3 SWAP2 POP POP JUMP JUMPDEST PUSH0 DUP1 PUSH1 0x40 DUP4 DUP6 SUB SLT ISZERO PUSH2 0x246C JUMPI PUSH2 0x246B PUSH2 0x236C JUMP JUMPDEST JUMPDEST PUSH0 PUSH2 0x2479 DUP6 DUP3 DUP7 ADD PUSH2 0x2442 JUMP JUMPDEST SWAP3 POP POP PUSH1 0x20 PUSH2 0x248A DUP6 DUP3 DUP7 ADD PUSH2 0x2442 JUMP JUMPDEST SWAP2 POP POP SWAP3 POP SWAP3 SWAP1 POP JUMP JUMPDEST PUSH0 DUP2 SWAP1 POP SWAP2 SWAP1 POP JUMP JUMPDEST PUSH2 0x24A6 DUP2 PUSH2 0x2494 JUMP JUMPDEST DUP3 MSTORE POP POP JUMP JUMPDEST PUSH0 PUSH1 0x20 DUP3 ADD SWAP1 POP PUSH2 0x24BF PUSH0 DUP4 ADD DUP5 PUSH2 0x249D JUMP JUMPDEST SWAP3 SWAP2 POP POP JUMP JUMPDEST PUSH0 PUSH1 0xFF DUP3 AND SWAP1 POP SWAP2 SWAP1 POP JUMP JUMPDEST PUSH2 0x24DA DUP2 PUSH2 0x24C5 JUMP JUMPDEST DUP2 EQ PUSH2 0x24E4 JUMPI PUSH0 DUP1 REVERT JUMPDEST POP JUMP JUMPDEST PUSH0 DUP2 CALLDATALOAD SWAP1 POP PUSH2 0x24F5 DUP2 PUSH2 0x24D1 JUMP JUMPDEST SWAP3 SWAP2 POP POP JUMP JUMPDEST PUSH2 0x2504 DUP2 PUSH2 0x2494 JUMP JUMPDEST DUP2 EQ PUSH2 0x250E JUMPI PUSH0 DUP1 REVERT JUMPDEST POP JUMP JUMPDEST PUSH0 DUP2 CALLDATALOAD SWAP1 POP PUSH2 0x251F DUP2 PUSH2 0x24FB JUMP JUMPDEST SWAP3 SWAP2 POP POP JUMP JUMPDEST PUSH0 DUP1 PUSH0 DUP1 PUSH0 DUP1 PUSH1 0xC0 DUP8 DUP10 SUB SLT ISZERO PUSH2 0x253F JUMPI PUSH2 0x253E PUSH2 0x236C JUMP JUMPDEST JUMPDEST PUSH0 PUSH2 0x254C DUP10 DUP3 DUP11 ADD PUSH2 0x2442 JUMP JUMPDEST SWAP7 POP POP PUSH1 0x20 PUSH2 0x255D DUP10 DUP3 DUP11 ADD PUSH2 0x238A JUMP JUMPDEST SWAP6 POP POP PUSH1 0x40 PUSH2 0x256E DUP10 DUP3 DUP11 ADD PUSH2 0x238A JUMP JUMPDEST SWAP5 POP POP PUSH1 0x60 PUSH2 0x257F DUP10 DUP3 DUP11 ADD PUSH2 0x24E7 JUMP JUMPDEST SWAP4 POP POP PUSH1 0x80 PUSH2 0x2590 DUP10 DUP3 DUP11 ADD PUSH2 0x2511 JUMP JUMPDEST SWAP3 POP POP PUSH1 0xA0 PUSH2 0x25A1 DUP10 DUP3 DUP11 ADD PUSH2 0x2511 JUMP JUMPDEST SWAP2 POP POP SWAP3 SWAP6 POP SWAP3 SWAP6 POP SWAP3 SWAP6 JUMP JUMPDEST PUSH2 0x25B7 DUP2 PUSH2 0x23C9 JUMP JUMPDEST DUP2 EQ PUSH2 0x25C1 JUMPI PUSH0 DUP1 REVERT JUMPDEST POP JUMP JUMPDEST PUSH0 DUP2 CALLDATALOAD SWAP1 POP PUSH2 0x25D2 DUP2 PUSH2 0x25AE JUMP JUMPDEST SWAP3 SWAP2 POP POP JUMP JUMPDEST PUSH0 PUSH1 0x20 DUP3 DUP5 SUB SLT ISZERO PUSH2 0x25ED JUMPI PUSH2 0x25EC PUSH2 0x236C JUMP JUMPDEST JUMPDEST PUSH0 PUSH2 0x25FA DUP5 DUP3 DUP6 ADD PUSH2 0x25C4 JUMP JUMPDEST SWAP2 POP POP SWAP3 SWAP2 POP POP JUMP JUMPDEST PUSH0 PUSH1 0x20 DUP3 DUP5 SUB SLT ISZERO PUSH2 0x2618 JUMPI PUSH2 0x2617 PUSH2 0x236C JUMP JUMPDEST JUMPDEST PUSH0 PUSH2 0x2625 DUP5 DUP3 DUP6 ADD PUSH2 0x2442 JUMP JUMPDEST SWAP2 POP POP SWAP3 SWAP2 POP POP JUMP JUMPDEST PUSH0 PUSH32 0xFF00000000000000000000000000000000000000000000000000000000000000 DUP3 AND SWAP1 POP SWAP2 SWAP1 POP JUMP JUMPDEST PUSH2 0x2662 DUP2 PUSH2 0x262E JUMP JUMPDEST DUP3 MSTORE POP POP JUMP JUMPDEST PUSH2 0x2671 DUP2 PUSH2 0x241B JUMP JUMPDEST DUP3 MSTORE POP POP JUMP JUMPDEST PUSH0 DUP2 MLOAD SWAP1 POP SWAP2 SWAP1 POP JUMP JUMPDEST PUSH0 DUP3 DUP3 MSTORE PUSH1 0x20 DUP3 ADD SWAP1 POP SWAP3 SWAP2 POP POP JUMP JUMPDEST PUSH0 DUP2 SWAP1 POP PUSH1 0x20 DUP3 ADD SWAP1 POP SWAP2 SWAP1 POP JUMP JUMPDEST PUSH2 0x26A9 DUP2 PUSH2 0x2288 JUMP JUMPDEST DUP3 MSTORE POP POP JUMP JUMPDEST PUSH0 PUSH2 0x26BA DUP4 DUP4 PUSH2 0x26A0 JUMP JUMPDEST PUSH1 0x20 DUP4 ADD SWAP1 POP SWAP3 SWAP2 POP POP JUMP JUMPDEST PUSH0 PUSH1 0x20 DUP3 ADD SWAP1 POP SWAP2 SWAP1 POP JUMP JUMPDEST PUSH0 PUSH2 0x26DC DUP3 PUSH2 0x2677 JUMP JUMPDEST PUSH2 0x26E6 DUP2 DUP6 PUSH2 0x2681 JUMP JUMPDEST SWAP4 POP PUSH2 0x26F1 DUP4 PUSH2 0x2691 JUMP JUMPDEST DUP1 PUSH0 JUMPDEST DUP4 DUP2 LT ISZERO PUSH2 0x2721 JUMPI DUP2 MLOAD PUSH2 0x2708 DUP9 DUP3 PUSH2 0x26AF JUMP JUMPDEST SWAP8 POP PUSH2 0x2713 DUP4 PUSH2 0x26C6 JUMP JUMPDEST SWAP3 POP POP PUSH1 0x1 DUP2 ADD SWAP1 POP PUSH2 0x26F4 JUMP JUMPDEST POP DUP6 SWAP4 POP POP POP POP SWAP3 SWAP2 POP POP JUMP JUMPDEST PUSH0 PUSH1 0xE0 DUP3 ADD SWAP1 POP PUSH2 0x2741 PUSH0 DUP4 ADD DUP11 PUSH2 0x2659 JUMP JUMPDEST DUP2 DUP2 SUB PUSH1 0x20 DUP4 ADD MSTORE PUSH2 0x2753 DUP2 DUP10 PUSH2 0x230B JUMP JUMPDEST SWAP1 POP DUP2 DUP2 SUB PUSH1 0x40 DUP4 ADD MSTORE PUSH2 0x2767 DUP2 DUP9 PUSH2 0x230B JUMP JUMPDEST SWAP1 POP PUSH2 0x2776 PUSH1 0x60 DUP4 ADD DUP8 PUSH2 0x2291 JUMP JUMPDEST PUSH2 0x2783 PUSH1 0x80 DUP4 ADD DUP7 PUSH2 0x2668 JUMP JUMPDEST PUSH2 0x2790 PUSH1 0xA0 DUP4 ADD DUP6 PUSH2 0x249D JUMP JUMPDEST DUP2 DUP2 SUB PUSH1 0xC0 DUP4 ADD MSTORE PUSH2 0x27A2 DUP2 DUP5 PUSH2 0x26D2 JUMP JUMPDEST SWAP1 POP SWAP9 SWAP8 POP POP POP POP POP POP POP POP JUMP JUMPDEST PUSH0 PUSH1 0x20 DUP3 ADD SWAP1 POP PUSH2 0x27C3 PUSH0 DUP4 ADD DUP5 PUSH2 0x2668 JUMP JUMPDEST SWAP3 SWAP2 POP POP JUMP JUMPDEST PUSH0 DUP1 REVERT JUMPDEST PUSH32 0x4E487B7100000000000000000000000000000000000000000000000000000000 PUSH0 MSTORE PUSH1 0x41 PUSH1 0x4 MSTORE PUSH1 0x24 PUSH0 REVERT JUMPDEST PUSH2 0x2803 DUP3 PUSH2 0x22FB JUMP JUMPDEST DUP2 ADD DUP2 DUP2 LT PUSH8 0xFFFFFFFFFFFFFFFF DUP3 GT OR ISZERO PUSH2 0x2822 JUMPI PUSH2 0x2821 PUSH2 0x27CD JUMP JUMPDEST JUMPDEST DUP1 PUSH1 0x40 MSTORE POP POP POP JUMP JUMPDEST PUSH0 PUSH2 0x2834 PUSH2 0x2363 JUMP JUMPDEST SWAP1 POP PUSH2 0x2840 DUP3 DUP3 PUSH2 0x27FA JUMP JUMPDEST SWAP2 SWAP1 POP JUMP JUMPDEST PUSH0 PUSH8 0xFFFFFFFFFFFFFFFF DUP3 GT ISZERO PUSH2 0x285F JUMPI PUSH2 0x285E PUSH2 0x27CD JUMP JUMPDEST JUMPDEST PUSH1 0x20 DUP3 MUL SWAP1 POP PUSH1 0x20 DUP2 ADD SWAP1 POP SWAP2 SWAP1 POP JUMP JUMPDEST PUSH0 DUP1 REVERT JUMPDEST PUSH0 PUSH2 0x2886 PUSH2 0x2881 DUP5 PUSH2 0x2845 JUMP JUMPDEST PUSH2 0x282B JUMP JUMPDEST SWAP1 POP DUP1 DUP4 DUP3 MSTORE PUSH1 0x20 DUP3 ADD SWAP1 POP PUSH1 0x20 DUP5 MUL DUP4 ADD DUP6 DUP2 GT ISZERO PUSH2 0x28A9 JUMPI PUSH2 0x28A8 PUSH2 0x2870 JUMP JUMPDEST JUMPDEST DUP4 JUMPDEST DUP2 DUP2 LT ISZERO PUSH2 0x28D2 JUMPI DUP1 PUSH2 0x28BE DUP9 DUP3 PUSH2 0x2442 JUMP JUMPDEST DUP5 MSTORE PUSH1 0x20 DUP5 ADD SWAP4 POP POP PUSH1 0x20 DUP2 ADD SWAP1 POP PUSH2 0x28AB JUMP JUMPDEST POP POP POP SWAP4 SWAP3 POP POP POP JUMP JUMPDEST PUSH0 DUP3 PUSH1 0x1F DUP4 ADD SLT PUSH2 0x28F0 JUMPI PUSH2 0x28EF PUSH2 0x27C9 JUMP JUMPDEST JUMPDEST DUP2 CALLDATALOAD PUSH2 0x2900 DUP5 DUP3 PUSH1 0x20 DUP7 ADD PUSH2 0x2874 JUMP JUMPDEST SWAP2 POP POP SWAP3 SWAP2 POP POP JUMP JUMPDEST PUSH0 DUP1 PUSH1 0x40 DUP4 DUP6 SUB SLT ISZERO PUSH2 0x291F JUMPI PUSH2 0x291E PUSH2 0x236C JUMP JUMPDEST JUMPDEST PUSH0 DUP4 ADD CALLDATALOAD PUSH8 0xFFFFFFFFFFFFFFFF DUP2 GT ISZERO PUSH2 0x293C JUMPI PUSH2 0x293B PUSH2 0x2370 JUMP JUMPDEST JUMPDEST PUSH2 0x2948 DUP6 DUP3 DUP7 ADD PUSH2 0x28DC JUMP JUMPDEST SWAP3 POP POP PUSH1 0x20 PUSH2 0x2959 DUP6 DUP3 DUP7 ADD PUSH2 0x25C4 JUMP JUMPDEST SWAP2 POP POP SWAP3 POP SWAP3 SWAP1 POP JUMP JUMPDEST PUSH0 DUP1 PUSH1 0x40 DUP4 DUP6 SUB SLT ISZERO PUSH2 0x2979 JUMPI PUSH2 0x2978 PUSH2 0x236C JUMP JUMPDEST JUMPDEST PUSH0 PUSH2 0x2986 DUP6 DUP3 DUP7 ADD PUSH2 0x2442 JUMP JUMPDEST SWAP3 POP POP PUSH1 0x20 PUSH2 0x2997 DUP6 DUP3 DUP7 ADD PUSH2 0x238A JUMP JUMPDEST SWAP2 POP POP SWAP3 POP SWAP3 SWAP1 POP JUMP JUMPDEST PUSH0 DUP1 PUSH0 PUSH1 0x60 DUP5 DUP7 SUB SLT ISZERO PUSH2 0x29B8 JUMPI PUSH2 0x29B7 PUSH2 0x236C JUMP JUMPDEST JUMPDEST PUSH0 PUSH2 0x29C5 DUP7 DUP3 DUP8 ADD PUSH2 0x2442 JUMP JUMPDEST SWAP4 POP POP PUSH1 0x20 PUSH2 0x29D6 DUP7 DUP3 DUP8 ADD PUSH2 0x2442 JUMP JUMPDEST SWAP3 POP POP PUSH1 0x40 PUSH2 0x29E7 DUP7 DUP3 DUP8 ADD PUSH2 0x238A JUMP JUMPDEST SWAP2 POP POP SWAP3 POP SWAP3 POP SWAP3 JUMP JUMPDEST PUSH32 0x4E487B7100000000000000000000000000000000000000000000000000000000 PUSH0 MSTORE PUSH1 0x22 PUSH1 0x4 MSTORE PUSH1 0x24 PUSH0 REVERT JUMPDEST PUSH0 PUSH1 0x2 DUP3 DIV SWAP1 POP PUSH1 0x1 DUP3 AND DUP1 PUSH2 0x2A35 JUMPI PUSH1 0x7F DUP3 AND SWAP2 POP JUMPDEST PUSH1 0x20 DUP3 LT DUP2 SUB PUSH2 0x2A48 JUMPI PUSH2 0x2A47 PUSH2 0x29F1 JUMP JUMPDEST JUMPDEST POP SWAP2 SWAP1 POP JUMP JUMPDEST PUSH32 0x4E487B7100000000000000000000000000000000000000000000000000000000 PUSH0 MSTORE PUSH1 0x11 PUSH1 0x4 MSTORE PUSH1 0x24 PUSH0 REVERT JUMPDEST PUSH0 PUSH2 0x2A85 DUP3 PUSH2 0x2288 JUMP JUMPDEST SWAP2 POP PUSH2 0x2A90 DUP4 PUSH2 0x2288 JUMP JUMPDEST SWAP3 POP DUP3 DUP3 MUL PUSH2 0x2A9E DUP2 PUSH2 0x2288 JUMP JUMPDEST SWAP2 POP DUP3 DUP3 DIV DUP5 EQ DUP4 ISZERO OR PUSH2 0x2AB5 JUMPI PUSH2 0x2AB4 PUSH2 0x2A4E JUMP JUMPDEST JUMPDEST POP SWAP3 SWAP2 POP POP JUMP JUMPDEST PUSH0 DUP2 MLOAD SWAP1 POP PUSH2 0x2ACA DUP2 PUSH2 0x24D1 JUMP JUMPDEST SWAP3 SWAP2 POP POP JUMP JUMPDEST PUSH0 PUSH1 0x20 DUP3 DUP5 SUB SLT ISZERO PUSH2 0x2AE5 JUMPI PUSH2 0x2AE4 PUSH2 0x236C JUMP JUMPDEST JUMPDEST PUSH0 PUSH2 0x2AF2 DUP5 DUP3 DUP6 ADD PUSH2 0x2ABC JUMP JUMPDEST SWAP2 POP POP SWAP3 SWAP2 POP POP JUMP JUMPDEST PUSH0 DUP2 PUSH1 0x1 SHR SWAP1 POP SWAP2 SWAP1 POP JUMP JUMPDEST PUSH0 DUP1 DUP3 SWAP2 POP DUP4 SWAP1 POP JUMPDEST PUSH1 0x1 DUP6 GT ISZERO PUSH2 0x2B50 JUMPI DUP1 DUP7 DIV DUP2 GT ISZERO PUSH2 0x2B2C JUMPI PUSH2 0x2B2B PUSH2 0x2A4E JUMP JUMPDEST JUMPDEST PUSH1 0x1 DUP6 AND ISZERO PUSH2 0x2B3B JUMPI DUP1 DUP3 MUL SWAP2 POP JUMPDEST DUP1 DUP2 MUL SWAP1 POP PUSH2 0x2B49 DUP6 PUSH2 0x2AFB JUMP JUMPDEST SWAP5 POP PUSH2 0x2B10 JUMP JUMPDEST SWAP5 POP SWAP5 SWAP3 POP POP POP JUMP JUMPDEST PUSH0 DUP3 PUSH2 0x2B68 JUMPI PUSH1 0x1 SWAP1 POP PUSH2 0x2C23 JUMP JUMPDEST DUP2 PUSH2 0x2B75 JUMPI PUSH0 SWAP1 POP PUSH2 0x2C23 JUMP JUMPDEST DUP2 PUSH1 0x1 DUP2 EQ PUSH2 0x2B8B JUMPI PUSH1 0x2 DUP2 EQ PUSH2 0x2B95 JUMPI PUSH2 0x2BC4 JUMP JUMPDEST PUSH1 0x1 SWAP2 POP POP PUSH2 0x2C23 JUMP JUMPDEST PUSH1 0xFF DUP5 GT ISZERO PUSH2 0x2BA7 JUMPI PUSH2 0x2BA6 PUSH2 0x2A4E JUMP JUMPDEST JUMPDEST DUP4 PUSH1 0x2 EXP SWAP2 POP DUP5 DUP3 GT ISZERO PUSH2 0x2BBE JUMPI PUSH2 0x2BBD PUSH2 0x2A4E JUMP JUMPDEST JUMPDEST POP PUSH2 0x2C23 JUMP JUMPDEST POP PUSH1 0x20 DUP4 LT PUSH2 0x133 DUP4 LT AND PUSH1 0x4E DUP5 LT PUSH1 0xB DUP5 LT AND OR ISZERO PUSH2 0x2BF9 JUMPI DUP3 DUP3 EXP SWAP1 POP DUP4 DUP2 GT ISZERO PUSH2 0x2BF4 JUMPI PUSH2 0x2BF3 PUSH2 0x2A4E JUMP JUMPDEST JUMPDEST PUSH2 0x2C23 JUMP JUMPDEST PUSH2 0x2C06 DUP5 DUP5 DUP5 PUSH1 0x1 PUSH2 0x2B07 JUMP JUMPDEST SWAP3 POP SWAP1 POP DUP2 DUP5 DIV DUP2 GT ISZERO PUSH2 0x2C1D JUMPI PUSH2 0x2C1C PUSH2 0x2A4E JUMP JUMPDEST JUMPDEST DUP2 DUP2 MUL SWAP1 POP JUMPDEST SWAP4 SWAP3 POP POP POP JUMP JUMPDEST PUSH0 PUSH2 0x2C34 DUP3 PUSH2 0x2288 JUMP JUMPDEST SWAP2 POP PUSH2 0x2C3F DUP4 PUSH2 0x24C5 JUMP JUMPDEST SWAP3 POP PUSH2 0x2C6C PUSH32 0xFFFFFFFFFFFFFFFFFFFFFFFFFFFFFFFFFFFFFFFFFFFFFFFFFFFFFFFFFFFFFFFF DUP5 DUP5 PUSH2 0x2B59 JUMP JUMPDEST SWAP1 POP SWAP3 SWAP2 POP POP JUMP JUMPDEST PUSH32 0x4E487B7100000000000000000000000000000000000000000000000000000000 PUSH0 MSTORE PUSH1 0x12 PUSH1 0x4 MSTORE PUSH1 0x24 PUSH0 REVERT JUMPDEST PUSH0 PUSH2 0x2CAB DUP3 PUSH2 0x2288 JUMP JUMPDEST SWAP2 POP PUSH2 0x2CB6 DUP4 PUSH2 0x2288 JUMP JUMPDEST SWAP3 POP DUP3 PUSH2 0x2CC6 JUMPI PUSH2 0x2CC5 PUSH2 0x2C74 JUMP JUMPDEST JUMPDEST DUP3 DUP3 DIV SWAP1 POP SWAP3 SWAP2 POP POP JUMP JUMPDEST PUSH32 0x636F6E747261637420667265657A656400000000000000000000000000000000 PUSH0 DUP3 ADD MSTORE POP JUMP JUMPDEST PUSH0 PUSH2 0x2D05 PUSH1 0x10 DUP4 PUSH2 0x22C3 JUMP JUMPDEST SWAP2 POP PUSH2 0x2D10 DUP3 PUSH2 0x2CD1 JUMP JUMPDEST PUSH1 0x20 DUP3 ADD SWAP1 POP SWAP2 SWAP1 POP JUMP JUMPDEST PUSH0 PUSH1 0x20 DUP3 ADD SWAP1 POP DUP2 DUP2 SUB PUSH0 DUP4 ADD MSTORE PUSH2 0x2D32 DUP2 PUSH2 0x2CF9 JUMP JUMPDEST SWAP1 POP SWAP2 SWAP1 POP JUMP JUMPDEST PUSH32 0x706F696E747320746F20636C61696D206C657373207468616E206D696E706F69 PUSH0 DUP3 ADD MSTORE PUSH32 0x6E74730000000000000000000000000000000000000000000000000000000000 PUSH1 0x20 DUP3 ADD MSTORE POP JUMP JUMPDEST PUSH0 PUSH2 0x2D93 PUSH1 0x23 DUP4 PUSH2 0x22C3 JUMP JUMPDEST SWAP2 POP PUSH2 0x2D9E DUP3 PUSH2 0x2D39 JUMP JUMPDEST PUSH1 0x40 DUP3 ADD SWAP1 POP SWAP2 SWAP1 POP JUMP JUMPDEST PUSH0 PUSH1 0x20 DUP3 ADD SWAP1 POP DUP2 DUP2 SUB PUSH0 DUP4 ADD MSTORE PUSH2 0x2DC0 DUP2 PUSH2 0x2D87 JUMP JUMPDEST SWAP1 POP SWAP2 SWAP1 POP JUMP JUMPDEST PUSH0 PUSH1 0x40 DUP3 ADD SWAP1 POP PUSH2 0x2DDA PUSH0 DUP4 ADD DUP6 PUSH2 0x2668 JUMP JUMPDEST PUSH2 0x2DE7 PUSH1 0x20 DUP4 ADD DUP5 PUSH2 0x2291 JUMP JUMPDEST SWAP4 SWAP3 POP POP POP JUMP JUMPDEST PUSH0 DUP2 MLOAD SWAP1 POP PUSH2 0x2DFC DUP2 PUSH2 0x25AE JUMP JUMPDEST SWAP3 SWAP2 POP POP JUMP JUMPDEST PUSH0 PUSH1 0x20 DUP3 DUP5 SUB SLT ISZERO PUSH2 0x2E17 JUMPI PUSH2 0x2E16 PUSH2 0x236C JUMP JUMPDEST JUMPDEST PUSH0 PUSH2 0x2E24 DUP5 DUP3 DUP6 ADD PUSH2 0x2DEE JUMP JUMPDEST SWAP2 POP POP SWAP3 SWAP2 POP POP JUMP JUMPDEST PUSH32 0x4E487B7100000000000000000000000000000000000000000000000000000000 PUSH0 MSTORE PUSH1 0x32 PUSH1 0x4 MSTORE PUSH1 0x24 PUSH0 REVERT JUMPDEST PUSH0 DUP2 MLOAD SWAP1 POP PUSH2 0x2E68 DUP2 PUSH2 0x2374 JUMP JUMPDEST SWAP3 SWAP2 POP POP JUMP JUMPDEST PUSH0 PUSH1 0x20 DUP3 DUP5 SUB SLT ISZERO PUSH2 0x2E83 JUMPI PUSH2 0x2E82 PUSH2 0x236C JUMP JUMPDEST JUMPDEST PUSH0 PUSH2 0x2E90 DUP5 DUP3 DUP6 ADD PUSH2 0x2E5A JUMP JUMPDEST SWAP2 POP POP SWAP3 SWAP2 POP POP JUMP JUMPDEST PUSH0 PUSH2 0x2EA3 DUP3 PUSH2 0x2288 JUMP JUMPDEST SWAP2 POP PUSH2 0x2EAE DUP4 PUSH2 0x2288 JUMP JUMPDEST SWAP3 POP DUP3 DUP3 ADD SWAP1 POP DUP1 DUP3 GT ISZERO PUSH2 0x2EC6 JUMPI PUSH2 0x2EC5 PUSH2 0x2A4E JUMP JUMPDEST JUMPDEST SWAP3 SWAP2 POP POP JUMP JUMPDEST PUSH0 PUSH2 0x2ED6 DUP3 PUSH2 0x2288 JUMP JUMPDEST SWAP2 POP PUSH2 0x2EE1 DUP4 PUSH2 0x2288 JUMP JUMPDEST SWAP3 POP DUP3 DUP3 SUB SWAP1 POP DUP2 DUP2 GT ISZERO PUSH2 0x2EF9 JUMPI PUSH2 0x2EF8 PUSH2 0x2A4E JUMP JUMPDEST JUMPDEST SWAP3 SWAP2 POP POP JUMP JUMPDEST PUSH32 0x6E6F206E6577206465706F736974206164646564000000000000000000000000 PUSH0 DUP3 ADD MSTORE POP JUMP JUMPDEST PUSH0 PUSH2 0x2F33 PUSH1 0x14 DUP4 PUSH2 0x22C3 JUMP JUMPDEST SWAP2 POP PUSH2 0x2F3E DUP3 PUSH2 0x2EFF JUMP JUMPDEST PUSH1 0x20 DUP3 ADD SWAP1 POP SWAP2 SWAP1 POP JUMP JUMPDEST PUSH0 PUSH1 0x20 DUP3 ADD SWAP1 POP DUP2 DUP2 SUB PUSH0 DUP4 ADD MSTORE PUSH2 0x2F60 DUP2 PUSH2 0x2F27 JUMP JUMPDEST SWAP1 POP SWAP2 SWAP1 POP JUMP JUMPDEST PUSH32 0x796F7520617265206E6F74207065726D69747465640000000000000000000000 PUSH0 DUP3 ADD MSTORE POP JUMP JUMPDEST PUSH0 PUSH2 0x2F9B PUSH1 0x15 DUP4 PUSH2 0x22C3 JUMP JUMPDEST SWAP2 POP PUSH2 0x2FA6 DUP3 PUSH2 0x2F67 JUMP JUMPDEST PUSH1 0x20 DUP3 ADD SWAP1 POP SWAP2 SWAP1 POP JUMP JUMPDEST PUSH0 PUSH1 0x20 DUP3 ADD SWAP1 POP DUP2 DUP2 SUB PUSH0 DUP4 ADD MSTORE PUSH2 0x2FC8 DUP2 PUSH2 0x2F8F JUMP JUMPDEST SWAP1 POP SWAP2 SWAP1 POP JUMP JUMPDEST PUSH32 0x706F696E747320746F2073776170206C657373207468616E206D696E706F696E PUSH0 DUP3 ADD MSTORE PUSH32 0x7473000000000000000000000000000000000000000000000000000000000000 PUSH1 0x20 DUP3 ADD MSTORE POP JUMP JUMPDEST PUSH0 PUSH2 0x3029 PUSH1 0x22 DUP4 PUSH2 0x22C3 JUMP JUMPDEST SWAP2 POP PUSH2 0x3034 DUP3 PUSH2 0x2FCF JUMP JUMPDEST PUSH1 0x40 DUP3 ADD SWAP1 POP SWAP2 SWAP1 POP JUMP JUMPDEST PUSH0 PUSH1 0x20 DUP3 ADD SWAP1 POP DUP2 DUP2 SUB PUSH0 DUP4 ADD MSTORE PUSH2 0x3056 DUP2 PUSH2 0x301D JUMP JUMPDEST SWAP1 POP SWAP2 SWAP1 POP JUMP JUMPDEST PUSH32 0x6E6F7420656E6F75676820706F696E7473000000000000000000000000000000 PUSH0 DUP3 ADD MSTORE POP JUMP JUMPDEST PUSH0 PUSH2 0x3091 PUSH1 0x11 DUP4 PUSH2 0x22C3 JUMP JUMPDEST SWAP2 POP PUSH2 0x309C DUP3 PUSH2 0x305D JUMP JUMPDEST PUSH1 0x20 DUP3 ADD SWAP1 POP SWAP2 SWAP1 POP JUMP JUMPDEST PUSH0 PUSH1 0x20 DUP3 ADD SWAP1 POP DUP2 DUP2 SUB PUSH0 DUP4 ADD MSTORE PUSH2 0x30BE DUP2 PUSH2 0x3085 JUMP JUMPDEST SWAP1 POP SWAP2 SWAP1 POP JUMP JUMPDEST PUSH0 PUSH1 0x80 DUP3 ADD SWAP1 POP PUSH2 0x30D8 PUSH0 DUP4 ADD DUP8 PUSH2 0x2668 JUMP JUMPDEST PUSH2 0x30E5 PUSH1 0x20 DUP4 ADD DUP7 PUSH2 0x2291 JUMP JUMPDEST PUSH2 0x30F2 PUSH1 0x40 DUP4 ADD DUP6 PUSH2 0x2291 JUMP JUMPDEST PUSH2 0x30FF PUSH1 0x60 DUP4 ADD DUP5 PUSH2 0x2291 JUMP JUMPDEST SWAP6 SWAP5 POP POP POP POP POP JUMP JUMPDEST PUSH32 0x7369672075736564000000000000000000000000000000000000000000000000 PUSH0 DUP3 ADD MSTORE POP JUMP JUMPDEST PUSH0 PUSH2 0x313C PUSH1 0x8 DUP4 PUSH2 0x22C3 JUMP JUMPDEST SWAP2 POP PUSH2 0x3147 DUP3 PUSH2 0x3108 JUMP JUMPDEST PUSH1 0x20 DUP3 ADD SWAP1 POP SWAP2 SWAP1 POP JUMP JUMPDEST PUSH0 PUSH1 0x20 DUP3 ADD SWAP1 POP DUP2 DUP2 SUB PUSH0 DUP4 ADD MSTORE PUSH2 0x3169 DUP2 PUSH2 0x3130 JUMP JUMPDEST SWAP1 POP SWAP2 SWAP1 POP JUMP JUMPDEST PUSH0 PUSH1 0xA0 DUP3 ADD SWAP1 POP PUSH2 0x3183 PUSH0 DUP4 ADD DUP9 PUSH2 0x249D JUMP JUMPDEST PUSH2 0x3190 PUSH1 0x20 DUP4 ADD DUP8 PUSH2 0x2668 JUMP JUMPDEST PUSH2 0x319D PUSH1 0x40 DUP4 ADD DUP7 PUSH2 0x2668 JUMP JUMPDEST PUSH2 0x31AA PUSH1 0x60 DUP4 ADD DUP6 PUSH2 0x2291 JUMP JUMPDEST PUSH2 0x31B7 PUSH1 0x80 DUP4 ADD DUP5 PUSH2 0x2291 JUMP JUMPDEST SWAP7 SWAP6 POP POP POP POP POP POP JUMP JUMPDEST PUSH0 PUSH1 0x40 DUP3 ADD SWAP1 POP PUSH2 0x31D4 PUSH0 DUP4 ADD DUP6 PUSH2 0x2668 JUMP JUMPDEST PUSH2 0x31E1 PUSH1 0x20 DUP4 ADD DUP5 PUSH2 0x2668 JUMP JUMPDEST SWAP4 SWAP3 POP POP POP JUMP JUMPDEST PUSH0 PUSH1 0xA0 DUP3 ADD SWAP1 POP PUSH2 0x31FB PUSH0 DUP4 ADD DUP9 PUSH2 0x249D JUMP JUMPDEST PUSH2 0x3208 PUSH1 0x20 DUP4 ADD DUP8 PUSH2 0x249D JUMP JUMPDEST PUSH2 0x3215 PUSH1 0x40 DUP4 ADD DUP7 PUSH2 0x249D JUMP JUMPDEST PUSH2 0x3222 PUSH1 0x60 DUP4 ADD DUP6 PUSH2 0x2291 JUMP JUMPDEST PUSH2 0x322F PUSH1 0x80 DUP4 ADD DUP5 PUSH2 0x2668 JUMP JUMPDEST SWAP7 SWAP6 POP POP POP POP POP POP JUMP JUMPDEST PUSH2 0x3242 DUP2 PUSH2 0x24C5 JUMP JUMPDEST DUP3 MSTORE POP POP JUMP JUMPDEST PUSH0 PUSH1 0x80 DUP3 ADD SWAP1 POP PUSH2 0x325B PUSH0 DUP4 ADD DUP8 PUSH2 0x249D JUMP JUMPDEST PUSH2 0x3268 PUSH1 0x20 DUP4 ADD DUP7 PUSH2 0x3239 JUMP JUMPDEST PUSH2 0x3275 PUSH1 0x40 DUP4 ADD DUP6 PUSH2 0x249D JUMP JUMPDEST PUSH2 0x3282 PUSH1 0x60 DUP4 ADD DUP5 PUSH2 0x249D JUMP JUMPDEST SWAP6 SWAP5 POP POP POP POP POP JUMP JUMPDEST PUSH32 0x4E487B7100000000000000000000000000000000000000000000000000000000 PUSH0 MSTORE PUSH1 0x21 PUSH1 0x4 MSTORE PUSH1 0x24 PUSH0 REVERT INVALID LOG2 PUSH5 0x6970667358 0x22 SLT KECCAK256 0xB5 CALL 0xA7 BLOCKHASH 0x26 AND PUSH23 0x7265FC9BA7C9FE13F678998A6DFCB0AB008D3CAE4A265A DUP12 0xEA PUSH5 0x736F6C6343 STOP ADDMOD AND STOP CALLER "
		},
		"gasEstimates": {
			"creation": {
				"codeDepositCost": "2607600",
				"executionCost": "infinite",
				"totalCost": "infinite"
			},
			"external": {
				"DOMAIN_SEPARATOR()": "infinite",
				"TotalfeescollectedPaymentCoin()": "2536",
				"admin()": "2574",
				"checkAmountToRecive(uint256)": "infinite",
				"claimPointsAdmin(address,uint256)": "infinite",
				"claimedPaymentCoin()": "2535",
				"depositFee()": "2515",
				"eip712Domain()": "infinite",
				"emergencyWithdraw(address,address,uint256)": "infinite",
				"freezeContract(bool)": "infinite",
				"freezePermit()": "2563",
				"initContractBalancePaymentCoin()": "2472",
				"onlyApprovedAdmin(address)": "2944",
				"owner()": "2605",
				"permitClaimPoints(address,uint256,uint256,uint8,bytes32,bytes32)": "infinite",
				"permitSwapToPaymentCoin(address,uint256,uint256,uint8,bytes32,bytes32)": "infinite",
				"pointsMin()": "2492",
				"rate()": "2515",
				"renounceOwnership()": "infinite",
				"setAdmin(address)": "infinite",
				"setApprovedAdmin(address[],bool)": "infinite",
				"setMinPointsToSWap(uint256)": "infinite",
				"setPaymentDepositfees(uint256)": "infinite",
				"setRate(uint256)": "infinite",
				"setWithdrawalFee(uint256)": "infinite",
				"setpaymentTokenAndpoints(address,address)": "infinite",
				"swapToPaymentCoinAdmin(address,uint256)": "infinite",
				"transferOwnership(address)": "infinite",
				"vaultName()": "infinite",
				"withdrawalFee()": "2493",
				"withdrawfees(address)": "infinite"
			},
			"internal": {
				"_permit(address,uint256,uint256,uint8,bytes32,bytes32)": "infinite"
			}
		},
		"methodIdentifiers": {
			"DOMAIN_SEPARATOR()": "3644e515",
			"TotalfeescollectedPaymentCoin()": "c4a9e858",
			"admin()": "f851a440",
			"checkAmountToRecive(uint256)": "0d461e61",
			"claimPointsAdmin(address,uint256)": "c4c020f0",
			"claimedPaymentCoin()": "fd918716",
			"depositFee()": "67a52793",
			"eip712Domain()": "84b0196e",
			"emergencyWithdraw(address,address,uint256)": "e63ea408",
			"freezeContract(bool)": "6b4c0789",
			"freezePermit()": "252de51b",
			"initContractBalancePaymentCoin()": "06e0e582",
			"onlyApprovedAdmin(address)": "7d91fb46",
			"owner()": "8da5cb5b",
			"permitClaimPoints(address,uint256,uint256,uint8,bytes32,bytes32)": "6313c6d8",
			"permitSwapToPaymentCoin(address,uint256,uint256,uint8,bytes32,bytes32)": "f9c3a1e8",
			"pointsMin()": "e1fefd42",
			"rate()": "2c4e722e",
			"renounceOwnership()": "715018a6",
			"setAdmin(address)": "704b6c02",
			"setApprovedAdmin(address[],bool)": "945c147b",
			"setMinPointsToSWap(uint256)": "c08e7286",
			"setPaymentDepositfees(uint256)": "76ee947f",
			"setRate(uint256)": "34fcf437",
			"setWithdrawalFee(uint256)": "ac1e5025",
			"setpaymentTokenAndpoints(address,address)": "258ba1ee",
			"swapToPaymentCoinAdmin(address,uint256)": "f55f4206",
			"transferOwnership(address)": "f2fde38b",
			"vaultName()": "0ace9ca0",
			"withdrawalFee()": "8bc7e8c4",
			"withdrawfees(address)": "9683cdc4"
		}
	},
	"abi": [
		{
			"inputs": [
				{
					"internalType": "address",
					"name": "owner",
					"type": "address"
				},
				{
					"internalType": "string",
					"name": "name",
					"type": "string"
				},
				{
					"internalType": "address",
					"name": "paymentAddress",
					"type": "address"
				},
				{
					"internalType": "address",
					"name": "pointsaddress",
					"type": "address"
				}
			],
			"stateMutability": "nonpayable",
			"type": "constructor"
		},
		{
			"inputs": [],
			"name": "ECDSAInvalidSignature",
			"type": "error"
		},
		{
			"inputs": [
				{
					"internalType": "uint256",
					"name": "length",
					"type": "uint256"
				}
			],
			"name": "ECDSAInvalidSignatureLength",
			"type": "error"
		},
		{
			"inputs": [
				{
					"internalType": "bytes32",
					"name": "s",
					"type": "bytes32"
				}
			],
			"name": "ECDSAInvalidSignatureS",
			"type": "error"
		},
		{
			"inputs": [
				{
					"internalType": "uint256",
					"name": "deadline",
					"type": "uint256"
				}
			],
			"name": "ERC2612ExpiredSignature",
			"type": "error"
		},
		{
			"inputs": [
				{
					"internalType": "address",
					"name": "signer",
					"type": "address"
				},
				{
					"internalType": "address",
					"name": "owner",
					"type": "address"
				}
			],
			"name": "ERC2612InvalidSigner",
			"type": "error"
		},
		{
			"inputs": [],
			"name": "InvalidShortString",
			"type": "error"
		},
		{
			"inputs": [
				{
					"internalType": "address",
					"name": "owner",
					"type": "address"
				}
			],
			"name": "OwnableInvalidOwner",
			"type": "error"
		},
		{
			"inputs": [
				{
					"internalType": "address",
					"name": "account",
					"type": "address"
				}
			],
			"name": "OwnableUnauthorizedAccount",
			"type": "error"
		},
		{
			"inputs": [
				{
					"internalType": "string",
					"name": "str",
					"type": "string"
				}
			],
			"name": "StringTooLong",
			"type": "error"
		},
		{
			"anonymous": false,
			"inputs": [],
			"name": "EIP712DomainChanged",
			"type": "event"
		},
		{
			"anonymous": false,
			"inputs": [
				{
					"indexed": true,
					"internalType": "address",
					"name": "previousOwner",
					"type": "address"
				},
				{
					"indexed": true,
					"internalType": "address",
					"name": "newOwner",
					"type": "address"
				}
			],
			"name": "OwnershipTransferred",
			"type": "event"
		},
		{
			"anonymous": false,
			"inputs": [
				{
					"indexed": false,
					"internalType": "address",
					"name": "user",
					"type": "address"
				},
				{
					"indexed": false,
					"internalType": "uint256",
					"name": "amount",
					"type": "uint256"
				}
			],
			"name": "PointsClaimed",
			"type": "event"
		},
		{
			"anonymous": false,
			"inputs": [
				{
					"indexed": false,
					"internalType": "address",
					"name": "user",
					"type": "address"
				},
				{
					"indexed": false,
					"internalType": "uint256",
					"name": "pointToSwap",
					"type": "uint256"
				},
				{
					"indexed": false,
					"internalType": "uint256",
					"name": "paymentTokenRecieved",
					"type": "uint256"
				},
				{
					"indexed": false,
					"internalType": "uint256",
					"name": "_fees",
					"type": "uint256"
				}
			],
			"name": "swap",
			"type": "event"
		},
		{
			"inputs": [],
			"name": "DOMAIN_SEPARATOR",
			"outputs": [
				{
					"internalType": "bytes32",
					"name": "",
					"type": "bytes32"
				}
			],
			"stateMutability": "view",
			"type": "function"
		},
		{
			"inputs": [],
			"name": "TotalfeescollectedPaymentCoin",
			"outputs": [
				{
					"internalType": "uint256",
					"name": "",
					"type": "uint256"
				}
			],
			"stateMutability": "view",
			"type": "function"
		},
		{
			"inputs": [],
			"name": "admin",
			"outputs": [
				{
					"internalType": "address",
					"name": "",
					"type": "address"
				}
			],
			"stateMutability": "view",
			"type": "function"
		},
		{
			"inputs": [
				{
					"internalType": "uint256",
					"name": "pointToSwap",
					"type": "uint256"
				}
			],
			"name": "checkAmountToRecive",
			"outputs": [
				{
					"internalType": "uint256",
					"name": "",
					"type": "uint256"
				}
			],
			"stateMutability": "view",
			"type": "function"
		},
		{
			"inputs": [
				{
					"internalType": "address",
					"name": "user",
					"type": "address"
				},
				{
					"internalType": "uint256",
					"name": "amount",
					"type": "uint256"
				}
			],
			"name": "claimPointsAdmin",
			"outputs": [],
			"stateMutability": "nonpayable",
			"type": "function"
		},
		{
			"inputs": [],
			"name": "claimedPaymentCoin",
			"outputs": [
				{
					"internalType": "uint256",
					"name": "",
					"type": "uint256"
				}
			],
			"stateMutability": "view",
			"type": "function"
		},
		{
			"inputs": [],
			"name": "depositFee",
			"outputs": [
				{
					"internalType": "uint256",
					"name": "",
					"type": "uint256"
				}
			],
			"stateMutability": "view",
			"type": "function"
		},
		{
			"inputs": [],
			"name": "eip712Domain",
			"outputs": [
				{
					"internalType": "bytes1",
					"name": "fields",
					"type": "bytes1"
				},
				{
					"internalType": "string",
					"name": "name",
					"type": "string"
				},
				{
					"internalType": "string",
					"name": "version",
					"type": "string"
				},
				{
					"internalType": "uint256",
					"name": "chainId",
					"type": "uint256"
				},
				{
					"internalType": "address",
					"name": "verifyingContract",
					"type": "address"
				},
				{
					"internalType": "bytes32",
					"name": "salt",
					"type": "bytes32"
				},
				{
					"internalType": "uint256[]",
					"name": "extensions",
					"type": "uint256[]"
				}
			],
			"stateMutability": "view",
			"type": "function"
		},
		{
			"inputs": [
				{
					"internalType": "address",
					"name": "_tokenAddress",
					"type": "address"
				},
				{
					"internalType": "address",
					"name": "_to",
					"type": "address"
				},
				{
					"internalType": "uint256",
					"name": "_amount",
					"type": "uint256"
				}
			],
			"name": "emergencyWithdraw",
			"outputs": [],
			"stateMutability": "nonpayable",
			"type": "function"
		},
		{
			"inputs": [
				{
					"internalType": "bool",
					"name": "_freeze",
					"type": "bool"
				}
			],
			"name": "freezeContract",
			"outputs": [],
			"stateMutability": "nonpayable",
			"type": "function"
		},
		{
			"inputs": [],
			"name": "freezePermit",
			"outputs": [
				{
					"internalType": "bool",
					"name": "",
					"type": "bool"
				}
			],
			"stateMutability": "view",
			"type": "function"
		},
		{
			"inputs": [],
			"name": "initContractBalancePaymentCoin",
			"outputs": [
				{
					"internalType": "uint256",
					"name": "",
					"type": "uint256"
				}
			],
			"stateMutability": "view",
			"type": "function"
		},
		{
			"inputs": [
				{
					"internalType": "address",
					"name": "",
					"type": "address"
				}
			],
			"name": "onlyApprovedAdmin",
			"outputs": [
				{
					"internalType": "bool",
					"name": "",
					"type": "bool"
				}
			],
			"stateMutability": "view",
			"type": "function"
		},
		{
			"inputs": [],
			"name": "owner",
			"outputs": [
				{
					"internalType": "address",
					"name": "",
					"type": "address"
				}
			],
			"stateMutability": "view",
			"type": "function"
		},
		{
			"inputs": [
				{
					"internalType": "address",
					"name": "user",
					"type": "address"
				},
				{
					"internalType": "uint256",
					"name": "amount",
					"type": "uint256"
				},
				{
					"internalType": "uint256",
					"name": "deadline",
					"type": "uint256"
				},
				{
					"internalType": "uint8",
					"name": "v",
					"type": "uint8"
				},
				{
					"internalType": "bytes32",
					"name": "r",
					"type": "bytes32"
				},
				{
					"internalType": "bytes32",
					"name": "s",
					"type": "bytes32"
				}
			],
			"name": "permitClaimPoints",
			"outputs": [],
			"stateMutability": "nonpayable",
			"type": "function"
		},
		{
			"inputs": [
				{
					"internalType": "address",
					"name": "user",
					"type": "address"
				},
				{
					"internalType": "uint256",
					"name": "pointToSwap",
					"type": "uint256"
				},
				{
					"internalType": "uint256",
					"name": "deadline",
					"type": "uint256"
				},
				{
					"internalType": "uint8",
					"name": "v",
					"type": "uint8"
				},
				{
					"internalType": "bytes32",
					"name": "r",
					"type": "bytes32"
				},
				{
					"internalType": "bytes32",
					"name": "s",
					"type": "bytes32"
				}
			],
			"name": "permitSwapToPaymentCoin",
			"outputs": [],
			"stateMutability": "nonpayable",
			"type": "function"
		},
		{
			"inputs": [],
			"name": "pointsMin",
			"outputs": [
				{
					"internalType": "uint256",
					"name": "",
					"type": "uint256"
				}
			],
			"stateMutability": "view",
			"type": "function"
		},
		{
			"inputs": [],
			"name": "rate",
			"outputs": [
				{
					"internalType": "uint256",
					"name": "",
					"type": "uint256"
				}
			],
			"stateMutability": "view",
			"type": "function"
		},
		{
			"inputs": [],
			"name": "renounceOwnership",
			"outputs": [],
			"stateMutability": "nonpayable",
			"type": "function"
		},
		{
			"inputs": [
				{
					"internalType": "address",
					"name": "_admin",
					"type": "address"
				}
			],
			"name": "setAdmin",
			"outputs": [],
			"stateMutability": "nonpayable",
			"type": "function"
		},
		{
			"inputs": [
				{
					"internalType": "address[]",
					"name": "_addresses",
					"type": "address[]"
				},
				{
					"internalType": "bool",
					"name": "_val",
					"type": "bool"
				}
			],
			"name": "setApprovedAdmin",
			"outputs": [],
			"stateMutability": "nonpayable",
			"type": "function"
		},
		{
			"inputs": [
				{
					"internalType": "uint256",
					"name": "_pointsMin",
					"type": "uint256"
				}
			],
			"name": "setMinPointsToSWap",
			"outputs": [],
			"stateMutability": "nonpayable",
			"type": "function"
		},
		{
			"inputs": [
				{
					"internalType": "uint256",
					"name": "_fee",
					"type": "uint256"
				}
			],
			"name": "setPaymentDepositfees",
			"outputs": [],
			"stateMutability": "nonpayable",
			"type": "function"
		},
		{
			"inputs": [
				{
					"internalType": "uint256",
					"name": "_rate",
					"type": "uint256"
				}
			],
			"name": "setRate",
			"outputs": [],
			"stateMutability": "nonpayable",
			"type": "function"
		},
		{
			"inputs": [
				{
					"internalType": "uint256",
					"name": "_fee",
					"type": "uint256"
				}
			],
			"name": "setWithdrawalFee",
			"outputs": [],
			"stateMutability": "nonpayable",
			"type": "function"
		},
		{
			"inputs": [
				{
					"internalType": "address",
					"name": "paymentAddress",
					"type": "address"
				},
				{
					"internalType": "address",
					"name": "pointsaddress",
					"type": "address"
				}
			],
			"name": "setpaymentTokenAndpoints",
			"outputs": [],
			"stateMutability": "nonpayable",
			"type": "function"
		},
		{
			"inputs": [
				{
					"internalType": "address",
					"name": "user",
					"type": "address"
				},
				{
					"internalType": "uint256",
					"name": "pointToSwap",
					"type": "uint256"
				}
			],
			"name": "swapToPaymentCoinAdmin",
			"outputs": [],
			"stateMutability": "nonpayable",
			"type": "function"
		},
		{
			"inputs": [
				{
					"internalType": "address",
					"name": "newOwner",
					"type": "address"
				}
			],
			"name": "transferOwnership",
			"outputs": [],
			"stateMutability": "nonpayable",
			"type": "function"
		},
		{
			"inputs": [],
			"name": "vaultName",
			"outputs": [
				{
					"internalType": "string",
					"name": "",
					"type": "string"
				}
			],
			"stateMutability": "view",
			"type": "function"
		},
		{
			"inputs": [],
			"name": "withdrawalFee",
			"outputs": [
				{
					"internalType": "uint256",
					"name": "",
					"type": "uint256"
				}
			],
			"stateMutability": "view",
			"type": "function"
		},
		{
			"inputs": [
				{
					"internalType": "address",
					"name": "feeTakerAddress",
					"type": "address"
				}
			],
			"name": "withdrawfees",
			"outputs": [],
			"stateMutability": "nonpayable",
			"type": "function"
		}
	]
}