{
	"data": {
		"bytecode": {
			"linkReferences": {},
			"object": "61016060405234801562000011575f80fd5b5060405162003ec538038062003ec58339818101604052810190620000379190620006c3565b826040518060400160405280600181526020017f3100000000000000000000000000000000000000000000000000000000000000815250855f73ffffffffffffffffffffffffffffffffffffffff168173ffffffffffffffffffffffffffffffffffffffff1603620000e2575f6040517f1e4fbdf7000000000000000000000000000000000000000000000000000000008152600401620000d9919062000762565b60405180910390fd5b620000f381620002f860201b60201c565b506200010a600183620003b960201b90919060201c565b610120818152505062000128600282620003b960201b90919060201c565b6101408181525050818051906020012060e08181525050808051906020012061010081815250504660a08181525050620001676200040e60201b60201c565b608081815250503073ffffffffffffffffffffffffffffffffffffffff1660c08173ffffffffffffffffffffffffffffffffffffffff1681525050505082600d9081620001b59190620009b4565b50600a60058190555061138860068190555069021e19e0c9bab24000006008819055508160035f6101000a81548173ffffffffffffffffffffffffffffffffffffffff021916908373ffffffffffffffffffffffffffffffffffffffff1602179055508060045f6101000a81548173ffffffffffffffffffffffffffffffffffffffff021916908373ffffffffffffffffffffffffffffffffffffffff16021790555083600e60016101000a81548173ffffffffffffffffffffffffffffffffffffffff021916908373ffffffffffffffffffffffffffffffffffffffff1602179055506001600c5f8673ffffffffffffffffffffffffffffffffffffffff1673ffffffffffffffffffffffffffffffffffffffff1681526020019081526020015f205f6101000a81548160ff0219169083151502179055505050505062000c2e565b5f805f9054906101000a900473ffffffffffffffffffffffffffffffffffffffff169050815f806101000a81548173ffffffffffffffffffffffffffffffffffffffff021916908373ffffffffffffffffffffffffffffffffffffffff1602179055508173ffffffffffffffffffffffffffffffffffffffff168173ffffffffffffffffffffffffffffffffffffffff167f8be0079c531659141344cd1fd0a4f28419497f9722a3daafe3b4186f6b6457e060405160405180910390a35050565b5f602083511015620003de57620003d6836200046a60201b60201c565b905062000408565b82620003f083620004d460201b60201c565b5f019081620004009190620009b4565b5060ff5f1b90505b92915050565b5f7f8b73c3c69bb8fe3d512ecc4cf759cc79239f7b179b0ffacaa9a75d522b39400f60e0516101005146306040516020016200044f95949392919062000ac3565b60405160208183030381529060405280519060200120905090565b5f80829050601f81511115620004b957826040517f305a27a9000000000000000000000000000000000000000000000000000000008152600401620004b0919062000b6e565b60405180910390fd5b805181620004c79062000bbf565b5f1c175f1b915050919050565b5f819050919050565b5f604051905090565b5f80fd5b5f80fd5b5f73ffffffffffffffffffffffffffffffffffffffff82169050919050565b5f6200051982620004ee565b9050919050565b6200052b816200050d565b811462000536575f80fd5b50565b5f81519050620005498162000520565b92915050565b5f80fd5b5f80fd5b5f601f19601f8301169050919050565b7f4e487b71000000000000000000000000000000000000000000000000000000005f52604160045260245ffd5b6200059f8262000557565b810181811067ffffffffffffffff82111715620005c157620005c062000567565b5b80604052505050565b5f620005d5620004dd565b9050620005e3828262000594565b919050565b5f67ffffffffffffffff82111562000605576200060462000567565b5b620006108262000557565b9050602081019050919050565b5f5b838110156200063c5780820151818401526020810190506200061f565b5f8484015250505050565b5f6200065d6200065784620005e8565b620005ca565b9050828152602081018484840111156200067c576200067b62000553565b5b620006898482856200061d565b509392505050565b5f82601f830112620006a857620006a76200054f565b5b8151620006ba84826020860162000647565b91505092915050565b5f805f8060808587031215620006de57620006dd620004e6565b5b5f620006ed8782880162000539565b945050602085015167ffffffffffffffff811115620007115762000710620004ea565b5b6200071f8782880162000691565b9350506040620007328782880162000539565b9250506060620007458782880162000539565b91505092959194509250565b6200075c816200050d565b82525050565b5f602082019050620007775f83018462000751565b92915050565b5f81519050919050565b7f4e487b71000000000000000000000000000000000000000000000000000000005f52602260045260245ffd5b5f6002820490506001821680620007cc57607f821691505b602082108103620007e257620007e162000787565b5b50919050565b5f819050815f5260205f209050919050565b5f6020601f8301049050919050565b5f82821b905092915050565b5f60088302620008467fffffffffffffffffffffffffffffffffffffffffffffffffffffffffffffffff8262000809565b62000852868362000809565b95508019841693508086168417925050509392505050565b5f819050919050565b5f819050919050565b5f6200089c6200089662000890846200086a565b62000873565b6200086a565b9050919050565b5f819050919050565b620008b7836200087c565b620008cf620008c682620008a3565b84845462000815565b825550505050565b5f90565b620008e5620008d7565b620008f2818484620008ac565b505050565b5b8181101562000919576200090d5f82620008db565b600181019050620008f8565b5050565b601f82111562000968576200093281620007e8565b6200093d84620007fa565b810160208510156200094d578190505b620009656200095c85620007fa565b830182620008f7565b50505b505050565b5f82821c905092915050565b5f6200098a5f19846008026200096d565b1980831691505092915050565b5f620009a4838362000979565b9150826002028217905092915050565b620009bf826200077d565b67ffffffffffffffff811115620009db57620009da62000567565b5b620009e78254620007b4565b620009f48282856200091d565b5f60209050601f83116001811462000a2a575f841562000a15578287015190505b62000a21858262000997565b86555062000a90565b601f19841662000a3a86620007e8565b5f5b8281101562000a635784890151825560018201915060208501945060208101905062000a3c565b8683101562000a83578489015162000a7f601f89168262000979565b8355505b6001600288020188555050505b505050505050565b5f819050919050565b62000aac8162000a98565b82525050565b62000abd816200086a565b82525050565b5f60a08201905062000ad85f83018862000aa1565b62000ae7602083018762000aa1565b62000af6604083018662000aa1565b62000b05606083018562000ab2565b62000b14608083018462000751565b9695505050505050565b5f82825260208201905092915050565b5f62000b3a826200077d565b62000b46818562000b1e565b935062000b588185602086016200061d565b62000b638162000557565b840191505092915050565b5f6020820190508181035f83015262000b88818462000b2e565b905092915050565b5f81519050919050565b5f819050602082019050919050565b5f62000bb6825162000a98565b80915050919050565b5f62000bcb8262000b90565b8262000bd78462000b9a565b905062000be48162000ba9565b9250602082101562000c275762000c227fffffffffffffffffffffffffffffffffffffffffffffffffffffffffffffffff8360200360080262000809565b831692505b5050919050565b60805160a05160c05160e05161010051610120516101405161324562000c805f395f611d3c01525f611d0101525f611dba01525f611d9901525f6118af01525f61190501525f61192e01526132455ff3fe608060405234801561000f575f80fd5b50600436106101e3575f3560e01c806384b0196e1161010d578063c4c020f0116100a0578063f55f42061161006f578063f55f42061461050d578063f851a44014610529578063f9c3a1e814610547578063fd91871614610563576101e3565b8063c4c020f01461049b578063e1fefd42146104b7578063e63ea408146104d5578063f2fde38b146104f1576101e3565b80639683cdc4116100dc5780639683cdc414610429578063ac1e502514610445578063c08e728614610461578063c4a9e8581461047d576101e3565b806384b0196e146103ad5780638bc7e8c4146103d15780638da5cb5b146103ef578063945c147b1461040d576101e3565b80633644e51511610185578063704b6c0211610154578063704b6c021461033b578063715018a61461035757806376ee947f146103615780637d91fb461461037d576101e3565b80633644e515146102c75780636313c6d8146102e557806367a52793146103015780636b4c07891461031f576101e3565b8063252de51b116101c1578063252de51b14610253578063258ba1ee146102715780632c4e722e1461028d57806334fcf437146102ab576101e3565b806306e0e582146101e75780630ace9ca0146102055780630d461e6114610223575b5f80fd5b6101ef610581565b6040516101fc919061225f565b60405180910390f35b61020d610587565b60405161021a9190612302565b60405180910390f35b61023d6004803603810190610238919061235d565b610613565b60405161024a919061225f565b60405180910390f35b61025b6106f1565b60405161026891906123a2565b60405180910390f35b61028b60048036038101906102869190612415565b610703565b005b61029561078f565b6040516102a2919061225f565b60405180910390f35b6102c560048036038101906102c0919061235d565b610795565b005b6102cf6107a7565b6040516102dc919061246b565b60405180910390f35b6102ff60048036038101906102fa91906124e4565b6107b5565b005b61030961093a565b604051610316919061225f565b60405180910390f35b61033960048036038101906103349190612597565b610940565b005b610355600480360381019061035091906125c2565b610964565b005b61035f6109b0565b005b61037b6004803603810190610376919061235d565b6109c3565b005b610397600480360381019061039291906125c2565b6109d5565b6040516103a491906123a2565b60405180910390f35b6103b56109f2565b6040516103c897969594939291906126ed565b60405180910390f35b6103d9610a97565b6040516103e6919061225f565b60405180910390f35b6103f7610a9d565b604051610404919061276f565b60405180910390f35b610427600480360381019061042291906128c8565b610ac4565b005b610443600480360381019061043e91906125c2565b610b57565b005b61045f600480360381019061045a919061235d565b610d16565b005b61047b6004803603810190610476919061235d565b610d28565b005b610485610d4d565b604051610492919061225f565b60405180910390f35b6104b560048036038101906104b09190612922565b610d53565b005b6104bf610f02565b6040516104cc919061225f565b60405180910390f35b6104ef60048036038101906104ea9190612960565b610f08565b005b61050b600480360381019061050691906125c2565b610f91565b005b61052760048036038101906105229190612922565b611015565b005b61053161141c565b60405161053e919061276f565b60405180910390f35b610561600480360381019061055c91906124e4565b611442565b005b61056b61181f565b604051610578919061225f565b60405180910390f35b60095481565b600d8054610594906129dd565b80601f01602080910402602001604051908101604052809291908181526020018280546105c0906129dd565b801561060b5780601f106105e25761010080835404028352916020019161060b565b820191905f5260205f20905b8154815290600101906020018083116105ee57829003601f168201915b505050505081565b5f80670de0b6b3a764000060065461062b9190612a3a565b60035f9054906101000a900473ffffffffffffffffffffffffffffffffffffffff1673ffffffffffffffffffffffffffffffffffffffff1663313ce5676040518163ffffffff1660e01b8152600401602060405180830381865afa158015610695573d5f803e3d5ffd5b505050506040513d601f19601f820116820180604052508101906106b99190612a8f565b600a6106c59190612be9565b6001856106d29190612a3a565b6106dc9190612a3a565b6106e69190612c60565b905080915050919050565b600e5f9054906101000a900460ff1681565b61070b611825565b8160035f6101000a81548173ffffffffffffffffffffffffffffffffffffffff021916908373ffffffffffffffffffffffffffffffffffffffff1602179055508060045f6101000a81548173ffffffffffffffffffffffffffffffffffffffff021916908373ffffffffffffffffffffffffffffffffffffffff1602179055505050565b60065481565b61079d611825565b8060068190555050565b5f6107b06118ac565b905090565b6107c3868686868686611962565b5f1515600e5f9054906101000a900460ff16151514610817576040517f08c379a000000000000000000000000000000000000000000000000000000000815260040161080e90612cda565b60405180910390fd5b60085485101561085c576040517f08c379a000000000000000000000000000000000000000000000000000000000815260040161085390612d68565b60405180910390fd5b60045f9054906101000a900473ffffffffffffffffffffffffffffffffffffffff1673ffffffffffffffffffffffffffffffffffffffff1663a9059cbb87876040518363ffffffff1660e01b81526004016108b8929190612d86565b6020604051808303815f875af11580156108d4573d5f803e3d5ffd5b505050506040513d601f19601f820116820180604052508101906108f89190612dc1565b507fba953728785de35be3827ee7a7a7867a8472947562602939440e6c0bdbf4725e868660405161092a929190612d86565b60405180910390a1505050505050565b60055481565b610948611825565b80600e5f6101000a81548160ff02191690831515021790555050565b61096c611825565b80600e60016101000a81548173ffffffffffffffffffffffffffffffffffffffff021916908373ffffffffffffffffffffffffffffffffffffffff16021790555050565b6109b8611825565b6109c15f611c37565b565b6109cb611825565b8060058190555050565b600c602052805f5260405f205f915054906101000a900460ff1681565b5f6060805f805f6060610a03611cf8565b610a0b611d33565b46305f801b5f67ffffffffffffffff811115610a2a57610a2961278c565b5b604051908082528060200260200182016040528015610a585781602001602082028036833780820191505090505b507f0f00000000000000000000000000000000000000000000000000000000000000959493929190965096509650965096509650965090919293949596565b60075481565b5f805f9054906101000a900473ffffffffffffffffffffffffffffffffffffffff16905090565b610acc611825565b5f5b8251811015610b525781600c5f858481518110610aee57610aed612dec565b5b602002602001015173ffffffffffffffffffffffffffffffffffffffff1673ffffffffffffffffffffffffffffffffffffffff1681526020019081526020015f205f6101000a81548160ff0219169083151502179055508080600101915050610ace565b505050565b610b5f611825565b5f60035f9054906101000a900473ffffffffffffffffffffffffffffffffffffffff1673ffffffffffffffffffffffffffffffffffffffff166370a08231306040518263ffffffff1660e01b8152600401610bba919061276f565b602060405180830381865afa158015610bd5573d5f803e3d5ffd5b505050506040513d601f19601f82011682018060405250810190610bf99190612e2d565b90505f600954600b54600a5484610c109190612e58565b610c1a9190612e58565b610c249190612e8b565b90508060095f828254610c379190612e58565b925050819055505f606460055483610c4f9190612a3a565b610c599190612c60565b905080600b5f828254610c6c9190612e58565b9250508190555060035f9054906101000a900473ffffffffffffffffffffffffffffffffffffffff1673ffffffffffffffffffffffffffffffffffffffff1663a9059cbb85836040518363ffffffff1660e01b8152600401610ccf929190612d86565b6020604051808303815f875af1158015610ceb573d5f803e3d5ffd5b505050506040513d601f19601f82011682018060405250810190610d0f9190612dc1565b5050505050565b610d1e611825565b8060078190555050565b610d30611825565b670de0b6b3a764000081610d449190612a3a565b60088190555050565b600b5481565b60011515600c5f3373ffffffffffffffffffffffffffffffffffffffff1673ffffffffffffffffffffffffffffffffffffffff1681526020019081526020015f205f9054906101000a900460ff16151514610de3576040517f08c379a0000000000000000000000000000000000000000000000000000000008152600401610dda90612f08565b60405180910390fd5b600854811015610e28576040517f08c379a0000000000000000000000000000000000000000000000000000000008152600401610e1f90612f96565b60405180910390fd5b60045f9054906101000a900473ffffffffffffffffffffffffffffffffffffffff1673ffffffffffffffffffffffffffffffffffffffff1663a9059cbb83836040518363ffffffff1660e01b8152600401610e84929190612d86565b6020604051808303815f875af1158015610ea0573d5f803e3d5ffd5b505050506040513d601f19601f82011682018060405250810190610ec49190612dc1565b507fba953728785de35be3827ee7a7a7867a8472947562602939440e6c0bdbf4725e8282604051610ef6929190612d86565b60405180910390a15050565b60085481565b610f10611825565b8273ffffffffffffffffffffffffffffffffffffffff1663a9059cbb83836040518363ffffffff1660e01b8152600401610f4b929190612d86565b6020604051808303815f875af1158015610f67573d5f803e3d5ffd5b505050506040513d601f19601f82011682018060405250810190610f8b9190612dc1565b50505050565b610f99611825565b5f73ffffffffffffffffffffffffffffffffffffffff168173ffffffffffffffffffffffffffffffffffffffff1603611009575f6040517f1e4fbdf7000000000000000000000000000000000000000000000000000000008152600401611000919061276f565b60405180910390fd5b61101281611c37565b50565b60011515600c5f3373ffffffffffffffffffffffffffffffffffffffff1673ffffffffffffffffffffffffffffffffffffffff1681526020019081526020015f205f9054906101000a900460ff161515146110a5576040517f08c379a000000000000000000000000000000000000000000000000000000000815260040161109c90612f08565b60405180910390fd5b8060045f9054906101000a900473ffffffffffffffffffffffffffffffffffffffff1673ffffffffffffffffffffffffffffffffffffffff166370a08231846040518263ffffffff1660e01b8152600401611100919061276f565b602060405180830381865afa15801561111b573d5f803e3d5ffd5b505050506040513d601f19601f8201168201806040525081019061113f9190612e2d565b1015611180576040517f08c379a000000000000000000000000000000000000000000000000000000000815260040161117790612ffe565b60405180910390fd5b6008548110156111c5576040517f08c379a00000000000000000000000000000000000000000000000000000000081526004016111bc90612f96565b60405180910390fd5b5f6111cf82610613565b905080600a5f8282546111e29190612e58565b925050819055505f6064600754836111fa9190612a3a565b6112049190612c60565b90505f81836112139190612e8b565b905060045f9054906101000a900473ffffffffffffffffffffffffffffffffffffffff1673ffffffffffffffffffffffffffffffffffffffff16639dc29fac86866040518363ffffffff1660e01b8152600401611271929190612d86565b5f604051808303815f87803b158015611288575f80fd5b505af115801561129a573d5f803e3d5ffd5b5050505060035f9054906101000a900473ffffffffffffffffffffffffffffffffffffffff1673ffffffffffffffffffffffffffffffffffffffff1663a9059cbb86836040518363ffffffff1660e01b81526004016112fa929190612d86565b6020604051808303815f875af1158015611316573d5f803e3d5ffd5b505050506040513d601f19601f8201168201806040525081019061133a9190612dc1565b5060035f9054906101000a900473ffffffffffffffffffffffffffffffffffffffff1673ffffffffffffffffffffffffffffffffffffffff1663a9059cbb33846040518363ffffffff1660e01b8152600401611397929190612d86565b6020604051808303815f875af11580156113b3573d5f803e3d5ffd5b505050506040513d601f19601f820116820180604052508101906113d79190612dc1565b507fc9ec92487a51a4894b66e92fa35d58109271421843b717e764249309f96ab9b58585838560405161140d949392919061301c565b60405180910390a15050505050565b600e60019054906101000a900473ffffffffffffffffffffffffffffffffffffffff1681565b611450868686868686611962565b5f1515600e5f9054906101000a900460ff161515146114a4576040517f08c379a000000000000000000000000000000000000000000000000000000000815260040161149b90612cda565b60405180910390fd5b8460045f9054906101000a900473ffffffffffffffffffffffffffffffffffffffff1673ffffffffffffffffffffffffffffffffffffffff166370a08231886040518263ffffffff1660e01b81526004016114ff919061276f565b602060405180830381865afa15801561151a573d5f803e3d5ffd5b505050506040513d601f19601f8201168201806040525081019061153e9190612e2d565b101561157f576040517f08c379a000000000000000000000000000000000000000000000000000000000815260040161157690612ffe565b60405180910390fd5b6008548510156115c4576040517f08c379a00000000000000000000000000000000000000000000000000000000081526004016115bb90612f96565b60405180910390fd5b5f6115ce86610613565b905080600a5f8282546115e19190612e58565b925050819055505f6064600754836115f99190612a3a565b6116039190612c60565b90505f81836116129190612e8b565b905060045f9054906101000a900473ffffffffffffffffffffffffffffffffffffffff1673ffffffffffffffffffffffffffffffffffffffff16639dc29fac8a8a6040518363ffffffff1660e01b8152600401611670929190612d86565b5f604051808303815f87803b158015611687575f80fd5b505af1158015611699573d5f803e3d5ffd5b5050505060035f9054906101000a900473ffffffffffffffffffffffffffffffffffffffff1673ffffffffffffffffffffffffffffffffffffffff1663a9059cbb8a836040518363ffffffff1660e01b81526004016116f9929190612d86565b6020604051808303815f875af1158015611715573d5f803e3d5ffd5b505050506040513d601f19601f820116820180604052508101906117399190612dc1565b5060035f9054906101000a900473ffffffffffffffffffffffffffffffffffffffff1673ffffffffffffffffffffffffffffffffffffffff1663a9059cbb33846040518363ffffffff1660e01b8152600401611796929190612d86565b6020604051808303815f875af11580156117b2573d5f803e3d5ffd5b505050506040513d601f19601f820116820180604052508101906117d69190612dc1565b507fc9ec92487a51a4894b66e92fa35d58109271421843b717e764249309f96ab9b58989838560405161180c949392919061301c565b60405180910390a1505050505050505050565b600a5481565b61182d611d6e565b73ffffffffffffffffffffffffffffffffffffffff1661184b610a9d565b73ffffffffffffffffffffffffffffffffffffffff16146118aa5761186e611d6e565b6040517f118cdaa70000000000000000000000000000000000000000000000000000000081526004016118a1919061276f565b60405180910390fd5b565b5f7f000000000000000000000000000000000000000000000000000000000000000073ffffffffffffffffffffffffffffffffffffffff163073ffffffffffffffffffffffffffffffffffffffff1614801561192757507f000000000000000000000000000000000000000000000000000000000000000046145b15611954577f0000000000000000000000000000000000000000000000000000000000000000905061195f565b61195c611d75565b90505b90565b5f1515600f5f8560ff1660ff1681526020019081526020015f205f9054906101000a900460ff16151514806119b757505f151560105f8481526020019081526020015f205f9054906101000a900460ff161515145b806119e257505f151560115f8381526020019081526020015f205f9054906101000a900460ff161515145b611a21576040517f08c379a0000000000000000000000000000000000000000000000000000000008152600401611a18906130a9565b60405180910390fd5b83421115611a6657836040517f62791302000000000000000000000000000000000000000000000000000000008152600401611a5d919061225f565b60405180910390fd5b5f7f05619a74ecd0240afc3bfb1df2bd1319401220fb577809c3a09bf0ab809ac861600e60019054906101000a900473ffffffffffffffffffffffffffffffffffffffff16888888604051602001611ac29594939291906130c7565b6040516020818303038152906040528051906020012090505f611ae482611e0a565b90505f611af382878787611e23565b9050600e60019054906101000a900473ffffffffffffffffffffffffffffffffffffffff1673ffffffffffffffffffffffffffffffffffffffff168173ffffffffffffffffffffffffffffffffffffffff1614611bab5780600e60019054906101000a900473ffffffffffffffffffffffffffffffffffffffff166040517f4b800e46000000000000000000000000000000000000000000000000000000008152600401611ba2929190613118565b60405180910390fd5b6001600f5f8860ff1660ff1681526020019081526020015f205f6101000a81548160ff021916908315150217905550600160105f8781526020019081526020015f205f6101000a81548160ff021916908315150217905550600160115f8681526020019081526020015f205f6101000a81548160ff021916908315150217905550505050505050505050565b5f805f9054906101000a900473ffffffffffffffffffffffffffffffffffffffff169050815f806101000a81548173ffffffffffffffffffffffffffffffffffffffff021916908373ffffffffffffffffffffffffffffffffffffffff1602179055508173ffffffffffffffffffffffffffffffffffffffff168173ffffffffffffffffffffffffffffffffffffffff167f8be0079c531659141344cd1fd0a4f28419497f9722a3daafe3b4186f6b6457e060405160405180910390a35050565b6060611d2e60017f0000000000000000000000000000000000000000000000000000000000000000611e5190919063ffffffff16565b905090565b6060611d6960027f0000000000000000000000000000000000000000000000000000000000000000611e5190919063ffffffff16565b905090565b5f33905090565b5f7f8b73c3c69bb8fe3d512ecc4cf759cc79239f7b179b0ffacaa9a75d522b39400f7f00000000000000000000000000000000000000000000000000000000000000007f00000000000000000000000000000000000000000000000000000000000000004630604051602001611def95949392919061313f565b60405160208183030381529060405280519060200120905090565b5f611e1c611e166118ac565b83611efe565b9050919050565b5f805f80611e3388888888611f3e565b925092509250611e438282612025565b829350505050949350505050565b606060ff5f1b8314611e6d57611e6683612187565b9050611ef8565b818054611e79906129dd565b80601f0160208091040260200160405190810160405280929190818152602001828054611ea5906129dd565b8015611ef05780601f10611ec757610100808354040283529160200191611ef0565b820191905f5260205f20905b815481529060010190602001808311611ed357829003601f168201915b505050505090505b92915050565b5f6040517f190100000000000000000000000000000000000000000000000000000000000081528360028201528260228201526042812091505092915050565b5f805f7f7fffffffffffffffffffffffffffffff5d576e7357a4501ddfe92f46681b20a0845f1c1115611f7a575f60038592509250925061201b565b5f6001888888886040515f8152602001604052604051611f9d949392919061319f565b6020604051602081039080840390855afa158015611fbd573d5f803e3d5ffd5b5050506020604051035190505f73ffffffffffffffffffffffffffffffffffffffff168173ffffffffffffffffffffffffffffffffffffffff160361200e575f60015f801b9350935093505061201b565b805f805f1b935093509350505b9450945094915050565b5f6003811115612038576120376131e2565b5b82600381111561204b5761204a6131e2565b5b03156121835760016003811115612065576120646131e2565b5b826003811115612078576120776131e2565b5b036120af576040517ff645eedf00000000000000000000000000000000000000000000000000000000815260040160405180910390fd5b600260038111156120c3576120c26131e2565b5b8260038111156120d6576120d56131e2565b5b0361211a57805f1c6040517ffce698f7000000000000000000000000000000000000000000000000000000008152600401612111919061225f565b60405180910390fd5b60038081111561212d5761212c6131e2565b5b8260038111156121405761213f6131e2565b5b0361218257806040517fd78bce0c000000000000000000000000000000000000000000000000000000008152600401612179919061246b565b60405180910390fd5b5b5050565b60605f612193836121f9565b90505f602067ffffffffffffffff8111156121b1576121b061278c565b5b6040519080825280601f01601f1916602001820160405280156121e35781602001600182028036833780820191505090505b5090508181528360208201528092505050919050565b5f8060ff835f1c169050601f81111561223e576040517fb3512b0c00000000000000000000000000000000000000000000000000000000815260040160405180910390fd5b80915050919050565b5f819050919050565b61225981612247565b82525050565b5f6020820190506122725f830184612250565b92915050565b5f81519050919050565b5f82825260208201905092915050565b5f5b838110156122af578082015181840152602081019050612294565b5f8484015250505050565b5f601f19601f8301169050919050565b5f6122d482612278565b6122de8185612282565b93506122ee818560208601612292565b6122f7816122ba565b840191505092915050565b5f6020820190508181035f83015261231a81846122ca565b905092915050565b5f604051905090565b5f80fd5b5f80fd5b61233c81612247565b8114612346575f80fd5b50565b5f8135905061235781612333565b92915050565b5f602082840312156123725761237161232b565b5b5f61237f84828501612349565b91505092915050565b5f8115159050919050565b61239c81612388565b82525050565b5f6020820190506123b55f830184612393565b92915050565b5f73ffffffffffffffffffffffffffffffffffffffff82169050919050565b5f6123e4826123bb565b9050919050565b6123f4816123da565b81146123fe575f80fd5b50565b5f8135905061240f816123eb565b92915050565b5f806040838503121561242b5761242a61232b565b5b5f61243885828601612401565b925050602061244985828601612401565b9150509250929050565b5f819050919050565b61246581612453565b82525050565b5f60208201905061247e5f83018461245c565b92915050565b5f60ff82169050919050565b61249981612484565b81146124a3575f80fd5b50565b5f813590506124b481612490565b92915050565b6124c381612453565b81146124cd575f80fd5b50565b5f813590506124de816124ba565b92915050565b5f805f805f8060c087890312156124fe576124fd61232b565b5b5f61250b89828a01612401565b965050602061251c89828a01612349565b955050604061252d89828a01612349565b945050606061253e89828a016124a6565b935050608061254f89828a016124d0565b92505060a061256089828a016124d0565b9150509295509295509295565b61257681612388565b8114612580575f80fd5b50565b5f813590506125918161256d565b92915050565b5f602082840312156125ac576125ab61232b565b5b5f6125b984828501612583565b91505092915050565b5f602082840312156125d7576125d661232b565b5b5f6125e484828501612401565b91505092915050565b5f7fff0000000000000000000000000000000000000000000000000000000000000082169050919050565b612621816125ed565b82525050565b612630816123da565b82525050565b5f81519050919050565b5f82825260208201905092915050565b5f819050602082019050919050565b61266881612247565b82525050565b5f612679838361265f565b60208301905092915050565b5f602082019050919050565b5f61269b82612636565b6126a58185612640565b93506126b083612650565b805f5b838110156126e05781516126c7888261266e565b97506126d283612685565b9250506001810190506126b3565b5085935050505092915050565b5f60e0820190506127005f83018a612618565b818103602083015261271281896122ca565b9050818103604083015261272681886122ca565b90506127356060830187612250565b6127426080830186612627565b61274f60a083018561245c565b81810360c08301526127618184612691565b905098975050505050505050565b5f6020820190506127825f830184612627565b92915050565b5f80fd5b7f4e487b71000000000000000000000000000000000000000000000000000000005f52604160045260245ffd5b6127c2826122ba565b810181811067ffffffffffffffff821117156127e1576127e061278c565b5b80604052505050565b5f6127f3612322565b90506127ff82826127b9565b919050565b5f67ffffffffffffffff82111561281e5761281d61278c565b5b602082029050602081019050919050565b5f80fd5b5f61284561284084612804565b6127ea565b905080838252602082019050602084028301858111156128685761286761282f565b5b835b81811015612891578061287d8882612401565b84526020840193505060208101905061286a565b5050509392505050565b5f82601f8301126128af576128ae612788565b5b81356128bf848260208601612833565b91505092915050565b5f80604083850312156128de576128dd61232b565b5b5f83013567ffffffffffffffff8111156128fb576128fa61232f565b5b6129078582860161289b565b925050602061291885828601612583565b9150509250929050565b5f80604083850312156129385761293761232b565b5b5f61294585828601612401565b925050602061295685828601612349565b9150509250929050565b5f805f606084860312156129775761297661232b565b5b5f61298486828701612401565b935050602061299586828701612401565b92505060406129a686828701612349565b9150509250925092565b7f4e487b71000000000000000000000000000000000000000000000000000000005f52602260045260245ffd5b5f60028204905060018216806129f457607f821691505b602082108103612a0757612a066129b0565b5b50919050565b7f4e487b71000000000000000000000000000000000000000000000000000000005f52601160045260245ffd5b5f612a4482612247565b9150612a4f83612247565b9250828202612a5d81612247565b91508282048414831517612a7457612a73612a0d565b5b5092915050565b5f81519050612a8981612490565b92915050565b5f60208284031215612aa457612aa361232b565b5b5f612ab184828501612a7b565b91505092915050565b5f8160011c9050919050565b5f808291508390505b6001851115612b0f57808604811115612aeb57612aea612a0d565b5b6001851615612afa5780820291505b8081029050612b0885612aba565b9450612acf565b94509492505050565b5f82612b275760019050612be2565b81612b34575f9050612be2565b8160018114612b4a5760028114612b5457612b83565b6001915050612be2565b60ff841115612b6657612b65612a0d565b5b8360020a915084821115612b7d57612b7c612a0d565b5b50612be2565b5060208310610133831016604e8410600b8410161715612bb85782820a905083811115612bb357612bb2612a0d565b5b612be2565b612bc58484846001612ac6565b92509050818404811115612bdc57612bdb612a0d565b5b81810290505b9392505050565b5f612bf382612247565b9150612bfe83612484565b9250612c2b7fffffffffffffffffffffffffffffffffffffffffffffffffffffffffffffffff8484612b18565b905092915050565b7f4e487b71000000000000000000000000000000000000000000000000000000005f52601260045260245ffd5b5f612c6a82612247565b9150612c7583612247565b925082612c8557612c84612c33565b5b828204905092915050565b7f636f6e747261637420667265657a6564000000000000000000000000000000005f82015250565b5f612cc4601083612282565b9150612ccf82612c90565b602082019050919050565b5f6020820190508181035f830152612cf181612cb8565b9050919050565b7f706f696e747320746f20636c61696d206c657373207468616e206d696e706f695f8201527f6e74730000000000000000000000000000000000000000000000000000000000602082015250565b5f612d52602383612282565b9150612d5d82612cf8565b604082019050919050565b5f6020820190508181035f830152612d7f81612d46565b9050919050565b5f604082019050612d995f830185612627565b612da66020830184612250565b9392505050565b5f81519050612dbb8161256d565b92915050565b5f60208284031215612dd657612dd561232b565b5b5f612de384828501612dad565b91505092915050565b7f4e487b71000000000000000000000000000000000000000000000000000000005f52603260045260245ffd5b5f81519050612e2781612333565b92915050565b5f60208284031215612e4257612e4161232b565b5b5f612e4f84828501612e19565b91505092915050565b5f612e6282612247565b9150612e6d83612247565b9250828201905080821115612e8557612e84612a0d565b5b92915050565b5f612e9582612247565b9150612ea083612247565b9250828203905081811115612eb857612eb7612a0d565b5b92915050565b7f796f7520617265206e6f74207065726d697474656400000000000000000000005f82015250565b5f612ef2601583612282565b9150612efd82612ebe565b602082019050919050565b5f6020820190508181035f830152612f1f81612ee6565b9050919050565b7f706f696e747320746f2073776170206c657373207468616e206d696e706f696e5f8201527f7473000000000000000000000000000000000000000000000000000000000000602082015250565b5f612f80602283612282565b9150612f8b82612f26565b604082019050919050565b5f6020820190508181035f830152612fad81612f74565b9050919050565b7f6e6f7420656e6f75676820706f696e74730000000000000000000000000000005f82015250565b5f612fe8601183612282565b9150612ff382612fb4565b602082019050919050565b5f6020820190508181035f83015261301581612fdc565b9050919050565b5f60808201905061302f5f830187612627565b61303c6020830186612250565b6130496040830185612250565b6130566060830184612250565b95945050505050565b7f73696720757365640000000000000000000000000000000000000000000000005f82015250565b5f613093600883612282565b915061309e8261305f565b602082019050919050565b5f6020820190508181035f8301526130c081613087565b9050919050565b5f60a0820190506130da5f83018861245c565b6130e76020830187612627565b6130f46040830186612627565b6131016060830185612250565b61310e6080830184612250565b9695505050505050565b5f60408201905061312b5f830185612627565b6131386020830184612627565b9392505050565b5f60a0820190506131525f83018861245c565b61315f602083018761245c565b61316c604083018661245c565b6131796060830185612250565b6131866080830184612627565b9695505050505050565b61319981612484565b82525050565b5f6080820190506131b25f83018761245c565b6131bf6020830186613190565b6131cc604083018561245c565b6131d9606083018461245c565b95945050505050565b7f4e487b71000000000000000000000000000000000000000000000000000000005f52602160045260245ffdfea2646970667358221220b71c579fc247192fc2916c28aad15f9ed3e838df9ac5a561fc5ab3f3a71f120964736f6c63430008160033",
			"opcodes": "PUSH2 0x160 PUSH1 0x40 MSTORE CALLVALUE DUP1 ISZERO PUSH3 0x11 JUMPI PUSH0 DUP1 REVERT JUMPDEST POP PUSH1 0x40 MLOAD PUSH3 0x3EC5 CODESIZE SUB DUP1 PUSH3 0x3EC5 DUP4 CODECOPY DUP2 DUP2 ADD PUSH1 0x40 MSTORE DUP2 ADD SWAP1 PUSH3 0x37 SWAP2 SWAP1 PUSH3 0x6C3 JUMP JUMPDEST DUP3 PUSH1 0x40 MLOAD DUP1 PUSH1 0x40 ADD PUSH1 0x40 MSTORE DUP1 PUSH1 0x1 DUP2 MSTORE PUSH1 0x20 ADD PUSH32 0x3100000000000000000000000000000000000000000000000000000000000000 DUP2 MSTORE POP DUP6 PUSH0 PUSH20 0xFFFFFFFFFFFFFFFFFFFFFFFFFFFFFFFFFFFFFFFF AND DUP2 PUSH20 0xFFFFFFFFFFFFFFFFFFFFFFFFFFFFFFFFFFFFFFFF AND SUB PUSH3 0xE2 JUMPI PUSH0 PUSH1 0x40 MLOAD PUSH32 0x1E4FBDF700000000000000000000000000000000000000000000000000000000 DUP2 MSTORE PUSH1 0x4 ADD PUSH3 0xD9 SWAP2 SWAP1 PUSH3 0x762 JUMP JUMPDEST PUSH1 0x40 MLOAD DUP1 SWAP2 SUB SWAP1 REVERT JUMPDEST PUSH3 0xF3 DUP2 PUSH3 0x2F8 PUSH1 0x20 SHL PUSH1 0x20 SHR JUMP JUMPDEST POP PUSH3 0x10A PUSH1 0x1 DUP4 PUSH3 0x3B9 PUSH1 0x20 SHL SWAP1 SWAP2 SWAP1 PUSH1 0x20 SHR JUMP JUMPDEST PUSH2 0x120 DUP2 DUP2 MSTORE POP POP PUSH3 0x128 PUSH1 0x2 DUP3 PUSH3 0x3B9 PUSH1 0x20 SHL SWAP1 SWAP2 SWAP1 PUSH1 0x20 SHR JUMP JUMPDEST PUSH2 0x140 DUP2 DUP2 MSTORE POP POP DUP2 DUP1 MLOAD SWAP1 PUSH1 0x20 ADD KECCAK256 PUSH1 0xE0 DUP2 DUP2 MSTORE POP POP DUP1 DUP1 MLOAD SWAP1 PUSH1 0x20 ADD KECCAK256 PUSH2 0x100 DUP2 DUP2 MSTORE POP POP CHAINID PUSH1 0xA0 DUP2 DUP2 MSTORE POP POP PUSH3 0x167 PUSH3 0x40E PUSH1 0x20 SHL PUSH1 0x20 SHR JUMP JUMPDEST PUSH1 0x80 DUP2 DUP2 MSTORE POP POP ADDRESS PUSH20 0xFFFFFFFFFFFFFFFFFFFFFFFFFFFFFFFFFFFFFFFF AND PUSH1 0xC0 DUP2 PUSH20 0xFFFFFFFFFFFFFFFFFFFFFFFFFFFFFFFFFFFFFFFF AND DUP2 MSTORE POP POP POP POP DUP3 PUSH1 0xD SWAP1 DUP2 PUSH3 0x1B5 SWAP2 SWAP1 PUSH3 0x9B4 JUMP JUMPDEST POP PUSH1 0xA PUSH1 0x5 DUP2 SWAP1 SSTORE POP PUSH2 0x1388 PUSH1 0x6 DUP2 SWAP1 SSTORE POP PUSH10 0x21E19E0C9BAB2400000 PUSH1 0x8 DUP2 SWAP1 SSTORE POP DUP2 PUSH1 0x3 PUSH0 PUSH2 0x100 EXP DUP2 SLOAD DUP2 PUSH20 0xFFFFFFFFFFFFFFFFFFFFFFFFFFFFFFFFFFFFFFFF MUL NOT AND SWAP1 DUP4 PUSH20 0xFFFFFFFFFFFFFFFFFFFFFFFFFFFFFFFFFFFFFFFF AND MUL OR SWAP1 SSTORE POP DUP1 PUSH1 0x4 PUSH0 PUSH2 0x100 EXP DUP2 SLOAD DUP2 PUSH20 0xFFFFFFFFFFFFFFFFFFFFFFFFFFFFFFFFFFFFFFFF MUL NOT AND SWAP1 DUP4 PUSH20 0xFFFFFFFFFFFFFFFFFFFFFFFFFFFFFFFFFFFFFFFF AND MUL OR SWAP1 SSTORE POP DUP4 PUSH1 0xE PUSH1 0x1 PUSH2 0x100 EXP DUP2 SLOAD DUP2 PUSH20 0xFFFFFFFFFFFFFFFFFFFFFFFFFFFFFFFFFFFFFFFF MUL NOT AND SWAP1 DUP4 PUSH20 0xFFFFFFFFFFFFFFFFFFFFFFFFFFFFFFFFFFFFFFFF AND MUL OR SWAP1 SSTORE POP PUSH1 0x1 PUSH1 0xC PUSH0 DUP7 PUSH20 0xFFFFFFFFFFFFFFFFFFFFFFFFFFFFFFFFFFFFFFFF AND PUSH20 0xFFFFFFFFFFFFFFFFFFFFFFFFFFFFFFFFFFFFFFFF AND DUP2 MSTORE PUSH1 0x20 ADD SWAP1 DUP2 MSTORE PUSH1 0x20 ADD PUSH0 KECCAK256 PUSH0 PUSH2 0x100 EXP DUP2 SLOAD DUP2 PUSH1 0xFF MUL NOT AND SWAP1 DUP4 ISZERO ISZERO MUL OR SWAP1 SSTORE POP POP POP POP POP PUSH3 0xC2E JUMP JUMPDEST PUSH0 DUP1 PUSH0 SWAP1 SLOAD SWAP1 PUSH2 0x100 EXP SWAP1 DIV PUSH20 0xFFFFFFFFFFFFFFFFFFFFFFFFFFFFFFFFFFFFFFFF AND SWAP1 POP DUP2 PUSH0 DUP1 PUSH2 0x100 EXP DUP2 SLOAD DUP2 PUSH20 0xFFFFFFFFFFFFFFFFFFFFFFFFFFFFFFFFFFFFFFFF MUL NOT AND SWAP1 DUP4 PUSH20 0xFFFFFFFFFFFFFFFFFFFFFFFFFFFFFFFFFFFFFFFF AND MUL OR SWAP1 SSTORE POP DUP2 PUSH20 0xFFFFFFFFFFFFFFFFFFFFFFFFFFFFFFFFFFFFFFFF AND DUP2 PUSH20 0xFFFFFFFFFFFFFFFFFFFFFFFFFFFFFFFFFFFFFFFF AND PUSH32 0x8BE0079C531659141344CD1FD0A4F28419497F9722A3DAAFE3B4186F6B6457E0 PUSH1 0x40 MLOAD PUSH1 0x40 MLOAD DUP1 SWAP2 SUB SWAP1 LOG3 POP POP JUMP JUMPDEST PUSH0 PUSH1 0x20 DUP4 MLOAD LT ISZERO PUSH3 0x3DE JUMPI PUSH3 0x3D6 DUP4 PUSH3 0x46A PUSH1 0x20 SHL PUSH1 0x20 SHR JUMP JUMPDEST SWAP1 POP PUSH3 0x408 JUMP JUMPDEST DUP3 PUSH3 0x3F0 DUP4 PUSH3 0x4D4 PUSH1 0x20 SHL PUSH1 0x20 SHR JUMP JUMPDEST PUSH0 ADD SWAP1 DUP2 PUSH3 0x400 SWAP2 SWAP1 PUSH3 0x9B4 JUMP JUMPDEST POP PUSH1 0xFF PUSH0 SHL SWAP1 POP JUMPDEST SWAP3 SWAP2 POP POP JUMP JUMPDEST PUSH0 PUSH32 0x8B73C3C69BB8FE3D512ECC4CF759CC79239F7B179B0FFACAA9A75D522B39400F PUSH1 0xE0 MLOAD PUSH2 0x100 MLOAD CHAINID ADDRESS PUSH1 0x40 MLOAD PUSH1 0x20 ADD PUSH3 0x44F SWAP6 SWAP5 SWAP4 SWAP3 SWAP2 SWAP1 PUSH3 0xAC3 JUMP JUMPDEST PUSH1 0x40 MLOAD PUSH1 0x20 DUP2 DUP4 SUB SUB DUP2 MSTORE SWAP1 PUSH1 0x40 MSTORE DUP1 MLOAD SWAP1 PUSH1 0x20 ADD KECCAK256 SWAP1 POP SWAP1 JUMP JUMPDEST PUSH0 DUP1 DUP3 SWAP1 POP PUSH1 0x1F DUP2 MLOAD GT ISZERO PUSH3 0x4B9 JUMPI DUP3 PUSH1 0x40 MLOAD PUSH32 0x305A27A900000000000000000000000000000000000000000000000000000000 DUP2 MSTORE PUSH1 0x4 ADD PUSH3 0x4B0 SWAP2 SWAP1 PUSH3 0xB6E JUMP JUMPDEST PUSH1 0x40 MLOAD DUP1 SWAP2 SUB SWAP1 REVERT JUMPDEST DUP1 MLOAD DUP2 PUSH3 0x4C7 SWAP1 PUSH3 0xBBF JUMP JUMPDEST PUSH0 SHR OR PUSH0 SHL SWAP2 POP POP SWAP2 SWAP1 POP JUMP JUMPDEST PUSH0 DUP2 SWAP1 POP SWAP2 SWAP1 POP JUMP JUMPDEST PUSH0 PUSH1 0x40 MLOAD SWAP1 POP SWAP1 JUMP JUMPDEST PUSH0 DUP1 REVERT JUMPDEST PUSH0 DUP1 REVERT JUMPDEST PUSH0 PUSH20 0xFFFFFFFFFFFFFFFFFFFFFFFFFFFFFFFFFFFFFFFF DUP3 AND SWAP1 POP SWAP2 SWAP1 POP JUMP JUMPDEST PUSH0 PUSH3 0x519 DUP3 PUSH3 0x4EE JUMP JUMPDEST SWAP1 POP SWAP2 SWAP1 POP JUMP JUMPDEST PUSH3 0x52B DUP2 PUSH3 0x50D JUMP JUMPDEST DUP2 EQ PUSH3 0x536 JUMPI PUSH0 DUP1 REVERT JUMPDEST POP JUMP JUMPDEST PUSH0 DUP2 MLOAD SWAP1 POP PUSH3 0x549 DUP2 PUSH3 0x520 JUMP JUMPDEST SWAP3 SWAP2 POP POP JUMP JUMPDEST PUSH0 DUP1 REVERT JUMPDEST PUSH0 DUP1 REVERT JUMPDEST PUSH0 PUSH1 0x1F NOT PUSH1 0x1F DUP4 ADD AND SWAP1 POP SWAP2 SWAP1 POP JUMP JUMPDEST PUSH32 0x4E487B7100000000000000000000000000000000000000000000000000000000 PUSH0 MSTORE PUSH1 0x41 PUSH1 0x4 MSTORE PUSH1 0x24 PUSH0 REVERT JUMPDEST PUSH3 0x59F DUP3 PUSH3 0x557 JUMP JUMPDEST DUP2 ADD DUP2 DUP2 LT PUSH8 0xFFFFFFFFFFFFFFFF DUP3 GT OR ISZERO PUSH3 0x5C1 JUMPI PUSH3 0x5C0 PUSH3 0x567 JUMP JUMPDEST JUMPDEST DUP1 PUSH1 0x40 MSTORE POP POP POP JUMP JUMPDEST PUSH0 PUSH3 0x5D5 PUSH3 0x4DD JUMP JUMPDEST SWAP1 POP PUSH3 0x5E3 DUP3 DUP3 PUSH3 0x594 JUMP JUMPDEST SWAP2 SWAP1 POP JUMP JUMPDEST PUSH0 PUSH8 0xFFFFFFFFFFFFFFFF DUP3 GT ISZERO PUSH3 0x605 JUMPI PUSH3 0x604 PUSH3 0x567 JUMP JUMPDEST JUMPDEST PUSH3 0x610 DUP3 PUSH3 0x557 JUMP JUMPDEST SWAP1 POP PUSH1 0x20 DUP2 ADD SWAP1 POP SWAP2 SWAP1 POP JUMP JUMPDEST PUSH0 JUMPDEST DUP4 DUP2 LT ISZERO PUSH3 0x63C JUMPI DUP1 DUP3 ADD MLOAD DUP2 DUP5 ADD MSTORE PUSH1 0x20 DUP2 ADD SWAP1 POP PUSH3 0x61F JUMP JUMPDEST PUSH0 DUP5 DUP5 ADD MSTORE POP POP POP POP JUMP JUMPDEST PUSH0 PUSH3 0x65D PUSH3 0x657 DUP5 PUSH3 0x5E8 JUMP JUMPDEST PUSH3 0x5CA JUMP JUMPDEST SWAP1 POP DUP3 DUP2 MSTORE PUSH1 0x20 DUP2 ADD DUP5 DUP5 DUP5 ADD GT ISZERO PUSH3 0x67C JUMPI PUSH3 0x67B PUSH3 0x553 JUMP JUMPDEST JUMPDEST PUSH3 0x689 DUP5 DUP3 DUP6 PUSH3 0x61D JUMP JUMPDEST POP SWAP4 SWAP3 POP POP POP JUMP JUMPDEST PUSH0 DUP3 PUSH1 0x1F DUP4 ADD SLT PUSH3 0x6A8 JUMPI PUSH3 0x6A7 PUSH3 0x54F JUMP JUMPDEST JUMPDEST DUP2 MLOAD PUSH3 0x6BA DUP5 DUP3 PUSH1 0x20 DUP7 ADD PUSH3 0x647 JUMP JUMPDEST SWAP2 POP POP SWAP3 SWAP2 POP POP JUMP JUMPDEST PUSH0 DUP1 PUSH0 DUP1 PUSH1 0x80 DUP6 DUP8 SUB SLT ISZERO PUSH3 0x6DE JUMPI PUSH3 0x6DD PUSH3 0x4E6 JUMP JUMPDEST JUMPDEST PUSH0 PUSH3 0x6ED DUP8 DUP3 DUP9 ADD PUSH3 0x539 JUMP JUMPDEST SWAP5 POP POP PUSH1 0x20 DUP6 ADD MLOAD PUSH8 0xFFFFFFFFFFFFFFFF DUP2 GT ISZERO PUSH3 0x711 JUMPI PUSH3 0x710 PUSH3 0x4EA JUMP JUMPDEST JUMPDEST PUSH3 0x71F DUP8 DUP3 DUP9 ADD PUSH3 0x691 JUMP JUMPDEST SWAP4 POP POP PUSH1 0x40 PUSH3 0x732 DUP8 DUP3 DUP9 ADD PUSH3 0x539 JUMP JUMPDEST SWAP3 POP POP PUSH1 0x60 PUSH3 0x745 DUP8 DUP3 DUP9 ADD PUSH3 0x539 JUMP JUMPDEST SWAP2 POP POP SWAP3 SWAP6 SWAP2 SWAP5 POP SWAP3 POP JUMP JUMPDEST PUSH3 0x75C DUP2 PUSH3 0x50D JUMP JUMPDEST DUP3 MSTORE POP POP JUMP JUMPDEST PUSH0 PUSH1 0x20 DUP3 ADD SWAP1 POP PUSH3 0x777 PUSH0 DUP4 ADD DUP5 PUSH3 0x751 JUMP JUMPDEST SWAP3 SWAP2 POP POP JUMP JUMPDEST PUSH0 DUP2 MLOAD SWAP1 POP SWAP2 SWAP1 POP JUMP JUMPDEST PUSH32 0x4E487B7100000000000000000000000000000000000000000000000000000000 PUSH0 MSTORE PUSH1 0x22 PUSH1 0x4 MSTORE PUSH1 0x24 PUSH0 REVERT JUMPDEST PUSH0 PUSH1 0x2 DUP3 DIV SWAP1 POP PUSH1 0x1 DUP3 AND DUP1 PUSH3 0x7CC JUMPI PUSH1 0x7F DUP3 AND SWAP2 POP JUMPDEST PUSH1 0x20 DUP3 LT DUP2 SUB PUSH3 0x7E2 JUMPI PUSH3 0x7E1 PUSH3 0x787 JUMP JUMPDEST JUMPDEST POP SWAP2 SWAP1 POP JUMP JUMPDEST PUSH0 DUP2 SWAP1 POP DUP2 PUSH0 MSTORE PUSH1 0x20 PUSH0 KECCAK256 SWAP1 POP SWAP2 SWAP1 POP JUMP JUMPDEST PUSH0 PUSH1 0x20 PUSH1 0x1F DUP4 ADD DIV SWAP1 POP SWAP2 SWAP1 POP JUMP JUMPDEST PUSH0 DUP3 DUP3 SHL SWAP1 POP SWAP3 SWAP2 POP POP JUMP JUMPDEST PUSH0 PUSH1 0x8 DUP4 MUL PUSH3 0x846 PUSH32 0xFFFFFFFFFFFFFFFFFFFFFFFFFFFFFFFFFFFFFFFFFFFFFFFFFFFFFFFFFFFFFFFF DUP3 PUSH3 0x809 JUMP JUMPDEST PUSH3 0x852 DUP7 DUP4 PUSH3 0x809 JUMP JUMPDEST SWAP6 POP DUP1 NOT DUP5 AND SWAP4 POP DUP1 DUP7 AND DUP5 OR SWAP3 POP POP POP SWAP4 SWAP3 POP POP POP JUMP JUMPDEST PUSH0 DUP2 SWAP1 POP SWAP2 SWAP1 POP JUMP JUMPDEST PUSH0 DUP2 SWAP1 POP SWAP2 SWAP1 POP JUMP JUMPDEST PUSH0 PUSH3 0x89C PUSH3 0x896 PUSH3 0x890 DUP5 PUSH3 0x86A JUMP JUMPDEST PUSH3 0x873 JUMP JUMPDEST PUSH3 0x86A JUMP JUMPDEST SWAP1 POP SWAP2 SWAP1 POP JUMP JUMPDEST PUSH0 DUP2 SWAP1 POP SWAP2 SWAP1 POP JUMP JUMPDEST PUSH3 0x8B7 DUP4 PUSH3 0x87C JUMP JUMPDEST PUSH3 0x8CF PUSH3 0x8C6 DUP3 PUSH3 0x8A3 JUMP JUMPDEST DUP5 DUP5 SLOAD PUSH3 0x815 JUMP JUMPDEST DUP3 SSTORE POP POP POP POP JUMP JUMPDEST PUSH0 SWAP1 JUMP JUMPDEST PUSH3 0x8E5 PUSH3 0x8D7 JUMP JUMPDEST PUSH3 0x8F2 DUP2 DUP5 DUP5 PUSH3 0x8AC JUMP JUMPDEST POP POP POP JUMP JUMPDEST JUMPDEST DUP2 DUP2 LT ISZERO PUSH3 0x919 JUMPI PUSH3 0x90D PUSH0 DUP3 PUSH3 0x8DB JUMP JUMPDEST PUSH1 0x1 DUP2 ADD SWAP1 POP PUSH3 0x8F8 JUMP JUMPDEST POP POP JUMP JUMPDEST PUSH1 0x1F DUP3 GT ISZERO PUSH3 0x968 JUMPI PUSH3 0x932 DUP2 PUSH3 0x7E8 JUMP JUMPDEST PUSH3 0x93D DUP5 PUSH3 0x7FA JUMP JUMPDEST DUP2 ADD PUSH1 0x20 DUP6 LT ISZERO PUSH3 0x94D JUMPI DUP2 SWAP1 POP JUMPDEST PUSH3 0x965 PUSH3 0x95C DUP6 PUSH3 0x7FA JUMP JUMPDEST DUP4 ADD DUP3 PUSH3 0x8F7 JUMP JUMPDEST POP POP JUMPDEST POP POP POP JUMP JUMPDEST PUSH0 DUP3 DUP3 SHR SWAP1 POP SWAP3 SWAP2 POP POP JUMP JUMPDEST PUSH0 PUSH3 0x98A PUSH0 NOT DUP5 PUSH1 0x8 MUL PUSH3 0x96D JUMP JUMPDEST NOT DUP1 DUP4 AND SWAP2 POP POP SWAP3 SWAP2 POP POP JUMP JUMPDEST PUSH0 PUSH3 0x9A4 DUP4 DUP4 PUSH3 0x979 JUMP JUMPDEST SWAP2 POP DUP3 PUSH1 0x2 MUL DUP3 OR SWAP1 POP SWAP3 SWAP2 POP POP JUMP JUMPDEST PUSH3 0x9BF DUP3 PUSH3 0x77D JUMP JUMPDEST PUSH8 0xFFFFFFFFFFFFFFFF DUP2 GT ISZERO PUSH3 0x9DB JUMPI PUSH3 0x9DA PUSH3 0x567 JUMP JUMPDEST JUMPDEST PUSH3 0x9E7 DUP3 SLOAD PUSH3 0x7B4 JUMP JUMPDEST PUSH3 0x9F4 DUP3 DUP3 DUP6 PUSH3 0x91D JUMP JUMPDEST PUSH0 PUSH1 0x20 SWAP1 POP PUSH1 0x1F DUP4 GT PUSH1 0x1 DUP2 EQ PUSH3 0xA2A JUMPI PUSH0 DUP5 ISZERO PUSH3 0xA15 JUMPI DUP3 DUP8 ADD MLOAD SWAP1 POP JUMPDEST PUSH3 0xA21 DUP6 DUP3 PUSH3 0x997 JUMP JUMPDEST DUP7 SSTORE POP PUSH3 0xA90 JUMP JUMPDEST PUSH1 0x1F NOT DUP5 AND PUSH3 0xA3A DUP7 PUSH3 0x7E8 JUMP JUMPDEST PUSH0 JUMPDEST DUP3 DUP2 LT ISZERO PUSH3 0xA63 JUMPI DUP5 DUP10 ADD MLOAD DUP3 SSTORE PUSH1 0x1 DUP3 ADD SWAP2 POP PUSH1 0x20 DUP6 ADD SWAP5 POP PUSH1 0x20 DUP2 ADD SWAP1 POP PUSH3 0xA3C JUMP JUMPDEST DUP7 DUP4 LT ISZERO PUSH3 0xA83 JUMPI DUP5 DUP10 ADD MLOAD PUSH3 0xA7F PUSH1 0x1F DUP10 AND DUP3 PUSH3 0x979 JUMP JUMPDEST DUP4 SSTORE POP JUMPDEST PUSH1 0x1 PUSH1 0x2 DUP9 MUL ADD DUP9 SSTORE POP POP POP JUMPDEST POP POP POP POP POP POP JUMP JUMPDEST PUSH0 DUP2 SWAP1 POP SWAP2 SWAP1 POP JUMP JUMPDEST PUSH3 0xAAC DUP2 PUSH3 0xA98 JUMP JUMPDEST DUP3 MSTORE POP POP JUMP JUMPDEST PUSH3 0xABD DUP2 PUSH3 0x86A JUMP JUMPDEST DUP3 MSTORE POP POP JUMP JUMPDEST PUSH0 PUSH1 0xA0 DUP3 ADD SWAP1 POP PUSH3 0xAD8 PUSH0 DUP4 ADD DUP9 PUSH3 0xAA1 JUMP JUMPDEST PUSH3 0xAE7 PUSH1 0x20 DUP4 ADD DUP8 PUSH3 0xAA1 JUMP JUMPDEST PUSH3 0xAF6 PUSH1 0x40 DUP4 ADD DUP7 PUSH3 0xAA1 JUMP JUMPDEST PUSH3 0xB05 PUSH1 0x60 DUP4 ADD DUP6 PUSH3 0xAB2 JUMP JUMPDEST PUSH3 0xB14 PUSH1 0x80 DUP4 ADD DUP5 PUSH3 0x751 JUMP JUMPDEST SWAP7 SWAP6 POP POP POP POP POP POP JUMP JUMPDEST PUSH0 DUP3 DUP3 MSTORE PUSH1 0x20 DUP3 ADD SWAP1 POP SWAP3 SWAP2 POP POP JUMP JUMPDEST PUSH0 PUSH3 0xB3A DUP3 PUSH3 0x77D JUMP JUMPDEST PUSH3 0xB46 DUP2 DUP6 PUSH3 0xB1E JUMP JUMPDEST SWAP4 POP PUSH3 0xB58 DUP2 DUP6 PUSH1 0x20 DUP7 ADD PUSH3 0x61D JUMP JUMPDEST PUSH3 0xB63 DUP2 PUSH3 0x557 JUMP JUMPDEST DUP5 ADD SWAP2 POP POP SWAP3 SWAP2 POP POP JUMP JUMPDEST PUSH0 PUSH1 0x20 DUP3 ADD SWAP1 POP DUP2 DUP2 SUB PUSH0 DUP4 ADD MSTORE PUSH3 0xB88 DUP2 DUP5 PUSH3 0xB2E JUMP JUMPDEST SWAP1 POP SWAP3 SWAP2 POP POP JUMP JUMPDEST PUSH0 DUP2 MLOAD SWAP1 POP SWAP2 SWAP1 POP JUMP JUMPDEST PUSH0 DUP2 SWAP1 POP PUSH1 0x20 DUP3 ADD SWAP1 POP SWAP2 SWAP1 POP JUMP JUMPDEST PUSH0 PUSH3 0xBB6 DUP3 MLOAD PUSH3 0xA98 JUMP JUMPDEST DUP1 SWAP2 POP POP SWAP2 SWAP1 POP JUMP JUMPDEST PUSH0 PUSH3 0xBCB DUP3 PUSH3 0xB90 JUMP JUMPDEST DUP3 PUSH3 0xBD7 DUP5 PUSH3 0xB9A JUMP JUMPDEST SWAP1 POP PUSH3 0xBE4 DUP2 PUSH3 0xBA9 JUMP JUMPDEST SWAP3 POP PUSH1 0x20 DUP3 LT ISZERO PUSH3 0xC27 JUMPI PUSH3 0xC22 PUSH32 0xFFFFFFFFFFFFFFFFFFFFFFFFFFFFFFFFFFFFFFFFFFFFFFFFFFFFFFFFFFFFFFFF DUP4 PUSH1 0x20 SUB PUSH1 0x8 MUL PUSH3 0x809 JUMP JUMPDEST DUP4 AND SWAP3 POP JUMPDEST POP POP SWAP2 SWAP1 POP JUMP JUMPDEST PUSH1 0x80 MLOAD PUSH1 0xA0 MLOAD PUSH1 0xC0 MLOAD PUSH1 0xE0 MLOAD PUSH2 0x100 MLOAD PUSH2 0x120 MLOAD PUSH2 0x140 MLOAD PUSH2 0x3245 PUSH3 0xC80 PUSH0 CODECOPY PUSH0 PUSH2 0x1D3C ADD MSTORE PUSH0 PUSH2 0x1D01 ADD MSTORE PUSH0 PUSH2 0x1DBA ADD MSTORE PUSH0 PUSH2 0x1D99 ADD MSTORE PUSH0 PUSH2 0x18AF ADD MSTORE PUSH0 PUSH2 0x1905 ADD MSTORE PUSH0 PUSH2 0x192E ADD MSTORE PUSH2 0x3245 PUSH0 RETURN INVALID PUSH1 0x80 PUSH1 0x40 MSTORE CALLVALUE DUP1 ISZERO PUSH2 0xF JUMPI PUSH0 DUP1 REVERT JUMPDEST POP PUSH1 0x4 CALLDATASIZE LT PUSH2 0x1E3 JUMPI PUSH0 CALLDATALOAD PUSH1 0xE0 SHR DUP1 PUSH4 0x84B0196E GT PUSH2 0x10D JUMPI DUP1 PUSH4 0xC4C020F0 GT PUSH2 0xA0 JUMPI DUP1 PUSH4 0xF55F4206 GT PUSH2 0x6F JUMPI DUP1 PUSH4 0xF55F4206 EQ PUSH2 0x50D JUMPI DUP1 PUSH4 0xF851A440 EQ PUSH2 0x529 JUMPI DUP1 PUSH4 0xF9C3A1E8 EQ PUSH2 0x547 JUMPI DUP1 PUSH4 0xFD918716 EQ PUSH2 0x563 JUMPI PUSH2 0x1E3 JUMP JUMPDEST DUP1 PUSH4 0xC4C020F0 EQ PUSH2 0x49B JUMPI DUP1 PUSH4 0xE1FEFD42 EQ PUSH2 0x4B7 JUMPI DUP1 PUSH4 0xE63EA408 EQ PUSH2 0x4D5 JUMPI DUP1 PUSH4 0xF2FDE38B EQ PUSH2 0x4F1 JUMPI PUSH2 0x1E3 JUMP JUMPDEST DUP1 PUSH4 0x9683CDC4 GT PUSH2 0xDC JUMPI DUP1 PUSH4 0x9683CDC4 EQ PUSH2 0x429 JUMPI DUP1 PUSH4 0xAC1E5025 EQ PUSH2 0x445 JUMPI DUP1 PUSH4 0xC08E7286 EQ PUSH2 0x461 JUMPI DUP1 PUSH4 0xC4A9E858 EQ PUSH2 0x47D JUMPI PUSH2 0x1E3 JUMP JUMPDEST DUP1 PUSH4 0x84B0196E EQ PUSH2 0x3AD JUMPI DUP1 PUSH4 0x8BC7E8C4 EQ PUSH2 0x3D1 JUMPI DUP1 PUSH4 0x8DA5CB5B EQ PUSH2 0x3EF JUMPI DUP1 PUSH4 0x945C147B EQ PUSH2 0x40D JUMPI PUSH2 0x1E3 JUMP JUMPDEST DUP1 PUSH4 0x3644E515 GT PUSH2 0x185 JUMPI DUP1 PUSH4 0x704B6C02 GT PUSH2 0x154 JUMPI DUP1 PUSH4 0x704B6C02 EQ PUSH2 0x33B JUMPI DUP1 PUSH4 0x715018A6 EQ PUSH2 0x357 JUMPI DUP1 PUSH4 0x76EE947F EQ PUSH2 0x361 JUMPI DUP1 PUSH4 0x7D91FB46 EQ PUSH2 0x37D JUMPI PUSH2 0x1E3 JUMP JUMPDEST DUP1 PUSH4 0x3644E515 EQ PUSH2 0x2C7 JUMPI DUP1 PUSH4 0x6313C6D8 EQ PUSH2 0x2E5 JUMPI DUP1 PUSH4 0x67A52793 EQ PUSH2 0x301 JUMPI DUP1 PUSH4 0x6B4C0789 EQ PUSH2 0x31F JUMPI PUSH2 0x1E3 JUMP JUMPDEST DUP1 PUSH4 0x252DE51B GT PUSH2 0x1C1 JUMPI DUP1 PUSH4 0x252DE51B EQ PUSH2 0x253 JUMPI DUP1 PUSH4 0x258BA1EE EQ PUSH2 0x271 JUMPI DUP1 PUSH4 0x2C4E722E EQ PUSH2 0x28D JUMPI DUP1 PUSH4 0x34FCF437 EQ PUSH2 0x2AB JUMPI PUSH2 0x1E3 JUMP JUMPDEST DUP1 PUSH4 0x6E0E582 EQ PUSH2 0x1E7 JUMPI DUP1 PUSH4 0xACE9CA0 EQ PUSH2 0x205 JUMPI DUP1 PUSH4 0xD461E61 EQ PUSH2 0x223 JUMPI JUMPDEST PUSH0 DUP1 REVERT JUMPDEST PUSH2 0x1EF PUSH2 0x581 JUMP JUMPDEST PUSH1 0x40 MLOAD PUSH2 0x1FC SWAP2 SWAP1 PUSH2 0x225F JUMP JUMPDEST PUSH1 0x40 MLOAD DUP1 SWAP2 SUB SWAP1 RETURN JUMPDEST PUSH2 0x20D PUSH2 0x587 JUMP JUMPDEST PUSH1 0x40 MLOAD PUSH2 0x21A SWAP2 SWAP1 PUSH2 0x2302 JUMP JUMPDEST PUSH1 0x40 MLOAD DUP1 SWAP2 SUB SWAP1 RETURN JUMPDEST PUSH2 0x23D PUSH1 0x4 DUP1 CALLDATASIZE SUB DUP2 ADD SWAP1 PUSH2 0x238 SWAP2 SWAP1 PUSH2 0x235D JUMP JUMPDEST PUSH2 0x613 JUMP JUMPDEST PUSH1 0x40 MLOAD PUSH2 0x24A SWAP2 SWAP1 PUSH2 0x225F JUMP JUMPDEST PUSH1 0x40 MLOAD DUP1 SWAP2 SUB SWAP1 RETURN JUMPDEST PUSH2 0x25B PUSH2 0x6F1 JUMP JUMPDEST PUSH1 0x40 MLOAD PUSH2 0x268 SWAP2 SWAP1 PUSH2 0x23A2 JUMP JUMPDEST PUSH1 0x40 MLOAD DUP1 SWAP2 SUB SWAP1 RETURN JUMPDEST PUSH2 0x28B PUSH1 0x4 DUP1 CALLDATASIZE SUB DUP2 ADD SWAP1 PUSH2 0x286 SWAP2 SWAP1 PUSH2 0x2415 JUMP JUMPDEST PUSH2 0x703 JUMP JUMPDEST STOP JUMPDEST PUSH2 0x295 PUSH2 0x78F JUMP JUMPDEST PUSH1 0x40 MLOAD PUSH2 0x2A2 SWAP2 SWAP1 PUSH2 0x225F JUMP JUMPDEST PUSH1 0x40 MLOAD DUP1 SWAP2 SUB SWAP1 RETURN JUMPDEST PUSH2 0x2C5 PUSH1 0x4 DUP1 CALLDATASIZE SUB DUP2 ADD SWAP1 PUSH2 0x2C0 SWAP2 SWAP1 PUSH2 0x235D JUMP JUMPDEST PUSH2 0x795 JUMP JUMPDEST STOP JUMPDEST PUSH2 0x2CF PUSH2 0x7A7 JUMP JUMPDEST PUSH1 0x40 MLOAD PUSH2 0x2DC SWAP2 SWAP1 PUSH2 0x246B JUMP JUMPDEST PUSH1 0x40 MLOAD DUP1 SWAP2 SUB SWAP1 RETURN JUMPDEST PUSH2 0x2FF PUSH1 0x4 DUP1 CALLDATASIZE SUB DUP2 ADD SWAP1 PUSH2 0x2FA SWAP2 SWAP1 PUSH2 0x24E4 JUMP JUMPDEST PUSH2 0x7B5 JUMP JUMPDEST STOP JUMPDEST PUSH2 0x309 PUSH2 0x93A JUMP JUMPDEST PUSH1 0x40 MLOAD PUSH2 0x316 SWAP2 SWAP1 PUSH2 0x225F JUMP JUMPDEST PUSH1 0x40 MLOAD DUP1 SWAP2 SUB SWAP1 RETURN JUMPDEST PUSH2 0x339 PUSH1 0x4 DUP1 CALLDATASIZE SUB DUP2 ADD SWAP1 PUSH2 0x334 SWAP2 SWAP1 PUSH2 0x2597 JUMP JUMPDEST PUSH2 0x940 JUMP JUMPDEST STOP JUMPDEST PUSH2 0x355 PUSH1 0x4 DUP1 CALLDATASIZE SUB DUP2 ADD SWAP1 PUSH2 0x350 SWAP2 SWAP1 PUSH2 0x25C2 JUMP JUMPDEST PUSH2 0x964 JUMP JUMPDEST STOP JUMPDEST PUSH2 0x35F PUSH2 0x9B0 JUMP JUMPDEST STOP JUMPDEST PUSH2 0x37B PUSH1 0x4 DUP1 CALLDATASIZE SUB DUP2 ADD SWAP1 PUSH2 0x376 SWAP2 SWAP1 PUSH2 0x235D JUMP JUMPDEST PUSH2 0x9C3 JUMP JUMPDEST STOP JUMPDEST PUSH2 0x397 PUSH1 0x4 DUP1 CALLDATASIZE SUB DUP2 ADD SWAP1 PUSH2 0x392 SWAP2 SWAP1 PUSH2 0x25C2 JUMP JUMPDEST PUSH2 0x9D5 JUMP JUMPDEST PUSH1 0x40 MLOAD PUSH2 0x3A4 SWAP2 SWAP1 PUSH2 0x23A2 JUMP JUMPDEST PUSH1 0x40 MLOAD DUP1 SWAP2 SUB SWAP1 RETURN JUMPDEST PUSH2 0x3B5 PUSH2 0x9F2 JUMP JUMPDEST PUSH1 0x40 MLOAD PUSH2 0x3C8 SWAP8 SWAP7 SWAP6 SWAP5 SWAP4 SWAP3 SWAP2 SWAP1 PUSH2 0x26ED JUMP JUMPDEST PUSH1 0x40 MLOAD DUP1 SWAP2 SUB SWAP1 RETURN JUMPDEST PUSH2 0x3D9 PUSH2 0xA97 JUMP JUMPDEST PUSH1 0x40 MLOAD PUSH2 0x3E6 SWAP2 SWAP1 PUSH2 0x225F JUMP JUMPDEST PUSH1 0x40 MLOAD DUP1 SWAP2 SUB SWAP1 RETURN JUMPDEST PUSH2 0x3F7 PUSH2 0xA9D JUMP JUMPDEST PUSH1 0x40 MLOAD PUSH2 0x404 SWAP2 SWAP1 PUSH2 0x276F JUMP JUMPDEST PUSH1 0x40 MLOAD DUP1 SWAP2 SUB SWAP1 RETURN JUMPDEST PUSH2 0x427 PUSH1 0x4 DUP1 CALLDATASIZE SUB DUP2 ADD SWAP1 PUSH2 0x422 SWAP2 SWAP1 PUSH2 0x28C8 JUMP JUMPDEST PUSH2 0xAC4 JUMP JUMPDEST STOP JUMPDEST PUSH2 0x443 PUSH1 0x4 DUP1 CALLDATASIZE SUB DUP2 ADD SWAP1 PUSH2 0x43E SWAP2 SWAP1 PUSH2 0x25C2 JUMP JUMPDEST PUSH2 0xB57 JUMP JUMPDEST STOP JUMPDEST PUSH2 0x45F PUSH1 0x4 DUP1 CALLDATASIZE SUB DUP2 ADD SWAP1 PUSH2 0x45A SWAP2 SWAP1 PUSH2 0x235D JUMP JUMPDEST PUSH2 0xD16 JUMP JUMPDEST STOP JUMPDEST PUSH2 0x47B PUSH1 0x4 DUP1 CALLDATASIZE SUB DUP2 ADD SWAP1 PUSH2 0x476 SWAP2 SWAP1 PUSH2 0x235D JUMP JUMPDEST PUSH2 0xD28 JUMP JUMPDEST STOP JUMPDEST PUSH2 0x485 PUSH2 0xD4D JUMP JUMPDEST PUSH1 0x40 MLOAD PUSH2 0x492 SWAP2 SWAP1 PUSH2 0x225F JUMP JUMPDEST PUSH1 0x40 MLOAD DUP1 SWAP2 SUB SWAP1 RETURN JUMPDEST PUSH2 0x4B5 PUSH1 0x4 DUP1 CALLDATASIZE SUB DUP2 ADD SWAP1 PUSH2 0x4B0 SWAP2 SWAP1 PUSH2 0x2922 JUMP JUMPDEST PUSH2 0xD53 JUMP JUMPDEST STOP JUMPDEST PUSH2 0x4BF PUSH2 0xF02 JUMP JUMPDEST PUSH1 0x40 MLOAD PUSH2 0x4CC SWAP2 SWAP1 PUSH2 0x225F JUMP JUMPDEST PUSH1 0x40 MLOAD DUP1 SWAP2 SUB SWAP1 RETURN JUMPDEST PUSH2 0x4EF PUSH1 0x4 DUP1 CALLDATASIZE SUB DUP2 ADD SWAP1 PUSH2 0x4EA SWAP2 SWAP1 PUSH2 0x2960 JUMP JUMPDEST PUSH2 0xF08 JUMP JUMPDEST STOP JUMPDEST PUSH2 0x50B PUSH1 0x4 DUP1 CALLDATASIZE SUB DUP2 ADD SWAP1 PUSH2 0x506 SWAP2 SWAP1 PUSH2 0x25C2 JUMP JUMPDEST PUSH2 0xF91 JUMP JUMPDEST STOP JUMPDEST PUSH2 0x527 PUSH1 0x4 DUP1 CALLDATASIZE SUB DUP2 ADD SWAP1 PUSH2 0x522 SWAP2 SWAP1 PUSH2 0x2922 JUMP JUMPDEST PUSH2 0x1015 JUMP JUMPDEST STOP JUMPDEST PUSH2 0x531 PUSH2 0x141C JUMP JUMPDEST PUSH1 0x40 MLOAD PUSH2 0x53E SWAP2 SWAP1 PUSH2 0x276F JUMP JUMPDEST PUSH1 0x40 MLOAD DUP1 SWAP2 SUB SWAP1 RETURN JUMPDEST PUSH2 0x561 PUSH1 0x4 DUP1 CALLDATASIZE SUB DUP2 ADD SWAP1 PUSH2 0x55C SWAP2 SWAP1 PUSH2 0x24E4 JUMP JUMPDEST PUSH2 0x1442 JUMP JUMPDEST STOP JUMPDEST PUSH2 0x56B PUSH2 0x181F JUMP JUMPDEST PUSH1 0x40 MLOAD PUSH2 0x578 SWAP2 SWAP1 PUSH2 0x225F JUMP JUMPDEST PUSH1 0x40 MLOAD DUP1 SWAP2 SUB SWAP1 RETURN JUMPDEST PUSH1 0x9 SLOAD DUP2 JUMP JUMPDEST PUSH1 0xD DUP1 SLOAD PUSH2 0x594 SWAP1 PUSH2 0x29DD JUMP JUMPDEST DUP1 PUSH1 0x1F ADD PUSH1 0x20 DUP1 SWAP2 DIV MUL PUSH1 0x20 ADD PUSH1 0x40 MLOAD SWAP1 DUP2 ADD PUSH1 0x40 MSTORE DUP1 SWAP3 SWAP2 SWAP1 DUP2 DUP2 MSTORE PUSH1 0x20 ADD DUP3 DUP1 SLOAD PUSH2 0x5C0 SWAP1 PUSH2 0x29DD JUMP JUMPDEST DUP1 ISZERO PUSH2 0x60B JUMPI DUP1 PUSH1 0x1F LT PUSH2 0x5E2 JUMPI PUSH2 0x100 DUP1 DUP4 SLOAD DIV MUL DUP4 MSTORE SWAP2 PUSH1 0x20 ADD SWAP2 PUSH2 0x60B JUMP JUMPDEST DUP3 ADD SWAP2 SWAP1 PUSH0 MSTORE PUSH1 0x20 PUSH0 KECCAK256 SWAP1 JUMPDEST DUP2 SLOAD DUP2 MSTORE SWAP1 PUSH1 0x1 ADD SWAP1 PUSH1 0x20 ADD DUP1 DUP4 GT PUSH2 0x5EE JUMPI DUP3 SWAP1 SUB PUSH1 0x1F AND DUP3 ADD SWAP2 JUMPDEST POP POP POP POP POP DUP2 JUMP JUMPDEST PUSH0 DUP1 PUSH8 0xDE0B6B3A7640000 PUSH1 0x6 SLOAD PUSH2 0x62B SWAP2 SWAP1 PUSH2 0x2A3A JUMP JUMPDEST PUSH1 0x3 PUSH0 SWAP1 SLOAD SWAP1 PUSH2 0x100 EXP SWAP1 DIV PUSH20 0xFFFFFFFFFFFFFFFFFFFFFFFFFFFFFFFFFFFFFFFF AND PUSH20 0xFFFFFFFFFFFFFFFFFFFFFFFFFFFFFFFFFFFFFFFF AND PUSH4 0x313CE567 PUSH1 0x40 MLOAD DUP2 PUSH4 0xFFFFFFFF AND PUSH1 0xE0 SHL DUP2 MSTORE PUSH1 0x4 ADD PUSH1 0x20 PUSH1 0x40 MLOAD DUP1 DUP4 SUB DUP2 DUP7 GAS STATICCALL ISZERO DUP1 ISZERO PUSH2 0x695 JUMPI RETURNDATASIZE PUSH0 DUP1 RETURNDATACOPY RETURNDATASIZE PUSH0 REVERT JUMPDEST POP POP POP POP PUSH1 0x40 MLOAD RETURNDATASIZE PUSH1 0x1F NOT PUSH1 0x1F DUP3 ADD AND DUP3 ADD DUP1 PUSH1 0x40 MSTORE POP DUP2 ADD SWAP1 PUSH2 0x6B9 SWAP2 SWAP1 PUSH2 0x2A8F JUMP JUMPDEST PUSH1 0xA PUSH2 0x6C5 SWAP2 SWAP1 PUSH2 0x2BE9 JUMP JUMPDEST PUSH1 0x1 DUP6 PUSH2 0x6D2 SWAP2 SWAP1 PUSH2 0x2A3A JUMP JUMPDEST PUSH2 0x6DC SWAP2 SWAP1 PUSH2 0x2A3A JUMP JUMPDEST PUSH2 0x6E6 SWAP2 SWAP1 PUSH2 0x2C60 JUMP JUMPDEST SWAP1 POP DUP1 SWAP2 POP POP SWAP2 SWAP1 POP JUMP JUMPDEST PUSH1 0xE PUSH0 SWAP1 SLOAD SWAP1 PUSH2 0x100 EXP SWAP1 DIV PUSH1 0xFF AND DUP2 JUMP JUMPDEST PUSH2 0x70B PUSH2 0x1825 JUMP JUMPDEST DUP2 PUSH1 0x3 PUSH0 PUSH2 0x100 EXP DUP2 SLOAD DUP2 PUSH20 0xFFFFFFFFFFFFFFFFFFFFFFFFFFFFFFFFFFFFFFFF MUL NOT AND SWAP1 DUP4 PUSH20 0xFFFFFFFFFFFFFFFFFFFFFFFFFFFFFFFFFFFFFFFF AND MUL OR SWAP1 SSTORE POP DUP1 PUSH1 0x4 PUSH0 PUSH2 0x100 EXP DUP2 SLOAD DUP2 PUSH20 0xFFFFFFFFFFFFFFFFFFFFFFFFFFFFFFFFFFFFFFFF MUL NOT AND SWAP1 DUP4 PUSH20 0xFFFFFFFFFFFFFFFFFFFFFFFFFFFFFFFFFFFFFFFF AND MUL OR SWAP1 SSTORE POP POP POP JUMP JUMPDEST PUSH1 0x6 SLOAD DUP2 JUMP JUMPDEST PUSH2 0x79D PUSH2 0x1825 JUMP JUMPDEST DUP1 PUSH1 0x6 DUP2 SWAP1 SSTORE POP POP JUMP JUMPDEST PUSH0 PUSH2 0x7B0 PUSH2 0x18AC JUMP JUMPDEST SWAP1 POP SWAP1 JUMP JUMPDEST PUSH2 0x7C3 DUP7 DUP7 DUP7 DUP7 DUP7 DUP7 PUSH2 0x1962 JUMP JUMPDEST PUSH0 ISZERO ISZERO PUSH1 0xE PUSH0 SWAP1 SLOAD SWAP1 PUSH2 0x100 EXP SWAP1 DIV PUSH1 0xFF AND ISZERO ISZERO EQ PUSH2 0x817 JUMPI PUSH1 0x40 MLOAD PUSH32 0x8C379A000000000000000000000000000000000000000000000000000000000 DUP2 MSTORE PUSH1 0x4 ADD PUSH2 0x80E SWAP1 PUSH2 0x2CDA JUMP JUMPDEST PUSH1 0x40 MLOAD DUP1 SWAP2 SUB SWAP1 REVERT JUMPDEST PUSH1 0x8 SLOAD DUP6 LT ISZERO PUSH2 0x85C JUMPI PUSH1 0x40 MLOAD PUSH32 0x8C379A000000000000000000000000000000000000000000000000000000000 DUP2 MSTORE PUSH1 0x4 ADD PUSH2 0x853 SWAP1 PUSH2 0x2D68 JUMP JUMPDEST PUSH1 0x40 MLOAD DUP1 SWAP2 SUB SWAP1 REVERT JUMPDEST PUSH1 0x4 PUSH0 SWAP1 SLOAD SWAP1 PUSH2 0x100 EXP SWAP1 DIV PUSH20 0xFFFFFFFFFFFFFFFFFFFFFFFFFFFFFFFFFFFFFFFF AND PUSH20 0xFFFFFFFFFFFFFFFFFFFFFFFFFFFFFFFFFFFFFFFF AND PUSH4 0xA9059CBB DUP8 DUP8 PUSH1 0x40 MLOAD DUP4 PUSH4 0xFFFFFFFF AND PUSH1 0xE0 SHL DUP2 MSTORE PUSH1 0x4 ADD PUSH2 0x8B8 SWAP3 SWAP2 SWAP1 PUSH2 0x2D86 JUMP JUMPDEST PUSH1 0x20 PUSH1 0x40 MLOAD DUP1 DUP4 SUB DUP2 PUSH0 DUP8 GAS CALL ISZERO DUP1 ISZERO PUSH2 0x8D4 JUMPI RETURNDATASIZE PUSH0 DUP1 RETURNDATACOPY RETURNDATASIZE PUSH0 REVERT JUMPDEST POP POP POP POP PUSH1 0x40 MLOAD RETURNDATASIZE PUSH1 0x1F NOT PUSH1 0x1F DUP3 ADD AND DUP3 ADD DUP1 PUSH1 0x40 MSTORE POP DUP2 ADD SWAP1 PUSH2 0x8F8 SWAP2 SWAP1 PUSH2 0x2DC1 JUMP JUMPDEST POP PUSH32 0xBA953728785DE35BE3827EE7A7A7867A8472947562602939440E6C0BDBF4725E DUP7 DUP7 PUSH1 0x40 MLOAD PUSH2 0x92A SWAP3 SWAP2 SWAP1 PUSH2 0x2D86 JUMP JUMPDEST PUSH1 0x40 MLOAD DUP1 SWAP2 SUB SWAP1 LOG1 POP POP POP POP POP POP JUMP JUMPDEST PUSH1 0x5 SLOAD DUP2 JUMP JUMPDEST PUSH2 0x948 PUSH2 0x1825 JUMP JUMPDEST DUP1 PUSH1 0xE PUSH0 PUSH2 0x100 EXP DUP2 SLOAD DUP2 PUSH1 0xFF MUL NOT AND SWAP1 DUP4 ISZERO ISZERO MUL OR SWAP1 SSTORE POP POP JUMP JUMPDEST PUSH2 0x96C PUSH2 0x1825 JUMP JUMPDEST DUP1 PUSH1 0xE PUSH1 0x1 PUSH2 0x100 EXP DUP2 SLOAD DUP2 PUSH20 0xFFFFFFFFFFFFFFFFFFFFFFFFFFFFFFFFFFFFFFFF MUL NOT AND SWAP1 DUP4 PUSH20 0xFFFFFFFFFFFFFFFFFFFFFFFFFFFFFFFFFFFFFFFF AND MUL OR SWAP1 SSTORE POP POP JUMP JUMPDEST PUSH2 0x9B8 PUSH2 0x1825 JUMP JUMPDEST PUSH2 0x9C1 PUSH0 PUSH2 0x1C37 JUMP JUMPDEST JUMP JUMPDEST PUSH2 0x9CB PUSH2 0x1825 JUMP JUMPDEST DUP1 PUSH1 0x5 DUP2 SWAP1 SSTORE POP POP JUMP JUMPDEST PUSH1 0xC PUSH1 0x20 MSTORE DUP1 PUSH0 MSTORE PUSH1 0x40 PUSH0 KECCAK256 PUSH0 SWAP2 POP SLOAD SWAP1 PUSH2 0x100 EXP SWAP1 DIV PUSH1 0xFF AND DUP2 JUMP JUMPDEST PUSH0 PUSH1 0x60 DUP1 PUSH0 DUP1 PUSH0 PUSH1 0x60 PUSH2 0xA03 PUSH2 0x1CF8 JUMP JUMPDEST PUSH2 0xA0B PUSH2 0x1D33 JUMP JUMPDEST CHAINID ADDRESS PUSH0 DUP1 SHL PUSH0 PUSH8 0xFFFFFFFFFFFFFFFF DUP2 GT ISZERO PUSH2 0xA2A JUMPI PUSH2 0xA29 PUSH2 0x278C JUMP JUMPDEST JUMPDEST PUSH1 0x40 MLOAD SWAP1 DUP1 DUP3 MSTORE DUP1 PUSH1 0x20 MUL PUSH1 0x20 ADD DUP3 ADD PUSH1 0x40 MSTORE DUP1 ISZERO PUSH2 0xA58 JUMPI DUP2 PUSH1 0x20 ADD PUSH1 0x20 DUP3 MUL DUP1 CALLDATASIZE DUP4 CALLDATACOPY DUP1 DUP3 ADD SWAP2 POP POP SWAP1 POP JUMPDEST POP PUSH32 0xF00000000000000000000000000000000000000000000000000000000000000 SWAP6 SWAP5 SWAP4 SWAP3 SWAP2 SWAP1 SWAP7 POP SWAP7 POP SWAP7 POP SWAP7 POP SWAP7 POP SWAP7 POP SWAP7 POP SWAP1 SWAP2 SWAP3 SWAP4 SWAP5 SWAP6 SWAP7 JUMP JUMPDEST PUSH1 0x7 SLOAD DUP2 JUMP JUMPDEST PUSH0 DUP1 PUSH0 SWAP1 SLOAD SWAP1 PUSH2 0x100 EXP SWAP1 DIV PUSH20 0xFFFFFFFFFFFFFFFFFFFFFFFFFFFFFFFFFFFFFFFF AND SWAP1 POP SWAP1 JUMP JUMPDEST PUSH2 0xACC PUSH2 0x1825 JUMP JUMPDEST PUSH0 JUMPDEST DUP3 MLOAD DUP2 LT ISZERO PUSH2 0xB52 JUMPI DUP2 PUSH1 0xC PUSH0 DUP6 DUP5 DUP2 MLOAD DUP2 LT PUSH2 0xAEE JUMPI PUSH2 0xAED PUSH2 0x2DEC JUMP JUMPDEST JUMPDEST PUSH1 0x20 MUL PUSH1 0x20 ADD ADD MLOAD PUSH20 0xFFFFFFFFFFFFFFFFFFFFFFFFFFFFFFFFFFFFFFFF AND PUSH20 0xFFFFFFFFFFFFFFFFFFFFFFFFFFFFFFFFFFFFFFFF AND DUP2 MSTORE PUSH1 0x20 ADD SWAP1 DUP2 MSTORE PUSH1 0x20 ADD PUSH0 KECCAK256 PUSH0 PUSH2 0x100 EXP DUP2 SLOAD DUP2 PUSH1 0xFF MUL NOT AND SWAP1 DUP4 ISZERO ISZERO MUL OR SWAP1 SSTORE POP DUP1 DUP1 PUSH1 0x1 ADD SWAP2 POP POP PUSH2 0xACE JUMP JUMPDEST POP POP POP JUMP JUMPDEST PUSH2 0xB5F PUSH2 0x1825 JUMP JUMPDEST PUSH0 PUSH1 0x3 PUSH0 SWAP1 SLOAD SWAP1 PUSH2 0x100 EXP SWAP1 DIV PUSH20 0xFFFFFFFFFFFFFFFFFFFFFFFFFFFFFFFFFFFFFFFF AND PUSH20 0xFFFFFFFFFFFFFFFFFFFFFFFFFFFFFFFFFFFFFFFF AND PUSH4 0x70A08231 ADDRESS PUSH1 0x40 MLOAD DUP3 PUSH4 0xFFFFFFFF AND PUSH1 0xE0 SHL DUP2 MSTORE PUSH1 0x4 ADD PUSH2 0xBBA SWAP2 SWAP1 PUSH2 0x276F JUMP JUMPDEST PUSH1 0x20 PUSH1 0x40 MLOAD DUP1 DUP4 SUB DUP2 DUP7 GAS STATICCALL ISZERO DUP1 ISZERO PUSH2 0xBD5 JUMPI RETURNDATASIZE PUSH0 DUP1 RETURNDATACOPY RETURNDATASIZE PUSH0 REVERT JUMPDEST POP POP POP POP PUSH1 0x40 MLOAD RETURNDATASIZE PUSH1 0x1F NOT PUSH1 0x1F DUP3 ADD AND DUP3 ADD DUP1 PUSH1 0x40 MSTORE POP DUP2 ADD SWAP1 PUSH2 0xBF9 SWAP2 SWAP1 PUSH2 0x2E2D JUMP JUMPDEST SWAP1 POP PUSH0 PUSH1 0x9 SLOAD PUSH1 0xB SLOAD PUSH1 0xA SLOAD DUP5 PUSH2 0xC10 SWAP2 SWAP1 PUSH2 0x2E58 JUMP JUMPDEST PUSH2 0xC1A SWAP2 SWAP1 PUSH2 0x2E58 JUMP JUMPDEST PUSH2 0xC24 SWAP2 SWAP1 PUSH2 0x2E8B JUMP JUMPDEST SWAP1 POP DUP1 PUSH1 0x9 PUSH0 DUP3 DUP3 SLOAD PUSH2 0xC37 SWAP2 SWAP1 PUSH2 0x2E58 JUMP JUMPDEST SWAP3 POP POP DUP2 SWAP1 SSTORE POP PUSH0 PUSH1 0x64 PUSH1 0x5 SLOAD DUP4 PUSH2 0xC4F SWAP2 SWAP1 PUSH2 0x2A3A JUMP JUMPDEST PUSH2 0xC59 SWAP2 SWAP1 PUSH2 0x2C60 JUMP JUMPDEST SWAP1 POP DUP1 PUSH1 0xB PUSH0 DUP3 DUP3 SLOAD PUSH2 0xC6C SWAP2 SWAP1 PUSH2 0x2E58 JUMP JUMPDEST SWAP3 POP POP DUP2 SWAP1 SSTORE POP PUSH1 0x3 PUSH0 SWAP1 SLOAD SWAP1 PUSH2 0x100 EXP SWAP1 DIV PUSH20 0xFFFFFFFFFFFFFFFFFFFFFFFFFFFFFFFFFFFFFFFF AND PUSH20 0xFFFFFFFFFFFFFFFFFFFFFFFFFFFFFFFFFFFFFFFF AND PUSH4 0xA9059CBB DUP6 DUP4 PUSH1 0x40 MLOAD DUP4 PUSH4 0xFFFFFFFF AND PUSH1 0xE0 SHL DUP2 MSTORE PUSH1 0x4 ADD PUSH2 0xCCF SWAP3 SWAP2 SWAP1 PUSH2 0x2D86 JUMP JUMPDEST PUSH1 0x20 PUSH1 0x40 MLOAD DUP1 DUP4 SUB DUP2 PUSH0 DUP8 GAS CALL ISZERO DUP1 ISZERO PUSH2 0xCEB JUMPI RETURNDATASIZE PUSH0 DUP1 RETURNDATACOPY RETURNDATASIZE PUSH0 REVERT JUMPDEST POP POP POP POP PUSH1 0x40 MLOAD RETURNDATASIZE PUSH1 0x1F NOT PUSH1 0x1F DUP3 ADD AND DUP3 ADD DUP1 PUSH1 0x40 MSTORE POP DUP2 ADD SWAP1 PUSH2 0xD0F SWAP2 SWAP1 PUSH2 0x2DC1 JUMP JUMPDEST POP POP POP POP POP JUMP JUMPDEST PUSH2 0xD1E PUSH2 0x1825 JUMP JUMPDEST DUP1 PUSH1 0x7 DUP2 SWAP1 SSTORE POP POP JUMP JUMPDEST PUSH2 0xD30 PUSH2 0x1825 JUMP JUMPDEST PUSH8 0xDE0B6B3A7640000 DUP2 PUSH2 0xD44 SWAP2 SWAP1 PUSH2 0x2A3A JUMP JUMPDEST PUSH1 0x8 DUP2 SWAP1 SSTORE POP POP JUMP JUMPDEST PUSH1 0xB SLOAD DUP2 JUMP JUMPDEST PUSH1 0x1 ISZERO ISZERO PUSH1 0xC PUSH0 CALLER PUSH20 0xFFFFFFFFFFFFFFFFFFFFFFFFFFFFFFFFFFFFFFFF AND PUSH20 0xFFFFFFFFFFFFFFFFFFFFFFFFFFFFFFFFFFFFFFFF AND DUP2 MSTORE PUSH1 0x20 ADD SWAP1 DUP2 MSTORE PUSH1 0x20 ADD PUSH0 KECCAK256 PUSH0 SWAP1 SLOAD SWAP1 PUSH2 0x100 EXP SWAP1 DIV PUSH1 0xFF AND ISZERO ISZERO EQ PUSH2 0xDE3 JUMPI PUSH1 0x40 MLOAD PUSH32 0x8C379A000000000000000000000000000000000000000000000000000000000 DUP2 MSTORE PUSH1 0x4 ADD PUSH2 0xDDA SWAP1 PUSH2 0x2F08 JUMP JUMPDEST PUSH1 0x40 MLOAD DUP1 SWAP2 SUB SWAP1 REVERT JUMPDEST PUSH1 0x8 SLOAD DUP2 LT ISZERO PUSH2 0xE28 JUMPI PUSH1 0x40 MLOAD PUSH32 0x8C379A000000000000000000000000000000000000000000000000000000000 DUP2 MSTORE PUSH1 0x4 ADD PUSH2 0xE1F SWAP1 PUSH2 0x2F96 JUMP JUMPDEST PUSH1 0x40 MLOAD DUP1 SWAP2 SUB SWAP1 REVERT JUMPDEST PUSH1 0x4 PUSH0 SWAP1 SLOAD SWAP1 PUSH2 0x100 EXP SWAP1 DIV PUSH20 0xFFFFFFFFFFFFFFFFFFFFFFFFFFFFFFFFFFFFFFFF AND PUSH20 0xFFFFFFFFFFFFFFFFFFFFFFFFFFFFFFFFFFFFFFFF AND PUSH4 0xA9059CBB DUP4 DUP4 PUSH1 0x40 MLOAD DUP4 PUSH4 0xFFFFFFFF AND PUSH1 0xE0 SHL DUP2 MSTORE PUSH1 0x4 ADD PUSH2 0xE84 SWAP3 SWAP2 SWAP1 PUSH2 0x2D86 JUMP JUMPDEST PUSH1 0x20 PUSH1 0x40 MLOAD DUP1 DUP4 SUB DUP2 PUSH0 DUP8 GAS CALL ISZERO DUP1 ISZERO PUSH2 0xEA0 JUMPI RETURNDATASIZE PUSH0 DUP1 RETURNDATACOPY RETURNDATASIZE PUSH0 REVERT JUMPDEST POP POP POP POP PUSH1 0x40 MLOAD RETURNDATASIZE PUSH1 0x1F NOT PUSH1 0x1F DUP3 ADD AND DUP3 ADD DUP1 PUSH1 0x40 MSTORE POP DUP2 ADD SWAP1 PUSH2 0xEC4 SWAP2 SWAP1 PUSH2 0x2DC1 JUMP JUMPDEST POP PUSH32 0xBA953728785DE35BE3827EE7A7A7867A8472947562602939440E6C0BDBF4725E DUP3 DUP3 PUSH1 0x40 MLOAD PUSH2 0xEF6 SWAP3 SWAP2 SWAP1 PUSH2 0x2D86 JUMP JUMPDEST PUSH1 0x40 MLOAD DUP1 SWAP2 SUB SWAP1 LOG1 POP POP JUMP JUMPDEST PUSH1 0x8 SLOAD DUP2 JUMP JUMPDEST PUSH2 0xF10 PUSH2 0x1825 JUMP JUMPDEST DUP3 PUSH20 0xFFFFFFFFFFFFFFFFFFFFFFFFFFFFFFFFFFFFFFFF AND PUSH4 0xA9059CBB DUP4 DUP4 PUSH1 0x40 MLOAD DUP4 PUSH4 0xFFFFFFFF AND PUSH1 0xE0 SHL DUP2 MSTORE PUSH1 0x4 ADD PUSH2 0xF4B SWAP3 SWAP2 SWAP1 PUSH2 0x2D86 JUMP JUMPDEST PUSH1 0x20 PUSH1 0x40 MLOAD DUP1 DUP4 SUB DUP2 PUSH0 DUP8 GAS CALL ISZERO DUP1 ISZERO PUSH2 0xF67 JUMPI RETURNDATASIZE PUSH0 DUP1 RETURNDATACOPY RETURNDATASIZE PUSH0 REVERT JUMPDEST POP POP POP POP PUSH1 0x40 MLOAD RETURNDATASIZE PUSH1 0x1F NOT PUSH1 0x1F DUP3 ADD AND DUP3 ADD DUP1 PUSH1 0x40 MSTORE POP DUP2 ADD SWAP1 PUSH2 0xF8B SWAP2 SWAP1 PUSH2 0x2DC1 JUMP JUMPDEST POP POP POP POP JUMP JUMPDEST PUSH2 0xF99 PUSH2 0x1825 JUMP JUMPDEST PUSH0 PUSH20 0xFFFFFFFFFFFFFFFFFFFFFFFFFFFFFFFFFFFFFFFF AND DUP2 PUSH20 0xFFFFFFFFFFFFFFFFFFFFFFFFFFFFFFFFFFFFFFFF AND SUB PUSH2 0x1009 JUMPI PUSH0 PUSH1 0x40 MLOAD PUSH32 0x1E4FBDF700000000000000000000000000000000000000000000000000000000 DUP2 MSTORE PUSH1 0x4 ADD PUSH2 0x1000 SWAP2 SWAP1 PUSH2 0x276F JUMP JUMPDEST PUSH1 0x40 MLOAD DUP1 SWAP2 SUB SWAP1 REVERT JUMPDEST PUSH2 0x1012 DUP2 PUSH2 0x1C37 JUMP JUMPDEST POP JUMP JUMPDEST PUSH1 0x1 ISZERO ISZERO PUSH1 0xC PUSH0 CALLER PUSH20 0xFFFFFFFFFFFFFFFFFFFFFFFFFFFFFFFFFFFFFFFF AND PUSH20 0xFFFFFFFFFFFFFFFFFFFFFFFFFFFFFFFFFFFFFFFF AND DUP2 MSTORE PUSH1 0x20 ADD SWAP1 DUP2 MSTORE PUSH1 0x20 ADD PUSH0 KECCAK256 PUSH0 SWAP1 SLOAD SWAP1 PUSH2 0x100 EXP SWAP1 DIV PUSH1 0xFF AND ISZERO ISZERO EQ PUSH2 0x10A5 JUMPI PUSH1 0x40 MLOAD PUSH32 0x8C379A000000000000000000000000000000000000000000000000000000000 DUP2 MSTORE PUSH1 0x4 ADD PUSH2 0x109C SWAP1 PUSH2 0x2F08 JUMP JUMPDEST PUSH1 0x40 MLOAD DUP1 SWAP2 SUB SWAP1 REVERT JUMPDEST DUP1 PUSH1 0x4 PUSH0 SWAP1 SLOAD SWAP1 PUSH2 0x100 EXP SWAP1 DIV PUSH20 0xFFFFFFFFFFFFFFFFFFFFFFFFFFFFFFFFFFFFFFFF AND PUSH20 0xFFFFFFFFFFFFFFFFFFFFFFFFFFFFFFFFFFFFFFFF AND PUSH4 0x70A08231 DUP5 PUSH1 0x40 MLOAD DUP3 PUSH4 0xFFFFFFFF AND PUSH1 0xE0 SHL DUP2 MSTORE PUSH1 0x4 ADD PUSH2 0x1100 SWAP2 SWAP1 PUSH2 0x276F JUMP JUMPDEST PUSH1 0x20 PUSH1 0x40 MLOAD DUP1 DUP4 SUB DUP2 DUP7 GAS STATICCALL ISZERO DUP1 ISZERO PUSH2 0x111B JUMPI RETURNDATASIZE PUSH0 DUP1 RETURNDATACOPY RETURNDATASIZE PUSH0 REVERT JUMPDEST POP POP POP POP PUSH1 0x40 MLOAD RETURNDATASIZE PUSH1 0x1F NOT PUSH1 0x1F DUP3 ADD AND DUP3 ADD DUP1 PUSH1 0x40 MSTORE POP DUP2 ADD SWAP1 PUSH2 0x113F SWAP2 SWAP1 PUSH2 0x2E2D JUMP JUMPDEST LT ISZERO PUSH2 0x1180 JUMPI PUSH1 0x40 MLOAD PUSH32 0x8C379A000000000000000000000000000000000000000000000000000000000 DUP2 MSTORE PUSH1 0x4 ADD PUSH2 0x1177 SWAP1 PUSH2 0x2FFE JUMP JUMPDEST PUSH1 0x40 MLOAD DUP1 SWAP2 SUB SWAP1 REVERT JUMPDEST PUSH1 0x8 SLOAD DUP2 LT ISZERO PUSH2 0x11C5 JUMPI PUSH1 0x40 MLOAD PUSH32 0x8C379A000000000000000000000000000000000000000000000000000000000 DUP2 MSTORE PUSH1 0x4 ADD PUSH2 0x11BC SWAP1 PUSH2 0x2F96 JUMP JUMPDEST PUSH1 0x40 MLOAD DUP1 SWAP2 SUB SWAP1 REVERT JUMPDEST PUSH0 PUSH2 0x11CF DUP3 PUSH2 0x613 JUMP JUMPDEST SWAP1 POP DUP1 PUSH1 0xA PUSH0 DUP3 DUP3 SLOAD PUSH2 0x11E2 SWAP2 SWAP1 PUSH2 0x2E58 JUMP JUMPDEST SWAP3 POP POP DUP2 SWAP1 SSTORE POP PUSH0 PUSH1 0x64 PUSH1 0x7 SLOAD DUP4 PUSH2 0x11FA SWAP2 SWAP1 PUSH2 0x2A3A JUMP JUMPDEST PUSH2 0x1204 SWAP2 SWAP1 PUSH2 0x2C60 JUMP JUMPDEST SWAP1 POP PUSH0 DUP2 DUP4 PUSH2 0x1213 SWAP2 SWAP1 PUSH2 0x2E8B JUMP JUMPDEST SWAP1 POP PUSH1 0x4 PUSH0 SWAP1 SLOAD SWAP1 PUSH2 0x100 EXP SWAP1 DIV PUSH20 0xFFFFFFFFFFFFFFFFFFFFFFFFFFFFFFFFFFFFFFFF AND PUSH20 0xFFFFFFFFFFFFFFFFFFFFFFFFFFFFFFFFFFFFFFFF AND PUSH4 0x9DC29FAC DUP7 DUP7 PUSH1 0x40 MLOAD DUP4 PUSH4 0xFFFFFFFF AND PUSH1 0xE0 SHL DUP2 MSTORE PUSH1 0x4 ADD PUSH2 0x1271 SWAP3 SWAP2 SWAP1 PUSH2 0x2D86 JUMP JUMPDEST PUSH0 PUSH1 0x40 MLOAD DUP1 DUP4 SUB DUP2 PUSH0 DUP8 DUP1 EXTCODESIZE ISZERO DUP1 ISZERO PUSH2 0x1288 JUMPI PUSH0 DUP1 REVERT JUMPDEST POP GAS CALL ISZERO DUP1 ISZERO PUSH2 0x129A JUMPI RETURNDATASIZE PUSH0 DUP1 RETURNDATACOPY RETURNDATASIZE PUSH0 REVERT JUMPDEST POP POP POP POP PUSH1 0x3 PUSH0 SWAP1 SLOAD SWAP1 PUSH2 0x100 EXP SWAP1 DIV PUSH20 0xFFFFFFFFFFFFFFFFFFFFFFFFFFFFFFFFFFFFFFFF AND PUSH20 0xFFFFFFFFFFFFFFFFFFFFFFFFFFFFFFFFFFFFFFFF AND PUSH4 0xA9059CBB DUP7 DUP4 PUSH1 0x40 MLOAD DUP4 PUSH4 0xFFFFFFFF AND PUSH1 0xE0 SHL DUP2 MSTORE PUSH1 0x4 ADD PUSH2 0x12FA SWAP3 SWAP2 SWAP1 PUSH2 0x2D86 JUMP JUMPDEST PUSH1 0x20 PUSH1 0x40 MLOAD DUP1 DUP4 SUB DUP2 PUSH0 DUP8 GAS CALL ISZERO DUP1 ISZERO PUSH2 0x1316 JUMPI RETURNDATASIZE PUSH0 DUP1 RETURNDATACOPY RETURNDATASIZE PUSH0 REVERT JUMPDEST POP POP POP POP PUSH1 0x40 MLOAD RETURNDATASIZE PUSH1 0x1F NOT PUSH1 0x1F DUP3 ADD AND DUP3 ADD DUP1 PUSH1 0x40 MSTORE POP DUP2 ADD SWAP1 PUSH2 0x133A SWAP2 SWAP1 PUSH2 0x2DC1 JUMP JUMPDEST POP PUSH1 0x3 PUSH0 SWAP1 SLOAD SWAP1 PUSH2 0x100 EXP SWAP1 DIV PUSH20 0xFFFFFFFFFFFFFFFFFFFFFFFFFFFFFFFFFFFFFFFF AND PUSH20 0xFFFFFFFFFFFFFFFFFFFFFFFFFFFFFFFFFFFFFFFF AND PUSH4 0xA9059CBB CALLER DUP5 PUSH1 0x40 MLOAD DUP4 PUSH4 0xFFFFFFFF AND PUSH1 0xE0 SHL DUP2 MSTORE PUSH1 0x4 ADD PUSH2 0x1397 SWAP3 SWAP2 SWAP1 PUSH2 0x2D86 JUMP JUMPDEST PUSH1 0x20 PUSH1 0x40 MLOAD DUP1 DUP4 SUB DUP2 PUSH0 DUP8 GAS CALL ISZERO DUP1 ISZERO PUSH2 0x13B3 JUMPI RETURNDATASIZE PUSH0 DUP1 RETURNDATACOPY RETURNDATASIZE PUSH0 REVERT JUMPDEST POP POP POP POP PUSH1 0x40 MLOAD RETURNDATASIZE PUSH1 0x1F NOT PUSH1 0x1F DUP3 ADD AND DUP3 ADD DUP1 PUSH1 0x40 MSTORE POP DUP2 ADD SWAP1 PUSH2 0x13D7 SWAP2 SWAP1 PUSH2 0x2DC1 JUMP JUMPDEST POP PUSH32 0xC9EC92487A51A4894B66E92FA35D58109271421843B717E764249309F96AB9B5 DUP6 DUP6 DUP4 DUP6 PUSH1 0x40 MLOAD PUSH2 0x140D SWAP5 SWAP4 SWAP3 SWAP2 SWAP1 PUSH2 0x301C JUMP JUMPDEST PUSH1 0x40 MLOAD DUP1 SWAP2 SUB SWAP1 LOG1 POP POP POP POP POP JUMP JUMPDEST PUSH1 0xE PUSH1 0x1 SWAP1 SLOAD SWAP1 PUSH2 0x100 EXP SWAP1 DIV PUSH20 0xFFFFFFFFFFFFFFFFFFFFFFFFFFFFFFFFFFFFFFFF AND DUP2 JUMP JUMPDEST PUSH2 0x1450 DUP7 DUP7 DUP7 DUP7 DUP7 DUP7 PUSH2 0x1962 JUMP JUMPDEST PUSH0 ISZERO ISZERO PUSH1 0xE PUSH0 SWAP1 SLOAD SWAP1 PUSH2 0x100 EXP SWAP1 DIV PUSH1 0xFF AND ISZERO ISZERO EQ PUSH2 0x14A4 JUMPI PUSH1 0x40 MLOAD PUSH32 0x8C379A000000000000000000000000000000000000000000000000000000000 DUP2 MSTORE PUSH1 0x4 ADD PUSH2 0x149B SWAP1 PUSH2 0x2CDA JUMP JUMPDEST PUSH1 0x40 MLOAD DUP1 SWAP2 SUB SWAP1 REVERT JUMPDEST DUP5 PUSH1 0x4 PUSH0 SWAP1 SLOAD SWAP1 PUSH2 0x100 EXP SWAP1 DIV PUSH20 0xFFFFFFFFFFFFFFFFFFFFFFFFFFFFFFFFFFFFFFFF AND PUSH20 0xFFFFFFFFFFFFFFFFFFFFFFFFFFFFFFFFFFFFFFFF AND PUSH4 0x70A08231 DUP9 PUSH1 0x40 MLOAD DUP3 PUSH4 0xFFFFFFFF AND PUSH1 0xE0 SHL DUP2 MSTORE PUSH1 0x4 ADD PUSH2 0x14FF SWAP2 SWAP1 PUSH2 0x276F JUMP JUMPDEST PUSH1 0x20 PUSH1 0x40 MLOAD DUP1 DUP4 SUB DUP2 DUP7 GAS STATICCALL ISZERO DUP1 ISZERO PUSH2 0x151A JUMPI RETURNDATASIZE PUSH0 DUP1 RETURNDATACOPY RETURNDATASIZE PUSH0 REVERT JUMPDEST POP POP POP POP PUSH1 0x40 MLOAD RETURNDATASIZE PUSH1 0x1F NOT PUSH1 0x1F DUP3 ADD AND DUP3 ADD DUP1 PUSH1 0x40 MSTORE POP DUP2 ADD SWAP1 PUSH2 0x153E SWAP2 SWAP1 PUSH2 0x2E2D JUMP JUMPDEST LT ISZERO PUSH2 0x157F JUMPI PUSH1 0x40 MLOAD PUSH32 0x8C379A000000000000000000000000000000000000000000000000000000000 DUP2 MSTORE PUSH1 0x4 ADD PUSH2 0x1576 SWAP1 PUSH2 0x2FFE JUMP JUMPDEST PUSH1 0x40 MLOAD DUP1 SWAP2 SUB SWAP1 REVERT JUMPDEST PUSH1 0x8 SLOAD DUP6 LT ISZERO PUSH2 0x15C4 JUMPI PUSH1 0x40 MLOAD PUSH32 0x8C379A000000000000000000000000000000000000000000000000000000000 DUP2 MSTORE PUSH1 0x4 ADD PUSH2 0x15BB SWAP1 PUSH2 0x2F96 JUMP JUMPDEST PUSH1 0x40 MLOAD DUP1 SWAP2 SUB SWAP1 REVERT JUMPDEST PUSH0 PUSH2 0x15CE DUP7 PUSH2 0x613 JUMP JUMPDEST SWAP1 POP DUP1 PUSH1 0xA PUSH0 DUP3 DUP3 SLOAD PUSH2 0x15E1 SWAP2 SWAP1 PUSH2 0x2E58 JUMP JUMPDEST SWAP3 POP POP DUP2 SWAP1 SSTORE POP PUSH0 PUSH1 0x64 PUSH1 0x7 SLOAD DUP4 PUSH2 0x15F9 SWAP2 SWAP1 PUSH2 0x2A3A JUMP JUMPDEST PUSH2 0x1603 SWAP2 SWAP1 PUSH2 0x2C60 JUMP JUMPDEST SWAP1 POP PUSH0 DUP2 DUP4 PUSH2 0x1612 SWAP2 SWAP1 PUSH2 0x2E8B JUMP JUMPDEST SWAP1 POP PUSH1 0x4 PUSH0 SWAP1 SLOAD SWAP1 PUSH2 0x100 EXP SWAP1 DIV PUSH20 0xFFFFFFFFFFFFFFFFFFFFFFFFFFFFFFFFFFFFFFFF AND PUSH20 0xFFFFFFFFFFFFFFFFFFFFFFFFFFFFFFFFFFFFFFFF AND PUSH4 0x9DC29FAC DUP11 DUP11 PUSH1 0x40 MLOAD DUP4 PUSH4 0xFFFFFFFF AND PUSH1 0xE0 SHL DUP2 MSTORE PUSH1 0x4 ADD PUSH2 0x1670 SWAP3 SWAP2 SWAP1 PUSH2 0x2D86 JUMP JUMPDEST PUSH0 PUSH1 0x40 MLOAD DUP1 DUP4 SUB DUP2 PUSH0 DUP8 DUP1 EXTCODESIZE ISZERO DUP1 ISZERO PUSH2 0x1687 JUMPI PUSH0 DUP1 REVERT JUMPDEST POP GAS CALL ISZERO DUP1 ISZERO PUSH2 0x1699 JUMPI RETURNDATASIZE PUSH0 DUP1 RETURNDATACOPY RETURNDATASIZE PUSH0 REVERT JUMPDEST POP POP POP POP PUSH1 0x3 PUSH0 SWAP1 SLOAD SWAP1 PUSH2 0x100 EXP SWAP1 DIV PUSH20 0xFFFFFFFFFFFFFFFFFFFFFFFFFFFFFFFFFFFFFFFF AND PUSH20 0xFFFFFFFFFFFFFFFFFFFFFFFFFFFFFFFFFFFFFFFF AND PUSH4 0xA9059CBB DUP11 DUP4 PUSH1 0x40 MLOAD DUP4 PUSH4 0xFFFFFFFF AND PUSH1 0xE0 SHL DUP2 MSTORE PUSH1 0x4 ADD PUSH2 0x16F9 SWAP3 SWAP2 SWAP1 PUSH2 0x2D86 JUMP JUMPDEST PUSH1 0x20 PUSH1 0x40 MLOAD DUP1 DUP4 SUB DUP2 PUSH0 DUP8 GAS CALL ISZERO DUP1 ISZERO PUSH2 0x1715 JUMPI RETURNDATASIZE PUSH0 DUP1 RETURNDATACOPY RETURNDATASIZE PUSH0 REVERT JUMPDEST POP POP POP POP PUSH1 0x40 MLOAD RETURNDATASIZE PUSH1 0x1F NOT PUSH1 0x1F DUP3 ADD AND DUP3 ADD DUP1 PUSH1 0x40 MSTORE POP DUP2 ADD SWAP1 PUSH2 0x1739 SWAP2 SWAP1 PUSH2 0x2DC1 JUMP JUMPDEST POP PUSH1 0x3 PUSH0 SWAP1 SLOAD SWAP1 PUSH2 0x100 EXP SWAP1 DIV PUSH20 0xFFFFFFFFFFFFFFFFFFFFFFFFFFFFFFFFFFFFFFFF AND PUSH20 0xFFFFFFFFFFFFFFFFFFFFFFFFFFFFFFFFFFFFFFFF AND PUSH4 0xA9059CBB CALLER DUP5 PUSH1 0x40 MLOAD DUP4 PUSH4 0xFFFFFFFF AND PUSH1 0xE0 SHL DUP2 MSTORE PUSH1 0x4 ADD PUSH2 0x1796 SWAP3 SWAP2 SWAP1 PUSH2 0x2D86 JUMP JUMPDEST PUSH1 0x20 PUSH1 0x40 MLOAD DUP1 DUP4 SUB DUP2 PUSH0 DUP8 GAS CALL ISZERO DUP1 ISZERO PUSH2 0x17B2 JUMPI RETURNDATASIZE PUSH0 DUP1 RETURNDATACOPY RETURNDATASIZE PUSH0 REVERT JUMPDEST POP POP POP POP PUSH1 0x40 MLOAD RETURNDATASIZE PUSH1 0x1F NOT PUSH1 0x1F DUP3 ADD AND DUP3 ADD DUP1 PUSH1 0x40 MSTORE POP DUP2 ADD SWAP1 PUSH2 0x17D6 SWAP2 SWAP1 PUSH2 0x2DC1 JUMP JUMPDEST POP PUSH32 0xC9EC92487A51A4894B66E92FA35D58109271421843B717E764249309F96AB9B5 DUP10 DUP10 DUP4 DUP6 PUSH1 0x40 MLOAD PUSH2 0x180C SWAP5 SWAP4 SWAP3 SWAP2 SWAP1 PUSH2 0x301C JUMP JUMPDEST PUSH1 0x40 MLOAD DUP1 SWAP2 SUB SWAP1 LOG1 POP POP POP POP POP POP POP POP POP JUMP JUMPDEST PUSH1 0xA SLOAD DUP2 JUMP JUMPDEST PUSH2 0x182D PUSH2 0x1D6E JUMP JUMPDEST PUSH20 0xFFFFFFFFFFFFFFFFFFFFFFFFFFFFFFFFFFFFFFFF AND PUSH2 0x184B PUSH2 0xA9D JUMP JUMPDEST PUSH20 0xFFFFFFFFFFFFFFFFFFFFFFFFFFFFFFFFFFFFFFFF AND EQ PUSH2 0x18AA JUMPI PUSH2 0x186E PUSH2 0x1D6E JUMP JUMPDEST PUSH1 0x40 MLOAD PUSH32 0x118CDAA700000000000000000000000000000000000000000000000000000000 DUP2 MSTORE PUSH1 0x4 ADD PUSH2 0x18A1 SWAP2 SWAP1 PUSH2 0x276F JUMP JUMPDEST PUSH1 0x40 MLOAD DUP1 SWAP2 SUB SWAP1 REVERT JUMPDEST JUMP JUMPDEST PUSH0 PUSH32 0x0 PUSH20 0xFFFFFFFFFFFFFFFFFFFFFFFFFFFFFFFFFFFFFFFF AND ADDRESS PUSH20 0xFFFFFFFFFFFFFFFFFFFFFFFFFFFFFFFFFFFFFFFF AND EQ DUP1 ISZERO PUSH2 0x1927 JUMPI POP PUSH32 0x0 CHAINID EQ JUMPDEST ISZERO PUSH2 0x1954 JUMPI PUSH32 0x0 SWAP1 POP PUSH2 0x195F JUMP JUMPDEST PUSH2 0x195C PUSH2 0x1D75 JUMP JUMPDEST SWAP1 POP JUMPDEST SWAP1 JUMP JUMPDEST PUSH0 ISZERO ISZERO PUSH1 0xF PUSH0 DUP6 PUSH1 0xFF AND PUSH1 0xFF AND DUP2 MSTORE PUSH1 0x20 ADD SWAP1 DUP2 MSTORE PUSH1 0x20 ADD PUSH0 KECCAK256 PUSH0 SWAP1 SLOAD SWAP1 PUSH2 0x100 EXP SWAP1 DIV PUSH1 0xFF AND ISZERO ISZERO EQ DUP1 PUSH2 0x19B7 JUMPI POP PUSH0 ISZERO ISZERO PUSH1 0x10 PUSH0 DUP5 DUP2 MSTORE PUSH1 0x20 ADD SWAP1 DUP2 MSTORE PUSH1 0x20 ADD PUSH0 KECCAK256 PUSH0 SWAP1 SLOAD SWAP1 PUSH2 0x100 EXP SWAP1 DIV PUSH1 0xFF AND ISZERO ISZERO EQ JUMPDEST DUP1 PUSH2 0x19E2 JUMPI POP PUSH0 ISZERO ISZERO PUSH1 0x11 PUSH0 DUP4 DUP2 MSTORE PUSH1 0x20 ADD SWAP1 DUP2 MSTORE PUSH1 0x20 ADD PUSH0 KECCAK256 PUSH0 SWAP1 SLOAD SWAP1 PUSH2 0x100 EXP SWAP1 DIV PUSH1 0xFF AND ISZERO ISZERO EQ JUMPDEST PUSH2 0x1A21 JUMPI PUSH1 0x40 MLOAD PUSH32 0x8C379A000000000000000000000000000000000000000000000000000000000 DUP2 MSTORE PUSH1 0x4 ADD PUSH2 0x1A18 SWAP1 PUSH2 0x30A9 JUMP JUMPDEST PUSH1 0x40 MLOAD DUP1 SWAP2 SUB SWAP1 REVERT JUMPDEST DUP4 TIMESTAMP GT ISZERO PUSH2 0x1A66 JUMPI DUP4 PUSH1 0x40 MLOAD PUSH32 0x6279130200000000000000000000000000000000000000000000000000000000 DUP2 MSTORE PUSH1 0x4 ADD PUSH2 0x1A5D SWAP2 SWAP1 PUSH2 0x225F JUMP JUMPDEST PUSH1 0x40 MLOAD DUP1 SWAP2 SUB SWAP1 REVERT JUMPDEST PUSH0 PUSH32 0x5619A74ECD0240AFC3BFB1DF2BD1319401220FB577809C3A09BF0AB809AC861 PUSH1 0xE PUSH1 0x1 SWAP1 SLOAD SWAP1 PUSH2 0x100 EXP SWAP1 DIV PUSH20 0xFFFFFFFFFFFFFFFFFFFFFFFFFFFFFFFFFFFFFFFF AND DUP9 DUP9 DUP9 PUSH1 0x40 MLOAD PUSH1 0x20 ADD PUSH2 0x1AC2 SWAP6 SWAP5 SWAP4 SWAP3 SWAP2 SWAP1 PUSH2 0x30C7 JUMP JUMPDEST PUSH1 0x40 MLOAD PUSH1 0x20 DUP2 DUP4 SUB SUB DUP2 MSTORE SWAP1 PUSH1 0x40 MSTORE DUP1 MLOAD SWAP1 PUSH1 0x20 ADD KECCAK256 SWAP1 POP PUSH0 PUSH2 0x1AE4 DUP3 PUSH2 0x1E0A JUMP JUMPDEST SWAP1 POP PUSH0 PUSH2 0x1AF3 DUP3 DUP8 DUP8 DUP8 PUSH2 0x1E23 JUMP JUMPDEST SWAP1 POP PUSH1 0xE PUSH1 0x1 SWAP1 SLOAD SWAP1 PUSH2 0x100 EXP SWAP1 DIV PUSH20 0xFFFFFFFFFFFFFFFFFFFFFFFFFFFFFFFFFFFFFFFF AND PUSH20 0xFFFFFFFFFFFFFFFFFFFFFFFFFFFFFFFFFFFFFFFF AND DUP2 PUSH20 0xFFFFFFFFFFFFFFFFFFFFFFFFFFFFFFFFFFFFFFFF AND EQ PUSH2 0x1BAB JUMPI DUP1 PUSH1 0xE PUSH1 0x1 SWAP1 SLOAD SWAP1 PUSH2 0x100 EXP SWAP1 DIV PUSH20 0xFFFFFFFFFFFFFFFFFFFFFFFFFFFFFFFFFFFFFFFF AND PUSH1 0x40 MLOAD PUSH32 0x4B800E4600000000000000000000000000000000000000000000000000000000 DUP2 MSTORE PUSH1 0x4 ADD PUSH2 0x1BA2 SWAP3 SWAP2 SWAP1 PUSH2 0x3118 JUMP JUMPDEST PUSH1 0x40 MLOAD DUP1 SWAP2 SUB SWAP1 REVERT JUMPDEST PUSH1 0x1 PUSH1 0xF PUSH0 DUP9 PUSH1 0xFF AND PUSH1 0xFF AND DUP2 MSTORE PUSH1 0x20 ADD SWAP1 DUP2 MSTORE PUSH1 0x20 ADD PUSH0 KECCAK256 PUSH0 PUSH2 0x100 EXP DUP2 SLOAD DUP2 PUSH1 0xFF MUL NOT AND SWAP1 DUP4 ISZERO ISZERO MUL OR SWAP1 SSTORE POP PUSH1 0x1 PUSH1 0x10 PUSH0 DUP8 DUP2 MSTORE PUSH1 0x20 ADD SWAP1 DUP2 MSTORE PUSH1 0x20 ADD PUSH0 KECCAK256 PUSH0 PUSH2 0x100 EXP DUP2 SLOAD DUP2 PUSH1 0xFF MUL NOT AND SWAP1 DUP4 ISZERO ISZERO MUL OR SWAP1 SSTORE POP PUSH1 0x1 PUSH1 0x11 PUSH0 DUP7 DUP2 MSTORE PUSH1 0x20 ADD SWAP1 DUP2 MSTORE PUSH1 0x20 ADD PUSH0 KECCAK256 PUSH0 PUSH2 0x100 EXP DUP2 SLOAD DUP2 PUSH1 0xFF MUL NOT AND SWAP1 DUP4 ISZERO ISZERO MUL OR SWAP1 SSTORE POP POP POP POP POP POP POP POP POP POP JUMP JUMPDEST PUSH0 DUP1 PUSH0 SWAP1 SLOAD SWAP1 PUSH2 0x100 EXP SWAP1 DIV PUSH20 0xFFFFFFFFFFFFFFFFFFFFFFFFFFFFFFFFFFFFFFFF AND SWAP1 POP DUP2 PUSH0 DUP1 PUSH2 0x100 EXP DUP2 SLOAD DUP2 PUSH20 0xFFFFFFFFFFFFFFFFFFFFFFFFFFFFFFFFFFFFFFFF MUL NOT AND SWAP1 DUP4 PUSH20 0xFFFFFFFFFFFFFFFFFFFFFFFFFFFFFFFFFFFFFFFF AND MUL OR SWAP1 SSTORE POP DUP2 PUSH20 0xFFFFFFFFFFFFFFFFFFFFFFFFFFFFFFFFFFFFFFFF AND DUP2 PUSH20 0xFFFFFFFFFFFFFFFFFFFFFFFFFFFFFFFFFFFFFFFF AND PUSH32 0x8BE0079C531659141344CD1FD0A4F28419497F9722A3DAAFE3B4186F6B6457E0 PUSH1 0x40 MLOAD PUSH1 0x40 MLOAD DUP1 SWAP2 SUB SWAP1 LOG3 POP POP JUMP JUMPDEST PUSH1 0x60 PUSH2 0x1D2E PUSH1 0x1 PUSH32 0x0 PUSH2 0x1E51 SWAP1 SWAP2 SWAP1 PUSH4 0xFFFFFFFF AND JUMP JUMPDEST SWAP1 POP SWAP1 JUMP JUMPDEST PUSH1 0x60 PUSH2 0x1D69 PUSH1 0x2 PUSH32 0x0 PUSH2 0x1E51 SWAP1 SWAP2 SWAP1 PUSH4 0xFFFFFFFF AND JUMP JUMPDEST SWAP1 POP SWAP1 JUMP JUMPDEST PUSH0 CALLER SWAP1 POP SWAP1 JUMP JUMPDEST PUSH0 PUSH32 0x8B73C3C69BB8FE3D512ECC4CF759CC79239F7B179B0FFACAA9A75D522B39400F PUSH32 0x0 PUSH32 0x0 CHAINID ADDRESS PUSH1 0x40 MLOAD PUSH1 0x20 ADD PUSH2 0x1DEF SWAP6 SWAP5 SWAP4 SWAP3 SWAP2 SWAP1 PUSH2 0x313F JUMP JUMPDEST PUSH1 0x40 MLOAD PUSH1 0x20 DUP2 DUP4 SUB SUB DUP2 MSTORE SWAP1 PUSH1 0x40 MSTORE DUP1 MLOAD SWAP1 PUSH1 0x20 ADD KECCAK256 SWAP1 POP SWAP1 JUMP JUMPDEST PUSH0 PUSH2 0x1E1C PUSH2 0x1E16 PUSH2 0x18AC JUMP JUMPDEST DUP4 PUSH2 0x1EFE JUMP JUMPDEST SWAP1 POP SWAP2 SWAP1 POP JUMP JUMPDEST PUSH0 DUP1 PUSH0 DUP1 PUSH2 0x1E33 DUP9 DUP9 DUP9 DUP9 PUSH2 0x1F3E JUMP JUMPDEST SWAP3 POP SWAP3 POP SWAP3 POP PUSH2 0x1E43 DUP3 DUP3 PUSH2 0x2025 JUMP JUMPDEST DUP3 SWAP4 POP POP POP POP SWAP5 SWAP4 POP POP POP POP JUMP JUMPDEST PUSH1 0x60 PUSH1 0xFF PUSH0 SHL DUP4 EQ PUSH2 0x1E6D JUMPI PUSH2 0x1E66 DUP4 PUSH2 0x2187 JUMP JUMPDEST SWAP1 POP PUSH2 0x1EF8 JUMP JUMPDEST DUP2 DUP1 SLOAD PUSH2 0x1E79 SWAP1 PUSH2 0x29DD JUMP JUMPDEST DUP1 PUSH1 0x1F ADD PUSH1 0x20 DUP1 SWAP2 DIV MUL PUSH1 0x20 ADD PUSH1 0x40 MLOAD SWAP1 DUP2 ADD PUSH1 0x40 MSTORE DUP1 SWAP3 SWAP2 SWAP1 DUP2 DUP2 MSTORE PUSH1 0x20 ADD DUP3 DUP1 SLOAD PUSH2 0x1EA5 SWAP1 PUSH2 0x29DD JUMP JUMPDEST DUP1 ISZERO PUSH2 0x1EF0 JUMPI DUP1 PUSH1 0x1F LT PUSH2 0x1EC7 JUMPI PUSH2 0x100 DUP1 DUP4 SLOAD DIV MUL DUP4 MSTORE SWAP2 PUSH1 0x20 ADD SWAP2 PUSH2 0x1EF0 JUMP JUMPDEST DUP3 ADD SWAP2 SWAP1 PUSH0 MSTORE PUSH1 0x20 PUSH0 KECCAK256 SWAP1 JUMPDEST DUP2 SLOAD DUP2 MSTORE SWAP1 PUSH1 0x1 ADD SWAP1 PUSH1 0x20 ADD DUP1 DUP4 GT PUSH2 0x1ED3 JUMPI DUP3 SWAP1 SUB PUSH1 0x1F AND DUP3 ADD SWAP2 JUMPDEST POP POP POP POP POP SWAP1 POP JUMPDEST SWAP3 SWAP2 POP POP JUMP JUMPDEST PUSH0 PUSH1 0x40 MLOAD PUSH32 0x1901000000000000000000000000000000000000000000000000000000000000 DUP2 MSTORE DUP4 PUSH1 0x2 DUP3 ADD MSTORE DUP3 PUSH1 0x22 DUP3 ADD MSTORE PUSH1 0x42 DUP2 KECCAK256 SWAP2 POP POP SWAP3 SWAP2 POP POP JUMP JUMPDEST PUSH0 DUP1 PUSH0 PUSH32 0x7FFFFFFFFFFFFFFFFFFFFFFFFFFFFFFF5D576E7357A4501DDFE92F46681B20A0 DUP5 PUSH0 SHR GT ISZERO PUSH2 0x1F7A JUMPI PUSH0 PUSH1 0x3 DUP6 SWAP3 POP SWAP3 POP SWAP3 POP PUSH2 0x201B JUMP JUMPDEST PUSH0 PUSH1 0x1 DUP9 DUP9 DUP9 DUP9 PUSH1 0x40 MLOAD PUSH0 DUP2 MSTORE PUSH1 0x20 ADD PUSH1 0x40 MSTORE PUSH1 0x40 MLOAD PUSH2 0x1F9D SWAP5 SWAP4 SWAP3 SWAP2 SWAP1 PUSH2 0x319F JUMP JUMPDEST PUSH1 0x20 PUSH1 0x40 MLOAD PUSH1 0x20 DUP2 SUB SWAP1 DUP1 DUP5 SUB SWAP1 DUP6 GAS STATICCALL ISZERO DUP1 ISZERO PUSH2 0x1FBD JUMPI RETURNDATASIZE PUSH0 DUP1 RETURNDATACOPY RETURNDATASIZE PUSH0 REVERT JUMPDEST POP POP POP PUSH1 0x20 PUSH1 0x40 MLOAD SUB MLOAD SWAP1 POP PUSH0 PUSH20 0xFFFFFFFFFFFFFFFFFFFFFFFFFFFFFFFFFFFFFFFF AND DUP2 PUSH20 0xFFFFFFFFFFFFFFFFFFFFFFFFFFFFFFFFFFFFFFFF AND SUB PUSH2 0x200E JUMPI PUSH0 PUSH1 0x1 PUSH0 DUP1 SHL SWAP4 POP SWAP4 POP SWAP4 POP POP PUSH2 0x201B JUMP JUMPDEST DUP1 PUSH0 DUP1 PUSH0 SHL SWAP4 POP SWAP4 POP SWAP4 POP POP JUMPDEST SWAP5 POP SWAP5 POP SWAP5 SWAP2 POP POP JUMP JUMPDEST PUSH0 PUSH1 0x3 DUP2 GT ISZERO PUSH2 0x2038 JUMPI PUSH2 0x2037 PUSH2 0x31E2 JUMP JUMPDEST JUMPDEST DUP3 PUSH1 0x3 DUP2 GT ISZERO PUSH2 0x204B JUMPI PUSH2 0x204A PUSH2 0x31E2 JUMP JUMPDEST JUMPDEST SUB ISZERO PUSH2 0x2183 JUMPI PUSH1 0x1 PUSH1 0x3 DUP2 GT ISZERO PUSH2 0x2065 JUMPI PUSH2 0x2064 PUSH2 0x31E2 JUMP JUMPDEST JUMPDEST DUP3 PUSH1 0x3 DUP2 GT ISZERO PUSH2 0x2078 JUMPI PUSH2 0x2077 PUSH2 0x31E2 JUMP JUMPDEST JUMPDEST SUB PUSH2 0x20AF JUMPI PUSH1 0x40 MLOAD PUSH32 0xF645EEDF00000000000000000000000000000000000000000000000000000000 DUP2 MSTORE PUSH1 0x4 ADD PUSH1 0x40 MLOAD DUP1 SWAP2 SUB SWAP1 REVERT JUMPDEST PUSH1 0x2 PUSH1 0x3 DUP2 GT ISZERO PUSH2 0x20C3 JUMPI PUSH2 0x20C2 PUSH2 0x31E2 JUMP JUMPDEST JUMPDEST DUP3 PUSH1 0x3 DUP2 GT ISZERO PUSH2 0x20D6 JUMPI PUSH2 0x20D5 PUSH2 0x31E2 JUMP JUMPDEST JUMPDEST SUB PUSH2 0x211A JUMPI DUP1 PUSH0 SHR PUSH1 0x40 MLOAD PUSH32 0xFCE698F700000000000000000000000000000000000000000000000000000000 DUP2 MSTORE PUSH1 0x4 ADD PUSH2 0x2111 SWAP2 SWAP1 PUSH2 0x225F JUMP JUMPDEST PUSH1 0x40 MLOAD DUP1 SWAP2 SUB SWAP1 REVERT JUMPDEST PUSH1 0x3 DUP1 DUP2 GT ISZERO PUSH2 0x212D JUMPI PUSH2 0x212C PUSH2 0x31E2 JUMP JUMPDEST JUMPDEST DUP3 PUSH1 0x3 DUP2 GT ISZERO PUSH2 0x2140 JUMPI PUSH2 0x213F PUSH2 0x31E2 JUMP JUMPDEST JUMPDEST SUB PUSH2 0x2182 JUMPI DUP1 PUSH1 0x40 MLOAD PUSH32 0xD78BCE0C00000000000000000000000000000000000000000000000000000000 DUP2 MSTORE PUSH1 0x4 ADD PUSH2 0x2179 SWAP2 SWAP1 PUSH2 0x246B JUMP JUMPDEST PUSH1 0x40 MLOAD DUP1 SWAP2 SUB SWAP1 REVERT JUMPDEST JUMPDEST POP POP JUMP JUMPDEST PUSH1 0x60 PUSH0 PUSH2 0x2193 DUP4 PUSH2 0x21F9 JUMP JUMPDEST SWAP1 POP PUSH0 PUSH1 0x20 PUSH8 0xFFFFFFFFFFFFFFFF DUP2 GT ISZERO PUSH2 0x21B1 JUMPI PUSH2 0x21B0 PUSH2 0x278C JUMP JUMPDEST JUMPDEST PUSH1 0x40 MLOAD SWAP1 DUP1 DUP3 MSTORE DUP1 PUSH1 0x1F ADD PUSH1 0x1F NOT AND PUSH1 0x20 ADD DUP3 ADD PUSH1 0x40 MSTORE DUP1 ISZERO PUSH2 0x21E3 JUMPI DUP2 PUSH1 0x20 ADD PUSH1 0x1 DUP3 MUL DUP1 CALLDATASIZE DUP4 CALLDATACOPY DUP1 DUP3 ADD SWAP2 POP POP SWAP1 POP JUMPDEST POP SWAP1 POP DUP2 DUP2 MSTORE DUP4 PUSH1 0x20 DUP3 ADD MSTORE DUP1 SWAP3 POP POP POP SWAP2 SWAP1 POP JUMP JUMPDEST PUSH0 DUP1 PUSH1 0xFF DUP4 PUSH0 SHR AND SWAP1 POP PUSH1 0x1F DUP2 GT ISZERO PUSH2 0x223E JUMPI PUSH1 0x40 MLOAD PUSH32 0xB3512B0C00000000000000000000000000000000000000000000000000000000 DUP2 MSTORE PUSH1 0x4 ADD PUSH1 0x40 MLOAD DUP1 SWAP2 SUB SWAP1 REVERT JUMPDEST DUP1 SWAP2 POP POP SWAP2 SWAP1 POP JUMP JUMPDEST PUSH0 DUP2 SWAP1 POP SWAP2 SWAP1 POP JUMP JUMPDEST PUSH2 0x2259 DUP2 PUSH2 0x2247 JUMP JUMPDEST DUP3 MSTORE POP POP JUMP JUMPDEST PUSH0 PUSH1 0x20 DUP3 ADD SWAP1 POP PUSH2 0x2272 PUSH0 DUP4 ADD DUP5 PUSH2 0x2250 JUMP JUMPDEST SWAP3 SWAP2 POP POP JUMP JUMPDEST PUSH0 DUP2 MLOAD SWAP1 POP SWAP2 SWAP1 POP JUMP JUMPDEST PUSH0 DUP3 DUP3 MSTORE PUSH1 0x20 DUP3 ADD SWAP1 POP SWAP3 SWAP2 POP POP JUMP JUMPDEST PUSH0 JUMPDEST DUP4 DUP2 LT ISZERO PUSH2 0x22AF JUMPI DUP1 DUP3 ADD MLOAD DUP2 DUP5 ADD MSTORE PUSH1 0x20 DUP2 ADD SWAP1 POP PUSH2 0x2294 JUMP JUMPDEST PUSH0 DUP5 DUP5 ADD MSTORE POP POP POP POP JUMP JUMPDEST PUSH0 PUSH1 0x1F NOT PUSH1 0x1F DUP4 ADD AND SWAP1 POP SWAP2 SWAP1 POP JUMP JUMPDEST PUSH0 PUSH2 0x22D4 DUP3 PUSH2 0x2278 JUMP JUMPDEST PUSH2 0x22DE DUP2 DUP6 PUSH2 0x2282 JUMP JUMPDEST SWAP4 POP PUSH2 0x22EE DUP2 DUP6 PUSH1 0x20 DUP7 ADD PUSH2 0x2292 JUMP JUMPDEST PUSH2 0x22F7 DUP2 PUSH2 0x22BA JUMP JUMPDEST DUP5 ADD SWAP2 POP POP SWAP3 SWAP2 POP POP JUMP JUMPDEST PUSH0 PUSH1 0x20 DUP3 ADD SWAP1 POP DUP2 DUP2 SUB PUSH0 DUP4 ADD MSTORE PUSH2 0x231A DUP2 DUP5 PUSH2 0x22CA JUMP JUMPDEST SWAP1 POP SWAP3 SWAP2 POP POP JUMP JUMPDEST PUSH0 PUSH1 0x40 MLOAD SWAP1 POP SWAP1 JUMP JUMPDEST PUSH0 DUP1 REVERT JUMPDEST PUSH0 DUP1 REVERT JUMPDEST PUSH2 0x233C DUP2 PUSH2 0x2247 JUMP JUMPDEST DUP2 EQ PUSH2 0x2346 JUMPI PUSH0 DUP1 REVERT JUMPDEST POP JUMP JUMPDEST PUSH0 DUP2 CALLDATALOAD SWAP1 POP PUSH2 0x2357 DUP2 PUSH2 0x2333 JUMP JUMPDEST SWAP3 SWAP2 POP POP JUMP JUMPDEST PUSH0 PUSH1 0x20 DUP3 DUP5 SUB SLT ISZERO PUSH2 0x2372 JUMPI PUSH2 0x2371 PUSH2 0x232B JUMP JUMPDEST JUMPDEST PUSH0 PUSH2 0x237F DUP5 DUP3 DUP6 ADD PUSH2 0x2349 JUMP JUMPDEST SWAP2 POP POP SWAP3 SWAP2 POP POP JUMP JUMPDEST PUSH0 DUP2 ISZERO ISZERO SWAP1 POP SWAP2 SWAP1 POP JUMP JUMPDEST PUSH2 0x239C DUP2 PUSH2 0x2388 JUMP JUMPDEST DUP3 MSTORE POP POP JUMP JUMPDEST PUSH0 PUSH1 0x20 DUP3 ADD SWAP1 POP PUSH2 0x23B5 PUSH0 DUP4 ADD DUP5 PUSH2 0x2393 JUMP JUMPDEST SWAP3 SWAP2 POP POP JUMP JUMPDEST PUSH0 PUSH20 0xFFFFFFFFFFFFFFFFFFFFFFFFFFFFFFFFFFFFFFFF DUP3 AND SWAP1 POP SWAP2 SWAP1 POP JUMP JUMPDEST PUSH0 PUSH2 0x23E4 DUP3 PUSH2 0x23BB JUMP JUMPDEST SWAP1 POP SWAP2 SWAP1 POP JUMP JUMPDEST PUSH2 0x23F4 DUP2 PUSH2 0x23DA JUMP JUMPDEST DUP2 EQ PUSH2 0x23FE JUMPI PUSH0 DUP1 REVERT JUMPDEST POP JUMP JUMPDEST PUSH0 DUP2 CALLDATALOAD SWAP1 POP PUSH2 0x240F DUP2 PUSH2 0x23EB JUMP JUMPDEST SWAP3 SWAP2 POP POP JUMP JUMPDEST PUSH0 DUP1 PUSH1 0x40 DUP4 DUP6 SUB SLT ISZERO PUSH2 0x242B JUMPI PUSH2 0x242A PUSH2 0x232B JUMP JUMPDEST JUMPDEST PUSH0 PUSH2 0x2438 DUP6 DUP3 DUP7 ADD PUSH2 0x2401 JUMP JUMPDEST SWAP3 POP POP PUSH1 0x20 PUSH2 0x2449 DUP6 DUP3 DUP7 ADD PUSH2 0x2401 JUMP JUMPDEST SWAP2 POP POP SWAP3 POP SWAP3 SWAP1 POP JUMP JUMPDEST PUSH0 DUP2 SWAP1 POP SWAP2 SWAP1 POP JUMP JUMPDEST PUSH2 0x2465 DUP2 PUSH2 0x2453 JUMP JUMPDEST DUP3 MSTORE POP POP JUMP JUMPDEST PUSH0 PUSH1 0x20 DUP3 ADD SWAP1 POP PUSH2 0x247E PUSH0 DUP4 ADD DUP5 PUSH2 0x245C JUMP JUMPDEST SWAP3 SWAP2 POP POP JUMP JUMPDEST PUSH0 PUSH1 0xFF DUP3 AND SWAP1 POP SWAP2 SWAP1 POP JUMP JUMPDEST PUSH2 0x2499 DUP2 PUSH2 0x2484 JUMP JUMPDEST DUP2 EQ PUSH2 0x24A3 JUMPI PUSH0 DUP1 REVERT JUMPDEST POP JUMP JUMPDEST PUSH0 DUP2 CALLDATALOAD SWAP1 POP PUSH2 0x24B4 DUP2 PUSH2 0x2490 JUMP JUMPDEST SWAP3 SWAP2 POP POP JUMP JUMPDEST PUSH2 0x24C3 DUP2 PUSH2 0x2453 JUMP JUMPDEST DUP2 EQ PUSH2 0x24CD JUMPI PUSH0 DUP1 REVERT JUMPDEST POP JUMP JUMPDEST PUSH0 DUP2 CALLDATALOAD SWAP1 POP PUSH2 0x24DE DUP2 PUSH2 0x24BA JUMP JUMPDEST SWAP3 SWAP2 POP POP JUMP JUMPDEST PUSH0 DUP1 PUSH0 DUP1 PUSH0 DUP1 PUSH1 0xC0 DUP8 DUP10 SUB SLT ISZERO PUSH2 0x24FE JUMPI PUSH2 0x24FD PUSH2 0x232B JUMP JUMPDEST JUMPDEST PUSH0 PUSH2 0x250B DUP10 DUP3 DUP11 ADD PUSH2 0x2401 JUMP JUMPDEST SWAP7 POP POP PUSH1 0x20 PUSH2 0x251C DUP10 DUP3 DUP11 ADD PUSH2 0x2349 JUMP JUMPDEST SWAP6 POP POP PUSH1 0x40 PUSH2 0x252D DUP10 DUP3 DUP11 ADD PUSH2 0x2349 JUMP JUMPDEST SWAP5 POP POP PUSH1 0x60 PUSH2 0x253E DUP10 DUP3 DUP11 ADD PUSH2 0x24A6 JUMP JUMPDEST SWAP4 POP POP PUSH1 0x80 PUSH2 0x254F DUP10 DUP3 DUP11 ADD PUSH2 0x24D0 JUMP JUMPDEST SWAP3 POP POP PUSH1 0xA0 PUSH2 0x2560 DUP10 DUP3 DUP11 ADD PUSH2 0x24D0 JUMP JUMPDEST SWAP2 POP POP SWAP3 SWAP6 POP SWAP3 SWAP6 POP SWAP3 SWAP6 JUMP JUMPDEST PUSH2 0x2576 DUP2 PUSH2 0x2388 JUMP JUMPDEST DUP2 EQ PUSH2 0x2580 JUMPI PUSH0 DUP1 REVERT JUMPDEST POP JUMP JUMPDEST PUSH0 DUP2 CALLDATALOAD SWAP1 POP PUSH2 0x2591 DUP2 PUSH2 0x256D JUMP JUMPDEST SWAP3 SWAP2 POP POP JUMP JUMPDEST PUSH0 PUSH1 0x20 DUP3 DUP5 SUB SLT ISZERO PUSH2 0x25AC JUMPI PUSH2 0x25AB PUSH2 0x232B JUMP JUMPDEST JUMPDEST PUSH0 PUSH2 0x25B9 DUP5 DUP3 DUP6 ADD PUSH2 0x2583 JUMP JUMPDEST SWAP2 POP POP SWAP3 SWAP2 POP POP JUMP JUMPDEST PUSH0 PUSH1 0x20 DUP3 DUP5 SUB SLT ISZERO PUSH2 0x25D7 JUMPI PUSH2 0x25D6 PUSH2 0x232B JUMP JUMPDEST JUMPDEST PUSH0 PUSH2 0x25E4 DUP5 DUP3 DUP6 ADD PUSH2 0x2401 JUMP JUMPDEST SWAP2 POP POP SWAP3 SWAP2 POP POP JUMP JUMPDEST PUSH0 PUSH32 0xFF00000000000000000000000000000000000000000000000000000000000000 DUP3 AND SWAP1 POP SWAP2 SWAP1 POP JUMP JUMPDEST PUSH2 0x2621 DUP2 PUSH2 0x25ED JUMP JUMPDEST DUP3 MSTORE POP POP JUMP JUMPDEST PUSH2 0x2630 DUP2 PUSH2 0x23DA JUMP JUMPDEST DUP3 MSTORE POP POP JUMP JUMPDEST PUSH0 DUP2 MLOAD SWAP1 POP SWAP2 SWAP1 POP JUMP JUMPDEST PUSH0 DUP3 DUP3 MSTORE PUSH1 0x20 DUP3 ADD SWAP1 POP SWAP3 SWAP2 POP POP JUMP JUMPDEST PUSH0 DUP2 SWAP1 POP PUSH1 0x20 DUP3 ADD SWAP1 POP SWAP2 SWAP1 POP JUMP JUMPDEST PUSH2 0x2668 DUP2 PUSH2 0x2247 JUMP JUMPDEST DUP3 MSTORE POP POP JUMP JUMPDEST PUSH0 PUSH2 0x2679 DUP4 DUP4 PUSH2 0x265F JUMP JUMPDEST PUSH1 0x20 DUP4 ADD SWAP1 POP SWAP3 SWAP2 POP POP JUMP JUMPDEST PUSH0 PUSH1 0x20 DUP3 ADD SWAP1 POP SWAP2 SWAP1 POP JUMP JUMPDEST PUSH0 PUSH2 0x269B DUP3 PUSH2 0x2636 JUMP JUMPDEST PUSH2 0x26A5 DUP2 DUP6 PUSH2 0x2640 JUMP JUMPDEST SWAP4 POP PUSH2 0x26B0 DUP4 PUSH2 0x2650 JUMP JUMPDEST DUP1 PUSH0 JUMPDEST DUP4 DUP2 LT ISZERO PUSH2 0x26E0 JUMPI DUP2 MLOAD PUSH2 0x26C7 DUP9 DUP3 PUSH2 0x266E JUMP JUMPDEST SWAP8 POP PUSH2 0x26D2 DUP4 PUSH2 0x2685 JUMP JUMPDEST SWAP3 POP POP PUSH1 0x1 DUP2 ADD SWAP1 POP PUSH2 0x26B3 JUMP JUMPDEST POP DUP6 SWAP4 POP POP POP POP SWAP3 SWAP2 POP POP JUMP JUMPDEST PUSH0 PUSH1 0xE0 DUP3 ADD SWAP1 POP PUSH2 0x2700 PUSH0 DUP4 ADD DUP11 PUSH2 0x2618 JUMP JUMPDEST DUP2 DUP2 SUB PUSH1 0x20 DUP4 ADD MSTORE PUSH2 0x2712 DUP2 DUP10 PUSH2 0x22CA JUMP JUMPDEST SWAP1 POP DUP2 DUP2 SUB PUSH1 0x40 DUP4 ADD MSTORE PUSH2 0x2726 DUP2 DUP9 PUSH2 0x22CA JUMP JUMPDEST SWAP1 POP PUSH2 0x2735 PUSH1 0x60 DUP4 ADD DUP8 PUSH2 0x2250 JUMP JUMPDEST PUSH2 0x2742 PUSH1 0x80 DUP4 ADD DUP7 PUSH2 0x2627 JUMP JUMPDEST PUSH2 0x274F PUSH1 0xA0 DUP4 ADD DUP6 PUSH2 0x245C JUMP JUMPDEST DUP2 DUP2 SUB PUSH1 0xC0 DUP4 ADD MSTORE PUSH2 0x2761 DUP2 DUP5 PUSH2 0x2691 JUMP JUMPDEST SWAP1 POP SWAP9 SWAP8 POP POP POP POP POP POP POP POP JUMP JUMPDEST PUSH0 PUSH1 0x20 DUP3 ADD SWAP1 POP PUSH2 0x2782 PUSH0 DUP4 ADD DUP5 PUSH2 0x2627 JUMP JUMPDEST SWAP3 SWAP2 POP POP JUMP JUMPDEST PUSH0 DUP1 REVERT JUMPDEST PUSH32 0x4E487B7100000000000000000000000000000000000000000000000000000000 PUSH0 MSTORE PUSH1 0x41 PUSH1 0x4 MSTORE PUSH1 0x24 PUSH0 REVERT JUMPDEST PUSH2 0x27C2 DUP3 PUSH2 0x22BA JUMP JUMPDEST DUP2 ADD DUP2 DUP2 LT PUSH8 0xFFFFFFFFFFFFFFFF DUP3 GT OR ISZERO PUSH2 0x27E1 JUMPI PUSH2 0x27E0 PUSH2 0x278C JUMP JUMPDEST JUMPDEST DUP1 PUSH1 0x40 MSTORE POP POP POP JUMP JUMPDEST PUSH0 PUSH2 0x27F3 PUSH2 0x2322 JUMP JUMPDEST SWAP1 POP PUSH2 0x27FF DUP3 DUP3 PUSH2 0x27B9 JUMP JUMPDEST SWAP2 SWAP1 POP JUMP JUMPDEST PUSH0 PUSH8 0xFFFFFFFFFFFFFFFF DUP3 GT ISZERO PUSH2 0x281E JUMPI PUSH2 0x281D PUSH2 0x278C JUMP JUMPDEST JUMPDEST PUSH1 0x20 DUP3 MUL SWAP1 POP PUSH1 0x20 DUP2 ADD SWAP1 POP SWAP2 SWAP1 POP JUMP JUMPDEST PUSH0 DUP1 REVERT JUMPDEST PUSH0 PUSH2 0x2845 PUSH2 0x2840 DUP5 PUSH2 0x2804 JUMP JUMPDEST PUSH2 0x27EA JUMP JUMPDEST SWAP1 POP DUP1 DUP4 DUP3 MSTORE PUSH1 0x20 DUP3 ADD SWAP1 POP PUSH1 0x20 DUP5 MUL DUP4 ADD DUP6 DUP2 GT ISZERO PUSH2 0x2868 JUMPI PUSH2 0x2867 PUSH2 0x282F JUMP JUMPDEST JUMPDEST DUP4 JUMPDEST DUP2 DUP2 LT ISZERO PUSH2 0x2891 JUMPI DUP1 PUSH2 0x287D DUP9 DUP3 PUSH2 0x2401 JUMP JUMPDEST DUP5 MSTORE PUSH1 0x20 DUP5 ADD SWAP4 POP POP PUSH1 0x20 DUP2 ADD SWAP1 POP PUSH2 0x286A JUMP JUMPDEST POP POP POP SWAP4 SWAP3 POP POP POP JUMP JUMPDEST PUSH0 DUP3 PUSH1 0x1F DUP4 ADD SLT PUSH2 0x28AF JUMPI PUSH2 0x28AE PUSH2 0x2788 JUMP JUMPDEST JUMPDEST DUP2 CALLDATALOAD PUSH2 0x28BF DUP5 DUP3 PUSH1 0x20 DUP7 ADD PUSH2 0x2833 JUMP JUMPDEST SWAP2 POP POP SWAP3 SWAP2 POP POP JUMP JUMPDEST PUSH0 DUP1 PUSH1 0x40 DUP4 DUP6 SUB SLT ISZERO PUSH2 0x28DE JUMPI PUSH2 0x28DD PUSH2 0x232B JUMP JUMPDEST JUMPDEST PUSH0 DUP4 ADD CALLDATALOAD PUSH8 0xFFFFFFFFFFFFFFFF DUP2 GT ISZERO PUSH2 0x28FB JUMPI PUSH2 0x28FA PUSH2 0x232F JUMP JUMPDEST JUMPDEST PUSH2 0x2907 DUP6 DUP3 DUP7 ADD PUSH2 0x289B JUMP JUMPDEST SWAP3 POP POP PUSH1 0x20 PUSH2 0x2918 DUP6 DUP3 DUP7 ADD PUSH2 0x2583 JUMP JUMPDEST SWAP2 POP POP SWAP3 POP SWAP3 SWAP1 POP JUMP JUMPDEST PUSH0 DUP1 PUSH1 0x40 DUP4 DUP6 SUB SLT ISZERO PUSH2 0x2938 JUMPI PUSH2 0x2937 PUSH2 0x232B JUMP JUMPDEST JUMPDEST PUSH0 PUSH2 0x2945 DUP6 DUP3 DUP7 ADD PUSH2 0x2401 JUMP JUMPDEST SWAP3 POP POP PUSH1 0x20 PUSH2 0x2956 DUP6 DUP3 DUP7 ADD PUSH2 0x2349 JUMP JUMPDEST SWAP2 POP POP SWAP3 POP SWAP3 SWAP1 POP JUMP JUMPDEST PUSH0 DUP1 PUSH0 PUSH1 0x60 DUP5 DUP7 SUB SLT ISZERO PUSH2 0x2977 JUMPI PUSH2 0x2976 PUSH2 0x232B JUMP JUMPDEST JUMPDEST PUSH0 PUSH2 0x2984 DUP7 DUP3 DUP8 ADD PUSH2 0x2401 JUMP JUMPDEST SWAP4 POP POP PUSH1 0x20 PUSH2 0x2995 DUP7 DUP3 DUP8 ADD PUSH2 0x2401 JUMP JUMPDEST SWAP3 POP POP PUSH1 0x40 PUSH2 0x29A6 DUP7 DUP3 DUP8 ADD PUSH2 0x2349 JUMP JUMPDEST SWAP2 POP POP SWAP3 POP SWAP3 POP SWAP3 JUMP JUMPDEST PUSH32 0x4E487B7100000000000000000000000000000000000000000000000000000000 PUSH0 MSTORE PUSH1 0x22 PUSH1 0x4 MSTORE PUSH1 0x24 PUSH0 REVERT JUMPDEST PUSH0 PUSH1 0x2 DUP3 DIV SWAP1 POP PUSH1 0x1 DUP3 AND DUP1 PUSH2 0x29F4 JUMPI PUSH1 0x7F DUP3 AND SWAP2 POP JUMPDEST PUSH1 0x20 DUP3 LT DUP2 SUB PUSH2 0x2A07 JUMPI PUSH2 0x2A06 PUSH2 0x29B0 JUMP JUMPDEST JUMPDEST POP SWAP2 SWAP1 POP JUMP JUMPDEST PUSH32 0x4E487B7100000000000000000000000000000000000000000000000000000000 PUSH0 MSTORE PUSH1 0x11 PUSH1 0x4 MSTORE PUSH1 0x24 PUSH0 REVERT JUMPDEST PUSH0 PUSH2 0x2A44 DUP3 PUSH2 0x2247 JUMP JUMPDEST SWAP2 POP PUSH2 0x2A4F DUP4 PUSH2 0x2247 JUMP JUMPDEST SWAP3 POP DUP3 DUP3 MUL PUSH2 0x2A5D DUP2 PUSH2 0x2247 JUMP JUMPDEST SWAP2 POP DUP3 DUP3 DIV DUP5 EQ DUP4 ISZERO OR PUSH2 0x2A74 JUMPI PUSH2 0x2A73 PUSH2 0x2A0D JUMP JUMPDEST JUMPDEST POP SWAP3 SWAP2 POP POP JUMP JUMPDEST PUSH0 DUP2 MLOAD SWAP1 POP PUSH2 0x2A89 DUP2 PUSH2 0x2490 JUMP JUMPDEST SWAP3 SWAP2 POP POP JUMP JUMPDEST PUSH0 PUSH1 0x20 DUP3 DUP5 SUB SLT ISZERO PUSH2 0x2AA4 JUMPI PUSH2 0x2AA3 PUSH2 0x232B JUMP JUMPDEST JUMPDEST PUSH0 PUSH2 0x2AB1 DUP5 DUP3 DUP6 ADD PUSH2 0x2A7B JUMP JUMPDEST SWAP2 POP POP SWAP3 SWAP2 POP POP JUMP JUMPDEST PUSH0 DUP2 PUSH1 0x1 SHR SWAP1 POP SWAP2 SWAP1 POP JUMP JUMPDEST PUSH0 DUP1 DUP3 SWAP2 POP DUP4 SWAP1 POP JUMPDEST PUSH1 0x1 DUP6 GT ISZERO PUSH2 0x2B0F JUMPI DUP1 DUP7 DIV DUP2 GT ISZERO PUSH2 0x2AEB JUMPI PUSH2 0x2AEA PUSH2 0x2A0D JUMP JUMPDEST JUMPDEST PUSH1 0x1 DUP6 AND ISZERO PUSH2 0x2AFA JUMPI DUP1 DUP3 MUL SWAP2 POP JUMPDEST DUP1 DUP2 MUL SWAP1 POP PUSH2 0x2B08 DUP6 PUSH2 0x2ABA JUMP JUMPDEST SWAP5 POP PUSH2 0x2ACF JUMP JUMPDEST SWAP5 POP SWAP5 SWAP3 POP POP POP JUMP JUMPDEST PUSH0 DUP3 PUSH2 0x2B27 JUMPI PUSH1 0x1 SWAP1 POP PUSH2 0x2BE2 JUMP JUMPDEST DUP2 PUSH2 0x2B34 JUMPI PUSH0 SWAP1 POP PUSH2 0x2BE2 JUMP JUMPDEST DUP2 PUSH1 0x1 DUP2 EQ PUSH2 0x2B4A JUMPI PUSH1 0x2 DUP2 EQ PUSH2 0x2B54 JUMPI PUSH2 0x2B83 JUMP JUMPDEST PUSH1 0x1 SWAP2 POP POP PUSH2 0x2BE2 JUMP JUMPDEST PUSH1 0xFF DUP5 GT ISZERO PUSH2 0x2B66 JUMPI PUSH2 0x2B65 PUSH2 0x2A0D JUMP JUMPDEST JUMPDEST DUP4 PUSH1 0x2 EXP SWAP2 POP DUP5 DUP3 GT ISZERO PUSH2 0x2B7D JUMPI PUSH2 0x2B7C PUSH2 0x2A0D JUMP JUMPDEST JUMPDEST POP PUSH2 0x2BE2 JUMP JUMPDEST POP PUSH1 0x20 DUP4 LT PUSH2 0x133 DUP4 LT AND PUSH1 0x4E DUP5 LT PUSH1 0xB DUP5 LT AND OR ISZERO PUSH2 0x2BB8 JUMPI DUP3 DUP3 EXP SWAP1 POP DUP4 DUP2 GT ISZERO PUSH2 0x2BB3 JUMPI PUSH2 0x2BB2 PUSH2 0x2A0D JUMP JUMPDEST JUMPDEST PUSH2 0x2BE2 JUMP JUMPDEST PUSH2 0x2BC5 DUP5 DUP5 DUP5 PUSH1 0x1 PUSH2 0x2AC6 JUMP JUMPDEST SWAP3 POP SWAP1 POP DUP2 DUP5 DIV DUP2 GT ISZERO PUSH2 0x2BDC JUMPI PUSH2 0x2BDB PUSH2 0x2A0D JUMP JUMPDEST JUMPDEST DUP2 DUP2 MUL SWAP1 POP JUMPDEST SWAP4 SWAP3 POP POP POP JUMP JUMPDEST PUSH0 PUSH2 0x2BF3 DUP3 PUSH2 0x2247 JUMP JUMPDEST SWAP2 POP PUSH2 0x2BFE DUP4 PUSH2 0x2484 JUMP JUMPDEST SWAP3 POP PUSH2 0x2C2B PUSH32 0xFFFFFFFFFFFFFFFFFFFFFFFFFFFFFFFFFFFFFFFFFFFFFFFFFFFFFFFFFFFFFFFF DUP5 DUP5 PUSH2 0x2B18 JUMP JUMPDEST SWAP1 POP SWAP3 SWAP2 POP POP JUMP JUMPDEST PUSH32 0x4E487B7100000000000000000000000000000000000000000000000000000000 PUSH0 MSTORE PUSH1 0x12 PUSH1 0x4 MSTORE PUSH1 0x24 PUSH0 REVERT JUMPDEST PUSH0 PUSH2 0x2C6A DUP3 PUSH2 0x2247 JUMP JUMPDEST SWAP2 POP PUSH2 0x2C75 DUP4 PUSH2 0x2247 JUMP JUMPDEST SWAP3 POP DUP3 PUSH2 0x2C85 JUMPI PUSH2 0x2C84 PUSH2 0x2C33 JUMP JUMPDEST JUMPDEST DUP3 DUP3 DIV SWAP1 POP SWAP3 SWAP2 POP POP JUMP JUMPDEST PUSH32 0x636F6E747261637420667265657A656400000000000000000000000000000000 PUSH0 DUP3 ADD MSTORE POP JUMP JUMPDEST PUSH0 PUSH2 0x2CC4 PUSH1 0x10 DUP4 PUSH2 0x2282 JUMP JUMPDEST SWAP2 POP PUSH2 0x2CCF DUP3 PUSH2 0x2C90 JUMP JUMPDEST PUSH1 0x20 DUP3 ADD SWAP1 POP SWAP2 SWAP1 POP JUMP JUMPDEST PUSH0 PUSH1 0x20 DUP3 ADD SWAP1 POP DUP2 DUP2 SUB PUSH0 DUP4 ADD MSTORE PUSH2 0x2CF1 DUP2 PUSH2 0x2CB8 JUMP JUMPDEST SWAP1 POP SWAP2 SWAP1 POP JUMP JUMPDEST PUSH32 0x706F696E747320746F20636C61696D206C657373207468616E206D696E706F69 PUSH0 DUP3 ADD MSTORE PUSH32 0x6E74730000000000000000000000000000000000000000000000000000000000 PUSH1 0x20 DUP3 ADD MSTORE POP JUMP JUMPDEST PUSH0 PUSH2 0x2D52 PUSH1 0x23 DUP4 PUSH2 0x2282 JUMP JUMPDEST SWAP2 POP PUSH2 0x2D5D DUP3 PUSH2 0x2CF8 JUMP JUMPDEST PUSH1 0x40 DUP3 ADD SWAP1 POP SWAP2 SWAP1 POP JUMP JUMPDEST PUSH0 PUSH1 0x20 DUP3 ADD SWAP1 POP DUP2 DUP2 SUB PUSH0 DUP4 ADD MSTORE PUSH2 0x2D7F DUP2 PUSH2 0x2D46 JUMP JUMPDEST SWAP1 POP SWAP2 SWAP1 POP JUMP JUMPDEST PUSH0 PUSH1 0x40 DUP3 ADD SWAP1 POP PUSH2 0x2D99 PUSH0 DUP4 ADD DUP6 PUSH2 0x2627 JUMP JUMPDEST PUSH2 0x2DA6 PUSH1 0x20 DUP4 ADD DUP5 PUSH2 0x2250 JUMP JUMPDEST SWAP4 SWAP3 POP POP POP JUMP JUMPDEST PUSH0 DUP2 MLOAD SWAP1 POP PUSH2 0x2DBB DUP2 PUSH2 0x256D JUMP JUMPDEST SWAP3 SWAP2 POP POP JUMP JUMPDEST PUSH0 PUSH1 0x20 DUP3 DUP5 SUB SLT ISZERO PUSH2 0x2DD6 JUMPI PUSH2 0x2DD5 PUSH2 0x232B JUMP JUMPDEST JUMPDEST PUSH0 PUSH2 0x2DE3 DUP5 DUP3 DUP6 ADD PUSH2 0x2DAD JUMP JUMPDEST SWAP2 POP POP SWAP3 SWAP2 POP POP JUMP JUMPDEST PUSH32 0x4E487B7100000000000000000000000000000000000000000000000000000000 PUSH0 MSTORE PUSH1 0x32 PUSH1 0x4 MSTORE PUSH1 0x24 PUSH0 REVERT JUMPDEST PUSH0 DUP2 MLOAD SWAP1 POP PUSH2 0x2E27 DUP2 PUSH2 0x2333 JUMP JUMPDEST SWAP3 SWAP2 POP POP JUMP JUMPDEST PUSH0 PUSH1 0x20 DUP3 DUP5 SUB SLT ISZERO PUSH2 0x2E42 JUMPI PUSH2 0x2E41 PUSH2 0x232B JUMP JUMPDEST JUMPDEST PUSH0 PUSH2 0x2E4F DUP5 DUP3 DUP6 ADD PUSH2 0x2E19 JUMP JUMPDEST SWAP2 POP POP SWAP3 SWAP2 POP POP JUMP JUMPDEST PUSH0 PUSH2 0x2E62 DUP3 PUSH2 0x2247 JUMP JUMPDEST SWAP2 POP PUSH2 0x2E6D DUP4 PUSH2 0x2247 JUMP JUMPDEST SWAP3 POP DUP3 DUP3 ADD SWAP1 POP DUP1 DUP3 GT ISZERO PUSH2 0x2E85 JUMPI PUSH2 0x2E84 PUSH2 0x2A0D JUMP JUMPDEST JUMPDEST SWAP3 SWAP2 POP POP JUMP JUMPDEST PUSH0 PUSH2 0x2E95 DUP3 PUSH2 0x2247 JUMP JUMPDEST SWAP2 POP PUSH2 0x2EA0 DUP4 PUSH2 0x2247 JUMP JUMPDEST SWAP3 POP DUP3 DUP3 SUB SWAP1 POP DUP2 DUP2 GT ISZERO PUSH2 0x2EB8 JUMPI PUSH2 0x2EB7 PUSH2 0x2A0D JUMP JUMPDEST JUMPDEST SWAP3 SWAP2 POP POP JUMP JUMPDEST PUSH32 0x796F7520617265206E6F74207065726D69747465640000000000000000000000 PUSH0 DUP3 ADD MSTORE POP JUMP JUMPDEST PUSH0 PUSH2 0x2EF2 PUSH1 0x15 DUP4 PUSH2 0x2282 JUMP JUMPDEST SWAP2 POP PUSH2 0x2EFD DUP3 PUSH2 0x2EBE JUMP JUMPDEST PUSH1 0x20 DUP3 ADD SWAP1 POP SWAP2 SWAP1 POP JUMP JUMPDEST PUSH0 PUSH1 0x20 DUP3 ADD SWAP1 POP DUP2 DUP2 SUB PUSH0 DUP4 ADD MSTORE PUSH2 0x2F1F DUP2 PUSH2 0x2EE6 JUMP JUMPDEST SWAP1 POP SWAP2 SWAP1 POP JUMP JUMPDEST PUSH32 0x706F696E747320746F2073776170206C657373207468616E206D696E706F696E PUSH0 DUP3 ADD MSTORE PUSH32 0x7473000000000000000000000000000000000000000000000000000000000000 PUSH1 0x20 DUP3 ADD MSTORE POP JUMP JUMPDEST PUSH0 PUSH2 0x2F80 PUSH1 0x22 DUP4 PUSH2 0x2282 JUMP JUMPDEST SWAP2 POP PUSH2 0x2F8B DUP3 PUSH2 0x2F26 JUMP JUMPDEST PUSH1 0x40 DUP3 ADD SWAP1 POP SWAP2 SWAP1 POP JUMP JUMPDEST PUSH0 PUSH1 0x20 DUP3 ADD SWAP1 POP DUP2 DUP2 SUB PUSH0 DUP4 ADD MSTORE PUSH2 0x2FAD DUP2 PUSH2 0x2F74 JUMP JUMPDEST SWAP1 POP SWAP2 SWAP1 POP JUMP JUMPDEST PUSH32 0x6E6F7420656E6F75676820706F696E7473000000000000000000000000000000 PUSH0 DUP3 ADD MSTORE POP JUMP JUMPDEST PUSH0 PUSH2 0x2FE8 PUSH1 0x11 DUP4 PUSH2 0x2282 JUMP JUMPDEST SWAP2 POP PUSH2 0x2FF3 DUP3 PUSH2 0x2FB4 JUMP JUMPDEST PUSH1 0x20 DUP3 ADD SWAP1 POP SWAP2 SWAP1 POP JUMP JUMPDEST PUSH0 PUSH1 0x20 DUP3 ADD SWAP1 POP DUP2 DUP2 SUB PUSH0 DUP4 ADD MSTORE PUSH2 0x3015 DUP2 PUSH2 0x2FDC JUMP JUMPDEST SWAP1 POP SWAP2 SWAP1 POP JUMP JUMPDEST PUSH0 PUSH1 0x80 DUP3 ADD SWAP1 POP PUSH2 0x302F PUSH0 DUP4 ADD DUP8 PUSH2 0x2627 JUMP JUMPDEST PUSH2 0x303C PUSH1 0x20 DUP4 ADD DUP7 PUSH2 0x2250 JUMP JUMPDEST PUSH2 0x3049 PUSH1 0x40 DUP4 ADD DUP6 PUSH2 0x2250 JUMP JUMPDEST PUSH2 0x3056 PUSH1 0x60 DUP4 ADD DUP5 PUSH2 0x2250 JUMP JUMPDEST SWAP6 SWAP5 POP POP POP POP POP JUMP JUMPDEST PUSH32 0x7369672075736564000000000000000000000000000000000000000000000000 PUSH0 DUP3 ADD MSTORE POP JUMP JUMPDEST PUSH0 PUSH2 0x3093 PUSH1 0x8 DUP4 PUSH2 0x2282 JUMP JUMPDEST SWAP2 POP PUSH2 0x309E DUP3 PUSH2 0x305F JUMP JUMPDEST PUSH1 0x20 DUP3 ADD SWAP1 POP SWAP2 SWAP1 POP JUMP JUMPDEST PUSH0 PUSH1 0x20 DUP3 ADD SWAP1 POP DUP2 DUP2 SUB PUSH0 DUP4 ADD MSTORE PUSH2 0x30C0 DUP2 PUSH2 0x3087 JUMP JUMPDEST SWAP1 POP SWAP2 SWAP1 POP JUMP JUMPDEST PUSH0 PUSH1 0xA0 DUP3 ADD SWAP1 POP PUSH2 0x30DA PUSH0 DUP4 ADD DUP9 PUSH2 0x245C JUMP JUMPDEST PUSH2 0x30E7 PUSH1 0x20 DUP4 ADD DUP8 PUSH2 0x2627 JUMP JUMPDEST PUSH2 0x30F4 PUSH1 0x40 DUP4 ADD DUP7 PUSH2 0x2627 JUMP JUMPDEST PUSH2 0x3101 PUSH1 0x60 DUP4 ADD DUP6 PUSH2 0x2250 JUMP JUMPDEST PUSH2 0x310E PUSH1 0x80 DUP4 ADD DUP5 PUSH2 0x2250 JUMP JUMPDEST SWAP7 SWAP6 POP POP POP POP POP POP JUMP JUMPDEST PUSH0 PUSH1 0x40 DUP3 ADD SWAP1 POP PUSH2 0x312B PUSH0 DUP4 ADD DUP6 PUSH2 0x2627 JUMP JUMPDEST PUSH2 0x3138 PUSH1 0x20 DUP4 ADD DUP5 PUSH2 0x2627 JUMP JUMPDEST SWAP4 SWAP3 POP POP POP JUMP JUMPDEST PUSH0 PUSH1 0xA0 DUP3 ADD SWAP1 POP PUSH2 0x3152 PUSH0 DUP4 ADD DUP9 PUSH2 0x245C JUMP JUMPDEST PUSH2 0x315F PUSH1 0x20 DUP4 ADD DUP8 PUSH2 0x245C JUMP JUMPDEST PUSH2 0x316C PUSH1 0x40 DUP4 ADD DUP7 PUSH2 0x245C JUMP JUMPDEST PUSH2 0x3179 PUSH1 0x60 DUP4 ADD DUP6 PUSH2 0x2250 JUMP JUMPDEST PUSH2 0x3186 PUSH1 0x80 DUP4 ADD DUP5 PUSH2 0x2627 JUMP JUMPDEST SWAP7 SWAP6 POP POP POP POP POP POP JUMP JUMPDEST PUSH2 0x3199 DUP2 PUSH2 0x2484 JUMP JUMPDEST DUP3 MSTORE POP POP JUMP JUMPDEST PUSH0 PUSH1 0x80 DUP3 ADD SWAP1 POP PUSH2 0x31B2 PUSH0 DUP4 ADD DUP8 PUSH2 0x245C JUMP JUMPDEST PUSH2 0x31BF PUSH1 0x20 DUP4 ADD DUP7 PUSH2 0x3190 JUMP JUMPDEST PUSH2 0x31CC PUSH1 0x40 DUP4 ADD DUP6 PUSH2 0x245C JUMP JUMPDEST PUSH2 0x31D9 PUSH1 0x60 DUP4 ADD DUP5 PUSH2 0x245C JUMP JUMPDEST SWAP6 SWAP5 POP POP POP POP POP JUMP JUMPDEST PUSH32 0x4E487B7100000000000000000000000000000000000000000000000000000000 PUSH0 MSTORE PUSH1 0x21 PUSH1 0x4 MSTORE PUSH1 0x24 PUSH0 REVERT INVALID LOG2 PUSH5 0x6970667358 0x22 SLT KECCAK256 0xB7 SHR JUMPI SWAP16 0xC2 SELFBALANCE NOT 0x2F 0xC2 SWAP2 PUSH13 0x28AAD15F9ED3E838DF9AC5A561 0xFC GAS 0xB3 RETURN 0xA7 0x1F SLT MULMOD PUSH5 0x736F6C6343 STOP ADDMOD AND STOP CALLER "
		},
		"gasEstimates": {
			"creation": {
				"codeDepositCost": "2573800",
				"executionCost": "infinite",
				"totalCost": "infinite"
			},
			"external": {
				"DOMAIN_SEPARATOR()": "infinite",
				"TotalfeescollectedPaymentCoin()": "2536",
				"admin()": "2625",
				"checkAmountToRecive(uint256)": "infinite",
				"claimPointsAdmin(address,uint256)": "infinite",
				"claimedPaymentCoin()": "2535",
				"depositFee()": "2515",
				"eip712Domain()": "infinite",
				"emergencyWithdraw(address,address,uint256)": "infinite",
				"freezeContract(bool)": "infinite",
				"freezePermit()": "2512",
				"initContractBalancePaymentCoin()": "2472",
				"onlyApprovedAdmin(address)": "2944",
				"owner()": "2605",
				"permitClaimPoints(address,uint256,uint256,uint8,bytes32,bytes32)": "infinite",
				"permitSwapToPaymentCoin(address,uint256,uint256,uint8,bytes32,bytes32)": "infinite",
				"pointsMin()": "2492",
				"rate()": "2515",
				"renounceOwnership()": "infinite",
				"setAdmin(address)": "infinite",
				"setApprovedAdmin(address[],bool)": "infinite",
				"setMinPointsToSWap(uint256)": "infinite",
				"setPaymentDepositfees(uint256)": "infinite",
				"setRate(uint256)": "infinite",
				"setWithdrawalFee(uint256)": "infinite",
				"setpaymentTokenAndpoints(address,address)": "infinite",
				"swapToPaymentCoinAdmin(address,uint256)": "infinite",
				"transferOwnership(address)": "infinite",
				"vaultName()": "infinite",
				"withdrawalFee()": "2493",
				"withdrawfees(address)": "infinite"
			},
			"internal": {
				"_permit(address,uint256,uint256,uint8,bytes32,bytes32)": "infinite"
			}
		},
		"methodIdentifiers": {
			"DOMAIN_SEPARATOR()": "3644e515",
			"TotalfeescollectedPaymentCoin()": "c4a9e858",
			"admin()": "f851a440",
			"checkAmountToRecive(uint256)": "0d461e61",
			"claimPointsAdmin(address,uint256)": "c4c020f0",
			"claimedPaymentCoin()": "fd918716",
			"depositFee()": "67a52793",
			"eip712Domain()": "84b0196e",
			"emergencyWithdraw(address,address,uint256)": "e63ea408",
			"freezeContract(bool)": "6b4c0789",
			"freezePermit()": "252de51b",
			"initContractBalancePaymentCoin()": "06e0e582",
			"onlyApprovedAdmin(address)": "7d91fb46",
			"owner()": "8da5cb5b",
			"permitClaimPoints(address,uint256,uint256,uint8,bytes32,bytes32)": "6313c6d8",
			"permitSwapToPaymentCoin(address,uint256,uint256,uint8,bytes32,bytes32)": "f9c3a1e8",
			"pointsMin()": "e1fefd42",
			"rate()": "2c4e722e",
			"renounceOwnership()": "715018a6",
			"setAdmin(address)": "704b6c02",
			"setApprovedAdmin(address[],bool)": "945c147b",
			"setMinPointsToSWap(uint256)": "c08e7286",
			"setPaymentDepositfees(uint256)": "76ee947f",
			"setRate(uint256)": "34fcf437",
			"setWithdrawalFee(uint256)": "ac1e5025",
			"setpaymentTokenAndpoints(address,address)": "258ba1ee",
			"swapToPaymentCoinAdmin(address,uint256)": "f55f4206",
			"transferOwnership(address)": "f2fde38b",
			"vaultName()": "0ace9ca0",
			"withdrawalFee()": "8bc7e8c4",
			"withdrawfees(address)": "9683cdc4"
		}
	},
	"abi": [
		{
			"inputs": [
				{
					"internalType": "address",
					"name": "owner",
					"type": "address"
				},
				{
					"internalType": "string",
					"name": "name",
					"type": "string"
				},
				{
					"internalType": "address",
					"name": "paymentAddress",
					"type": "address"
				},
				{
					"internalType": "address",
					"name": "pointsaddress",
					"type": "address"
				}
			],
			"stateMutability": "nonpayable",
			"type": "constructor"
		},
		{
			"inputs": [],
			"name": "ECDSAInvalidSignature",
			"type": "error"
		},
		{
			"inputs": [
				{
					"internalType": "uint256",
					"name": "length",
					"type": "uint256"
				}
			],
			"name": "ECDSAInvalidSignatureLength",
			"type": "error"
		},
		{
			"inputs": [
				{
					"internalType": "bytes32",
					"name": "s",
					"type": "bytes32"
				}
			],
			"name": "ECDSAInvalidSignatureS",
			"type": "error"
		},
		{
			"inputs": [
				{
					"internalType": "uint256",
					"name": "deadline",
					"type": "uint256"
				}
			],
			"name": "ERC2612ExpiredSignature",
			"type": "error"
		},
		{
			"inputs": [
				{
					"internalType": "address",
					"name": "signer",
					"type": "address"
				},
				{
					"internalType": "address",
					"name": "owner",
					"type": "address"
				}
			],
			"name": "ERC2612InvalidSigner",
			"type": "error"
		},
		{
			"inputs": [],
			"name": "InvalidShortString",
			"type": "error"
		},
		{
			"inputs": [
				{
					"internalType": "address",
					"name": "owner",
					"type": "address"
				}
			],
			"name": "OwnableInvalidOwner",
			"type": "error"
		},
		{
			"inputs": [
				{
					"internalType": "address",
					"name": "account",
					"type": "address"
				}
			],
			"name": "OwnableUnauthorizedAccount",
			"type": "error"
		},
		{
			"inputs": [
				{
					"internalType": "string",
					"name": "str",
					"type": "string"
				}
			],
			"name": "StringTooLong",
			"type": "error"
		},
		{
			"anonymous": false,
			"inputs": [],
			"name": "EIP712DomainChanged",
			"type": "event"
		},
		{
			"anonymous": false,
			"inputs": [
				{
					"indexed": true,
					"internalType": "address",
					"name": "previousOwner",
					"type": "address"
				},
				{
					"indexed": true,
					"internalType": "address",
					"name": "newOwner",
					"type": "address"
				}
			],
			"name": "OwnershipTransferred",
			"type": "event"
		},
		{
			"anonymous": false,
			"inputs": [
				{
					"indexed": false,
					"internalType": "address",
					"name": "user",
					"type": "address"
				},
				{
					"indexed": false,
					"internalType": "uint256",
					"name": "amount",
					"type": "uint256"
				}
			],
			"name": "PointsClaimed",
			"type": "event"
		},
		{
			"anonymous": false,
			"inputs": [
				{
					"indexed": false,
					"internalType": "address",
					"name": "user",
					"type": "address"
				},
				{
					"indexed": false,
					"internalType": "uint256",
					"name": "pointToSwap",
					"type": "uint256"
				},
				{
					"indexed": false,
					"internalType": "uint256",
					"name": "paymentTokenRecieved",
					"type": "uint256"
				},
				{
					"indexed": false,
					"internalType": "uint256",
					"name": "_fees",
					"type": "uint256"
				}
			],
			"name": "swap",
			"type": "event"
		},
		{
			"inputs": [],
			"name": "DOMAIN_SEPARATOR",
			"outputs": [
				{
					"internalType": "bytes32",
					"name": "",
					"type": "bytes32"
				}
			],
			"stateMutability": "view",
			"type": "function"
		},
		{
			"inputs": [],
			"name": "TotalfeescollectedPaymentCoin",
			"outputs": [
				{
					"internalType": "uint256",
					"name": "",
					"type": "uint256"
				}
			],
			"stateMutability": "view",
			"type": "function"
		},
		{
			"inputs": [],
			"name": "admin",
			"outputs": [
				{
					"internalType": "address",
					"name": "",
					"type": "address"
				}
			],
			"stateMutability": "view",
			"type": "function"
		},
		{
			"inputs": [
				{
					"internalType": "uint256",
					"name": "pointToSwap",
					"type": "uint256"
				}
			],
			"name": "checkAmountToRecive",
			"outputs": [
				{
					"internalType": "uint256",
					"name": "",
					"type": "uint256"
				}
			],
			"stateMutability": "view",
			"type": "function"
		},
		{
			"inputs": [
				{
					"internalType": "address",
					"name": "user",
					"type": "address"
				},
				{
					"internalType": "uint256",
					"name": "amount",
					"type": "uint256"
				}
			],
			"name": "claimPointsAdmin",
			"outputs": [],
			"stateMutability": "nonpayable",
			"type": "function"
		},
		{
			"inputs": [],
			"name": "claimedPaymentCoin",
			"outputs": [
				{
					"internalType": "uint256",
					"name": "",
					"type": "uint256"
				}
			],
			"stateMutability": "view",
			"type": "function"
		},
		{
			"inputs": [],
			"name": "depositFee",
			"outputs": [
				{
					"internalType": "uint256",
					"name": "",
					"type": "uint256"
				}
			],
			"stateMutability": "view",
			"type": "function"
		},
		{
			"inputs": [],
			"name": "eip712Domain",
			"outputs": [
				{
					"internalType": "bytes1",
					"name": "fields",
					"type": "bytes1"
				},
				{
					"internalType": "string",
					"name": "name",
					"type": "string"
				},
				{
					"internalType": "string",
					"name": "version",
					"type": "string"
				},
				{
					"internalType": "uint256",
					"name": "chainId",
					"type": "uint256"
				},
				{
					"internalType": "address",
					"name": "verifyingContract",
					"type": "address"
				},
				{
					"internalType": "bytes32",
					"name": "salt",
					"type": "bytes32"
				},
				{
					"internalType": "uint256[]",
					"name": "extensions",
					"type": "uint256[]"
				}
			],
			"stateMutability": "view",
			"type": "function"
		},
		{
			"inputs": [
				{
					"internalType": "address",
					"name": "_tokenAddress",
					"type": "address"
				},
				{
					"internalType": "address",
					"name": "_to",
					"type": "address"
				},
				{
					"internalType": "uint256",
					"name": "_amount",
					"type": "uint256"
				}
			],
			"name": "emergencyWithdraw",
			"outputs": [],
			"stateMutability": "nonpayable",
			"type": "function"
		},
		{
			"inputs": [
				{
					"internalType": "bool",
					"name": "_freeze",
					"type": "bool"
				}
			],
			"name": "freezeContract",
			"outputs": [],
			"stateMutability": "nonpayable",
			"type": "function"
		},
		{
			"inputs": [],
			"name": "freezePermit",
			"outputs": [
				{
					"internalType": "bool",
					"name": "",
					"type": "bool"
				}
			],
			"stateMutability": "view",
			"type": "function"
		},
		{
			"inputs": [],
			"name": "initContractBalancePaymentCoin",
			"outputs": [
				{
					"internalType": "uint256",
					"name": "",
					"type": "uint256"
				}
			],
			"stateMutability": "view",
			"type": "function"
		},
		{
			"inputs": [
				{
					"internalType": "address",
					"name": "",
					"type": "address"
				}
			],
			"name": "onlyApprovedAdmin",
			"outputs": [
				{
					"internalType": "bool",
					"name": "",
					"type": "bool"
				}
			],
			"stateMutability": "view",
			"type": "function"
		},
		{
			"inputs": [],
			"name": "owner",
			"outputs": [
				{
					"internalType": "address",
					"name": "",
					"type": "address"
				}
			],
			"stateMutability": "view",
			"type": "function"
		},
		{
			"inputs": [
				{
					"internalType": "address",
					"name": "user",
					"type": "address"
				},
				{
					"internalType": "uint256",
					"name": "amount",
					"type": "uint256"
				},
				{
					"internalType": "uint256",
					"name": "deadline",
					"type": "uint256"
				},
				{
					"internalType": "uint8",
					"name": "v",
					"type": "uint8"
				},
				{
					"internalType": "bytes32",
					"name": "r",
					"type": "bytes32"
				},
				{
					"internalType": "bytes32",
					"name": "s",
					"type": "bytes32"
				}
			],
			"name": "permitClaimPoints",
			"outputs": [],
			"stateMutability": "nonpayable",
			"type": "function"
		},
		{
			"inputs": [
				{
					"internalType": "address",
					"name": "user",
					"type": "address"
				},
				{
					"internalType": "uint256",
					"name": "pointToSwap",
					"type": "uint256"
				},
				{
					"internalType": "uint256",
					"name": "deadline",
					"type": "uint256"
				},
				{
					"internalType": "uint8",
					"name": "v",
					"type": "uint8"
				},
				{
					"internalType": "bytes32",
					"name": "r",
					"type": "bytes32"
				},
				{
					"internalType": "bytes32",
					"name": "s",
					"type": "bytes32"
				}
			],
			"name": "permitSwapToPaymentCoin",
			"outputs": [],
			"stateMutability": "nonpayable",
			"type": "function"
		},
		{
			"inputs": [],
			"name": "pointsMin",
			"outputs": [
				{
					"internalType": "uint256",
					"name": "",
					"type": "uint256"
				}
			],
			"stateMutability": "view",
			"type": "function"
		},
		{
			"inputs": [],
			"name": "rate",
			"outputs": [
				{
					"internalType": "uint256",
					"name": "",
					"type": "uint256"
				}
			],
			"stateMutability": "view",
			"type": "function"
		},
		{
			"inputs": [],
			"name": "renounceOwnership",
			"outputs": [],
			"stateMutability": "nonpayable",
			"type": "function"
		},
		{
			"inputs": [
				{
					"internalType": "address",
					"name": "_admin",
					"type": "address"
				}
			],
			"name": "setAdmin",
			"outputs": [],
			"stateMutability": "nonpayable",
			"type": "function"
		},
		{
			"inputs": [
				{
					"internalType": "address[]",
					"name": "_addresses",
					"type": "address[]"
				},
				{
					"internalType": "bool",
					"name": "_val",
					"type": "bool"
				}
			],
			"name": "setApprovedAdmin",
			"outputs": [],
			"stateMutability": "nonpayable",
			"type": "function"
		},
		{
			"inputs": [
				{
					"internalType": "uint256",
					"name": "_pointsMin",
					"type": "uint256"
				}
			],
			"name": "setMinPointsToSWap",
			"outputs": [],
			"stateMutability": "nonpayable",
			"type": "function"
		},
		{
			"inputs": [
				{
					"internalType": "uint256",
					"name": "_fee",
					"type": "uint256"
				}
			],
			"name": "setPaymentDepositfees",
			"outputs": [],
			"stateMutability": "nonpayable",
			"type": "function"
		},
		{
			"inputs": [
				{
					"internalType": "uint256",
					"name": "_rate",
					"type": "uint256"
				}
			],
			"name": "setRate",
			"outputs": [],
			"stateMutability": "nonpayable",
			"type": "function"
		},
		{
			"inputs": [
				{
					"internalType": "uint256",
					"name": "_fee",
					"type": "uint256"
				}
			],
			"name": "setWithdrawalFee",
			"outputs": [],
			"stateMutability": "nonpayable",
			"type": "function"
		},
		{
			"inputs": [
				{
					"internalType": "address",
					"name": "paymentAddress",
					"type": "address"
				},
				{
					"internalType": "address",
					"name": "pointsaddress",
					"type": "address"
				}
			],
			"name": "setpaymentTokenAndpoints",
			"outputs": [],
			"stateMutability": "nonpayable",
			"type": "function"
		},
		{
			"inputs": [
				{
					"internalType": "address",
					"name": "user",
					"type": "address"
				},
				{
					"internalType": "uint256",
					"name": "pointToSwap",
					"type": "uint256"
				}
			],
			"name": "swapToPaymentCoinAdmin",
			"outputs": [],
			"stateMutability": "nonpayable",
			"type": "function"
		},
		{
			"inputs": [
				{
					"internalType": "address",
					"name": "newOwner",
					"type": "address"
				}
			],
			"name": "transferOwnership",
			"outputs": [],
			"stateMutability": "nonpayable",
			"type": "function"
		},
		{
			"inputs": [],
			"name": "vaultName",
			"outputs": [
				{
					"internalType": "string",
					"name": "",
					"type": "string"
				}
			],
			"stateMutability": "view",
			"type": "function"
		},
		{
			"inputs": [],
			"name": "withdrawalFee",
			"outputs": [
				{
					"internalType": "uint256",
					"name": "",
					"type": "uint256"
				}
			],
			"stateMutability": "view",
			"type": "function"
		},
		{
			"inputs": [
				{
					"internalType": "address",
					"name": "feeTakerAddress",
					"type": "address"
				}
			],
			"name": "withdrawfees",
			"outputs": [],
			"stateMutability": "nonpayable",
			"type": "function"
		}
	]
}